:020000022000DC
:106000000000042001610200D1DF0200270C030020
:10601000D1DF0200D1DF0200D1DF0200000000006A
:10602000000000000000000000000000D1DF0200BE
:10603000D1DF020000000000D1DF0200D1DF02004A
:10604000D1DF0200D1DF0200D1DF0200D1DF020088
:10605000D1DF0200D1DF020011DE0200D1DF020039
:10606000D1DF0200D1DF0200D1DF0200D1DF020068
:10607000D1DF0200D1DF0200D1DF0200D1DF020058
:10608000D1DF0200DFD70200D1DF0200D1DF020042
:10609000D1DF0200D1DF0200E9AE0200D1DF020051
:1060A000D1DF0200D1DF0200D1DF0200D1DF020028
:1060B000D1DF0200D1DF020000000000000000007C
:1060C000D1DF0200D1DF0200D1DF0200D1DF020008
:1060D000D1DF0200D1DF0200D1DF0200D1DF0200F8
:1060E000D1DF0200D1DF0200D1DF0200000000009A
:1060F00000000000D1DF020000000000D1DF02003C
:1061000007F067FF0E480F490022814201D004C00A
:10611000FBE70D480D490E4A814202D008CA08C06B
:10612000FAE70C484FF47001026842EA010202608B
:10613000BFF34F8FBFF36F8F01F0CCFE00DE000086
:1061400070000220BC8C022000000220700002209F
:10615000E021030088ED00E0704700207047002137
:106160000180704770470020704700210170704720
:10617000F0B503AF2DE9000F8BB00B889246056890
:10618000102B16D000221B2B12D0262B73D040F2DE
:106190006E000693C0F20000ADF8100004A808F0ED
:1061A0007FFC06A802F0DEF804F07EF808F0B6FCEA
:1061B00061E002900E464068B1F804800468C87B34
:1061C00005F04CFB07F8390C40F22800C0F2000043
:1061D000B168ADF8180006A8D6F80B200491D6E9EE
:1061E00004B9CDF8132008F05BFC40F28900C0F23E
:1061F0000000ADF8180006A808F011FCA7F139005E
:1062000005F0D3FB40F20C0006AEC0F20000ADF882
:106210001800304608F003FC04A805F03FFB41F2EB
:106220008C60C0F2030008F0FAFB04F03DF8D4E9FA
:10623000000217F8391C049BCDE90002F21CCDF8CE
:106240001B3006F10A03DDF813404046CDF82690D6
:10625000CDF822B0ADF818808DF81A10CDF81E4098
:1062600004F062FAC00704D01421404676DF012210
:1062700000E003220298C9B28468C5E9002105F054
:10628000A2FBD4E900320226A168012B266004D1CA
:106290005268054608469047284605F0BFFB002097
:1062A000CAF800000BB0BDE8000FF0BDF0B503AFB9
:1062B0002DE9000FADF5B74D8BB0834641F6446034
:1062C000C0F203000BF12002CDE9030B0020079080
:1062D00003A8CDE9050045F6B0300BEB000999F8AD
:1062E0006500DFE810F0060079047904FF0151032E
:1062F0008803D9F844000025C9F8000040F23100B5
:10630000C0F200000292ADF828000AA889F8645093
:1063100008F0D8FB40200A958DF82E004FF48040FD
:10632000ADF82C000AA807F045FB0121484640F8CB
:10633000041F41F20002C0F20212062340F65C661E
:10634000C0F835201822837740F20113C0E90825F0
:10635000C0F2033385854586C0F20306C0F82E508F
:106360004FF48075012283624FF00913C0E9015692
:1063700040F20C5680F834108183C0F200124FF4C2
:10638000B064C0E90331C5F200064FF40041C0E932
:10639000054231600321C6F8301205F050FE0AAD07
:1063A000824640F680625146C0F203022846082326
:1063B00001F026F9BDF82840DDE90BC1BDF82AE05F
:1063C0000F98DDE90D2347F82C0CE00747F8381C3F
:1063D00047E90D2340F0BE83A7F1380445F6FE31AE
:1063E000C9F84AC01DCC4BF801000BEB010042601C
:1063F0008360C4605046A9F848E001F0ABFC002877
:1064000000F0BB830146D9F8000007F0E2FE01204E
:106410000321C6F8000340F60020C5F200004FF447
:1064200000620160002332601022C6F82012C6F814
:10643000002340220161C6F800234FF400728161FD
:1064400032600222C6F81812092189F8621040F65B
:106450002031C2F22461C9F85E100421C6F8FC1193
:10646000C163C16242F60270C0F62B20C6F81C124E
:10647000C9F8400027200021EE18E95003F5E16338
:106480000338C6F8C026C6F8C416C6F88826C6F86B
:106490008C16C6F85026C6F85416C6F81826C6F844
:1064A0001C16C6F8E025C6F8E415C6F8A825C6F8F7
:1064B000AC15C6F87025C6F87415C6F83825C6F8A8
:1064C0003C15C6F80025C6F80415C6F8C824C6F859
:1064D000CC14C6F8B014C6F8B414C6F86824C6F8CC
:1064E0006C14C6F83024C6F83414C6E9FE21C6E997
:1064F000F021C6E9E221C6E9D421C6E9C621C6E9F0
:10650000B821C6E9AA21C6E99C21C6E99611C6E9C7
:106510008421C6E97621C6E96821C6E95A21C6E97F
:106520004C21C6E93E21C6E93021C6E92221C6E94F
:106530001421C6E90621716086F80017C6F8F8161E
:1065400086F8CC2686F8C81686F8942686F8901623
:1065500086F85C2686F8581686F8242686F82016D3
:1065600086F8EC2586F8E81586F8B42586F8B01587
:1065700086F87C2586F8781586F8442586F8401537
:1065800086F80C2586F8081586F8D42486F8D014E9
:1065900086F8C01486F8A814C6F8A01486F87424E7
:1065A00086F8701486F83C2486F8381486F804249B
:1065B00086F8001486F8CC2386F8C81386F894234E
:1065C00086F8901386F85C2386F8581386F82423FF
:1065D00086F8201386F8EC2286F8E81286F8B422B2
:1065E00086F8B01286F87C2286F8781286F868124F
:1065F00086F85012C6F8481286F81C2286F818123F
:1066000086F8E42186F8E01186F8AC2186F8A81116
:1066100086F8742186F8701186F83C2186F83811C6
:1066200086F8042186F8001186F8CC2086F8C81078
:1066300086F8942086F8901086F85C2086F858102A
:1066400086F8242086F8201031747FF415AF0BF102
:1066500030050AA945F66832284609F014FF284695
:1066600001F0A6FE002345F698304BF80030584460
:106670004A4641F2BC2502F8683F838240F6986E94
:10668000C0E9013341F2E028C0E9033340F20110D0
:10669000C0F2030541F29826CBF82A004FF4C870E7
:1066A0004FF0080CC0F20306CBF824001046C0F2ED
:1066B000030E0435C2E9035CC0F20308DDF808C02C
:1066C0001824043600F88C3F8BF82830ABF82030C3
:1066D000C2E90164C2F814A0C2E906C8C2F820E009
:1066E000019026E04E4616F8F40FD8B1032840F08A
:1066F0006782494611F8F10F0291002800F0AD8140
:10670000032840F06382C84618F8C80F002800F03C
:10671000C181032800F0A58040F6CC50C0F20300F0
:1067200009F04AFCD9E91FACA6F18C02D9E9218E07
:106730000196C9E9338E45F68C43C9E935AC5B4413
:1067400092E8730073C30020494601F8F10F0291EB
:1067500061464E46012046F88C8F06F1540C96F89F
:10676000503086F8640096F851509CE80414D6F82E
:106770006080C6F804E0B6F85200DFE803F00326B4
:106780001C1E0E000CA8CDF83C8080E804140120EB
:1067900000258DF84100002023E00723ADF82900F3
:1067A00000208DF841308DF82FA0CDF82B200E90D1
:1067B000CDE90CC814E0022308E00020CDE90C2A42
:1067C00006220E908DF841200BE003238DF829500E
:1067D00000258DF841300B92ADF82A000E950C95EE
:1067E00001208DF828000AA800248DF842508DF869
:1067F000404005F033F903283ED1C84640F6DC2579
:1068000008F8C84FC2F2020548E90D5645F65C404B
:106810004C46584444F8B40F0020A246E5604AF8BC
:10682000140D204640F8186DC4E9010A06F059FE1F
:10683000002800F033812868002840F03A81686819
:106840004FF0FF312960002840F0A781019E40F6FB
:106850004C50C0F203000021C5E90014A860C9F83B
:10686000C4A045F6744005A9584403F091F9B8B3A3
:10687000032088F8000053E0054699F8F0008A46A6
:1068800089F8F040012823D140F23600C2F202001C
:10689000007874DF04F0F8FB012819D140F24300BE
:1068A0000A91C0F2000027F8380CA7F1380008F070
:1068B000F7F840F28800C0F2000027F8380CA7F182
:1068C000380008F0ACF80AA804F0C2FD03F0ECFCB4
:1068D00002990120019E042D087024D0307026E119
:1068E000D9F8C0400020D9E92B5AC9F8C00054B1EA
:1068F00006F0F7FD002800F0E2802068002840F054
:10690000F18000206060D9F8A000012803D1D9E906
:106910002910C96888470120042D88F8000005D196
:10692000029903200870032030706EE00299032D55
:106930003070087040F0FB8040F232004C46C0F2EC
:10694000000004F863AFADF828000AA808F0BAF810
:106950000020012184F8450045F6F8305844C4F879
:1069600009000AA84FF4803200236170C4F8054082
:1069700007F084FFDDE90A019DF83020C4F84D00DE
:10698000C4F8511084F8552045F6604005A95844D4
:1069900007F09AFF08B1042037E00AAD45F6184029
:1069A0000BEB000100242846442289F8644009F0DA
:1069B0006AFD45F60E4045F61341584445F6FC3253
:1069C00089F8944045F6F03409F1780C5944C9E946
:1069D00023105A440BF130065C448CE8510045F614
:1069E000484045F6983358445B44C9E9213229466A
:1069F000442209F048FD45F6184005A9584402F024
:106A00001BFBC5B2022D08D1052089F865000DF5E4
:106A1000B74D0BB0BDE8000FF0BD99F8D8000328C2
:106A200004BF99F8D40003281DD0E8070AD040F22B
:106A300034050AACC0F200052046ADF8285008F035
:106A400041F8F9E740F233050AACC0F200052046F0
:106A5000ADF8285008F036F8F9E7D9E9338ED9F8BF
:106A6000D810019675E6D9F8CC400020C9F8CC00C2
:106A70003CB106F036FDD8B32068002851D1002083
:106A80006060D9F8B4000128CFD1D9E92E10C968C7
:106A90008847CAE70196D9E92556B7E601200021C3
:106AA0000B9040F62070C0F203000E910A900D91F9
:106AB0000FE041F25400C0F2030008F058F8012141
:106AC00000200B9140F62071C0F203010E900A9154
:106AD0000D90042040F698710C900AA8C0F20301B2
:106AE00008F0DBF841F27400C0F2030008F03FF850
:106AF0000121002047F8341C40F62071C0F2030148
:106B000047F8280C47F82C0C042047F8381C40F6AE
:106B1000987147F8300CA7F13800C0F2030108F073
:106B2000BCF841F26400C0F2030008F020F840F61F
:106B3000DC6040F6DC53C0F203000AAA009040F685
:106B4000EC50C0F20300C0F203032B21CDE90A5A36
:106B500008F0FCF840F24F00CDF828C0C0F2000069
:106B6000ADF826000DF1260007F09AFF0AA801F003
:106B7000ACFB03F099FB07F0D1FF40F24E00C0F2EE
:106B80000000ADF828000AA807F08AFF0AA801F063
:106B9000C8FB03F089FB07F0C1FF012100200B9126
:106BA00040F6D071C0F203010E900D9004200A91BE
:106BB00041F244010C900AA8C0F2030108F06DF8FC
:106BC00040F63C50C0F2030009F0F6F940F62C50B4
:106BD000C0F2030009F0F0F9FEDED0B502AF86B0D6
:106BE000044641F64460C0F203000021CDE90004F0
:106BF0006A4694F84C000491CDE9022258B103286A
:106C000026D194F8480058B1032827D194F84400BD
:106C100080B9A06A08E0206A84F84810606200E049
:106C2000606A84F84410A062C4E90B10C4E90D1135
:106C3000C4E90F1104F12C0002A902F0FFFF0320A8
:106C400084F84C0084F8480084F8440006B0D0BDB5
:106C500040F64C60C0F2030009F0AEF940F6AC40DB
:106C6000C0F2030009F0A8F9FFF782BA0A460168EA
:106C700049B101290FD140F61E611046C0F203014F
:106C80000A2208F060BE40F617611046C0F2030108
:106C9000072208F058BE80B56F4682B004300190DC
:106CA00040F6286040F63861C0F2030001AB009066
:106CB0001046C0F20301032208F095FE02B080BD29
:106CC00080B56F4684B001A88DF80A300192ADF806
:106CD000081000F0E8F840F26400C0F2000027F865
:106CE000020CB81E07F0EEFE07F018FF80B56F46E5
:106CF00084B03869D7E902CE8DF80F0068468DF868
:106D00000E20ADF80C100293CDE900CE00F0C8F8CB
:106D100040F26500C0F20000ADF80000684607F0E0
:106D2000D1FE07F0FBFE80B56F4682B040F26000F6
:106D3000C0F2000027F8020CB81E07F0C3FE07F0EF
:106D4000EDFE80B56F4684B00846002104F00EFACF
:106D5000022818D0CDE9010140F23D00C0F2000048
:106D6000ADF80C0003A807F09BFE40F28700C0F2CC
:106D7000000027F8020CB81E07F051FE01A804F02D
:106D800036FD03F091FA04B080BD80B56F4682B045
:106D900040F25F00C0F2000027F8020CB81E07F0B6
:106DA00091FE07F0BBFEB0B502AF82B00446A7F17A
:106DB0000D0006F0E0FA17F80D0C00F06F0500204A
:106DC00004F06CF960F30415830745F0200217F80E
:106DD000091C58BF05F05F0242F04003400758BF4E
:106DE00002F03D0303F07D0007F80D0C57F80D0C81
:106DF0002171206002B0B0BD80B56F4682B040F214
:106E00006100C0F2000027F8020CB81E07F05AFE1D
:106E100007F084FE80B56F4682B040F26200C0F297
:106E2000000027F8020CB81E07F04CFE07F076FEB3
:106E3000B0B502AF88B0006841F2AC0341F28404FF
:106E40000A46011D0DF11C0E07910621C0F2030335
:106E5000C0F2030441F2940C0325CDE9024341F250
:106E6000A903CDE9041E41F2A401C0F2030CCDE94F
:106E700000501046C0F20301C0F203030522CDF812
:106E800018C008F064FD08B0B0BDCA69D30648BF99
:106E900009F011B9920658BF09F055BA09F062B964
:106EA0000F3000F048BBF0B503AF4DF804BD86B01D
:106EB000044640F23B00C0F20000ADF8040001A817
:106EC00007F0EEFD40F20500C0F20000ADF804004E
:106ED00001A807F0A4FD41F24120C0F2030007F031
:106EE00021FE03F0E1F90634204603F06EFA80B289
:106EF00001281BD10020CDE903008DF80A004FF4D2
:106F00008570ADF8080001208DF8040088B201A951
:106F1000B0DF04F0B9F8064620460D4603F0C8F984
:106F2000012E08D006B05DF804BBF0BD204603F08A
:106F3000BFF943F2020540F23C000195C0F20000A7
:106F400027F8120CA7F1120007F0AAFD40F2880002
:106F5000C0F2000027F8120CA7F1120007F05FFD45
:106F600001A804F075FA03F09FF906B05DF804BBC0
:106F7000F0BDD4D480B56F4682B00A46017902399B
:106F8000CBB2082B28BF0521C9B2DFE801F00441CC
:106F90001A2B0F52633641F2C401019041F2B40042
:106FA000C0F20301C0F2030000905DE0019041F2E5
:106FB000D80041F2EE01C0F203000090C0F20301DC
:106FC00052E0019041F2B40041F2CA01C0F2030064
:106FD00000901046C0F2030101AB0B2208F003FD44
:106FE00002B080BD019041F2D80041F2E801C0F248
:106FF00003000090C0F2030136E041F21811104680
:10700000C0F20301042202B0BDE8804008F09BBC3E
:10701000019041F2B40040F68861C0F2030001AB78
:1070200000901046C0F20301082208F0DCFC02B018
:1070300080BD019041F2F40041F2A401C0F20300CE
:1070400000901046C0F2030101AB052208F0CBFC12
:1070500002B080BD019041F2D80041F20411C0F2AB
:1070600003000090C0F20301104601AB062208F0B5
:10707000BAFC02B080BDD4D4F0B503AF2DE9000F47
:1070800089B0814606A896468C464FF027084FF0F7
:10709000000A05300290CDE903210BE0002840F002
:1070A00095810020CBF84802B8F101080AF5167A5C
:1070B00000F0888109EB0A0B6646DBF848020028DD
:1070C00018BFDBF84C62092E00F28E81C6EBC601B8
:1070D0009BF8100009EBC1020AEBC1015244D2E94E
:1070E00006359C1E65F10003E51F73F1000328BF00
:1070F000042409EB010303F11801DFE804F005970C
:10710000357F1D04D300C9E70028CAD0DEF800424D
:1071100093F82400196A3F2C00F2EA8025320EEB26
:10712000C4034EF8341091781288DEF800521871BA
:10713000A3F80520D971FFE0002800F0B78006A869
:1071400007F0F8FADDF80CE0DEF800023F2800F264
:10715000B180DDE906124EF830100EEBC00042603F
:10716000DEF80002013098E000289AD0DEF80042F4
:1071700093F82400196A402C80F0AB8002F12505B9
:107180004EF834100EEBC40495F802C02D88DEF8DA
:107190000012207184F807C00131A4F8055014468C
:1071A00034F82D5F402993F82CC0986A0190A0789C
:1071B000CEF80012ADF818508DF81A0080F0C0809B
:1071C00001984EF831000EEBC1012588A1F8055059
:1071D00032F8355FA078DEF80042C8711B6B12F8F8
:1071E000010C81F804C0611C94784029CEF800128B
:1071F000ADF818508DF81A4042D3BAE000283FF499
:1072000050AF186A262800F2F7804FF4167100FB81
:107210000191DEF80002097C00297BD093F8301040
:107220004028DB6A80F0BF80313279E000283FF4EB
:1072300038AFDEF8004293F82400196A402C5AD285
:1072400002F125054EF834100EEBC40495F802C087
:10725000DEF800122D8820710131A4F80550402974
:1072600032F82D5F93F82C009B6A84F807C094785D
:10727000CEF80012ADF818508DF81A4080F08680D4
:107280004EF831300EEBC101DEF8005293781288CF
:107290000871681CA1F80520CB71CEF80002DDF85A
:1072A00010C086E000283FF4FCAE93E00020C2E965
:1072B0000600F6E602989DF81C10DDF810C0028862
:1072C0000A2983780698ADF814208DF8163070D00E
:1072D000C7E00A2840F0D58092F82F10B2F82D5060
:1072E00093F82CC09C6AADF818508DF81A1028E05D
:1072F0000A285ED0E5E00A2840F0D38093F82C00FD
:107300009B6A92F82F10B2F82D20ADF818208DF856
:107310001A103DE093F8281040285B6A46D22932C3
:107320004EF830300EEBC000DEF800529378128831
:10733000A0F805200171C371681CCEF8000238E086
:10734000019C9DF81A00BCF10A0FBDF818108DF8C9
:107350001600ADF8141066D192F834001B6BDDF8FE
:107360000CE092F83710B2F83520ADF818208DF8FF
:107370001A10DDF810C00A289DF81A10BDF8182060
:107380008DF81610ADF8142013D03CE0DDF810C0D5
:107390009DF81A100A28BDF818208DF81610ADF8BF
:1073A000142006D04DE00A2903D0A8E00A2940F0B5
:1073B00098800120CBE99206B8F101080AF5167A07
:1073C0007FF478AE09B0BDE8000FF0BD116A484601
:1073D000884701E0106A804703990020C1F8000245
:1073E00009B0BDE8000FF0BD41F254123046C0F2C2
:1073F00003020A2107F08CFC41F200222721C0F28F
:10740000030207F085FC9DF81610BDF814208DF8D6
:107410001C0041F2D0100693C0F20300ADF81D200D
:107420008DF81F107AE09DF81600BDF814108DF845
:107430001F0041F2E0108DF81CC0C0F2030006945A
:107440006AE09DF81610BDF814208DF81C0041F27A
:10745000B0100693C0F20300ADF81D208DF81F1088
:107460005CE09DF81620BDF81430069041F2302003
:107470008DF81C10C0F20300ADF81D308DF81F20F0
:107480004CE08DF81C00B2F8250092F82730ADF8DA
:107490001D0041F2F0100691C0F203008DF81F307C
:1074A0003CE08DF81C00B2F8250092F82730ADF8CA
:1074B0001D0041F2C0100691C0F203008DF81F308C
:1074C0002CE08DF81C00B2F82500ADF81D0041F24B
:1074D000A01092F82730C0F2030006918DF81F30FB
:1074E0001CE092F82B008DF81C10B2F829108DF8D2
:1074F0001F0041F210200693C0F203000CE092F846
:1075000033008DF81C10B2F831108DF81F0041F2D5
:1075100020200693C0F20300ADF81D1041F2641361
:10752000009041F2741006AAC0F20300C0F20303F7
:107530002B2107F00BFCF0B503AF4DF804BD86B06E
:10754000044640F23B00C0F20000ADF8040001A880
:1075500007F0A6FA40F20500C0F20000ADF8040002
:1075600001A807F05CFA41F24020C0F2030007F0E6
:10757000D9FA02F099FE204602F027FF80B20128D6
:107580001BD10020CDE903008DF80A004FF485706F
:10759000ADF8080002208DF8040088B201A9B0DF20
:1075A00003F072FD064620460D4602F081FE012ED4
:1075B00008D006B05DF804BBF0BD204602F078FEAE
:1075C00043F2020540F23C000195C0F2000027F8AA
:1075D000120CA7F1120007F063FA40F28800C0F223
:1075E000000027F8120CA7F1120007F018FA01A802
:1075F00003F02EFF02F058FE06B05DF804BBF0BDAC
:10760000F0B503AF2DE9000FBBB00DF1B0099A46FC
:1076100015460646484641F60A0201230C464FF03D
:10762000010804F0C9FABDF8B00008B12D982FE1A7
:107630000AA84FF0020B80E8300403254FF0807455
:10764000BDF8B200ADF894004FF48070ADF8CA00F8
:107650001CA80D9600263396CDF8CF608DF8D8B0D3
:107660008DF8D3B0ADF8C0608DF8BA508DF8748045
:107670001C9403F01AFDADF84800000C8DF84A0088
:1076800041F290204FF00708C0F203000DF1480AC4
:10769000CDE9000828A825A942F650220123CDE90A
:1076A000028ACDF8109004F0A7FABDF8A0000028D7
:1076B00040F0EC804FF480703396ADF8CA001CA8FF
:1076C000CDF8CF60ADF8C06001268DF8D8B08DF848
:1076D000D3B08DF8BA508DF874601C9403F0E5FCBB
:1076E000ADF84800000C8DF84A0041F28420C0F249
:1076F000030025A9CDE9000828A842F62922012384
:107700002CADCDE9028A049504F076FABDF8A0000C
:10771000012800F0BB8000204FF480713390CDF839
:10772000CF00ADF8C00003208DF8BA004FF0807094
:107730001C901CA8ADF8CA1002218DF8D8108DF845
:10774000D3108DF8746003F0B0FC41F28B21ADF8DA
:107750004800000CC0F203018DF84A000520CDE975
:10776000001025A9CDE9020A28A842F62422012307
:10777000049504F041FABDF8A000012800F08680CD
:107780000C9CB4F5803F80F0718200200DF17009EF
:1077900033904FF48071CDF8CF00ADF8C0000320D6
:1077A0008DF8BA0001208DF874004FF08070ADF8AC
:1077B000CA1002211C9048468DF8D8108DF8D310BD
:1077C00003F073FCADF84800000C8DF84A0025A9C1
:1077D0000B9842F62522CDE9000428A80123CDE923
:1077E000024A049504F008FABDF8A00001284DD023
:1077F0000A9928A841F60F020123012404F0DCF9BC
:10780000BDF8A000002841D141F242200021C0F281
:1078100003000DF1480A1C900120C2F2AD7040F245
:107820000108309040F2000BBDF8A200C0F2001831
:10783000ADF848004FF08070CDF87600C0F2011B23
:10784000CDF8D3004FF48020319003208DF8BA009A
:1078500028A8CDF8CF1042F619228DF8CA1040F2B0
:107860000121ADF8D71051460123CDF8CB80CDF8DA
:10787000D9B08DF87A40ADF874408DF8C840CDE9A4
:10788000009501F06CFEBDF8A00040B129980D9E56
:107890007060012030803BB0BDE8000FF0BD0A9958
:1078A0002CA841F612020123BDF8A640BDF8A26043
:1078B00004F082F9BDF8B00008B12D98E7E7BDF8F3
:1078C000B2002CA927F8CE0C0420109008F588707F
:1078D0000F900FA8CDE9000125A8A7F1CE01002542
:1078E000CDE90B644FF0020840F202244FF4807699
:1078F000CDF8D9B042F64A22CDF8D4B04FF0030B00
:10790000012333958DF84450ADF84540ADF8CA6079
:10791000CDF8CF508DF8D8808DF8D380ADF8C05019
:107920008DF8BAB001F0F0FDBDF89400002840F0E9
:10793000CC80BDF89600A7F1CE010A9041F2432019
:10794000C0F2030042F64B2212904120CDE9130011
:107950000020C0F201100123CDF8D90035902CA8E9
:107960003395CDE900A025A88DF85450ADF85540C9
:10797000ADF8CA60CDF8CF50ADF8C05001258DF8F4
:10798000D8808DF8D3808DF8BAB001F091FDBDF8A4
:107990009400002840F099802CA916A80026002405
:1079A000CDE9000125A8A7F1CE01C0F2011640F2F1
:1079B000022B4FF0030A169542F64C228DF8CC505C
:1079C00002250123BDF896808DF85F408DF85C405C
:1079D000ADF85DB0CDF8CD40ADF8CA40ADF8D140BE
:1079E000CDF8D9608DF8D85035968DF8D350ADF8D4
:1079F000C0408DF8BAA001F02FFDBDF8940000281A
:107A000063D13146BDF89600ADF865B08B46CDF830
:107A1000D9104FF4807635912CA9089018A8CDE99B
:107A2000000125A8A7F1CE01CDF824804FF0010870
:107A300042F64E2201238DF867808DF86440CDF820
:107A40006080CDF8CD408DF8CC80ADF8CA60ADF83F
:107A5000D1408DF8D8508DF8D350ADF8C0408DF896
:107A6000BAA001F0F9FCBDF8940070BBBDF8960017
:107A7000A7F1CE01079008201E9002208DF8D800B3
:107A800003208DF8BA002CA840F2022A42F64D22BB
:107A9000CDE9009025A80123CDE91C448DF87C4058
:107AA000ADF87DA0CDF8CF408DF8CE80CDF8CA607E
:107AB000CDF8D9B0CDF8D4B08DF8D340ADF8C040F2
:107AC00001F09FFCBDF8940008B12698DFE6BDF8F0
:107AD0009C0040F201152699C0F2020507F8804C7F
:107AE000012327F8824C2CACBDF896200126ADF876
:107AF0006E00A7F18600CDF86A101AA9ADF86820CB
:107B000042F608120090204647F8865C27F87FACC2
:107B100001F051FDBDF8B00000287FF4CEAE4FF06B
:107B200080701AA92D9025A842F6081201238DF81D
:107B3000B8602C95009401F03EFDBDF8940000283B
:107B4000C3D1BDF86800A7F1CE01069008202A90A5
:107B500040F20010C0F201100026CDF8CA00022049
:107B60008DF8D8004FF40070ADF8D20003208DF8E6
:107B7000BA0028A8CDE9000425A840F2022542F663
:107B80004D220123BDF89690BDF86CA0CDE9286682
:107B90008DF8AC60ADF8AD50CDF8CE60CDF8D9B071
:107BA000CDF8D4B0ADF8C06001F02BFCBDF8940066
:107BB00000288AD1BDF89C002CAC269940F20128FF
:107BC000BDF89620C0F20208ADF89200A7F1260099
:107BD000CDF88E1023A9ADF88C2042F60812009043
:107BE0002046012327F81F5C47F8268C012507F85B
:107BF000206C27F8226C01F0DEFCBDF8B0000028F4
:107C00007FF45BAE4FF0807023A92D9025A842F63B
:107C1000081201238DF8B850CDF8B080009401F01F
:107C2000CAFCBDF8940001283FF44FAF0D9EBDF88B
:107C30009600BDF88C10F0820698F0810798B1820A
:107C4000B081DDE90810A6F81290A6F810A040EA6D
:107C50000140B0600A98F0800C98B0800B9870805A
:107C6000002030803BB0BDE8000FF0BD40F2630063
:107C7000C0F20000ADF8A00028A806F011FF28A867
:107C800000F036FB02F010FB06F048FFF0B503AF42
:107C90002DE9000784B08246D7E90389C08996B2EE
:107CA000B0422CD140F22F00C0F20000ADF800002D
:107CB000684606F0F5FE40F20B00C0F2000027F81F
:107CC000220CA7F1220006F0AAFE02A8CDF8089027
:107CD00006F07DFE40F20500C0F20000ADF80C0099
:107CE00003A806F09CFE029C3CB14546284606F0DF
:107CF00019FF013C05F10105F8D102F0D5FAB9F1FF
:107D0000000F22D0BAF80200B0421ED198F800004D
:107D100000F0010007F8250C40F22E00C0F2000030
:107D2000ADF8040001A806F0BBFE40F20A00C0F264
:107D3000000027F81A0CA7F11A0006F070FEA7F150
:107D4000250006F078FE02F0AFFA002004B0BDE88E
:107D50000007F0BDF0B503AF4DF8048D82B00446C6
:107D600003F031FE40F27006C2F20206356805BB30
:107D7000804640F6B840C2F202004FF4004C50F882
:107D80000C2000F50041002A08BF0246D31D891AC5
:107D900023F007039B1A03F150058D422DD851198A
:107DA000D51840F80C105021284608F0A3FC404696
:107DB000356003F033FE05F1080040F2011150E890
:107DC000002F92B940E80012002AF8D146F6DB30C5
:107DD000C0F202002146686105F1200001F02FFC8D
:107DE000284602B05DF8048BF0BDBFF32F8F00254D
:107DF000284602B05DF8048BF0BD40F28100C0F26D
:107E0000000027F8120CA7F1120006F05BFE06F046
:107E100085FEF0B503AF4DF8048D82B0044603F043
:107E2000D2FD40F27406C2F20206356815BB8046E8
:107E300040F6B840C2F202004FF4004C50F80C205B
:107E400045F6A84500F50041002A08BF0246D31DAB
:107E5000891A23F007039B1A1D448D422ED851190D
:107E6000D51840F80C1045F6A841284608F042FC09
:107E70004046356003F0D2FD05F1080040F20111E3
:107E800050E8002F92B940E80012002AF8D146F2DB
:107E9000AD20C0F202002146686105F1200001F02A
:107EA000D3FB284602B05DF8048BF0BDBFF32F8FE3
:107EB0000025284602B05DF8048BF0BD40F2810039
:107EC000C0F2000027F8120CA7F1120006F0FAFD2C
:107ED00006F024FE80B56F4600F000F880B56F46CE
:107EE00084B06C46204606F0A2F8204601F0B4FBB0
:107EF000F0B503AF2DE9000F8BB00C4611680029D7
:107F000000F05E812188112917D11546846803F09D
:107F10005AFDD4E900320226A168012B266004D163
:107F20005268044608469047204603F077FD00203B
:107F300028600BB0BDE8000FF0BD00682646D0F801
:107F4000009036F8040F02F05CFAC00700F043819D
:107F5000208807F8291C502800F0A08051282DD037
:107F6000522840F0258140F21400C0F20000ADF824
:107F7000200008A806F094FD40F20600C0F20000C0
:107F8000ADF8200008A806F04AFD304606F047FD8F
:107F900002F08AF9308802F034FAC00700F0088154
:107FA000A7F11F0007F81F1C02F0DBFB002800F000
:107FB000E380CA6BA7F11F019047F5E0A079CDF8E7
:107FC0001890022840F01681208A049040F2170091
:107FD000C0F20000B4F812B0ADF8200008A8059176
:107FE00007F81F1C06F05CFD40F20600C0F200001E
:107FF000ADF8200008A806F012FD04F1080630468E
:1080000006F00DFD40F20B00C0F20000ADF82000BC
:1080100008A806F004FD08A8CDF820B006F0D7FCAB
:1080200040F20508A7F11E00C0F2000827F81E8CD8
:1080300006F0F5FCDDF8209004F1140AB9F1000F08
:1080400008D05546284606F06DFDB9F1010905F145
:108050000105F7D102F028F914F80E2F501EC0B216
:10806000052840F2F38040F26800C0F20000ADF84D
:10807000200008A806F014FD08A8ADF8208006F03E
:10808000CEFC204606F04EFD02F00EF9A7F11F00CF
:10809000FFF751FA0BB0BDE8000FF0BDE089069084
:1080A00040F21500C0F20000B4F81080ADF82000D6
:1080B00008A806F0F5FC40F20600C0F20000ADF89A
:1080C000200008A806F0ABFCA61D304606F0A7FC71
:1080D00040F20B00C0F20000ADF8200008A806F046
:1080E0009EFC08A8CDF8208006F071FC40F2050047
:1080F000C0F2000027F81E0CA7F11E0006F08FFC4E
:10810000DDF820B004F1120ABBF1000F08D055468B
:10811000284606F007FDBBF1010B05F10105F7D17B
:1081200002F0C2F814F80C3F581EC0B206280BD259
:108130003288A7F129010698CDE9000A4846CDF812
:108140000880FFF7A3FD33E040F26700C0F20000B3
:10815000ADF8200008A806F0A3FC40F20500C0F22C
:108160000000ADF8200008A806F059FC204606F0F3
:10817000D9FC02F099F81BE0A7F11F00002102F0E2
:10818000F5FF022810D0CDE9080140F23E00C0F210
:10819000000027F81E0CA7F11E0006F081FC08A8BD
:1081A00000F0CDF802F080F8A7F11F0002F080F88F
:1081B000A7F1290002F07CF80BB0BDE8000FF0BD7C
:1081C00041F2F03041F21842C0F20300C0F2030263
:1081D000282106F06DFD40F26600C0F20000ADF807
:1081E000200008A806F05CFC00F061F802F05CF8E2
:1081F00006F094FC01281ED140F216000E46C0F293
:108200000000ADF8200008A806F04AFC40F2060085
:10821000C0F20000ADF8200008A806F000FC04F150
:10822000080006F0FCFB02F03FF8E28933462189A2
:108230000698FEF745FD40F26900C0F20000ADF877
:10824000200008A806F03EFC06F068FC059831887E
:1082500002900698049BCDE900ABFEF747FDFFF7BF
:1082600047BED0B502AFA0FB00C200FB012E4CF20E
:10827000503200FB01F312EB0C0243EB0E0352EA07
:1082800003040ED000FB01E142F2107EACFB0E04B1
:1082900001FB0E4108F0F4FA10F57A7041F100018B
:1082A000D0BD41F25840C0F2030007F072FE80B525
:1082B0006F4682B040F20100C0F2000027F8020CC5
:1082C000B81E06F0ACFB02B080BDD0B502AF82B0E4
:1082D000044640F28500C0F2000027F80A0CA7F11E
:1082E0000A0006F09CFB204603F0A5FA02B0D0BDC0
:1082F000D0B502AF82B0044640F20C00C0F20000DC
:1083000027F80A0CA7F10A0006F089FB204606F0C0
:10831000F5FB41F28C60C0F2030006F080FB02B076
:10832000D0BD80B56F4682B040F28E00C0F2000032
:1083300027F8020CB81E06F072FB02B080BDD0B563
:1083400002AF82B0044640F28700C0F2000027F876
:108350000A0CA7F10A0006F062FB204603F047FA78
:1083600002B0D0BDD0B502AF82B0044640F20700E3
:10837000C0F2000027F80A0CA7F10A0006F04FFB34
:10838000204606F024FB02B0D0BDD0B502AF82B0CB
:10839000044640F28800C0F2000027F80A0CA7F15A
:1083A0000A0006F03CFB204603F052F802B0D0BDB4
:1083B000F0B503AF2DE9000FADF5364DB9B041F280
:1083C000305100EB010842F2985100EB010B43F6EB
:1083D000580100EB010944F6C00100EB010A45F623
:1083E00028110DF1780E014400F599640EF5B6429E
:1083F000CDE90210272000210223002556195151F2
:1084000005F5E1650338C6F8C036C6F8C416C6F8E7
:108410008836C6F88C16C6F85036C6F85416C6F814
:108420001836C6F81C16C6F8E035C6F8E415C6F8C6
:10843000A835C6F8AC15C6F87035C6F87415C6F878
:108440003835C6F83C15C6F80035C6F80415C6F828
:10845000C834C6F8CC14C6F8B014C6F8B414C6F8BC
:108460006834C6F86C14C6F83034C6F83414C6E95B
:10847000FE31C6E9F031C6E9E231C6E9D431C6E9D8
:10848000C631C6E9B831C6E9AA31C6E99C31C6E9A8
:108490009611C6E98431C6E97631C6E96831C6E984
:1084A0005A31C6E94C31C6E93E31C6E93031C6E938
:1084B0002231C6E91431C6E90631716086F8001729
:1084C000C6F8F81686F8CC3686F8C81686F89436BC
:1084D00086F8901686F85C3686F8581686F82436A4
:1084E00086F8201686F8EC3586F8E81586F8B43557
:1084F00086F8B01586F87C3586F8781586F8443508
:1085000086F8401586F80C3586F8081586F8D434B8
:1085100086F8D01486F8C01486F8A814C6F8A014FB
:1085200086F8743486F8701486F83C3486F838146B
:1085300086F8043486F8001486F8CC3386F8C8131D
:1085400086F8943386F8901386F85C3386F85813CF
:1085500086F8243386F8201386F8EC3286F8E81281
:1085600086F8B43286F8B01286F87C3286F8781233
:1085700086F8681286F85012C6F8481286F81C323F
:1085800086F8181286F8E43186F8E01186F8AC31E6
:1085900086F8A81186F8743186F8701186F83C3197
:1085A00086F8381186F8043186F8001186F8CC3048
:1085B00086F8C81086F8943086F8901086F85C30FB
:1085C00086F8581086F8243086F8201031747FF42D
:1085D00015AF04AD0DF1780E0EF5B64145F66832D3
:1085E000284607F050FF039E294645F6683230467C
:1085F00007F049FF1A200221C6F8780214203062E1
:108600000820C6F8D0041520C6F828071720C6F899
:1086100080090420C6F8D80B1620C6F8300E0920B1
:10862000C4F8180E0A20C8F808001D20C8F8600217
:108630001B20C8F8B8040620C8F810071920C8F88D
:1086400068091320CBF8180E1220CBF8C00B0C20B1
:10865000CBF868091820CBF810071C20002207234C
:10866000CBF8B8042C203546C4F8C03B0523CBF822
:1086700060020020C6F87422C6F870120BF1040CD8
:10868000C6E906124FF0050E86F87C1286F8241013
:1086900086F8D41486F82C1786F8841986F8DC1B23
:1086A00086F8341E0326C8F8C03B0123C4E9001233
:1086B000C4E99612C4F8B424C4F80C27C4F8642999
:1086C000C4F8142EC4F8BC2BC8F8BC2BC8F8642915
:1086D000C8F80C27C8F8B424C8E99612C8E90012F3
:1086E000CBF8142ECBF8BC2BCBF86429CBF80C2795
:1086F000CBF8B424CBE9961225228CE80D00102388
:108700000022CBE904064FF0010CCBF81800C9F8A1
:10871000140EC9F86409C9F80C07C9F8B404C9E90A
:108720009610C9F804001120C9F8180E3320C9F8B2
:1087300068090F20C9F810070E20C9F8B8040D20E9
:10874000C9F860020B20C9F808001020CAF8180EFA
:108750003820CAF810073720CAF8B8043620CAF8FB
:1087600060020298CAF808300423CBF800E0836066
:1087700000230673C0E900122B20A8658020C5F8ED
:10878000B809032085F8140C85F86C0E84F8FC0BEE
:1087900084F8540EC4F8500E8120C8F84000082018
:1087A000CAF810EE0DF1780E8DF81400FF208DF848
:1087B000100048F26320CAF8246EC0F202008AF862
:1087C000C46B2E4685F85C10C5E9141285F8BC19F7
:1087D000C5F810CCC5F8682E0EF5B645C4F8B0142F
:1087E000C4F80817C4F8601984F81C1EC4F8101ED9
:1087F00084F8C41BC4F8B81B88F8C41BC8F8B81B9D
:1088000088F86C19C8F8601988F81417C8F80817A0
:1088100088F8BC14C8F8B01488F8641288F80C10F2
:10882000CBF8101ECBF8B81BCBF86019CBF80817A3
:10883000CBF8B0148BF81C1E8BF8C41B8BF86C198A
:108840008BF814178BF8BC148BF86412C9F8101E3F
:10885000C9F86019C9F80817C9F8B014C9F80010A8
:1088600089F81C1E89F86C1989F8141789F8BC144A
:1088700089F8641289F80C10CAF8B81BCAF80817EE
:10888000CAF8B014CAE99612CAE90012CAF81C1E46
:108890008AF814178AF8BC148AF864128AF80C1043
:1088A000C4F8E814C4F84017C4F89819C4F8F01BC9
:1088B000C4F8F81BC4F8481E88F84410C8E90E1222
:1088C00004A900902846CAF8BC2BCAF80C27CAF89D
:1088D000B424CAF8142ECAF8202ECAF8282EC4F8D8
:1088E000EC24C4F84427C4F89C29C4F8F42BC4F839
:1088F0004C2E4FF48042CAF8C0CB05F0FDFE29464D
:1089000006F5BE50AC466CC96CC002947CC97CC0F4
:1089100091E87C0004A97CC008204FF480428DF8C7
:10892000140001208DF8100048F26320C0F202000C
:10893000002300906046644605F0DEFE039941F690
:108940001820A6464FF0500C084421466CC96CC054
:108950007CC97CC091E87C0039217CC04C200BF1A3
:108960004002CBF8500E042088F8FC0B002688F853
:10897000A409022588F84C072C20CBF8980228205F
:10898000CBF8F014012143C203205222CBE9130695
:108990002A20C9F8A0090020C9E90E50FF20C8F814
:1089A000F81B4F218DF8100048F263205123C9F8BD
:1089B0004817C0F2020004A90524C9F8F024C9F838
:1089C0009832A422009070460023C8F8F46BC8F8CF
:1089D000F05BC8F89C69C8F89859C8F84467C8F8AB
:1089E0004057CBF8485ECBF84C6ECBF8E854CBF848
:1089F000EC64CBE9A456C8F8A059C8F848678BF8CE
:108A0000545E8BF8F4548BF89C52CBE90E468DF8EB
:108A100014407446C9F89859C9F89C69C9F8405778
:108A2000C9F84467C9F8E854C9F8EC64C9E9A45620
:108A3000C9F840C089F8A45989F84C5789F8F4540A
:108A400089F89C5289F8445005F056FE039944F287
:108A5000A060A446084421466CC96CC07CC97CC097
:108A600091E87C0004A97CC00620A4228DF81400A3
:108A700001208DF8100048F26320C0F202000023AC
:108A800000906046644605F037FE039944F6F8000E
:108A9000A446084421466CC96CC07CC97CC091E8DE
:108AA0007C0004A97CC0FF20A4228DF810000620C1
:108AB0008DF8140048F26320C0F2020000230090F9
:108AC0006046644605F018FE039944F65030A4460B
:108AD000084421466CC96CC07CC97CC091E87C000C
:108AE00004A97CC00520A4228DF8140001208DF873
:108AF000100048F26320C0F202000023009060469C
:108B0000644605F0F9FDDDF80CC044F6A8504ECCE3
:108B10004FF0010E60444EC06ECC6EC094E86E0003
:108B200035246EC028200223029D0326CAF8480778
:108B30002F20CCF8E8020521A8672920CCF8900066
:108B40000020CAF8600E0022CAF8580ECAF84C0E6F
:108B5000CAF8F40BCAF84407CCE9B830CCE92230A3
:108B6000C5F87C07C5F824050120CAF8481E26214F
:108B7000C5F83005C5E9B606C5E91F30CAF8F80BD7
:108B80002D20C5E9B4131021CAF8543ECAF8F03BB1
:108B9000CAF84037C5F87837C5F82C358AF84C370D
:108BA0008CF8EC328CF89430CCF8480C8CF84C3CB7
:108BB0004FF02E0CC5F8880E0220C5F88C3E85F8C3
:108BC000343CC5F8283C2523CAF8501E2946C5F870
:108BD0002065C5F82845C5F83465C5E9B262C5F811
:108BE0008460C5E91C62C5F8806EC5F8842EC5F89E
:108BF00090EEC5F8946EC5F82C2CC5F830CCC5F8AD
:108C0000D069C5F8D429C5F8D839C5F8DC09C5F844
:108C1000E0E9C5F8E4692225C8F8305C1F25CBE9F6
:108C20001E3E0423C8F880573125C9F88037062333
:108C3000C8F8D0C20BF5686CC8F828552125C9F8CA
:108C4000283531238CE8150005244FF0050CC8E9C0
:108C50001E503425CAF878303423CAF85C6E8AF87E
:108C6000FC6BC8F8286CC8F83C6CC8F87867C8F882
:108C70008C67C8F82065C8F83465C8F8DC62C8E9B4
:108C8000B262C8E91C62C8E920E6CBF8D069CBF82B
:108C9000E469CBF87867CBF88C67CBF82065CBF824
:108CA0003465CBE92026C9E91C62C9E920E689F8C8
:108CB000DC6989F8846789F82C6589F8D462CAF878
:108CC000946ECAF87867CAF88C67CAF82065CAF843
:108CD0003465CAE9B262CAE9B6E68AF8346C039E22
:108CE000C8F8D8593025CAF828352423CBE91C42C6
:108CF000C9F8D8490724C9F8D0421024CAE9B430C9
:108D00002123CBF8305CCBF8D8592725CBF88057F6
:108D10002325CAF8884E0324C6F8D0371F23CBF882
:108D200028552C25C6F8203306F1C003C1E92A02D4
:108D3000C1E9C002C1F85805C1F85C25C1F8B00707
:108D4000C1F8B427C1F8080AC1F80C2A81F86C4CA4
:108D500081F8C44EC1F8600CC1F8642CC1F8680CED
:108D6000C1F8B80EC1F8BC2EC1F8C04E3E21CBF8F8
:108D7000D0522025CAF880CE4FF01E0C83E8051093
:108D80002223C8F8681C08F5F661C6F8283A3D2386
:108D9000C6F87855C6E9C60286F8240386F8CC00E2
:108DA00086F87C0586F8D40786F82C0A86F8844C69
:108DB000C6F880EC86F8DC4EC6F8D82E3C2645C1B5
:108DC00008F5AB610226C9E91E503B2525C108F50F
:108DD0004071CAF880C74FF03A0C81E80510442171
:108DE000C8F8B0102721CBF8C01E2621CBF8681C8C
:108DF0002421CBF8B8172321CBF860152C21CBF810
:108E000008130521C8F8340CC8F8D009C8F884073D
:108E1000C8F82C05C8E9B50E88F8DC09CBF8280C91
:108E2000CBF8DC09CBF88407CBF82C058BF88C0E3B
:108E30008BF8340C8BF8D402CBE9B202C9F8D00914
:108E4000C9F87807C9F82005C9E9B202CAF88C0E3A
:108E5000CAF8280CCAF88407CAF82C05CAE91C020B
:108E60008AF87C00C8F8600CC8F8080A88F86C0C0E
:108E700088F8140A88F8BC0788F8640588F80C0399
:108E800088F8B400C8E92A02CBF8B80ECBF8600C19
:108E9000CBF8080ACBF8B007CBF85805CBE9C002ED
:108EA0008BF8C40E8BF86C0C8BF8140A8BF8BC078B
:108EB0008BF864058BF80C030BF1A800C8F8103A86
:108EC000252380E80E403F20C9F8C00E0420C9F8D1
:108ED000B8070620C9F860050720C9F8080345202F
:108EE000C9F8B0001020CAF8C00E0020CAF8640CFF
:108EF0004320CAF8B8074220CAF860054120CAF8E2
:108F000008034020C8F82C2CC8F838ECC8F8D4293D
:108F1000C8F87C27C8F888E7C8F82425C8F830E5E1
:108F2000CBF82C2CCBF8D429CBF8E0E9CBF87C2774
:108F3000CBF888E7CBF82425CBF830E5CBF88820B0
:108F4000C9F8D429C9F87C27C9F82425CAF8982E6D
:108F5000CAF8902ECAF8842ECAF82C2CCAF87C279E
:108F6000CAF888E7CAF82425CAF830E5CAF830EC10
:108F7000C8F8642CC8F80C2ACBF8BC2ECBF8642CAB
:108F8000CBF80C2ACBF8B427CBF85C25CBF8103AF9
:108F9000CBE92E24CBF8C020C9F8B86EC9F8BC2E96
:108FA000C9F8B067C9F8B427C9F85865C9F85C258D
:108FB000C9E9C06289F8C46E89F8144AC9F8086A18
:108FC000C9F80C2AC9F8101A89F8BC4789F8644511
:108FD00089F80C4389F8B460C9E92A62CAF8B42751
:108FE000CAF8B067CAF85C25CAF85865CAE9C06211
:108FF000CAE92A62CAF8B81ECAF8BC2ECAF8C46EFA
:10900000CAF8C82ECAF8CC4ECAF8D02E8AF86C4CD2
:10901000CAF8606CCAF868EC8AF8BC678AF86465BC
:109020008AF80C638AF8B460CAF8B0000DF5364DC2
:1090300039B0BDE8000FF0BDF0B503AF2DE9000F6A
:109040008BB0044690F87000019170B1032840F095
:10905000B680A14619F86C0F48B3032852D041F2EC
:10906000E030C0F2030006F0A7FF206B0078142860
:1090700080F0AB80742140F2800200FB01F3C2F269
:109080000202D35CDB0767D010FB0120D4F83480E8
:10909000408802F0AFF806460020A14609F86C0FA0
:1090A00009F1050049E90D6849F82C0C02E0D4E902
:1090B0000E68206C25464FF0000A45F8448F05F1F4
:1090C0002901A846686048F808AFC5E90551C5E917
:1090D000078604F006FA002846D0306800284FD1F1
:1090E00070684FF0FF313160002875D141F2603176
:1090F00005F11400C0F203010022C6E90020B160AE
:10910000C4F86880019904F1680000F041FD70B175
:10911000032040F2105684F87000C5F2000684F86F
:109120006C0094F82C00002840F05C8167E0656ECC
:109130000020606635B104F0D4F938B32868C0BBAC
:1091400000206860E06C012803D1D4E91410C968DC
:109150008847012089F80000012084F87000002071
:109160000BB0BDE8000FF0BD0120CDF820A00590A8
:1091700040F62070C0F20300CDF81CA004900FE070
:1091800041F25400C0F2030005F0F1FC012100207F
:10919000059140F62071C0F20301089004910790F8
:1091A000042040F69871069004A8C0F2030105F06F
:1091B00074FD41F26400C0F2030005F0D8FC41F2F6
:1091C0005030C0F2030006F0F7FE41F25452142171
:1091D000C0F2030205F09CFD01210020059140F63C
:1091E000D071C0F20301089007900420049141F26D
:1091F0004401069004A8C0F2030105F04EFD0025CD
:109200004FF0010941F2707A4FF000084BE04978C5
:109210005A462844202938BF3246126801F01F01FF
:1092200000F6B83022FA01F101F0010105F031FA3F
:10923000D4E9050259468078202838BF31460968AC
:1092400000F01F0021FA00F000F001015019504415
:1092500005F01FFAD4E90502C078202838BFB346CC
:10926000DBF8001000F01F0021FA00F000F001010F
:10927000501941F67862104405F00BFA216908F1A3
:1092800001004FF43F7205F5167511F8081080467D
:10929000202901F01F0138BF6FF00302052809FAE9
:1092A00001F1B15047D020694FF43E7106F5407B83
:1092B00010F80800202800F01F0038BF6FF00701E9
:1092C00009FA00F070505946D4E9050200782028C8
:1092D00038BF3146096800F01F0021FA00F000F0A5
:1092E0000101501905F0D5F9D4E90510B8F1020FC4
:1092F0008DD249785A462844202938BF3246126810
:1093000001F01F0100F6B83022FA01F101F001016D
:1093100005F0BFF9D4E905028078202838BFB346AC
:10932000DBF8001000F01F0021FA00F000F001014E
:1093300050195044A0E7D4E9061000F099FB08B397
:10934000D4E9081C0023D0F8032005780989B0F877
:109350000700CDF80A2002AA8DF809300823ADF8DD
:109360000E0060468DF8085001F0C5FE02280ED1AF
:1093700040F23000C0F20000ADF8100004A805F083
:10938000A1FB1FE04FF4004046F8040C1EE0CDE9BD
:10939000040140F24D00C0F2000027F81E0CA7F1B6
:1093A0001E0005F07DFB40F28600C0F2000027F8A9
:1093B0001E0CA7F11E0005F032FB04A802F017FAFC
:1093C00000F072FF4FF4004046F8080C04A8A422F5
:1093D000002305F053FADDE904019DF81820C4E9E3
:1093E000000122720199204605F06EFA00283FF430
:1093F00006AF032084F82C0002200BB0BDE8000F5C
:10940000F0BDF0B503AF2DE9000B88B0BD68044690
:109410000E4698469146A87B8DF81C0006A8D5F804
:109420000A10069101F041FEADF81400000C05AAE7
:109430008DF8160028890823F968CDE90202204634
:10944000CDE900534A4604913146434602F0D4FB2D
:1094500008B0BDE8000BF0BDF0B503AF2DE9000B7F
:1094600088B0BD6804460E4698469146A8798DF8A6
:109470001C0006A8D5F80210069101F016FEADF802
:109480001400000C05AA8DF8160028880123F9683D
:109490000735CDE902022046CDE900534A46049142
:1094A0003146434602F0A8FB08B0BDE8000BF0BD12
:1094B000F0B503AF2DE9000F89B0BD6883468A4639
:1094C00098469146D5E90064A87B8DF8200007A84E
:1094D000D5F80A10079101F0E8FDADF81800000C6E
:1094E00006AA8DF81A0028894346F968CDE90202D8
:1094F0005846049151464A46CDE9006402F07CFB8F
:1095000009B0BDE8000FF0BDF0B503AF2DE9000BC9
:1095100088B0BD6804460E4698469146A87A8DF8F4
:109520001C0006A8D5F80610069101F0BEFDADF8A6
:109530001400000C05AA8DF81600A8880423F96809
:10954000CDE902022046CDE900534A460491314656
:10955000434602F051FB08B0BDE8000BF0BDF0B58A
:1095600003AF2DE9000788B0BD6804468A469846D7
:109570009146A87A8DF81C0006A8D5F806102E682A
:10958000069101F092FDADF81400000C05AA8DF8CB
:109590001600A8880123F968CDE902022046CDE92A
:1095A00000634A4604915146434602F025FB08B049
:1095B000BDE80007F0BDF0B503AF2DE9000B88B0A2
:1095C000BD6804460E4698469146287A8DF81C00E0
:1095D00006A86968069101F068FDADF81400000C5A
:1095E00005A98DF8160068880222CDE902012046FF
:1095F000CDE9005231464A46434602F09DFC08B090
:10960000BDE8000BF0BD0168012902D10221016013
:10961000FEDE80B56F4686B001210020019141F247
:109620001461C0F203010490009141F27C61039047
:1096300004200290C0F20301684605F02EFB0022D0
:10964000016080F82C20704745F6D43281501044D8
:10965000002180F82110704780B56F4682B0044623
:10966000FEF7D7FB40B10146204604F0B2FD20468C
:1096700004F034FE20BFFAE740F28000C0F20000A0
:10968000ADF8040001A805F00BFA781EFEF749FEBC
:1096900000F00AFE05F042FACA690068D30648BF26
:1096A00006F09DBC920658BF06F016BE06F0CDBC73
:1096B00000688C460068B0F5005F19DBB0F5405FCC
:1096C0003DDDB0F5485FC0F25080B0F54C5F80F2F0
:1096D0006D80A0F54850DFE810F006004F01020150
:1096E0002201BD008C0141F61E11C0F2030194E17C
:1096F000B0F5805F4CDA013041F2D0610722C0F250
:109700000301DFE810F015008B019700C700770018
:109710001C014601D7006E01870066016F007F00C3
:1097200031016800BF00600004014E019E01140178
:1097300041F2D7616046C0F2030106F004B9A0F51A
:109740000050DFE810F00A003601D40004018F0059
:109750005E016E0121017601AF0041F2C671C0F2D7
:1097600003011422604606F0EEB843F20101401AEC
:10977000DFE810F006002701C500F20080004F016D
:1097800041F6B201C0F203010D22604606F0DBB8DB
:1097900048D041F20101884240F0948041F2927138
:1097A000C0F203012222604606F0CDB84AD0B0F5DF
:1097B000505F40F08F8041F6CD111722C0F20301B7
:1097C000604606F0C0B841F25771C0F203010922A9
:1097D000604606F0B8B841F250716046C0F203012D
:1097E00006F0B1B841F23971C0F203010C226046B3
:1097F00006F0A9B840F67861C0F20301082260467D
:1098000006F0A1B841F24571C0F203010B22604697
:1098100006F099B841F22071C0F203010C226046B3
:1098200006F091B841F27D711522C0F20301604645
:1098300006F089B841F2DE611122C0F203016046F0
:1098400006F081B841F6B5111822C0F20301604656
:1098500006F079B841F67B11C0F203011B22604685
:1098600006F071B841F62E01C0F2030113226046E2
:1098700006F069B841F6FA010E22C0F20301604613
:1098800006F061B841F20C11C0F2030104226046F7
:1098900006F059B841F2EF61C0F2030114226046AC
:1098A00006F051B841F6A001C0F203011222604651
:1098B00006F049B841F20871C0F203010C2260467B
:1098C00006F041B841F2B471C0F2030112226046C1
:1098D00006F039B841F6E411C0F203019DE041F60B
:1098E0005311C0F203011422604606F02CB841F275
:1098F000F671C0F203012222604606F024B841F658
:10990000D301C0F203011422604606F01CB841F2F4
:109910006071C0F203010B22604606F014B841F6F4
:109920006711C0F203011422604606F00CB841F240
:109930007471C0F203010922604606F004B841F2D6
:1099400003710522C0F20301604605F0FCBF41F639
:109950001801C0F2030160E041F6E701C0F2030123
:109960001322604605F0EFBF40F69061C0F203019C
:109970000822604605F0E7BF41F63411C0F203014A
:109980001F22604605F0DFBF41F67601C0F20301F9
:1099900043E040F66861C0F203010822604605F02A
:1099A000D2BF41F21411C0F203010422604605F057
:1099B000CABF41F2DA711C22C0F20301604605F011
:1099C000C2BF41F6BF01C0F203011422604605F098
:1099D000BABF41F22C71C0F203010D22604605F0BE
:1099E000B2BF41F21471C0F203010C22604605F0CF
:1099F000AABF41F69611C0F203011F22604605F08E
:109A0000A2BF41F64101C0F203011B22604605F0EE
:109A10009ABF41F60811C0F203011622604605F014
:109A200092BF41F65C011A22C0F20301604605F0C4
:109A30008ABF41F68C01C0F203011422604605F092
:109A400082BF41F26B71C0F203010922604605F04A
:109A50007ABF006806F01BB8CA690068D30648BF21
:109A600006F0BDBA920658BF06F0D3BB06F0EDBAB9
:109A7000F0B503AF2DE9000BADF5047D0B46016891
:109A800080460020CDE980006A4682908DF80C0265
:109A90001846FDF7F1FA81A9809801F1030E00281C
:109AA00043D0C30069464FF000094FF0010C00207D
:109AB00001E0083B2DD00E790D46B11ECCB2082C2A
:109AC00028BF0521CCB205F10801DFE804F010053C
:109AD000040404190404ECE72A789DF8044202F017
:109AE00007020CFA02F222438DF80422E1E706286D
:109AF000DFDA052845D82A780EF800200130D8E7AB
:109B0000B9F1000F03D0F20718BFA946D1E7A94663
:109B1000CFE7B9F1000F08D099F8040000281CBF66
:109B2000D9F80000C8F8040001E008F10409BEF803
:109B30000400B8F80F10DEF80020D8F80B304840C9
:109B4000D9F8006083EA0201C8F80060084308F110
:109B500008000AD19DF8041202788A4205D100203B
:109B60000DF5047DBDE8000BF0BDDDE981129DF827
:109B70000C320372C0E900120DF5047DBDE8000B44
:109B8000F0BD41F2C0620621C0F2030205F0C0F848
:109B9000F0B503AF2DE900070C68066801F013FF6C
:109BA00096E802050025356019B301291BD1D4E9D7
:109BB00000218A4508BF904538D012688146084682
:109BC00090470246D6E90053B0680124012DC6E94A
:109BD0000042B16004BFD9688847D8F804105046E5
:109BE00088470125484601F019FF2846BDE80007CF
:109BF000F0BDD4E900210446084612689047D6E932
:109C0000003E0246D6F808C001252046012BC6E9D1
:109C10000052B160E7D1DEF80C106046884720465C
:109C200001F0FCFE2846BDE80007F0BD01253560C7
:109C300001F0F4FE2846BDE80007F0BDF0B503AF23
:109C40002DE9000FA5B0D0F800B08046D1F8009003
:109C5000BBF1000F06D0D8F80CA0BAF1000F40F00D
:109C60009A8041E098F8090060B1032840F0CF8065
:109C700098F80800012808D141F2CC50C0F2030046
:109C800006F09AF9002088F8080040F6D4204946EA
:109C9000C2F2020003F030FC802502A827F8265CFF
:109CA000A7F1260161DF01F0EFF970B902ACA7F16D
:109CB0002606204601F0B4FA27F8265C20463146F5
:109CC00061DF01F0E1F90028F3D005291CBF43F260
:109CD000010081426BD140F20330A8F80800D8F8A7
:109CE0000CA0BAF1000F56D198F8140038B103282F
:109CF00009D041F2DC50C0F2030006F05DF908F132
:109D00001500C8F8100040F6CC204946C2F2020007
:109D100003F0F2FB0020239023A84BDF01F0B4F9FD
:109D2000A0BB40F20709CDF804B040F2110BA7F137
:109D30001E0502AE23ACC0F2000BC0F2000906E023
:109D400001F0E1F820464BDF01F09EF9E0B92398DD
:109D50000290284627F81EBC04F0A2FE284627F8E9
:109D60001E9C04F05CFE304604F031FE00F09CFACC
:109D70000298011F082928BF0228E3D3E0D0032856
:109D800034D101F021F9DDE7DDF804B005291BD15C
:109D9000032088F81400BBF1000F11BFBAF1000FC7
:109DA00025B0BDE8000FF0BD4046FFF72CFC0C29A4
:109DB00033D140F25D00C0F20000ADF88C0023A862
:109DC00004F080FE04F0AAFE40F25C000291C0F2B2
:109DD000000027F81E0CA7F11E0004F061FE02A887
:109DE000FEF7D3FA00F060FA04F098FE40F25B0050
:109DF000C0F2000027F81E0CA7F11E0004F050FE70
:109E000002A8FEF7AFFA00F04FFA04F087FE41F225
:109E1000D440C0F2030006F0CFF840F25E00239178
:109E2000C0F2000027F81E0CA7F11E0004F038FE57
:109E300023A8FEF7AAFA00F037FA04F06FFE0068D4
:109E400004F0CBBE80B56F4682B040F2780172B6A6
:109E5000C2F202010A78EAB901220A70009040F2C7
:109E60005000C0F20000ADF8040001A804F018FE94
:109E700040F20200C0F2000027F8020CB81E04F005
:109E8000CEFD41F6FC116846C0F2030104F0DFFD8F
:109E900000F00AFA4EF62450CEF20000016821F4D8
:109EA0008021016000DEFEDEF0B503AF2DE9000B7E
:109EB0003AB304460069E368BFF35F8F984217D94D
:109EC000DE438519EDB1AA4238BF1546EE18B6F546
:109ED000806F1BD96068C3F58069884618444A467C
:109EE00006F006FC606808EB0901A5EB090210E02A
:109EF000002812BFC3F5806540F2FF30C51A002D5F
:109F0000E1D100252846BDE8000BF0BD60682A4677
:109F1000184406F0EDFBBFF35F8F6FF39F26E660FA
:109F20002846BDE8000BF0BDF0B503AF2DE9000BEE
:109F30001446C268B4F5806F28BF4FF480641619C8
:109F40000546B6F5806FBFF35F8F0DD96868C2F51F
:109F50008069884610444A4606F0CAFB686808EBE8
:109F60000901A4EB090202E068681044224606F0E9
:109F7000BFFBBFF35F8F6FF39F26EE602046BDE807
:109F8000000BF0BDF0B503AF2DE9000782B040F241
:109F9000790840F20006C2F2020849F6A96A98F868
:109FA000030049F62975C2F20206C0F2020AC0F2A5
:109FB0000205A0B307281BD24FF0FF3298F8041017
:109FC00002FA00F0A7F11A0908432C4600F07F00BE
:109FD00007F81A0CF06A00F00300022808BF544684
:109FE00006F1180049460122A0470028F8D014E0E5
:109FF0007930A7F11B0940F0800007F81B0CF06ACC
:10A000002C4600F00300022808BF544606F1180051
:10A0100049460122A0470028F8D0012820D100207D
:10A02000A7F1190407F8190CF06A00F003000228E0
:10A0300008BF554606F1180021460122A84700280E
:10A04000F8D001280CD10020A8F8030088F80000FF
:10A0500098F8010001F0E2FC02B0BDE80007F0BD95
:10A0600041F66C220121C0F2030205F023FDF0B598
:10A0700003AF2DE9000F83B0002900F0BA8040F251
:10A0800079080446C2F2020800EB010A98F80300BE
:10A0900040F2000949F6297BC2F20209C0F2020B24
:10A0A00008E0012840F0A9800020A8F803005445EA
:10A0B00000F09F8014F8011BC2B2072A1FD20029AA
:10A0C00057D007F8211C5D46D9F82C0000F003009A
:10A0D000022849F6A960C0F2020008BF054609F14E
:10A0E0001800A7F121010122A8470028F7D0012874
:10A0F00040F0838098F8030098F8041041E00029AC
:10A100005DD007F81E1C5D46D9F82C0000F0030056
:10A11000022849F6A960C0F2020008BF054609F10D
:10A120001806A7F11E0101223046A8470028F6D0E4
:10A13000012862D198F80300013088F80300C1B209
:10A140008629B4D1FF205D4607F81D0CD9F82C00F4
:10A1500000F00300022849F6A960C0F2020008BF1F
:10A160000546A7F11D0130460122A8470028F8D076
:10A1700097E798F80410012303FA02F2114388F8D4
:10A180000410013088F80300C2B2072A8FD10A06F2
:10A190008DD08DF808105D46D9F82C0000F0030032
:10A1A000022849F6A960C0F2020008BF054609F17D
:10A1B000180002A90122A8470028F8D071E77930D9
:10A1C0005D4640F0800007F81F0CD9F82C0000F025
:10A1D0000300022849F6A960C0F2020008BF054644
:10A1E00009F11800A7F11F010122A8470028F7D0A4
:10A1F00057E703B0BDE8000FF0BD41F66C22012126
:10A20000C0F2030205F056FCF0B503AF4DF804BDF3
:10A2100086B001F0D8FB40F27901C2F202010A785F
:10A2200042BB01220A708B784870FBB940F20005EE
:10A2300000208A70C2F202058DF8000049F62976E6
:10A24000E86A49F6A961C0F202066C4600F0030014
:10A25000C0F20201022808BF0E4605F1180021468F
:10A260000122B0470028F8D0012816D106B05DF8C9
:10A2700004BBF0BD01210020019141F69C21C0F2F8
:10A2800003010490009141F60031039004200290F4
:10A29000C0F20301684604F000FD41F66C22012182
:10A2A000C0F2030205F006FCFFF76CBEFFF7DFBE4D
:10A2B000B0B502AF84B00178132955D840F28002BE
:10A2C0007423C2F2020211FB032595F869100029DC
:10A2D00052D0013985F86910090601D004B0B0BD2B
:10A2E00004462878012825D140F20E00C0F2000073
:10A2F00027F8160CA7F1160004F0D2FB40F2050077
:10A30000C0F2000027F80E0CA7F10E0004F087FB46
:10A31000204604F007FCFFF7C7FF95F86600002809
:10A32000DCD16888132176DF88BB012085F86600C0
:10A3300004B0B0BD40F20F00C0F2000027F8120CCC
:10A34000A7F1120004F0ACFB40F20500C0F20000DF
:10A35000ADF80C0003A804F062FB204604F0E2FB19
:10A36000FFF7A2FF04B0B0BD41F680320846C0F24C
:10A370000302142104F0CCFC40F25500C0F20000AE
:10A38000ADF80000684604F09DFB04F0C7FB082808
:10A3900010D140F25600C0F20000ADF8040001A850
:10A3A00004F07EFBA7F1090003F001F8FFF77CFF42
:10A3B00004F0B4FB40F25100C0F20000ADF8080018
:10A3C00002A804F07FFB04F0A9FB007814283FBF2B
:10A3D000742100FB01F240F28003C2F202033FBF8E
:10A3E00010FB01309A5C418802F0010038BF7047D1
:10A3F00080B56F4641F680321421C0F2030204F0AA
:10A4000087FC80B56F4682B083B2142B26D240F60B
:10A410009012C2F2020212F81300012811D102EBCD
:10A4200043014978132921D840F280027423C2F2F3
:10A43000020211FB032212F8693FFF2B03D0013304
:10A44000137002B080BD40F25700C0F2000027F840
:10A45000020CB81E04F036FB04F060FB41F69032AB
:10A460001846C0F20302142104F052FC41F6803277
:10A470000846C0F20302142104F04AFCF0B503AF11
:10A480002DE9000B82B040F280058146C2F2020540
:10A49000164695F869008846002804BF28780028E9
:10A4A00000F0918095F8DD0028B9284610F8741F57
:10A4B000012940F0858095F8510128B9284610F807
:10A4C000E81F012940F0818095F8C50118B995F879
:10A4D0005C0101287CD195F8390218B995F8D001B2
:10A4E000012879D195F8AD0218B995F844020128F0
:10A4F00076D195F8210318B995F8B802012873D1DF
:10A5000095F8950318B995F82C03012870D195F8A2
:10A51000090418B995F8A00301286DD195F87D04B8
:10A5200018B995F8140401286AD195F8F10418B9FE
:10A5300095F88804012867D195F8650518B995F84C
:10A54000FC04012864D195F8D90518B995F870056F
:10A55000012861D195F84D0618B995F8E405012850
:10A560005ED195F8C10618B995F8580601285BD157
:10A5700095F8350718B995F8CC06012858D195F803
:10A58000A90718B995F84007012855D195F81D0875
:10A5900018B995F8B407012852D195F8910818B95F
:10A5A00095F8280801284FD195F8050918B995F8AC
:10A5B0009C0801284CD1012002B0BDE8000BF0BD81
:10A5C0000124054647E0002445E00224054642E018
:10A5D00005F5AE7503243EE005F5E87504243AE080
:10A5E00005F51175052436E005F52E75062432E0D3
:10A5F00005F54B7507242EE005F5687508242AE05B
:10A6000005F21445092426E005F591650A2422E0A7
:10A6100005F2FC450B241EE005F5AE650C241AE09E
:10A6200005F2E4550D2416E005F5CB650E2412E085
:10A6300005F2CC650F240EE005F5E86510240AE06C
:10A6400005F2B475112406E005F62805122402E08F
:10A6500005F69C051324596801221868A5F8029094
:10A66000C5E9010105F10C0058212A7007F81F4CBB
:10A6700006F0A3F840F201123068A5F86820002225
:10A6800085F866201722A5F864201B22C5F86A0009
:10A690001FFA89F0D6F80310142885F8678085F82A
:10A6A0007120C5F86D102CD240F69011C2F2020153
:10A6B00011F81020012A2BD001EB40000121447039
:10A6C000017040F21000C0F20000ADF8040001A8D3
:10A6D00004F0E6F940F20500C0F2000027F81A0C79
:10A6E000A7F11A0004F09BF9A7F11F0004F01AFA71
:10A6F000FFF7DAFD17F81F1C002002B0BDE8000BC1
:10A70000F0BD41F690321421C0F2030204F000FBC8
:10A7100040F25800C0F2000027F81E0CA7F11E00FE
:10A7200004F0D0F904F0FAF9D0B502AFFFF7A6FEB5
:10A73000C2070DD1CBB2142B0BD240F2800274248D
:10A74000C2F20202D7E902EC13FB0422C2E903ECD5
:10A75000D0BD41F680321846C0F20302142104F045
:10A76000D7FA007814283FBF40F28001C2F20201FC
:10A77000742210FB02103CBFD0E90301704780B582
:10A780006F4641F680321421C0F2030204F0C0FA91
:10A79000F0B503AF2DE9000B84B004460878142807
:10A7A00080F09E807421134600FB01F640F2800287
:10A7B000C2F20202965DF60778D010FB012000215C
:10A7C000E846ADF80410009142461946408890DFF3
:10A7D000002871D000F0B4FF0546029040F2360028
:10A7E000C0F2000027F81A0CA7F11A0004F058F97B
:10A7F00040F28800C0F2000027F81A0CA7F11A00F6
:10A8000004F00DF902A800F023FEFFF74DFDBDF89E
:10A81000021040F20609BDF80000C0F2000989B23A
:10A8200008431FD040F2370008F10206C0F20000D2
:10A8300027F81A0CA7F11A0004F032F9A7F11A0050
:10A8400027F81A9C04F0EBF8684604F0E8F8A7F142
:10A850001A0027F81A9C04F0E2F8304604F0DFF8FA
:10A86000FFF722FDBDF80400B0B140F2380008F156
:10A870000406C0F2000027F81A0CA7F11A0004F031
:10A880000FF9A7F11A0027F81A9C04F0C8F830460F
:10A8900004F0C5F8FFF708FD132D13D0062D17D1CE
:10A8A000DDF802500120BDF8001012E000202080E9
:10A8B00004B0BDE8000BF0BD0420208004B0BDE86A
:10A8C000000BF0BDDDF802500220BDF8001000E0E2
:10A8D000032065606180208004B0BDE8000BF0BDFE
:10A8E00041F680321421C0F2030204F011FAD0B50F
:10A8F00002AF84B002460078132852D840F280019B
:10A900007423C2F2020110FB031090F867100029B3
:10A910004ED10178C90709D0C168448851B1006996
:10A92000036C02A898479DF80C000DE0002021461A
:10A9300004B0D0BD102100208DF80A104FF4E6615C
:10A94000ADF80B00ADF8081002998DF80C00204608
:10A95000029102A97EDF00B300F0F2FE04460190EE
:10A9600040F23900C0F2000027F80A0CA7F10A00F3
:10A9700004F096F840F28800C0F2000027F80A0CB4
:10A98000A7F10A0004F04BF801A800F061FDFFF701
:10A990008BFC0120214604B0D0BD0220214604B02A
:10A9A000D0BD41F680321421C0F2030204F0B0F9A8
:10A9B00040F25900C0F2000027F80A0CA7F10A0083
:10A9C00004F080F804F0AAF8F0B503AF2DE9000711
:10A9D00096B002460078132800F27F80742140F27E
:10A9E000800300FB01F5C2F202035D5DED075CD060
:10A9F00010FB0130C16800295DD0B0F802800DF174
:10AA000038090069436B48469847BDF8380000286C
:10AA100057D009F10C0309ACDDE90FCABDF83AE0E3
:10AA2000264627CB27C61888308068466CCC01465E
:10AA30006CC122880A804A46CDF816C0ADF814E0F1
:10AA4000CDF81AA0DDF814C0069978C878C200784D
:10AA500010704FEA1A40ADF82C004A46CDE909C102
:10AA600009A9404685DF90B300F06AFE04460890CD
:10AA700040F23A00C0F20000ADF80000684604F071
:10AA80000FF840F28800C0F20000ADF80000684600
:10AA900003F0C5FF08A800F0DBFCFFF705FC03206E
:10AAA000214616B0BDE80007F0BD0020214616B0D3
:10AAB000BDE80007F0BD0120214616B0BDE8000743
:10AAC000F0BD0220214616B0BDE80007F0BD04200D
:10AAD000214616B0BDE80007F0BD41F680321421D2
:10AAE000C0F2030204F014F9F0B503AF2DE9000B36
:10AAF0008AB080B2142880F0C08040F69012C2F272
:10AB0000020212F81030002B00F0BE8002EB400071
:10AB10004078132800F2AA80742640F2800300FBDC
:10AB200006F5C2F202035D5DED0700F0B88010FB90
:10AB300006367588142D80F0BD8012F815000028A7
:10AB400000F0C08002EB4504D1F80090F168607815
:10AB500007F83D0CC9B1132800F28880742210FB5D
:10AB6000023212F8693FFF2B75D0D6F810C00133BE
:10AB700013700DF110088DF810000846DCF838202D
:10AB8000414690474046FFF793FB002001AA207002
:10AB9000B9F80010029241F21C12C0F2030211290E
:10ABA0000191049240F0998099F80810307071700A
:10ABB00002F097FCB0B305EB450040F6DC11C2F2A1
:10ABC000020101EB8004206800283ED14FF0FF30E5
:10ABD0002246206052F8040F30B1A1680B69494643
:10ABE00098472068013000E00020206040F20D000E
:10ABF000C0F20000ADF8100004A803F051FF40F2CD
:10AC00000500C0F20000ADF8100004A803F007FF33
:10AC1000A7F13D0003F086FFFFF746FB0AB0BDE851
:10AC2000000BF0BD01210020059141F69C41C0F2CE
:10AC30000301089007900420049141F614510690F6
:10AC400004A8C0F2030104F028F841F69050C0F2C5
:10AC5000030003F08CFF40F25700C0F20000ADF893
:10AC6000100004A803F02EFF03F058FF41F68032D5
:10AC70001421C0F2030204F04BF841F69032142183
:10AC8000C0F2030204F044F840F25A00C0F200009F
:10AC9000ADF8100004A803F015FF03F03FFF40F2E9
:10ACA0005200C0F20000ADF8100004A803F00AFF43
:10ACB00003F034FF41F690322846C0F2030214211B
:10ACC00004F026F840F25300C0F20000ADF8100086
:10ACD00004A803F0F7FE03F021FF40F25400C0F295
:10ACE000000027F8320CA7F1320003F0D9FE02A8C9
:10ACF00002F092FB04A802F08FFBFFF7D5FA03F0F5
:10AD00000DFFD0B502AF82B080B2142863D240F6F6
:10AD1000901EC2F2020E1EF81030002B62D00EEB15
:10AD200040004078132869D840F2800C7423C2F2A6
:10AD3000020C10FB03C4E06898B3138809782269F9
:10AD4000022915D001292CD1142B5ED21EF8131024
:10AD5000012926D10EEB4301497813295DD87423CC
:10AD600011FB03C313F8694FFF2C1DD0126A12E0C8
:10AD7000142B4AD21EF81310012912D10EEB4301F5
:10AD80004978132949D8742311FB03C313F8694F79
:10AD9000FF2C14D0526A01341C709047012002B07D
:10ADA000D0BD002002B0D0BD40F25700C0F200007C
:10ADB000ADF8040001A803F085FE03F0AFFE40F2F9
:10ADC0005700C0F2000027F80A0CA7F10A0003F0B0
:10ADD00079FE03F0A3FE41F690321421C0F2030283
:10ADE00003F096FF40F25A00C0F2000027F80E0C64
:10ADF000A7F10E0003F066FE03F090FE41F68032EC
:10AE00001421C0F2030203F083FF41F6903218468A
:10AE1000C0F20302142103F07BFF41F680320846A2
:10AE2000C0F20302142103F073FFF0B503AF4DF835
:10AE3000048D8AB0C0B213284FD840F28003742624
:10AE4000C2F2020310FB0635EC68002C41D04879B1
:10AE5000D5F81080800714D440F22D001646C0F2B9
:10AE60000000ADF8040001A803F02CFE00233246D8
:10AE7000D5F86A00D5F86D10CDE90133CDE903337B
:10AE80000AE0E86DD5F85F10D5E913CED5E915369F
:10AE9000CDE90336CDE901CE0590A7F11A0C95F85E
:10AEA0006700CDF817103021002818BF14216B1847
:10AEB000D8F82C50D3E9050147F8180C01A85E8A90
:10AEC00047F8141C114600902046624627F81A6C79
:10AED000A8470AB05DF8048BF0BD41F6803214211A
:10AEE000C0F2030203F014FFD0B502AF40F6CC2449
:10AEF000C2F20204204602F032FB04F10800BDE871
:10AF0000D04002F02CBBF0B503AF4DF804BD40F6C5
:10AF1000E826C2F202063578BFF35F8FFDB94EF224
:10AF20008012EFF31080012172B6317040F6EC21EF
:10AF3000CEF20002C2F2020113680B6040F6F0216B
:10AF4000C2F2020153680B6040F2FC61CFF6FF5180
:10AF5000C00711604FF0FF31516000D162B640F67A
:10AF6000B812C2F2020240F202341378D2E90110A0
:10AF7000012B148004BF4968884715B15DF804BBF4
:10AF8000F0BDEFF31080002140F2FC6272B6317028
:10AF900040F6EC21CFF6FF52C2F20201C007096869
:10AFA00001EA02014EF28012CEF2000242F8801C49
:10AFB00040F6F021C2F20201096842F87C1CDDD1A2
:10AFC00062B65DF804BBF0BDF0B503AF4DF804BD4B
:10AFD00040F6E826C2F202063578BFF35F8FFDB96E
:10AFE0004EF28012EFF31080012172B6317040F6FC
:10AFF000EC21CEF20002C2F2020113680B6040F6AF
:10B00000F021C2F2020153680B6040F2FC61CFF6FE
:10B01000FF51C00711604FF0FF31516000D162B69F
:10B0200040F6B812C2F2020202241378D2E90110EB
:10B03000012B148004BF4968884715B15DF804BB33
:10B04000F0BDEFF31080002140F2FC6272B6317067
:10B0500040F6EC21CFF6FF52C2F20201C0070968A8
:10B0600001EA02014EF28012CEF2000242F8801C88
:10B0700040F6F021C2F20201096842F87C1CDDD1E1
:10B0800062B65DF804BBF0BD30B180B56F4600F02C
:10B0900057FB0146012080BD0020704741F650411A
:10B0A000C0B2C0F20301085C7047B0B502AF42788D
:10B0B00041F6554390F800C041F65C4590F802E037
:10B0C000C0F20303C178C0F203050079002A5C5C7A
:10B0D0001B5C285C695C40EA030041EA040141EA28
:10B0E00000204FF00A0108BF0221614441EA0E111D
:10B0F00040EA0140B0BDD0B502AF86B090F800C0C4
:10B10000BCF1140F2AD24FF0740E40F280040CFBF5
:10B110000EF0C2F20204205CC0074FF000001BD00A
:10B120001CFB0E44ADF80C0001200592A7F11A0299
:10B13000ADF8081027F81A3C02A90492B4F802C02E
:10B140008DF80A006046AEDF28B100F0F9FA01463A
:10B15000012006B0D0BD022006B0D0BD41F680323D
:10B160006046C0F20302142103F0D2FD80B56F46A1
:10B1700082B00078142826D24FF0740C40F2800E72
:10B1800000FB0CF3C2F2020E1EF80330DB074FF097
:10B19000000311D0002908BF0A46B3EB124F19D1A2
:10B1A00010FB0CE04088B1DF48B100F0C9FA01465D
:10B1B0000123184602B080BD184602B080BD0223AC
:10B1C000184602B080BD41F680321421C0F203025D
:10B1D00003F09EFD40F26A00C0F20000ADF80400EA
:10B1E00001A803F05DFC781E02F0EFF8FFF75CF8B1
:10B1F00003F094FC80B213289FBF00EB400040F6A0
:10B20000DC11C2F2020101EB800098BF704780B5EB
:10B210006F4641F610421421C0F2030203F078FD9C
:10B22000B0B502AF88B005460088019040F2190021
:10B23000C0F2000027F80A0CA7F10A0003F030FC66
:10B2400040F20700C0F2000027F80A0CA7F10A003C
:10B2500003F0E5FB01A803F0BAFBFFF725F8288807
:10B26000411E0F2908D202286AD001280BD140F2D2
:10B270001200C0F2000067E0A0F11001202904D202
:10B28000284601F0B7F808B0B0BDA0F15001202960
:10B29000F9D2AC8855285ED140F6EA20E988C2F29E
:10B2A0000200ADF800100088814238BF0846172818
:10B2B00098BF172027F8260C40F21800C0F20000B3
:10B2C000ADF8040001A803F0EBFB40F2060501A86D
:10B2D000C0F20005ADF8045003F0A1FB684603F08E
:10B2E0009EFB01A8ADF8045003F099FBA7F12600DE
:10B2F00003F095FBFEF7D8FF37F8261C2046B5DF94
:10B30000002849D000F01CFA019040F23F00C0F242
:10B31000000027F80A0CA7F10A0003F0C1FB40F275
:10B320008800C0F2000027F80A0CA7F10A0003F019
:10B3300076FB01A800F08CF8FEF7B6FF08B0B0BDB0
:10B3400040F21300C0F20000ADF8040001A803F0C1
:10B35000B9FB08B0B0BD142C5FD202F0C2F80028CF
:10B3600042D004EB440040F6DC11C2F2020101EBD2
:10B370008004206800284AD14FF0FF302246206028
:10B3800052F8040F60B3A1680B69294698472068FA
:10B390000130206008B0B0BD142C46D240F69010A9
:10B3A000C2F2020010F81410002946D000EB44004D
:10B3B000407814283FBF40F28001C2F2020174229B
:10B3C00010FB02103FBF37F8261CA0F8641008B02D
:10B3D000B0BD41F680321421C0F2030203F098FCA4
:10B3E0000020206008B0B0BD01210020029141F68C
:10B3F0009C41C0F20301059004900420019141F6A4
:10B400001451039001A8C0F2030103F046FC41F679
:10B410009050C0F2030003F0AAFB41F61042C0F2C4
:10B4200003022046142103F073FC41F69032C0F26F
:10B4300003022046142103F06BFC40F25A00C0F2D4
:10B440000000ADF8040001A803F03CFB03F066FB2C
:10B450000168B1F5005F19DBB1F5405F3BDDB1F587
:10B46000485F4CDBB1F54C5F80F26980A1F5485034
:10B47000DFE810F006001101D500ED00A500410144
:10B4800041F64740C0F2030003F04CBBB1F5805FCA
:10B4900046DA013141F6A030C0F20300DFE811F0D6
:10B4A0001500BD008300A7006B00E3000701B30097
:10B4B000250177001F0165007100F5005F00A10004
:10B4C0005900D1000D014901DD0041F62040C0F2D4
:10B4D000030003F027BBA1F50050DFE810F00A00DD
:10B4E000F400A600CA00760012011E01E200240149
:10B4F0008E0041F63740C0F2030003F013BB43F265
:10B500000100081ADFE810F00600E5009700BB0014
:10B510006700030141F64140C0F2030003F002BBA3
:10B520003BD041F20100814219BF41F63640C0F2E2
:10B53000030041F63540C0F2030003F0F3BA38D0FF
:10B54000B1F5505F65D141F64E40C0F2030003F003
:10B55000E9BA41F62F40C0F2030003F0E3BA41F626
:10B560002D40C0F2030003F0DDBA41F62A40C0F2DC
:10B57000030003F0D7BA41F62340C0F2030003F002
:10B58000D1BA41F62B40C0F2030003F0CBBA41F62A
:10B590002840C0F2030003F0C5BA41F63440C0F2BF
:10B5A000030003F0BFBA41F62140C0F2030003F0EC
:10B5B000B9BA41F64D40C0F2030003F0B3BA41F608
:10B5C0004B40C0F2030003F0ADBA41F63B40C0F27D
:10B5D000030003F0A7BA41F64540C0F2030003F0B0
:10B5E000A1BA41F62E40C0F2030003F09BBA41F627
:10B5F0002240C0F2030003F095BA41F64040C0F289
:10B60000030003F08FBA41F62640C0F2030003F0B6
:10B6100089BA41F64F40C0F2030003F083BA41F605
:10B620004940C0F2030003F07DBA41F63940C0F250
:10B63000030003F077BA41F64340C0F2030003F081
:10B6400071BA41F63040C0F2030003F06BBA41F624
:10B650004A40C0F2030003F065BA41F63340C0F23D
:10B66000030003F05FBA41F62440C0F2030003F088
:10B6700059BA41F63A40C0F2030003F053BA41F61A
:10B680004440C0F2030003F04DBA41F62C40C0F232
:10B69000030003F047BA41F64840C0F2030003F04C
:10B6A00041BA41F63E40C0F2030003F03BBA41F616
:10B6B0002540C0F2030003F035BA41F63140C0F234
:10B6C000030003F02FBA41F63840C0F2030003F044
:10B6D00029BA41F64240C0F2030003F023BA41F612
:10B6E0002940C0F2030003F01DBA41F62740C0F222
:10B6F000030003F017BA41F64C40C0F2030003F018
:10B7000011BA41F63C40C0F2030003F00BBA41F617
:10B710004640C0F2030003F005BA41F63D40C0F2D6
:10B72000030003F0FFB941F63F40C0F2030003F00D
:10B73000F9B941F63240C0F2030003F0F3B9D4D4B2
:10B7400001464FF0FF30B1F5005F13DBB1F5405F0C
:10B7500021DDB1F5485F29DBB1F54C5F80F23B801C
:10B76000A1F54852052A88BF7047DFE802F0383853
:10B7700038383838B1F5805F22DA132930D8DFE85D
:10B7800001F02E2E2E2E2E2E2E2E2E2E2E2E2E2E44
:10B790002E2E2E2E2E2EA1F50052092A20D8DFE8BB
:10B7A00002F01E1E1E1E1E1E1E1E1E1E43F2010243
:10B7B0008A1A052A14D8DFE802F0121212121212A5
:10B7C0001CBF41F20102914209D041F202029142B2
:10B7D00008BF0846704718BFB1F5505F01D1084651
:10B7E000704743F20142914208BF08467047D0B506
:10B7F00002AF82B004460068A0B141F62040C0F21A
:10B80000030003F08FF940F28800C0F2000027F82F
:10B810000A0CA7F10A0003F002F9201DFFF718FE39
:10B8200002B0D0BD41F6A030C0F2030002B0BDE8C6
:10B83000D04003F077B9D0B502AF82B0044640F2F1
:10B840008800C0F2000027F80A0CA7F10A0003F0F4
:10B85000E6F82046FFF7FCFD02B0D0BD80B56F468C
:10B8600082B007F8030CC0B2012814D0022802BF2E
:10B87000002002B080BD40F26B00C0F2000027F84B
:10B88000020CB81E03F00CF9F81E01F07DFDFEF766
:10B890000BFD03F043F9012002B080BDD0B502AF2B
:10B8A00082B001784C08C90726D1042C66D2B0F8C2
:10B8B0000510D0F80100009040F28B00C0F20000AB
:10B8C000ADF8041027F80A0CA7F10A0003F0A7F856
:10B8D00040F28C00C0F2000027F80A0CA7F10A0021
:10B8E00003F09DF8032C3DD841F66340C0F20300FD
:10B8F000DFE804F03C292E33042C43D2B0F80510C5
:10B90000D0F80100009040F28A00C0F20000ADF8CB
:10B91000041027F80A0CA7F10A0003F080F840F29F
:10B920008C00C0F2000027F80A0CA7F10A0003F00F
:10B9300076F8032C16D841F66340C0F20300DFE826
:10B9400004F01502070C41F66440C0F203000DE05C
:10B9500041F66540C0F2030008E041F66640C0F2DF
:10B96000030003E041F66740C0F2030003F0DAF899
:10B970006846062103F043F802B0D0BD7F2C3FF4A7
:10B9800096AF01E07F2CB9D040F26C00C0F200000D
:10B99000ADF80000684603F083F8A7F10A0001F053
:10B9A0002DFDFEF781FC03F0B9F8027841F6634003
:10B9B00041F66441C0F20300C0F20301002A18BF3F
:10B9C000084603F0AFB880B56F4640F6E821C2F2F2
:10B9D00002010878BFF35F8F18B1002818BF01205B
:10B9E00080BDEFF3108C012372B60B704EF2801302
:10B9F000CEF200031A684A605A688A6040F2FC611D
:10BA0000CFF6FF5119604FF0FF3159605FEACC71FA
:10BA1000E3D162B6002818BF012080BD80B56F4613
:10BA2000002818BF80BD40F6E821EFF31080002207
:10BA3000C2F2020172B60A7040F2FC634A68CFF6A5
:10BA4000FF53C00702EA03024EF20013CEF20003D6
:10BA50001A608968596000D162B680BDF0B503AF45
:10BA60004DF804BD8CB003788E46427ED1F804C0F8
:10BA7000002B0D884E884FF0000100918DF80020BA
:10BA8000BEF80A20047EADF815204FF001020491A3
:10BA9000CDE902118DF8014018BF431C0193012E1E
:10BAA00098BF16469EF80930002D08BF2E469EF816
:10BAB0000840012BADF80C6088BF1A46002C08BF67
:10BAC00022468DF80E20827E9EF80C3002F00F0286
:10BAD0008DF817208268CDF808C08DF8143022B197
