:020000022000DC
:106000000000042001610200EB94030029C1030099
:10601000EB940300EB940300EB94030000000000FA
:10602000000000000000000000000000EB940300EE
:10603000EB94030000000000EB940300EB940300DA
:10604000EB940300EB940300EB940300EB94030048
:10605000EB940300EB940300C592030009F50200E2
:10606000EB940300EB940300EB940300EB94030028
:10607000EB940300EB940300EB940300EB94030018
:10608000EB9403000F8C0300EB940300EB940300EC
:10609000EB940300EB940300857D0300EB94030075
:1060A000EB940300EB940300EB940300EB940300E8
:1060B000EB940300EB9403000000000000000000DC
:1060C000EB940300EB940300EB940300EB940300C8
:1060D000EB940300EB940300EB940300EB940300B8
:1060E000EB940300EB940300EB940300000000002A
:1060F00000000000EB94030000000000EB9403009C
:1061000013F0F4F90E480F490022814201D004C077
:10611000FBE70D480D490E4A814202D008CA08C06B
:10612000FAE70C484FF47001026842EA010202608B
:10613000BFF34F8FBFF36F8F09F0E8F900DE000067
:1061400070000220589602200000022070000220F9
:1061500040F1030088ED00E0F0B503AF2DE9000F3A
:10616000ADF5C94D83B081464DF6BC60C0F2030069
:1061700047F21418CDE90B0900200F900BA809F184
:10618000200AC4F20008CDE90D0045F6E05009EB05
:10619000000B9BF8B900CDE909A9DFE810F0070072
:1061A0006F076F07DD00C800F000B407DBF8AC0034
:1061B0000025CBF8480040F23500C0F20000ABF8F3
:1061C000B750ADF8D0060DF5DA6013F03EFB402075
:1061D000CDF8D0568DF8D6064FF48040ADF8D406F1
:1061E0000DF5DA6012F040FE4EF207406021CEF26B
:1061F00000004FF4B064017041F20000C0F20210E0
:106200000121CBF88B0040F20140C0F201404CF676
:106210000813CBF8780006208BF86A004FF00130A5
:10622000CBF87E001820CBF86C000120C0F20010E3
:106230004FF00812CBE91840584640F84C1FC0F206
:1062400003034FF480768BF88A10ABF86810ABF834
:106250008250ABF87C50ABF88850CBF88450CBE937
:106260001463CBE9162110F063F845F691614FF005
:10627000723249F80120494472220A7102215C46B7
:1062800004F8B01FFF21A171214644F8200C0FF043
:10629000FBFF54F8201C09F510700EF02AFB54F88F
:1062A000200C09F0D2F8002800F0AC860146DBF89B
:1062B00048000CF0BFFCDBF8900040F27801C2F21D
:1062C0000201CBF8C01011F06DFD4FF423204FF404
:1062D00020218BF864510BF5B274CBE93210CBE975
:1062E000341040F23800C0F20000ADF8480012A8A7
:1062F00013F0ABFA45F6B8608021484415F028FC4D
:1063000012A84FF4A472002313F021F9DDE9120161
:106310009DF85020CBE95A018BF870210BF5B47031
:106320000DA913F03AF900284AD00320EEE25C46AA
:1063300014F8E40F002800F08880032840F07486E9
:106340005D4615F8E00F002800F0DC84032840F0DB
:1063500077860BA900F0E4BC9BF864010BF5B274DE
:10636000DFE810F00A007A068C060900D900F00078
:106370000E01FD001301D1E7DBE93210AFE79BF816
:10638000C32745F6A46109EB01000BF2C371002A93
:1063900002915ED0032A40F04D869BF868210BF5F0
:1063A000B4710891DFE812F0050052066A06B200E7
:1063B0009A00DBE951520BAEDBE9531301F052B9FD
:1063C0000022DBE9341C45F6B8668BF8B921089445
:1063D00045F6457209EB02044CF2A0534E440BF211
:1063E000B91AC0F2030380222546CBE96B44CBF8EF
:1063F000B431CBE96662CBE95A1C0020CBF8A0513E
:106400008BF8B801CBF8A4418BF82402CBE96F5488
:10641000CBE97162CBE97331CBF8D4C1CBF8A831A9
:10642000CBE95C1CCBE95E62A7F1A0080BF5DE713D
:10643000404603F0C7FB57F8900C04280DD1032009
:106440008AF800000420089C60E2DBE9338000F059
:106450004DBCDBF8BC2700F0FFBC01200BF5C07C75
:106460008BF8B80198E87D0061467DC1DBF890218A
:10647000032A04BFDCF80000062800F0B880DBE93E
:106480006063DBF894010021032A8BF8B81100F057
:106490009681022A40F07E8045F6457301204FF038
:1064A000000C8BF8B9014B440BF5B47012AEDBE96C
:1064B000348E80E8084145F654734B44CBE956CC02
:1064C0000BF5B47ACBF860C135CE35C396E837000A
:1064D00037C30BF5CC758BF898C1A8E005900BF28B
:1064E000BD119BF8BD010791DFE810F00600BC0567
:1064F000C80508094601F10CDBE95B32DBE9671CE2
:10650000DBE96C54DBF8B86101F0E1B8DBF86C5101
:106510000BAE01F0ADB89BF8B9010BF2B91A0894B3
:10652000DFE810F00700A005AC05060073001E01AF
:106530007AE7DBE95A1CDBE96662DBE96B54DBF8DE
:10654000B4315AE79BF898010BF5B47A0BF5CC758A
:106550000894002866D0032800F071810AE09BF8B7
:1065600098010BF5B47A0BF5CC75089400285CD033
:10657000032865D04CF20870C0F2030014F041FE0D
:106580000DF1280E0EF5C546B1E10DF1280E0EF500
:10659000C546ADE0DBF87C119BB21AB99942C1F057
:1065A000BB8201208142C1F0A9821A1A091A8A42CB
:1065B00001F2AA82DBF8781112AC014420460EF0F9
:1065C000CFFBDDE91265042E40F00D8101204FF074
:1065D000000C692D8BF8B901CBE956C0CBF860519E
:1065E00040F00D8140F23A00C0F20000ACE10BF542
:1065F000B873DBE968650024CBE96F650FCB8BF8D6
:106600000042CBE97123CBE973010BF5DE7412A8CC
:106610000DAA214602F0E8F812980C2840F0868076
:1066200004200DE7DBE95B8E00E1DBE95B8E0020F7
:106630000BF5BA718BF89401DBF8680181E8014130
:1066400045F654700DA9484404F09BF9C0B20428E3
:1066500004D10320089C2870072057E19BF894017F
:10666000032804D145F6757048440FF050FA012014
:106670000DF1280E8BF89801DBE93401CBE95A01C2
:10668000A7F1A00145F6507009EB000C91E87D00E0
:106690008CE87D000EF5C54606F1700345F6707C6A
:1066A00045F6B8650FCB4D4445F6457449F80C00E6
:1066B00080204C44CBE9625000204CF2A0558BF86E
:1066C000B1014CF28040C0F20305C0F20300CBE9F7
:1066D000684ACBE96A5009EB0C0004300EC045F65D
:1066E0009270484412A940F20A2215F0F7FA089C69
:1066F00045F648700DF1280E09EB00010EF5C54076
:106700000DAA01F0A9FF30680C2801D10820FDE096
:106710009BF8B101052803D0042854D003285AD18E
:1067200045F69470484404F089F851E02046DDE9CC
:10673000126504F015F80B2E52D1DBE95CC1002084
:10674000DBE95E23DBE968658BF824020BF5E27078
:10675000DBF8A841CBE96F6580E81C10CBF8D411B9
:1067600045F69C7009EB000112A803F02BFA169A6B
:10677000042A1BD1052063E69BF804020BF5E074A4
:106780000BF50175DFE810F0090074047A040A08BB
:106790003B087E08CB03F208DA030BF5E476AC463F
:1067A000A646DBE970524BCE00F0E9BFDDE912638B
:1067B00017980021032A8BF8B8117FF46AAE180CE1
:1067C000C3EA00450FE045F69470484403F0C8FF63
:1067D00000208BF8B00140F23B00C0F20000B3E0B3
:1067E00000208BF8B8010120CBF860518BF8B9017B
:1067F000CBE9560640F23C00C0F20000A4E045F6AA
:1068000045730BF5B4704B44DBE9348E80E80841E6
:1068100045F654734B4465CC0BF5B47A65C394E8E4
:10682000670067C30BF5CC758BF898C100200BF59A
:10683000BA718BF89401DBF8680181E8014145F6F3
:1068400054700DA9484404F09CF8C0B2042804D147
:106850000320089C2870052058E09BF89401032829
:1068600004D145F6757048440FF051F901200DF13F
:10687000280E8BF89801DBE93401CBE95A01A7F126
:10688000A00145F6507009EB000C91E87D008CE802
:106890007D000EF5C54606F1700345F6707C45F6A1
:1068A000B8650FCB4D4445F6457449F80C0080207F
:1068B0004C44CBE9625000204CF2A0558BF8B1015A
:1068C0004CF28040C0F20305C0F20300CBE9684AF5
:1068D000CBE96A5009EB0C0004300EC045F692700B
:1068E000484412A940F20A2215F0F8F9089C45F62E
:1068F00048700DF1280E09EB00010EF5C5400DAAF8
:1069000001F0AAFE30680C2804D106202070032074
:1069100001F09FBB9BF8B101052803D0042807D0E4
:1069200003280DD145F69470484403F087FF04E036
:1069300045F69470484403F013FF00208BF8B00133
:1069400040F23900C0F20000ADF8480012A812F081
:106950007CFFDBE934A00DF5DA6540F27521089083
:10696000281D15F058F9B2AC294640F2792220468C
:1069700014F0B9FF0DF5C04E4FF0010840F2792236
:106980008BF864819EF83A020DF5C04E8DF8C60270
:1069900012A8BEF83812ADF8C412214614F0A3FFB5
:1069A0000DF5C04EDBF8C0609EF8A2030DF5C04E99
:1069B0008DF8460006F52970BEF8A013ADF8441016
:1069C000D0E84F1F002940F0ED82C0E8418F002938
:1069D000F6D1BFF35F8F00249DF8C602BDF8C41244
:1069E000089AA6F80D1012A9F07306F12800C6E95E
:1069F000052440F279223473C6E900447462C6F873
:106A000010A0F46114F06FFFBDF8441040F60022AE
:106A10004FF6005C9DF84600A6F8A11240F60C0166
:106A200086F8A302C5F20001CBF894600120C5F2FC
:106A300000020323CFF6FF7C4FF400660860D846BF
:106A4000136041F80C60102641F8E03C0E604026CF
:106A500013610E604FF40076936141F80C600426D8
:106A600041F8E83C40F62033C2F224638BF8B800CA
:106A7000CBF8C03009238BF8C4304FF6FC63CFF657
:106A8000FF73CE500023D663D662022241F8E46C35
:106A900042F6027108F8B70FC0F62B21C8F80E10A5
:106AA0002721EE18EC50033903F5E163C6F8C02640
:106AB000C6F8C446C6F88826C6F88C46C6F85026DE
:106AC000C6F85446C6F81826C6F81C46C6F8E0258F
:106AD000C6F8E445C6F8A825C6F8AC45C6F8702542
:106AE000C6F87445C6F83825C6F83C45C6F80025F2
:106AF000C6F80445C6F8C824C6F8CC44C6F8B04465
:106B0000C6F8B444C6F86824C6F86C44C6F8302405
:106B1000C6F83444C6E9FE24C6E9F024C6E9E224F6
:106B2000C6E9D424C6E9C624C6E9B824C6E9AA241D
:106B3000C6E99C24C6E99644C6E98424C6E97624BD
:106B4000C6E96824C6E95A24C6E94C24C6E93E24AD
:106B5000C6E93024C6E92224C6E91424C6E906247D
:106B6000746086F80007C6F8F84686F8CC2686F8E2
:106B7000C84686F8942686F8904686F85C2686F8FD
:106B8000584686F8242686F8204686F8EC2586F8AE
:106B9000E84586F8B42586F8B04586F87C2586F861
:106BA000784586F8442586F8404586F80C2586F811
:106BB000084586F8D42486F8D04486F8C04486F880
:106BC000A804C6F8A04486F8742486F8704486F8B1
:106BD0003C2486F8384486F8042486F8004486F875
:106BE000CC2386F8C84386F8942386F8904386F829
:106BF0005C2386F8584386F8242386F8204386F8D9
:106C0000EC2286F8E84286F8B42286F8B04286F88C
:106C10007C2286F8784286F8684286F85002C6F8E8
:106C2000484286F81C2286F8184286F8E42186F845
:106C3000E04186F8AC2186F8A84186F8742186F8F0
:106C4000704186F83C2186F8384186F8042186F8A0
:106C5000004186F8CC2086F8C84086F8942086F853
:106C6000904086F85C2086F8584086F8242086F804
:106C7000204034747FF415AF09F51E740DF5DA6108
:106C800045F66832204615F02BF820460AF078F9D0
:106C900047F214120120C4F2000247F2F451C2F884
:106CA000EC030220C2F8DC04C4F2000100205C46C0
:106CB00008600821C2F8FC1340F20051C0F2020142
:106CC000C2F804144FF6FF71C0F23F01C2F8F4118C
:106CD0004EF20011CEF200018022C1F880210A603C
:106CE00004F8E40FDDF824A044E9068000215D46A5
:106CF00045F8E01F45E9038045F8048C47F2141875
:106D0000C4F200080020012148F8040C1020C8F843
:106D1000F0014FF6F860CFF6FF7048F800100D99BB
:106D200049F25060C2F2020012F071FC58F8040CF3
:106D3000002800F0EE800024012548F8044CDBF820
:106D4000C500C9F8100209F50870DBE93536DBF833
:106D5000C0109BF8C4208BF8E0508BF8E4508BF8FF
:106D6000A0408BF84440CBE90F44CBF80C40CBE972
:106D70000044ABF8B740CBE92636C9F8141289F8BD
:106D80001822CBF8A4B0C9E9804489F8F841C9E9D0
:106D90007A4489F8E041C9E9744489F8C841C9E9ED
:106DA0006E4489F8B041C9E9684489F89841C9E955
:106DB000624489F88041C9E95C4489F86841C9E9BD
:106DC000564489F85041C9E9504489F83841C9E925
:106DD0004A4489F82041C9E9444489F80841C9E98D
:106DE0003E4489F8F040C9E9384489F8D840C9E9F7
:106DF000324489F8C040C9E92C4489F8A840C9E95F
:106E0000264489F89040C9E9204489F87840C9E9C6
:106E10001A4489F86040C9E9144489F84840C9E92E
:106E20000E4489F83040C9E908440CF0B8FD40F23E
:106E30002031DBF89420C2F202018BF8C347CBF873
:106E4000C01045F6A46109EB01000BF2C371CBF849
:106E5000BC27CBF8A8B0029146F29811002409EBA8
:106E6000010549F801408021CBF8B847CBE9EB2276
:106E7000C5E90144C5E90344C5E90544EC61059051
:106E800014F0C9FE4FF40060ABF8C0070BF56D704D
:106E9000CBE9E9504FF0FF30CBF8B403082084422F
:106EA000C0F0CA83DBF8A8034FF4816201680131A6
:106EB000016046F2941009EB0001B2A8DBF8B04380
:106EC00014F011FD0125002C8BF8C35701F0C08090
:106ED0000DF5DA60B2A94FF4816214F004FDDBF81D
:106EE000C06006F20C40D0E84F1F002940F07580CA
:106EF000C0E8415F0029F6D1301D0DF5DA614FF48D
:106F00008162BFF35F8F346014F0EDFCCBF8C0609A
:106F1000BBE0032020702870042001F09AB89BF891
:106F20004802A2460BF5127410B3032800F0E28465
:106F30004CF21870C0F2030014F063F99BF8880259
:106F40000BF5227ADFE810F007009B009A00F905A4
:106F5000B706FA061B000BF5047E0694DBE9820CEB
:106F60009EE81640DBE98868CDE9035A00F030BDA1
:106F70000BF50473DBF808020ECB00F0AFBC9BF8F6
:106F8000CC0206940BF5337418B1032800F0518637
:106F9000CEE70BF52573DBF88C02CDF810A00ECBF5
:106FA00000F039BE0121BFF32F8F0020CDF8D41699
:106FB0004CF2D811CDF8E006C0F20301CDF8DC06A2
:106FC0000420CDF8D0164CF24021CDF8D8060DF5AE
:106FD000DA60C0F2030112F057FD0121BFF32F8FD9
:106FE0000020B3914CF2D811B690C0F20301B590D5
:106FF0000420B2914CF24021B490B2A8C0F2030137
:1070000012F042FD40F26600C0F20000ADF8D0067A
:107010000DF5DA6012F007FC0DF5DA6008F0BEFE3F
:107020000BF024FD12F04CFC4CF2E870C0F20300AF
:1070300014F0E7F84CF28470C0F2030014F0E1F8A9
:107040004CF28C10C0F2030014F0DBF84CF63C005C
:10705000C0F2030014F0D5F84CF62C00C0F2030087
:1070600014F0CFF84CF2E430C0F2030014F0C9F889
:107070004CF24440C0F2030014F0C3F8FEDE4CF2C0
:107080005440C0F2030014F0BCF840F23600C0F2E5
:107090000000ADF8C802B2A812F0D7FB45F678633D
:1070A00009F510724B4446F243004FF06631CBE9CC
:1070B0007E3209F5087349F80010022148448BF824
:1070C000621245F6886109F51E76CBE95A6366239C
:1070D00045F68465494403714D44DBF8C000CBF8A4
:1070E0004C1200218BF800128BF88C118BF8E410F5
:1070F0008BF87112FF21CBE958A5CBF870218BF8E2
:107100006812CBE9322045F6A8600DA9484403F087
:107110002BFDC0B2042800F0F1819BF8E4000528A3
:1071200059D0042852D0032863D19BF85C0103286E
:1071300004BF9BF8590103285BD19BF83801032851
:1071400018D1DBF830410020CBF8300154B111F0F8
:10715000B6FB002800F065822068002840F05582C8
:1071600000206060DBF81001012803D1DBE9451045
:10717000C96888479BF8580100218BF858110128ED
:1071800037D140F23600C2F20200007874DF10F00E
:10719000C7FE01282DD140F24F00B291C0F200008D
:1071A00027F8A00CA7F1A00012F03DFB40F2BA00B6
:1071B000C0F2000027F8A00CA7F1A00012F0F2FA2C
:1071C000B2A810F0C1FE0BF051FC12E0DBF8F000A9
:1071D000016801310CE09BF82801032804BF9BF8EB
:1071E0002401032800F0FF80DBF830010168013939
:1071F00001609BF87102033804283DD809F5C044AA
:10720000DFE800F098C3030327009BF8C6020328B9
:1072100028D19BF8BE02032804BF9BF8B8020328BC
:1072200020D1DBF8B0520020CBF8B00255B111F0FC
:1072300046FB002800F0F5812868002840F0DF8137
:1072400000206860DBF8902278207421012A09D19F
:1072500008E19BF8BC02032804BF9BF8B80203288E
:1072600000F0E88046F2400048440DF08BFD46F205
:10727000500048440DF086FD9BF88C01042804BFA3
:107280009BF8E80103282AD09BF8000203287FF42A
:10729000FCAE9BF81A02032804BF9BF814020328D3
:1072A0007FF4F3AE0020C8F800004FF6F460CFF68C
:1072B000FF70012148F80010D8F8000058B9D8F83C
:1072C0000000002804BFD8F80000002803D1D8F837
:1072D00000000028F0D00020C8F80000D5E69BF898
:1072E000A401032801BF9BF8A101032809F5BF40B1
:1072F00011F078FD9BF8B401032804BF9BF8B1019D
:10730000032800F08B809BF8C401032804BF9BF87E
:10731000C101032800F088809BF8D401032804BF32
:107320009BF8D1010328AFD145F6B070484411F065
:1073300059FDA9E79BF8E40203289DD19BF89C0224
:10734000042800F0DE80032896D19BF8D802032899
:1073500040F0E480DBF8D0420020CBF8D00254B1FA
:1073600011F0ADFA002800F05C812068002840F0A0
:107370004C8100206060DBF8B002012840F0CE8034
:10738000DBE9AD10C9688847C8E09BF8A60203385E
:1073900003283FF66CAFDFE800F002A66A829BF894
:1073A000E802032804BF9BF8E40203287FF45FAFE0
:1073B000DBF8DC420020CBF8DC0254B111F07FFA9C
:1073C000002800F02E812068002840F01E81002057
:1073D0006060DBF8B80201287FF449AFDBE9AF1049
:1073E000C968884743E7DBF81C410020CBF81C0143
:1073F00054B111F064FA002800F0138120680028CD
:1074000040F0FD8000206060DBF8040101287FF47B
:10741000EBAEDBE94210C9688847E5E645F69070B7
:10742000484411F0DFFC6EE745F6A070484411F0C7
:10743000D9FC71E7DBF8B0520020CBF8B00255B1AF
:1074400011F03DFA002800F0EC802868002840F098
:10745000D680002068608020DBF898227C21012AF9
:107460007FF400AF61582058C9688847FAE69BF856
:10747000C803032808D19BF8B003032804BF9BF876
:10748000A803032800F0A480DBF8B412DBF8F402B0
:10749000884200F2C0800020CBF8B4022BE09BF8B9
:1074A0007803032827D19BF86003032804BF9BF8C7
:1074B000580303281FD1DBF850430020CBF85003BA
:1074C00054B111F0FCF9002800F0AB8020680028CE
:1074D00040F09B8000206060DBF80C0301280AD19B
:1074E000DBE9C4105BE09BF81C03032804BF9BF896
:1074F000140303283FD009F5C140B6E6062000F08A
:10750000A8BD9BF8E202032804BF9BF8D802032819
:1075100048D046F27A0048440DF034FC9BF89B02B8
:1075200028B39BF8A00200218BF8A01201281ED1DD
:107530008DDF10F0F5FC012819D140F24800B2911E
:10754000C0F2000027F8A00CA7F1A00012F06BF920
:1075500040F2BA00C0F2000027F8A00CA7F1A0008A
:1075600012F020F9B2A810F0EFFC0BF07FFA002027
:107570008BF89B0280E6DBF80C430020CBF80C0371
:107580003CB111F09CF900284BD02068E8BB0020EA
:107590006060DBF8B0020128ADD1DBE9AD10C9684D
:1075A0008847A8E7DBF8D0420020CBF8D00234B1FE
:1075B00011F085F9A8B3206838BB00206060DBF8C3
:1075C000B0020128A5D1DBE9AD10C9688847A0E762
:1075D000DBF8A0430020CBF8A00334B111F06FF921
:1075E000F8B1206888B900206060DBF85C030128EE
:1075F0007FF44AAFDBE9D810C968884744E74DF605
:107600007850C0F2030012F085F94DF68850C0F2B0
:10761000030012F07FF94DF69852C0F2030213F006
:1076200057FB40F2AC00C0F20000ADF8C802B2A8AF
:1076300012F00BF912F044F9059800210BF5A47231
:10764000631C8BF868118021DBF8AC530BC20BF57F
:10765000B472089202460D9E8BF8C2478BF8C03771
:10766000CBF84451CBF86C51CBE95553CBE95721BA
:10767000059010F03CFB2968002940F00382297B2B
:107680004FF0FF322A60002940F0EC8100260121F2
:107690000BF5B6742E60297310F054FBDBF85421FF
:1076A0000BF2BD10CBF864511035D2E90432DBE99E
:1076B000571C8BF8BD6145F638764E44CBE96C54C7
:1076C000CBF8B861CBE9671CCBE95B3207900020AF
:1076D000CBF8A4518BF8BC01CBF8A8418BF8280259
:1076E000CBE97054CBE9721CCBE97463CBF8D82199
:1076F000CBF8AC61CBE95D32CBE95F1C0DF1080E34
:107700000BF5E0740EF5C7482146404602F028F814
:107710000DF1280E0EF5C540D0F8F000042800F059
:107720009F8101200BF5C27C8BF8BC01A64698E82E
:107730007D0061467DC1DBF89421032A04BFDCF89B
:10774000000006280AD0DBE96183DBF898010025F8
:10775000022A8BF8BC5140F0A181D3E3DBE95F0141
:107760000BF5E47CDBE95D360024DBE969528CE84B
:107770004B000BF5017C8BF80442CBE970520024DE
:10778000CBE982528BF848427446CBE97653654682
:10779000CBE98436CBE97862CBE97A0145F6E8702B
:1077A00009EB00010DF5DA600DAA00F087FEDDF8A7
:1077B000D0060C2800F050819BF84802DDF8D086F6
:1077C000DDF8D466042808D19BF88C02032804BF96
:1077D0009BF88802032800F02181B8F10B0F40F0DC
:1077E00026810BF5EC764FF48070ABF8B1020020E7
:1077F0004ECECBF87802CBE9AA16CBE99A230BF54B
:1078000002710DF5DA6000F031FDDDF8D0060228D6
:1078100000F02481DDF8D486C007DDF8D86605D0F5
:107820000120CBF8F861CBE97C0800E100225FEA97
:10783000C870CBE97C284FF00B08CBF8F86139D041
:10784000DBE97710CBF8FC61431A28BF1A46120B0C
:1078500000F01E81AE4600258BF84C52751CA446E4
:10786000B5FBF2F404FB1252DBF8E481DBF8D8310B
:1078700064467546CBE98238CBF80022CBE9841008
:10788000CBF818220BF502710DF5DA6000F046FC1A
:10789000DDF8D0060C2800F0D780DDF8D086DDF8C2
:1078A000D466B8F10B0F40F0C280F0B24FF00B0875
:1078B000022800D18BE20BF5EC76A2462C4600257F
:1078C00047CE0BF5047CDBF8FC318BF8485225469B
:1078D000CBE982060BF512748CE80E00002601EB52
:1078E0000333CBE987120BF509718BF8446203F57A
:1078F000805649C146F204000DA9484403F041F8FE
:10790000C6B2042E00F0A4809BF84402032804D1E0
:1079100046F2250048440EF0FAF80120032E2070AC
:107920006FD10BF5EC760DF1200EDBF8FC01AC46C7
:107930004ECECBE982160EF5C741CBF8180245F6BC
:10794000FC70CBE98423484491E87C000DF5DA61B2
:107950007CC0002063228BF8300246F211004844BC
:10796000654614F0BBF95446DDF824A00BF502710E
:10797000A7F1B8000DAA00F011FD57F8B80C0C28BB
:1079800064D09BF8300257E92E86042804BF9BF888
:107990004C02032839D0B8F10B0F48D1DBE97F86C0
:1079A0000BF5EC7EDBE979C10BF50473039500253B
:1079B00006949EE81140DBF8EC2183E816400BF5B5
:1079C00022738BF88852CBE9820CCBE98868049348
:1079D00004EB0635231D05F6FC7503EB063A03EBB5
:1079E0000833CBE98DC1CBE992A50BF50A7585E883
:1079F0001140069CDDE9035ACBE98F26CBF84432CF
:107A000091E04FF004085446DFE146F22D0048446F
:107A10000EF07DF8B8F10B0FC0D008E046F2690017
:107A200048440EF074F8B8F10B0F3FF4DAAE0120C1
:107A3000B8F10C0F287000F0028394F8440003386A
:107A4000052840F2CB811BE20520F7E20720F5E292
:107A5000032020700620F1E20320EFE20420EDE293
:107A60000320EDE2291D04460846314610F084FF4C
:107A7000286801302860204610F064F9032002993C
:107A8000089AE2E24DF6B420C0F2030011F042FF82
:107A90004DF27420C0F2030013F0A0FB032A03D1BF
:107AA000180CC3EA00493EE2DBF880119BB212B920
:107AB0000420994230D3814220D31A1A091A8A42EB
:107AC00022D8DBF87C110DF5DA64014420460BF076
:107AD00083FDDDF8D00620B1DDF8D486DDF8D89638
:107AE00021E204F10C01A7F1A0007022DDF8D48698
:107AF000DDF8D89613F0F7FE012503E24CF20442BC
:107B0000C0F2030213F0E4F84CF214431046C0F242
:107B100003031A4613F0E0F84CF2F4321846C0F2B0
:107B2000030213F0D9F80023CBE9A5128BF8AC328D
:107B300046F228034B44CBE9A3300BF523710DF536
:107B4000DA6002F011FDDDF8D006022800F0728242
:107B5000DDF8D486A7F1B80CDDF8D866C007DDF8EB
:107B6000DC16DDF8E026DDF8E4368CE80E00CBE923
:107B7000958603D00120CBF850021AE1A7F1B80294
:107B800046F23C030026B8F1000F07CA49F803008B
:107B900009EB0300CDF810A0CBF85062C0E9011248
:107BA00025D046F23800DBF8642259F8001048442A
:107BB000D0E90103CBE99C030BF51A70CBF87822CE
:107BC000CBE99A810CF013FF02460B460DF5DA6003
:107BD00011461A460DF0A3F8DDF8D006DDF8D4867C
:107BE000002847D0DDF8D866DDF810A0E1E00BF5FD
:107BF0000A7206942C46DBF8345207CA0BF5257C32
:107C0000DBF84032CBE9A30525468BF8CC620BF5B7
:107C100033748CE80E00DDF810A0002601EB03336E
:107C2000CBE9A8120BF52A718BF8C86203F58056D0
:107C300049C146F288000DA9484402F0A2FEC6B22E
:107C4000042E00F0EF819BF8C802032804D146F20D
:107C5000A90048440DF05BFF01204FF00408032EFB
:107C6000207005D18AF800004FF00B08069CACE0AC
:107C7000069CA7E00BF50A7E2A46DBE99A652146B9
:107C80009EE801500024DDF810A08BF8F4420BF5BB
:107C90001F74CBE99F860BF52378CBF89C420C46EA
:107CA000CBF88452CBF898521546DBF8343288E88A
:107CB0004900CBE9A8CE0BF523710DF5DA6001F090
:107CC0004FFDDDF8E00603950428069400F0A88136
:107CD000022875D0DDF8D0860328DDF8D46668D098
:107CE0000DF1280EDDF8D8060EF5C541DBE9A0231D
:107CF0000DF1200EDDF8DC56C1F8000146F2181037
:107D000009EB0004C1E93E860EF5C74120460CF0A0
:107D10007EFEDBF87802854240F066810BF50A733F
:107D200000268BF834630FCBDBF84462CBE9A34029
:107D3000069C039DCBE9A531CBE9A72646F26C0052
:107D400009EB00010DF5DA600DAA02F092FADDF8F8
:107D5000D0060C2800F06C819BF83403DDF8D08647
:107D6000DDF8D466032813D146F284009BF8E812AC
:107D70004844032900F03F81042918BF052907D191
:107D80009BF800235D21032A04BF08440DF0BFFEC9
:107D9000B8F10B0F0DD1BBF84403DBF8441220F00F
:107DA0000302830718BF101D08440830CBF84402B3
:107DB0001CE10120B8F10C0F8AF8000005D13CE16C
:107DC0004FF0060801208AF80000DDF824A0012009
:107DD000287094F844000338052851D8DFE800F0F3
:107DE0000350501D122894F88800042848D194F8B4
:107DF000CC00032804BF94F8C800032840D104F144
:107E0000C9003BE094F87000042804BF94F88C008B
:107E1000032835D104F18D0030E094F88800032860
:107E200004BF94F8840003282AD104F1850025E0DA
:107E300094F8C800062817D0052804BF94F87401E8
:107E400003281DD194F8281104F1E400032900F05F
:107E5000DB80042918BF052912D194F840215D2147
:107E6000032A0DD1084409E094F80C01032804BF4B
:107E700094F80801032803D104F209100DF047FE1D
:107E8000B8F10B0F4BD10BF5BA730DF1200E0BF5BA
:107E9000E47CDBE969650FCBCBE9750145F6BC7085
:107EA00048440EF5C741DBF8AC418CE81C004C227D
:107EB000CBE9706513F017FD00200DF5DA618BF842
:107EC000280246F209004844AF2213F007FF45F6A6
:107ED000A07009EB0001A7F1B80001F041FC0DF121
:107EE000280E0EF5C540D0F85821042A00F09E80D7
:107EF00057E92E83D0F85C010025022A8BF8BC518B
:107F00007FF4CCAD079901200DF1180E7022087096
:107F10000EF5C640A7F1A00113F0E5FC07E0002034
:107F2000B1468BF8BC0107990120002508700A9919
:107F300045F64470084407F08BF80DF1380E7022B6
:107F40000EF5C4440DF1180E0EF5C641204613F08F
:107F5000CAFC0DF1280E08990EF5C54601207022C5
:107F600008703046214613F0BEFC75B3A7F1A0049B
:107F7000314604F108004622DBF8A4A39BF8C2575F
:107F800047E9288913F0AFFC04F14F0006F14701DF
:107F9000292213F0A3FE40F23700C0F20000ADF832
:107FA000D0060DF5DA6011F050FC0DF5DA66514699
:107FB0002A462346304607F8525C07F0B7FFDDF843
:107FC000D00600284DD1DDF824A047F214189BF804
:107FD000C0479BF8C107C4F20008DDF8289084422E
:107FE000FFF42AABFEF75EBF069C039DDBF8280278
:107FF000DBE98E1297E59BF8301303297FF4C8AEB6
:108000009BF82C238921BEE694F8701103297FF494
:1080100037AF94F86C218921032A3FF423AF2FE76F
:10802000042008E003202070062004E0052007E07B
:10803000052000E003208AF80000082028700420B2
:108040000299DDE9073218700420107003200870CF
:1080500005208BF8B9000DF5C94D03B0BDE8000F40
:10806000F0BD311D20467C2213F03DFC4CF2A47083
:108070004CF29473C0F20300C0F2030300904CF280
:108080002870C0F203002B21224611F0B5FDD0B5B7
:1080900002AF86B004464DF6BC60C0F2030000217A
:1080A000CDE900046A4694F84C000491CDE902221F
:1080B00058B1032826D194F8480058B1032827D195
:1080C00094F8440080B9A06A08E0206A84F8481057
:1080D000606200E0606A84F84410A062C4E90B109A
:1080E000C4E90D11C4E90F1104F12C0002A907F035
:1080F000CFFF032084F84C0084F8480084F8440043
:1081000006B0D0BD4CF6F000C0F2030013F079F8D1
:108110004CF2BC20C0F2030013F073F8F0B503AFCB
:108120004DF8048D804691F844000C46DFE800F0DD
:1081300003979D2A210026690025A1682246D4E9DB
:10814000000C012301EB063142F8245FC4E9050C61
:1081500004F1480CC4E90A55C4E90C55C4E90E55AC
:10816000256484F85850C4E907618CE80D00616506
:1081700010E094F85C0000286BD104F14C03A16D71
:108180000DCB34E094F85800002862D104F1480384
:10819000616D0DCB0FF0BCFE0123C0B2032884F843
:1081A000583047D12246552612F824CF002552F8E0
:1081B000041C06EA5C0652F8100CACEB060C3326E5
:1081C00001F6FF7182F8385006EA9C0E0CF0330677
:1081D000764402F1280C06EB161606F00F06052E63
:1081E00038BF012582F824508CE80D0051630FF050
:1081F0008FFE0121C0B2032884F85C101AD194F8D4
:108200002400552294F8481002EA5002A0EB020024
:108210004FF0330202EA900200F03300104400EB0A
:10822000101000F00F0271B10020042A88BF012055
:108230000B2100E00421C8E90010012084F844006B
:108240005DF8048BF0BD06210220042A88BF0B21B3
:10825000F1E74CF6D000C0F2030012F0D2FF4CF26E
:108260004030C0F2030012F0CCFFFEDEF0B503AFE9
:108270002DE9000B82B0804691F8A9000C4638B178
:1082800003282ED04CF25030C0F2030012F0B9FF98
:10829000D4E918214FF0010C94F8AA604FF00009BE
:1082A00084F8A8608E1A236F40F6FF7ED4E9280573
:1082B00084F894C0C4E91A2138BF4E463105C4E998
:1082C0001D054FEA1631C4E91F3118BF0CEB1631FA
:1082D000C4E92192C4E9231EC1B900220021002073
:1082E0004BE068462146FFF719FF00980C2834D070
:1082F000DDE900100B293AD1D4F89C10C0B20978FE
:10830000814236D0D4F88C100029E6D004F18003E5
:10831000D4F890600139C4F88C100DCB551C33444F
:108320000133C4E9215398B304F1A801E36FC4F801
:108330009C10002184F844109918B1FBF0F2D4E9A4
:108340001AEC02FB1010D4E91D65C4E90065C4E90C
:1083500002ECC4F898002061C3E70220C8F80000CE
:10836000032084F8A90002B0BDE8000BF0BD012293
:1083700003E0D4F8980001210022C8F80800012089
:10838000C8E9002184F8A90002B0BDE8000BF0BDE7
:108390004DF26420C0F2030012F020FFF0B503AFED
:1083A0002DE9000B82B0804691F828000C46DFE8EA
:1083B00000F0037D83154D00D4E9000C0021D4E9C1
:1083C0000236256984F8701004F11401C4E90B0C1D
:1083D000C4E90D36E56381E84910656204F12C06B5
:1083E000684691463146FFF799FE00980C2809D15E
:1083F0000C20C8F80000032084F8280002B0BDE873
:10840000000BF0BDDDE900050B283FD1E8B20228E2
:10841000357039D10020214641F8480F012551E936
:108420000D2351F8246C41E906214A46C1E90100B7
:1084300003EB0633C1E90300C1E90500C86101F897
:10844000040C042001F81B5C41E9040304F1300032
:10845000114602F030FBC5B2042D09D10C20C8F83A
:108460000000042084F8280002B0BDE8000BF0BD35
:1084700094F84400032804BF04F145000DF047FBC5
:10848000032D05D194F82D500B2003E0290A01E0BB
:1084900000210420EAB242EA0121C8E900010120DA
:1084A00084F8280002B0BDE8000BF0BD4CF260304B
:1084B000C0F2030012F0A5FEFEDED4D4F0B503AF87
:1084C0002DE9000782B0804691F840000C469146A5
:1084D000DFE800F003353B5F2400D4E902654FF08C
:1084E000010C40F6FF70D4E900AEAB1B84F838C035
:1084F00060634FF0000138BF0B4618054FEA133296
:10850000104618BF0CEB13302063C4E904A6C4E97D
:10851000065EC4E90812C4E90A1617E0254615F8F4
:10852000840F38B1032863D04CF21870C0F20300F6
:1085300012F067FE04F14C03606C0ECB4CE04CF281
:108540007030C0F2030012F05CFEFEDE002865D041
:1085500004F12403666B013820630ECB551C3344B1
:1085600001330029C4E90A5370D0D4E907531A44EF
:1085700004F1100EB2FBF1F303FB1121002604F10C
:1085800044029EE8015084F88860E16382E821504B
:10859000616504F144016846FFF7C0FD00980628B4
:1085A0000BD00C2838D10C20C8F80000032084F828
:1085B000400002B0BDE80007F0BD0020254605F8E8
:1085C000840FA5F17406A5F1380C55F8483C47CE48
:1085D00045E910068CE80E00002601EB0333C4E9E0
:1085E000161204F1600184F8806003F5805649C1D9
:1085F00004F16000494602F0C4F9C6B2042E0FD05F
:1086000094F88000032804BF04F181000DF07FFA84
:108610000120032E28700FD1206B97E70B200CE070
:10862000032028700C20C8F80000042084F84000C3
:1086300002B0BDE80007F0BD0420C8E90006012033
:1086400084F8400002B0BDE80007F0BD4DF26420A0
:10865000C0F2030012F0C2FDF0B503AF2DE9000730
:1086600082B0804691F849000C469146DFE800F060
:1086700003B4BA27588C4FF0000AD4E9100184F8EB
:1086800048A084F8B5A04CF2244AD4E900CEC0F248
:10869000030AD4E90823D4E90E65C4E902CEC4E98B
:1086A0000423C4E92A65C4F8B000C4E91B23C4E963
:1086B0001D1AC4E913CEC4E90A65C4E90C0104F12A
:1086C0004C0568464A46294600F0BAFB00980C283B
:1086D00009D10C20C8F80000032084F8490002B03A
:1086E000BDE80007F0BDDDE90001C4E90601012095
:1086F00084F84800284602F0A1F8A06906285DD158
:10870000D4E902C10020D4E90423D4E90A6584F83D
:10871000900004F15400C4E9136580E80C10216650
:1087200004F14C0568464A46294600F05DF8009879
:108730000C2809D10C20C8F80000042084F8490056
:1087400002B0BDE80007F0BD2846DDE9006A02F08E
:1087500007F80B2E34D14CF2244CD4E90C2E002611
:10876000D4E90AA1D4E90430C0F2030C84F8B5605E
:10877000D4E90256C4E92AA1C4F8B020C4E91B30E8
:10878000C4E91DECC4E9135604F14C0568464A4699
:10879000294600F055FB00980C2809D10C20C8F898
:1087A0000000052084F8490002B0BDE80007F0BDD4
:1087B0002846DDE9006A02F041F801E0D4E9066AE2
:1087C0000020C8E9006A84F84800012084F84900C4
:1087D00002B0BDE80007F0BD4CF23440C0F2030027
:1087E00012F00FFDFEDED4D4F0B503AF2DE9000783
:1087F000A0B0804691F844000C469146DFE810F0A6
:1088000009009B01A7011B004A0097005C000601BC
:108810003C0194E803100022D4E90336656984F82A
:10882000882004F1480243C26565C4E90606C4E92C
:108830000851C4E90AC304F1480168464A46FFF7F3
:108840003DFE00980C2809D10C20C8F80000032038
:1088500084F8440020B0BDE80007F0BD94F888001B
:10886000DDE90065042804BF94F8CC00032800F07B
:108870003C810B2E40F0568104F118064FF48070B5
:10888000A4F8F10000204ECEC4F8B800C4E93A16AE
:10889000C4E92A2304F148016846FFF7E7FC009881
:1088A000022815D10C20C8F80000042084F84400E8
:1088B00020B0BDE80007F0BD264616F8880F80B14D
:1088C00003286AD04CF21870C0F2030012F099FC31
:1088D000DDE90165C00709D00120A563C4E90C06E4
:1088E00020E104F15003A06C0ECB4AE00022F00717
:1088F000C4E90C26A56300F01481D4E90710E563F0
:10890000431A28BF1A46120B00F01B810023666A27
:1089100084F88C306B1CB3FBF2F5D4F818C005FB5F
:108920001232C4E912C6C4E914102264A26504F12B
:1089300048016846FFF7F2FB00980C2809D10C208B
:10894000C8F80000052084F8440020B0BDE8000706
:10895000F0BDDDE900650B2E40F0E480E8B20228AE
:1089600000F0DF800020264606F8880FA6F170058B
:10897000A6F1380C56F84C3C27CD46E910058CE89A
:108980000E00002501EB0333C4E9171204F1640162
:1089900084F8845003F5805529C104F164004946E8
:1089A00001F0EFFFC5B2042D0BD1032030700C2075
:1089B000C8F80000062084F8440020B0BDE8000795
:1089C000F0BD94F88400032804BF04F185000DF085
:1089D0009EF80120032D307074D104F11806E06B6D
:1089E000A06504F15C0C4ECEC4E9121619A9C4E9C5
:1089F000142391E86D0069468CE86D000020632225
:108A000084F8700004F1710013F068F904F1480172
:108A10001EA84A46FFF7C2FC1E980C2809D10C205C
:108A2000C8F80000072084F8440020B0BDE8000723
:108A3000F0BD94F87000DDE91E65042801BF94F8CC
:108A40008C00032804F18D000DF061F80B2E69D124
:108A500004F1180ED4E90F21D4E909360020E56AA3
:108A60009EE8005484F8C500C4E92FA3C4E9266534
:108A7000C4E92812C4E916CE04F1480168464A4602
:108A800000F066F800980C2809D10C20C8F8000006
:108A9000082084F8440020B0BDE80007F0BD94F839
:108AA000C500DDE9006505280ED0062837D194F809
:108AB0000801032804BF94F8040103282FD104F20D
:108AC00005102AE004262DE094F87001032826D131
:108AD00094F82401032814D0042812BF052894F820
:108AE0003C0103281BD15D2014E094F8C800032842
:108AF00004BF04F1C9000DF00AF80B2E3FF4BCAE20
:108B000010E094F86C01032804BF94F8680103286E
:108B100005D1892004F1E00108440CF0F8FF0B2E88
:108B200000D10B26C8E90065012084F8440020B07C
:108B3000BDE80007F0BD4CF24440C0F2030012F063
:108B400060FB4DF27420C0F2030012F047FBFEDE22
:108B5000F0B503AF2DE900078EB0804691F87D0097
:108B60000C469146DFE800F004353B4594C12100F6
:108B7000D4E9043CD4E916521E1DD4E9141006EBC6
:108B8000023A626FD4F878E006EB0536C4E91A5A67
:108B900003EB053505F6FC75C4E9063CC4E9182E5F
:108BA000C4E90810C4E90A651AE0254615F8C00FA3
:108BB00040B1032800F011814CF21870C0F203009C
:108BC00012F01FFBD4F88000D4E92221D4F89030B1
:108BD000F7E04CF25440C0F2030012F012FBFEDE4C
:108BE0000023C4E9221084F8A03004F12803C4E96A
:108BF000203204F1800108A801F0B6FC0898022890
:108C000000F0C1800BABDDE9095AC0070DF1040C7F
:108C10000ECBC4E90D5A8CE80E0040F0BE8001AACC
:108C200004F13C03002D07CA07C34FF00000206386
:108C300000F0B88004F138030FCBC4E90212C4E994
:108C40000050204623670BF0D2FE02460B4608A8D0
:108C500011461A460CF054F80898002840F0E480B9
:108C60000023D4E90012D4E906EC84F8E830234666
:108C70009DF82400D4E9186503F87C0F04F18800FE
:108C8000C4E91212C4E9206580E80E40C4F898C017
:108C900004F1800108A800F095FF0C98042868D022
:108CA00002287DD0DDE9085A032800F0BF80CDE915
:108CB000045A04F59675D4E9122304A9DDE90A06DD
:108CC000069028460BF0A3FE206F86423BD100267B
:108CD000D4E91823D4E9060184F82861E66EC4E9D2
:108CE0002052C4E92230C4E9241604F1800108A806
:108CF0004A4601F0BEFA08980C2830D094F82801B2
:108D0000DDE9085A032811D194F8DC1004F1980029
:108D100003291CD0042918BF052907D194F8F42091
:108D20005D21032A04BF08440CF0F1FE0B2D7DD118
:108D3000B4F83801E16E20F00302830718BF101D5C
:108D400008440830E066D4E90810226E48E794F839
:108D500024110329EAD194F820218921E1E70C208C
:108D6000C8F80000052084F87D000EB0BDE80007BB
:108D7000F0BD0C20C8F80000042084F87D000EB07F
:108D8000BDE80007F0BD0C20C8F80000032084F8FF
:108D90007D000EB0BDE80007F0BD0120206345E076
:108DA000062543E0254605F8C00F55E9180655E9A4
:108DB0002A2155F8583C45E9100645E90E2145F8A9
:108DC000303C0026C4E9252102EB033304F19C0169
:108DD00084F8BC6003F5805649C104F19C00494603
:108DE00001F0CFFD5FFA80FABAF1040F0BD1032036
:108DF00028700C20C8F80000062084F87D000EB012
:108E0000BDE80007F0BD94F8BC00032804BF04F1DE
:108E1000BD000CF07CFE0120BAF1030F28704FF06A
:108E2000040508BF0B2501E0DDE9095AC8E9005A2D
:108E3000012084F87D000EB0BDE80007F0BDD4D459
:108E4000F0B503AF2DE9000FAFB0804691F869008F
:108E50000C469246DFE810F00E0008011A013C01B2
:108E60006B014A003D00620051037303A703D00366
:108E7000DD01FA0104F15C0604F1200ED4E90019C9
:108E800004F1300B4CCE40469EE820508BE84C005D
:108E900004F1100282E820500A466FF31F32D4F822
:108EA0002C80002AC4E90219C4F81C802C9240F0DE
:108EB000B9804A466FF31F322C92002A40F0B980E5
:108EC000A9EB01030022B2EB533F00F0C2808046C1
:108ED000DDE094F8200104F5907680B3032859D0A2
:108EE0004CF2A860C0F2030012F08BF9CDF81480A8
:108EF000A04618F8F80F002871D0032840F0BA8077
:108F0000A14619F8F40F00286FD0032800F0FD8166
:108F10004CF27860C0F2030012F073F9A14619F820
:108F2000940FDFE810F00500AD00B3007B02B6023D
:108F3000CDF81480D4E91C68D4E91E5B5CE2CDF85E
:108F40001480B346206FD4E91D98D4F88450029061
:108F5000E06F0490D4F88000039048464146E66EE6
:108F60000BF014FE214641F8880F002001F10C029D
:108F700081F84C000298A1F80480C1F81880DDF84F
:108F8000148082E8030204988E605E46C8610398EC
:108F9000C1E9080504F190092CA85246494601F0A0
:108FA000D3F92C980C280BD1032030700C20C8F872
:108FB0000000062084F869002FB0BDE8000FF0BD66
:108FC00094F8D400DDE92C5B03281AD004280FD0D4
:108FD000052804BF94F8EC0003281AD10CE0E06ED9
:108FE000D4E91FC3D4F88410F6E0D4E92620FFE0CA
:108FF00094F8EC0003280CD15D2048440CF087FD68
:1090000007E094F81C01032804BF94F81801032812
:1090100006D001200B2D307040F08B830B2588E3A8
:109020008920EAE7002006904CF29C40C0F2030041
:1090300005E0002006904CF2AC40C0F203004CF278
:1090400068422CA906AB0090C0F20302002006F093
:10905000F3FD4CF2BC404CF21052C0F20300C0F2DF
:109060000302512110F01BFD4CF22050C0F203000E
:1090700012F0C7F84CF28860C0F2030012F0C1F899
:109080004CF23030C0F2030012F0BBF8FEDEB9EB58
:109090000106E26338BF0026330B30054FF00105AF
:1090A000184618BF05EB163013B9002840F01F8191
:1090B000824200F009814FF48070D4E90C23A4F8B7
:1090C00015010020C4F8DC00C4E93319C4E94323C6
:1090D00004F16C0106A8FFF7C9F80698022800F011
:1090E000E980DDE9075BC00740F0F080002004F173
:1090F000400181E82108E9077DD0D4E90221C4F8C4
:109100004CB08B1A28BF1846000B00F01B830025BB
:10911000D4E90C3C84F8B0500BF10105B5FBF0F636
:10912000C4E91B3C06FB1050C4E91D21E06704F1B3
:109130006C0106A8FEF7F2FF0698CDF814800C2803
:1091400000F0AE80DDE9065B0B2D40F0F2825FFAA5
:109150008BF0022840F08982D4E9042306A8A16B91
:10916000D4F80880D4F84C900BF0BEFDDDE9065B26
:10917000042D40F0DC8261695945C0F0B180D4E92A
:109180000662A1EB0B032069D56800EB0B0206A871
:109190003146A847DDE90650042D40F09D8000EBE4
:1091A0000B012165B1F57F6F00F2988008EB093063
:1091B000A04600F6FC7300F1040C002008F8F80F3C
:1091C00058E93C25A8F1840E58E9320648E92306FF
:1091D0008EE8241048E91E31224642F890CF42E939
:1091E000023100219146C2E90132D06009F8641FC2
:1091F000C4E9282081E0D4E902234FF40071D4E9C6
:109200000C65A4F81511C4F8DC00C4E94365C4E991
:10921000332304F16C0106A8FFF728F8069802280A
:109220002BD0DDE9075BC00740F08382E80700F040
:109230001C82D4E90C230026D4E90201C4E91B23D3
:1092400004F1740284F8946082E8030804F16C016C
:1092500006A85246FFF7A2F806980C2816D094F8F4
:109260009400DDE9065B042804BF94F8B0000328ED
:1092700040F0F48104F1B100EEE10C20C8F80000E8
:1092800084F869002FB0BDE8000FF0BD0C20C8F8CD
:1092900000000D2084F869002FB0BDE8000FF0BD7C
:1092A0000C20C8F80000042084F869002FB0BDE845
:1092B000000FF0BD0C20C8F80000032084F86900FE
:1092C0002FB0BDE8000FF0BD052532E2012004F10A
:1092D000400181E821082CE2834628E20A2526E2A3
:1092E0004CF230525846C0F2030211F0F1FC4DF23C
:1092F0006420C0F2030011F071FF0021D2E90023C5
:1093000084F8F01004F1A8010DC104F1A80106A829
:1093100000F08AFE0698032800F0D38198B1DDF8AA
:1093200020B0012844D1D4F8A0004FF6FC7101EA26
:109330000B015FEA8B7301F10401026808BF1FFA99
:109340008BF111443BE0204650F8882F81690D686D
:10935000012180F86C10521B072A35D922F0030234
:1093600084F8F810D4F88C10083A8A422ED3616938
:10937000D4F85080884500F2EB8104F10809D4E963
:109380000C16E16606A999E80C020492E26798229D
:109390000296C4E91C69C4F878800393C4E92035B7
:1093A00012F0A1FA002004F5907B84F82001D4E5A6
:1093B000079D062D40F0B681D4F8A0000168083161
:1093C0000160D4E9282098E788F800100020A14621
:1093D00009F8940F8F2259E91906A9F1280159F8C3
:1093E00048BC59E9238581E8410109F1010006A93A
:1093F00049E9075B12F072FC002004F1980184F83F
:10940000C000E06EC4E9200881E8410104F1880051
:10941000DDF81480C4E9295B80E8600804F198064F
:109420002CA852463146FEF7B9FF2C980C2800F0C4
:10943000468194F8C000DDE92C5B042801BF94F854
:10944000DC00032804F1DD000CF061FB0B2D40F083
:109450005E815FFA8BF0012886F800B030D10020E1
:10946000214641F8B40F51E90D2351F8246CC1E9AC
:109470000100C1E9030003EB0633C1E9050003F66F
:10948000FC73C86101F8040C042041E9062141E99C
:10949000040304F19C00514601F00DFB5FFA80FBD0
:1094A000BBF1040F00F0268194F8B000032804BF3C
:1094B00004F1B1000CF02BFBBBF1030F40F02D8148
:1094C00001204FF0000C84F89400D4E90210431AF4
:1094D00038BF63461B0B00F03581E26CD4E90C6E9B
:1094E000013284F8B0C0B2FBF3F5C4E91B6E05FB92
:1094F0001322C4E91D106265E26704F16C0106A83D
:10950000FEF70CFE06980C2800F0BB80DDE9065B38
:109510000B2D40F00E815FFA8BF0022884F868B0C2
:1095200040F0A380D4E90C230025D4E90201C4E96A
:109530001B2304F17402666D84F8945043C204F155
:109540006C0106A85246FEF729FF06980C2800F089
:10955000A28094F89400DDE9065B042801BF94F82A
:10956000B000032804F1B1000CF0D1FA0B2D40F04B
:10957000E080D4E902104FF0000C431A38BF634674
:109580001B0B00F0DF80626DD4E90C6E013284F8B1
:10959000B0C0B2FBF3F5C4E91B6E05FB1322C4E9AE
:1095A0001D10A265E26704F16C0606A83146FEF7BD
:1095B000B5FD06980C2878D0DDE9065B0B2D40F050
:1095C000B8805FFA8BF0022886F800B048D0D4E962
:1095D0000C230026D4E90401D4E915CE84F8ED600B
:1095E000D4E90265C4E9392304F1C00282E80340EA
:1095F000C4F8CCC0C4E9206504F1700106A8524645
:10960000FFF7A6FA06980C286AD094F8ED00DDE979
:10961000065B05280CD0062820D194F830010328D9
:1096200004BF94F82C01032818D104F22D1013E084
:1096300094F89801032811D194F84C1104F5847022
:10964000032914D0042918BF052907D194F86421EF
:109650005D21032A02D108440CF059FA0B2D68D180
:10966000E06BD4E90219421C11E5062561E094F88B
:1096700094110329F2D194F890218921032AEAD088
:10968000ECE70C20C8F80000082084F869002FB02F
:10969000BDE8000FF0BD0C20C8F80000092084F8D8
:1096A00069002FB0BDE8000FF0BD0C20C8F8000025
:1096B0000A2084F869002FB0BDE8000FF0BD032038
:1096C00019E00599032088F8000089F800000C20B3
:1096D0000860052084F869002FB0BDE8000FF0BDD8
:1096E0000C20C8F800000B2084F869002FB0BDE8FA
:1096F000000FF0BD042089F800000C20C8F800001D
:10970000072084F869002FB0BDE8000FF0BD0120EC
:109710000C2D89F80000F0D00BE00120042589F819
:10972000000006E0012088F8000089F80000DDF85C
:109730001480C8E9005B012084F869002FB0BDE8FF
:10974000000FF0BD4DF27420C0F2030011F046FD91
:109750004CF240524046C0F2030211F0BDFAD4D49C
:10976000F0B503AF2DE9000B8CB0814691F868008D
:109770000C46DFE810F00C000E01140157007900D0
:109780003B00A200CE0034017801A101D201D4E94E
:10979000050194E84C00C4E9072004F124024AC200
:1097A00002466FF31F32D4E9035C002AC4E90C5C63
:1097B000029240F0CC800A466FF31F320292002AD8
:1097C00040F0CC80081A0021B1EB503F00F0D68069
:1097D00004F11C064FF48070A4F8150100204ECE51
:1097E000C4F8DC00C4E94316C4E9332304F16C0176
:1097F00006A8FEF73BFD069A022A01D10520CFE01C
:10980000DDE90710D20740F0BB810029C4E9101040
:1098100045D0C90740F093804CF29050C0F203004D
:1098200010F0ACF804F16C0106A800F0FDFB069AFC
:10983000032A01D10320B3E0002AC9D0DDE90710D3
:10984000012A40F09D81D4E90B3C0022D4E90E5658
:10985000D4F81CE084F8B020C4E92056A4F87C00B9
:10986000C4E91BE3C4E91DC104F16C0106A800F0C2
:1098700073FC0699042903D104231021042091E0EC
:109880000898032901D107997AE10229A0D30999FF
:109890004FF0000CBDF828208646A66B62E104F16B
:1098A0001C064FF40070A4F8150100204ECEC4F839
:1098B000DC00C4E94316C4E9332304F16C0106A8B3
:1098C000FEF7D4FC069A022A01D1062068E0DDE901
:1098D0000710D20704D001226067C4E91B214FE1C1
:1098E00000226067C4E91B21C9072CD0D4E90965AF
:1098F000D4E907C3F11A84F8C02038BF1146002804
:1099000008BF080BC4E920530138C4E91E0CC4E9A0
:10991000226004F17C0106A8FEF700FC06980C28E2
:1099200001D107203CE0DDE906100B2940F0288139
:10993000000640F0AB80A06F0121C4E910100021A7
:109940004C22A06436E006214FF0030C1BE10020FE
:1099500006904CF25050C0F2030005E00020069043
:109960004CF26050C0F203004CF2684202A906AB10
:109970000090C0F20302002006F05EF94CF2BC40F9
:109980004CF27052C0F20300C0F20302512110F0F9
:1099900086F84CF28050C0F2030011F032FCFEDE7B
:1099A0000423102149F8013084F868000CB0BDE8A8
:1099B000000BF0BD236AA15003EB003000F6FC71F0
:1099C0000430C4E91601E0690023D4E90B1284F8DD
:1099D0008C3004F15803C4E91B30C4E91D1204F1B2
:1099E0006C0106A800F0C0FD069A022A53D0DDE9FA
:1099F0000710D20740F0C480F1B109AECDE90610DE
:109A000006A84CCECDE908230AF0F1FF02460B462A
:109A100002A811461A460BF082F9DDE902210498EA
:109A2000002A40F0AD80626B1268914202BF0121B2
:109A3000C4E913166065C6E7E06C80BBD4E909236E
:109A40000025D4E907C1A66C501A84F8B45038BF79
:109A50002846002E08BF060B701EC4E91B0CC4E983
:109A60001D31C4E91F2004F1700106A8FEF756FB62
:109A700006980C2811D0DDE906100B2940F08080F3
:109A8000000603D1E16E4822084693E700204FF01C
:109A9000020C002277E0082082E7092080E7D4E961
:109AA00014230020E16984F8B4004FF0FF30C4E9CA
:109AB0001823C4E91B12606704F16C0106A800F0CA
:109AC000B3FA069A032A01D10A2069E7DDE90710F3
:109AD000022A05D10222C4F88000C4E91E214FE009
:109AE000C4E91E21D207C4F880003DD04FF0000C1D
:109AF000E269256EC4E91BC184F8C8C04FF0FF3C81
:109B0000A4F87400A4F8940004F18400D4E90B369E
:109B1000C4E9265C4CC0C4F8901004F1840106A886
:109B200000F01AFB0698042801D10B2038E7DDE984
:109B30000781032805D10A0C08464FF0030C414663
:109B400021E0D0B1022829D1DDE90902B8F1000FE6
:109B50000492CDE9021013D0D4E918638E464FF079
:109B6000010C014610460EE00020062101224FF0B4
:109B7000030CC4E91B2160678BE70398062102915F
:109B8000020C4FF0030CC0EA0240C9E902E6C9F832
:109B900010C0C9E900100120142103E701210020B1
:109BA00007914DF2C841C0F203010A9009900420C8
:109BB00006914DF23851089006A8C0F203010FF04B
:109BC00063FFD4D4F0B503AF2DE9000B8CB0814610
:109BD00091F868000C46DFE810F00C000E0114014B
:109BE000570079003B00A200CE0034017701A201AA
:109BF000D301D4E9050194E84C00C4E9072004F13D
:109C000024024AC202466FF31F32D4E9035C002AE1
:109C1000C4E90C5C029240F0CC800A466FF31F321C
:109C20000292002A40F0CC80081A0021B1EB503F8C
:109C300000F0D68004F11C064FF48070A4F81501E2
:109C400000204ECEC4F8DC00C4E94316C4E9332337
:109C500004F16C0106A8FEF709FB069A022A01D15D
:109C60000520CFE0DDE90710D20740F0BC810029D4
:109C7000C4E9101045D0C90740F093804CF29050D1
:109C8000C0F203000FF07AFE04F16C0106A800F0A8
:109C9000CBF9069A032A01D10320B3E0002AC9D0E8
:109CA000DDE90710012A40F09E81D4E90B3C002237
:109CB000D4E90E56D4F81CE084F8B020C4E920564C
:109CC000A4F87C00C4E91BE3C4E91DC104F16C01E4
:109CD00006A800F041FA0699042903D104231021B3
:109CE000042091E00898032901D107997BE102291A
:109CF000A0D309994FF0000CBDF828208646A66B2A
:109D000063E104F11C064FF40070A4F81501002073
:109D10004ECEC4F8DC00C4E94316C4E9332304F191
:109D20006C0106A8FEF7A2FA069A022A01D10620C3
:109D300068E0DDE90710D20704D001226067C4E9BA
:109D40001B2150E100226067C4E91B21C9072CD008
:109D5000D4E90965D4E907C3F11A84F8C02038BFF3
:109D60001146002808BF080BC4E920530138C4E994
:109D70001E0CC4E9226004F17C0106A8FEF7CEF9AE
:109D800006980C2801D107203CE0DDE906100B29DC
:109D900040F02981000640F0AA80A06F0121C4E9AB
:109DA000101000214C22A06436E006214FF0030C75
:109DB0001CE1002006904CF25050C0F2030005E078
:109DC000002006904CF26050C0F203004CF2684252
:109DD00002A906AB0090C0F20302002005F02CFFA0
:109DE0004CF2BC404CF27052C0F20300C0F20302CD
:109DF00051210FF054FE4CF28050C0F2030011F0DC
:109E000000FAFEDE0423102149F8013084F86800CE
:109E10000CB0BDE8000BF0BD236AA15003EB00308D
:109E200000F6FC710430C4E91601E0690023D4E9AE
:109E30000B1284F88C3004F15803C4E91B30C4E9D8
:109E40001D1204F16C0106A800F08EFB069A022A8E
:109E500054D0DDE90710D20740F0C580E9B109AE62
:109E6000CDE9061006A84CCECDE908230AF0BFFDC7
:109E700002460B4602A811461A460AF041FF029913
:109E80000498E9BB626B9DF80C101278914202BFF6
:109E90000121C4E913166065C7E7E06C90BBD4E903
:109EA00009230025D4E907C1A66C501A84F8B450E0
:109EB00038BF2846002E08BF060B701EC4E91B0CD5
:109EC000C4E91D31C4E91F2004F1700106A8FEF7A2
:109ED00025F906980C280FD0DDE906100B2940F073
:109EE0008280000603D1E16E4822084694E70020F4
:109EF0004FF0020C002279E0092083E7082081E777
:109F0000039970E0D4E914230020E16984F8B400D7
:109F10004FF0FF30C4E91823C4E91B12606704F155
:109F20006C0106A800F080F8069A032A01D10A20E5
:109F300068E7DDE90710022A05D10222C4F8800093
:109F4000C4E91E214FE0C4E91E21D207C4F88000F5
:109F50003DD04FF0000CE269256EC4E91BC184F8C6
:109F6000C8C04FF0FF3CA4F87400A4F8940004F1BA
:109F70008400D4E90B36C4E9265C4CC0C4F89010C8
:109F800004F1840106A800F0E7F80698042801D13E
:109F90000B2037E7DDE90781032805D10A0C0846C5
:109FA0004FF0030C414621E0D0B1022829D1DDE970
:109FB0000902B8F1000F0492CDE9021013D0D4E9E0
:109FC00018638E464FF0010C014610460EE000204B
:109FD000062101224FF0030CC4E91B21606789E7C9
:109FE000039806210291020C4FF0030CC0EA0240D4
:109FF000C9E902E6C9F810C0C9E90010012014211E
:10A0000002E70121002007914DF2C841C0F203018F
:10A010000A900990042006914DF23851089006A844
:10A02000C0F203010FF030FDF0B503AF4DF8048D21
:10A03000804691F848000D4660B1032840F08080CA
:10A0400095F84400002840F0818005F13403296C24
:10A050000DCB1AE000262A4695E8031001F108040A
:10A06000082342F80C6F64452B63C5E90466C5E913
:10A070000666C5E90866C5E90A6246D805F1340CEA
:10A0800085F844608CE80D0029640DF041FF012142
:10A09000C0B2032885F8441033D1D5E90BC10B4673
:10A0A0000CEB010266467BB3304610F8014BFF2CE7
:10A0B00012D1904228D07078FF280DD1B01C904268
:10A0C00022D0B078FF2807D1F01C90421CD0F07845
:10A0D000043B0436FF28E6D0072923D90CF10400FD
:10A0E0000221BCF8064002260AF0A8FC80B2A04279
:10A0F00015D1296B05291CD9E96A012688880968C8
:10A1000003E00421022600E000260122C8E90061E4
:10A1100085F84820C8F808005DF8048BF0BD0020E1
:10A120000621F2E74CF228620820C0F2030210F088
:10A13000D3FD4CF238620620C0F2030210F0CCFDD1
:10A140004CF21860C0F2030011F05BF84CF6D0003E
:10A15000C0F2030011F055F8F0B503AF2DE9000788
:10A16000804691F844000C4668B3032875D194F8F2
:10A170004000002877D104F13003E16B0DCB0DF0E6
:10A18000C7FE01215FFA80FABAF1030F84F840108C
:10A1900031D1218CA36A8B4257D3606A0AF0F6FC56
:10A1A000E16AE369D4E9092C8842B4F820A031D1EE
:10A1B0004FF6FF7065462CEA00011646D446022091
:10A1C0001A46AA4629E0E668B4F810A094E80510FB
:10A1D000A4F820A0E661C4E9092C86B1D4E90519E8
:10A1E0000AF1030E2EF00303E6620831CD184D4547
:10A1F00008D9002010E00021042603200DE00026ED
:10A20000012009E09C4517D20EF480310826032076
:10A210009A4602E000201E4600211FFA8AF3C8E990
:10A220000006194308F1080080E80610012084F8B0
:10A230004400BDE80007F0BD002604F1300C84F8AE
:10A2400040608CE80D00E16399E74CF258620846E3
:10A25000C0F20302194610F03FFD4CF24860C0F214
:10A26000030010F0CEFF4CF6D000C0F2030010F057
:10A27000C8FFF0B503AF2DE9000F85B0824691F815
:10A28000A8000C4638B103281FD04CF29860C0F2E9
:10A29000030010F0B6FF94E8400B154620690190CA
:10A2A0006069009030460AF0A2FB00232A4684F839
:10A2B0005C3006F10803C4E9083001982063009877
:10A2C000C4E90689C4E90A1B606304F1180602A800
:10A2D000314600F039F802980C2809D10C20CAF850
:10A2E0000000032084F8A80005B0BDE8000FF0BD11
:10A2F00094F85C00DDE90289032811D0042806D017
:10A30000052804BF94F87400032811D103E094F8E1
:10A31000740003280CD15D2030440BF0F8FB07E0FB
:10A3200094F8A400032804BF94F8A000032808D0E0
:10A330000120CAE9008984F8A80005B0BDE8000F33
:10A34000F0BD8920E8E7D4D4F0B503AF2DE9000FC4
:10A3500081B0804691F844000D469246DFE810F047
:10A360000600FD00030118007E00C30005F108028D
:10A37000EE69D5F80090AB4607CAC5E908910021FF
:10A38000C5E912092E65C5E90A260BF88C1F0EE0F7
:10A39000AB461BF88C0F38B1032829D04CF208606B
:10A3A000C0F2030010F02DFFD5E912092E6D4FF019
:10A3B000FF312C4644F8541FE161C4E90511C4E99A
:10A3C0000311C4E90111016821608188A180022183
:10A3D000808827F81E0CA7F11E000AF02FFBE080F2
:10A3E000002084F834000820C4E90894C4E90A066F
:10A3F00005F17400514600F05EFBC6B2042E0BD18D
:10A4000003200C218BF80000C8F8001085F84400E8
:10A4100001B0BDE8000FF0BD95F88800032804BF27
:10A4200005F189000BF073FB0120032E8BF800006F
:10A430006BD105F12003002685F85C6005F1480C1E
:10A440000FCB02F0030622F0030208332B648CE8E2
:10A450000F008818C5E90C12C5E90E0605F1480081
:10A46000514600F028FBC6B2042E09D10C20C8F8D2
:10A470000000042085F8440001B0BDE8000FF0BDE5
:10A4800095F85C00032804BF05F15D000BF03FFB6D
:10A49000032E3AD1D5F83C90B9F1000F4CD00020F2
:10A4A0002C4644F8600FB9F1210FC4E90100C4E95A
:10A4B0000300C4E90500E06140D2A96B20464A468A
:10A4C00011F00CFC09F1030000F07C0021283DD2C2
:10A4D0006A6B00262B6C296A1A4485F85C60C5E912
:10A4E0001214C5E9140205F14800514600F0E3FAE0
:10A4F000C6B2042E0BD10C20C8F80000052085F848
:10A50000440001B0BDE8000FF0BD04200BE095F859
:10A510005C00032804BF05F15D000BF0F8FA04208D
:10A52000032E08BF0B20C8E90006012085F844006F
:10A5300001B0BDE8000FF0BD0B20F4E74CF2C8629B
:10A540004846C0F20302202110F0C6FB4CF2D8624C
:10A550002021C0F2030210F0BFFB4CF2B860C0F241
:10A56000030010F04EFEFEDEF0B503AF2DE900074C
:10A5700086B0804691F820000C46DFE800F0031F0B
:10A58000310C9100D4E90010D4E90223C4E904108D
:10A59000C4E9062325E0264616F88C0F40B10328AF
:10A5A00012D1254615F8880F28B1032812D12FE0C3
:10A5B000D4E909101CE0D4E90B101FE04CF2E8606C
:10A5C000C0F2030010F01DFE4CF26860C0F2030000
:10A5D00010F017FE4CF27860C0F2030010F011FE8C
:10A5E000FEDE2646002246F8241F706006F8682F1B
:10A5F0000022254605F8882F45E91710C4E90D10FB
:10A600000022D1E9001384F8842004F13C020BC23B
:10A6100004F13C0101A8FFF707FD019B032B5AD071
:10A62000BDF80E20012BBDF80C10DDF808C00BD0D2
:10A63000022B64D1BCF1060F73D1606B0168083145
:10A640000160D4E90D10DBE7666B8807084621F04E
:10A650000305336818BF281D184408303060D4E95A
:10A66000065E41EA02400122C4E91E0384F88C2000
:10A67000002D84F88820C4E91C2C4FF0000263628E
:10A68000A26167D0D4E904064068C4E90A6555466A
:10A6900084F86C204E46C4E90F302187C4E90CECE5
:10A6A00004F1280101A8FFF757FD0198042808D0FC
:10A6B000DDE904A902281AD2D4E90410C4E906A9E4
:10A6C0008FE70220C8F80000042084F8200006B0BC
:10A6D000BDE80007F0BD0320022130702870C8F8E3
:10A6E000001084F8200006B0BDE80007F0BDDDE9E9
:10A6F00002C214D10021636A55464E461CE0606BCD
:10A700001204002101234FF0000C006884F88C3003
:10A7100084F88830C4E91E20C4E91C110CE0012132
:10A720000AE041EA02420121022384F88C1084F8F5
:10A730008810C4E91C3CA26708F10800C8E9001CA5
:10A7400064C00120C8F8143084F8200006B0BDE8C9
:10A750000007F0BD4CF2F860C0F203000FF00EF9F4
:10A7600090F84410033905294CD8DFE801F0034B79
:10A770004B1D122890F88810042943D190F8CC1072
:10A78000032904BF90F8C81003293BD1C9300BF04E
:10A79000BEB990F87010042904BF90F88C100329FA
:10A7A00030D18D300BF0B3B990F88810032904BF75
:10A7B00090F88410032925D185300BF0A8B990F8C2
:10A7C000C510062916D0052904BF90F87011032979
:10A7D00018D190F82411032923D0042917D0052972
:10A7E00004BF90F83C1103290CD15D21E0300844EE
:10A7F0000BF08DB990F80811032904BF90F80411EB
:10A80000032900D0704700F205100BF080B990F8D2
:10A810003C11032918BF70475D21E03008440BF05C
:10A8200076B990F86C11032904BF90F868110329D8
:10A83000E8D18921E03008440BF069B990F869103B
:10A840000639072900F29580DFE801F00425931A04
:10A850009334935190F82011032940F08A8090F8A6
:10A86000D410032970D0042965D0052904BF90F8BD
:10A87000EC1003297DD15D21903008440BF047B9DD
:10A8800090F89410042904BF90F8B010032970D1F7
:10A89000B1300BF03CB990F89410032932D0042960
:10A8A00004BF90F8B010032963D145216C300844EF
:10A8B0000BF02DB990F8ED10062930D0052904BF12
:10A8C00090F89811032954D190F84C11032948D0DD
:10A8D000042918BF05294CD190F86411032918BF29
:10A8E00070475D2100F5847008440BF010B990F8B2
:10A8F0009410042904BF90F8B010032939D1B13065
:10A900000BF005B990F8C010042904BF90F8DC10D2
:10A9100003292ED171216C3008440BF0F8B890F85F
:10A920003011032904BF90F82C11032921D100F222
:10A930002D100BF0ECB890F8EC10032919D15D2123
:10A94000903008440BF0E3B890F81C11032904BFC1
:10A9500090F8181103290CD18921903008440BF08C
:10A96000D6B890F89411032904BF90F890110329E8
:10A9700000D07047892100F5847008440BF0C7B8F7
:10A980007047B0B502AF84B0044690F820000D4681
:10A9900018B103281FD1E06923E0D4E901E30121C4
:10A9A00043EA0E0000054FF0010003D084F82010A8
:10A9B00004B0B0BDB3EB0E03217638BF002340F6E0
:10A9C000FF7C180B1A0518BF01EB1330C4E903E034
:10A9D000C4F814C00DE04CF6B000C0F2030010F053
:10A9E00010FC01462A4607F032FAC0B2032813D100
:10A9F0002069C0B1E168013862690A440132C4E9E2
:10AA00000320080B28DF0DF08BFAA0BB49F2BC0035
:10AA1000C2F20200E061E4E704280AD1032184F8CD
:10AA2000201004B0B0BD0320012184F8201004B030
:10AA3000B0BD07F8170C40F25900C0F2000027F82B
:10AA4000160CA7F116000EF0EEFE40F2B900C0F2AF
:10AA50000000ADF80C0003A80EF0A4FEA7F117004B
:10AA60000DF068FA08F002F817F8170C012184F8C5
:10AA7000201004B0B0BD40F25A000191C0F20000B5
:10AA800027F80E0CA7F10E000EF0CDFE40F2BA0032
:10AA9000C0F2000027F80A0CA7F10A000EF082FEAF
:10AAA00001A80DF051FA07F0E1FF0020012184F820
:10AAB000201004B0B0BDB0B502AF82B00446007D36
:10AAC0000D4670B1032848D1206901462A4607F097
:10AAD000BEF9C0B20121042808BF0321217502B0CC
:10AAE000B0BDE068810704D001210120217502B0CA
:10AAF000B0BDD4E9011242EA01039B0704D0022051
:10AB00000121217502B0B0BD920829DF0DF008FACD
:10AB1000E8B140F258000091C0F20000ADF8040026
:10AB200001A80EF080FE40F2BA00C0F2000027F843
:10AB30000A0CA7F10A000EF035FE68460DF004FA83
:10AB400007F094FF00200121217502B0B0BD49F249
:10AB5000BC00C2F202002061B7E74CF6C000C0F2B0
:10AB6000030010F04EFBD4D4F0B503AF2DE9000F75
:10AB7000ADF2544D8246983009900AF5C5700790A1
:10AB80008B469AF81C00CDF820B0DFE810F00700E3
:10AB9000A3075613400095015C007C024EF26C4CFA
:10ABA00040F20110DAF80010C0F2030C0022CAF8DB
:10ABB0001600DCF800004FF4C873CAF808105146BC
:10ABC00021F80C2F20288AF81420CAF8103080F0C1
:10ABD000F2864EF29044C0F203042368202B80F0EA
:10ABE000F1864FF0000ED04608F820EF49F29A06A1
:10ABF000C2F202060434C1460CF10405C8E9015052
:10AC0000C8E90343C8E9056109F874EF33E0D146A8
:10AC100019F8940F58B3032840F07487D3461BF8F3
:10AC2000910F002800F0AF81032840F0B287D04692
:10AC300018F8700F002800F00085032840F0A38763
:10AC4000DAF86C40A0E0D14619F8600F002837D040
:10AC5000032840F05D87D3461BF85C0F002800F006
:10AC60009581032840F05A87DAF85840BCE1DAE9C8
:10AC70000D61A9F17408CAE91D610AF17C0098E828
:10AC80007C00D3467CC000200BF8910F0120544675
:10AC900004F8900F14F8146C14F8130C14E92850ED
:10ACA00034F8128CDFE806F003271D1F0F000CA8F4
:10ACB000002280E8285001208DF84100002026E085
:10ACC000DAE9080440E107228DF82F508DF8412081
:10ACD0000022CDF82B30ADF829800E92CDE90CCEB4
:10ACE00014E0022208E00022CDE90C3506230E9282
:10ACF0008DF841300BE003228DF8290000208DF8FB
:10AD000041200B93ADF82A800E900C9001228DF813
:10AD100042000AA800258DF828208DF840500AF03E
:10AD200086FF03283AD1D04649F28C0608F8705FB6
:10AD3000C2F2020648E90D645546002045F8444F2A
:10AD40002C466E6244F8040F05F11000C5E9075463
:10AD500045F8180F0DF0B3FD002801F0E0823068CF
:10AD6000002841F0BD8270684FF0FF31316000284B
:10AD700040F030864CF6D0500021C0F20300C6E906
:10AD80000015B060CAF86C40089A2046214607F0CA
:10AD900005F8A8B3032088F8000051E006462078A3
:10ADA00088462570012821D140F23600C2F2020007
:10ADB000007874DF0DF0B4F8012817D140F24F008D
:10ADC0000A91C0F20000ADF86803DAA80EF02BFD7E
:10ADD00040F2BA00C0F20000ADF86803DAA80EF045
:10ADE000E1FC0AA80DF0B0F807F040FE0120042EA7
:10ADF0008BF8000027D0454689F8000000F035BEEA
:10AE0000DAF868400020DAE91565CAF8680054B13C
:10AE10000DF055FD002801F082822068002841F0E5
:10AE2000338300206060DAF84800012803D1DAE9B2
:10AE30001310C96888470120042E88F8000008D143
:10AE400003208BF800000320DDF820B089F8000013
:10AE500035E1032E89F800008BF8000040F00586EC
:10AE6000DAF80860DDF820B03068002840F072861B
:10AE70004FF0FF303060301DCAE9090630790028F4
:10AE80001CBF701D09F07EFF06F8055F01200AA9AE
:10AE900006F8010C6320C0F290100B904FF00610E2
:10AEA0000A9030460AF0E8F9022840F05986DAF8AC
:10AEB00008002430CAF82000DAF820400CF017FF10
:10AEC0002168002941F0A382227B4FF0FF33DBF899
:10AED0000010236062B1221D054610460DF04CFDA6
:10AEE00020680130206028460CF02CFF0420E6E0AA
:10AEF00000210125216025730CF024FF0AA8257488
:10AF00000A9404F0A5F8DAF828006FF0004201680E
:10AF100001310160DAF808000168914280F0E685AD
:10AF200001310160011DCAE919100179002900F001
:10AF3000E3850021D14609F8601F053059F8581CF7
:10AF400001F1080449E910040078142881F0D48143
:10AF5000742148F23C7200FB01F3C2F20202D35C9E
:10AF6000DB076ED010FB012040880DF09FFB0546EB
:10AF70000020D3460BF85C0F0BF105004BE90D5494
:10AF80004BF82C0C06E0DAF878107FE6DAE90A5480
:10AF9000DAF830005646002146F8344F34467060E7
:10AFA00044F8081F06F12901C6E90745C6E905610D
:10AFB0000DF085FC002801F0B2812868002841F0DE
:10AFC0008F8168684FF0FF312960002840F00285CA
:10AFD0004CF6605106F11400C0F203010022C5E9ED
:10AFE0000020A960CAF85840089A2046214606F079
:10AFF000D5FE40B103208BF8000089F80000052041
:10B00000DDF820B05BE0DAF854400020CAF85400C4
:10B0100054B10DF054FC002801F081812068002813
:10B0200041F0648100206060DAF83C00012803D11F
:10B03000DAE91010C968884701208BF80000DDF8B4
:10B0400020B0DAF8680001218AF86010016801393F
:10B050000160DAF808000168002940F019850179DB
:10B0600000234279002903718DF829208DF82810DA
:10B070001EBF0DF12800013009F084FEDAF8080047
:10B080002430CAF82000DAF820400CF030FE2168A5
:10B09000002941F0BC81227B4FF0FF33DBF8001028
:10B0A000002A236057D0221D054610460DF064FC8F
:10B0B00020680130206028460CF044FE06209AF8F3
:10B0C000A9118AF81C00DFE811F008000B05B81080
:10B0D000A1007C006B005900B90040F200104FF451
:10B0E000FA71C0F20110CAF8701140F6AC21632564
:10B0F000CAF876010020CAF86C110AF2A111CAF848
:10B100005C1149F29A01AAF87401C0F290154FF04F
:10B110000614AAF860018AF81C020AF5B070DAF881
:10B120008421C2F20201DAF89A310AF50778CAE9F5
:10B130005F450125DAF89D61CAF868510AF5AE75D8
:10B14000CAF8A131CAE96B10CAF86451CAF858218B
:10B15000CAF8A46196E000250126256026730CF04C
:10B16000F1FD0AA825740A9403F072FF00208AF802
:10B170001C600DF2544DBDE8000FF0BD9AF8FE01C1
:10B180000AF5D6710AF5FF76002800F06F800328D3
:10B1900000F02E874CF64470C0F2030010F031F836
:10B1A0009AF8FE010AF5D6710AF5FF75002861D0FC
:10B1B000032800F0DC864CF63470C0F2030010F077
:10B1C00020F89AF8DE010AF5EF710291DFE810F03D
:10B1D0000D01E704351007001F02250954069AF8EF
:10B1E00020020AF50878002800F07382032840F056
:10B1F000E2849AF81C020AF50779002800F0F88228
:10B20000032840F0C084DAF8186253E19AF81C026F
:10B210000AF50778A0B3032840F086849AF8D40191
:10B220000AF5DA790AF5EA7BDFE810F00500BF04D9
:10B23000071024020B02DAE96F102CE09AF8F401EF
:10B240000AF5FA79002800F07381032840F072842F
:10B250009AF8F0010AF5F878002800F0D281032866
:10B2600040F05C84DAF8EC6100F04DBF9AF8FF0121
:10B2700000F0AABE9AF8FF01DAF8F82100F065BEE6
:10B28000DAE96B100022CAE96F108AF8D4210AF5B6
:10B29000DA790AF5EA7BCAE96D1000218AF8D31140
:10B2A000014651F8042F002A1CBF8068002801D1F4
:10B2B00004250DE00AA80AF040FCBDF8280000288B
:10B2C00000F06C810B9800260725010E0402069100
:10B2D00001208BF8000099F82000042827D0DDF821
:10B2E00020B003285CD199F85C0003282ED1059684
:10B2F0004646A046D9F854400020C9F8540054B13D
:10B300000DF0DDFA002801F00A802068002841F0E5
:10B31000BB8000206060D9F834004446B046059EEA
:10B32000012813D1D9E90E10C96888470EE099F8B1
:10B330006600032804BF99F85C00032800F0BB8175
:10B3400009F11E0009F01EFDDDF820B099F81F007C
:10B3500018B399F82400002189F8241001281CD181
:10B360008DDF0CF0DDFD012817D140F248000A9175
:10B37000C0F20000ADF86803DAA80EF054FA40F20B
:10B38000BA00C0F20000ADF86803DAA80EF00AFABD
:10B390000AA80CF0D9FD07F069FB002089F81F000E
:10B3A0000120082D88F8000040F0788365A90AF58F
:10B3B000D4708AF8A8610AF5D87CCAF8AC017CC9B7
:10B3C000ACE87C007DC9ACE87D0040F265120888DD
:10B3D00000218AF8DE110AA9ACF800000AF2DF1099
:10B3E00010F07CFC0AF5EF700290DAF8AC41CAF874
:10B3F000B04108F02BFB00228AF8E6118AF82022DF
:10B400000AF50878AAF8E401CAF8E0418AF8EA11D6
:10B41000AAF8E8012078142880F06E87742148F299
:10B420003C7300FB01F2C2F202039A5CD20700F007
:10B43000F78210FB01300AF5F47201214588284695
:10B440009BDF0CF06DFDC00740F0ED8228460CF04C
:10B45000B3FF054600208AF81C020AF50779CAF8EE
:10B46000EC510AF21D200AF5FE710AF5F876CAE9D8
:10B470008465CAE982100020CAF8F0010DF01FFAB5
:10B48000002801F017802868002840F029876868A4
:10B490004FF0FF312960002840F0AF824CF6AC51EC
:10B4A0000AF50270C0F203010022C5E90020A9607C
:10B4B000CAF81862304631465A4606F06FFC18B199
:10B4C000032089F800002BE0DAF814B2BAF8FE4144
:10B4D000BAF8FC51BBF1000FDAE9800606904FF094
:10B4E0000000CAF814020CD00DF0E9F9002800F0B1
:10B4F000E187DBF80000002840F0C6870020CBF889
:10B500000400DAF8F001012803D1DAE97D10C968F6
:10B510008847DDF820B00120022D89F800000BD10A
:10B52000032088F8000002990870042000F0F8BD9C
:10B53000DAE96CBC00F096BD0699012D88F8000090
:10B540004FEA114040EA064000F0FA82ADF80C02E2
:10B55000E807CDF80E62ADF80A12ADF8084240F0E7
:10B560007F82DAF8B001DDE98212CAE96D1209F0D2
:10B5700096FC01460AF5E47008F06EFABAF8BA11C2
:10B580000020BAF8B821AAF8BC01AAF8DA21AAF872
:10B59000DC118A42C0F0218300F049BC0BAA079E4F
:10B5A000BDF82A30002407CA7264DAF8B821CAF854
:10B5B000C601012031640AF5E271AAF8C4311C32D7
:10B5C0008AF8D80101238AF8D30100208CDF0CF01F
:10B5D000A7FC012859D140F24900DA91C0F20000DD
:10B5E000ADF828000AA80EF01EF9DAA804F0C3FB93
:10B5F00007F03CFADA9800260725010E04020691AE
:10B600004EE1DAE96F5BDAF8C44100F04FBD9AF819
:10B6100054020AF51578002862D0032840F0D18240
:10B620009AF84C020AF51374002800F0E48003280D
:10B6300040F0A982DAF848622FE3DAE90F64FFF7F5
:10B640007BBB9AF81A020AF21A2600284FD0032868
:10B65000CDF8148040F0BB829AF810020AF5047805
:10B660000496002800F01181032840F08C82DAF85B
:10B670000C625DE19AF810020AF50476E0B3032843
:10B6800040F08182DAF80C5261E040F22A00C0F208
:10B690000000ADF828000AA80EF0D7F88AF810428A
:10B6A00049F274040AF5E970C2F202040AF504765C
:10B6B000CAE9774022E009F1540003F0F4FCD9F81C
:10B6C000340001287FF43CAED9E90E10C9688847E0
:10B6D00036E69AF8E611BAF8E401DAF8E04195E6C0
:10B6E000BAF85212BAF85022DAF8E00182E2BAF857
:10B6F0001402DAF8D85168E0DAE977400AF5F27115
:10B700000AF5FA720AF5F475CAE98154CAE97F218B
:10B710000021CAE979010DF0D2F8002800F0FF8578
:10B720002068002840F0DC8560684FF0FF31216020
:10B73000002840F04F814CF6E4510AF5FE70C0F24B
:10B7400003010022C4E90020A160CAF80C52089A43
:10B750002846294606F022FB10B1032030700BE189
:10B760000AF50270CDF81480DAE97D4803F09BFCFD
:10B77000DAF8E801012803D1DAE97B10C9688847C3
:10B780000120A5B2092D307001D10320F2E0200C78
:10B7900040EA0846082D7BD100228AF8D261DAE916
:10B7A0006D010AF5E9758AF8D3210AF21A2631F8F3
:10B7B000023B002B08BF014608888AF81A22AAF823
:10B7C0001402CAF8D851DDF81480AAF816022846E7
:10B7D00003F0AAFE000411D00020002500240690EA
:10B7E0000120307000260AF5E97009F0CBFA57E025
:10B7F000DAF8EC5135E6DAF8E45125E228780496D7
:10B80000142880F0798548F23C727423C2F2020257
:10B810000AF2162610FB03200AF506743288B0F8E7
:10B820006400208090424BD240F233000694C0F274
:10B8300000000C46ADF8B802AEA80DF0F4FF30469B
:10B8400004F060FA069804F05DFA07F00FF9318809
:10B85000A0B2A5DF26460CF063FB012845D140F2DB
:10B8600062000A91C0F20000ADF8B802AEA80DF077
:10B87000DAFF0AA804F07FFA07F0F8F80A98022520
:10B88000049E010E04020691AAE7DAE9770538E082
:10B89000200E40EA08244FEA1860DDF81480069074
:10B8A0009AF8D30100281CBF0AF5EC7003F01DFCC8
:10B8B0004FF48070092DAAF8D3017FF40CAD5DE040
:10B8C00040F23200C0F20000ADF8B802AEA80DF0B0
:10B8D000AAFF304604F016FA204604F013FA07F0E7
:10B8E000C5F804990120087054E03046CDF8148062
:10B8F0000CF062FD0021CAE977058AF810120AF5FA
:10B9000004780AF5F2710AF5FA720AF5F476CAE9D2
:10B910008160CAE97F2100214CF6F852CAE97951C9
:10B920000AF5FE71C0F2030203F02BF9CAF80C62AB
:10B93000089A3046314606F031FA18B1032088F8EB
:10B94000000013E00AF50270DAE97D6403F0ABFB56
:10B95000DAF8E801012803D1DAE97B10C9688847E1
:10B960000120B5B2042D88F800000DD10499032000
:10B9700008700420DDF814808BF800000320DDF847
:10B9800020B088F80000CBE30499032DDDF8148083
:10B99000087006D100209AF8D2618AF8D3010825F0
:10B9A00087E4300E40EA0421300C40EA0446200EC1
:10B9B0000C46069017E74DF2F0121F21C0F2030269
:10B9C0000FF08AF94DF2F0121846C0F203021F215F
:10B9D0000FF082F9012100200B914DF6E441C0F2F5
:10B9E00003010E900D9004200A914DF658510C90D1
:10B9F0000AA8C0F203010EF047F801210020AF9120
:10BA00004DF6E441C0F20301B290B1900420AE9132
:10BA10004DF65851B090AEA8C0F203010EF034F8C4
:10BA20000020002610E040F25D00AE91C0F2000060
:10BA3000ADF8C40171A80DF0F6FEAEA804F09BF9B4
:10BA400007F014F8AE9E04200690012088F800004C
:10BA50000020ADF80C02CDF80E620698ADF80A028F
:10BA6000DDF80A42DDF80E623DE24CF6FC704CF661
:10BA70009063C0F20300CDE90A6500904CF6446083
:10BA8000C0F20300C0F203030AAA2B210EF0B4F89F
:10BA90004DF24C00C0F203000DF03CFF06984CF64E
:10BAA0008063C0F20303000640EA14200B90F0B25A
:10BAB000000440EA046028440A904CF6F460C0F2A6
:10BAC000030000904CF64460C0F203000AAA2B2148
:10BAD0000EF092F84CF6EC70C0F203000FF091FB00
