:020000022000DC
:106000000000042001610200FFB50200FFD202007F
:10601000FFB50200FFB50200FFB50200000000005E
:10602000000000000000000000000000FFB50200BA
:10603000FFB5020000000000FFB50200FFB502003E
:1060400043860200FFB50200FFB50200FFB5020063
:10605000FFB50200FFB50200D5B30200FFB5020094
:10606000FFB50200FFB50200FFB50200FFB5020058
:10607000FFB50200FFB50200FFB50200FFB5020048
:10608000FFB5020093AD0200FFB50200FFB50200AC
:10609000FFB50200FFB50200FFB50200FFB5020028
:1060A000FFB50200FFB50200FFB50200FFB5020018
:1060B000FFB50200FFB50200000000000000000074
:1060C000FFB50200FFB50200FFB50200FFB50200F8
:1060D000FFB50200FFB50200FFB502003F860200D7
:1060E000FFB50200FFB50200FFB50200000000008E
:1060F00000000000FFB5020000000000FFB5020034
:1061000005F07EFA0E480F490022814201D004C0FA
:10611000FBE70D480D490E4A814202D008CA08C06B
:10612000FAE70C484FF47001026842EA010202608B
:10613000BFF34F8FBFF36F8F02F0EBFA00DE00006A
:1061400098040220148702200000022098040220F4
:10615000E8E7020088ED00E0F0B503AF2DE9000F9D
:1061600085B08246407A8946DFE810F00500DA0102
:10617000F2019D007100DAF804009AF80840CAF8AC
:10618000000003F096FFDFE814F005003B01BD00BE
:10619000E400AA0040F21C00C0F2000027F82A0C1C
:1061A000A7F12A0005F003FF03F0D3FFDAF800009F
:1061B000022180F887100021DAF8000080F88910A9
:1061C000DAF8000080F88A10DAF8000080F886100B
:1061D000DAF80000C16B81B100EBC10100F11405D8
:1061E00001F11C0455F8080F69680969884705F131
:1061F0000800A042F6D1DAF8000081694FF0000BE8
:1062000000294ED000EB410100F1100901F1100806
:10621000002603E00136C14500F07E8109F802BB8B
:10622000DAF80000C16B0029F4D000EBC10100F1E5
:10623000140501F11C0455F8080F002269684B6A27
:106240003146984705F10800A042F4D1E2E79AF8F8
:106250001000002840F06A8147F200004FF0000B68
:10626000C4F202000126C0F800B5DAF800008AF88E
:10627000106080F887B0DAF80000C16B002900F0E8
:10628000448100EBC10100F1140501F11C0455F833
:10629000080F6968CA680021904705F10800A0420C
:1062A000F5D1012631E1D04618F8180FDFE810F0DB
:1062B00005004401500114000800DAF80C005CE00D
:1062C000554615F8240F002800F0C180032840F03F
:1062D0003981DAF82060BEE0DAF81C4064E040F270
:1062E0002000C0F2000027F8220CA7F1220005F0E0
:1062F0005EFE03F02EFFDAF8000000218830CAE9C4
:106300000301A9E740F21D00C0F20000ADF808004B
:1063100002A805F04CFE03F01CFFDAF800004FF075
:10632000000B80F889B0DAF80000C16B0029B8D002
:1063300000EBC10100F1140501F11C0455F8080F30
:106340006968CA690021904705F10800A042F5D1AB
:10635000A7E740F21F00C0F20000ADF80C0003A850
:1063600005F025FE03F0F5FEDAF800000021D04626
:10637000883008F8181FCAF80C0047F20001C4F270
:106380000201CAE9040104F0BBFBDAF814000121A0
:10639000C0F800154FF48001DAF81400C0F80413B7
:1063A000DAF81440CAF81C4040F2B0404946C2F244
:1063B000020005F088F9D4F80004000501D4032098
:1063C0005EE0DAF814004FF40061C0F8001404F045
:1063D000ABFB4EF204108021CEF200005546016066
:1063E0000121DAF81400C0F24011C0F804130020B3
:1063F00005F8240F55F8140C461C45F8086C28E0E5
:1064000040F21E00C0F2000027F8260CA7F126007B
:1064100005F0CDFD03F09DFEDAF80000012680F8BE
:106420008960DAF80000C16B00296CD000EBC10173
:1064300000F1140501F11C0455F8080F6968CA69D8
:106440000121904705F10800A042F5D15BE0DAF8A0
:106450001C60CAF8206040F208704946C2F202008F
:1064600005F031F940F23840C4F2000000688007BE
:106470000CD4304605F0BBF8C8B1032028700420C6
:1064800088F800004FF0010B03263EE0DAF8140014
:1064900001218AF82410C0F8041503F00AFE40F226
:1064A0003100C0F20000ADF8100004A80BE001209C
:1064B000287003F0FEFD40F23200C0F2000027F821
:1064C0001E0CA7F11E0005F072FD03F042FEDAF883
:1064D0000000012602218AF8186080F88710DAF897
:1064E0000000C16B79B100EBC10100F1140501F1AD
:1064F0001C0455F8080F6968CA680121904705F126
:106500000800A042F5D14FF0000B8AF80960584608
:1065100005B0BDE8000FF0BD4FF0000B0126F4E719
:106520004DF28840C0F2020006F0B9FC4DF238701E
:10653000C0F2020006F0B3FC4DF22870C0F2020077
:1065400006F0ADFC4DF20840C0F2020006F0A7FCD8
:10655000FEDEF0B503AF4DF804BD82B0044690F8FE
:10656000380098B1032840F0A88094F83400C0B1F6
:10657000032840F0A880254615F8300F002874D075
:10658000032840F0A680E66A306822E094E80D0017
:10659000002604F10C0C043084F834608CE80D0003
:1065A00002E004F10C030DCBC4E90623827812F05B
:1065B0007F02226272D00022254605F8302F45F86E
:1065C0000C0C8078264610F07F0046F8280F55D036
:1065D000E662013808284AD240F2C042C2F2020202
:1065E00002EBC00005F06FF840F2405047F2105344
:1065F000C2F20200C4F202030168BFF35F8F326887
:106600001E68012302F01F02934013EA060204D021
:10661000194002D1032603201EE0DAB1A16A01224B
:10662000BFF35F8F01F01F0102FA01F1C94350E887
:10663000002F0A4040E80023002BF8D1BFF35F8F02
:106640000126D4E90612206A84F8306002F0D0FAFC
:10665000022002E0012601202E7084F8386084F8C0
:10666000346002B05DF804BBF0BD606AA9E74DF686
:1066700014620821C0F2020205F097FD03F019FD33
:1066800040F23A00C0F2000027F8120CA7F1120005
:1066900005F08DFC03F05DFD05F0A0FC03F009FDA5
:1066A00040F23D00C0F20000ADF8040001A805F082
:1066B0007EFC03F04EFD05F091FC4DF29050C0F2CF
:1066C000020006F0ECFB4DF27C30C0F2020006F056
:1066D000E6FB4DF21840C0F2020006F0E0FB80B588
:1066E0006F4686B00121002001914DF2F851C0F2B1
:1066F0000201049000914DF2606103900420029029
:10670000C0F20201684605F023FDF0B503AF2DE9A4
:10671000000792B00446007E40F208590D4600F092
:106720000608C5F20009B8F1040F54D028B120467C
:10673000294604F098FF00284BD140F2A440C2F251
:1067400002000068022839D900204DF2B47210907E
:1067500002200D90C0F20202D9F808100F900C929E
:10676000A7F14502C1F3800007F8460C02A80E907D
:10677000D9F808034CF6CF01C0F202010591C0F32D
:10678000C03007F8450C4DF2D470CDE90312C0F2C9
:106790000200A7F14601029103F077FA4DF2F07181
:1067A0000B900420C0F202010A9007AACDE907105D
:1067B0000CA809910321002303F000FA4FF4804054
:1067C000002104F02EFFC4E9000102F00100207254
:1067D000ADE70320207694F8351001F0060ABAF1EF
:1067E000040F28D004F12006D1B9012084F8340028
:1067F000C0074FF40041484608BF0430016094F8D8
:106800003400002180F0010084F834004FF480301F
:1068100004F007FFC4E9080102F0010084F8280031
:106820003046294604F01FFF10B994F83400DFE722
:10683000032184F835108AF0040088F00402104324
:1068400018BF01201BD1227E042A02BF0522227616
:10685000042912D0012100200D914DF2F851C0F20F
:10686000020110900F9004200C914DF260610E9087
:106870000CA8C0F2020105F06BFC84F8352012B0C0
:10688000BDE80007F0BDD4D4F0B503AF2DE9000F8B
:106890009DB00446007A06910528049000F0CC844F
:1068A000049847F2301AC4F2020A90B1032813D1B7
:1068B000214611F8140F039108390291DFE810F016
:1068C0000600A5006A05DB0012022200029800689B
:1068D000C1E020686060B6E0254615F8140FDFE8D7
:1068E00010F054048E0059050500920494F820001D
:1068F000B0B1032800F06A844DF21870C0F20200B3
:1069000006F0CDFAA14619F8360FDFE810F00500C1
:106910008400430522000D00D4E906B1206AD3E0CB
:10692000A069E06100F052BCA04618F8680FA8F119
:106930003006DFE810F04C007C002F0508003E0018
:1069400033004F00080094F87000002800F007831F
:1069500011E0A04618F84A0FDFE810F005006300C8
:106960001C0513000800D4F838B0F8E094F8500083
:10697000002800F0C7814DF26870C0F2020006F0F6
:106980008EFA264616F8810F78B3032800F0B183FB
:106990004DF27870C0F2020006F081FA94F87900A6
:1069A00040B3032849D194F87000002800F0F78222
:1069B00015E02546059615F89C0FE8B1032800F070
:1069C00035824DF28870C0F2020006F068FAD4F801
:1069D00050B021E194F87000002800F0EF824DF2F1
:1069E0005870C0F2020006F05AFAD4E91D1294F869
:1069F00083006AE3606FCFE2D4E924E208E24DF25B
:106A00009840C0F2020006F04AFA4DF2E840C0F2A7
:106A1000020006F044FA4DF2A840C0F2020006F06F
:106A20003EFA4DF2D840C0F2020006F038FA4DF2BC
:106A30000850C0F2020006F032FA4DF24870C0F27F
:106A4000020006F02CFA2246002142F80C0F0292B6
:106A500002F8081F0392206190F89110002940F07D
:106A60008583002100F19802903084F82C10626236
:106A700084F82010A061069A04F1180107A801F01B
:106A80005FFD9DF81C00022800F059819DF81D1043
:106A9000C007D4F810B000F01D819DF82400A14675
:106AA000BDF82230DDF81E2043EA0040002309F83B
:106AB000363F000241EA022140EA126049F81EBC5A
:106AC00049F81A1C49F8160C0A0C254625F82C2FF3
:106AD000CAB2D2096A72C1F341122A7201F01F02CE
:106AE00045E90210090A042A28BF0422A971010CF1
:106AF000EA71A980688003F0DCFA40F21600C0F267
:106B00000000ADF81C0007A805F051FA40F2300073
:106B10000DF11C08C0F20000ADF81C00404605F065
:106B200005FA284603F079FF03F013FB687A002882
:106B300056D007980026A0460DF1540C08F84A6F6D
:106B4000D5E900122B898CE80700A8F10E0CADF8EE
:106B5000603048F812BC8CE8070028F8023CC4F802
:106B60003CB0BBF89850D4E91001B4F848208EB27C
:106B7000B542CDE91201ADF8502014D2112D12D832
:106B80009BF88E0078B903F094FA40F21700C0F237
:106B90000000ADF81C0007A805F009FA03F0D9FAC7
:106BA000D4F83CB02E46DBE900230BF1080012A913
:106BB00002F01EFA002800F0A080B142334638BF30
:106BC0000B468E4240F2A480002D00F0CD8099B299
:106BD000B1FBF5F202FB1511B1FA81F1490999E017
:106BE00028890DF1540C29686A68CDF82610614691
:106BF000ADF82E00CDF82A2098E86D00A0466DC1B2
:106C000004F15400C4F850B09CE86E006EC000203F
:106C100008F8680FA8F13006D4F8621025464FF046
:106C2000000A88B245F8440F6A8CD5F81A3045F846
:106C300004BC69612B612A83BBF89810C5E9011A6D
:106C4000DBF8042082422AD2079203F032FA40F2A3
:106C50001900C0F20000ADF8480012A805F0A7F92D
:106C600040F2040612A8C0F20006ADF8486005F034
:106C70005DF9284605F042F912A8ADF8486005F024
:106C800055F907A805F03AF903F063FA206C98303B
:106C9000C4E91B0A47F2301AC4F2020A5FE1002974
:106CA00005964ED0DBF8003047F2301A0122C4E9D5
:106CB0001E3084F88420002000220023C4F2020A3F
:106CC000C4F880100026002BE66665D0BEF1000FE8
:106CD00076D1F8E0002084F8201084F821000BF130
:106CE0000800E0610698016804F11800FFF734FA23
:106CF000002800F03582042064E2E06B0021983027
:106D0000C4E9130101204AF8DC0C84F8500022E2A7
:106D100000217DB301260022C4E91361C4E91520D6
:106D2000002084F87060C4E91735002300286366EA
:106D300000F08881002900F00E82A06D92E103200E
:106D400040E20121002008914DF21071C0F20201D1
:106D50000B900A90042007914DF2F841099007A882
:106D6000C0F2020105F0F4F94DF2B840C0F20200A1
:106D700006F082F801200B9108904DF21070C0F2DD
:106D800002000A91079004204DF2C841099007A81B
:106D9000C0F2020105F0DCF9E36F002B00F09380F4
:106DA000D4F88020D4F878E0934238BF1A469B1A72
:106DB0000EEB0206C4E91E63BEF1000F00F08380F3
:106DC000E56F4FF0000C94F88400002684F884C02E
:106DD0004DB1D4F88030A66F9D4238BF2B46ED1AD6
:106DE000F118C4E91E152546012105F89CCF6870ED
:106DF000B6FA86F045E90C1655F85C1C4009A870F7
:106E000001F1980045F8283C45E903E245F8040CF7
:106E10000020C4E922E24AF8080C01204AF8E40CF8
:106E200040F20140C0F28000CAF8D401069801681F
:106E300040F2B840C2F2020004F045FC5AF8080CD7
:106E4000002800F09280D4E922010026DAF870B31D
:106E50008B4500F2CA8047F21451C4F20201C1F816
:106E6000EC01C1F8F0B103F01EFE4FF6F86101200D
:106E7000CFF6FF71CAF800604AF80100DAF80000A6
:106E8000C0070CD1DAF80000C00704BFDAF8000030
:106E90005FEAC07003D1DAF80000C007EED0002529
:106EA000CAF8005003F000FECAF870530122D4E97A
:106EB0001210584484F89C205945E06403D8616C52
:106EC000884240F0AC80226C5168884200F2B48065
:106ED0001168C4E90E1003F0ECF840F21B00C0F298
:106EE0000000ADF81C0007A805F061F840F20600AC
:106EF000C0F20000ADF81C0007A805F017F80598CF
:106F0000A56B4068079007A804F0F8FF40F2030063
:106F1000C0F20000ADF8480012A805F007F8079E7F
:106F200036B1284605F05EF8013E05F10105F8D1BD
:106F300003F00FF9206CB4F85C10D4E90E2308308C
:106F4000ADF8241007A9D4E91565CDE9076502F06D
:106F500077FA216C98B100209831C4E91B10012008
:106F60004AF8DC0C84F87000F5E05AF8300C58B39D
:106F700003F09FF840F23E00C0F200002DE091F8CF
:106F8000942001F19800B2B191F88E10002284F89B
:106F9000792084F8781060670021C4E91B01012082
:106FA0004AF8E00C216C84F8790084F87000002025
:106FB00081F89400CFE00021C4E91B0101204AF8C8
:106FC000E00C84F87000C6E0DAF82C0080B303F01F
:106FD00070F840F23F00C0F20000ADF81C0007A8B6
:106FE00004F0E5FF03F0B5F80126012028708DF8C4
:106FF000486003F05EF840F21A00C0F20000ADF8FD
:107000001C0007A804F0D3FF40F24600C0F20000C5
:10701000ADF81C0007A804F089FF12A897E0D4E996
:107020001B3E626F0026002BE6667FF44FAEB3E690
:10703000032028700420C0E04DF21852C0F2020272
:1070400005F077FCA16D002900F0AB80E06D002811
:1070500000F0A580226E904238BF0246831A88183D
:10706000C4E9160394F870C0002684F8706060B11B
:10707000E66D46B1256EAE4238BF3546761B4319E4
:10708000C4E9163609E00020A065E66C0020002E59
:107090001EBFD4E91435206518460023264606F89D
:1070A000813F012346F8190CB0FA80F046F81D3CE8
:1070B00056F8453C400986F801C0A6F10D0C9833FE
:1070C00046F8155CB0708CE80E0084F88000002053
:1070D0004AF8080C94F880008000C0B2CAF8D000CA
:1070E000002001F085FD40F20140C0F28000CAF8A6
:1070F000D4010699304602F0F5FCC0B203280146DF
:1071000018BF0121317057D0022808D104F1640260
:1071100007CA0023002863667FF40CAE92E707F8E5
:107120003D0C02F0C6FF40F21800C0F20000ADF8BE
:107130001C0007A804F03BFF40F24600C0F200002C
:10714000ADF81C0007A804F0F1FEA7F13D0004F023
:1071500058FA02F0FEFF012088F8000089F80000CC
:10716000206990F8911000293FF47BAC012025465E
:1071700005F8140F00212B2255F8100C297007A9CF
:1071800045F8080C681C05F01EFFE068206190F8C7
:107190009110002943D101202075606853E400203C
:1071A000A065E06C0028D6D0D4E914120020206538
:1071B00000297FF4C2ADCEE7032088F8000089F8EB
:1071C0000000052003990870032034E0069904F1BB
:1071D0001C0002F0A9FBC0B20121052808BF032151
:1071E000052884F8201021D0002184F8200084F89C
:1071F00021101E22216901F10800E06104F1220042
:1072000015A905F0E0FE0698016804F11800FEF7E4
:10721000A3FF68B9206990F891100029BBD0903085
:10722000002184F82010C4E90600CFE7032000E025
:10723000042028700420207294F8BC0100F006019C
:10724000042907D10498052800F0CC821DB0BDE8C0
:10725000000FF0BD47F2301AC4F2020AA0B10328B1
:1072600040F08C80A14619F8F80F062855D8A9F1EE
:107270004C01DFE810F007008F008F005900740008
:1072800075018C010D6811E0D4F8A450A14649F8AD
:10729000AC5F002259F80C0C59F8041C89F8D02076
:1072A000C9F88C10C9F8040009F84C2F04F1B40097
:1072B000402105F02EFF0020C4F8FC5084F80C019A
:1072C00004F58678002084F80801281DC4F8000120
:1072D00004F58475807810F07F065CD0C4F80461F2
:1072E000701E082834D2069940F2C042C2F202024F
:1072F00002EBC000096804F0E6F9DAF8E0030121C6
:1073000001FA06F2104008BF0321002888F8001097
:10731000297040F0018103204CE0002294F87C3178
:10732000042B18464FD92AE294F80C0104F586780C
:10733000D0B1032828D194F8080104F58475B0B1C0
:10734000032840F0D780D4F80461701E0828CAD3FF
:107350004DF614620821C0F2020204F026FFD4E9BF
:107360003F02D4F80411E0E0D4F8FC50AAE7D4F8C6
:107370000001807810F07F06B0D10CE04DF2D460AF
:10738000C0F2020005F08BFD4DF2A050C0F20200E9
:1073900005F085FDFEDE02F08CFE40F23900C0F201
:1073A0000000ADF81C0007A804F001FE02F0D1FEB9
:1073B00004F014FE012289F8000094F87C31042BBB
:1073C000184600F2DC8104F59E700590CDF80C9013
:1073D000CDE901329BB1032B1FD194F8900104F544
:1073E000C878B0B3032879D194F88C0104F5C67538
:1073F000002864D003287DD1D4F8886139E005984D
:10740000402105F086FE002004F5C87884F890013C
:10741000D4F83801C4F880011DE094F8B80104F5EF
:10742000DC79002846D003285ED194F8B40104F535
:10743000DA7800284AD0032862D194F8B00104F524
:10744000D875002847D0032860D1D4F8AC613068E3
:10745000E0E0D4F880010021043084F88C1104F5B8
:10746000C675C4F88401807810F07F0693D0C4F804
:107470008861701E082880F0A180069940F20052B1
:10748000C2F2020202EBC000096804F01CF947F2E4
:1074900014500121C4F2020001FA06F20068104003
:1074A00008BF0321002888F80010297040F04C81A3
:1074B00003205EE1D4E96002D4F8881185E0D4F8B5
:1074C0008401807810F07F06D1D164E7D4E96302AB
:1074D000D4F8941183E0D4F8A40190E04DF2C050A8
:1074E000C0F2020005F0DBFC4DF2B050C0F2020029
:1074F00005F0D5FC4DF29870C0F2020005F0CFFC0B
:107500004DF28C30C0F2020005F0C9FC4DF218407B
:10751000C0F2020005F0C3FCD4F8B00004F1B402DC
:107520004021C4E93F02C4F80411069BCDE90802DA
:1075300000F580600790CDE90A1307A901F0A8FAC9
:1075400080BB4129C4F8F41030D2002004F1B40209
:1075500084F83401D4F8AC00C4E93F02C4F8041143
:107560000698016804F1FC00FEF7F3FFC0B203289F
:107570001AD094F8F4004028CED10020D4F8AC10F2
:10758000012284F83401C4E93F12C4F804010698CA
:10759000016804F1FC00FEF7DCFFC0B20328BBD198
:1075A000062007E7042005E7052003E74DF2E46223
:1075B0000846C0F20202402105F0BBF94DF62462F4
:1075C0000821C0F2020204F0F0FD0023043084F828
:1075D000B43104F5DA78C4E96302C4F89411C4E95B
:1075E0006621817811F07F01C4F8A01100F0FC80C1
:1075F0000021C4F8A40184F8B01104F5D87580788E
:1076000010F07F00C4F8A80100F0F58004F5D476EE
:10761000C4F8AC6101380828D0D2069940F2005273
:10762000C2F2020202EBC000096804F04CF840F21A
:10763000405047F21453C2F20200C4F20203016840
:10764000BFF35F8F32681B6802F01F02D340DB0775
:1076500073D082F01002D140C90700F08380D4F8C3
:10766000A8110122BFF35F8F01F01F0181F010010B
:1076700002FA01F1C94350E8002F0A4040E8002314
:10768000002BF8D1BFF35F8F0121D4F8A051D4F8BB
:107690009801072D84F8B01100F2B4800AF55C7BE4
:1076A000D4F89C215BF82510914248D847F2145336
:1076B000C4F2020303F51E720E9203F519720D92C5
:1076C00003F514720C9203F50F720B9203F50A7214
:1076D0000A9203F50572099203F50072089203F508
:1076E000F672079207AA52F825201060516003F045
:1076F000DAF900204FF6F8624AF825000AEB850017
:107700000121CFF6FF7281505AF82500C0070CD135
:107710005AF82500C00704BF5AF825005FEAC07078
:1077200003D15AF82500C007EED000264AF825609C
:1077300003F0BAF94BF8256001E001202870012020
:1077400089F8000088F800000020402184F8B80182
:1077500004F5DC79D4F83801059AC4F88001C4E94D
:10776000612132E70320287088F8000089F80000C2
:107770000420DDF80C90DDE9013284F87C01002161
:10778000052B38BF0121114306D0032084F8BC012A
:107790001DB0BDE8000FF0BD99F80010072902BF29
:1077A000082189F80010052812D001210020089135
:1077B0004DF2F851C0F202010B900A90042007919B
:1077C0004DF26061099007A8C0F2020104F0C0FC0C
:1077D000042084F8BC01062084F87C010498052864
:1077E0007FF434ADFEF77BFF02F063FC40F23C0017
:1077F000C0F20000D5E502F05CFC40F23A00C0F2B5
:107800000000CEE54DF6CC322846C0F20202082137
:1078100004F0CBFCF0B503AF4DF804BD8AB002A96B
:1078200004464EF2B840CDE90411C0F2020094F8CB
:107830006010CDE902040020069039B1032950D030
:107840004DF68400C0F2020005F029FBCDF82300BC
:10785000089008A8A16DE16503F086FB4EF20010C8
:107860000121CEF200004FF46072C0F88011016077
:1078700040F20431C4F2000140F208750A60802130
:10788000C0F8841141604FF60460CFF6FF70C5F276
:1078900000054FF4004103262950002000216E63AB
:1078A00000F0D1FE002843D00146E06D04F069F8F5
:1078B00040F63C210420C5F20001286008604FF624
:1078C0000060CFF6FF704FF40071295004F16101A0
:1078D0000020EE6184F85500216584F83800C4E981
:1078E0000C1104F1200004A9FEF70FFF30B10320B2
:1078F00084F860000AB05DF804BBF0BD40F2087087
:1079000040F63C22C5F200000221C5F20002C1612E
:10791000116001604163012084F860000020207242
:107920004FF0FF30C4E900000AB05DF804BBF0BDC1
:107930004DF674004DF61003C0F2020008AA009044
:107940004DF62000C0F20200C0F202032B2104F029
:107950004BFCF0B503AF2DE90007C6B004464EF26C
:10796000B840C0F2020008A9CDE9080400200C903C
:1079700094F86405CDE90A1158B194F8600500281F
:1079800040F0C080D4E985A5B4F81E82B4F81C92FA
:107990003BE040F2000A4DF64C01C2F2020AC0F28E
:1079A00002015046B4F82280B4F8209002F0D8F8D2
:1079B00004F12405002801BF40F2A440C2F20200F5
:1079C00003210160002628464FF4E071C4E9816676
:1079D000C4E9836605F09DFB082084F86065A4F87F
:1079E000F0014FF4FA50A4F81E82A4F81C92C4E9E6
:1079F00085A584F80262A4F80062C4F8F861C4F8AE
:107A0000F46184F8F261C4F8EC0140F2EF2105F56D
:107A1000F076C4F2010105F580701C911021C0F2CE
:107A20006401C4F820A21B914CF2DE01CFF6FF7175
:107A300001F52262ADF86810112117914DF2FF7126
:107A4000C0F2020110231691072115914DF2F87131
:107A5000C0F202014FF4807E149180218DE8430032
:107A600003A804F5097680E828404FF0400C14ABD9
:107A7000ADF86A2005F5C0724FF0000ACDE9062C7A
:107A80003046494642468DF876A0ADF874E0CDF810
:107A900060A000F04CFE05F5E0720EA831464023D0
:107AA00000F086F9BDF84650129AA4F8005314ADC0
:107AB0000E98DDF84210BDF84C30C4E9BB02C82274
:107AC000C4F8F8022846C4F8FC123146A4F8F4328F
:107AD00005F071FB04F541762946304600F0C6FEFC
:107AE000D4F8201204F53E7004F53B7284F85CA5CE
:107AF00084F8A8A3C4F8A063C4F84014C4F84424CC
:107B0000C4F8480404F568700AA9FEF7BDFE032016
:107B100084F8600584F8640546B0BDE80007F0BD50
:107B2000D0B502AF0446D0F8040400281EBFC168D7
:107B3000D4F808048847D4F80C0428B1C168D4F8F4
:107B40001004BDE8D0400847D0BD70470120704701
:107B500008464DF2F471C0F20201042204F0B3BEF3
:107B6000F0B503AF4DF8048D8AB0CDE9010101A84D
:107B7000039004A803A9904602F0F3FE049801289C
:107B800034D108AD04AE03AC05E03046214602F026
:107B9000E8FE049850B3069919B39DF81400079AAB
:107BA0000228CDE908120DD0042810D00528ECD108
:107BB000284602F0B6FEC00713D14046002201F06D
:107BC00054F9E2E7284602F0BDFE000409D1284638
:107BD00002F0A7FEC00704D1284602F0A2FEC007AB
:107BE000D3D001200AB05DF8048BF0BD00200AB0AC
:107BF0005DF8048BF0BDF0B503AF2DE9000F8BB03D
:107C0000CDE9020104A99068019002A8049005A89A
:107C1000D2E900B802F0A5FE0598012851D109ADBE
:107C20000DF114090DF1100A0026002406E0484663
:107C3000514602F096FE0598002842D00799D9B324
:107C40009DF81800089A0228CDE9091225D00428C9
:107C500016D00528EBD1284602F063FEC0072BD1D1
:107C60009BF80000F2B29042E1D10198E2B20078B4
:107C7000801AB0FA80F04209404601F0F6F8D6E7E3
:107C8000284602F04EFEC00716D128460E4602F0E6
:107C900048FEC00710D10C46C9E7284602F052FE44
:107CA000000409D1284602F03CFEC00704D1284652
:107CB00002F037FEC007BAD001200BB0BDE8000FBC
:107CC000F0BD00200BB0BDE8000FF0BDF0B503AF74
:107CD0002DE9000F8BB0CDE9012002A8039104A982
:107CE000049005A81C46D3F8089002F03AFE0598C7
:107CF000012851D109AD0DF1140A0DF1100B002628
:107D00004FF0000806E05046594602F02AFE05985A
:107D1000002841D00799D1B39DF81800089A02288D
:107D2000CDE9091224D0042815D00528EBD1284626
:107D300002F0F7FDC0072AD1F0B2814531D914F81D
:107D400010005FFA88F2801AB0FA80F042090198B8
:107D500001F08BF8D7E7284602F0E3FDC00716D103
:107D600028460E4602F0DDFDC00710D18846CAE75E
:107D7000284602F0E7FD000409D1284602F0D1FDB3
:107D8000C00704D1284602F0CCFDC007BBD00120BB
:107D90000BB0BDE8000FF0BD00200BB0BDE8000F38
:107DA000F0BD4DF6F4024946C0F2020204F0FDF9BE
:107DB000F0B503AF2DE9000F8FB08346D1F88C00EA
:107DC000062840F21D810C46D1F8BC5091F8851070
:107DD00098469146002001290CD102210022CDE9CC
:107DE000001020462946022302F04EFAA069411FE6
:107DF0000120FFE705AA8DF8205013C209A805A9A4
:107E000000F000FE099D9DF828A0D5F8BC10514552
:107E100040F2058105EB4A009DF82920022390F8E5
:107E2000B510013180F8B51000200221CDE9001015
:107E300051460290284602F041FA4DF604122846B7
:107E4000C0F202022421032302F097F94DF6071233
:107E50002846C0F202022421022302F08EF90AF120
:107E600001008DF82E0006200BAA8DF82C00284664
:107E7000242103238DF82DA002F07FF905F1C00025
:107E8000032102F012FE002840F0A88040F2FF30EB
:107E9000ADF82F000820ADF82C0041F080000BA9B0
:107EA0008DF82E00284602F062FA0B98BDF83010CB
:107EB000ABF8081005A9CBF804000BA800F0A2FD50
:107EC0000B9E9DF83050D6F8BC10A94240F2AE800F
:107ED00006EB45009DF831200A23CDF8109090F86C
:107EE000B510013180F8B51000202946CDE9000019
:107EF0000290304602F0E2F906F1C200022102F0DF
:107F0000D4FD002840F099808DF836100DA94FF46B
:107F100000793046ADF83790ADF8348002F027FA9A
:107F20000D98BDF83810CBF80A0006F1C000ABF888
:107F30000E10022102F0B9FD00284FD141F080005F
:107F40000DA98DF836003046ADF83790ADF8348085
:107F500002F00DFA0D98CBF8100004F14000BDF8C6
:107F60003810ABF8141002F087FB049AD4F8B00074
:107F700002F1080182F804A0042811603FBF8BF8C9
:107F80001650CBF8001004EBC000C0F890203FBFA3
:107F9000D4F8B0104DF60C12C0F20202C0F89420D2
:107FA0003FBF481CC4F8B0000FB0BDE8000F38BF99
:107FB000F0BD02F07EF840F20F00C0F20000ADF814
:107FC00034000DA803F0F3FF4DF2E470C0F202009C
:107FD00000F047FA02F0BDF804F000F84DF69C20DE
:107FE0004DF68C23C0F20200A7F11D0200904DF661
:107FF0007420C0F20200C0F20203182104F0F4F869
:1080000002F057F840F22A00C0F20000ADF8140068
:1080100005A803F0CCFF02F09CF803F0DFFF4DF65B
:1080200064225046C0F2020204F0BFF84DF664220A
:108030002846C0F2020204F0B8F84DF6C8204DF60A
:108040008C23C0F20200A7F11D0200904DF6AC2077
:10805000C0F20200C0F20203192104F0C5F8704713
:108060000020704770477047D0B502AF84B0044617
:10807000019102F01EF840F25100C0F2000027F812
:108080000E0CA7F10E0003F092FF40F20400C0F2C4
:108090000000ADF80C0003A803F048FF01A803F0AE
:1080A0002DFF02F056F8019878B121680844B0F528
:1080B000806F0CD86168B0F5806218BF02462260FC
:1080C000501AB0FA80F04009207204B0D0BD01F01F
:1080D000F0FF40F25200C0F2000027F80A0CA7F1AE
:1080E0000A0003F064FF02F034F803F077FFD0B524
:1080F00002AF84B00446019101F0DBFF40F24E0074
:10810000C0F2000027F80E0CA7F10E0003F04FFF9D
:1081100040F20400C0F20000ADF80C0003A803F028
:1081200005FF01A803F0EAFE02F013F8019858B128
:1081300061680844B0F5806F08D800212172B0F55D
:10814000806118BF0146616004B0D0BD01F0B1FF8D
:1081500040F25200C0F2000027F80A0CA7F10A0012
:1081600003F025FF01F0F5FF03F038FFF0B503AF92
:108170004DF8048D84B0017A99B101F09AFF40F274
:108180004F00C0F2000027F81E0CA7F11E0003F0FC
:108190000EFF01F0DEFF0021002004B05DF8048B2B
:1081A000F0BDD0E900560446AE4298BF4FF4806659
:1081B000019601F07EFF40F25000C0F2000027F867
:1081C000160CA7F1160003F0F2FE40F2040803A813
:1081D000C0F20008ADF80C8003F0A8FE204603F0C2
:1081E0008DFEA7F1120027F8128C03F09FFE01A864
:1081F00003F084FE01F0ADFF2068711B014404B060
:108200005DF8048BF0BDF0B503AF4DF8048D84B07C
:108210000446066854F8045FAE4202D1007A012891
:108220002ED1AE4298BF4FF48066019601F041FF17
:1082300040F24D00C0F2000027F8160CA7F116001E
:1082400003F0B5FE40F2040803A8C0F20008ADF840
:108250000C8003F06BFE204603F050FEA7F11200E5
:1082600027F8128C03F062FE01A803F047FE01F02C
:1082700070FF2068711B014404B05DF8048BF0BDF1
:1082800001F017FF40F24C00C0F2000027F81E0C6E
:10829000A7F11E0003F08BFE01F05BFF0021002020
:1082A00004B05DF8048BF0BD80B56F4682B0044623
:1082B00003F0ACFE40F29C46C2F20206356805BBF4
:1082C000804640F21070C2F202004FF4004C50F8A9
:1082D0000C2000F50041002A08BF0246D31D891A70
:1082E00023F007039B1A03F168058D423CD851190E
:1082F000D51840F80C106821284604F0AEFF40461F
:10830000356003F08AFE05F1080040F2011150E8E3
:10831000002FB2B940E80012002AF8D147F6150044
:10832000C0F202002146686105F1200000F04DFC1A
:108330002046294603F025FB204603F0A7FB20BF7B
:10834000FAE7BFF32F8F01F0B4FE40F25600C0F2FF
:108350000000ADF8040001A803F029FE00F094F835
:1083600001F0F7FE03F03AFE01F0A3FE40F25700E1
:10837000C0F2000027F8020CB81E03F018FE01F04E
:10838000E8FE03F02BFE006803F053BFF0B503AF27
:108390004DF8048D86B000228029009203D28DF81A
:1083A0000010012533E0B1F5006F09D202250A461D
:1083B00065F39F128DF80120C02242EA911124E05A
:1083C00002220B4662F39F13B1F5803F0DD28DF868
:1083D00002308B0962F39F13E02242EA11318DF8DB
:1083E00001308DF80010032511E08DF803308B0962
:1083F00062F39F138DF802300B0B042562F39F1379
:10840000F02242EA91418DF801308DF800100668A3
:10841000002001A9E84606F58064CDE90450CDE9C5
:1084200002682046019400F083FB70B98D420CD99C
:108430000020CDE901460590681A049008EB010080
:1084400001A90390204600F073FB002006B05DF800
:10845000048BF0BD0A464DF65411C0F2020103F040
:10846000EDBED0B502AF82B0044640F20400C0F2C7
:10847000000027F80A0CA7F10A0003F057FD204678
:1084800003F03CFD02B0D0BD80B56F4682B040F233
:108490005500C0F2000027F8020CB81E03F046FD9C
:1084A00002B080BD80B56F468AB000900020059074
:1084B000022002904DF64410C0F2020001AA019081
:1084C0000120049007A8039048F28730C0F2020010
:1084D000089009A8079001F12C004DF6541109905D
:1084E000C0F20201684603F0A9FE0AB080BDF0B5F3
:1084F00003AF4DF8048D86B0046800208846CDE9AE
:10850000024104F5806601A9CDE9042015463046F4
:10851000019600F00DFB70B98D420CD90020CDE919
:1085200001640590681A049008EB010001A903900A
:10853000304600F0FDFA002006B05DF8048BF0BD77
:10854000F0B503AF4DF8048D0446087A16460D4683
:1085500038B1032807D04DF6D010C0F2020004F065
:108560009EFC28686860281D314601F0DDF9C0B224
:1085700005284FF0010108BF032129720DD1287D84
:1085800047F20008C4F2020868B1032815D04DF67E
:10859000E010C0F2020004F082FC60700020207045
:1085A0005DF8048BF0BD0020C5F81080C8F800020B
:1085B0004FF400012869C0F80413316840F2B84054
:1085C000C2F2020003F07FF8D8F85C0180B328699A
:1085D0000021C0F85C112869D0F88014D0F88424F8
:1085E000D0F88834C9B2D0F88C6462F30F21D0F887
:1085F0009024DBB2D0F894C441EA0341D0F8983417
:1086000041EA0661D0F89C04C4F80110D1B25FFAC7
:108610008CF2012641EA0221DAB241EA02412670D7
:1086200041EA00602E75C4F805005DF8048BF0BDCA
:1086300002202070032028755DF8048BF0BD00F047
:1086400049BB02F0A7BFF0B503AF2DE9000B82B024
:108650008846054603F0DAFC40F29844C2F2020470
:1086600026680EBB814640F21070C2F202004FF441
:10867000004C50F80C2000F50041002A08BF0246CB
:10868000D31D891A23F007039B1A03F5AD668E42AA
:108690002FD89119D61840F80C104FF4AD61304620
:1086A00004F0DBFD4846266003F0B7FC06F1080045
:1086B00040F2011150E8002F9AB940E80012002A58
:1086C000F8D147F65310C0F202002946706106F156
:1086D0002000424600F07EFA304602B0BDE8000BB2
:1086E000F0BDBFF32F8F0026304602B0BDE8000B6F
:1086F000F0BD01F0DEFC40F25700C0F2000027F8A8
:108700001A0CA7F11A0003F052FC01F022FD03F04D
:1087100065FC80B56F4600F000F880B56F4684B008
:108720006C46204603F059F82046FFF7BDFDF0B532
:1087300003AF2DE9000F91B0804693F825009A46CB
:10874000D0B19AF82000EF2804BF9AF8210002283F
:108750000ED001F0AEFC40F20800C0F20000ADF80F
:10876000200008A803F023FC01F0F3FC03F036FC22
:108770009AF822000128ECD1BAF81E00B0F5FA7F71
:1087800066D89AF8230000910838C1B2400140EA47
:10879000D100C0B2072862D8012101FA00F010F020
:1087A0008B0F5CD001AED7E904104FF0000BCDE980
:1087B0000C109146D7E9023230465146CDE90532D8
:1087C000CDF80CB0CDF804B0CDE90EBBCDF828B093
:1087D000CDE907BB01F01FFD08AD284601F006FEFC
:1087E0000ECE40460EC096E81E001EC008F11C00CA
:1087F0004ECD4EC095E85E005EC008F16000BAE85C
:108800006E006EC09AE86E006EC008F190002421E0
:10881000C8F8BCB004F07DFC0420A8F8C29088F829
:10882000C4000098A8F8C000D7E90810C8E92210D1
:10883000B869C8F85000F86988F85CB0C8E9150B49
:10884000C8F848B0C8F840B011B0BDE8000FF0BD9E
:1088500001F02FFC40F20900C0F200007FE701F0B8
:1088600028FC40F20A00C0F2000078E7F0B503AF40
:108870002DE9000FABB00D9001F14000884611A921
:1088800078C80A4678C290E878000EA878C208F145
:108890001C0422460C9401F058FE404601F0E4FC12
:1088A000204601F040FED8F81800119001F001FCBC
:1088B00040F20B00C0F20000ADF86C001BA803F002
:1088C00076FB40F204041BA8C0F20004ADF86C4033
:1088D00003F02CFB11A803F011FB01F03AFCD8F8CF
:1088E0003400119001F0E5FB40F20C00C0F20000F2
:1088F000ADF86C001BA803F05AFB1BA8ADF86C4048
:1089000003F014FB11A803F0F9FA01F022FC0F9810
:10891000119001F0CEFB40F20D00C0F20000ADF866
:108920006C001BA803F043FB1BA8ADF86C4003F0E0
:10893000FDFA11A803F0E2FA01F00BFCD8F88C0064
:10894000119001F0B6FB40F20E00C0F20000ADF84D
:108950006C001BA803F02BFB1BA8ADF86C408146F4
:1089600003F0E4FA11A8044603F0C8FA01F0F1FBA1
:10897000B8F8C20021460B90B8F8C0000A9008F180
:1089800060007CC87CC190E87C0008F190007CC14C
:1089900049460DF190096CC86CC190E87C004846CE
:1089A0007CC141464CC94CC091E86C006CC0484643
:1089B00001F0D3FB0C9D8B46824648460ECD0EC07F
:1089C00095E84E004EC0484601F0C7FB08F1B406DA
:1089D000CDE903010EA8CDE905094CCECDE924234C
:1089E0001BAA8DE8040C11AB0D98DDE90A1226963E
:1089F000D8E922650796089500F000FF2BB0BDE886
:108A0000000FF0BD80B56F4682B00A6862B1D1E94F
:108A1000013251698B4234D2D2F810C01CF80310D5
:108A200001310CF8031000E08A68D2F8BC10032969
:108A30009FBF02EB41034FF0000CA3F8B4C0D2F883
:108A4000BC309FBF80F805C001710260581C9EBFFA
:108A5000C2F8BC0002B080BD01F02BFB40F2100058
:108A6000C0F2000027F8020CB81E03F0A0FA4DF285
:108A7000E470C0F20200FFF7F4FC01F06AFB03F0BF
:108A8000ADFA4DF654221846C0F2020203F08DFBF7
:108A9000F0B503AF2DE9000F81B00E4603F0B6FA32
:108AA000346880462068E8BB4FF0FF30D6E901B952
:108AB000D6E9035A2646206056F8140FA169884269
:108AC00001BF207F002804F10C0002F06EFE30464A
:108AD000FFF74CFB814209D1BAF1000F1EBF201DE8
:108AE000DAF8001002F041FE01260FE00BEB000265
:108AF000081AA84238BF0546114648462A4604F0DF
:108B000062FA30462946FFF7AFFA002620680130A6
:108B10002060404603F081FA3046294601B0BDE8A6
:108B2000000FF0BD4DF63830C0F2020003F083FABA
:108B3000F0B503AF2DE9000F81B00C4603F066FAE3
:108B4000266880463068D0BB4FF0FF30D4E901A9D9
:108B50003060307FD4E9035B06F1140400281CBFA9
:108B6000301D02F022FE2046FFF74DFB81420AD164
:108B7000BBF1000F1EBFDBF8001006F10C0002F085
:108B8000F4FD01240FE00AEB0002081AA84238BFE6
:108B90000546104649462A4604F015FA204629465D
:108BA000FFF7A5FA0024306801303060404603F03A
:108BB00034FA2046294601B0BDE8000FF0BD4DF65D
:108BC0004830C0F2020003F036FA0022816380F8D8
:108BD000402070470023428080F844350180704770
:108BE00008464DF65831C0F20201122203F06BBE66
:108BF000F0B503AF4DF804BD98B0412A53D21546E5
:108C00000446B1F1005F05D34819B0F1405F01D2CD
:108C10000E4604E06E462A46304604F0D4F947F288
:108C20000060072CC4F2020000F18C01179100F1E2
:108C30007801169100F16401159100F15001149131
:108C400000F13C01139100F12801129100F114018F
:108C5000CDE9100136D810A850F82400066047F27C
:108C600004064560C4F2020606F58275002045F848
:108C7000240001F018FF012046F8240055F82400D4
:108C800058B955F82400002804BF55F824000028DE
:108C900003D155F824000028F0D001F005FF18B0EA
:108CA0005DF804BBF0BD01F004FA40F23B00C0F2F5
:108CB0000000ADF80000684603F079F901F049FAC8
:108CC00003F08CF94DF6DC322046C0F20202082196
:108CD00003F06BFAF0B503AF4DF804BD4FF6F85052
:108CE00047F20835CFF6FF70C4F20205285868B184
:108CF0000120286040F2B040C2F2020002F016FDEE
:108D000040F2B840C2F2020002F010FD4FF654608B
:108D1000CFF6FF70285840B14FF40000286040F2B1
:108D2000B840C2F2020002F001FD4FF62060CFF61B
:108D3000FF70285840B14FF48060286040F2B8407E
:108D4000C2F2020002F0F2FC4FF65060CFF6FF7064
:108D5000295839B10021295040F2B040C2F2020036
:108D600002F0E4FC4FF65860CFF6FF702958002956
:108D700070D00021295040F24050C2F20200D5F8D4
:108D80006441C5F86441BFF35F8F50E8001F214381
:108D900040E80012002AF8D1A007BFF35F8F05D585
:108DA00040F2C040C2F2020002F0C0FCA00305D5B0
:108DB00040F20050C2F2020002F0B8FC40F2C0459E
:108DC0006007C2F2020544BF05F1080002F0AEFCE4
:108DD00040F200566003C2F2020644BF06F10800EA
:108DE00002F0A4FC200744BF05F1100002F09EFC35
:108DF000200344BF06F1100002F098FCE00644BFD7
:108E000005F1180002F092FCE00244BF06F11800E0
:108E100002F08CFCA00644BF05F1200002F086FCA5
:108E2000A00244BF06F1200002F080FC600644BFAF
:108E300005F1280002F07AFC600244BF06F1280028
:108E400002F074FC200644BF05F1300002F06EFC15
:108E5000200202D45DF804BBF0BD06F130005DF8DD
:108E600004BBBDE8F04002F061BCF0B503AF2DE9F2
:108E7000000B82B00D4607F81F2C8DF8001001F092
:108E800018F940F23800C0F2000027F81E0CA7F1D4
:108E90001E0003F08CF840F24500C0F20000ADF86F
:108EA000040001A803F042F8684602F0B8FB40F263
:108EB0000500C0F2000027F81A0CA7F11A0003F011
:108EC00035F8A7F11F0003F03DF805F01F09012058
:108ED00005F07F086DB200FA09F6F44301F039F9A4
:108EE00047F21050002DC4F2020013D4416817F865
:108EF0001F2C01EA0403002A18BF41EA060343605D
:108F000023D0B8F1080F6BD200EB8800002140F8A5
:108F1000701C2FE0016817F81F2C01EA0403002AD7
:108F200018BF41EA060303602DD031423AD140F226
:108F30004050BFF35F8FC2F2020050E8001F314380
:108F400040E80012002AF8D12AE089F0100001213F
:108F5000BFF35F8F01FA00F040F24051C043C2F20C
:108F6000020151E8002F024041E80023002BF8D114
:108F7000BFF35F8FA8F10100082823D240F200510F
:108F8000C2F2020116E040F24050BFF35F8FC2F21E
:108F9000020050E8001F214040E80012002AF8D1EA
:108FA000BFF35F8FA8F10100082812D240F2C04140
:108FB000C2F2020101EBC00002F0B8FB02B0BDE852
:108FC000000BF0BD4DF6FC320821C0F2020203F0A6
:108FD000ECF84DF6EC320821C0F2020203F0E5F89D
:108FE0004DF62C424046C0F20202082103F0DDF8A3
:108FF000F0B503AF2DE9000F85B08846914698F88B
:1090000008209B46C979FAB1022A08BF002936D048
:10901000C16B002900F0538100EBC10100F11C0677
:1090200001F11C050DF1080AD6E900104246C46A98
:1090300050464B46CDF800B0A047029801284AD0D0
:109040000836AE42F0D13AE100295FD0012949D07B
:109050000229DDD198F80600002840F0308198F907
:10906000021001F00F00002900F1A680082880F00E
:10907000A18147F22041C4F202012431A3E0416CF6
:1090800049B190F8482098F80630934204BFB8F8E8
:109090000220072A51D0C16B002900F0108100EB9B
:1090A000C10100F11C0401F11C0A02ADD4E9001059
:1090B0004246C66A28464B46CDF800B0B0470298F3
:1090C000012808D0083400225445EFD1104605B0DD
:1090D000BDE8000FF0BD039A0499104605B0BDE845
:1090E000000FF0BDB8F8021082698A4240F2E780B2
:1090F00098F80620002A4ED00A2A52D1BBF1000F60
:1091000000F05F8100EB4100007C12E098F806104F
:10911000002935D0062916D0082940F0D080BBF1AF
:10912000000F00F0378190F887000438B0FA80F023
:10913000400989F80000012155E0026C104605B095
:10914000BDE8000FF0BDB8F800504FF0FF3100222D
:1091500001EB15230E2B00F2B380DFE803F0097555
:109160004A08080808080808080808087C00ADE74D
:1091700000F174021221104605B0BDE8000FF0BDE9
:10918000BBF1010F40F20E8190F88A1090F88B002D
:1091900061F3410024E0BBF1010F40F21A8100208D
:1091A0001EE041464A465B4600F0FDFA0246104684
:1091B00005B0BDE8000FF0BD082880F0128147F22D
:1091C0002041C4F2020151F82000BBF1010F40F22E
:1091D000D9804FF0FF3111FA80F0B0FA80F04009E9
:1091E000A9F8000002214A46104605B0BDE8000F6C
:1091F000F0BDEBB2032B3FD850214C22DFE803F047
:1092000002373235BBF1000F00F0F9800420BBF1CA
:10921000010F89F8000000F0FA800320BBF1020F73
:1092200089F8010040F2FB800920BBF1030F89F8A7
:10923000020000F0FC8004214A4689F80310104621
:1092400005B0BDE8000FF0BDD0E90021104605B023
:10925000BDE8000FF0BDD0E90221104605B0BDE821
:10926000000FF0BD5821542201E060215C22835898
:109270002BB3415818460FE0C16B00F11C04B8F83D
:1092800002A0CE00DEB1F4E8020152460B6B294683
:109290009847083E0028F5D0BBF1010F40F2A880A6
:1092A00003224FF0000889F80120421802214FF0F4
:1092B000370C4FF4584E0026002E43D145E00022D3
:1092C000104605B0BDE8000FF0BD044614F9015B7F
:1092D000B5F1FF3FEBB229DC457803F01F04E02B2A
:1092E00005F03F0511D38678F02B06F03F0646EADD
:1092F00085150ED3C37804F0070403F03F0343EA57
:10930000851343EA8443041D06E045EA8413841C64
:109310000CE045EA0433C41CB8EB134F06D003F548
:109320007F006CF39F234EEA902601E09EB200235B
:109330008D1C5D4517D26DB129F8016020461E468F
:10934000294616B100230446F2E79042BDD189F8C0
:10935000001048E74DF698526FF00100C0F202028B
:10936000002103F005FB00F0A4FE40F22500C0F24E
:109370000000ADF8080002A802F019FE00F0E9FEB6
:1093800002F02CFE4DF6DC42C0F2020202205946E9
:1093900003F0CFFA4DF6AC42C0F2020200200021E9
:1093A00002F003FF4DF69C42C0F202020220594631
:1093B00003F0BFFA4DF60C420821C0F2020202F09F
:1093C000F4FE4DF6CC42C0F202020020002102F071
:1093D000ECFE4DF6BC42C0F202020220594603F0F8
:1093E000A8FA4DF61C420821C0F2020202F0DDFE8E
:1093F00000F05FFE40F22400C0F20000B9E74DF635
:109400005852C0F202020020002102F0CEFE4DF6BA
:1094100068520120C0F20202012102F0C6FE4DF6A0
:1094200078520220C0F20202022102F0BEFE4DF686
:1094300088520320C0F20202032102F0B6FED4D407
:10944000F0B503AF2DE9000786B08846097A994642
:109450009246B9B1C16B00F11C04CD00002D00F0A3
:10946000BE80F4E8020152464B468E6A4146B04740
:10947000083DC1B20229F1D000F0010006B0BDE8FC
:109480000007F0BD98F80710002960D0012918D016
:109490000229DFD198F80610B8F80000012900F081
:1094A0008380032940F09B80002840F0988098F842
:1094B0000200010700F0428100F0870000F5807093
:1094C0007AE0B8F802100022866998F80630CDB22A
:1094D00007F8291C014600EB4500AE4288BF00F1A9
:1094E00010020120AE42C7D90B2BC5D1B8F80040FD
:1094F0005078E3B2984265D90B461470049203F198
:1095000088020392A7F12902D1E900011D460292C7
:1095100002AAFEF770FB002840F02981E96B0029C0
:1095200000F0128105EBC101284601F11C0500F194
:10953000140656F8080F17F8291C7268536A224659
:10954000984706F108010020A942F2D194E70146AC
:1095500098F80600431E0120082B8DD8B8F800208B
:10956000DFE803F00605680544050505840083E788
:10957000012A7FF481AFCA6B002081F88A00002A9B
:109580003FF47AAF01EBC20001F1140500F11C04B5
:1095900055F8080F69680A6A0021904705F108012B
:1095A0000020A142F4D167E7C8B998F8020001078A
:1095B00000F0D18000F0870047F21851C4F2020198
:1095C0000860C1E000F075FD40F22300C0F2000029
:1095D000ADF8080002A802F0EAFC00F0BAFD012094
:1095E00000F0010006B0BDE80007F0BD531E7F2B60
:1095F000BFF442AFCB6B81F886200322002B81F8A9
:109600008C0081F8872000F09F8001EBC30201F1FC
:10961000140502F11C0455F8080F0E4691F8861047
:109620006A685269904705F1080231460020A2425B
:10963000F1D121E7012A7FF41FAF0A46C96B82F8F6
:109640008A00002900F0808002EBC10102F11405BC
:1096500001F11C0455F8080F69680A6A0121904756
:1096600005F108010020A142F4D105E7A2B3012AC7
:109670007FF402AF0D4600F01CFD40F22100C0F265
:109680000000ADF8080002A802F091FC00F061FDB6
:109690000422D5E9000185F8872005F1880205F14B
:1096A00010032C46FEF712FB002865D1E16B002960
:1096B0004AD004EBC101204601F11C0400F114055D
:1096C00055F8080F69688A690121904705F108017A
:1096D0000020A142F4D1CFE691F88700022833D0D0
:1096E0000D4600F0E6FC40F22200C0F20000ADF8AA
:1096F000080002A802F05BFC00F02BFD0322D5E974
:10970000000185F8872005F188022C46FEF728FA2B
:10971000B8BBE16BC1B104EBC101204601F11C04EF
:1097200000F1140555F8080F69688A69002190470F
:1097300005F108010020A142F4D19DE647F2540052
:109740000121C4F202000160002000F0010006B017
:10975000BDE80007F0BD47F254010020C4F2020149
:10976000086000F0010006B0BDE80007F0BD4DF64E
:109770004850C0F2020008E04DF62850C0F2020046
:1097800003E04DF63850C0F202004DF6EC43009075
:109790004DF6FC40A7F11902C0F20200C0F202032C
:1097A0002B2102F021FDF0B503AF2DE9000F85B0AC
:1097B0008B46C16BB9B100EBC10100F11C0501F191
:1097C0001C040DF1080899469246D5E900105A4646
:1097D000C66A40465346CDF80090B047029838B963
:1097E0000835A542F1D1002005B0BDE8000FF0BD5D
:1097F000DDE9030105B0BDE8000FF0BDF0B503AF32
:109800002DE9000F86B01C8C059493F82240049437
:109810001C8B396A03945C8B02947C6AD7F818908D
:10982000D1E900258968D7E902C8BE6A80E85001FD
:109830003C69C4607C69C0E906259A8B016293F893
:109840002310C0E9044900920191A0F8981000F19A
:109850002401D3F810E0D3F800B0D3F808A0BEF18B
:10986000000FBCE85003A1E850039CE8740181E8B4
:109870007401F969D1E900268968016500F1540194
:10988000C0E91226B3E87410A1E8741093E87410CC
:1098900081E874104FF0010180F88D1018BF4FF06F
:1098A000030E80F88CE0BAF1000F18BF4FF0010AE8
:1098B0004FEA4A0180F88B10BBF1000F18BF4FF040
:1098C000010B009A029B80F88820110A80F88630EC
:1098D0001A0A039B80F8872080F8891000211A0A51
:1098E000C0F88E1080F88520019A80F88320049AB1
:1098F00080F88220059AA0F8802040F21212C0F26F
:10990000102280F88AB080F88430C267C0F89110C5
:1099100006B0BDE8000FF0BD08464DF6A851C0F2F4
:109920000201092202F0CFBFF0B503AF2DE9000B11
:1099300084B00968046840F2B040C2F2020001F04D
:10994000C2FE4FF6005047F20045CFF6FF70C4F25A
:1099500002052958A9B300210124295047F21450C7
:10996000C4F2020040F2C04840F2005945F8FC4CF5
:10997000C2F20208C5F81041C2F20209046040F2C6
:109980004050C2F20200BFF35F8F04600CE0072575
:10999000062608EBC60001F0C9FE09EBC60001F07F
:1099A000C5FE062C2C4607D8062CF0D8661E072EBE
:1099B00000F28F80651CECE7002004B0BDE8000BCE
:1099C000F0BD2E68F00736D1700546D4F00556D4A8
:1099D000B00561D4300510D54FF40060286000F068
:1099E00068FB40F23500C0F2000027F81E0CA7F11A
:1099F0001E0002F0DCFA00F0ACFB601C01F0F7FD89
:109A00002178884250D081F00105257000F051FB8B
:109A1000002D4ED140F23700C0F2000027F81A0C9A
:109A2000A7F11A0002F0C3FA00F093FB042004B07F
:109A3000BDE8000BF0BD0120286000F03AFB40F2C9
:109A40003300C0F2000027F8220CA7F1220002F038
:109A5000AEFA00F07EFB7005B8D54FF48060286048
:109A600000F027FB40F23400C0F20000ADF808001F
:109A700002A802F09CFA00F06CFBF005A8D547F2B2
:109A800014514FF4807028600120C4F202018861F3
:109A900004B0BDE8000BF0BD4FF400702860022058
:109AA00004B0BDE8000BF0BD052004B0BDE8000B1C
:109AB000F0BD40F23600C0F20000ADF80C0003A883
:109AC00002F075FA00F045FB032004B0BDE8000B7E
:109AD000F0BD4DF614624FF0FF30C0F202020821D3
:109AE00002F063FBD0B502AF82B00C68D4E900107D
:109AF0008968884740F2B8402146C2F2020001F06E
:109B0000E2FD47F20010C4F20200816A11B10220A6
:109B100002B0D0BD016849B100F0CBFA40F240007C
:109B2000C0F20000ADF8040001A80BE0C06D80B1E8
:109B300000F0BFFA40F24100C0F2000027F80A0C22
:109B4000A7F10A0002F033FA00F003FB012002B093
:109B5000D0BD032002B0D0BD0020704770477047D1
:109B600040F2A042C2F202021368BFF35F8FCBB192
:109B7000012B1CBF0120704780B56F4688B00121C2
:109B8000002002914DF61071C0F202010590049080
:109B900007A801914DF61871039001A8C0F20201C7
:109BA00002F0D6FA40F22043C2F20203C3E90001F8
:109BB0000220BFF35F8F106000207047F0B503AF45
:109BC0002DE9000F97B0002B05914BD1D2E9009AF7
:109BD00040F2204ED2E90263C2F2020E126901681D
:109BE000049141680291D0E9028BD0E90451D2E995
:109BF0000040D2F808C040F2A042C2F2020212684D
:109C00000192BFF35F8FCDE90C4002981290049847
:109C1000119005980E9000200B90CDE907C001200F
:109C2000CDE9155106904DF634600199C0F202005D
:109C3000DEE9002E03920229CDE90963CDE9138BF9
:109C4000CDE90F9A08BF704602694DF62870C0F240
:109C50000200039908BF084606A9904717B0BDE85F
:109C6000000FF0BD0121002007914DF67471C0F284
:109C700002010A900990042006914DF6DC710890CB
:109C800006A8C0F2020102F063FA7047006802F011
:109C900008BA80B56F4682B040F2A84172B6C2F2EF
:109CA00002010A78FAB901220A70009000F001FA64
:109CB00040F20700C0F20000ADF8040001A802F075
:109CC00076F940F20200C0F2000027F8020CB81E3C
:109CD00002F02CF94DF6EC716846C0F2020102F078
:109CE0003DF900F036FA4EF62450CEF2000001683D
:109CF00021F48021016000DEFEDEF0B503AF2DE926
:109D0000000B3AB304460069E368BFF35F8F9842E3
:109D100017D9DE438519EDB1AA4238BF1546EE18B2
:109D2000B6F5806F1BD96068C3F580698846184412
:109D30004A4603F048F9606808EB0901A5EB0902FF
:109D400010E0002812BFC3F5806540F2FF30C51A4D
:109D5000002DE1D100252846BDE8000BF0BD60686C
:109D60002A46184403F02FF9BFF35F8F6FF39F2645
:109D7000E6602846BDE8000BF0BDF0B503AF2DE965
:109D8000000B1446C268B4F5806F28BF4FF480649E
:109D900016190546B6F5806FBFF35F8F0DD9686859
:109DA000C2F58069884610444A4603F00CF9686899
:109DB00008EB0901A4EB090202E06868104422469E
:109DC00003F001F9BFF35F8F6FF39F26EE6020462B
:109DD000BDE8000BF0BDF0B503AF2DE9000782B080
:109DE00040F2A94840F22846C2F2020849F6FB496F
:109DF00098F8030049F67B55C2F20206C0F2020948
:109E0000C0F20205A0B307281BD24FF0FF3298F82A
:109E1000041002FA00F0A7F11A0A08432C4600F0D9
:109E20007F0007F81A0CF06A00F00300022808BF50
:109E30004C4606F1180051460122A0470028F8D0F0
:109E400014E07930A7F11B0A40F0800007F81B0CE2
:109E5000F06A2C4600F00300022808BF4C4606F1C9
:109E6000180051460122A0470028F8D0012820D12F
:109E70000020A7F1190407F8190CF06A00F003009C
:109E8000022808BF4D4606F1180021460122A847C6
:109E90000028F8D001280CD10020A8F8030088F889
:109EA000000098F8010002F0B8F802B0BDE8000721
:109EB000F0BD4EF25C020121C0F2020202F01AFD76
:109EC000F0B503AF2DE9000F85B0002900F0E68062
:109ED00040F2A94340F2284AC2F202034618DC7855
:109EE000A7F12109A7F11E0BC2F2020A019605E0B3
:109EF0000024A3F80340B04200F0D08010F8011B0A
:109F0000E2B2072A25D2002971D007F8211C804629
:109F1000DAF82C0049F67B55C0F2020500F0030088
:109F2000022849F6FB40C0F2020008BF05460AF1CC
:109F3000180049460122A8470028F8D0012840F01F
:109F4000B18040F2A9434046C2F20203DC7819799D
:109F500053E0002902907BD007F81E1C49F67B587D
:109F6000DAF82C00C0F2020800F00300022849F6DB
:109F7000FB40C0F2020008BF80460AF118055946AE
:109F800001222846C0470028F7D0A7F11D08012864
:109F900040F0888040F2A943C2F20203D878441C02
:109FA000DDE90160DC70E1B28629A4D1FF2049F629
:109FB0007B5607F81D0CC0F20206DAF82C0000F000
:109FC0000300022849F6FB40C0F2020008BF064623
:109FD000284641460122B0470028F9D0012861D126
:109FE000DDE9016040F2A943C2F2020380E719797A
:109FF000012505FA02F2114319710134DC70E2B255
:10A00000072A7FF478AF0A063FF475AF8DF8101079
:10A010008046DAF82C0049F67B5504ACC0F2020504
:10A0200000F00300022849F6FB40C0F2020008BF1E
:10A0300005460AF1180021460122A8470028F8D059
:10A0400001282FD140F2A9434046C2F202034FE754
:10A0500004F1790049F67B5540F0800007F81F0CA9
:10A06000DAF82C00A7F11F08C0F2020500F0030087
:10A07000022849F6FB40C0F2020008BF05460AF17B
:10A08000180041460122A8470028F8D0012809D12C
:10A0900040F2A9430298C2F2020329E705B0BDE8E5
:10A0A000000FF0BD4EF25C020121C0F2020202F08C
:10A0B00021FCF0B503AF4DF804BD86B001F0A6FF5A
:10A0C00040F2A941C2F202010A787ABB01220A7069
:10A0D0008B784870FBB940F2284500208A70C2F2A4
:10A0E00002058DF8000049F67B56E86A49F6FB4107
:10A0F000C0F202066C4600F00300C0F20201022822
:10A1000008BF0E4605F1180021460122B04700287D
:10A11000F8D0012803D106B05DF804BBF0BD4EF2C3
:10A120005C020121C0F2020202F0E4FB01210020E6
:10A1300001914EF28C01C0F20201049000914EF2A6
:10A14000F001039004200290C0F20201684601F081
:10A15000FFFFFFF740BEFFF7B3BED0E905319942DC
:10A160009CBF0069704780B56F464EF26412084686
:10A17000C0F20202194602F0DCFBF0B503AF2DE994
:10A18000000B82B08C468146D0E90514A01C00EB80
:10A19000030888459CBF9D1CB5F5807F0FD3FFF752
:10A1A00088FF40F21100C0F2000027F81A0CA7F156
:10A1B0001A0001F0FCFEFFF7CCFF01F00FFF8C420C
:10A1C00014D2D9F81060355501348C4215D280452F
:10A1D00006F804C018D3304411461A4602F0F3FEC4
:10A1E000C9F8188002B0BDE8000BF0BD4EF2741241
:10A1F0002046C0F2020201F0D8FF4EF2841220463F
:10A20000C0F2020201F0D1FF4EF294124146C0F2B8
:10A21000020202F0ADFB80B56F4682B08269012375
:10A2200091F824E04FF0000C043207F803CCC0E9A9
:10A2300000324FF0807391F82620C98B47F8073C15
:10A240006FF07F03002A18BF6FF03F036EF34513D2
:10A250004908FA1F07F8023C07F8011C02210723EE
:10A26000FFF78BFF02B080BD4169032981BF0169FF
:10A2700080694880704780B56F464EF2A412042072
:10A28000C0F2020202F055FBD0B502AF82B0D7E9AE
:10A2900002CE002407F80D2CA7F10E0207F80C3CA3
:10A2A000062307F80E1C0B2107F8094C07F80AECE7
:10A2B00007F80BCCFFF761FF02B0D0BDF0B503AFDC
:10A2C0004DF8048D84B05FEA026C10D1D0F800C064
:10A2D000BCF1000F33D0D0F804C0D0F814E0F4453E
:10A2E0003DD2066916F80C50013506F80C50866907
:10A2F00007F1080ED7F814C0012404369EE8204167
:10A30000BEF1000FC0E9024608BFF44607F8143C4E
:10A31000002307F8162CA7F1170207F8153C0723AE
:10A3200007F8171C042107F811CC07F8128C07F85E
:10A33000135CFFF722FF04B05DF8048BF0BDFFF75C
:10A34000B8FE40F21200C0F2000027F81A0CA7F184
:10A350001A0001F02CFEFFF7FCFE01F03FFE4EF26A
:10A36000B4126046C0F20202714601F01EFF80B5D1
:10A370006F4682B0826812B3C368D0F814C06345D8
:10A380002CD2D0F810C01CF8032001320CF80320A6
:10A3900091F802C0CB780A79098807F8031C07F8FE
:10A3A000042C7A1F090A07F8013C07F8021C052152
:10A3B000052307F805CCFFF7E0FE02B080BDFFF7EC
:10A3C00078FE40F21300C0F20000ADF800006846CD
:10A3D00001F0EDFDFFF7BDFE01F000FE4EF2C412EC
:10A3E0001846C0F20202614601F0DFFED0B502AFAE
:10A3F000044680694EF2D41201210430C0F20202F8
:10A400000323C4E9071020460F21FFF7B6FE4DF2E3
:10A41000E8722046C0F2020202210423BDE8D040C7
:10A4200000F000B8F0B503AF4DF8048D82B080465F
:10A43000C06980B38C46D8F81410D8F820508D42EB
:10A4400038D2D8F81040D8F81800665D0136665545
:10A45000DD1CFF2D9CBF46198E4232D8884240D267
:10A460002554451C8D4242D210266655851C8D42CE
:10A4700044D2033004F805C0C51846D28D424BD8EB
:10A48000204411461A4602F09EFDC8F8185002B04A
:10A490005DF8048BF0BDFFF70CFE40F21400C0F233
:10A4A0000000ADF8040001A801F081FDFFF751FEA6
:10A4B00001F094FD4EF2D8122846C0F2020201F0DB
:10A4C00074FEFFF7F6FD40F21500C0F2000027F819
:10A4D000120CA7F1120001F06AFDFFF73AFE01F03D
:10A4E0007DFD4EF2E812C0F2020201F05EFE4EF275
:10A4F000F8122846C0F2020201F057FE4EF208227E
:10A500002846C0F2020201F050FE4EF218222946FF
:10A51000C0F2020202F02CFA4EF218222846C0F2D3
:10A52000020202F006FA41690022C261032981BFDA
:10A53000016980694880704780B56F464EF22822D5
:10A540000420C0F2020202F0F4F9F0B503AF2DE9E5
:10A55000000B88B08C6981460025002C5DD001F18C
:10A56000080898E8490101288D6008D103F1080521
:10A57000981D854262D3454567D8E31A3352D1E925
:10A58000000500230B60012808D105F10803A81D70
:10A59000834262D3434567D8631B3352B8F1090F36
:10A5A00044D900200D7F07F8190C200A07F81B0C6E
:10A5B0009F2007F8210C49F69D60C8F664204DF6EF
:10A5C000007147F8250C49F64C40C6F2D250A7F16D
:10A5D000310347F8290C48F6D810CCF24570CDF677
:10A5E000605147F82D0C706847F8311C052147F879
:10A5F000200C10461A461923348107F81C4C07F822
:10A600001A5CFFF70FFF444508D94EF29822204606
:10A61000C0F20202414602F08CF9012689F8085086
:10A62000C9E9006408B0BDE8000BF0BD4EF2A822F5
:10A630000A20C0F20202414602F07BF94EF2A82243
:10A640002946C0F2020202F093F94EF2A8222846EF
:10A65000C0F20202414602F06CF94EF2A8221946FD
:10A66000C0F2020202F084F94EF2A8221846C0F2AB
:10A670000202414602F05DF9D0B502AFD0E90232E4
:10A680000024D0E904C1012BD0F818E0846018BF81
:10A69000D0BD02F10803901D834206D38B420BD834
:10A6A000AEEB02012CF80010D0BD4EF2A8221946E4
:10A6B000C0F2020202F05CF94EF2A8221846C0F283
:10A6C000020202F036F9B0B502AF046801F09EFC58
:10A6D00008210025A1804FF4FA51A571216001F0F5
:10A6E0009CFC012025756575A075A06850B94FF0D8
:10A6F000FF30A06004F10C0001F057F8A0680130B1
:10A70000A060B0BD4EF22030C0F2020001F093FC18
:10A71000F0B503AF4DF804BD84B00D7A8446022035
:10A72000012D07D1CD79012D02BF9CF804504C8832
:10A73000AC4203D004B05DF804BBF0BD8D790120BC
:10A74000222D4CD0202D06D0002D08BF002004B0B3
:10A750005DF804BBF0BD062BECD91079012511681A
:10A7600053790328927900914FF00001DCF8004002
:10A770008DF8042028BF08468DF80600052B38BF49
:10A7800019468DF8051001F041FCDDE90012C4E91D
:10A79000001201F042FCFFF78CFC40F22600C0F2F0
:10A7A000000027F8120CA7F1120001F000FC40F2A3
:10A7B0002D00C0F2000027F8120CA7F1120001F0E2
:10A7C000B5FB684600F0F7F8FFF7C3FCA575A06875
:10A7D000C0B34EF23030C0F2020001F02CFC087819
:10A7E0000125DCF8004000F001018DF80C10C0F3E9
:10A7F000400007F8130C21756075FFF75AFC40F212
:10A800002700C0F20000ADF80000684601F0CFFB61
:10A8100040F205066846C0F20006ADF8006001F09F
:10A8200085FB03A801F08EFB6846ADF8006001F0DF
:10A830007DFBA7F1130001F085FBFFF78AFCA575EE
:10A84000A06870B94FF0FF30A06004F10C0000F078
:10A85000ACFFA0680130A060002004B05DF804BB2C
:10A86000F0BD4EF24030C0F2020001F0E4FBF0B562
:10A8700003AF2DE9000B82B0167A0024012E06D119
:10A88000D679012E02BF0E795588B54204D00460F6
:10A8900002B0BDE8000BF0BD9679212E04BF92886E
:10A8A000072A02D00021416025E01D468046D7F8E6
:10A8B00008900C46FFF7FDFB40F22800C0F20000B4
:10A8C000ADF8040001A801F072FBFFF742FC246818
:10A8D00001F09CFBD4E9004601F09FFBB9F1060FA3
:10A8E0000FD940460721C0E90151310A6971310C85
:10A8F0002C60AE7129710124046002B0BDE8000B28
:10A90000F0BDFFF7D6FB40F22900C0F2000027F8A7
:10A910001A0CA7F11A0001F04AFBFFF71AFC01F02C
:10A920005DFB426852B1D0F800C0531E1CF8011BF9
:10A93000C0E900C3B2FA82F040097047B2FA82F06F
:10A94000400970474268022A21BFD0F800C03CF895
:10A95000021B931EC0E900C30020022A38BF012059
:10A960007047B0B502AF09684A68AAB10D68541EB5
:10A970002B4613F801CBC1E9003408D0931E05F132
:10A98000020EACF10204A342C1E900E307D20021A8
:10A99000816001210160B0BD00210160B0BDA2EB6A
:10A9A0000C026B786544C0E902E4C1E9005203710E
:10A9B00001210160B0BDD0B502AF82B0044640F2C3
:10A9C0002B00C0F20000ADF8040001A801F0AEFABF
:10A9D000A0794EF25831C0F2020151F8200001F086
:10A9E00001FB201D01F0FEFA40F22C00C0F2000035
:10A9F00027F80A0CA7F10A0001F098FA60794EF2E4
:10AA00007431C0F2020151F8200001F0EBFA204647
:10AA100002B0BDE8D04001F071BAD0B502AF82B04B
:10AA2000044640F24400C0F2000027F80E0CA7F1E3
:10AA30000E0001F07BFA04F1090000F0E2FD40F2A3
:10AA40002E00C0F20000ADF8040001A801F06EFA7B
:10AA5000207A4EF26431C0F2020151F8200001F078
:10AA6000C1FA40F22F00C0F2000027F80A0CA7F14B
:10AA70000A0001F05BFAE0794EF27431C0F2020193
:10AA800051F8200001F0AEFAA01D01F0ABFA20460B
:10AA900001F04CFAA01C01F049FA201D02B0BDE8FB
:10AAA000D04001F043BA704770476FF0010252FA8C
:10AAB00081F2022A12D2B0F800C06FEA5C0191FA6A
:10AAC000A1F1B1FA81F106290AD80131012202FA75
:10AAD00001F313EA0C0F0ED010467047C9B209B942
:10AAE00001207047B0F800C00821012202FA01F3EA
:10AAF00013EA0C0FF0D143EA0C02028000207047E9
:10AB00004EF6004049F27531C4F20600032201609E
:10AB1000C0F8142101600268002A4FF0C00208BF8B
:10AB200001604261016070474EF6004049F27532A3
:10AB3000C4F206000168002904BF49F275310160C2
:10AB40000021416102600260C0F814110260704788
:10AB500040F2604041F20451C2F20200C4F201012D
:10AB6000006B096800F0010281EAC251420A11EB50
:10AB7000C05042F10001704780B56F4640F2604C12
:10AB8000C2F2020C9CF83410BFF35F8F07E0002282
:10AB9000BFF32F8FD207BFF35F8F40F08180CBB21E
:10ABA000032B4FF0000038BF0120022B79D80CF1A5
:10ABB000340EDEE84F2F9A420ED10131BFF35F8F82
:10ABC000CEE8431F0021002B08BF4FF0FF31C9071B
:10ABD000BFF35F8F07D065E00021BFF32F8FC90758
:10ABE000BFF35F8F5ED1032A4FF0000038BF012012
:10ABF000022A56D8DEE84F1F91420ED10132BFF330
:10AC00005F8FCEE8432F0022002B08BF4FF0FF32AA
:10AC1000D207BFF35F8F07D042E00022BFF32F8F30
:10AC2000D207BFF35F8F3BD103294FF0000038BF3D
:10AC30000120022935D8DEE84F2F8A420ED101319A
:10AC4000BFF35F8FCEE8431F0021002B08BF4FF0FA
:10AC5000FF31C907BFF35F8F07D023E00021BFF3A7
:10AC60002F8FC907BFF35F8F1CD1032A4FF000005D
:10AC700038BF0120022A14D8DEE84F1F91427FF42A
:10AC800086AF0132BFF35F8FCEE8432F0022002B47
:10AC900008BF4FF0FF32D207BFF35F8F3FF47FAFA3
:10ACA00080BD80BD114680BDF0B503AF4DF804BD39
:10ACB0000D4640F26041C0B2C2F20201144601EBFF
:10ACC000001601F0A3F9C6E902545DF804BBBDE823
:10ACD000F04001F0A2B9F0B503AF2DE9000740F252
:10ACE0006045C4B2984692462601C2F2020501F0C0
:10ACF0008DF905EB041245F806A041F20831C2F8BF
:10AD00000480C4F201012B6BD1F8FC6103F0010552
:10AD100086EAC5565D0A16EBC35645F10009B6EB47
:10AD20000A0379EB08031FD2F21C49F10003B2EBCE
:10AD30000A0573EB080338BF524601EB840322F087
:10AD40007F42C3F83822BAEB06034FF4803268EB37
:10AD50000905B3F5400302FA04F275F1000334BFAC
:10AD600041F8042C0A6007E04FF48033A3400B60E5
:10AD70004FF0FF31C2E9001101F04FF9B6EB0A01C3
:10AD80004FF0000079EB080138BF0120BDE8000753
:10AD9000F0BDF0B503AF2DE9000B4FF6006041F2B6
:10ADA0000439CFF6FF70C4F2010959F8001040F2DF
:10ADB0006046C2F20206012932D1002149F8001092
:10ADC00001F024F956E80C1F013146E80C12002A64
:10ADD000F8D1D6E900344A0A4FF4400515EBC151C9
:10ADE00042F100025B1A74EB02033CBF4FF4803364
:10ADF000C9F80030D6E904355B1A75EB02033CBF95
:10AE00004FF40033C9F80030D6E90835591A75EB0C
:10AE100002013CBF4FF48021C9F8001001F0FDF899
:10AE20004FF64860CFF6FF7059F80010012932D173
:10AE3000002149F8001001F0E9F856E80C1F013133
:10AE400046E80C12002AF8D1D6E900354A0A4FF438
:10AE5000400414EBC15142F100025B1A75EB02038E
:10AE60003CBF4FF48033C9F80030D6E904355B1A93
:10AE700075EB02033CBF4FF40033C9F80030D6E94C
:10AE80000835591A75EB02013CBF4FF48021C9F80F
:10AE9000001001F0C2F84FF63C604FF0FF38CFF6DB
:10AEA000FF7059F80010012911D1002149F8001054
:10AEB00001F0ACF804464FF48030C9F80400D6E93C
:10AEC0000210C6E900888847204601F0A6F84FF630
:10AED0004060CFF6FF7059F80010012911D1002110
:10AEE00049F8001001F092F804464FF40030C9F818
:10AEF0000400D6E90610C6E904888847204601F018
:10AF00008CF84FF64460CFF6FF7059F80010012915
:10AF100015D1002149F8001001F078F804464FF4EB
:10AF20008020C9F80400D6E90A10C6E908888847D5
:10AF30002046BDE8000BBDE8F04001F06EB8BDE86A
:10AF4000000BF0BD4EF60C50CEF20000BFF34F8F59
:10AF500001680422C0F2FA5201F4E0611143016079
:10AF6000BFF34F8F00BFFDE7F0B503AF2DE9000B36
:10AF700082B0814601F04AF840F24451C2F2020127
:10AF80000A78012A00F0DF8101220A7001F045F8F9
:10AF900099F8030041F2082840F20015C1F20008B8
:10AFA000C4F20005002800F08380012840F0D7801B
:10AFB000D8F80000002800F0D2804EF200400121B5
:10AFC000C4F20100C0F804110168C90709D1016881
:10AFD000C90704BF01685FEAC17102D10168C907EE
:10AFE000F2D00021C8F800100168C90709D1016832
:10AFF000C90704BF01685FEAC17102D10168C907CE
:10B00000F2D00021C0F804110168C90709D1016814
:10B01000C90704BF01685FEAC17102D10168C907AD
:10B02000F2D04FF0010C58F8081C122900F09E8055
:10B0300001F012020121122A40F09F804EF20042DC
:10B04000C4F20102C2F804111168C90709D11168DC
:10B05000C90704BF11685FEAC17102D11168C9074D
:10B06000F2D0122148F8081C1168C90709D11168EB
:10B07000C90704BF11685FEAC17102D11168C9072D
:10B08000F2D00021C2F804111168C90709D1116872
:10B09000C90704BF11685FEAC17102D11168C9070D
:10B0A000F2D00021012258F8043C122B6AD1A1E011
:10B0B00040F20410C1F200000068C0F307204528E8
:10B0C0004DD9D8F80000B0F15A0100F05A00A0F1B3
:10B0D0005A0018BF0121B0FA80F0400901EA000CC3
:10B0E000BCF1010F33D14EF200410120C4F2010145
:10B0F000C1F804010868C00709D10868C00704BF87
:10B1000008685FEAC07002D10868C007F2D05A2010
:10B11000C8F800000868C00709D10868C00704BF64
:10B1200008685FEAC07002D10868C007F2D000204A
:10B13000C1F804010868C00709D10868C00704BF46
:10B1400008685FEAC07002D10868C007F2D05A20D0
:10B15000C5F8580458F8081C122907D068E74FF0C2
:10B16000000C58F8081C12297FF462AF002200215D
:10B1700058F8043C122B05D13CE0002258F8043C5E
:10B18000122B37D003F01206122E3DD14EF200469C
:10B190000120C4F20106C6F804013068C00709D1D5
:10B1A0003068C00704BF30685FEAC07002D1306801
:10B1B000C007F2D0122048F8040C3068C00709D14B
:10B1C0003068C00704BF30685FEAC07002D13068E1
:10B1D000C007F2D00020C6F804013068C00709D1CA
:10B1E0003068C00704BF30685FEAC07002D13068C1
:10B1F000C007F2D0B3F1120018BF012040EA0200EC
:10B200004CEA000611B90EE04CEA0206FEF751FFC7
:10B2100040F24300C0F20000ADF8040001A800F0C5
:10B22000C6FEFEF796FFD8F80400C00740F09B80EA
:10B23000002E40F0CD8099F8000080B1002001215F
:10B2400028604FF080400160286840B928680028D5
:10B2500004BF2868002802D128680028F4D099F893
:10B2600004004EF20841C0F2020151F82000C5F876
:10B27000180400206860012045F8F80C686840B99F
:10B280006868002804BF6868002802D16868002840
:10B29000F4D099F8010040F220514EF2064CC5F26C
:10B2A000000100281CBF0120C5F8800499F80200A5
:10B2B00001264FF0FF33CEF2000C00281CBF012006
:10B2C000C5F878044EF2001099F80520CEF200007F
:10B2D000402546F204344E600B60C4F20004C1F80D
:10B2E0000463C1F800334FF00041C0F880518CF87E
:10B2F000002041F20452056099F80630C4F20102C0
:10B300004FF40005216041F2000195640225C4F26A
:10B310000101C0F20805C1F804538E600E60116887
:10B3200041B1116800291CBF1168002902D01168C1
:10B330000029F4D14FF400318CF80B30016002B0D9
:10B34000BDE8000BF0BDFEF7B4FE40F24200C0F2D3
:10B35000000027F81A0CA7F11A0000F028FEFEF7EB
:10B36000F8FE00F03BFE4EF200400121C4F2010065
:10B37000C0F804110168C90709D10168C90704BFF1
:10B3800001685FEAC17102D10168C907F2D06FF0AC
:10B390000101C8F804100168C90709D10168C9078B
:10B3A00004BF01685FEAC17102D10168C907F2D028
:10B3B0000021C0F804110168C90709D10168C90753
:10B3C00004BF01685FEAC17102D10168C907F2D008
:10B3D000FFF7B8FDF0B503AF2DE900074FF6F850C1
:10B3E00046F20834CFF6FF70C4F20004205838B19A
:10B3F0000120206040F24850C2F2020000F096F9AD
:10B400004FF6FC5040F24855CFF6FF70C2F20205ED
:10B41000205828B10220206005F1080000F086F9CC
:10B420004FF60060CFF6FF70205828B1042020604E
:10B4300005F1100000F07AF94FF60460CFF6FF70C6
:10B44000205828B10820206005F1180000F06EF99E
:10B450004FF60860CFF6FF70205828B1102020600A
:10B4600005F1200000F062F94FF60C60CFF6FF7096
:10B47000205828B12020206005F1280000F056F95E
:10B480004FF61060CFF6FF70205828B140202060A2
:10B4900005F1300000F04AF94FF61460CFF6FF7066
:10B4A000205828B18020206005F1380000F03EF9D6
:10B4B0004FF67460CFF6FF702158002958D0002154
:10B4C00040F2885A215040F22054C5F20004D4F8CA
:10B4D0000080C2F2020AB8F1000F1CD098FAA8F05E
:10B4E0004FF00109B0FA80F64546202E43D204EB16
:10B4F0008600D0F8E01121F44031C0F8E0110AEBE9
:10B50000C60000F013F909FA06F0854395FAA5F094
:10B51000B0FA80F6E9D1C4F80080D4F80083B8F11D
:10B52000000F23D098FAA8F04FF00109B0FA80F18B
:10B5300046461F291FD804EB8100D0F8E02422F4EE
:10B540004032C0F8E02441F020002F281BD801F041
:10B550001F010AEBC00009FA01F18E4300F0E6F882
:10B5600096FAA6F0002EB0FA80F1E2D1C4F800837A
:10B57000BDE80007F0BD4EF2E8322020C0F2020222
:10B58000202100F012FE4EF2F8323021C0F2020209
:10B5900000F00BFED0B502AF40F21C14C4F2000460
:10B5A000206838B10020206040F2B040C2F20200B2
:10B5B00000F0BCF8606868B10020606040F2B04004
:10B5C000C2F2020000F0B2F840F20870C2F20200CB
:10B5D00000F0ACF8A06848B10020A06040F208700C
:10B5E000C2F20200BDE8D04000F0A0B8D0BD40F2E9
:10B5F0003840C4F20000006800F001007047FEE728
:10B60000704702784EF21C404EF21D41C0F202001B
:10B61000C0F20201002A18BF084600F0E3BC00F0A7
:10B62000E1BCF0B503AF4DF804BD0C46054600265D
:10B6300000F00DFC421951EB040246F10002012A10
:10B6400006D040194FF0000261415DF804BBF0BD27
:10B650004EF21E404EF2A842C0F20200C0F20202B8
:10B66000282100F002FDB0B502AF0446007A0D4675
:10B6700058B100F0ECFB02460B46D4E90001121A67
:10B6800073EB010203D30020B0BDD4E900012A68A6
:10B6900000F0DBFB01202072B0BD80B56F4682B0A8
:10B6A00000F0D5FB43F60952A0FB020301FB023177
:10B6B000400A40EAC1500090480A0190684600F0F4
:10B6C00028FC02B080BDF0B503AF2DE9000B0C469D
:10B6D000064600F09BFC8046D6E90059D4E90010EC
:10B6E000002232601DB18D4208BF814516D0096825
:10B6F00088470246D6E90030C6E90021002B1CBF6E
:10B70000D9688847002D1EBFE968484688474046EB
:10B71000BDE8000BBDE8F04000F07FBC356040465E
:10B72000BDE8000BBDE8F04000F077BCF0B503AF1A
:10B730004DF8048D054600F069FCD5E900468046C9
:10B740000020286054B1A16830468847D5E9001030
:10B75000C5E9004600291CBFC968884740465DF816
:10B76000048BBDE8F04000F058BCF0B503AF4DF8D5
:10B7700004BD066804460A6836B1486896426568A2
:10B7800008BF854202D10DE06568486811688847A6
:10B79000C4E9000136B1716828465DF804BBBDE814
:10B7A000F04008475DF804BBF0BD0146D0E9002039
:10B7B0000023002A0B6008BF70475168084780B516
:10B7C0006F4682B040F20100C0F2000027F8020C80
:10B7D000B81E00F0ABFB02B080BDD0B502AF82B0A6
:10B7E000044600F036FBC0071FBF00204FF0FF32B9
:10B7F000C4E90002A0601EBF217302B0D0BDFEF7F5
:10B8000058FC40F25400C0F2000027F80A0CA7F1DF
:10B810000A0000F0CCFBFFF7D2FFFEF79AFC00F025
:10B82000DDFB01464EF2B840C0F20200704780B521
:10B830006F4600F1080140F2011C51E8003F03EAA5
:10B840000C02012A40F08A8043F4807241E8002310
:10B85000002BF2D1D0F810C0DCF80020BFF35F8FCE
:10B8600006E00021BFF32F8FC907BFF35F8F63D1BD
:10B87000C2605CE8003F93420ED1BFF35F8F4CE89B
:10B88000000100294FF0000108BF4FF0FF31C90748
:10B89000BFF35F8F07D050E00021BFF32F8FC907A0
:10B8A000BFF35F8F49D1C3605CE8002F9A420ED18D
:10B8B000BFF35F8F4CE8000100294FF0000108BF83
:10B8C0004FF0FF31C907BFF35F8F07D034E000218D
:10B8D000BFF32F8FC907BFF35F8F2DD1C2605CE824
:10B8E000003F93420ED1BFF35F8F4CE80001002967
:10B8F0004FF0000108BF4FF0FF31C907BFF35F8F62
:10B9000007D01AE00021BFF32F8FC907BFF35F8F65
:10B9100013D1C3605CE8002F9A42A2D1BFF35F8FBE
:10B920004CE8000100294FF0000108BF4FF0FF3143
:10B93000C907BFF35F8F9BD01A46002A18BF80BD8E
:10B94000DCF80400411C1FBF80B24EF60071CEF23D
:10B950000001086018BF80BD40BF80BDBFF32F8FBE
:10B9600080BD704780B56F464068411C1FBF80B2E4
:10B970004EF60071CEF20001086018BF80BD40BFD6
:10B9800080BD80B56F4608610268BFF35F8F06E037
:10B990000023BFF32F8FDB07BFF35F8F65D1CA6032
:10B9A00050E800CF94450ED1BFF35F8F40E80013FD
:10B9B000002B4FF0000308BF4FF0FF33DB07BFF34E
:10B9C0005F8F07D052E00023BFF32F8FDB07BFF359
:10B9D0005F8F4BD1C1F80CC050E8002F62450ED1EB
:10B9E000BFF35F8F40E80013002B4FF0000308BF48
:10B9F0004FF0FF33DB07BFF35F8F07D035E0002345
:10BA0000BFF32F8FDB07BFF35F8F2ED1CA6050E8E3
:10BA100000CF94450ED1BFF35F8F40E80013002B99
:10BA20004FF0000308BF4FF0FF33DB07BFF35F8F1A
:10BA300007D01BE00023BFF32F8FDB07BFF35F8F1F
:10BA400014D1C1F80CC050E8002F6245A0D1BFF35B
:10BA50005F8F40E80013002B4FF0000308BF4FF04A
:10BA6000FF33DB07BFF35F8F99D06246002A18BF10
:10BA700080BD4068411C1FBF80B24EF60071CEF2FF
:10BA80000001086018BF80BD40BF80BDF0B503AFA6
:10BA90002DE9000F81B08346007B4BF665115A46B5
:10BAA000C0F2020100F0D7F900264FF0010A40F27F
:10BAB00001190BF10800009008E00A462B469BF89C
:10BAC0000C0000F0CAF9002840F0788100F0BFF9BE
:10BAD000009A1368002B00F09A80DDF800C006E0A1
