:020000022000DC
:10600000000004200161020079D2020083ED020049
:1060100079D2020079D2020079D202000000000099
:1060200000000000000000000000000079D2020023
:1060300079D202000000000079D2020079D2020079
:1060400079D2020079D2020079D2020079D202001C
:1060500079D2020079D20200B9D0020079D20200CE
:1060600079D2020079D2020079D2020079D20200FC
:1060700079D2020079D2020079D2020079D20200EC
:1060800079D2020003CA020079D2020079D202005A
:1060900079D2020079D202002FB8020079D2020030
:1060A00079D2020079D2020079D2020079D20200BC
:1060B00079D2020079D20200000000000000000046
:1060C00079D2020079D2020079D2020079D202009C
:1060D00079D2020079D2020079D2020079D202008C
:1060E00079D2020079D2020079D2020000000000C9
:1060F0000000000079D202000000000079D2020006
:1061000007F0BBF80E480F490022814201D004C0BD
:10611000FBE70D480D490E4A814202D008CA08C06B
:10612000FAE70C484FF47001026842EA010202608B
:10613000BFF34F8FBFF36F8F02F0EFFA00DE000066
:1061400078000220A08F02200000022078000220A8
:106150001802030088ED00E0F0B503AF2DE9000F51
:1061600089B00B8814460568102B16D000221B2B13
:1061700012D0262B6DD040F25A000493C0F20000DA
:10618000ADF8080002A807F009FA04A801F0CFFE54
:1061900006F012FB07F040FA5BE08146C87BB1F8DD
:1061A00004800E4604F0C6F907F8390C40F22700C7
:1061B000C0F20000B168ADF8100004A8D6F80B20BA
:1061C0000291D6E904ABCDF80B2007F0E7F940F2D5
:1061D0008100C0F20000ADF8100004A807F0A9F992
:1061E000A7F1390004F04DFA40F20B0004AEC0F202
:1061F0000000ADF81000304607F09BF902A804F04B
:10620000B9F94FF21C40C0F2020007F092F906F013
:10621000D3FA17F8391C06F10A03DDF80B20CDF884
:106220001620F21C0298CDF813004046CDF81EB09F
:10623000CDF81AA08DF81210ADF8108002F0D6FE3D
:10624000C00704D04046142176DF012200E003227B
:106250004846C9B28668C5E9002105F09DFAD6E92D
:1062600000320225B168012B356004D15268054621
:1062700008469047284605F0BAFA0020206009B089
:10628000BDE8000FF0BDD0B502AF86B004464FF6B2
:106290006C10C0F202000021CDE900046A4694F8B7
:1062A0004C000491CDE9022258B1032826D194F87C
:1062B000480058B1032827D194F8440080B9A06A57
:1062C00008E0206A84F84810606200E0606A84F8A0
:1062D0004410A062C4E90B10C4E90D11C4E90F1108
:1062E00004F12C0002A900F009FE032084F84C0000
:1062F00084F8480084F8440006B0D0BD4EF6A8707B
:10630000C0F2020008F0C0FA4EF60860C0F20200C7
:1063100008F0BAFAF0B503AF2DE9000F95B0814649
:106320004FF66C10C0F2020009F58064CDE9060951
:1063300006A800250194CDE9080009F1200002908B
:1063400099F88B020A9540B3032840F0698199F8C7
:10635000040309F5247B09F541710591002800F03B
:106360002181032840F04A8199F8010309F20134A0
:10637000002800F01A810328CDF80CB040F04481C9
:1063800099F8E00209F5387B002800F01181032814
:1063900040F04081D9F8DC5228E2D9F88002C9F8EF
:1063A000300240F22E00C0F20000ADF830000CA820
:1063B00007F006F940200C958DF836004FF4804028
:1063C000ADF834000CA806F049FC41F200004FF48F
:1063D0008073C0F202104FF4B066C9F87302012056
:1063E000062189F87202A9F850024EF6C872C9E96E
:1063F0008D03C0F20202C9E99106022089F8521207
:1064000040F2011189F884024FF06630C0F2033186
:10641000C9F885024FF66670C9F866121821A9F806
:10642000890209F50D70C9F854124FF00811C9F826
:106430006052A9F86A52A9F86452A9F84C52A9F816
:106440007052C9F86C52C9E98F2103F050FE09F56A
:106450002171C9F8780205F008FFD9F878120CA864
:1064600002F031F8DDE90C10CA0740F0A580A9F868
:106470007E02090CD9F87802A9F87C1201F0C4FF59
:10648000002800F0AB800146D9F8300202F033FA60
:1064900040F20C504FF40041C5F2000003224FF4CB
:1064A00000730160C0F8302203604FF48063C0F8CD
:1064B000182203604FF40063C0F81C22C0F80033B8
:1064C00040F60023C5F20003DA62C0F8001304218D
:1064D000DA630160C0F8FC2140F620321960C2F294
:1064E0002462C0F82012002019619961022189F804
:1064F000181240F60921C2F62B71C9E98000C9E9DA
:106500007A00C9E97400C9E96E00C9E96800C9E9FF
:106510006200C9E95C00C9E95600C9E95000C9E94F
:106520004A00C9E94400C9E93E00C9E93800C9E99F
:106530003200C9E92C00C9E92600C9E92000C9E9EF
:106540001A00C9E91400C9E90E00C9E90800C9E93F
:10655000842189F8F80189F8E00189F8C80189F8EF
:10656000B00189F8980189F8800189F8680189F8F3
:10657000500189F8380189F8200189F8080189F863
:10658000F00089F8D80089F8C00089F8A80089F8D7
:10659000900089F8780089F8600089F8480089F847
:1065A000300063E0D9E9A9018AE0D9F8E81295E062
:1065B000D9E9AB680494EEE00C9040F24900C0F2D7
:1065C000000027F81E0CA7F11E0006F0E7FF0CA83C
:1065D00001F09AFC06F0F0F807F01EF840F24800CF
:1065E000C0F20000ADF830000CA806F0D7FF0CA8F0
:1065F00001F0C3FC06F0E0F807F00EF84EF69860E4
:10660000C0F2020008F040F94EF68860C0F20200C5
:1066100008F03AF94EF62870C0F2020008F034F99A
:1066200004F1480508A9284600F0A8FC002840F01D
:106630000982D9F8E00440B999F82405032804BF79
:1066400099F82005032800F07381D5E9000108437B
:1066500008D199F87C04042804BF99F8D8040328C9
:1066600000F0838109F5247002F0DAFB40F201109A
:106670004FF66C134FF64815C9F82A024FF4C8704C
:1066800009F508710022C0F20205C9F82402C0F21F
:106690000203D9F878021F26043589F82822A9F8C0
:1066A000202209F5247B89F8042389F89022C9E97E
:1066B000A73209F54172C9E9A556C9E9A9010592B0
:1066C000C9E9B9015A4692E8790009F53B7C8CE8A2
:1066D0007900002009F2013489F8010309F53C7EB4
:1066E00099F8EC320494012499F8ED0209F5407808
:1066F0009EE8445089F80043B9F8EE52DFE803F011
:1067000003241A1C0C000EA8002380E8445001202A
:106710008DF84900002023E00723CDF83320002224
:106720008DF849308DF83760ADF831501092CDE9D1
:106730000ECE14E0022308E00023CDE90E26062247
:1067400010938DF849200BE003238DF831000020D1
:106750008DF849300D92ADF8325010900E90012313
:106760008DF84A000CA800258DF830308DF848507F
:1067700003F0F1F9059C032840F02B8148F6C01680
:10678000CDF80CB0C2F20206059489F8E05209F582
:10679000387BC9E9AB6809F52D704FF0000A09F59F
:1067A0002E7509F53171C9E9B310C9E9B556C9E9C2
:1067B000AD8A05F0A4FD049C002800F04A813068F1
:1067C000002840F0528170684FF0FF31316000289E
:1067D00040F070814EF6A86109F53370C0F20201F5
:1067E0000022C6E90020B160C9F8DC5208AA284698
:1067F000294601F0ADFC002840F0E480D9F8D852D9
:106800000020D9E9B16AC9F8D80255B105F077FD81
:10681000002800F030812868002840F03F810020E7
:106820006860D9F8B802012803D1D9E9AF10C96866
:1068300088470120042E8BF8000000F0C6800599DF
:10684000032E2070087040F0498140F22F0089F833
:1068500090A2C0F20000ADF830000CA806F0B0FE27
:10686000019C09F5267109F525720020029E09F5A3
:106870001F73C9F85414C9F8582409F59C62039988
:10688000C9E9FA00C9E9F400C9E9EE00C9E9E8007C
:10689000C9E9E200C9E9DC00C9E9D600C9E9D000CC
:1068A000C9E9CA00C9E9C400C9E9BE00C9E9B8001C
:1068B000C9E9B200C9E9AC00C9E9A60089F8F80342
:1068C00089F8E00389F8C80389F8B00389F89803C8
:1068D00089F8800389F8680389F8500389F8380338
:1068E00089F8200389F8080389F8F00289F8D802AA
:1068F00089F8C00289F8A802C9F89402C4E9000026
:1069000089F81004C4E9060089F82804C4E90C00D9
:1069100089F84004C4E91200C9F85064C9F85C342D
:10692000C9F860140BC289F8240589F87C0477E65D
:10693000D9F818650020C9F8180556B105F0DFFC34
:10694000002800F098803068002840F0AD800020DA
:106950007060D9F8000501287FF477AED9F80415E6
:10696000D9F80805C96888476FE699F894040328A0
:1069700001BF99F89104032809F5926006F02CF9FB
:1069800099F8A404032801BF99F8A104032809F584
:10699000946006F021F999F8B404032801BF99F82E
:1069A000B104032809F5966006F016F999F8C404B5
:1069B000032801BF99F8C104032809F5986006F07F
:1069C0000BF94FE603208BF8000003202070059C94
:1069D00030E0064698F800008A4688F80050012802
:1069E00023D140F20000C2F20200007874DF04F00C
:1069F000BDFF012819D140F23B000C91C0F200000C
:106A000027F81E0CA7F11E0006F0C8FD40F2860014
:106A1000C0F2000027F81E0CA7F11E0006F089FD49
:106A20000CA805F00FF805F0C7FE04990120042E0C
:106A3000087052D10320207089F88B0215B0BDE890
:106A4000000FF0BD042089F88B0215B0BDE8000FDF
:106A5000F0BD0120CDF840A00D904FF29070C0F233
:106A60000200CDF83CA00C900FE04FF6C400C0F23D
:106A7000020006F0F2FD012100200D914FF290710D
:106A8000C0F2020110900C910F9004204FF6080103
:106A90000E900CA8C0F2020106F075FE4FF6E4005D
:106AA000C0F2020006F0D9FD4FF6D400C0F2020099
:106AB00006F0D3FD012100200D914FF64001C0F2F8
:106AC000020110900F9004200C914FF6B4010E902B
:106AD0000CA8C0F2020106F056FE20704EF6E070DF
:106AE0004EF63873C0F202000CAA00904EF64870C1
:106AF000C0F20200C0F202032B21CDE90C6A06F0BD
:106B00009BFEFFF729BB0A46016849B101290FD155
:106B10004EF67A711046C0F202010A2207F0E9BB74
:106B20004EF673711046C0F20201072207F0E1BB76
:106B300080B56F4682B0043001904EF684704EF6F8
:106B40009471C0F2020001AB00901046C0F2020145
:106B5000032207F0D2FB02B080BDF0B503AF2DE9F0
:106B6000000F8FB00C461168002900F05D8121886C
:106B7000112917D11546846804F00EFED4E90032BD
:106B80000226A168012B266004D1526804460846FB
:106B90009047204604F02BFE002028600FB0BDE88F
:106BA000000FF0BD00682646D0F8008036F8040FCC
:106BB00002F0DFF9C00700F04281208807F8351C99
:106BC000502800F09F8051282DD0522840F0248179
:106BD00040F22100C0F20000ADF82C000BA806F036
:106BE000DDFC40F20600C0F20000ADF82C000BA85E
:106BF00006F09FFC304606F09CFC05F0DDFD308879
:106C000002F0B7F9C00700F00781A7F1210007F8EB
:106C1000211C02F041FB002800F0E380CA6BA7F1C1
:106C200021019047F4E0A079CDF81C80022840F0C3
:106C30001781208A059040F22400C0F20000B4F8C9
:106C400012A0ADF82C000BA8069107F8211C06F045
:106C5000A5FC40F20600C0F20000ADF82C000BA825
:106C600006F067FC04F10806304606F062FC40F2CC
:106C70000A00C0F20000ADF82C000BA806F059FC89
:106C80000BA8CDF82CA006F02CFC40F205090EA8AC
:106C9000C0F20009ADF8389006F04BFCDDF82C800E
:106CA00004F1140BB8F1000F08D05D46284606F039
:106CB000B7FCB8F1010805F10105F7D105F07CFD3D
:106CC00014F80E3F581EC0B2052840F2ED8040F285
:106CD0007400C0F20000ADF82C000BA806F05EFCBA
:106CE0000BA8ADF82C9006F024FC204606F098FC8A
:106CF00005F062FDA7F1210001F021FB0FB0BDE816
:106D0000000FF0BDE089079040F22200C0F20000C1
:106D1000B4F81090ADF82C000BA806F03FFC40F240
:106D20000600C0F20000ADF82C000BA806F001FC34
:106D3000A61D304606F0FDFB40F20A00C0F200003E
:106D4000ADF82C000BA806F0F4FB0BA8CDF82C90A6
:106D500006F0C7FB40F20500C0F20000ADF83800B5
:106D60000EA806F0E6FBDDF82CB004F1120ABBF128
:106D7000000F08D05546284606F052FCBBF1010B27
:106D800005F10105F7D105F017FD14F80C0F411EB0
:106D9000C9B206290DD23388A7F1350200904146C9
:106DA0000798CDE9010A09A8CDF80C9001F0FDFB88
:106DB00032E040F27300C0F20000ADF82C000BA8E6
:106DC00006F0ECFB40F20500C0F20000ADF82C002C
:106DD0000BA806F0AEFB204606F022FC05F0ECFC0A
:106DE0001AE0A7F12100002105F05CF802280FD07D
:106DF000CDE90B0140F24400C0F20000ADF83800CC
:106E00000EA806F0CBFB0BA801F0C5F805F0D4FCEA
:106E1000A7F1210002F004F8A7F1350002F000F814
:106E20000FB0BDE8000FF0BD4FF27C104FF2A4127E
:106E3000C0F20200C0F20202282106F0AFFC40F2CC
:106E40007200C0F20000ADF82C000BA806F0A6FB03
:106E5000A7F11D0001F0B2F805F0AEFC06F0DCFB76
:106E6000012816D140F223000D46C0F20000ADF813
:106E70002C000BA806F092FB04F1080001F031F899
:106E800005F09AFCE38909A822890799009501F089
:106E9000B8F940F27500C0F20000ADF82C000BA864
:106EA00006F08EFB06F0B8FB05983288CDE9000BA2
:106EB00006980799039009A8CDF808A001F0B8F941
:106EC0000168012902D102210160FEDE80B56F4612
:106ED00086B00121002001914FF26421C0F202012D
:106EE000049000914FF2CC21039004200290C0F254
:106EF0000201684606F047FCFFF72FBEB0B502AFAF
:106F00000446006820B1E068F0B12046FFF7D8FFE2
:106F1000204610F8092F52B1032A29D1227A012ADA
:106F200007D14FF21C20C0F2020007F0ADFC002296
:106F300022720D4601F0BEF8E06840F203322946A5
:106F40002281002818BFB0BD207D38B1032808D0A9
:106F50004FF22C20C0F2020007F096FC04F115005D
:106F6000206104F1100001F037F803202075B0BD56
:106F70004FF25C00C0F2020007F086FCF0B503AFF0
:106F80002DE9000FA3B00446D0F898000591002821
:106F900040F0A08094F8DC0060B1032840F00B8141
:106FA000A04618F8D80F40B3032840F02481D4F845
:106FB000D46055E0D4F89C000078142880F001815A
:106FC000742148F2880200FB01F3C2F20202D35C92
:106FD000DB077AD010FB0120D4F8A060408804F0D1
:106FE000A5FF81460020A04608F8D80F08F105004B
:106FF00048E90D9648F82C0C03E0D4E92996D4F81A
:10700000AC0025464FF0000A45F8B06F05F12901A4
:107010002E46686046F808AFC5E90551C5E907691D
:1070200005F06DF9002800F09B80D9F800000028D9
:1070300040F0A280D9F804004FF0FF31C9F80010E9
:10704000002840F0C5804FF2EC0105F11400C0F2B9
:1070500002010022C9E90020C9F80810C4F8D46070
:10706000059A3046314601F073F898B103200122A9
:1070700084F8DC0084F8D800D4E9000108432ED05D
:10708000B0FA80F04009104300F0158423B0BDE849
:10709000000FF0BDD4F8D0500020C4F8D0004DB19E
:1070A00005F02DF900286DD02868002840F07D807B
:1070B00000206860D4F8B800012803D1D4E92F106B
:1070C000C9688847012088F800000120C4F89800AA
:1070D00084F8DC000022D4E900010843D0D1CDE9D6
:1070E000010240F2085B94F8340004F10806C5F28E
:1070F000000BDFE810F006008600860014001D007B
:10710000C80312A84FF40042002306F0E7F8DDE9B7
:1071100012019DF85020C4E90E0184F84020059921
:1071200004F1380006F000F900286BD00320B8E322
:10713000A04618F8900F40B1032800F03F814FF2AD
:107140000C30C0F2020007F09FFBD4E92012A8F136
:107150005800C4E92212D1F8E021D2076CD1A6E18F
:107160000120CDF858A013904FF29070C0F20200A9
:10717000CDF854A012900FE04FF6C400C0F2020008
:1071800006F06BFA0121002013914FF29071C0F2CA
:10719000020116901291159004204FF608011490E8
:1071A00012A8C0F2020106F0EEFA4FF6D400C0F2C7
:1071B000020006F052FA4FF2DC00C0F2020007F0C3
:1071C00063FB4FF20C421421C0F2020206F016FBE0
:1071D0000121002013914FF64001C0F202011690E8
:1071E0001590042012914FF6B401149012A8C0F229
:1071F000020106F0C8FA4FF26C10C0F2020007F06C
:1072000043FBFEDE0020224642F8200F904652F853
:10721000181CC2E90100C2E9030042F8040C08F896
:10722000700F02F11800C2E91812C4E92212D1F855
:10723000E021D20700F03B81D1E97A12C4E90E12B5
:1072400006F02CF8D0F1A3004FF0000C7CEB01000D
:1072500080F02D81D4F888100BF540704FF0010EAE
:10726000024691F8F431202B03F01F0338BF5A4631
:107270000EFA03F31360034691F8F521202A02F079
:107280001F0238BF5B460EFA02F21A60034691F8FD
:10729000F621202A02F01F0238BF5B460EFA02F2E6
:1072A0001A60034691F8F721202A02F01F0238BF26
:1072B0005B460EFA02F21A6091F8F811202901F0EB
:1072C0001F0138BF58460EFA01F10160DDE91212C4
:1072D00037F81F3C17F81D0C109137F82B1C8DF850
:1072E0003E00ADF83C30DDE91D03CDE90A0304F1B1
:1072F0004003ADF83010DDE91A01D4F888E0DDE98B
:10730000209ACDE90701119237F8372C17F8450C70
:1073100037F8471C8DF81A000EF5F870ADF82420E8
:10732000ADF81810DDE9101207C30EF2F11204F1E6
:107330007003CDF838A09DF83E00BDF83C10CDF8A4
:107340003490A4F84D1084F84F00DDE90D0117F8D2
:10735000295C8DF83250C4E914200EF5F972A1654C
:107360009DF83200BDF83010A4F85D1084F85F007D
:10737000DDE90A0117F835AC8DF826A0C4E918201C
:10738000A1669DF82600BDF8241084F86F000EF267
:10739000F310A4F86D10DDE9071207C39DF81A0079
:1073A000BDF8181084F84CC084F85CC084F86CC038
:1073B00084F87CC084F87F00A4F87D10059904F15E
:1073C000400000F0A1FA002840F0678294F84C00D9
:1073D000032801BF94F84900032804F1480005F090
:1073E000FBFB94F85C00032801BF94F859000328C4
:1073F00004F1580005F0F0FB94F86C00032801BF7D
:1074000094F86900032804F1680005F0E5FB94F89E
:107410007C00032801BF94F87900032804F1780068
:1074200005F0DAFBD4F888104FF0010C4FF44173EB
:107430004FF4417091F8F421202A02F01F0238BF66
:1074400004230CFA02F24BF803204FF4417391F835
:10745000F521202A02F01F0238BF04230CFA02F2A1
:107460004BF803204FF4417391F8F621202A02F0E3
:107470001F0238BF04230CFA02F24BF803204FF42A
:10748000417391F8F721202A02F01F0238BF04232C
:107490000CFA02F24BF8032091F8F811202901F0C0
:1074A0001F0138BF04200CFA01F14BF80010B4465C
:1074B00000220120002113E00122D4F888304FF48B
:1074C00041760B44013193F8F431202B03F01F0374
:1074D00038BF0426052900FA03F34BF8063076D0AE
:1074E000D4F888305E464FF442750B4493F8F4317B
:1074F000202B03F01F0328BF06F5407600FA03F3A4
:107500003360D4E9223693F8F031202B38BF0825B8
:107510005BF8055003F01F03D2074FF0010225FA74
:1075200003F34FF4427503F001037354D4F88C3025
:1075300008BF5A5CD4F888600B4496F8F161202E9D
:1075400038BF08255BF8055006F01F06D20725FA5C
:1075500006F64FF4427506F001065E71D4F88C20F1
:1075600006BF53185B790123D4F888600A4496F863
:10757000F261202E38BF08255BF8055006F01F0683
:1075800025FA06F64FF4427506F001069672DA0700
:10759000D4F88C2006BF53189B7A0123D4F8886056
:1075A0000A4496F8F361202E38BF08255BF8055091
:1075B00006F01F0625FA06F606F00106D673DA076E
:1075C0007FF47AAFD4F88C200A44D27B75E7D4F8E4
:1075D0008800D10704D000216646C0E978110FE089
:1075E000D0F8E0016646C0070AD105F055FED4F890
:1075F00088204FF0000C0123C2E9783CC2E97A01EF
:107600000DF1480C01204FF0180800254FF000093B
:1076100084F8900007E006EB080008F1050806EB87
:10762000080A00F10109B9F1000F18BFD14533D1A3
:10763000B8F12C0F6BD006EB080008F1050806EB3B
:10764000080A00F10109122D2BD3D14507D009F109
:107650000100504510D001305045E2D118E0B8F19A
:107660002C0F54D006EB080908F1050806EB080AB0
:1076700009F101005045EED1B8F12C0F47D006EBCF
:10768000080008F1050806EB080A01305045C8D18A
:10769000B8F12C0FBFD13AE0484600F10109122D94
:1076A000D3D2E16805EB450251F8323001EBC2025A
:1076B000D90714D0D2E90201CDE912016046049243
:1076C00005F0ECFDD0F1A4000DF1480C4FF00002E4
:1076D00072EB01003CBF0498C0E9002203E001788E
:1076E000107C884201D101359DE7CDE9031205F0F8
:1076F000D3FD049B4FF0000E01220DF1480C013523
:10770000C3E902010398C3E9002E18748BE7E0680F
:10771000E169027C21F001011144E16190F8282027
:1077200021F0020162F34101E16190F8402021F073
:10773000040162F38201E16190F8582021F0080110
:1077400062F3C301E16190F8702021F0100162F34F
:107750000411E16190F8882021F0200162F34511C5
:10776000E16190F8A02021F0400162F38611E1610F
:1077700090F8B82021F0800162F3C711E16190F820
:10778000D02021F4807162F30821E16190F8E820B3
:1077900021F4007162F34921E16190F8002121F4A4
:1077A000806162F38A21E16190F8182121F400617F
:1077B00062F3CB21E16190F8302121F4805162F332
:1077C0000C31E16190F8482121F4005162F34D3110
:1077D000E16190F8602121F4804162F38E31E16132
:1077E00090F8782121F4004162F3CF31E16190F803
:1077F000902121F4803162F31041E16190F8A801F9
:1078000021F4003160F351412069E16102688A424C
:107810002CD001600423D4E90421A069098804F074
:1078200006FB022809D140F22D00C0F20000ADF89D
:10783000480012A805F0C4FE18E0CDE9120140F29C
:107840004700C0F20000ADF8800020A805F0A6FEB9
:1078500040F28800C0F20000ADF8800020A805F0DA
:1078600068FE12A804F014FD04F0A6FF12A801227D
:10787000002305F033FDDDE912019DF85020C4E935
:107880000E0184F84020059904F1380005F04CFD04
:1078900000283FF4B7AC052003E0032088F800007F
:1078A000042084F83400DDE90102B0FA80F04009D8
:1078B00010437FF4EBABD4F89810012901BFD4E951
:1078C00000230221C4F8981082F0010208BF52EA96
:1078D000030212D00121002013914FF26421C0F263
:1078E000020116901590042012914FF2CC211490B1
:1078F00012A8C0F2020105F046FF0022C4E90012FE
:1079000023B0BDE8000FF0BDF0B503AF2DE9000BCB
:107910000546044615F80C0F40F200798846C5F27A
:10792000000938B1032840F0DB80607A38B10328C1
:1079300017D094E020680021C4E9010100E06068EC
:1079400001784A460226202901F01F0128BF02F5CE
:10795000407252F8213066F3114342F8213000782A
:10796000207204F108064146304605F04BF980B11B
:107970002546032115F81C0F05F8101C05F8131CEB
:1079800050B1032840F0AC80607E50B103281AD07B
:1079900065E04FF0000898E020690021C4E9050186
:1079A00000E0606901784A460226202901F01F01A3
:1079B00028BF02F5407252F8213066F3114342F8B5
:1079C00021300078207604F118064146304605F053
:1079D00019F980B12546032115F82C0F05F8101C64
:1079E00005F8131C60B103287AD194F8290060B11E
:1079F00003281DD033E0A5F10C044FF0010864E02A
:107A0000206A0021C4E9090100E0606A01784A4661
:107A10000226202901F01F0128BF02F5407252F80A
:107A2000213066F3114342F82130007884F82800B1
:107A300004F128064146304605F0E4F8A8B1254691
:107A4000032115F83C0F05F8101C05F8131C88B12C
:107A5000032845D194F8390088B1032821D04FF28A
:107A60007C30C0F2020006F00FFFA5F10C044FF0CD
:107A700002082AE0206B0021C4E90D0100E0606BE0
:107A800001780223202901F01F0128BF09F5407960
:107A900059F8212063F3114249F82120007884F835
:107AA000380004F138064146304605F0ABF84FF097
:107AB000030840B184F83C80012084F839804146B5
:107AC000BDE8000BF0BDA5F10C04304605F084F8CC
:107AD00001206072287000204146BDE8000BF0BD17
:107AE0004FF28C30C0F2020006F0CEFE00220160A0
:107AF00080F82C2070470022C0F8601280F86B22BA
:107B0000704780B56F4682B0044600F0A6FD40B1D4
:107B10000146204600F0EFFE204600F071FF20BF36
:107B2000FAE740F24C00C0F2000027F8020CB81E41
:107B300005F034FD00F021FA04F03EFE05F06CFD86
:107B400000688C460068B0F5005F19DBB0F5405F57
:107B50003DDDB0F5485FC0F25080B0F54C5F80F27B
:107B60006D80A0F54850DFE810F006004F010201DB
:107B70002201BD008C014FF27F61C0F2020194E14D
:107B8000B0F5805F4CDA01304FF21E410722C0F29F
:107B90000201DFE810F015008B019700C7007700A5
:107BA0001C014601D7006E01870066016F007F004F
:107BB00031016800BF00600004014E019E01140104
:107BC0004FF225416046C0F2020106F092BBA0F5DB
:107BD0000050DFE810F00A003601D40004018F00E5
:107BE0005E016E0121017601AF004FF22751C0F214
:107BF00002011422604606F07CBB43F20101401AE8
:107C0000DFE810F006002701C500F20080004F01F8
:107C10004FF21361C0F202010D22604606F069BB0B
:107C200048D041F20101884240F094804FF2F34184
:107C3000C0F202012222604606F05BBB4AD0B0F5DA
:107C4000505F40F08F804FF22E711722C0F2020178
:107C5000604606F04EBB4FF2B841C0F20201092265
:107C6000604606F046BB4FF29E416046C0F20201FC
:107C700006F03FBB4FF28741C0F202010C22604682
:107C800006F037BB4EF6D071C0F202010822604602
:107C900006F02FBB4FF29341C0F202010B22604667
:107CA00006F027BB4FF26E41C0F202010C22604683
:107CB00006F01FBB4FF2DE411522C0F20201604602
:107CC00006F017BB4FF22C411122C0F202016046B0
:107CD00006F00FBB4FF216711822C0F20201604687
:107CE00006F007BB4FF2DC61C0F202011B226046C6
:107CF00006F0FFBA4FF28F51C0F202011322604624
:107D000006F0F7BA4FF25B610E22C0F20201604644
:107D100006F0EFBA4FF2A841C0F202010422604619
:107D200006F0E7BA4FF23D41C0F20201142260466C
:107D300006F0DFBA4FF20161C0F202011222604682
:107D400006F0D7BA4FF25641C0F202010C2260464B
:107D500006F0CFBA4FF21551C0F20201122260466E
:107D600006F0C7BA4FF24571C0F202019DE04FF232
:107D7000B461C0F202011422604606F0BABA4FF2B2
:107D80005751C0F202012222604606F0B2BA4FF209
:107D90003461C0F202011422604606F0AABA4FF222
:107DA000C141C0F202010B22604606F0A2BA4FF2B6
:107DB000C861C0F202011422604606F09ABA4FF27E
:107DC000D541C0F202010922604606F092BA4FF294
:107DD00051410522C0F20201604606F08ABA4FF214
:107DE0007951C0F2020160E04FF24861C0F2020135
:107DF0001322604606F07DBA4EF6D871C0F2020139
:107E00000822604606F075BA4FF29561C0F2020191
:107E10001F22604606F06DBA4FF2D751C0F2020140
:107E200043E04EF6B871C0F202010822604606F047
:107E300060BA4FF2AC41C0F202010422604606F083
:107E400058BA4FF23B511C22C0F20201604606F0C4
:107E500050BA4FF22061C0F202011422604606F0CF
:107E600048BA4FF27A41C0F202010D22604606F094
:107E700040BA4FF26241C0F202010C22604606F0A5
:107E800038BA4FF2F761C0F202011F22604606F0D5
:107E900030BA4FF2A251C0F202011B22604606F036
:107EA00028BA4FF26961C0F202011622604606F05C
:107EB00020BA4FF2BD511A22C0F20201604606F00C
:107EC00018BA4FF2ED51C0F202011422604606F0DA
:107ED00010BA4FF2CC41C0F202010922604606F00E
:107EE00008BAD0B502AF82B0044640F20600C0F234
:107EF000000027F80A0CA7F10A0005F01AFB20463B
:107F000005F017FB02B0D0BDD0B502AF82B0044679
:107F100040F28700C0F2000027F80A0CA7F10A001F
:107F200005F007FB204604F0D7F902B0D0BDD0B56C
:107F300002AF82B0044640F20700C0F2000027F80A
:107F40000A0CA7F10A0005F0F4FA204605F0C9FA78
:107F500002B0D0BDD0B502AF82B0044640F2860078
:107F6000C0F2000027F80A0CA7F10A0005F0E1FAB8
:107F7000204603F067FD02B0D0BD80B56F4682B0E9
:107F800040F27E00C0F2000027F8020CB81E05F097
:107F9000D0FA02B080BDD0B502AF82B0044640F244
:107FA0008900C0F2000027F80A0CA7F10A0005F0CA
:107FB000C0FA204604F06CF902B0D0BD80B56F461F
:107FC00082B040F20100C0F2000027F8020CB81E97
:107FD00005F0AFFA02B080BDF0B503AF2DE9000B9C
:107FE00084B0096848F6C030C2F2020004F092F989
:107FF0000020019001A84BDF03F0B8FCB8B10529BF
:1080000002BF04B0BDE8000BF0BD40F26C0002916D
:10801000C0F2000027F81A0CA7F11A0005F0BEFA0A
:1080200002A8FFF797FF04F0C7FB05F0F5FA40F24E
:108030001E0840F20709A7F11A0402AD01AEC0F212
:108040000008C0F2000907E003F001FC30464BDFF6
:1080500003F08CFC0028D2D101980290204627F82A
:108060001A8C05F09BFA204627F81A9C05F061FA55
:10807000284605F036FA04F09FFB0298011F0829F4
:1080800028BF0228E2D3DFD0032802D103F027FC67
:10809000DCE740F26B00C0F2000027F81A0CA7F1F1
:1080A0001A0005F07BFA02A8FFF741FF04F084FBF9
:1080B00005F0B2FAF0B503AF4DF804BDA4B00968FD
:1080C00048F6C830C2F2020004F024F9802601A864
:1080D00027F81A6CA7F11A0161DF03F047FC70B9A9
:1080E00001ACA7F11A05204603F036FF27F81A6CF9
:1080F0002946204661DF03F039FC0028F3D005292A
:108100001CBF43F20100814203D124B05DF804BBDF
:10811000F0BD0C290AD140F26D00C0F20000ADF8AC
:10812000880022A805F04CFA05F076FA40F26E00BD
:108130002291C0F2000027F8120CA7F1120005F0FE
:108140002DFA22A8FFF706FF04F036FB05F064FACB
:10815000F0B503AF2DE9000B16460C4603F01CFBEF
:10816000D4E9002831680026A568266022B3012AD8
:108170001CD1D1E900218D4208BF904539D0126849
:108180008146084690470246D4E9006CA068012366
:10819000012EC4E90032A16004BFDCF80C1088474E
:1081A000D8F80410284688470126484603F01FFBEC
:1081B0003046BDE8000BF0BDD1E900210546084678
:1081C00012689047D4E9003E0246D4F808C0012660
:1081D0002846012BC4E90062A160E7D1DEF80C104B
:1081E00060468847284603F002FB3046BDE8000B96
:1081F000F0BD0126266003F0FAFA3046BDE8000B18
:10820000F0BD80B56F4684B0B8688DF80A0001A84B
:108210000193ADF8082000F02CF840F27000C0F295
:10822000000027F8020CB81E05F0CAF905F0F4F9B1
:1082300080B56F4684B0D7E9041ED7E9020C0290DE
:1082400068468DF80E30ADF80C208DF80FE0CDE9C2
:1082500000C100F00BF840F27100C0F20000ADF870
:108260000000684605F0ACF905F0D6F90F3000F0D3
:1082700066B8F0B503AF4DF804BD86B0044640F2D1
:108280003600C0F20000ADF8040001A805F086F940
:1082900040F20500C0F20000ADF8040001A805F0AE
:1082A00048F94FF6F400C0F2020005F0B9F904F005
:1082B00083FA0634204600F040FE80B201281BD12C
:1082C0000020CDE903008DF80A004FF48570ADF869
:1082D000080001208DF8040088B201A9B0DF03F086
:1082E00045FB064620460D4600F09AFD012E08D0BB
:1082F00006B05DF804BBF0BD204600F091FD43F2EE
:10830000020540F237000195C0F2000027F8120C78
:10831000A7F1120005F042F940F28600C0F2000019
:1083200027F8120CA7F1120005F003F901A803F0D9
:1083300089FB04F041FA06B05DF804BBF0BDF0B56E
:1083400003AF4DF804BD86B0044640F23600C0F2DB
:108350000000ADF8040001A805F020F940F2050086
:10836000C0F20000ADF8040001A805F0E2F84FF6F5
:10837000F500C0F2020005F053F904F01DFA2046A2
:1083800000F0DBFD80B201281BD10020CDE9030005
:108390008DF80A004FF48570ADF8080002208DF8C2
:1083A000040088B201A9B0DF03F0E0FA06462046D7
:1083B0000D4600F035FD012E08D006B05DF804BB77
:1083C000F0BD204600F02CFD43F2020540F23700DC
:1083D0000195C0F2000027F8120CA7F1120005F079
:1083E000DDF840F28600C0F2000027F8120CA7F179
:1083F000120005F09EF801A803F024FB04F0DCF95C
:1084000006B05DF804BBF0BDF0B503AF4DF8048DC8
:1084100082B0044603F0C0F940F27806C2F20206C8
:10842000356805BB804640F28000C2F202004FF47E
:10843000004C50F80C2000F50041002A08BF02460D
:10844000D31D891A23F007039B1A03F150058D42AF
:108450002DD85119D51840F80C105021284606F097
:10846000CAFB4046356003F0C2F905F1080040F24E
:10847000011150E8002F92B940E80012002AF8D10B
:1084800046F28720C0F202002146686105F1200013
:10849000FFF72CFB284602B05DF8048BF0BDBFF35C
:1084A0002F8F0025284602B05DF8048BF0BD40F206
:1084B0004D00C0F2000027F8120CA7F1120005F0E1
:1084C0007FF805F0A9F8F0B503AF2DE9000B98B0DF
:1084D00004464FF6F800C0F202000D4602F004F820
:1084E000024613A80B46294601F0E3FBBDF84C00F9
:1084F000002846D1BDF84E004FF0012127F8620C4C
:108500000020CDF83B004FF00108ADF82C0003200F
:108510008DF826004FF07B3006904FF61810CDF8FE
:10852000361040F201214FF08079C0F202008DF840
:108530003A80ADF84310CDF83F9001F0D5FF0546E5
:10854000A7F11D000E4607F8198C47F81D9C01F095
:1085500067FDADF85800000C16A98DF85A0007A861
:10856000042206ABCDE90221049013A8A7F1620111
:10857000CDE900322A46334601F0BBFBBDF84C0082
:1085800038B1149860600120208018B0BDE8000B5D
:10859000F0BDBDF84E00BDF8521060800020A180F3
:1085A000208018B0BDE8000BF0BDD0B502AF84B09C
:1085B000D7E904CE9CB20A88A2421FD1BEF1040FB3
:1085C00028D204460020019004200DF1040C48F646
:1085D000CE11009002A81A46C2F20201634603F0CF
:1085E00000FC0298022820D10399052922D20429EF
:1085F00028D101992046002200230FE0BEF1000F90
:1086000014D04988A14211D19CF80010012301F037
:10861000010203E016D1DCF800100023D2B243EAD5
:108620000222C0E9002104B0D0BD20460221017021
:1086300004B0D0BD4FF638120846C0F20202042141
:1086400005F0B3FE40F26F00C0F20000ADF8080084
:1086500002A804F0B5FF04F0DFFFF0B503AF4DF85A
:10866000048D82B0044603F097F840F27C06C2F213
:10867000020635680DBB804640F28000C2F202005F
:108680004FF4004C50F80C2000F50041002A08BFC0
:108690000246D31D891A23F007039B1A03F5A5652B
:1086A0008D422ED85119D51840F80C104FF4A56101
:1086B000284606F0A0FA4046356003F098F805F128
:1086C000080040F2011150E8002F92B940E8001272
:1086D000002AF8D146F21530C0F202002146686146
:1086E00005F12000FFF707FA284602B05DF8048B79
:1086F000F0BDBFF32F8F0025284602B05DF8048B34
:10870000F0BD40F24D00C0F2000027F8120CA7F1B6
:10871000120004F055FF04F07FFF80B56F4600F0B3
:1087200000F880B56F4684B06C46204600F011F822
:108730002046FFF7E6F980B56F4682B040F20100AF
:10874000C0F2000027F8020CB81E04F0F2FE02B0DE
:1087500080BDD0B502AF82B0044604F019FEC00758
:108760001FBF00204FF0FF32C4E90002A0601EBF0F
:10877000217302B0D0BD40F24B00C0F2000027F8D8
:108780000A0CA7F10A0004F009FFFFF7D4FF04F078
:1087900013F804F041FF01464FF66C10C0F20200DE
:1087A000704780B56F4600F1080140F2011C51E8A6
:1087B000003F03EA0C02012A40F08A8043F48072F1
:1087C00041E80023002BF2D1D0F810C0DCF80020E3
:1087D000BFF35F8F06E00021BFF32F8FC907BFF300
:1087E0005F8F63D1C2605CE8003F93420ED1BFF35C
:1087F0005F8F4CE8000100294FF0000108BF4FF0E7
:10880000FF31C907BFF35F8F07D050E00021BFF3EE
:108810002F8FC907BFF35F8F49D1C3605CE8002F7A
:108820009A420ED1BFF35F8F4CE8000100294FF050
:10883000000108BF4FF0FF31C907BFF35F8F07D0BA
:1088400034E00021BFF32F8FC907BFF35F8F2DD115
:10885000C2605CE8003F93420ED1BFF35F8F4CE8EB
:10886000000100294FF0000108BF4FF0FF31C90798
:10887000BFF35F8F07D01AE00021BFF32F8FC90726
:10888000BFF35F8F13D1C3605CE8002F9A42A2D17F
:10889000BFF35F8F4CE8000100294FF0000108BFD3
:1088A0004FF0FF31C907BFF35F8F9BD01A46002AF4
:1088B00018BF80BDDCF80400411C1FBF80B24EF61B
:1088C0000071CEF20001086018BF80BD40BF80BDBE
:1088D000BFF32F8F80BD704780B56F464068411C45
:1088E0001FBF80B24EF60071CEF20001086018BFC3
:1088F00080BD40BF80BD80B56F4608610268BFF390
:108900005F8F06E00023BFF32F8FDB07BFF35F8F7E
:1089100065D1CA6050E800CF94450ED1BFF35F8F98
:1089200040E80013002B4FF0000308BF4FF0FF3367
:10893000DB07BFF35F8F07D052E00023BFF32F8F19
:10894000DB07BFF35F8F4BD1C1F80CC050E8002F9D
:1089500062450ED1BFF35F8F40E80013002B4FF04C
:10896000000308BF4FF0FF33DB07BFF35F8F07D073
:1089700035E00023BFF32F8FDB07BFF35F8F2ED1CE
:10898000CA6050E800CF94450ED1BFF35F8F40E836
:108990000013002B4FF0000308BF4FF0FF33DB073D
:1089A000BFF35F8F07D01BE00023BFF32F8FDB07E0
:1089B000BFF35F8F14D1C1F80CC050E8002F62459F
:1089C000A0D1BFF35F8F40E80013002B4FF00003EE
:1089D00008BF4FF0FF33DB07BFF35F8F99D06246CC
:1089E000002A18BF80BD4068411C1FBF80B24EF6F0
:1089F0000071CEF20001086018BF80BD40BF80BD8D
:108A0000F0B503AF2DE9000F81B08346007B48F637
:108A1000D9015A46C0F2020104F0BCFC00264FF016
:108A2000010A40F201190BF10800009008E00A4623
:108A30002B469BF80C0004F0AFFC002840F0788136
:108A400004F0A4FC009A1368002B00F09A80DDF873
:108A500000C006E003F1180CDCF80030002B00F039
:108A60009080D3E90025821A71EB0502F2D303F15D
:108A7000080252E8005F05EA0904012C76D145F4AA
:108A8000807542E80054002CF3D11D692C68BFF3B7
:108A90005F8F06E00022BFF32F8FD207BFF35F8FF7
:108AA00066D1DC6055E8002FA2420ED1BFF35F8F84
:108AB00045E80034002C4FF0000408BF4FF0FF34AD
:108AC000E407BFF35F8F07D052E00024BFF32F8F7E
:108AD000E407BFF35F8F4BD1DA6055E8004F944253
:108AE0000ED1BFF35F8F45E80032002A4FF000023D
:108AF00008BF4FF0FF32D207BFF35F8F07D037E0D8
:108B00000022BFF32F8FD207BFF35F8F30D1DC601D
:108B100055E8002FA2420ED1BFF35F8F45E8003425
:108B2000002C4FF0000408BF4FF0FF34E407BFF300
:108B30005F8F07D01CE00024BFF32F8FE407BFF343
:108B40005F8F15D1DA6055E8004F9442A2D1BFF390
:108B50005F8F45E80032002A4FF0000208BF4FF057
:108B6000FF32D207BFF35F8F9BD001E0BFF32F8F9F
:108B70009A69CCF800209E72DCF80030002B7FF45C
:108B800070AFBFF35F8F5BE8008F4BE80060002899
:108B9000F9D1B8F1000F4FF0FF3EBFF35F8F0ED158
:108BA00000984FF0FF324FF0FF33016800293FF487
:108BB00040AFDDF800C031E0B8F1000FF0D045461D
:108BC000D8F80C80C5E900EE287A6E720028F3D040
:108BD000696928468847D5E900014FF0FF3E81EAE0
:108BE0000E0180EA0E000843E6D005F10A00D0E845
:108BF0004F1FC0E842AF002AF9D10029DCD100990B
:108C00000868A8610D60D7E7A0690026CCF80000CD
:108C1000A672DCF8001000293FF40BAFD1E9004543
:108C200085EA0E0084EA0E063043161B73EB050638
:108C30004FF0000638BF0126002E04BF2B46224607
:108C400030B101F1180C0026DCF8001051B9F0E643
:108C500088690026CCF800008E72DCF8001000292C
:108C60003FF4E7AED1E9006080EA0E0586EA0E0423
:108C70002543941B73EB00044FF0000438BF01241C
:108C8000002C04BF0346324635B101F1180C002612
:108C9000DCF8004054B9CCE688690026CCF8000026
:108CA0008E72DCF80040002C3FF4C3AED4E900150E
:108CB00085EA0E0081EA0E063043561A73EB05066C
:108CC0004FF0000638BF0126002E1CBF1D4611467E
:108CD00030B104F1180C0026DCF8004054B9A6E6C7
:108CE000A0690026CCF80000A672DCF80040002C39
:108CF0003FF49DAED4E9002383EA0E0082EA0E061B
:108D000030438E1A75EB03064FF0000638BF01267C
:108D1000002E1CBF2B460A4600283FF475AF04F115
:108D2000180C0026DCF8001000297FF477AF80E6ED
:108D300001B0BDE8000FF0BDD0B502AF82B0D2F8EF
:108D400000E048F29773C0F20203DEF800C09C45D1
:108D500001BFDEF8043048F2A37CC0F2020C634588
:108D60000BD1DEF80830634501BFDEF80CC048F6D1
:108D7000D703C0F202039C450BD040F24A00C0F278
:108D8000000027F80A0CA7F10A0004F019FC04F00F
:108D900043FCD2F804C00022DCE9003E1C1A7EEB42
:108DA000010438BF0122002A1CBF18467146CCE9D5
:108DB000000102B0D0BD006804F085BC80B56F46EC
:108DC00082B048F2840172B6C2F202010A78EAB9AE
:108DD00001220A70009040F24E00C0F20000ADF88F
:108DE000040001A804F0DAFB40F20200C0F2000027
:108DF00027F8020CB81E04F09CFB4FF67C11684665
:108E0000C0F2020104F0A1FB03F0D6FC4EF62450A0
:108E1000CEF20000016821F48021016000DEFEDE58
:108E2000B0B502AF84B00178132955D848F2880252
:108E30007423C2F2020211FB032595F86910002980
:108E400052D0013985F86910090601D004B0B0BDCF
:108E500004462878012825D140F20D00C0F2000018
:108E600027F8160CA7F1160004F098FB40F2050055
:108E7000C0F2000027F80E0CA7F10E0004F059FB19
:108E8000204604F0CDFB03F097FC95F8660000281F
:108E9000DCD16888132176DF88BB012085F8660065
:108EA00004B0B0BD40F20E00C0F2000027F8120C72
:108EB000A7F1120004F072FB40F20500C0F20000BE
:108EC000ADF80C0003A804F034FB204604F0A8FB26
:108ED00003F072FC04B0B0BD4FF6FC120846C0F2BD
:108EE0000202142104F08AFC40F25300C0F2000098
:108EF000ADF80000684604F063FB04F08DFB082821
:108F000010D140F25400C0F20000ADF8040001A8F6
:108F100004F044FBA7F1090002F0AFFB03F04CFCA6
:108F200004F07AFB40F24F00C0F20000ADF80800F8
:108F300002A804F045FB04F06FFB007814283FBF43
:108F4000742100FB01F248F28803C2F202033FBF22
:108F500010FB01309A5C418802F0010038BF704775
:108F600080B56F464FF6FC121421C0F2020204F0E5
:108F700045FC80B56F4682B083B2142B26D248F6EA
:108F80009812C2F2020212F81300012811D102EB6A
:108F900043014978132921D848F288027423C2F288
:108FA000020211FB032212F8693FFF2B03D00133A9
:108FB000137002B080BD40F25500C0F2000027F8E7
:108FC000020CB81E04F0FCFA04F026FB4FF60C224B
:108FD0001846C0F20202142104F010FC4FF6FC12F5
:108FE0000846C0F20202142104F008FCF0B503AFF9
:108FF0002DE9000B82B048F288058146C2F20205D5
:10900000164695F869008846002804BF287800288D
:1090100000F0918095F8DD0028B9284610F8741FFB
:10902000012940F0858095F8510128B9284610F8AB
:10903000E81F012940F0818095F8C50118B995F81D
:109040005C0101287CD195F8390218B995F8D00156
:10905000012879D195F8AD0218B995F84402012894
:1090600076D195F8210318B995F8B802012873D183
:1090700095F8950318B995F82C03012870D195F847
:10908000090418B995F8A00301286DD195F87D045D
:1090900018B995F8140401286AD195F8F10418B9A3
:1090A00095F88804012867D195F8650518B995F8F1
:1090B000FC04012864D195F8D90518B995F8700514
:1090C000012861D195F84D0618B995F8E4050128F5
:1090D0005ED195F8C10618B995F8580601285BD1FC
:1090E00095F8350718B995F8CC06012858D195F8A8
:1090F000A90718B995F84007012855D195F81D081A
:1091000018B995F8B407012852D195F8910818B903
:1091100095F8280801284FD195F8050918B995F850
:109120009C0801284CD1012002B0BDE8000BF0BD25
:109130000124054647E0002445E00224054642E0BC
:1091400005F5AE7503243EE005F5E87504243AE024
:1091500005F51175052436E005F52E75062432E077
:1091600005F54B7507242EE005F5687508242AE0FF
:1091700005F21445092426E005F591650A2422E04C
:1091800005F2FC450B241EE005F5AE650C241AE043
:1091900005F2E4550D2416E005F5CB650E2412E02A
:1091A00005F2CC650F240EE005F5E86510240AE011
:1091B00005F2B475112406E005F62805122402E034
:1091C00005F69C051324596801221868A5F8029039
:1091D000C5E9010105F10C0058212A7007F81F4C60
:1091E00005F06CFD40F201123068A5F868200022FD
:1091F00085F866201722A5F864201B22C5F86A00AE
:109200001FFA89F0D6F80310142885F8678085F8CE
:109210007120C5F86D102CD248F69811C2F20201E7
:1092200011F81020012A2BD001EB400001214470DD
:10923000017040F20F00C0F20000ADF8040001A878
:1092400004F0ACF940F20500C0F2000027F81A0C57
:10925000A7F11A0004F06DF9A7F11F0004F0E0F97E
:1092600003F0AAFA17F81F1C002002B0BDE8000B9B
:10927000F0BD4FF60C221421C0F2020204F0BEFA37
:1092800040F25600C0F2000027F81E0CA7F11E00A5
:1092900004F096F904F0C0F9007814283FBF48F2B2
:1092A0008801C2F20201742210FB02103CBFD0E917
:1092B0000301704780B56F464FF6FC121421C0F2CF
:1092C000020204F09BFAF0B503AF2DE9000B84B065
:1092D00004460878142880F09E807421134600FB11
:1092E00001F648F28802C2F20202965DF60778D0D3
:1092F00010FB01200021E846ADF804100091424621
:109300001946408890DF002871D002F013FD054611
:10931000029040F23100C0F2000027F81A0CA7F1C9
:109320001A0004F03BF940F28600C0F2000027F872
:109330001A0CA7F11A0004F0FCF802A802F082FB54
:1093400003F03AFABDF8021040F20609BDF8000039
:10935000C0F2000989B208431FD040F2320008F180
:109360000206C0F2000027F81A0CA7F11A0004F058
:1093700015F9A7F11A0027F81A9C04F0DAF86846E4
:1093800004F0D7F8A7F11A0027F81A9C04F0D1F8D6
:10939000304604F0CEF803F00FFABDF80400B0B187
:1093A00040F2330008F10406C0F2000027F81A0C5E
:1093B000A7F11A0004F0F2F8A7F11A0027F81A9C96
:1093C00004F0B7F8304604F0B4F803F0F5F9132DC3
:1093D00013D0062D17D1DDF802500120BDF8001082
:1093E00012E00020208004B0BDE8000BF0BD042096
:1093F000208004B0BDE8000BF0BDDDF80250022073
:10940000BDF8001000E0032065606180208004B09A
:10941000BDE8000BF0BD4FF6FC121421C0F20202B1
:1094200004F0ECF9D0B502AF84B0024600781328FE
:1094300052D848F288017423C2F2020110FB0310D3
:1094400090F8671000294ED10178C90709D0C1688A
:10945000448851B10069036C02A898479DF80C003C
:109460000DE00020214604B0D0BD102100208DF871
:109470000A104FF4E661ADF80B00ADF80810029940
:109480008DF80C002046029102A97EDF00B302F0A5
:1094900051FC0446019040F23400C0F2000027F86D
:1094A0000A0CA7F10A0004F079F840F28600C0F235
:1094B000000027F80A0CA7F10A0004F03AF801A806
:1094C00002F0C0FA03F078F90120214604B0D0BDC3
:1094D0000220214604B0D0BD4FF6FC121421C0F288
:1094E000020204F08BF940F25700C0F2000027F8A6
:1094F0000A0CA7F10A0004F063F804F08DF8F0B547
:1095000003AF2DE9000796B002460078132800F259
:109510007F80742148F2880300FB01F5C2F2020348
:109520005D5DED075CD010FB0130C16800295DD0A6
:10953000B0F802800DF138090069436B484698473E
:10954000BDF83800002857D009F10C0309ACDDE95B
:109550000FCABDF83AE0264627CB27C618883080C8
:1095600068466CCC01466CC122880A804A46CDF818
:1095700016C0ADF814E0CDF81AA0DDF814C00699B5
:1095800078C878C2007810704FEA1A40ADF82C0005
:109590004A46CDE909C109A9404685DF90B302F0EA
:1095A000C9FB0446089040F23500C0F20000ADF857
:1095B0000000684603F0F2FF40F28600C0F20000AF
:1095C000ADF80000684603F0B4FF08A802F03AFACC
:1095D00003F0F2F80320214616B0BDE80007F0BD05
:1095E0000020214616B0BDE80007F0BD012021464D
:1095F00016B0BDE80007F0BD0220214616B0BDE858
:109600000007F0BD0420214616B0BDE80007F0BDFC
:109610004FF6FC121421C0F2020204F0EFF8D0B5AC
:1096200002AF82B080B2142863D248F6981EC2F20C
:10963000020E1EF81030002B62D00EEB4000407876
:10964000132869D848F2880C7423C2F2020C10FB6C
:1096500003C4E06898B3138809782269022915D0F9
:1096600001292CD1142B5ED21EF81310012926D10A
:109670000EEB4301497813295DD8742311FB03C312
:1096800013F8694FFF2C1DD0126A12E0142B4AD236
:109690001EF81310012912D10EEB4301497813294A
:1096A00049D8742311FB03C313F8694FFF2C14D05E
:1096B000526A01341C709047012002B0D0BD0020D6
:1096C00002B0D0BD40F25500C0F20000ADF8040079
:1096D00001A803F075FF03F09FFF40F25500C0F2B0
:1096E000000027F80A0CA7F10A0003F069FF03F055
:1096F00093FF4FF60C221421C0F2020204F07EF810
:1097000040F25800C0F2000027F80E0CA7F10E003E
:1097100003F056FF03F080FF4FF6FC121421C0F255
:10972000020204F06BF84FF60C221846C0F2020257
:10973000142104F063F84FF6FC120846C0F202024E
:10974000142104F05BF8F0B503AF2DE9000B8AB0EB
:1097500080B2142880F0248148F69812C2F20202E6
:1097600012F81030002B00F0228102EB400040780C
:10977000132800F20E81742648F2880300FB06F5D8
:10978000C2F202035D5DED0700F01C8110FB0634A0
:109790006588142D80F0218112F81500002800F052
:1097A000248102EB4506D1F80080E168707807F863
:1097B0003D0CD1B1132800F2EC80742210FB023270
:1097C00012F8693FFF2B00F0D980D4F810C00133A4
:1097D00013700DF110098DF810000846DCF83820E0
:1097E000494690474846FFF71BFB002001AA30700E
:1097F000B8F8001002924FF2B042C0F202021129F2
:109800000191049240F0FC8098F80810207061707B
:1098100002F075FD00287AD005EB450548F6D41016
:10982000C2F2020000EB85042068002840F0A0800E
:109830004FF0FF302246206052F8040F50B1A1686B
:109840000B694146984720680130206002F057FDBF
:1098500030B95CE00020206002F051FD002856D0B5
:1098600048F6C420C2F2020000EB850420680028FC
:109870007ED14FF0FF302246206052F8040F50B1E5
:10988000A1680B694146984720680130206002F0CA
:1098900036FD28B93BE00020206002F030FDB0B377
:1098A00048F6F430C2F2020000EB8504206800287C
:1098B0005ED14FF0FF302246206052F8040F00B313
:1098C000A1680B694146984720680130206002F08A
:1098D00016FDE0B148F6E440C2F2020000EB850458
:1098E0002068002844D14FF0FF302246206052F813
:1098F000040FF8B1A1680B69414698472068013010
:1099000019E00020206002F0FAFC0028E2D10121D9
:10991000002005914FF62431C0F202010890079013
:10992000042004914FF69C31069004A8C0F2020175
:1099300003F029FF0020206040F20C00C0F200007C
:10994000ADF8100004A803F029FE40F20500C0F2B3
:109950000000ADF8100004A803F0EBFDA7F13D00F6
:1099600003F05EFE02F028FF0AB0BDE8000BF0BD78
:109970004FF61840C0F2020003F06FFE40F25500AF
:10998000C0F20000ADF8100004A803F019FE03F0C7
:1099900043FE4FF6FC121421C0F2020203F02EFF28
:1099A0004FF60C221421C0F2020203F027FF40F20E
:1099B0005800C0F20000ADF8100004A803F000FE4B
:1099C00003F02AFE40F25000C0F20000ADF8100093
:1099D00004A803F0F5FD03F01FFE4FF60C22284605
:1099E000C0F20202142103F009FF40F25100C0F25C
:1099F0000000ADF8100004A803F0E2FD03F00CFE37
:109A000040F25200C0F2000027F8320CA7F13200F9
:109A100003F0C4FD02A801F03EFE04A801F03BFEE5
:109A200002F0CAFE03F0F8FD80B56F4682B080B246
:109A300014281FD248F69812C2F2020212F810300F
:109A4000FBB102EB4000407814283FBF48F2880287
:109A5000C2F20202742310FB03203FBF0988A0F862
:109A6000641002B080BD4FF6FC121421C0F2020255
:109A700003F0C4FE4FF60C221421C0F2020203F0E0
:109A8000BDFE40F25800C0F2000027F8020CB81EDC
:109A900003F096FD03F0C0FDF0B503AF4DF8048D63
:109AA0008AB0C0B213284FD848F288037426C2F295
:109AB000020310FB0635EC68002C41D04879D5F83C
:109AC0001080800714D440F22C001646C0F200002B
:109AD000ADF8040001A803F073FD00233246D5F869
:109AE0006A00D5F86D10CDE90133CDE903330AE002
:109AF000E86DD5F85F10D5E913CED5E91536CDE977
:109B00000336CDE901CE0590A7F11A0C95F8670050
:109B1000CDF817103021002818BF14216B18D8F881
:109B20002C50D3E9050147F8180C01A85E8A47F8C4
:109B3000141C114600902046624627F81A6CA8476C
:109B40000AB05DF8048BF0BD4FF6FC121421C0F290
:109B5000020203F053FEF0B503AF4DF804BD8CB024
:109B600003788E46427ED1F804C0002B0D884E88C3
:109B70004FF0000100918DF80020BEF80A20047E0D
:109B8000ADF815204FF001020491CDE902118DF8D6
:109B9000014018BF431C0193012E98BF16469EF842
:109BA0000930002D08BF2E469EF80840012BADF865
:109BB0000C6088BF1A46002C08BF22468DF80E2084
:109BC000827E9EF80C3002F00F028DF8172082681A
:109BD000CDF808C08DF8143022B1C1684FF6FF737C
:109BE000994206D203697BB140694FF6FF76B042D5
:109BF0000BD340F25900C0F20000ADF828000AA8CB
:109C000003F0DEFC03F008FD002040F20004ADF894
:109C10001C10C2F20204ADF82400069206A90893B3
:109C20006A46204672DF40B102F084F804460A908A
:109C300040F23800C0F200001AE09EF90D20012029
:109C4000217877DF40B102F075F804460A9040F2BF
:109C50003900C0F200000BE02078012173DF10B35F
:109C600002F068F804460A9040F23A00C0F20000A0
:109C700027F8120CA7F1120003F090FC40F28600C6
:109C8000C0F2000027F8120CA7F1120003F051FCFB
:109C90000AA801F0D7FE02F08FFD022021460CB089
:109CA0005DF804BBF0BD032021460CB05DF804BB99
:109CB000F0BDD0B502AF82B00446002027F80E2CCC
:109CC000A7F10E0127F80A0CA7F10A0207F80C3CCD
:109CD0000120A8DF30B102F02DF860600120208063
:109CE00002B0D0BD37F80A0C60800020208002B09E
:109CF000D0BDF0B503AF2DE9000F9DB08946804679
:109D0000D7E9031080B207F8703C884227F8722C1C
:109D1000C0F07081BB69D3E9001093F80AA01A89DA
:109D2000BAF1030F0690CDE9042121D193F8224026
:109D300093F81BB093F81AC0002C1D7F93F82120D4
:109D400093F81DE09E7FD97F93F8200018BF42F062
:109D5000020202924CEA4B0242EA850242EACE0239
:109D600042EA061242EA411141EA8010019026E0DF
:109D7000904200F24A8193F81BE093F8225093F846
:109D80001AC093F81CB0002D5E7F4CEA4E0593F884
:109D900021209C7FD87F93F8201018BF42F0020248
:109DA000029245EA8B0242EAC602BAF1020F42EA87
:109DB000041242EA401040EA8110019017D10025B8
:109DC000188A07F86E5C00283ED0D3F81200D3F84A
:109DD0001610C1EA004247F8682C4FF6FF72904314
:109DE000C1F307410122084447F8640C2DE0D3F881
:109DF0000B00F0214FF61C264FF6232CC0F2020672
:109E0000C0F2020C020601EA10114FEA206240F390
:109E100007404FF00A04B55C1CF80220365C08BF0E
:109E200002241CF800005444214407F86B1C42EA49
:109E300005013043012540EA012027F86D0C188AFE
:109E400007F86E5C0028C0D1002293F82310D34697
:109E5000CA4627F86A2C0229CDF80C8033D14FF07E
:109E6000000C93F828108DF830C002295DD0D3F88B
:109E700029004FF61C2E4FF62328F023C0F2020EC5
:109E8000C0F20208060603EA10194FEA206640F302
:109E900007401EF806404FF00A0318F806601EF847
:109EA00000E008BF022318F80000194449448DF867
:109EB000371046EA040140EA0E0040EA0120012181
:109EC000ADF8350032E0586A4FF61C2C4FF62328C7
:109ED000F026C0F2020CC0F20208040606EA101EC8
:109EE0004FEA206440F307401CF804604FF00A0971
:109EF00018F804401CF800C008BF4FF0020918F819
:109F00000000494471448DF8331044EA060140EAE8
:109F10000C004FF0010C40EA0120ADF8310093F83D
:109F200028108DF830C00229A1D100210698BBF17C
:109F3000030FDDE904644FF000038DF8341002BF15
:109F4000002000260024ADF84200002902988DF878
:109F5000390001988DF838000DA8ADF840600F94D5
:109F600018BF411C0CA81491BCF1000F18BF00F1E0
:109F7000010CA7F16E00CDF84CC0002D18BF451C98
:109F8000A7F16A001295002A18BF821C38690EA931
:109F9000ADF86000F868D7F814E0D7F80880ADF89D
:109FA0005C00A7F17200119215AA1590CDF864809B
:109FB000ADF85E30CDE91A331AABCDF858E0BAF8F7
:109FC0000000AADF48B101F0B5FE039A50600120FD
:109FD00010801DB0BDE8000FF0BD039ADDE91A0145
:109FE000C2F802000020C2F8061010801DB0BDE8C3
:109FF000000FF0BD40F25B00C0F20000ADF8380089
:10A000000EA803F0DDFA03F007FB40F25C00C0F29B
:10A010000000ADF838000EA803F0D2FA03F0FCFA05
:10A02000B0B502AF42784FF61C2390F800C04FF64F
:10A03000232590F802E0C0F20203C178C0F20205C5
:10A040000079002A5C5C1B5C285C695C40EA0300C8
:10A0500041EA040141EA00204FF00A0108BF022151
:10A06000614441EA0E1140EA0140B0BD80B56F463F
:10A0700084B001288DE8070009D041F2010188422F
:10A0800015D10ABB40F25E00C0F2000003E040F2CE
:10A090005D00C0F2000027F8020CB81E03F07EFA43
:10A0A00001A801F00BFB02F087FB03F0B5FA40F2C8
:10A0B0006000C0F2000027F8020CB81E03F06EFA30
:10A0C000684601F0FBFA08E040F25F00C0F20000D1
:10A0D00027F8020CB81E03F061FA01A801F0EEFAAD
:10A0E00002A801F0EBFA02F067FB03F095FAF0B575
:10A0F00003AF2DE9000F87B048F6CC140546C2F235
:10A100000204D4E84F0F48B90120BFF35F8FC4E8C1
:10A11000410F91B1D4E84F1F0029F8D040F26200FE
:10A12000BFF32F8FBFF35F8FC0F20000ADF80400C4
:10A1300001A803F045FA03F06FFABFF35F8F4AF20C
:10A140006D0195F83E00C0F20201002818BF05F12C
:10A150003F0010DF002840F08881A88B40F2000803
:10A16000A97FC2F2020800282A8C4FF0010008BF24
:10A170000322ADF8082008BF01218DF8040020203B
:10A180008DF8061001A90490424669DF20B101F064
:10A19000D1FD042840F05481B5F81890B9F1000FB2
:10A1A00016D0688B40F20002CDF806000120002195
:10A1B0008DF804002320CDF80A100490C2F20202A8
:10A1C00001A969DF20B101F0B5FD042840F0388114
:10A1D00095F82C00012814D195F82D0040F20002CA
:10A1E0008DF8060001208DF8040021200490C2F2B1
:10A1F000020201A969DF20B101F09CFD042840F0B2
:10A200001F8195F82E00012814D195F82F0040F2F7
:10A2100000028DF8060001208DF804002220049031
:10A22000C2F2020201A969DF20B101F083FD042816
:10A2300040F00681B5F822A0BAF1010F16D1D5E998
:10A24000090140F20002CDF8060001208DF804005B
:10A250002420CDF80A10C2F20202049001A969DF9D
:10A2600020B101F067FD042840F0EA8095F8300045
:10A27000012811D195F8310040F200028DF8040058
:10A2800001200490C2F2020201A969DF20B101F0AD
:10A2900051FD042840F0D48095F83200012814D1F3
:10A2A00095F8370040F20002D5F83310C2F20202EE
:10A2B0008DF808004020019101A9049069DF20B1C8
:10A2C00001F038FD042840F0BB802868012811D136
:10A2D0002A1D01AB07CA07C340F2000241200490C7
:10A2E000C2F2020201A969DF20B101F023FD0428B6
:10A2F00040F0A68095F83800012811D195F8390072
:10A3000040F200028DF8040042200490C2F20202E2
:10A3100001A969DF20B101F00DFD042840F0908013
:10A3200095F83A00012811D195F83B0040F200025F
:10A330008DF8040043200490C2F2020201A969DFF3
:10A3400020B101F0F7FC042840F07A8095F83C0039
:10A35000012810D195F83D0040F200028DF804006C
:10A36000A0200490C2F2020201A969DF18B101F035
:10A37000E1FC042864D1286901280ED1686940F203
:10A3800000020190A1200490C2F2020201A969DF3B
:10A3900018B101F0CFFC042852D1CDF8148005A8E3
:10A3A00060DF0646059800F16040019040F2300001
:10A3B000C0F20000ADF8100004A803F0EFF840F27E
:10A3C000070B04A8C0F2000BADF810B003F0B1F811
:10A3D00001A803F086F802F0EFF9002E50D105989D
:10A3E000404512D240F23C00C0F20000ADF804003B
:10A3F00001A803F0D3F801A8ADF804B003F099F870
:10A4000005A803F06EF802F0D7F94EF200104FF4F1
:10A410008001CEF20000BAF1000F01604FF017008A
:10A42000A98C6A8B08BF0146B9F1000F08BF02462C
:10A4300024F8022F6180204607B0BDE8000FF0BD70
:10A44000059040F26100C0F2000027F81E0CA7F151
:10A450001E0003F0A3F804A801F030F905A801F0EC
:10A4600067F902F0A9F903F0D7F801F063FC019055
:10A4700040F26300C0F20000ADF8140005A81FE030
:10A48000304601F057FC042812D10598404520D9E8
:10A4900040F26500C0F20000ADF8040001A803F02E
:10A4A0007DF805A801F00AF902F086F903F0B4F886
:10A4B000019040F26600C0F20000ADF8100004A860
:10A4C00003F06CF801A801F033F902F075F903F01C
:10A4D000A3F840F26400C0F20000ADF8040001A847
:10A4E00003F06EF803F098F880B56F4684B08646A6
:10A4F000002007F8090CA7F10901704662DF002867
:10A5000001BF17F8091CBEF80C0004B080BD01F0B3
:10A5100011FC029040F26700C0F2000027F8020C24
:10A52000B81E03F03BF802A801F002F902F044F96A
:10A5300003F072F880B56F4682B007F8030CC0B222
:10A54000012814D0022802BF002002B080BD40F2D2
:10A550006800C0F2000027F8020CB81E03F01EF8D5
:10A56000F81E01F006F902F027F903F055F8012072
:10A5700002B080BDD0B502AF82B001784C08C907E7
:10A5800026D1042C66D2B0F80510D0F80100009056
:10A5900040F28300C0F20000ADF8041027F80A0C66
:10A5A000A7F10A0002F0C5FF40F28400C0F20000EB
:10A5B00027F80A0CA7F10A0002F0BBFF032C3DD8D4
:10A5C0004FF62A20C0F20200DFE804F03C292E33C7
:10A5D000042C43D2B0F80510D0F80100009040F2EE
:10A5E0008200C0F20000ADF8041027F80A0CA7F1B1
:10A5F0000A0002F09EFF40F28400C0F2000027F83B
:10A600000A0CA7F10A0002F094FF032C16D84FF6AB
:10A610002A20C0F20200DFE804F01502070C4FF612
:10A620002B20C0F202000DE04FF62C20C0F20200F9
:10A6300008E04FF62D20C0F2020003E04FF62E2076
:10A64000C0F2020002F0ECFF6846062102F061FF52
:10A6500002B0D0BD7F2C3FF496AF01E07F2CB9D083
:10A6600040F26900C0F20000ADF80000684602F058
:10A6700095FFA7F10A0001F06EF802F09DF802F0D4
:10A68000CBFF02784FF62A204FF62B21C0F20200B2
:10A69000C0F20201002A18BF084602F0C1BFD4D49C
:10A6A000F0B503AF2DE9000792B00546044635F832
:10A6B000040B00941038162800F2CA86DFE810F068
:10A6C000170005028F03D702BF002202C806ED0360
:10A6D000C8062A0475053D05C806B4006202B80123
:10A6E000C8065E009304D1040A06C806DD0540F2E0
:10A6F0002800C0F20000ADF8100004A802F04EFFE0
:10A7000040F2060604A8C0F20006ADF8106002F0A0
:10A7100010FF04F1160002F00CFF04A8ADF8106061
:10A7200002F007FF04F1120002F003FF04A8ADF8E5
:10A73000106002F0FEFE04F1100002F0FAFE04A820
:10A74000ADF8106002F0F5FE04F1140002F0F1FE25
:10A7500002F032F8E07B8DF83800012800F0168610
:10A76000022840F03D8701F0CAFD002800F0F08685
:10A7700048F6DC36C2F2020600F011BE2089ADF8C0
:10A78000300040F21400C0F20000A188ADF81000C3
:10A7900004A827F85A1C02F001FF40F20600C0F29C
:10A7A0000000ADF8100004A802F0C3FEA7F15A00A3
:10A7B00002F0BFFE40F2050504A8C0F20005ADF8A6
:10A7C000105002F0B6FE0CAC601C02F029FF04A889
:10A7D000ADF8105002F0ADFE204602F021FF01F06E
:10A7E000EBFFBDF83010ADF8081002A937F85A0C8D
:10A7F0008FDF002800F02C8601F09CFA049040F2D4
:10A800003E00C0F20000ADF838000EA802F0C6FE0F
:10A8100040F28600C0F20000ADF838000EA802F049
:10A8200088FE04A800F00CBE40F21300C0F2000045
:10A83000ADF8100004A802F0C3FE00F0A9BCA07E91
:10A8400000F0010107F8291CC0F34001C0F38000AB
:10A850008DF83000207A8DF8341000F001018DF869
:10A86000081040088DF8380040F21A00C0F20000CD
:10A87000ADF8100004A802F091FE40F2050604A80D
:10A88000C0F20006ADF8106002F053FEA7F12900F7
:10A8900002F0C6FE04A8ADF8106002F04AFE0DA852
:10A8A00002F0BEFE04A8ADF8106002F042FE0CA853
:10A8B00002F0B6FE40F20600C0F20000ADF8100053
:10A8C00004A802F036FE04F11008404602F031FE02
:10A8D00040F20400C0F20000ADF8100004A802F03D
:10A8E00028FE04A8ADF8106002F023FE04F1120A5D
:10A8F000504602F095FE04F1130002F091FE04F1BF
:10A90000140002F08DFE04F1150002F089FE04F13E
:10A91000160002F085FE04F1170002F081FE04F13A
:10A92000180002F07DFE04F1190002F079FE40F2F9
:10A930000300C0F20000ADF8100004A802F0F9FD19
:10A9400004A8ADF8106002F0F4FD04F1090002F073
:10A9500067FE04F10A0002F063FE04F10B0002F04E
:10A960005FFE04F10C0002F05BFE04F10D0002F04A
:10A9700057FE04F10E0002F053FE04A8ADF810607B
:10A9800002F0D7FD02A802F04BFE0DF11009ADF860
:10A990001060484602F0CDFD0EA802F041FE01F025
:10A9A0000BFFA088142880F0F78548F69811C2F2B2
:10A9B000020111F81020012A40F0068501EB400049
:10A9C0004078132800F2EF8548F288017422C2F221
:10A9D000020110FB0212114611F8693FFF2B00F033
:10A9E000D08501330B70D168DAF80030DAF8044012
:10A9F0000029B8F800608DF8080000F0FF841069A5
:10AA0000CDF83E40ADF8386002AE046B4846CDF854
:10AA10003A300EAB3246A04730469DF81040FEF764
:10AA2000FFF914F0010118BF09F1010100F0EDBCBC
:10AA3000D4E90201CDE9040140F22A00C0F200008D
:10AA4000B4F80480ADF838000EA802F0A7FD40F27B
:10AA500006060EA8C0F20006ADF8386002F069FDE7
:10AA6000284602F066FD0EA8ADF8386002F061FDE0
:10AA700004ACA01D02F05DFD0EA8ADF8386002F038
:10AA800058FDA01C02F055FD0EA8ADF8386002F08C
:10AA900050FD204602F04DFD0EA8ADF8386002F0E2
:10AAA00048FD201D02F045FD01F086FE404621468E
:10AAB00075DF002800F0CC8401F03CF90E9040F2E4
:10AAC0003D00C0F2000000F0ACBC40F21000C0F24B
:10AAD0000000ADF8100004A802F060FD40F206008E
:10AAE000C0F20000ADF8100004A802F022FD2846D4
:10AAF00002F01FFD01F060FE28886946FEF723FE84
:10AB000000F0A6BC40F21800C0F20000ADF8100042
:10AB100004A802F043FD40F20900C0F20000ADF8C5
:10AB2000100004A802F005FD04F1080506212846DE
:10AB300002F0EFFC01F040FEA088142880F02C8584
:10AB400048F69811C2F2020111F81020002A00F014
:10AB50003C8501EB40004078132800F2248548F240
:10AB600088017422C2F2020110FB0211C868002899
:10AB700000F06E840969CA692946904712B0BDE8A1
:10AB80000007F0BD207A00F001018DF83410C0F309
:10AB900040018DF83010C0F38001C0F3C0008DF883
:10ABA000380040F21D00C0F200008DF80810ADF82A
:10ABB000100004A802F0F2FC40F2050504A8C0F25F
:10ABC0000005ADF8105002F0B4FC0DA802F028FD0D
:10ABD00004A8ADF8105002F0ACFC0CA802F020FD67
:10ABE00004A8ADF8105002F0A4FC02A802F018FD71
:10ABF00004A8ADF8105002F09CFC0EA802F010FD65
:10AC000001F0DAFDA088142880F0C68448F6981177
:10AC1000C2F2020111F81020012A40F0198401EB60
:10AC200040004078132800F2BE8448F28801742264
:10AC3000C2F2020110FB021111F8692FFF2A00F085
:10AC4000A0848DF8080002A801320A70FEF757FCB4
:10AC5000DFE810F02104050005002004310402A8FB
:10AC6000FEF7E0FB022840F0168400F024BCA16847
:10AC7000207B8DF80C0001F0010007F8520CC1F3A5
:10AC8000021007F8510CC1F3C00007F8290CC1F3FA
:10AC900080008DF83400C1F340008DF83000C8B258
:10ACA000C00902918DF8380040F21700C0F2000090
:10ACB000ADF8100004A802F071FC40F20600C0F2EA
:10ACC0000000ADF8100004A802F033FC284602F0A2
:10ACD00030FC40F2050604A8C0F20006ADF8106092
:10ACE00002F027FCA7F1520002F09AFC04A8ADF88C
:10ACF000106002F01EFCA7F1510002F091FC04A8C4
:10AD0000ADF8106002F015FCA7F1290002F088FCF4
:10AD100004A8ADF8106002F00CFC0DA802F080FC55
:10AD200004A8ADF8106002F004FC0CA802F078FC56
:10AD300004A8ADF8106002F0FCFB0DF138084046A5
:10AD400002F06EFC04A8ADF8106002F0F2FB0DF109
:10AD5000080909F1010002F063FC04A8ADF81060D5
:10AD600002F0E7FB09F1020002F05AFC01F024FDB9
:10AD7000A088142880F0108448F69811C2F20201CD
:10AD800011F81020012A40F0238301EB40004078A5
:10AD9000132800F2088448F288017422C2F20201EA
:10ADA00010FB0214214611F8692FFF2A00F0E983F5
:10ADB00007F8290C013294F8670000260A70002277
:10ADC000012840F08A83E168002900F07B83206934
:10ADD000A7F12902036CA7F11D0098477CE3D4E991
:10ADE0000201CDE9040140F22900C0F20000ADF8F3
:10ADF00038000EA802F0D2FB40F206060EA8C0F200
:10AE00000006ADF8386002F094FB284602F091FB92
:10AE10000EA8ADF8386002F08CFB04ADA81D02F05E
:10AE200088FB0EA8ADF8386002F083FBA81C02F086
:10AE300080FB0EA8ADF8386002F07BFB284602F0DC
:10AE400078FB0EA8ADF8386002F073FB281D02F005
:10AE500070FB01F0B1FCA088142880F09D8348F6B7
:10AE60009811C2F2020111F81020002A00F0A2830A
:10AE700001EB40004078142880F0958348F2880167
:10AE80007422C2F2020110FB0210DDE90412C0E9D3
:10AE9000011212B0BDE80007F0BD40F21900C0F287
:10AEA0000000ADF8100004A802F078FB40F20500A5
:10AEB000C0F20000ADF8100004A802F03AFB04F163
:10AEC0000806304602F0ACFB01F076FCA088314663
:10AED0002A46FEF7A4FB002840F0BA822888002109
:10AEE000002280DF002800F0B38200F023FF0490EE
:10AEF00040F24100C0F20000ADF838000EA802F0A8
:10AF00004DFB04A800F014FC01F056FC12B0BDE8A3
:10AF10000007F0BD607AC0F3800107F8291C00F03B
:10AF20000301C0F3C0008DF8341000218DF830000B
:10AF3000207BCDE90E01607BCDE9040140F21C00CD
:10AF4000C0F20000ADF8080002A802F027FB40F2B2
:10AF5000050602A8C0F20006ADF8086002F0E9FAA2
:10AF6000A7F1290002F05CFB02A8ADF8086002F02E
:10AF7000E0FA0DA802F054FB02A8ADF8086002F058
:10AF8000D8FA0CA802F04CFB40F2080602A8C0F266
:10AF90000006ADF8086002F0CCFA0EA802F0ACFA98
:10AFA00002A8ADF8086002F0C4FA04A802F0A4FAFE
:10AFB00001F002FC264616F8080F002840F04882EF
:10AFC000607A400740F144822888FDF7D2FFC0072D
:10AFD00000F03E8204AC8DF810100846314622463F
:10AFE000FEF75AFDA2E0A07A8DF8120040F215009B
:10AFF000C0F200002189ADF838000EA8ADF810109D
:10B0000002F0CCFA40F20600C0F20000ADF83800C1
:10B010000EA802F08EFA284602F08BFA40F20505DF
:10B020000EA8C0F20005ADF8385002F082FA04AC68
:10B03000204602F0F5FA0EA8ADF8385002F079FA81
:10B04000A01C02F0EDFA0EA8ADF8385002F071FA2B
:10B05000601C02F0E5FA01F0AFFB12B0BDE800079A
:10B06000F0BDD4E90201CDE90E0140F21600C0F2B4
:10B070000000ADF8100004A802F090FA40F20606B5
:10B0800004A8C0F20006ADF8106002F052FA28469B
:10B0900002F04FFA04A8ADF8106002F04AFA0EADC3
:10B0A000A81C02F046FA04A8ADF8106002F041FABC
:10B0B000A81D02F03EFA04A8ADF8106002F039FABB
:10B0C000284602F036FA04A8ADF8106002F031FA12
:10B0D000281D02F02EFA01F06FFBA088142880F0E2
:10B0E0005B8248F69811C2F2020111F81020012A81
:10B0F00040F0AE8101EB40004078132800F253820B
:10B1000048F288017422C2F2020110FB021111F808
:10B11000692FFF2A00F0358202AC01328DF8080059
:10B1200004A80A7021460022FEF7CDF82046FDF75C
:10B1300077FE12B0BDE80007F0BD40F21100C0F28A
:10B140000000ADF8100004A802F028FA40F2060052
:10B15000C0F20000ADF8100004A802F0EAF9284699
:10B1600002F0E7F901F028FB207A012810D002282C
:10B1700040F0468201F0C3F8002800F0E98148F66B
:10B18000DC35C2F202052868002800F08C80F2E16C
:10B1900001F0B5F8002800F0DB8148F6E835C2F28E
:10B1A0000205286800287ED0E5E1207A00F00F0132
:10B1B0008DF8081000098DF8380040F21B00C0F22D
:10B1C0000000ADF8100004A802F0E8F940F205050F
:10B1D00004A8C0F20005ADF8105002F0AAF902A8C8
:10B1E00002F01EFA04A8ADF8105002F0A2F90EA861
:10B1F00002F016FA04A8ADF8105002F09AF904F122
:10B20000090002F00DFA01F0D7FAA088142880F0A6
:10B21000C38148F69811C2F2020111F81020012AE8
:10B2200040F0168101EB40004078132800F2BB810A
:10B2300048F288017422C2F2020110FB02110A4690
:10B2400012F8693FFF2B00F09C8101331370227AC2
:10B250008DF8100002F00F03D0B2022B4FEA10124B
:10B2600000F00181012B00F0F980002B40F0F48008
:10B27000102880F0F1800022FDE040F21200C0F2C0
:10B280000000ADF8100004A802F09AF901F037F8B8
:10B29000002800F05D8148F6C015C2F2020528685A
:10B2A000002840F068814FF0FF302860686858B18E
:10B2B000A9682A1D0B692146984728680130286033
:10B2C00012B0BDE80007F0BD0020286012B0BDE854
:10B2D0000007F0BDD4E90212A088CDE904121428B9
:10B2E00080F05A8148F69812C2F2020212F8103029
:10B2F000002B00F05F8102EB40004078142880F0C2
:10B30000528148F288027423C2F2020210FB032029
:10B3100080F8711040F22B00C0F20000ADF8380048
:10B320000EA802F03BF940F206060EA8C0F2000695
:10B33000ADF8386002F0FDF8284602F0FAF80EA8E1
:10B34000ADF8386002F0F5F804ACA01C02F0F1F89A
:10B350000EA8ADF8386002F0ECF8A01D02F0E9F894
:10B360000EA8ADF8386002F0E4F8204602F0E1F8EB
:10B370000EA8ADF8386002F0DCF8201D02F0D9F814
:10B3800001F01AFA12B0BDE80007F0BD00F0B7FFF7
:10B39000002800F0DD8048F6C016C2F202063068D0
:10B3A000002840F0E88070684FF0FF313160E0B174
:10B3B000B168321D0B692146984730680130306012
:10B3C00012B0BDE80007F0BD00218DF810101CE0A0
:10B3D00040F24000C0F20000ADF8100004A802F0F6
:10B3E000EFF812B0BDE80007F0BD00201321306077
:10B3F000288876DF12B0BDE80007F0BD00208DF888
:10B40000100002A8FDF70CFD00212888002200236F
:10B4100086DFE8B100F08EFC0E9040F24200C0F2F0
:10B420000000ADF8080002A802F0B8F840F286006B
:10B43000C0F20000ADF8080002A802F07AF80EA8E9
:10B4400000F000FB01F0B8F912B0BDE80007F0BD54
:10B4500012B0BDE80007F0BD01220CE0501E042828
:10B4600028BF012207E00120022A08BF0620012A86
:10B4700008BF05200246C86881F8682018B109692C
:10B480008B6A04A9984704A8FDF7CAFC12B0BDE86E
:10B490000007F0BD0120CDE9040140F24300C0F2F5
:10B4A0000000ADF838000EA802F078F804A800F00B
:10B4B000B8F801F081F902A8FDF7B2FC12B0BDE8BE
:10B4C0000007F0BD002027F81A0C102007F81B0C0D
:10B4D0004FF4E66027F81D0C012217F8190C002A1A
:10B4E0008DF83D0004F14C00099004F1300057F84C
:10B4F0001D1C04ABCDE9076004F11400CDF8391030
:10B500004FF000018DF83820CDE90A66CDE90566D7
:10B51000049018BF08F1010228887FDF80B100F095
:10B5200009FC0C9040F23F00C0F20000ADF834007E
:10B530000DA802F033F80CA800F0FAF801F03CF97D
:10B54000A7F12900FDF76CFC12B0BDE80007F0BDC3
:10B5500000200121089005914FF62431C0F202012C
:10B560000790042004914FF69C31069004A8C0F285
:10B57000020102F008F94FF61840C0F2020002F092
:10B580006CF840F25500C0F20000ADF8100004A8BD
:10B5900002F016F802F040F84FF60C221421C0F227
:10B5A000020202F02BF94FF6FC121421C0F2020243
:10B5B00002F024F940F25800C0F20000ADF8380063
:10B5C0000EA801F0FDFF02F027F840F25800C0F28B
:10B5D0000000ADF8100004A801F0F2FF02F01CF822
:10B5E00040F26800C0F20000ADF8100004A801F0BD
:10B5F000D5FF0EA800F0BDF801F0DEF802F00CF85F
:10B60000049040F26A00C0F20000ADF838000EA8C5
:10B6100001F0C4FF04A800F051F801F0CDF801F0EA
:10B62000FBFFD0B502AF82B0044640F28000C0F20A
:10B630000000ADF8040001A801F07BFF2068A0B174
:10B640004FF68D10C0F2020001F0EAFF40F28600D2
:10B65000C0F2000027F80A0CA7F10A0001F069FF08
:10B66000201D00F0EFF902B0D0BD4FF68C10C0F2F3
:10B67000020001F0D5FF02B0D0BD80B56F4682B0A8
:10B6800040F27F00C0F2000027F8020CB81E01F063
:10B6900050FF02B080BDD0B502AF82B0044640F288
:10B6A0000700C0F2000027F80A0CA7F10A0001F019
:10B6B00040FF206801F015FF02B0D0BDD0B502AF49
:10B6C00082B0044640F20700C0F2000027F80A0CDE
:10B6D000A7F10A0001F02DFF204601F002FF02B0A1
:10B6E000D0BDD0B502AF82B0044640F20B00C0F22C
:10B6F000000027F80A0CA7F10A0001F01AFF204603
:10B7000001F07AFF4FF6AC30C0F2020001F011FFF9
:10B7100002B0D0BD80B56F4682B040F20100C0F2E9
:10B72000000027F8020CB81E01F003FF02B080BD34
:10B73000D0B502AF82B0044640F28600C0F20000ED
:10B7400027F80A0CA7F10A0001F0F3FE204600F0EA
:10B7500079F902B0D0BD80B56F4682B040F2850065
:10B76000C0F2000027F8020CB81E01F0E2FE02B0A1
:10B7700080BDD0B502AF82B0044640F20500C0F2F1
:10B78000000027F80A0CA7F10A0001F0D2FE2046BB
:10B7900001F046FF02B0D0BD80B56F4648F6B43127
:10B7A000C2F202010878BFF35F8F18B1002818BFFA
:10B7B000012080BDEFF3108C012372B60B704EF2A6
:10B7C0008013CEF200031A684A605A688A6040F219
:10B7D000FC61CFF6FF5119604FF0FF3159605FEA0D
:10B7E000CC71E3D162B6002818BF012080BD80B5BE
:10B7F0006F46002818BF80BD48F6B431EFF31080C3
:10B800000022C2F2020172B60A7040F2FC634A687A
:10B81000CFF6FF53C00702EA03024EF20013CEF246
:10B8200000031A608968596000D162B680BDD0B546
:10B8300002AF48F6B434C2F2020404F10C0000F086
:10B840009CFD04F11400BDE8D04000F096BDB0B5F9
:10B8500002AF48F6B434C2F202042578BFF35F8F1A
:10B86000BDB9EFF31080012172B621704EF2801144
:10B87000C007CEF200010A6862604A68A26040F226
:10B88000FC62CFF6FF520A604FF0FF324A6000D1EF
:10B8900062B6227FD4E9081040F20233012AA38362
:10B8A00004BF4968884705B1B0BDEFF3108000219F
:10B8B00040F2FC6272B621706168CFF6FF52C00799
:10B8C00001EA02014EF28012CEF2000242F8801C20
:10B8D000A16842F87C1C18BFB0BD62B6B0BDB0B55F
:10B8E00002AF48F6B434C2F202042578BFF35F8F8A
:10B8F000BDB9EFF31080012172B621704EF28011B4
:10B90000C007CEF200010A6862604A68A26040F295
:10B91000FC62CFF6FF520A604FF0FF324A6000D15E
:10B9200062B6227FD4E908100223012AA38304BF50
:10B930004968884705B1B0BDEFF31080002140F29F
:10B94000FC6272B621706168CFF6FF52C00701EA4F
:10B9500002014EF28012CEF2000242F8801CA16871
:10B9600042F87C1C18BFB0BD62B6B0BD30B180B526
:10B970006F4600F0DFF90146012080BD00207047CE
:10B98000F0B503AF4DF804BD86B004468588008845
:10B99000392806D1142D44D248F6C426C2F2020634
:10B9A00005E0142D45D248F6D416C2F2020600F086
:10B9B000A6FCE8B105EB450006EB8005286850BB06
:10B9C0004FF0FF302A46286052F8040F50B1A968A2
:10B9D0000B692146984728680130286006B05DF859
:10B9E00004BBF0BD0020286006B05DF804BBF0BDCC
:10B9F0000121002001914FF62431C0F20201049090
:10BA000000914FF69C31039004200290C0F2020195
:10BA1000684601F0B8FE4FF61840C0F2020001F08F
:10BA20001CFE4FF6B022C0F202022846142101F09B
:10BA3000E5FE4FF6A022C0F202022846142101F0D2
:10BA4000DDFED4D40168B1F5005F19DBB1F5405FCC
:10BA50003BDDB1F5485F4CDBB1F54C5F80F26980AE
:10BA6000A1F54850DFE810F006001101D500ED0007
:10BA7000A50041014FF6E720C0F2020001F0D0BD61
:10BA8000B1F5805F46DA01314FF62F20C0F2020097
:10BA9000DFE811F01500BD008300A7006B00E30094
:10BAA0000701B300250177001F0165007100F50053
:10BAB0005F00A1005900D1000D014901DD004FF6E2
:10BAC000C020C0F2020001F0ABBDA1F50050DFE8DC
:10BAD00010F00A00F400A600CA00760012011E0150
