:020000022000DC
:106000000000042001610200579703009DC70300B0
:1060100057970300579703005797030000000000AD
:10602000000000000000000000000000579703007F
:10603000579703000000000057970300579703008D
:10604000579703005797030057970300579703008C
:10605000579703005797030031950300EFF70200AD
:10606000579703005797030057970300579703006C
:10607000579703005797030057970300579703005C
:10608000579703007B8E0300579703005797030031
:106090005797030057970300358003005797030075
:1060A000579703005797030057970300579703002C
:1060B00057970300579703000000000000000000FE
:1060C000579703005797030057970300579703000C
:1060D00057970300579703005797030057970300FC
:1060E00057970300579703005797030000000000DD
:1060F00000000000579703000000000057970300BE
:1061000013F02AFB0E480F490022814201D004C03F
:10611000FBE70D480D490E4A814202D008CA08C06B
:10612000FAE70C484FF47001026842EA010202608B
:10613000BFF34F8FBFF36F8F09F05BFB00DE0000F2
:1061400070000220589602200000022070000220F9
:1061500088F7030088ED00E0F0B503AF2DE9000FEC
:1061600089B00B8814460568102B16D000221B2B13
:1061700012D0262B6DD040F27D000493C0F20000B7
:10618000ADF8080002A813F0AEFC04A809F0ACFFBB
:106190000CF0B0FF13F0F4FC5BE08146C87BB1F873
:1061A00004800E4610F036FC07F8390C40F22C0043
:1061B000C0F20000B168ADF8100004A8D6F80B20BA
:1061C0000291D6E904ABCDF80B2013F08CFC40F221
:1061D000B400C0F20000ADF8100004A813F042FCB7
:1061E000A7F1390010F0C8FC40F20D0004AEC0F277
:1061F0000000ADF81000304613F034FC02A810F097
:1062000029FC4DF67A60C0F2030013F02BFC0CF071
:1062100071FF17F8391C06F10A03DDF80B20CDF8E1
:106220001620F21C0298CDF813004046CDF81EB09F
:10623000CDF81AA08DF81210ADF810800EF0F6FF10
:10624000C00704D04046142176DF012200E003227B
:106250004846C9B28668C5E9002111F0A0FED6E91A
:1062600000320225B168012B356004D15268054621
:1062700008469047284611F0BDFE0020206009B076
:10628000BDE8000FF0BDD0B502AF86B004464EF6B3
:106290001000C0F203000021CDE900046A4694F822
:1062A0004C000491CDE9022258B1032826D194F87C
:1062B000480058B1032827D194F8440080B9A06A57
:1062C00008E0206A84F84810606200E0606A84F8A0
:1062D0004410A062C4E90B10C4E90D11C4E90F1108
:1062E00004F12C0002A909F05BF9032084F84C00AA
:1062F00084F8480084F8440006B0D0BD4DF2D010B8
:10630000C0F2030015F0B9F84CF6A010C0F203007B
:1063100015F0B3F8F0B503AF2DE9000FADF5CA4D98
:1063200093B082464EF61000C0F203000DF1400E0D
:10633000CDE9090A00200D9009A80EF5C448CDE961
:106340000B0045F6C8500AEB000B0AF1200005903F
:106350009BF8F100CDF820A0DFE810F008008A08D3
:106360008A081101FA0035012401E90ADBF8E4008A
:106370000024CBF8500040F23500C0F20000ABF82A
:10638000EF40ADF8C8060DF5D96013F0BEFB402014
:106390000DF5D9658DF8CE064FF48040ADF8CC06EA
:1063A0002846CDF8C84612F095FE4EF2074060210F
:1063B000CEF200004FF00812017041F20000C0F26E
:1063C0000210ABF88A40CBF8930040F20140C0F2D3
:1063D0000140ABF88440CBF8800006208BF87200B7
:1063E0004FF00130CBF886001820CBF87400012064
:1063F000C0F20010ABF89040CBF88C404FF4B06482
:106400000121CBE91A4058464DF2E813CBE9182197
:10641000C0F2030340F8541F4FF480768BF89210BB
:106420004FF40042ABF8701040F20C51C5F200017D
:10643000CBE916630A600322C1F8302210F0C8F8D5
:1064400045F6B1614FF072324AF801205144722290
:106450000A7102215C4604F8E81FFF21A171214660
:1064600044F8500C10F060F854F8501C4DF208221B
:10647000C0F20302284608230EF034FBD14605F192
:10648000080ADDF8CCC6B0AEBDF8C886BDF8CAE6CD
:106490009AE83F003FC65FEAC87040F0768745F64D
:1064A0006A60B0A948441622CBF89EC0ABF89CE0C5
:1064B00015F04DFFDBF8980009F03AF9002800F0DC
:1064C00077870146DBF85000CA460CF0F7FEDBF890
:1064D000980040F27801C2F20201CBF8F81011F0F6
:1064E000B9FD00200DF1400E8BF89C014FF42320E4
:1064F0004FF420210BF5CE74CBE940100EF5C448C3
:10650000CBE9421040F23800C0F20000ADF8400084
:1065100010A813F0FAFA45F6D8608021504415F01F
:106520004EFE10A84FF4A472002313F046F9DDE9E3
:1065300010019DF84820CBE968018BF8A8210BF5E4
:10654000D0700BA913F05FF900285ED0032090E310
:106550009BF81C010BF58E74002800F09E80032828
:1065600040F038879BF818010BF58C75002800F077
:106570006F85032840F0468709A900F07ABD9BF893
:106580009C010BF5CE74DFE810F00A004907730791
:1065900009005D015001640375015402CFE7DBE996
:1065A0004010ADE79BF828010BF59472DFE810F07E
:1065B000060024076007FA00E600C000DBF8F800D8
:1065C00009AD00F05CBF9BF8FB2745F6C4610AEB00
:1065D00001000BF2FB71002A019162D0032A40F006
:1065E000FF869BF8A0210BF5D0790290DFE812F02E
:1065F0000500100740070B01F400DBE95F520DF1C5
:106600002408DBE9611001F0C2BC0022DBE9421C76
:1066100045F6D8668BF8F121079445F665720AEBCA
:1066200002044CF6A45356440BF2F11AC0F20303D1
:106630008022C1462546CBE97944CBF8EC31CBE941
:106640007462CBE9681C0020CBF8D8518BF8F001BC
:10665000CBF8DC418BF85C02CBE97D54CBE97F625F
:10666000CBE98131CBF80CC2CBF8E031CBE96A1C25
:10667000CBE96C620DF1400E0BF5FA710EF5C748CF
:10668000404603F0D9FCD9F8900104280DD103202D
:106690008AF800000420079CEBE2DBE9418000F06F
:1066A000D0BCDBF8F46700F09DBD01200BF5DC7C6D
:1066B0008BF8F00198E87D0061467DC1DBF8C821C8
:1066C000032A04BFDCF80000062800F02581DBE97E
:1066D0006E63DBF8CC01089C0021032A8BF8F011D3
:1066E00000F0E880022A40F0E98045F66573012059
:1066F0004FF0000C8BF8F10123440BF5D07010AE75
:10670000DBE9428E80E8084145F674732344CBE907
:1067100064CC0BF5D07ACBF898C135CE35C396E86A
:10672000370037C30BF5E8758BF8D0C1079C1AE129
:106730009BF8A0010BF5D0710028CDE9062100F0EF
:10674000A980032840F070869BF89D010BF29D19EB
:10675000002800F0B381032840F078869BF87C0184
:106760000BF5BE78002800F0F181DDF820A00328A9
:1067700040F07286DBF8785101F005B89BF83401DF
:106780000BF596780BF59A790692002800F0888030
:10679000032840F02B86DBF8304109AEDDF820A05D
:1067A00000F0E8BE9BF83C010BF59E7A002800F053
:1067B0007C80032840F03E869BF838010BF59C74E2
:1067C0000692002800F07E81032840F00F86DBF857
:1067D000346109AD00F066BE9BF8F5010BF2F511CE
:1067E000CDF81C900691DFE810F006002B0643065A
:1067F000570C78017401DBE97598DBE97A54DBF812
:10680000F06101F02CBC9BF8AC110BF5D2740BF5C8
:10681000D676002900F09B80032940F0E785DBF85D
:10682000A8510DF1240801F0C1BB9BF8D0010BF574
:10683000D07A0BF5E875002800F08E80032800F070
:10684000AC8121E09BF8F1010BF2F11A0794C146EB
:10685000DFE810F00700F6050E06060070002801BC
:1068600008E7DBE9681CDBE97462DBE97954DBF8F3
:10687000EC31E8E69BF8D0010BF5D07A0BF5E87522
:1068800000286DD0032878D04CF60C70C0F20300BD
:1068900014F0F3FDDBE95048DDF820A000F0B0BEB5
:1068A00009AEDDF820A000F061BEDBF82C0109ADD7
:1068B00000F0EEBD180CC3EA00453BE1DBF8B41173
:1068C0009BB21AB99942C2F0738001208142C2F092
:1068D00061801A1A091A8A4202F26280DBF8B0114A
:1068E0000DF1400A014450460EF081FBDDE91065D0
:1068F000042E40F01F8101204FF0000C692D8BF811
:10690000F101CBE964C0CBF8985140F0238140F20B
:106910003A00C0F20000CAE10BF5D473DBE97665FA
:106920000024CBE97D650FCB8BF83842CBE97F2380
:10693000CBE981010BF5FA7410A80BAA214602F0ED
:10694000BFFB10980C2840F093800420A0E6256837
:106950000DF1240801F028BBC146DBE9698E12E184
:10696000C146DBE9698E00200BF5D6718BF8CC01AE
:10697000DBF8A00181E80141C846089945F674702A
:1069800008440BA904F0B3FCC0B2042803D10320CF
:10699000287007206DE19BF8CC01C146A046032872
:1069A00005D1089945F6957008440FF000FA0120CA
:1069B000DDF820E08BF8D001DBE94201CBE968018A
:1069C00045F670700EEB000C10A800F5C74191E879
:1069D0007D008CE87D00A7F1900345F690760FCB03
:1069E00045F6D86575444EF80600802045F6657476
:1069F000CBE9705000204CF6A4558BF8E9014CF619
:106A00008440C0F20305C0F203007444CBE978501F
:106A10000EEB06000430CBE9764A0EC045F6B270A4
:106A2000704410A940F20A22F24615F090FC444648
:106A3000C84645F668700DF1380E0AEB00010EF5F8
:106A4000C6400BAA02F074FAD8F8F8000C2801D15D
:106A500008200EE19BF8E901052803D0042859D04D
:106A600003285FD145F6B470504404F053FB56E060
:106A70002046DDE9106504F0DFFA0B2E57D1DBE983
:106A80006AC10020DBE96C23DBE976658BF85C02E8
:106A90000BF5FE70DBF8E041CBE97D6580E81C106A
:106AA000CBF80C12089945F6BC70014410A803F00D
:106AB000C3FA149A042A29D10520E9E5DBF8848178
:106AC00000F0AEBDDBF8306109ADCBF8346100F009
:106AD000E9BCDDF820A001F062BE9BF83C020BF59A
:106AE000FC7A0BF50F75DFE810F00900BD04C30454
:106AF000290B5A0B9B0BDF030F0CEE030BF50076F3
:106B0000AC46DBE97E524BCE01F00ABBDDE91063F7
:106B10001598E0E545F6B470504404F08DFA002075
:106B20008BF8E80140F23B00C0F20000BFE000201B
:106B30008BF8F0010120CBF898518BF8F101CBE9EB
:106B4000640640F23C00C0F20000B0E0DBE9526AAB
:106B500000F0ECBD45F665730BF5D0702344DBE91E
:106B6000428E80E8084145F674732344BAE8650014
:106B700065C39AE867000BF5D07A67C30BF5E87533
:106B80008BF8D0C1079C00200BF5D6718BF8CC0197
:106B9000DBF8A00181E80141C846089945F6747008
:106BA00008440BA904F0A3FBC0B2042803D10320BE
:106BB000287005205DE09BF8CC01C146A046032863
:106BC00005D1089945F6957008440FF0F0F80120BA
:106BD000DDF820E08BF8D001DBE94201CBE9680168
:106BE00045F670700EEB000C10A800F5C74191E857
:106BF0007D008CE87D00A7F1900345F690760FCBE1
:106C000045F6D86575444EF80600802045F6657453
:106C1000CBE9705000204CF6A4558BF8E9014CF6F6
:106C20008440C0F20305C0F203007444CBE97850FD
:106C30000EEB06000430CBE9764A0EC045F6B27082
:106C4000704410A940F20A22F24615F080FB444637
:106C5000C84645F668700DF1380E0AEB00010EF5D6
:106C6000C6400BAA02F064F9D8F8F8000C2804D149
:106C700006202070032001F085BE9BF8E90105285D
:106C800003D0042807D003280DD145F6B470504432
:106C900004F040FA04E045F6B470504404F0CCF936
:106CA00000208BF8E80140F23900C0F20000ADF896
:106CB000400010A812F029FF0DF5D96540F27521AA
:106CC000281DDBE942A915F0DFFAB0AC294640F2F5
:106CD0007922204614F043FF0DF5C04E4FF0010815
:106CE00040F279228BF89C819EF8A2020DF5C04EED
:106CF0008DF8BE0210A8BEF8A012ADF8BC12214655
:106D000014F02DFF0DF5C04EDBF8F8609EF832024E
:106D10000DF5C04E8DF83E0006F52970BEF8301214
:106D2000ADF83C10D0E84F1F002940F0FE82C0E8CB
:106D3000418F0029F6D1BFF35F8F00249DF8BE027A
:106D400040F27922BDF8BC12A6F80D1010A9F0731C
:106D500006F128003473C6E900447462C6E904A948
:106D6000C6E9064414F0FBFEBDF83C1040F60022D4
:106D70009DF83E00C5F20002A6F8A11240F20C51A7
:106D800086F8A302C5F20001CBF8B8600120032306
:106D90004FF40066C1F80003D84613600E60102659
:106DA000C1F82032C1F8006340261361C1F80063C6
:106DB0004FF4007693610E60C1F8183240F620332C
:106DC000C2F224638BF8F000CBF8F83009238BF87B
:106DD000FC300423C1F8FC31D363D3620222C1F832
:106DE0001C3242F6027108F8EF0FC0F62B21002387
:106DF000C8F80E102721EE18EC50033903F5E163B3
:106E0000C6F8C026C6F8C446C6F88826C6F88C461A
:106E1000C6F85026C6F85446C6F81826C6F81C46CA
:106E2000C6F8E025C6F8E445C6F8A825C6F8AC457E
:106E3000C6F87025C6F87445C6F83825C6F83C452E
:106E4000C6F80025C6F80445C6F8C824C6F8CC44E0
:106E5000C6F8B044C6F8B444C6F86824C6F86C4412
:106E6000C6F83024C6F83444C6E9FE24C6E9F02446
:106E7000C6E9E224C6E9D424C6E9C624C6E9B82492
:106E8000C6E9AA24C6E99C24C6E99644C6E9842436
:106E9000C6E97624C6E96824C6E95A24C6E94C2422
:106EA000C6E93E24C6E93024C6E92224C6E91424F2
:106EB000C6E90624746086F80007C6F8F84686F826
:106EC000CC2686F8C84686F8942686F8904686F83A
:106ED0005C2686F8584686F8242686F8204686F8EA
:106EE000EC2586F8E84586F8B42586F8B04586F89E
:106EF0007C2586F8784586F8442586F8404586F84E
:106F00000C2586F8084586F8D42486F8D04486F8FF
:106F1000C04486F8A804C6F8A04486F8742486F80D
:106F2000704486F83C2486F8384486F8042486F8B1
:106F3000004486F8CC2386F8C84386F8942386F864
:106F4000904386F85C2386F8584386F8242386F815
:106F5000204386F8EC2286F8E84286F8B42286F8C8
:106F6000B04286F87C2286F8784286F8684286F835
:106F70005002C6F8484286F81C2286F8184286F865
:106F8000E42186F8E04186F8AC2186F8A84186F82D
:106F9000742186F8704186F83C2186F8384186F8DD
:106FA000042186F8004186F8CC2086F8C84086F88F
:106FB000942086F8904086F85C2086F8584086F841
:106FC000242086F8204034747FF415AFDDF820A02B
:106FD0000DF5D96145F668320AF51874204615F0AA
:106FE000B8F920460AF0BFFF47F214110120C4F29D
:106FF000000147F2F452C1F8EC030220C1F8DC04AE
:10700000C4F2000200200BF58E7410600822C1F853
:10701000FC2340F20052C0F20202C1F804244FF6F1
:10702000FF72C0F23F02C1F8F4214EF20011CEF21D
:1070300000018022C1F880210A608BF81C01CBE995
:1070400041800BF58C750021CBE94380CBE945816C
:1070500047F214100021C4F20000012240F8041C81
:107060001021C0F8F0114FF6F861CFF6FF714250D1
:107070000B9949F25060C2F2020012F0FEFB47F297
:107080001410C4F2000050F8041C002900F006811E
:107090000024012540F8044CDBF8FD00CAF810027A
:1070A0000AF50870DBE94336DBF8F8109BF8FC20A2
:1070B0008BF818518BF81C518BF8C4408BF8444066
:1070C000CBE90F44CBF80C40CBE90044ABF8EF40E0
:1070D000CBE92F36CAF814128AF81822CBF8C8B0B8
:1070E000CAE980448AF8F841CAE97A448AF8E0415A
:1070F000CAE974448AF8C841CAE96E448AF8B041C2
:10710000CAE968448AF89841CAE962448AF8804129
:10711000CAE95C448AF86841CAE956448AF8504191
:10712000CAE950448AF83841CAE94A448AF82041F9
:10713000CAE944448AF80841CAE93E448AF8F04062
:10714000CAE938448AF8D840CAE932448AF8C040CB
:10715000CAE92C448AF8A840CAE926448AF8904033
:10716000CAE920448AF87840CAE91A448AF860409B
:10717000CAE914448AF84840CAE90E448AF8304003
:10718000CAE908440CF07DFD45F664625B46524452
:107190000AF5107043F8CC4FDBF898101CC040F291
:1071A0002032C2F20202DBF8B860CBF8DC1045F600
:1071B000C4610AEB01000BF2FB718BF8D840CBF8ED
:1071C000D0408AF85C428AF858428AF85442CAF899
:1071D0004C42CBF8F8208BF8FB47CBF8F467CBE9AF
:1071E00012B3019146F2B81100240AEB01054AF8E6
:1071F00001408021CBF8F047CBE9F966C5E90144AD
:10720000C5E90344C5E90544EC61029015F03CF87A
:107210004FF40060ABF8F8070BF57B70CBE9F75043
:107220004FF0FF30CBF8EC0308208442C0F0998681
:10723000DBF8E0034FF4816201680131016046F23E
:10724000B4100AEB0001B0A8DBF8E84314F087FCA7
:107250000125002C8BF8FB5701F093830DF5D960C5
:10726000B0A94FF4816214F07AFCDBF8F86006F202
:107270000C40D0E84F1F002972D1C0E8415F0029BF
:10728000F7D1301D0DF5D9614FF48162BFF35F8FE7
:10729000346014F064FCCBF8E060BEE3032020709F
:1072A0002870042001F06EBB9BF880020BF520745F
:1072B00010B30899032800F0EB874CF61C70C0F25D
:1072C000030014F0DAF89BF8C0020BF53074DFE825
:1072D00010F00700D000CF00B60863099E091A001D
:1072E0000BF5127EDBE9900CDBE996689EE806421E
:1072F000CDE9035401F039B80BF51273DBF8400205
:107300000ECB00F0B8BF9BF8040304940BF5417456
:1073100020B10899032801F00481CEE70BF53373FF
:10732000DBF8C4020ECB01F0EFB80121BFF32F8FC1
:107330000020CDF8CC164CF64C01CDF8D806C0F2A2
:107340000301CDF8D4060420CDF8C8164CF6B401DC
:10735000CDF8D0060DF5D960C0F2030112F0D1FCD2
:107360000121BFF32F8F0020B1914CF64C01B49056
:10737000C0F20301B3900420B0914CF6B401B29076
:10738000B0A8C0F2030112F0BCFC40F26700CDF8D7
:10739000C8C6C0F20000ADF8400010A812F0A3FB70
:1073A0000DF5D96008F0D4FE0BF0A4FE12F0E8FB56
:1073B00040F26600C0F20000ADF8C8060DF5D960D5
:1073C00012F091FB0DF5D96008F014FF0BF092FE5E
:1073D00012F0D6FB4DF29400C0F2030014F04DF809
:1073E0004CF6A870C0F2030014F047F84CF62410D5
:1073F000C0F2030014F041F84DF22000C0F2030087
:1074000014F03BF84CF60000C0F2030014F035F81D
:107410004DF2E800C0F2030014F02FF84DF2D8004E
:10742000C0F2030014F029F84CF63020C0F203003B
:1074300014F023F84DF21000C0F2030014F01DF810
:107440004CF6E830C0F2030014F017F84CF6202098
:10745000C0F2030014F011F84CF6C020C0F2030093
:1074600014F00BF84CF64840C0F2030014F005F895
:10747000FEDE4CF65840C0F2030013F0FEFF002180
:10748000CBF82C018BF83C110BF59E7ACBF8000160
:1074900000F10806002106920BF59C748BF8381158
:1074A000CBE94C6610F07BFD3168002940F0B087D5
:1074B000317B0BF59A794FF0FF32326051B1311DBB
:1074C00080460846294612F02AFA316840460025CF
:1074D000013103E00121354631730021316010F0A4
:1074E00089FD0126002D4FF0010008BF0320207008
:1074F00000F00684B0A82C7CB09508F00EFF8AF846
:107500000060002CDDF820A040F08D8100204EF6B8
:1075100020228BF80C01C0F20302ABF8040140F208
:107520000110CBF80E014FF4C870CBF808011068B9
:10753000202880F090844EF64423C0F2030319689B
:10754000202980F08F840433CBE94831DBF8001127
:107550000432CBE9462000200B9E0BF596788BF881
:10756000140149688BF83401CBF82C11DBF82C415D
:10757000CBF8304110F013FD2168002940F0488716
:10758000217B4FF0FF32226051B1211D0546084694
:10759000314612F0C4F9216828460026013103E083
:1075A0000121264621730021216010F023FD002EC9
:1075B0004FF0010008BF032089F8000000F0A48309
:1075C000B0A83469B09608F0A8FE45F6DC600AEB76
:1075D00000014046142214F055FE45F6CC600AEB3B
:1075E000000845F61070B0A950445822CBE9504825
:1075F00014F0B5FA00208BF8A0010BF5D0700790BD
:1076000045F6F460CBE96048504445F6507151446A
:107610000BF29D1990E87C0000207CC18BF89D0145
:107620009BF8885101248BF89C410BF5CE7A9BF88E
:107630008901DBE96316DBE9653CBBF88A41DFE8D9
:1076400005F0033D2C2E13000DF1400E00220EF527
:10765000C4400DF5C04EC0E96216C0E9643C01208B
:107660008EF8D903002040E00DF5C04E07228EF8B9
:10767000D9230DF5C04E8EF8C7630DF1400E0EF5FF
:10768000C4420DF5C04EC2F883110021AEF8C143CB
:10769000C2E9623CC2F8901126E002220FE00DF12F
:1076A000400E00220EF5C4430DF5C04EC3E962162C
:1076B0000621C3F890218EF8D91316E003220DF5A8
:1076C000C04E8EF8D9230DF5C04EAEF8C2430DF56D
:1076D000C04E8EF8C1030DF1400E0EF5C4420020DD
:1076E000C2F89001C2E9611001220DF5C04E0024DC
:1076F00041468EF8DA030DF5C04E8EF8D8430DF5ED
:10770000C04E8EF8C0230DF1400E0EF5C7400EF0AE
:10771000DEFB032840F0B38249F28C068BF87C41F3
:10772000C2F202060BF5BE78CBE9526A0BF5A870DF
:10773000089A45F6287100240BF5AA751144CBE987
:107740005A10CBE95C56CBE954A411F018FA002882
:1077500000F049833068002840F0568370684FF08D
:10776000FF313160002840F0AC83DDF820A04CF6FA
:1077700040210BF5B470C0F203010022B160C6E9EC
:107780000020CBF878510BAA2846294609F056F874
:10779000002840F06D82DBF874410020DBE9586579
:1077A000CBF8740154B111F0EAF9002800F03883E5
:1077B0002068002840F02E8300206060DBF8540130
:1077C000012803D1DBE95610C96888470120042E3F
:1077D00088F8000000F04F820799032E89F8000016
:1077E000087040F0A483DBF80001017F21B11D3057
:1077F0000DF00FFCDBF80001012145770177DBF884
:107800000001017F002900F0778363211D30C0F261
:107810009011B1914FF00611B091B0A90DF073FE27
:10782000022840F06F830120A7F190018BF8280116
:1078300045F6C96050444FF0000847220AF5107918
:107840008BF80081CBF8F89014F081FD0DF1380E23
:1078500045F610700EF5C6410AEB000C0DF1100E46
:107860007DC9ACE87D0091E87D000EF5C6418CE84D
:107870007D0045F610605044CBF8780145F6447021
:107880006CC950446CC045F657724FF066334AF8E5
:107890000230022352440988018045F666708BF855
:1078A0008E3166231371FF225044B0A98BF89421C6
:1078B0004FF4CD728BF89D8114F049FD45F684603C
:1078C0000DF1200E5044CBE9CE0946F209100EF519
:1078D000C541504427228BF8408314F038FD45F60B
:1078E00090620AF508700AF518715244CBE9DC1071
:1078F000A7F1F801059B46F24410CBE9DA320AEB16
:10790000000CCBF878930DF1400E91E87D000EF558
:10791000C7418CE87D0046F25D1050446B228BF825
:10792000948314F014FD0DF1400E0EF5C44845F695
:10793000C0600BA9504403F0CDFDC0B2042800F094
:1079400094819BF80001042808D19BF84401032886
:1079500004BF9BF84001032800F0ED809BF89D01D7
:107960000438042844D845F610710AEB0104DFE816
:1079700000F095C0030327009BF8F201032828D1EB
:107980009BF8EA01032804BF9BF8E401032820D1F7
:10799000DBF8DC510020CBF8DC0155B111F0EFF839
:1079A000002800F067822868002840F07E820020CE
:1079B0006860DBF8BC217C207821012A09D113E121
:1079C0009BF8E801032804BF9BF8E401032800F0BA
:1079D000F38045F6547050440DF01BFB45F664707F
:1079E00050440DF016FB45F63C70504408F095FCF1
:1079F0009BF89403042804BF9BF8F003032822D0CB
:107A00009BF84003032808D19BF85A03032804BFBE
:107A10009BF85403032800F0A98040F23600C0F21E
:107A20000000ADF8C002B0A812F06FF8DBF8E0106B
:107A300000208BF828010AF510700B9D0BF594724D
:107A4000CBE93E011BE59BF8AC03032804BF9BF880
:107A5000A903032800F0A4809BF8BC03032801BFFE
:107A60009BF8B90303280AF5C34011F0F1FA9BF81B
:107A7000CC03032804BF9BF8C903032800F09680B9
:107A80009BF8DC03032804BF9BF8D9030328B7D174
:107A900046F2A010504411F0DBFAB1E79BF8100257
:107AA0000328A0D19BF8C801042800F033810328E3
:107AB00099D19BF80402032840F03981DBF8FC419E
:107AC0000020CBF8FC0154B111F059F8002800F067
:107AD000D1812068002840F09D8100206060DBF8A3
:107AE000DC01012840F02381DBE97810C968884770
:107AF0001DE19BF8D201033803283FF66FAFDFE8A2
:107B000000F002A878909BF81402032804BF9BF8A9
:107B1000100203287FF462AF45F6D070504408F09D
:107B200043FCDBF8E40101287FF458AFDBE97A106D
:107B3000C968884752E7DBF838410020CBF83801A4
:107B400054B111F01CF8002800F09481206800283E
:107B500040F0AB8100206060DBF8200101287FF459
:107B6000FDAEDBE94910C9688847F7E647F2141013
:107B70000021C4F2000001604FF6F461CFF6FF71FE
:107B800001224250016841B90168002904BF01681F
:107B9000002902D101680029F4D0002101603CE7EE
:107BA00046F27010504411F053FA55E746F2901027
:107BB000504411F04DFA63E7DBF8DC510020CBF8BC
:107BC000DC0155B110F0DBFF002800F0538128687C
:107BD000002840F06A81002068608420DBF8C4211E
:107BE0008021012A7FF4F5AE61582058C968884782
:107BF000EFE69BF8F402032808D19BF8DC02032887
:107C000004BF9BF8D402032800F0DE80DBF8E0110B
:107C1000DBF82002884200F24E810020CBF8E00120
:107C200020E09BF8A40203281CD19BF88C020328B7
:107C300004BF9BF88402032814D146F24400504448
:107C400008F0B2FBDBF8380201280BD1DBE98F101A
:107C5000A9E09BF84802032804BF9BF840020328D0
:107C600000F0968045F69470B5E6072000F08ABED5
:107C7000032088F80000032089F8000039E0064658
:107C80009AF800000D468AF8004001282BD140F2F6
:107C90003600C2F20200007874DF10F099FA012871
:107CA00021D10DF1400E0EF5C440C0F8801140F214
:107CB0004F00C0F2000027F8900CA7F1900011F0DF
:107CC00012FF40F2BA00C0F2000027F8900CA7F1B2
:107CD000900011F0C7FE0DF1400E0EF5C74010F0F8
:107CE0008BFA0BF007FA0120042E89F8000040F00F
:107CF0001C81DDF81C90032089F80000052004E0B9
:107D000003208AF8000000E004200699087006208D
:107D100000F038BE9BF80E02032804BF9BF8040253
:107D2000032843D045F68E7050440DF072F99BF84D
:107D3000C70148B39BF8CC0100218BF8CC11012876
:107D400022D18DDF10F044FA01281DD140F2480005
:107D500048F8101CC0F2000027F8A80CA7F1A800F2
:107D600011F0C1FE40F2BA00C0F2000027F8A80CE2
:107D7000A7F1A80011F076FE0DF1300E0EF5C4400B
:107D800010F03AFA0BF0B6F900208BF8C7012AE69A
:107D90000AF5C04008F008FBDBF8DC0101287FF49D
:107DA00061AFDBE97810C96888475BE745F6C470C6
:107DB000504408F0F9FADBF8DC010128B2D1DBE924
:107DC0007810C9688847ADE746F29400504408F03F
:107DD000EBFADBF8880201287FF418AFDBE9A31087
:107DE000C968884712E70DF1400E4EF288510EF532
:107DF000C44904220120C0F20301C9E96010C9E9A5
:107E00006224C9F890411CE04EF2BC60C0F203004D
:107E100011F0D7FE4EF2DC60C0F2030011F0D1FE8B
:107E20000DF1400E4EF288520EF5C4490020042395
:107E30000121C0F20302C9E96230C9E96021C9F831
:107E400090014EF20061C0F203010DF1400E0EF5FB
:107E5000C74011F056FF4DF60C221F21C0F203025D
:107E600013F076F84DF60C220846C0F203021F21EB
:107E700013F06EF80121002004230DF1300E4EF2B4
:107E8000885248F80C1C4EF2006148F8083C48F84B
:107E9000040CC0F20302C8F800000EF5C440C0F2A2
:107EA000030148F8102C11F02CFF4EF2CC60C0F208
:107EB000030011F086FE4EF2EC62C0F2030213F0F2
:107EC00043F80DF1400E4EF238620EF5C44901211F
:107ED000C0F2030200200423C9E960214EF2AC6124
:107EE000C9E96230C9F89001C0F203010DF1400EFA
:107EF0000EF5C74011F005FF4DF24000C0F203003F
:107F000011F079FECDE9B0014DF25000C0F203004E
:107F10004CF6687300904CF63C70B0AAC0F20300B7
:107F2000C0F203032B2111F0A3FF079908700DF194
:107F3000400E4CF62C730EF5C4400DF1400E0EF5BC
:107F4000C742C0F20303C0E960654DF23000C0F2E1
:107F500003002B2100904CF63C70C0F2030011F09E
:107F600087FF0021DBF8E4538BF8A0118021029AEF
:107F7000601CDDF82C800BF5D0798BF8FA478BF874
:107F8000F807CBF87C51CBE96021CBF888010023BE
:107F9000CBF8A4518BF8AC310BF5D676CBE9635016
:107FA0000BF5D274CBE96521CBF8A8510FF0F7FFA0
:107FB0002968002940F02C82297B4FF0FF3204947D
:107FC000CDF81C902A6059B1291D04460846414647
:107FD00011F0A5FC296820464FF0000A013103E0AA
:107FE0000121AA4629730021296010F003F8BAF193
:107FF000000F4FF0010008BF0320307000F0048232
:10800000DBF88C010DF1100ECBF89CA1D0E9040136
:10801000CBE969010EF5C640DBE965983EC83EC66E
:1080200090E83E0000203EC64FF4F3720AF11005BE
:1080300008998BF8F50145F658700E1845F6BE7094
:1080400008440DF5D961049CCBF8E851CBE97B4697
:10805000CBE9759814F07BF90BF2F5100690DBE98B
:1080600069010DF1400E0022CBF8B881CBE9809870
:108070000EF5C4488BF8F4218BF860220BF5D6720C
:10808000CBE97754CBF8E46182E80302CBE97E5474
:10809000CBE98260CBF810120DF1280E0BF5FC7ABB
:1080A00044460EF5C7485146404602F0F7F9D4F869
:1080B0007801042800F0A48101200BF5DE7C8BF808
:1080C000F40198E87D0061467DC1DBF8CC21032AEC
:1080D00004BFDCF8000006280DD0DBE96F93DBF865
:1080E000D001DDF820A00025022A8BF8F45140F0E1
:1080F0006D8300F005BCDBE96D010DF1400EDBE99D
:1081000077520BF5007CDBE96B360EF5C4488CE842
:108110004B000BF50F7C00248BF83C42CBE97E52E0
:108120000024CBE99052CBE9845365468BF880421A
:10813000CBE99236CBE98662CBE98801089946F211
:1081400008000DF1400E0BAA01440EF5C74000F0E7
:1081500021FED8F880010C2800F050819BF88002A5
:10816000D8E96096042808D19BF8C402032804BF0C
:108170009BF8C002032800F02281B9F10B0F40F0F8
:1081800028810BF504764FF48070ABF8E9020020EB
:108190004ECECBF8B002CBE9B816CBE9A8230DF14F
:1081A000400E0BF510710EF5C74000F0CBFCD8F86F
:1081B0008001022800F02681D8E96196C00705D029
:1081C0000120CBF83062CBE98A0902E100225FEAA4
:1081D000C970CBE98A294FF00B09CBF8306237D050
:1081E000DBE98510CBF83462431A28BF1A46120B1C
:1081F00000F01481AC4600258BF88452751CB5FB49
:10820000F2F4DBF81CE204FB1252DBF81032654694
:10821000CBE9903ECBE99210CBF83822CBF8502234
:108220000DF1400E0BF510710EF5C74000F0E2FBAA
:10823000D8F880010C2800F0DF80D8E96096B9F109
:108240000B0F40F0C680F0B24FF00B09022800D1AE
:1082500023E20BF504762C4600250BF5127C47CE65
:10826000DBF834328BF880522546CBE990060BF5CB
:1082700020748CE80E00002601EB0333CBE9951245
:108280000BF517718BF87C6203F5805649C108998C
:1082900046F2240008440BA903F029F8C6B2042EC4
:1082A00000F0A6809BF87C02032805D1089946F2CD
:1082B000450008440DF07BFD0120032E207071D194
:1082C0000BF50476DBF83402CBF85002AE464ECE06
:1082D00046F21C00CBE99016A7F1F801CBE99223F6
:1082E000DDF820C091E87C0060447CC00020754629
:1082F0008BF8680246F231000DF1400E60440EF535
:10830000C741632214F023F80BF51071A7F1A80000
:108310000BAA00F0AFFC57F8A80C0C2866D09BF80D
:10832000680257E92A96042804BF9BF884020328B0
:108330003BD0B9F10B0F4CD10BF5047EDBE98D86F8
:10834000DBE987C10BF51273039500259EE8014216
:10835000DBF8242283E806420BF530738BF8C05219
:10836000CBE9900CCBE99668049309EB063509F14B
:10837000040305F6FC7503EB063403EB0833CBE985
:108380009BC1CBE9A0450BF5187484E801420DF1BF
:10839000400E0EF5C448DDE90354CBE99D26CBF829
:1083A0007C3241E04FF0040977E1089946F24D0034
:1083B00008440DF0FCFCB9F10B0FBDD009E00899A1
:1083C00046F2890008440DF0F2FCB9F10B0F3FF4BE
:1083D000D8AE0120B9F10C0F287000F0C9829AF8CC
:1083E00044000338052840F25F81AFE10720BEE278
:1083F000032020700620BAE20520B8E20320B6E28E
:108400000320B6E20420B2E203200199079AB5E204
:108410004EF2F820C0F2030011F0D3FB4DF6C85025
:10842000C0F2030013F016F80023089E8BF8E43224
:1084300046F248033344CBE9B130CBE9B3120DF136
:10844000400E0BF531710EF5C74002F0F7FCD8F87D
:108450008001022800F07D8208F5C673D8E9619694
:10846000C007A7F1A80C0ECBCBE9A3968CE80E00B1
:1084700003D00120CBF8880205E1A7F1A8020395FB
:10848000089D46F25C0307CA0026B9F1000FE850C8
:1084900005EB0300CBF88862C0E9011223D046F255
:1084A0005800DBF89C2229582844D0E90103CBE985
:1084B000AA030BF52870CBF8B022CBE9A8910CF0F9
:1084C000DDFB0DF1400E02460B460EF5C74011468E
:1084D0001A460CF06BFDD8E96009002842D0D8F8A4
:1084E0008861039DCFE00BF518750BF5337C049480
:1084F0000BF5417427CDDBF87832CBE9B1058BF869
:1085000004638CE80E00039D002601EB0333CBE9E6
:10851000B6120BF538718BF8006303F5805649C12C
:10852000089946F2A80008440BA902F0E0FEC6B282
:10853000042E00F012829BF80003032805D108994D
:1085400046F2C90008440DF032FC01204FF0040946
:10855000032E207004D104994FF00B0908709CE0A1
:10856000049C98E021460024DBE9A8650BF5317EE8
:108570008BF82C430BF52D74DBE99A23CBE9B4542B
:108580000C46CBF8BC52039DDBE9980CCBE9AD96C9
:108590008EE84900CBE9B6C20DF1400E0BF5317102
:1085A0000EF5C74001F07AFFD8F89001CDE90354E9
:1085B000042800F0D08102286BD0D8E96096032807
:1085C00061D00899D8E96205C8F8380246F2381037
:1085D0000C18DBE9AE23A7F1F801C8E98C96204618
:1085E0000CF05CFBDBF8B002854240F096810BF5A5
:1085F000187300268BF86C630FCBDBF87C62CBE939
:10860000B140DDE90354CBE9B331CBE9B526089994
:1086100046F28C000DF1400E0BAA01440EF5C74046
:1086200002F092FAD8F880010C2800F09D819BF8A6
:108630006C03D8E96096032814D1089A46F2A40086
:108640009BF820131044032900F06E81042918BF01
:10865000052907D19BF838235D21032A04BF08446C
:108660000DF0A5FBB9F10B0F0DD1BBF87C03DBF8C6
:108670007C1220F00302830718BF101D0844083045
:10868000CBF87C024BE10120B9F10C0F207004D132
:108690006CE14FF0060901202070012028709AF843
:1086A00044000338052851D8DFE800F00350501D7E
:1086B00012289AF88800042848D19AF8CC00032898
:1086C00004BF9AF8C800032840D10AF1C9003BE072
:1086D0009AF87000042804BF9AF88C00032835D15A
:1086E0000AF18D0030E09AF88800032804BF9AF858
:1086F000840003282AD10AF1850025E09AF8C800F1
:10870000062817D0052804BF9AF8740103281DD144
:108710009AF828110AF1E400032900F00E810429D7
:1087200018BF052912D19AF840215D21032A0DD1E5
:10873000084409E09AF80C01032804BF9AF80801DC
:10874000032803D10AF209100DF031FBB9F10B0F28
:1087500042D10BF5D673DDF820A00BF5007CDBE9E8
:1087600077650FCBCBE9830145F6DC705044A7F168
:10877000F801DBF8E4418CE81C004C22CBE97E6573
:1087800013F0EDF900200DF1400E8BF8600246F277
:10879000290050440EF5C741AF2213F0D8FD45F62D
:1087A000C0700AEB0001A7F1A80001F077FE57F8AE
:1087B000982C042A00F0D68057E92A9357F8940C95
:1087C0000025022A8BF8F45100F09A80032A6CD11C
:1087D000180CC3EA004604E00020DDF820A08BF866
:1087E000F40106990120B0460025087045F6647032
:1087F000504407F092FD0DF1300E70220EF5C44486
:108800000DF1380E0EF5C641204613F0A8F90DF112
:10881000200E07990EF5C5460120702208703046DB
:10882000214613F09CF9BDB30DF1400E31460EF513
:10883000C4400DF1400E0EF5C7444622C0E96098D1
:1088400004F10800DBF8DCA39BF8FA5713F087F972
:1088500004F14F0006F14701292213F078FD40F2A0
:108860003700C0F20000ADF8C8060DF5D96011F070
:108870004CF90DF5D9660DF5C04E51462A463046E5
:1088800023468EF80E5407F00BFEDDF8C8060028CC
:1088900040F09580DDF820A09BF8F8479BF8F90799
:1088A0008442FFF45EABFEF7C3BCDBF8B8119BB2A9
:1088B00012B9042099427BD30DF1400E81420EF58E
:1088C000C44567D31A1A091A8A4269D8DBF8B41169
:1088D0000DF1400E0EF5C744014420460AF0EEFFAC
:1088E000D5F8800110B1D5E961967AE704F10C0161
:1088F000A7F190007022D5E9619813F030F90125B5
:10890000069901200DF1380E702208700EF5C64050
:10891000A7F1900113F023F968E7DDE90354DBF8D0
:108920006002DBE99C127FE59BF8681303297FF462
:1089300099AE9BF8642389218FE69AF87011032978
:108940007FF404AF9AF86C218921032A3FF4F0AE3A
:10895000FCE6032009E0042007E003202070062045
:10896000049C02E0052004E0052020700820287007
:1089700004200199DDE906321870042010700320EC
:10898000087005208BF8F1000DF5CA4D13B0BDE855
:10899000000FF0BD4CF60842C0F2030212F0D4FA08
:1089A0004CF618431046C0F203031A4612F0D0FAF0
:1089B0004CF6F8321846C0F2030212F0C9FA0DF173
:1089C000400E311D0EF5C7447C22204613F0C7F837
:1089D0004CF6C8704CF6B873C0F20300C0F2030343
:1089E00000904CF63C70C0F203002B21224611F09F
:1089F0003FFAD4D4F0B503AF4DF8048D804691F81A
:108A000044000C46DFE800F003979D2A2100266908
:108A10000025A1682246D4E9000C012301EB0631B0
:108A200042F8245FC4E9050C04F1480CC4E90A5576
:108A3000C4E90C55C4E90E55256484F85850C4E9BE
:108A400007618CE80D00616510E094F85C00002877
:108A50006BD104F14C03A16D0DCB34E094F85800B8
:108A6000002862D104F14803616D0DCB0FF0A8FB23
:108A70000123C0B2032884F8583047D12246552636
:108A800012F824CF002552F8041C06EA5C0652F8BE
:108A9000100CACEB060C332601F6FF7182F838504F
:108AA00006EA9C0E0CF03306764402F1280C06EB25
:108AB000161606F00F06052E38BF012582F8245041
:108AC0008CE80D0051630FF07BFB0121C0B203283D
:108AD00084F85C101AD194F82400552294F84810B8
:108AE00002EA5002A0EB02004FF0330202EA9002C9
:108AF00000F03300104400EB101000F00F0271B1D1
:108B00000020042A88BF01200B2100E00421C8E9CD
:108B10000010012084F844005DF8048BF0BD0621AC
:108B20000220042A88BF0B21F1E74DF2B010C0F2F9
:108B3000030012F0A2FC4CF64430C0F2030012F025
:108B40009CFCFEDEF0B503AF2DE9000B82B0804641
:108B500091F8A9000C4638B103282ED04CF65430B9
:108B6000C0F2030012F089FCD4E918214FF0010C87
:108B700094F8AA604FF0000984F8A8608E1A236F59
:108B800040F6FF7ED4E9280584F894C0C4E91A2190
:108B900038BF4E463105C4E91D054FEA1631C4E918
:108BA0001F3118BF0CEB1631C4E92192C4E9231E12
:108BB000C1B90022002100204BE068462146FFF7A2
:108BC00019FF00980C2834D0DDE900100B293AD1A8
:108BD000D4F89C10C0B20978814236D0D4F88C10F9
:108BE0000029E6D004F18003D4F890600139C4F87C
:108BF0008C100DCB551C33440133C4E9215398B379
:108C000004F1A801E36FC4F89C10002184F844101B
:108C10009918B1FBF0F2D4E91AEC02FB1010D4E978
:108C20001D65C4E90065C4E902ECC4F89800206140
:108C3000C3E70220C8F80000032084F8A90002B0AE
:108C4000BDE8000BF0BD012203E0D4F8980001213B
:108C50000022C8F808000120C8E9002184F8A90012
:108C600002B0BDE8000BF0BD4DF6B850C0F20300F5
:108C700012F0F0FBF0B503AF2DE9000B82B0804697
:108C800091F828000C46DFE800F0037D83154D00C5
:108C9000D4E9000C0021D4E90236256984F870106B
:108CA00004F11401C4E90B0CC4E90D36E56381E855
:108CB0004910656204F12C06684691463146FFF77B
:108CC00099FE00980C2809D10C20C8F80000032058
:108CD00084F8280002B0BDE8000BF0BDDDE9000516
:108CE0000B283FD1E8B20228357039D10020214647
:108CF00041F8480F012551E90D2351F8246C41E951
:108D000006214A46C1E9010003EB0633C1E903002D
:108D1000C1E90500C86101F8040C042001F81B5CDE
:108D200041E9040304F13000114602F07AFBC5B2B8
:108D3000042D09D10C20C8F80000042084F8280074
:108D400002B0BDE8000BF0BD94F84400032804BF56
:108D500004F145000DF02BF8032D05D194F82D50AA
:108D60000B2003E0290A01E000210420EAB242EAD4
:108D70000121C8E90001012084F8280002B0BDE803
:108D8000000BF0BD4CF66430C0F2030012F075FB2E
:108D9000FEDED4D4F0B503AF2DE9000782B08046E3
:108DA00091F840000C469146DFE800F003353B5F48
:108DB0002400D4E902654FF0010C40F6FF70D4E9BD
:108DC00000AEAB1B84F838C060634FF0000138BFC1
:108DD0000B4618054FEA1332104618BF0CEB133040
:108DE0002063C4E904A6C4E9065EC4E90812C4E924
:108DF0000A1617E0254615F8840F38B1032863D00A
:108E00004CF61C70C0F2030012F037FB04F14C0367
:108E1000606C0ECB4CE04CF67430C0F2030012F0E4
:108E20002CFBFEDE002865D004F12403666B0138BC
:108E300020630ECB551C334401330029C4E90A5387
:108E400070D0D4E907531A4404F1100EB2FBF1F3C9
:108E500003FB1121002604F144029EE8015084F82E
:108E60008860E16382E82150616504F1440168464D
:108E7000FFF7C0FD009806280BD00C2838D10C2035
:108E8000C8F80000032084F8400002B0BDE80007E5
:108E9000F0BD0020254605F8840FA5F17406A5F164
:108EA000380C55F8483C47CE45E910068CE80E00D2
:108EB000002601EB0333C4E9161204F1600184F8C3
:108EC000806003F5805649C104F16000494602F014
:108ED0000EFAC6B2042E0FD094F88000032804BF07
:108EE00004F181000CF063FF0120032E28700FD1E4
:108EF000206B97E70B200CE0032028700C20C8F8AB
:108F00000000042084F8400002B0BDE80007F0BD76
:108F10000420C8E90006012084F8400002B0BDE842
:108F20000007F0BD4DF6B850C0F2030012F092FAFF
:108F3000F0B503AF2DE9000782B0804691F84900F3
:108F40000C469146DFE800F003B4BA27588C4FF086
:108F5000000AD4E9100184F848A084F8B5A04CF6C2
:108F6000284AD4E900CEC0F2030AD4E90823D4E9A0
:108F70000E65C4E902CEC4E90423C4E92A65C4F835
:108F8000B000C4E91B23C4E91D1AC4E913CEC4E927
:108F90000A65C4E90C0104F14C0568464A462946B5
:108FA00000F0BAFB00980C2809D10C20C8F800008A
:108FB000032084F8490002B0BDE80007F0BDDDE9F8
:108FC0000001C4E90601012084F84800284602F0A7
:108FD000A1F8A06906285DD1D4E902C10020D4E936
:108FE0000423D4E90A6584F8900004F15400C4E92C
:108FF000136580E80C10216604F14C0568464A466A
:10900000294600F05DF800980C2809D10C20C8F81A
:109010000000042084F8490002B0BDE80007F0BD5C
:109020002846DDE9006A02F007F80B2E34D14CF631
:10903000284CD4E90C2E0026D4E90AA1D4E9043046
:10904000C0F2030C84F8B560D4E90256C4E92AA141
:10905000C4F8B020C4E91B30C4E91DECC4E91356C0
:1090600004F14C0568464A46294600F055FB009835
:109070000C2809D10C20C8F80000052084F849000C
:1090800002B0BDE80007F0BD2846DDE9006A02F045
:1090900041F801E0D4E9066A0020C8E9006A84F8D2
:1090A0004800012084F8490002B0BDE80007F0BD87
:1090B0004CF63840C0F2030012F0DFF9FEDED4D4E3
:1090C000F0B503AF2DE90007A0B0804691F8440049
:1090D0000C469146DFE810F009009B01A7011B0038
:1090E0004A0097005C0006013C0194E8031000224E
:1090F000D4E90336656984F8882004F1480243C244
:109100006565C4E90606C4E90851C4E90AC304F167
:10911000480168464A46FFF73DFE00980C2809D1F1
:109120000C20C8F80000032084F8440020B0BDE8FB
:109130000007F0BD94F88800DDE90065042804BF4D
:1091400094F8CC00032800F03C810B2E40F05681AF
:1091500004F118064FF48070A4F8F10000204ECE00
:10916000C4F8B800C4E93A16C4E92A2304F1480156
:109170006846FFF7E7FC0098022815D10C20C8F8D4
:109180000000042084F8440020B0BDE80007F0BDD2
:10919000264616F8880F80B103286AD04CF61C705A
:1091A000C0F2030012F069F9DDE90165C00709D0DA
:1091B0000120A563C4E90C0620E104F15003A06C72
:1091C0000ECB4AE00022F007C4E90C26A56300F0AC
:1091D0001481D4E90710E563431A28BF1A46120B1D
:1091E00000F01B810023666A84F88C306B1CB3FB93
:1091F000F2F5D4F818C005FB1232C4E912C6C4E96E
:1092000014102264A26504F148016846FFF7F2FBDE
:1092100000980C2809D10C20C8F80000052084F81B
:10922000440020B0BDE80007F0BDDDE900650B2E6D
:1092300040F0E480E8B2022800F0DF8000202646FB
:1092400006F8880FA6F17005A6F1380C56F84C3CCC
:1092500027CD46E910058CE80E00002501EB03330D
:10926000C4E9171204F1640184F8845003F58055B1
:1092700029C104F16400494602F039F8C5B2042D51
:109280000BD1032030700C20C8F80000062084F8B1
:10929000440020B0BDE80007F0BD94F88400032826
:1092A00004BF04F185000CF082FD0120032D307015
:1092B00074D104F11806E06BA06504F15C0C4ECE8D
:1092C000C4E9121619A9C4E9142391E86D0069468E
:1092D0008CE86D000020632284F8700004F17100B6
:1092E00013F035F804F148011EA84A46FFF7C2FC06
:1092F0001E980C2809D10C20C8F80000072084F81B
:10930000440020B0BDE80007F0BD94F87000DDE92E
:109310001E65042801BF94F88C00032804F18D0019
:109320000CF045FD0B2E69D104F1180ED4E90F2184
:10933000D4E909360020E56A9EE8005484F8C500A7
:10934000C4E92FA3C4E92665C4E92812C4E916CEEE
:1093500004F1480168464A4600F066F800980C2877
:1093600009D10C20C8F80000082084F8440020B07F
:10937000BDE80007F0BD94F8C500DDE900650528EB
:109380000ED0062837D194F80801032804BF94F8BA
:10939000040103282FD104F205102AE004262DE051
:1093A00094F87001032826D194F82401032814D0DE
:1093B000042812BF052894F83C0103281BD15D2026
:1093C00014E094F8C800032804BF04F1C9000CF0AD
:1093D000EEFC0B2E3FF4BCAE10E094F86C010328B9
:1093E00004BF94F86801032805D1892004F1E00145
:1093F00008440CF0DCFC0B2E00D10B26C8E90065FC
:10940000012084F8440020B0BDE80007F0BD4CF610
:109410004840C0F2030012F030F84DF6C850C0F2D8
:10942000030012F017F8FEDEF0B503AF2DE90007D8
:109430008EB0804691F87D000C469146DFE800F042
:1094400004353B4594C12100D4E9043CD4E91652CB
:109450001E1DD4E9141006EB023A626FD4F878E0CE
:1094600006EB0536C4E91A5A03EB053505F6FC751B
:10947000C4E9063CC4E9182EC4E90810C4E90A6529
:109480001AE0254615F8C00F40B1032800F01181FD
:109490004CF61C70C0F2030011F0EFFFD4F880000E
:1094A000D4E92221D4F89030F7E04CF65840C0F2CD
:1094B000030011F0E2FFFEDE0023C4E9221084F86D
:1094C000A03004F12803C4E9203204F1800108A887
:1094D00001F0B4FC0898022800F0C1800BABDDE974
:1094E000095AC0070DF1040C0ECBC4E90D5A8CE8E3
:1094F0000E0040F0BE8001AA04F13C03002D07CA13
:1095000007C34FF00000206300F0B88004F1380377
:109510000FCBC4E90212C4E90050204623670BF0C8
:10952000ADFB02460B4608A811461A460BF02FFD6C
:109530000898002840F0E4800023D4E90012D4E920
:1095400006EC84F8E83023469DF82400D4E9186539
:1095500003F87C0F04F18800C4E91212C4E9206505
:1095600080E80E40C4F898C004F1800108A800F01B
:1095700063FD0C98042868D002287DD0DDE9085AE4
:10958000032800F0BF80CDE9045A04F59675D4E9AC
:10959000122304A9DDE90A06069028460BF07EFB9B
:1095A000206F86423BD10026D4E91823D4E9060176
:1095B00084F82861E66EC4E92052C4E92230C4E987
:1095C000241604F1800108A84A4601F0BDFA089863
:1095D0000C2830D094F82801DDE9085A032811D16D
:1095E00094F8DC1004F1980003291CD0042918BF5A
:1095F000052907D194F8F4205D21032A04BF08440B
:109600000CF0D5FB0B2D7DD1B4F83801E16E20F0C4
:109610000302830718BF101D08440830E066D4E930
:109620000810226E48E794F824110329EAD194F82F
:1096300020218921E1E70C20C8F80000052084F8EA
:109640007D000EB0BDE80007F0BD0C20C8F800009A
:10965000042084F87D000EB0BDE80007F0BD0C20AA
:10966000C8F80000032084F87D000EB0BDE80007B4
:10967000F0BD0120206345E0062543E0254605F8BE
:10968000C00F55E9180655E92A2155F8583C45E917
:10969000100645E90E2145F8303C0026C4E9252195
:1096A00002EB033304F19C0184F8BC6003F580569F
:1096B00049C104F19C00494601F019FE5FFA80FAA5
:1096C000BAF1040F0BD1032028700C20C8F8000059
:1096D000062084F87D000EB0BDE80007F0BD94F8C8
:1096E000BC00032804BF04F1BD000CF060FB0120A6
:1096F000BAF1030F28704FF0040508BF0B2501E0F5
:10970000DDE9095AC8E9005A012084F87D000EB04D
:10971000BDE80007F0BDD4D4F0B503AF2DE9000FCC
:10972000AFB0804691F869000C469246DFE810F031
:109730000E0008011A013C016B014A003D00620065
:1097400051037303A703D003DD01FA0104F15C06A2
:1097500004F1200ED4E9001904F1300B4CCE404640
:109760009EE820508BE84C0004F1100282E8205063
:109770000A466FF31F32D4F82C80002AC4E902197C
:10978000C4F81C802C9240F0B9804A466FF31F3217
:109790002C92002A40F0B980A9EB01030022B2EB21
:1097A000533F00F0C2808046DDE094F8200104F5CC
:1097B000907680B3032859D04CF6AC60C0F2030019
:1097C00011F05BFECDF81480A04618F8F80F0028C1
:1097D00071D0032840F0BA80A14619F8F40F002890
:1097E0006FD0032800F0FD814CF67C60C0F20300CE
:1097F00011F043FEA14619F8940FDFE810F00500C0
:10980000AD00B3007B02B602CDF81480D4E91C6829
:10981000D4E91E5B5CE2CDF81480B346206FD4E936
:109820001D98D4F884500290E06F0490D4F8800022
:10983000039048464146E66E0BF0EFFA214641F8A8
:10984000880F002001F10C0281F84C000298A1F869
:109850000480C1F81880DDF8148082E803020498BF
:109860008E605E46C8610398C1E9080504F190095D
:109870002CA85246494601F0D1F92C980C280BD15E
:10988000032030700C20C8F80000062084F869001E
:109890002FB0BDE8000FF0BD94F8D400DDE92C5BDB
:1098A00003281AD004280FD0052804BF94F8EC0030
:1098B00003281AD10CE0E06ED4E91FC3D4F8841059
:1098C000F6E0D4E92620FFE094F8EC0003280CD160
:1098D0005D2048440CF06BFA07E094F81C01032863
:1098E00004BF94F81801032806D001200B2D307016
:1098F00040F08B830B2588E38920EAE7002006905F
:109900004CF6A040C0F2030005E0002006904CF6A3
:10991000B040C0F203004CF66C422CA906AB00909C
:10992000C0F20302002006F087FB4CF6C0404CF664
:109930001452C0F20300C0F20302512110F0ECF9FE
:109940004CF62450C0F2030011F097FD4CF68C60E9
:10995000C0F2030011F091FD4CF63430C0F2030068
:1099600011F08BFDFEDEB9EB0106E26338BF002685
:10997000330B30054FF00105184618BF05EB1630C4
:1099800013B9002840F01F81824200F009814FF492
:109990008070D4E90C23A4F815010020C4F8DC0081
:1099A000C4E93319C4E9432304F16C0106A8FFF7A5
:1099B000C9F80698022800F0E980DDE9075BC007D6
:1099C00040F0F080002004F1400181E82108E9071F
:1099D0007DD0D4E90221C4F84CB08B1A28BF1846B8
:1099E000000B00F01B830025D4E90C3C84F8B05038
:1099F0000BF10105B5FBF0F6C4E91B3C06FB10506A
:109A0000C4E91D21E06704F16C0106A8FEF7F2FF2E
:109A10000698CDF814800C2800F0AE80DDE9065BD6
:109A20000B2D40F0F2825FFA8BF0022840F0898221
:109A3000D4E9042306A8A16BD4F80880D4F84C908C
:109A40000BF099FADDE9065B042D40F0DC826169D8
:109A50005945C0F0B180D4E90662A1EB0B0320693F
:109A6000D56800EB0B0206A83146A847DDE9065091
:109A7000042D40F09D8000EB0B012165B1F57F6F57
:109A800000F2988008EB0930A04600F6FC7300F164
:109A9000040C002008F8F80F58E93C25A8F1840EC2
:109AA00058E9320648E923068EE8241048E91E31B9
:109AB000224642F890CF42E9023100219146C2E9A4
:109AC0000132D06009F8641FC4E9282081E0D4E99C
:109AD00002234FF40071D4E90C65A4F81511C4F801
:109AE000DC00C4E94365C4E9332304F16C0106A832
:109AF000FFF728F8069802282BD0DDE9075BC0079E
:109B000040F08382E80700F01C82D4E90C23002691
:109B1000D4E90201C4E91B2304F1740284F89460BF
:109B200082E8030804F16C0106A85246FFF7A2F888
:109B300006980C2816D094F89400DDE9065B0428FA
:109B400004BF94F8B000032840F0F48104F1B100A0
:109B5000EEE10C20C8F8000084F869002FB0BDE8E1
:109B6000000FF0BD0C20C8F800000D2084F869003B
:109B70002FB0BDE8000FF0BD0C20C8F80000042095
:109B800084F869002FB0BDE8000FF0BD0C20C8F8C4
:109B90000000032084F869002FB0BDE8000FF0BD7D
:109BA000052532E2012004F1400181E821082CE280
:109BB000834628E20A2526E24CF634525846C0F283
:109BC000030211F0C1F94DF64050C0F2030011F04C
:109BD00041FC0021D2E9002384F8F01004F1A8012F
:109BE0000DC104F1A80106A800F089FE069803281B
:109BF00000F0D38198B1DDF820B0012844D1D4F829
:109C0000A0004FF6FC7101EA0B015FEA8B7301F1D2
:109C10000401026808BF1FFA8BF111443BE02046A3
:109C200050F8882F81690D68012180F86C10521B53
:109C3000072A35D922F0030284F8F810D4F88C10E2
:109C4000083A8A422ED36169D4F85080884500F2E0
:109C5000EB8104F10809D4E90C16E16606A999E83C
:109C60000C020492E26798220296C4E91C69C4F8C7
:109C700078800393C4E9203511F071FF002004F5CA
:109C8000907B84F82001D4E5079D062D40F0B68135
:109C9000D4F8A000016808310160D4E9282098E7D1
:109CA00088F800100020A14609F8940F8F2259E986
:109CB0001906A9F1280159F848BC59E9238581E81A
:109CC000410109F1010006A949E9075B12F03FFBD8
:109CD000002004F1980184F8C000E06EC4E9200877
:109CE00081E8410104F18800DDF81480C4E9295BB2
:109CF00080E8600804F198062CA852463146FEF729
:109D0000B9FF2C980C2800F0468194F8C000DDE9DA
:109D10002C5B042801BF94F8DC00032804F1DD006B
:109D20000CF045F80B2D40F05E815FFA8BF00128B6
:109D300086F800B030D10020214641F8B40F51E937
:109D40000D2351F8246CC1E90100C1E9030003EBC4
:109D50000633C1E9050003F6FC73C86101F8040C81
:109D6000042041E9062141E9040304F19C00514625
:109D700001F057FB5FFA80FBBBF1040F00F0268176
:109D800094F8B000032804BF04F1B1000CF00FF800
:109D9000BBF1030F40F02D8101204FF0000C84F83F
:109DA0009400D4E90210431A38BF63461B0B00F03D
:109DB0003581E26CD4E90C6E013284F8B0C0B2FB9C
:109DC000F3F5C4E91B6E05FB1322C4E91D1062659F
:109DD000E26704F16C0106A8FEF70CFE06980C2859
:109DE00000F0BB80DDE9065B0B2D40F00E815FFAD1
:109DF0008BF0022884F868B040F0A380D4E90C23EB
:109E00000025D4E90201C4E91B2304F17402666D44
:109E100084F8945043C204F16C0106A85246FEF740
:109E200029FF06980C2800F0A28094F89400DDE940
:109E3000065B042801BF94F8B000032804F1B100C8
:109E40000BF0B5FF0B2D40F0E080D4E902104FF08D
:109E5000000C431A38BF63461B0B00F0DF80626DB5
:109E6000D4E90C6E013284F8B0C0B2FBF3F5C4E95A
:109E70001B6E05FB1322C4E91D10A265E26704F105
:109E80006C0606A83146FEF7B5FD06980C2878D07A
:109E9000DDE9065B0B2D40F0B8805FFA8BF00228FD
:109EA00086F800B048D0D4E90C230026D4E9040198
:109EB000D4E915CE84F8ED60D4E90265C4E939230C
:109EC00004F1C00282E80340C4F8CCC0C4E92065B4
:109ED00004F1700106A85246FFF7A6FA06980C286E
:109EE0006AD094F8ED00DDE9065B05280CD0062861
:109EF00020D194F83001032804BF94F82C010328E2
:109F000018D104F22D1013E094F89801032811D110
:109F100094F84C1104F58470032914D0042918BF57
:109F2000052907D194F864215D21032A02D1084450
:109F30000BF03DFF0B2D68D1E06BD4E90219421CF8
:109F400011E5062561E094F894110329F2D194F803
:109F500090218921032AEAD0ECE70C20C8F8000000
:109F6000082084F869002FB0BDE8000FF0BD0C2078
:109F7000C8F80000092084F869002FB0BDE8000F80
:109F8000F0BD0C20C8F800000A2084F869002FB04A
:109F9000BDE8000FF0BD032019E00599032088F803
:109FA000000089F800000C200860052084F8690092
:109FB0002FB0BDE8000FF0BD0C20C8F800000B204A
:109FC00084F869002FB0BDE8000FF0BD042089F8C7
:109FD00000000C20C8F80000072084F869002FB0AA
:109FE000BDE8000FF0BD01200C2D89F80000F0D075
:109FF0000BE00120042589F8000006E0012088F824
:10A00000000089F80000DDF81480C8E9005B012039
:10A0100084F869002FB0BDE8000FF0BD4DF6C850C0
:10A02000C0F2030011F016FA4CF644524046C0F25A
:10A03000030210F08DFFD4D4F0B503AF2DE9000B6F
:10A040008CB0814691F868000C46DFE810F00C00F7
:10A050000E011401570079003B00A200CE0034012C
:10A060007701A201D301D4E9050194E84C00C4E9C9
:10A07000072004F124024AC202466FF31F32D4E9DA
:10A08000035C002AC4E90C5C029240F0CC800A46D2
:10A090006FF31F320292002A40F0CC80081A002190
:10A0A000B1EB503F00F0D68004F11C064FF48070F5
:10A0B000A4F8150100204ECEC4F8DC00C4E9431614
:10A0C000C4E9332304F16C0106A8FEF73BFD069AB0
:10A0D000022A01D10520CFE0DDE90710D20740F0C8
:10A0E000BC810029C4E9101045D0C90740F0938015
:10A0F0004CF69450C0F203000FF07DFD04F16C01AA
:10A1000006A800F0FCFB069A032A01D10320B3E065
:10A11000002AC9D0DDE90710012A40F09E81D4E968
:10A120000B3C0022D4E90E56D4F81CE084F8B02091
:10A13000C4E92056A4F87C00C4E91BE3C4E91DC1AE
:10A1400004F16C0106A800F072FC0699042903D101
:10A1500004231021042091E00898032901D10799D4
:10A160007BE10229A0D309994FF0000CBDF828200B
:10A170008646A66B63E104F11C064FF40070A4F858
:10A18000150100204ECEC4F8DC00C4E94316C4E932
:10A19000332304F16C0106A8FEF7D4FC069A022AC8
:10A1A00001D1062068E0DDE90710D20704D00122C2
:10A1B0006067C4E91B2150E100226067C4E91B21EC
:10A1C000C9072CD0D4E90965D4E907C3F11A84F88A
:10A1D000C02038BF1146002808BF080BC4E920532F
:10A1E0000138C4E91E0CC4E9226004F17C0106A810
:10A1F000FEF700FC06980C2801D107203CE0DDE9C1
:10A2000006100B2940F02981000640F0AA80A06FBB
:10A210000121C4E9101000214C22A06436E006217F
:10A220004FF0030C1CE1002006904CF65450C0F295
:10A23000030005E0002006904CF66450C0F20300D5
:10A240004CF66C4202A906AB0090C0F2030200205B
:10A2500005F0F2FE4CF6C0404CF67452C0F203001A
:10A26000C0F2030251210FF057FD4CF68450C0F2AA
:10A27000030011F002F9FEDE0423102149F8013039
:10A2800084F868000CB0BDE8000BF0BD236AA15053
:10A2900003EB003000F6FC710430C4E91601E069FC
:10A2A0000023D4E90B1284F88C3004F15803C4E97C
:10A2B0001B30C4E91D1204F16C0106A800F0BEFDBC
:10A2C000069A022A54D0DDE90710D20740F0C58073
:10A2D000E9B109AECDE9061006A84CCECDE90823B8
:10A2E0000AF0CCFC02460B4602A811461A460AF0B8
:10A2F0004EFE02990498E9BB626B9DF80C1012782F
:10A30000914202BF0121C4E913166065C7E7E06C02
:10A3100090BBD4E909230025D4E907C1A66C501AE3
:10A3200084F8B45038BF2846002E08BF060B701EB4
:10A33000C4E91B0CC4E91D31C4E91F2004F17001FC
:10A3400006A8FEF757FB06980C280FD0DDE906108B
:10A350000B2940F08280000603D1E16E48220846B6
:10A3600094E700204FF0020C002279E0092083E7F7
:10A37000082081E7039970E0D4E914230020E16903
:10A3800084F8B4004FF0FF30C4E91823C4E91B126D
:10A39000606704F16C0106A800F0B1FA069A032A7E
:10A3A00001D10A2068E7DDE90710022A05D102225F
:10A3B000C4F88000C4E91E214FE0C4E91E21D20781
:10A3C000C4F880003DD04FF0000CE269256EC4E96E
:10A3D0001BC184F8C8C04FF0FF3CA4F87400A4F877
:10A3E000940004F18400D4E90B36C4E9265C4CC027
:10A3F000C4F8901004F1840106A800F018FB069838
:10A40000042801D10B2037E7DDE90781032805D1B6
:10A410000A0C08464FF0030C414621E0D0B1022857
:10A4200029D1DDE90902B8F1000F0492CDE902104B
:10A4300013D0D4E918638E464FF0010C0146104644
:10A440000EE00020062101224FF0030CC4E91B217D
:10A45000606789E7039806210291020C4FF0030C14
:10A46000C0EA0240C9E902E6C9F810C0C9E9001013
:10A470000120142102E70121002007914DF65C41E3
:10A48000C0F203010A900990042006914DF6CC41D8
:10A49000089006A8C0F203010FF033FCF0B503AF3B
:10A4A0002DE9000B8CB0814691F868000C46DFE87E
:10A4B00010F00C000E011401570079003B00A200BF
:10A4C000CE0034017801A101D201D4E9050194E85C
:10A4D0004C00C4E9072004F124024AC202466FF38B
:10A4E0001F32D4E9035C002AC4E90C5C029240F0FC
:10A4F000CC800A466FF31F320292002A40F0CC80D3
:10A50000081A0021B1EB503F00F0D68004F11C0680
:10A510004FF48070A4F8150100204ECEC4F8DC0082
:10A52000C4E94316C4E9332304F16C0106A8FEF71D
:10A5300009FB069A022A01D10520CFE0DDE90710C8
:10A54000D20740F0BB810029C4E9101045D0C907EB
:10A5500040F093804CF69450C0F203000FF04BFB98
:10A5600004F16C0106A800F0CAF9069A032A01D189
:10A570000320B3E0002AC9D0DDE90710012A40F02A
:10A580009D81D4E90B3C0022D4E90E56D4F81CE09E
:10A5900084F8B020C4E92056A4F87C00C4E91BE389
:10A5A000C4E91DC104F16C0106A800F040FA069947
:10A5B000042903D104231021042091E008980329E1
:10A5C00001D107997AE10229A0D309994FF0000C33
:10A5D000BDF828208646A66B62E104F11C064FF404
:10A5E0000070A4F8150100204ECEC4F8DC00C4E9C8
:10A5F0004316C4E9332304F16C0106A8FEF7A2FA5E
:10A60000069A022A01D1062068E0DDE90710D20788
:10A6100004D001226067C4E91B214FE1002260677A
:10A62000C4E91B21C9072CD0D4E90965D4E907C3C3
:10A63000F11A84F8C02038BF1146002808BF080B63
:10A64000C4E920530138C4E91E0CC4E9226004F1B6
:10A650007C0106A8FEF7CEF906980C2801D1072048
:10A660003CE0DDE906100B2940F02881000640F0AF
:10A67000AB80A06F0121C4E9101000214C22A0641E
:10A6800036E006214FF0030C1BE1002006904CF64B
:10A690005450C0F2030005E0002006904CF66450D0
:10A6A000C0F203004CF66C4202A906AB0090C0F267
:10A6B0000302002005F0C0FC4CF6C0404CF674527A
:10A6C000C0F20300C0F2030251210FF025FB4CF64B
:10A6D0008450C0F2030010F0D0FEFEDE04231021EF
:10A6E00049F8013084F868000CB0BDE8000BF0BDFB
:10A6F000236AA15003EB003000F6FC710430C4E97A
:10A700001601E0690023D4E90B1284F88C3004F1BF
:10A710005803C4E91B30C4E91D1204F16C0106A8FA
:10A7200000F08CFB069A022A53D0DDE90710D2070D
:10A7300040F0C480F1B109AECDE9061006A84CCEB8
:10A74000CDE908230AF09AFA02460B4602A8114600
:10A750001A460AF02BFCDDE902210498002A40F099
:10A76000AD80626B1268914202BF0121C4E91316E9
:10A770006065C6E7E06C80BBD4E909230025D4E915
:10A7800007C1A66C501A84F8B45038BF2846002E72
:10A7900008BF060B701EC4E91B0CC4E91D31C4E9D7
:10A7A0001F2004F1700106A8FEF724F906980C2872
:10A7B00011D0DDE906100B2940F08080000603D19E
:10A7C000E16E4822084693E700204FF0020C002279
:10A7D00077E0082082E7092080E7D4E914230020ED
:10A7E000E16984F8B4004FF0FF30C4E91823C4E9EC
:10A7F0001B12606704F16C0106A800F080F8069A4D
:10A80000032A01D10A2069E7DDE90710022A05D1F0
:10A810000222C4F88000C4E91E214FE0C4E91E21D1
:10A82000D207C4F880003DD04FF0000CE269256EDD
:10A83000C4E91BC184F8C8C04FF0FF3CA4F8740001
:10A84000A4F8940004F18400D4E90B36C4E9265C32
:10A850004CC0C4F8901004F1840106A800F0E7F899
:10A860000698042801D10B2038E7DDE90781032889
:10A8700005D10A0C08464FF0030C414621E0D0B147
:10A88000022829D1DDE90902B8F1000F0492CDE9CF
:10A89000021013D0D4E918638E464FF0010C014624
:10A8A00010460EE00020062101224FF0030CC4E9FF
:10A8B0001B2160678BE7039806210291020C4FF081
:10A8C000030CC0EA0240C9E902E6C9F810C0C9E9B0
:10A8D00000100120142103E70121002007914DF60B
:10A8E0005C41C0F203010A900990042006914DF6E4
:10A8F000CC41089006A8C0F203010FF002FAF0B5AF
:10A9000003AF4DF8048D804691F848000D4660B1C4
:10A91000032840F0808095F84400002840F08180B2
:10A9200005F13403296C0DCB1AE000262A4695E880
:10A93000031001F10804082342F80C6F64452B63EF
:10A94000C5E90466C5E90666C5E90866C5E90A629F
:10A9500046D805F1340C85F844608CE80D00296474
:10A960000DF02EFC0121C0B2032885F8441033D12C
:10A97000D5E90BC10B460CEB010266467BB33046B2
:10A9800010F8014BFF2C12D1904228D07078FF288C
:10A990000DD1B01C904222D0B078FF2807D1F01C16
:10A9A00090421CD0F078043B0436FF28E6D00729FB
:10A9B00023D90CF104000221BCF8064002260AF05B
:10A9C00084F980B2A04215D1296B05291CD9E96A06
:10A9D00001268888096803E00421022600E0002699
:10A9E0000122C8E9006185F84820C8F808005DF830
:10A9F000048BF0BD00200621F2E74CF62C62082003
:10AA0000C0F2030210F0A4FA4CF63C620620C0F239
:10AA1000030210F09DFA4CF61C60C0F2030010F027
:10AA20002CFD4DF2B010C0F2030010F026FDF0B581
:10AA300003AF2DE90007804691F844000C4668B347
:10AA4000032875D194F84000002877D104F1300331
:10AA5000E16B0DCB0DF0B4FB01215FFA80FABAF186
:10AA6000030F84F8401031D1218CA36A8B4257D355
:10AA7000606A0AF0D2F9E16AE369D4E9092C8842F4
:10AA8000B4F820A031D14FF6FF7065462CEA0001E2
:10AA90001646D44602201A46AA4629E0E668B4F8CB
:10AAA00010A094E80510A4F820A0E661C4E9092CE0
:10AAB00086B1D4E905190AF1030E2EF00303E6620C
:10AAC0000831CD184D4508D9002010E0002104269A
:10AAD00003200DE00026012009E09C4517D20EF46A
:10AAE0008031082603209A4602E000201E460021FD
:10AAF0001FFA8AF3C8E90006194308F1080080E844
:10AB00000610012084F84400BDE80007F0BD0026CF
:10AB100004F1300C84F840608CE80D00E16399E7A3
:10AB20004CF65C620846C0F20302194610F010FAB7
:10AB30004CF64C60C0F2030010F09FFC4DF2B010D8
:10AB4000C0F2030010F099FCF0B503AF2DE9000F3F
:10AB500085B0824691F8A8000C4638B103281FD072
:10AB60004CF69C60C0F2030010F087FC94E8400BA8
:10AB70001546206901906069009030460AF07EF821
:10AB800000232A4684F85C3006F10803C4E9083043
:10AB9000019820630098C4E90689C4E90A1B606330
:10ABA00004F1180602A8314600F038F802980C2883
:10ABB00009D10C20CAF80000032084F8A80005B0D1
:10ABC000BDE8000FF0BD94F85C00DDE902890328C0
:10ABD00011D0042806D0052804BF94F87400032877
:10ABE00011D103E094F8740003280CD15D203044A7
:10ABF0000BF0DDF807E094F8A400032804BF94F8F4
:10AC0000A000032808D00120CAE9008984F8A80020
:10AC100005B0BDE8000FF0BD8920E8E7F0B503AF4F
:10AC20002DE9000F81B0804691F844000D46924610
:10AC3000DFE810F00600FD00030118007E00C300ED
:10AC400005F10802EE69D5F80090AB4607CAC5E9E0
:10AC500008910021C5E912092E65C5E90A260BF8FD
:10AC60008C1F0EE0AB461BF88C0F38B1032829D09F
:10AC70004CF60C60C0F2030010F0FFFBD5E912099E
:10AC80002E6D4FF0FF312C4644F8541FE161C4E9AA
:10AC90000511C4E90311C4E901110168216081882B
:10ACA000A1800221808827F81E0CA7F11E000AF05F
:10ACB0000CF8E080002084F834000820C4E90894EF
:10ACC000C4E90A0605F17400514600F0AAFBC6B2B9
:10ACD000042E0BD103200C218BF80000C8F80010C3
:10ACE00085F8440001B0BDE8000FF0BD95F888007C
:10ACF000032804BF05F189000BF059F80120032E49
:10AD00008BF800006BD105F12003002685F85C600C
:10AD100005F1480C0FCB02F0030622F003020833C2
:10AD20002B648CE80F008818C5E90C12C5E90E06E3
:10AD300005F14800514600F074FBC6B2042E09D15B
:10AD40000C20C8F80000042085F8440001B0BDE8DC
:10AD5000000FF0BD95F85C00032804BF05F15D000D
:10AD60000BF025F8032E3AD1D5F83C90B9F1000F3D
:10AD70004CD000202C4644F8600FB9F1210FC4E9F3
:10AD80000100C4E90300C4E90500E06140D2A96BF9
:10AD900020464A4611F0DBFA09F1030000F07C007E
:10ADA00021283DD26A6B00262B6C296A1A4485F84B
:10ADB0005C60C5E91214C5E9140205F1480051466A
:10ADC00000F02FFBC6B2042E0BD10C20C8F80000F7
:10ADD000052085F8440001B0BDE8000FF0BD042057
:10ADE0000BE095F85C00032804BF05F15D000AF054
:10ADF000DEFF0420032E08BF0B20C8E90006012057
:10AE000085F8440001B0BDE8000FF0BD0B20F4E769
:10AE10004CF6CC624846C0F20302202110F098F8AC
:10AE20004CF6DC622021C0F2030210F091F84CF6DF
:10AE3000BC60C0F2030010F020FBFEDEF0B503AFF3
:10AE40002DE9000786B0804691F820000C46DFE827
:10AE500000F0031F310C9100D4E90010D4E9022363
:10AE6000C4E90410C4E9062325E0264616F88C0F31
:10AE700040B1032812D1254615F8880F28B10328C0
:10AE800012D12FE0D4E909101CE0D4E90B101FE027
:10AE90004CF6EC60C0F2030010F0EFFA4CF66C6078
:10AEA000C0F2030010F0E9FA4CF67C60C0F2030037
:10AEB00010F0E3FAFEDE2646002246F8241F7060FA
:10AEC00006F8682F0022254605F8882F45E9171057
:10AED000C4E90D100022D1E9001384F8842004F1A4
:10AEE0003C020BC204F13C0101A8FFF708FD019BE5
:10AEF000032B5AD0BDF80E20012BBDF80C10DDF845
:10AF000008C00BD0022B64D1BCF1060F73D1606B6B
:10AF1000016808310160D4E90D10DBE7666B880732
:10AF2000084621F00305336818BF281D184408306F
:10AF30003060D4E9065E41EA02400122C4E91E0302
:10AF400084F88C20002D84F88820C4E91C2C4FF054
:10AF500000026362A26167D0D4E904064068C4E9D4
:10AF60000A65554684F86C204E46C4E90F302187A7
:10AF7000C4E90CEC04F1280101A8FFF758FD019881
:10AF8000042808D0DDE904A902281AD2D4E9041063
:10AF9000C4E906A98FE70220C8F80000042084F85D
:10AFA000200006B0BDE80007F0BD0320022130708C
:10AFB0002870C8F8001084F8200006B0BDE800072B
:10AFC000F0BDDDE902C214D10021636A55464E4648
:10AFD0001CE0606B1204002101234FF0000C00689C
:10AFE00084F88C3084F88830C4E91E20C4E91C1130
:10AFF0000CE001210AE041EA02420121022384F827
:10B000008C1084F88810C4E91C3CA26708F1080081
:10B01000C8E9001C64C00120C8F8143084F820007E
:10B0200006B0BDE80007F0BD4CF6FC60C0F20300BE
:10B030000EF0E1FDFBF790B890F8441003390529B4
:10B040004CD8DFE801F0034B4B1D122890F8881014
:10B05000042943D190F8CC10032904BF90F8C810FC
:10B0600003293BD1C9300AF0A2BE90F87010042920
:10B0700004BF90F88C10032930D18D300AF097BEB0
:10B0800090F88810032904BF90F88410032925D173
:10B0900085300AF08CBE90F8C510062916D0052917
:10B0A00004BF90F87011032918D190F824110329D6
:10B0B00023D0042917D0052904BF90F83C11032997
:10B0C0000CD15D21E03008440AF071BE90F80811FF
:10B0D000032904BF90F80411032900D0704700F23F
:10B0E00005100AF064BE90F83C11032918BF7047A0
:10B0F0005D21E03008440AF05ABE90F86C11032933
:10B1000004BF90F868110329E8D18921E030084490
:10B110000AF04DBE90F869100639072900F29580B3
:10B12000DFE801F00425931A9334935190F820112D
:10B13000032940F08A8090F8D410032970D00429A4
:10B1400065D0052904BF90F8EC1003297DD15D215D
:10B15000903008440AF02BBE90F89410042904BFE4
:10B1600090F8B010032970D1B1300AF020BE90F8E9
:10B170009410032932D0042904BF90F8B010032999
:10B1800063D145216C3008440AF011BE90F8ED10EF
:10B19000062930D0052904BF90F89811032954D10D
:10B1A00090F84C11032948D0042918BF05294CD127
:10B1B00090F86411032918BF70475D2100F5847071
:10B1C00008440AF0F4BD90F89410042904BF90F8E4
:10B1D000B010032939D1B1300AF0E9BD90F8C010A0
:10B1E000042904BF90F8DC1003292ED171216C30A2
:10B1F00008440AF0DCBD90F83011032904BF90F830
:10B200002C11032921D100F22D100AF0D0BD90F8A5
:10B21000EC10032919D15D21903008440AF0C7BD14
:10B2200090F81C11032904BF90F8181103290CD1C0
:10B230008921903008440AF0BABD90F8941103298E
:10B2400004BF90F89011032900D07047892100F5C0
:10B25000847008440AF0ABBD70470A46016849B1E2
:10B2600001290FD14DF2FF011046C0F203010A225D
:10B270000FF0AEBC4DF2F8011046C0F203010722F8
:10B280000FF0A6BC80B56F4682B0043001904DF23D
:10B290000C104DF21C11C0F2030001AB00901046DF
:10B2A000C0F2030103220FF09FFD02B080BD0A46E9
:10B2B0000168A1B180B56F4682B0043001904DF2B3
:10B2C0000C104DF21C11C0F2030001AB00901046AF
:10B2D000C0F2030103220FF087FD02B080BD4DF2E2
:10B2E0001F111046C0F203010C220FF071BCB0B563
:10B2F00002AF84B0044690F820000D4618B1032830
:10B300001FD1E06923E0D4E901E3012143EA0E0003
:10B3100000054FF0010003D084F8201004B0B0BD48
:10B32000B3EB0E03217638BF002340F6FF7C180BE9
:10B330001A0518BF01EB1330C4E903E0C4F814C0C8
:10B340000DE04DF29010C0F2030010F096F80146A7
:10B350002A4605F01AFBC0B2032813D12069C0B1F8
:10B36000E168013862690A440132C4E90320080B2C
:10B3700028DF0CF02DFFA0BB49F2BC00C2F2020096
:10B38000E061E4E704280AD1032184F8201004B026
:10B39000B0BD0320012184F8201004B0B0BD07F82F
:10B3A000170C40F25900C0F2000027F8160CA7F164
:10B3B00016000EF098FB40F2B900C0F20000ADF8A4
:10B3C0000C0003A80EF04EFBA7F117000CF00AFFCB
:10B3D00007F090FE17F8170C012184F8201004B034
:10B3E000B0BD40F25A000191C0F2000027F80E0CE7
:10B3F000A7F10E000EF077FB40F2BA00C0F2000099
:10B4000027F80A0CA7F10A000EF02CFB01A80CF09B
:10B41000F3FE07F06FFE0020012184F8201004B035
:10B42000B0BDB0B502AF82B00446007D0D4670B12C
:10B43000032848D1206901462A4605F0A6FAC0B281
:10B440000121042808BF0321217502B0B0BDE068C6
:10B45000810704D001210120217502B0B0BDD4E9DB
:10B46000011242EA01039B0704D002200121217549
:10B4700002B0B0BD920829DF0CF0AAFEE8B140F29C
:10B4800058000091C0F20000ADF8040001A80EF0D1
:10B490002AFB40F2BA00C0F2000027F80A0CA7F11C
:10B4A0000A000EF0DFFA68460CF0A6FE07F022FE56
:10B4B00000200121217502B0B0BD49F2BC00C2F2EA
:10B4C00002002061B7E74DF2A010C0F203000FF0B8
:10B4D000D4FFD4D4F0B503AF2DE9000FADF2544D35
:10B4E000814600F51C7009908B4699F8080009F117
:10B4F0008602CDF820B0DFE810F00600EC0531122E
:10B50000390025001800D9F80000C9F80400017FAF
:10B51000012940F0358100214E4606F8141F00F144
:10B520000804079246F8084C2DE04D46079215F89E
:10B53000140F002800F0F580032842F0F781D9F8B5
:10B540001040F2E0C846079218F84C0F00285DD072
:10B55000032840F01786CA461AF8480F00287AD008
:10B56000032840F01586D9F84440A5E04E460792DE
:10B5700016F8140F28B1032842F0D881D9F81040EA
:10B5800003E0D9F80C40C9F810400CF008FD216820
:10B59000002942F02283227B4FF0FF33DBF80010BA
:10B5A00023604AB1221D054610460EF0B8F9216805
:10B5B00028460025013103E00121254621730021A1
:10B5C00021600CF017FD0120002D4FF0010108BF94
:10B5D000032131703DD028740A950AAD284604F045
:10B5E0009CFED9F80400017F002900F0788550F80E
:10B5F0001D1BC846C9E903010FCD0FC61FCD1FC6CD
:10B6000095E81F001FC6002008F84C0FD9F80C0061
:10B610000078142881F0CC80742148F23C7200FB41
:10B6200001F3C2F20202D35CDB076ED010FB0120F3
:10B63000D9F8104040880DF096F905460020CA461A
:10B640000AF8480F0AF105004AE90D544AF82C0C93
:10B6500005E003209EE0D9E90554D9F81C004E46C8
:10B660004FF0000B46F8204F06F129013446706078
:10B6700044F808BFC6E90561C6E907450DF07FFA41
:10B68000002800F00E852868002841F0DA816868FB
:10B690004FF0FF31DDF820B00028296041F04F80E5
:10B6A0004DF2206106F11400C0F203010022C5E949
:10B6B0000020A960C9F84440204621465A4605F0BA
:10B6C000BDF830B1032088F800008AF8000004209B
:10B6D00060E0D9F840400020C9F8400054B10DF0B6
:10B6E0004EFA002801F007802068002841F00E8003
:10B6F00000206060D9F82800012803D1D9E90B1097
:10B70000C968884701208AF8000001204D4689F861
:10B710004C00002005F8140F55F8100C083045F8BF
:10B72000080CD9F80C40C9F810400CF038FC21681E
:10B73000002942F05282227B4FF0FF33DBF80010E9
:10B7400023604AB1221D064610460EF0E8F8216833
:10B7500030460026013103E00121264621730021F5
:10B7600021600CF047FC002E4FF0010008BF0320C1
:10B7700028700ED000200A9630740AA804F0CDFD7F
:10B78000012089F8080000200DF2544DBDE8000F9B
:10B79000F0BD052099F8A51089F80800DFE811F040
:10B7A0000900FE04DE103B004700600096008500A3
:10B7B000A70040F200106324D9F89930C0F20110BC
:10B7C000D9F88010C0F290144FF00616C9F8A030D6
:10B7D000D9F896204B46C9F86E000020C9E91D64CF
:10B7E0004FF4FA7C40F6AC2543F89D2F4A460126DB
:10B7F00042F8543FC9E9195C4D46A9F86C00A9F814
:10B800005800C9F85010C9E917264C6805F8B00F60
:10B8100045F8084C83E04D4615F8B00F002800F0BD
:10B820007C80032842F08280D9F8AC4079E099F816
:10B83000180109F58C78002800F0A980032840F051
:10B84000BF84CB461BF8D00FABF12004DFE810F02B
:10B850000500D0048610A4028E02D9E92E10A0E0C3
:10B86000494611F8DA0F0291DFE810F03F01BC04FD
:10B870007810070052024109000599F81C0109F5EA
:10B880008E73002800F0A082032840F0B78499F856
:10B89000180109F58C7A0693002800F01B83032811
:10B8A00040F09A84D9F8146183E14E4616F8FA0FF5
:10B8B000A6F15201002800F0E981032800F08885F4
:10B8C0004DF2D070C0F203000FF0D7FD4D4615F8D1
:10B8D000FA0FA5F15201002800F0DB81032800F0E7
:10B8E00039854DF2C070C0F203000FF0C6FDC846A6
:10B8F00018F8F00F002800F0D181032840F066848A
:10B90000CA461AF8EC0F002800F0FD81032840F029
:10B910003F84D9F8E84000F0E4BDD9F8A840C9F860
:10B92000AC400CF03CFB2168002942F05681227BA0
:10B930004FF0FF33DBF8001023604AB1221D0646AA
:10B9400010460DF0ECFF216830460026013103E07F
:10B95000012126462173002121600CF04BFB002EB3
:10B960004FF0010008BF0320287029D0C9F87C607F
:10B9700009F1580130696822C9E92A010AA9284653
:10B9800010F0EDF809F58C78002089F818010020F6
:10B99000CB460BF8D00F5BE90A10ABF120044BE962
:10B9A0000610C9E92C10002189F8CF10014651F882
:10B9B000042F002A1CBF8068002804D1042511E050
:10B9C000032000F09CBDDAA80AF007FABDF868036E
:10B9D000002800F06681DB98002607254FEA106AF0
:10B9E0000002069001208BF8000094F82000042843
:10B9F00022D0DDF820B0032855D194F85C0003284C
:10BA000029D1CDE904A60020666D606556B10DF020
:10BA1000B6F8002800F06F863068002841F0A0805A
:10BA200000207060606BDDE904A6012813D1D4E921
:10BA30000E10C96888470EE094F86600032804BF1A
:10BA400094F85C00032800F0B28104F11E0009F0B4
:10BA5000E0FADDF820B0E07F18B394F8240000216C
:10BA600084F8241001281CD18DDF0CF0B1FB0128D3
:10BA700017D140F24800DA91C0F20000ADF8B802E8
:10BA8000AEA80EF030F840F2BA00C0F20000ADF8F7
:10BA9000B802AEA80DF0E6FFDAA80CF0ADFB07F097
:10BAA00029FB0020E0770120082D88F8000040F0F5
:10BAB0005483484665A900F8A46F09F1AC0CC9F895
:10BAC000A8007CC9ACE87C007DC9ACE87D0040F2F0
:10BAD000651208884946ACF80000002001F8DA0F2A
