:020000022000DC
:10600000000004200161020025D202002FED0200F1
:1060100025D2020025D2020025D202000000000095
:1060200000000000000000000000000025D2020077
:1060300025D202000000000025D2020025D2020075
:1060400025D2020025D2020025D2020025D202006C
:1060500025D2020025D2020065D0020025D202001E
:1060600025D2020025D2020025D2020025D202004C
:1060700025D2020025D2020025D2020025D202003C
:1060800025D2020033CA020025D2020025D2020026
:1060900025D2020025D202005FB8020025D20200FC
:1060A00025D2020025D2020025D2020025D202000C
:1060B00025D2020025D202000000000000000000EE
:1060C00025D2020025D2020025D2020025D20200EC
:1060D00025D2020025D2020025D2020025D20200DC
:1060E00025D2020025D2020025D2020000000000C5
:1060F0000000000025D202000000000025D20200AE
:1061000007F091F80E480F490022814201D004C0E7
:10611000FBE70D480D490E4A814202D008CA08C06B
:10612000FAE70C484FF47001026842EA010202608B
:10613000BFF34F8FBFF36F8F02F006FB00DE00004E
:1061400078000220A08F02200000022078000220A8
:106150003802030088ED00E0F0B503AF2DE9000F31
:1061600089B00B8814460568102B16D000221B2B13
:1061700012D0262B6DD040F25A000493C0F20000DA
:10618000ADF8080002A807F0DFF904A801F0C1FD8E
:1061900006F02AFB07F016FA5BE08146C87BB1F8EF
:1061A00004800E4604F0DDF907F8390C40F22700B0
:1061B000C0F20000B168ADF8100004A8D6F80B20BA
:1061C0000291D6E904ABCDF80B2007F0BDF940F2FF
:1061D0008100C0F20000ADF8100004A807F07FF9BC
:1061E000A7F1390004F065FA40F20B0004AEC0F2EA
:1061F0000000ADF81000304607F071F902A804F075
:10620000D1F94FF2C830C0F2020007F068F906F089
:10621000EBFA17F8391C06F10A03DDF80B20CDF86C
:106220001620F21C0298CDF813004046CDF81EB09F
:10623000CDF81AA08DF81210ADF8108002F0EDFE26
:10624000C00704D04046142176DF012200E003227B
:106250004846C9B28668C5E9002105F0B5FAD6E915
:1062600000320225B168012B356004D15268054621
:1062700008469047284605F0D2FA0020206009B071
:10628000BDE8000FF0BDD0B502AF86B004464FF6B2
:106290009810C0F202000021CDE900046A4694F88B
:1062A0004C000491CDE9022258B1032826D194F87C
:1062B000480058B1032827D194F8440080B9A06A57
:1062C00008E0206A84F84810606200E0606A84F8A0
:1062D0004410A062C4E90B10C4E90D11C4E90F1108
:1062E00004F12C0002A900F0F5FD032084F84C0015
:1062F00084F8480084F8440006B0D0BD4EF65470CF
:10630000C0F2020008F096FA4EF6B450C0F2020055
:1063100008F090FAF0B503AF2DE9000F95B0814673
:106320004FF69810C0F202000025CDE9060906A834
:1063300009F580610A95CDE9080009F12000039074
:1063400099F88B02029150B3032840F08C8199F8A0
:10635000040309F5247B09F54178002800F04A81FF
:10636000032840F0748199F8010309F201320028F2
:1063700000F04381032840F0708199F8E0025C4608
:1063800009F5387B0592002800F03A81032800F0D7
:1063900040824EF6D460C0F2020008F04BFAD9F801
:1063A0008002C9F8300240F22E00C0F20000ADF8C1
:1063B00030000CA807F0DAF840200C958DF8360074
:1063C0004FF48040ADF834000CA806F01DFC41F2FB
:1063D00000004FF48073C0F202104FF4B066C9F8A9
:1063E00073020120062189F87202A9F850024EF6C4
:1063F0007472C9E98D03C0F20202C9E99106022054
:1064000089F8521240F2011189F884024FF0663087
:10641000C0F20331C9F885024FF66670C9F86612FA
:106420001821A9F8890209F50D70C9F854124FF026
:106430000811C9F86052A9F86A52A9F86452A9F87B
:106440004C52A9F87052C9F86C52C9E98F2103F077
:1064500065FE09F52171C9F8780205F01EFFD9F82B
:1064600078120CA802F046F8DDE90C10CA0740F0DB
:10647000CC80A9F87E02090CD9F87802A9F87C1220
:1064800001F0D9FF002800F0D2800146D9F830028F
:1064900002F048FA40F20C514FF40040C5F20001FE
:1064A00003224FF400730860C1F8302204260B6009
:1064B0004FF48063C1F8182246F200150B604FF4C8
:1064C0000063C1F81C22C4F20005C1F8003340F695
:1064D0000023C5F2000346F2145CDA62C4F2000C39
:1064E000C1F80003DA630E60C1F8FC2140F6013206
:1064F000C0F2010202F5A8501E60C5F81004002089
:106500002860C1F8206202F5C851CCF8002068600C
:106510001E61CCF8041002F5D851A8609E61CCF839
:10652000081042F20241C2F20361E860C9F8141295
:1065300042F20001C0F60131C9E98000C9F8101229
:10654000022189F81C1240F60921C2F62B71C9E913
:106550007A00C9E97400C9E96E00C9E96800C9E9AF
:106560006200C9E95C00C9E95600C9E95000C9E9FF
:106570004A00C9E94400C9E93E00C9E93800C9E94F
:106580003200C9E92C00C9E92600C9E92000C9E99F
:106590001A00C9E91400C9E90E00C9E90800C9F8E0
:1065A000181289F8F80189F8E00189F8C80189F81A
:1065B000B00189F8980189F8800189F8680189F8A3
:1065C000500189F8380189F8200189F8080189F813
:1065D000F00089F8D80089F8C00089F8A80089F887
:1065E000900089F8780089F8600089F8480089F8F7
:1065F000300050E0D9E9A90176E0D9F8E81281E04D
:10660000CDF81080D9E9AB58D7E00C9040F24900A2
:10661000C0F2000027F81E0CA7F11E0006F094FF40
:106620000CA801F063FB06F0DFF806F0CBFF40F2A8
:106630004800C0F20000ADF830000CA806F084FF5E
:106640000CA801F08CFB06F0CFF806F0BBFF4EF66D
:106650004460C0F2020008F0EDF84EF63460C0F27B
:10666000020008F0E7F809F5896008A900F072FC5B
:10667000002840F0D281D9F8F00440B999F83405E7
:10668000032804BF99F83005032800F0678109F555
:10669000247002F0DCFB40F201104FF698134FF625
:1066A0007415C9F82A024FF4C87009F50871002260
:1066B000C0F20205C9F82402C0F20203D9F8780238
:1066C0001F26043589F82822A9F8202209F54178E7
:1066D00089F8042309F5247B89F89022C9E9A55695
:1066E000C9E9A732C9E9A901C9E9B9015A4692E83D
:1066F000790009F53B7C09F201328CE87900002031
:1067000089F8010399F8EC3209F53C7E0124CDE9C2
:10671000048299F8ED0209F540789EE8445089F822
:106720000043B9F8EE52DFE803F003241A1C0C0012
:106730000EA8002380E8445001208DF84900002075
:1067400023E00723CDF8332000228DF849308DF85F
:106750003760ADF831501092CDE90ECE14E002232F
:1067600008E00023CDE90E26062210938DF849207B
:106770000BE003238DF8310000208DF849300D9295
:10678000ADF8325010900E9001238DF84A000CA8FD
:1067900000258DF830308DF8485003F0F3F90328C8
:1067A00040F0FF8089F8E05248F6C015C2F20205B9
:1067B0005C46C9E9AB5809F5387B09F52D704FF0F7
:1067C000000A09F52E7609F53171C9E9B310C9E956
:1067D000B565C9E9AD8A05F0AAFDDDF8108000288D
:1067E00000F022812868002840F02A8168684FF074
:1067F000FF312960002840F048814EF6546109F5C8
:106800003370C0F202010022C5E90020A960C9F876
:10681000DC6209F5377008A901F0D0FA002840F0D1
:10682000B980D9F8D8520020D9E9B16AC9F8D8029C
:1068300055B105F07CFD002800F00881286800288B
:1068400040F0178100206860D9F8B802012803D110
:10685000D9E9AF10C96888470120042E8BF80000E1
:1068600000F09B800599032E88F80000087040F026
:10687000218140F22F0089F890A2C0F20000ADF80B
:1068800030000CA806F072FE02990020039E09F564
:106890001F7309F52572C9E9FA00C9E9F400C9E9CD
:1068A000EE00C9E9E800C9E9E200C9E9DC00C9E98C
:1068B000D600C9E9D000C9E9CA00C9E9C400C9E9DC
:1068C000BE00C9E9B800C9E9B200C9E9AC00C9E92C
:1068D000A60089F8F80389F8E00389F8C80389F865
:1068E000B00389F8980389F8800389F8680389F868
:1068F000500389F8380389F8200389F8080389F8D8
:10690000F00289F8D80289F8C00289F8A802C9F80B
:106910009402C1E9000089F81004C1E9060089F871
:106920002804C1E90C00C1E9120009F5267189F8B3
:106930004004C9F85064C9F85414C9F85824C9F877
:106940005C34C9F86044C9F8F004C9F8F444C9F8E3
:10695000F83489F8340589F87C0484E6D9F8285598
:106960000020C9F828054DB105F0E1FC00286DD0E4
:106970002868002840F0838000206860D9F810055E
:1069800001287FF484AED9F81415D9F81805C96820
:1069900088477CE603208BF80000059903200870E7
:1069A00032E0064698F800008A4688F80050012830
:1069B00023D140F20000C2F20200007874DF04F03C
:1069C000EDFF012819D140F23B000C91C0F200000C
:1069D00027F81E0CA7F11E0006F0B6FD40F2860057
:1069E000C0F2000027F81E0CA7F11E0006F077FD8C
:1069F0000CA805F03FF805F0F7FE05990120DDF839
:106A00001080042E087053D1032088F8000089F804
:106A10008B0215B0BDE8000FF0BD042089F88B0291
:106A200015B0BDE8000FF0BD0120CDF840A00D90DD
:106A30004FF2C070C0F20200CDF83CA00C900FE005
:106A40004FF6F400C0F2020006F0DDFD0121002047
:106A50000D914FF2C071C0F2020110900C910F9095
:106A600004204FF638010E900CA8C0F2020106F087
:106A700060FE4FF61410C0F2020006F0C4FD4FF69F
:106A80000410C0F2020006F0BEFD012100200D91AD
:106A90004FF67001C0F2020110900F9004200C918B
:106AA0004FF6E4010E900CA8C0F2020106F041FE80
:106AB00088F800004EF68C704EF6E463C0F20200D7
:106AC0000CAA00904EF6F460C0F20200C0F202037D
:106AD0002B21CDE90C6A06F085FEFFF73DBB0A4687
:106AE000016849B101290FD14EF626711046C0F256
:106AF00002010A2207F0D3BB4EF61F711046C0F206
:106B00000201072207F0CBBB80B56F4682B004308C
:106B100001904EF630704EF64071C0F2020001ABAB
:106B200000901046C0F20201032207F0BCFB02B045
:106B300080BDF0B503AF2DE9000F8FB00C46116892
:106B4000002900F05D812188112917D1154684683C
:106B500004F03AFED4E900320226A168012B266037
:106B600004D15268044608469047204604F057FE78
:106B7000002028600FB0BDE8000FF0BD0068264679
:106B8000D0F8008036F8040F02F00AFAC00700F0CF
:106B90004281208807F8351C502800F09F8051283A
:106BA0002DD0522840F0248140F22100C0F2000094
:106BB000ADF82C000BA806F0C7FC40F20600C0F2AE
:106BC0000000ADF82C000BA806F089FC304606F05A
:106BD00086FC05F009FE308802F0E2F9C00700F0FB
:106BE0000781A7F1210007F8211C02F06CFB0028A7
:106BF00000F0E380CA6BA7F121019047F4E0A0798F
:106C0000CDF81C80022840F01781208A059040F2C0
:106C10002400C0F20000B4F812A0ADF82C000BA8BC
:106C2000069107F8211C06F08FFC40F20600C0F226
:106C30000000ADF82C000BA806F051FC04F108068A
:106C4000304606F04CFC40F20A00C0F20000ADF8FD
:106C50002C000BA806F043FC0BA8CDF82CA006F0E6
:106C600016FC40F205090EA8C0F20009ADF83890F4
:106C700006F035FCDDF82C8004F1140BB8F1000FA0
:106C800008D05D46284606F0A1FCB8F1010805F1E0
:106C90000105F7D105F0A8FD14F80E3F581EC0B24B
:106CA000052840F2ED8040F27400C0F20000ADF81B
:106CB0002C000BA806F048FC0BA8ADF82C9006F0B1
:106CC0000EFC204606F082FC05F08EFDA7F12100A7
:106CD00001F02FF90FB0BDE8000FF0BDE08907907B
:106CE00040F22200C0F20000B4F81090ADF82C0081
:106CF0000BA806F029FC40F20600C0F20000ADF837
:106D00002C000BA806F0EBFBA61D304606F0E7FBB7
:106D100040F20A00C0F20000ADF82C000BA806F00B
:106D2000DEFB0BA8CDF82C9006F0B1FB40F205007D
:106D3000C0F20000ADF838000EA806F0D0FBDDF878
:106D40002CB004F1120ABBF1000F08D055462846BA
:106D500006F03CFCBBF1010B05F10105F7D105F094
:106D600043FD14F80C0F411EC9B206290DD2338819
:106D7000A7F13502009041460798CDE9010A09A81C
:106D8000CDF80C9001F028FC32E040F27300C0F224
:106D90000000ADF82C000BA806F0D6FB40F2050071
:106DA000C0F20000ADF82C000BA806F098FB2046BE
:106DB00006F00CFC05F018FD1AE0A7F121000021F7
:106DC00005F088F802280FD0CDE90B0140F244000D
:106DD000C0F20000ADF838000EA806F0B5FB0BA815
:106DE00000F0CBFF05F000FDA7F1210002F02FF825
:106DF000A7F1350002F02BF80FB0BDE8000FF0BD91
:106E00004FF228104FF25012C0F20200C0F20202FC
:106E1000282106F099FC40F27200C0F20000ADF8A3
:106E20002C000BA806F090FBA7F11D0000F0B8FFA6
:106E300005F0DAFC06F0C6FB012816D140F223006B
:106E40000D46C0F20000ADF82C000BA806F07CFB4C
:106E500004F1080000F037FF05F0C6FCE38909A83B
:106E600022890799009501F0ABFA40F27500C0F253
:106E70000000ADF82C000BA806F078FB06F0A2FB92
:106E800005983288CDE9000B06980799039009A868
:106E9000CDF808A001F0ABFA0168012902D1022166
:106EA0000160FEDE80B56F4686B0012100200191B1
:106EB0004FF21021C0F20201049000914FF27821AC
:106EC000039004200290C0F20201684606F031FCF3
:106ED000FFF72FBEB0B502AF0446006820B1E068EE
:106EE000F0B12046FFF7D8FF204610F8092F52B125
:106EF000032A29D1227A012A07D14FF2C810C0F201
:106F0000020007F097FC002222720D4601F0E4F81F
:106F1000E06840F2033229462281002818BFB0BD44
:106F2000207D38B1032808D04FF2D810C0F20200FB
:106F300007F080FC04F11500206104F1100001F05D
:106F40005DF803202075B0BD4FF20800C0F20200CA
:106F500007F070FCF0B503AF2DE9000F8DB083464C
:106F6000D0F8A8000C460591002840F09F809BF8BF
:106F7000EC0070B1032840F00B81D94619F8E80FF6
:106F800050B3032858D04FF21810C0F2020007F097
:106F900051FCDBF8AC000078142880F0FF807421ED
:106FA00048F2880200FB01F3C2F20202D35CDB0765
:106FB00077D010FB0120DBF8B080408804F0CEFFD2
:106FC00006460020D94609F8E80F09F1050049E90D
:106FD0000D6849F82C0C03E0DBE92D68DBF8BC00F8
:106FE0005D464FF0000A45F8C08F05F12901A8461B
:106FF000686048F808AFC5E90551C5E9078605F09E
:1070000096F9002800F099803068002840F0A180AF
:1070100070684FF0FF313160002840F0C680059C59
:107020004FF2980105F11400C0F202010022B16094
:10703000C6E90020CBF8E4800BF1E400214600F023
:10704000BDFE98B1032001228BF8EC008BF8E8001C
:10705000DBE9000108432ED0B0FA80F0400910436C
:1070600000F00C840DB0BDE8000FF0BDDBF8E0507F
:107070000020CBF8E0004DB105F059F900286ED0A2
:107080002868002840F07E8000206860DBF8C80097
:10709000012803D1DBE93310C9688847012089F84A
:1070A00000000120CBF8A8008BF8EC000022DBE9FF
:1070B00000010843D0D1CDE901020BF10800049092
:1070C00040F210599BF83400C5F20009DFE810F0D7
:1070D00006008000800014001D00BE0306A84FF4C7
:1070E0000042002306F0D0F8DDE906019DF82020DB
:1070F000CBE90E018BF840200BF13800214606F059
:10710000E9F8002865D00320AEE3D84618F8A00FB0
:1071100040B1032800F01F814FF2B820C0F20200F6
:1071200007F088FBDBE92412A8F16800CBE92612FE
:10713000D1F8E021D20766D15FE10120CDF828A087
:1071400007904FF2C070C0F20200CDF824A0069064
:107150000FE04FF6F400C0F2020006F054FA0121ED
:10716000002007914FF2C071C0F202010A9006910F
:10717000099004204FF63801089006A8C0F20201D9
:1071800006F0D7FA4FF60410C0F2020006F03BFA00
:107190004FF28800C0F2020007F04CFB4FF2B83209
:1071A0001421C0F2020206F0FFFA0121002007912B
:1071B0004FF67001C0F202010A9009900420069176
:1071C0004FF6E401089006A8C0F2020106F0B1FAF9
:1071D000FEDE00205A4642F8200F904652F8181C56
:1071E000C2E90100C2E9030042F8040C08F8800F6C
:1071F00002F11800C2E91C12CBE92612D1F8E021F5
:10720000D20700F0FA80D1E97A12CBE90E1206F02B
:107210001BF8D0F1A3004FF0000272EB010080F0E8
:10722000EC80DBF898104FF0010C4FF43E734FF4F4
:107230003E7091F8F821202A02F01F0238BF6FF04B
:1072400007030CFA02F249F803204FF43E7391F859
:10725000F921202A02F01F0238BF6FF007030CFA51
:1072600002F249F803204FF43E7391F8FA21202AE4
:1072700002F01F0238BF6FF007030CFA02F249F860
:1072800003204FF43E7391F8FB21202A02F01F02E5
:1072900038BF6FF007030CFA02F249F8032091F8A7
:1072A000FC11202901F01F0138BF6FF007000CFA14
:1072B00001F149F8001009F54071DBF898E00A4641
:1072C0009EF8F101202838BF4A46126800F01F00DE
:1072D00022FA00F0C00748D19EF8F3010A462028A0
:1072E00038BF4A46126800F01F0022FA00F0C007BB
:1072F0003BD19EF8F5010A46202838BF4A4612685D
:1073000000F01F0022FA00F0C0072ED19EF8F7010E
:10731000202838BF4946096800F01F0021FA00F014
:10732000C00722D100210EF5F87C0EF5F9720EF59A
:10733000FA730EF5FB708BF88C10CBF87C008BF891
:107340007810CBF868308BF86410CBF854208BF8A9
:107350005010CBF840C005990BF1400000F00AFF37
:10736000002840F07D82DBF898E09EF8F8214FF489
:107370003F734FF43F7102F01F00202A4FF00102CB
:1073800038BF6FF0030302FA00F049F803004FF42E
:107390003F739EF8F901202800F01F0038BF6FF0FE
:1073A000030302FA00F049F803004FF43F739EF81C
:1073B000FA01202800F01F0038BF6FF0030302FA23
:1073C00000F049F803004FF43F739EF8FB012028BA
:1073D00000F01F0038BF6FF0030302FA00F049F815
:1073E00003009EF8FC01202800F01F0038BF6FF05A
:1073F000030102FA00F049F8010000244FF0010CEB
:107400000021DBF898204FF43E750A4492F8F821E9
:10741000202A02F01F0238BF6FF007050CFA02F2B3
:1074200049F8052009F54075DBE9262092F8F1615D
:107430002A46202E38BF4A46126806F01F06F24040
:1074400002F001024254E20711D0DBE926022B468A
:107450000A4490F8F301202838BF4B461B6800F01F
:107460001F0023FA00F000F00100507113E0DBE987
:10747000262328465E5C92F8F321202A38BF48462E
:10748000006802F01F0220FA02F003EB010200F094
:1074900001005071BEB3DBE926022B460A4490F886
:1074A000F501202838BF4B461B6800F01F0023FA67
:1074B00000F000F001009072DBE926020A4490F827
:1074C000F701202838BF4D462B6800F01F0023FA33
:1074D00000F000F00100D0730124DBF898004FF4B5
:1074E0003F720844013190F8F801202800F01F0095
:1074F00038BF6FF0030205290CFA00F049F80200CA
:107500007FF47FAF2BE0DBE926022C460A4490F89B
:10751000F5015679202838BF4C46236800F01F003B
:10752000002E23FA00F000F001009072C4D1DBE9D4
:1075300026020A4490F8F701937A202838BF4D4676
:107540002E6800F01F00002B26FA00F000F001006A
:10755000D073C1D1DBF89C000844C47BBDE7DBF8E5
:107560009800E10704D0049C0021C0E978110FE0E5
:10757000D0F8E001049CC0070AD105F063FEDBF8F7
:1075800098204FF0000C0123C2E9783CC2E97A014F
:107590000DF1180C01204FF0180A00254FF00008DB
:1075A0008BF8A00007E004EB0A000AF1050A04EBDF
:1075B0000A0900F10108B8F1000F18BFC84533D11E
:1075C000BAF12C0F69D004EB0A000AF1050A04EBAA
:1075D0000A0900F10108122D2BD3C84507D008F184
:1075E0000100484510D001304845E2D118E0BAF119
:1075F0002C0F52D004EB0A080AF1050A04EB0A0921
:1076000008F101004845EED1BAF12C0F45D004EB4A
:107610000A000AF1050A04EB0A0901304845C8D1FD
:10762000BAF12C0FBFD138E0404600F10108122D0D
:10763000D3D2DBF80C1005EB450201EBC20651F882
:107640003230D90714D0D6E90201CDE906016046EF
:107650000396664605F0F8FDD0F1A4004FF0000255
:1076600072EB01003CBF0398C0E90022B44603E07E
:107670000178307C884201D101359CE7039105F007
:10768000E1FDC6E902010023012203980DF1180C67
:10769000C6E90023307401358DE7DBF80C0040F2B9
:1076A0001059DBF81C10C5F20009059C027C21F082
:1076B00001011144CBF81C1090F8282021F00201A0
:1076C00062F34101CBF81C1090F8402021F0040136
:1076D00062F38201CBF81C1090F8582021F00801C9
:1076E00062F3C301CBF81C1090F8702021F0100158
:1076F00062F30411CBF81C1090F8882021F02001CF
:1077000062F34511CBF81C1090F8A02021F0400145
:1077100062F38611CBF81C1090F8B82021F080019C
:1077200062F3C711CBF81C1090F8D02021F48071BF
:1077300062F30821CBF81C1090F8E82021F40071C6
:1077400062F34921CBF81C1090F8002121F48061EC
:1077500062F38A21CBF81C1090F8182121F4006103
:1077600062F3CB21CBF81C1090F8302121F480512A
:1077700062F30C31CBF81C1090F8482121F4005131
:1077800062F34D31CBF81C1090F8602121F4804158
:1077900062F38E31CBF81C1090F8782121F400416F
:1077A00062F3CF31CBF81C1090F8902121F4803196
:1077B00062F31041CBF81C1090F8A80121F40031BD
:1077C00060F35141DBF81000CBF81C1002688A42CC
:1077D0002FD001600423DBE90421DBF818000988BD
:1077E00004F03DFB022809D140F22D00C0F2000058
:1077F000ADF8180006A805F0B9FE1AE0CDE90601BB
:1078000040F24700C0F2000027F81E0CA7F11E004E
:1078100005F09AFE40F28800C0F2000027F81E0C26
:10782000A7F11E0005F05BFE06A804F049FD04F078
:10783000DBFF06A80122002305F026FDDDE9060195
:107840009DF82020CBE90E018BF840200BF1380089
:10785000214605F03FFD00283FF4BBAC052003E0C6
:10786000032088F8000004208BF83400DDE90102D1
:10787000B0FA80F0400910437FF4F4ABDBF8A810B5
:10788000012901BFDBE900230221CBF8A81082F017
:10789000010208BF52EA030212D001210020079121
:1078A0004FF21021C0F202010A90099004200691C3
:1078B0004FF27821089006A8C0F2020105F039FFC6
:1078C0000022CBE900120DB0BDE8000FF0BD002290
:1078D000016080F82C2070470022C0F8601280F808
:1078E0006B22704780B56F4682B0044600F0CCFE34
:1078F00040B10146204601F015F8204601F097F806
:1079000020BFFAE740F24C00C0F2000027F8020C5A
:10791000B81E05F019FE00F022FA04F065FF05F02C
:1079200051FED4D400688C460068B0F5005F19DBC6
:10793000B0F5405F3DDDB0F5485FC0F25080B0F576
:107940004C5F80F26D80A0F54850DFE810F0060033
:107950004F0102012201BD008C014FF22B61C0F2E8
:10796000020194E1B0F5805F4CDA01304FF2CA3188
:107970000722C0F20201DFE810F015008B0197002A
:10798000C70077001C014601D7006E018700660121
:107990006F007F0031016800BF00600004014E01EC
:1079A0009E0114014FF2D1316046C0F2020106F08F
:1079B00076BCA0F50050DFE810F00A003601D400D4
:1079C00004018F005E016E0121017601AF004FF2CC
:1079D000D341C0F202011422604606F060BC43F2BB
:1079E0000101401ADFE810F006002701C500F2008F
:1079F00080004F014FF2BF51C0F202010D226046DC
:107A000006F04DBC48D041F20101884240F094801C
:107A10004FF29F41C0F202012222604606F03FBCB5
:107A20004AD0B0F5505F40F08F804FF2DA611722F4
:107A3000C0F20201604606F032BC4FF26441C0F26F
:107A400002010922604606F02ABC4FF24A41604614
:107A5000C0F2020106F023BC4FF23341C0F2020132
:107A60000C22604606F01BBC4EF67C71C0F202018F
:107A70000822604606F013BC4FF23F41C0F20201FB
:107A80000B22604606F00BBC4FF21A41C0F2020115
:107A90000C22604606F003BC4FF28A411522C0F268
:107AA0000201604606F0FBBB4FF2D8311122C0F252
:107AB0000201604606F0F3BB4FF2C2611822C0F229
:107AC0000201604606F0EBBB4FF28861C0F2020192
:107AD0001B22604606F0E3BB4FF23B51C0F20201AD
:107AE0001322604606F0DBBB4FF207610E22C0F2A4
:107AF0000201604606F0D3BB4FF25441C0F20201CE
:107B00000422604606F0CBBB4FF2E931C0F202011D
:107B10001422604606F0C3BB4FF2AD51C0F2020121
:107B20001222604606F0BBBB4FF20241C0F20201D6
:107B30000C22604606F0B3BB4FF2C141C0F2020115
:107B40001222604606F0ABBB4FF2F161C0F20201B7
:107B50009DE04FF26061C0F202011422604606F01F
:107B60009EBB4FF20351C0F202012222604606F092
:107B700096BB4FF2E051C0F202011422604606F0BB
:107B80008EBB4FF26D41C0F202010B22604606F03F
:107B900086BB4FF27461C0F202011422604606F007
:107BA0007EBB4FF28141C0F202010922604606F01D
:107BB00076BB4FF2FD310522C0F20201604606F0AD
:107BC0006EBB4FF22551C0F2020160E04FF2F4515A
:107BD000C0F202011322604606F061BB4EF68471CA
:107BE000C0F202010822604606F059BB4FF2416123
:107BF000C0F202011F22604606F051BB4FF28351D2
:107C0000C0F2020143E04EF66471C0F202010822A4
:107C1000604606F044BB4FF25841C0F20201042214
:107C2000604606F03CBB4FF2E7411C22C0F2020165
:107C3000604606F034BB4FF2CC51C0F20201142270
:107C4000604606F02CBB4FF22641C0F202010D2225
:107C5000604606F024BB4FF20E41C0F202010C2236
:107C6000604606F01CBB4FF2A361C0F202011F2266
:107C7000604606F014BB4FF24E51C0F202011B22C7
:107C8000604606F00CBB4FF21561C0F202011622ED
:107C9000604606F004BB4FF269511A22C0F202019D
:107CA000604606F0FCBA4FF29951C0F2020114226C
:107CB000604606F0F4BA4FF27841C0F202010922A0
:107CC000604606F0ECBAD0B502AF82B0044640F28E
:107CD0000600C0F2000027F80A0CA7F10A0005F020
:107CE000FEFB204605F0FBFB02B0D0BDD0B502AFD5
:107CF00082B0044640F28700C0F2000027F80A0C68
:107D0000A7F10A0005F0EBFB204604F0FDFA02B0F3
:107D1000D0BDD0B502AF82B0044640F20700C0F239
:107D2000000027F80A0CA7F10A0005F0D8FB20464E
:107D300005F0ADFB02B0D0BDD0B502AF82B00446B5
:107D400040F28600C0F2000027F80A0CA7F10A00F2
:107D500005F0C5FB204603F08DFE02B0D0BD80B516
:107D60006F4682B040F27E00C0F2000027F8020C9D
:107D7000B81E05F0B4FB02B080BDD0B502AF82B032
:107D8000044640F28900C0F2000027F80A0CA7F16F
:107D90000A0005F0A4FB204604F092FA02B0D0BD20
:107DA00080B56F4682B040F20100C0F2000027F8B3
:107DB000020CB81E05F093FB02B080BDF0B503AF16
:107DC0002DE900070C68066803F0FEFC96E8020542
:107DD0000025356019B301291BD1D4E900218A455A
:107DE00008BF904538D01268814608469047024641
:107DF000D6E90053B0680124012DC6E90042B16004
:107E000004BFD9688847D8F8041050468847012530
:107E1000484603F004FD2846BDE80007F0BDD4E95C
:107E200000210446084612689047D6E9003E024603
:107E3000D6F808C001252046012BC6E90052B160E2
:107E4000E7D1DEF80C1060468847204603F0E7FCD7
:107E50002846BDE80007F0BD0125356003F0DFFCD2
:107E60002846BDE80007F0BDF0B503AF4DF804BDEE
:107E700086B0044640F23600C0F20000ADF80400BF
:107E800001A805F061FB40F20500C0F20000ADF86A
:107E9000040001A805F023FB4FF20770C0F20200B6
:107EA00005F094FB04F0A0FC204601F05DF880B2E0
:107EB00001281BD10020CDE903008DF80A004FF402
:107EC0008570ADF8080001208DF8040088B201A982
:107ED000B0DF03F063FD064620460D4600F0B7FF15
:107EE000012E08D006B05DF804BBF0BD204600F0BE
:107EF000AEFF43F2020540F237000195C0F20000E8
:107F000027F8120CA7F1120005F01EFB40F28600C4
:107F1000C0F2000027F8120CA7F1120005F0DFFAFA
:107F200001A803F0A7FD04F05FFC06B05DF804BBF8
:107F3000F0BDF0B503AF4DF804BD86B0044640F285
:107F40003600C0F20000ADF8040001A805F0FCFA0C
:107F500040F20500C0F20000ADF8040001A805F0F1
:107F6000BEFA4FF20870C0F2020005F02FFB04F0D9
:107F70003BFC204600F0F8FF80B201281BD1002016
:107F8000CDE903008DF80A004FF48570ADF80800C4
:107F900002208DF8040088B201A9B0DF03F0FEFCD6
:107FA000064620460D4600F052FF012E08D006B0CE
:107FB0005DF804BBF0BD204600F049FF43F2020526
:107FC00040F237000195C0F2000027F8120CA7F12B
:107FD000120005F0B9FA40F28600C0F2000027F85E
:107FE000120CA7F1120005F07AFA01A803F042FD85
:107FF00004F0FAFB06B05DF804BBF0BDF0B503AFCA
:108000002DE9000B84B0096848F6C030C2F20200C6
:1080100004F098F90020019001A84BDF03F0BEFCAA
:10802000B8B1052902BF04B0BDE8000BF0BD40F2B5
:108030006C000291C0F2000027F81A0CA7F11A0098
:1080400005F082FA02A8FFF777FE04F0CDFB05F0F9
:10805000B9FA40F21E0840F20709A7F11A0402AD6E
:1080600001AEC0F20008C0F2000907E003F007FC0F
:1080700030464BDF03F092FC0028D2D101980290E9
:10808000204627F81A8C05F05FFA204627F81A9C3C
:1080900005F025FA284605F0FAF904F0A5FB029848
:1080A000011F082928BF0228E2D3DFD0032802D10C
:1080B00003F02DFCDCE740F26B00C0F2000027F873
:1080C0001A0CA7F11A0005F03FFA02A8FFF721FEEB
:1080D00004F08AFB05F076FAF0B503AF4DF804BD65
:1080E000A4B0096848F6C830C2F2020004F02AF9C8
:1080F000802601A827F81A6CA7F11A0161DF03F0A6
:108100004DFC70B901ACA7F11A05204603F03CFF05
:1081100027F81A6C2946204661DF03F03FFC00284F
:10812000F3D005291CBF43F20100814203D124B0E2
:108130005DF804BBF0BD0C290AD140F26D00C0F21D
:108140000000ADF8880022A805F010FA05F03AFA10
:1081500040F26E002291C0F2000027F8120CA7F145
:10816000120005F0F1F922A8FFF7E6FD04F03CFB50
:1081700005F028FAF0B503AF2DE9000B0646007CA8
:1081800028B1032840F00F81D6E902451AE0306893
:108190003446007844F8040F072800F20A8146F2BA
:1081A00000050022C4F2000545EA8000C0F8002165
:1081B0000122706800F01F0002FA00F0C5F8040305
:1081C000C6E902452068072800F2DF80D1F8009058
:1081D00048F6E058C2F2020808EBC000494605F034
:1081E000B3F82068082880F0D78005EB80000121D3
:1081F000D0F80001002808BF0321317404D0002109
:108200000020BDE8000BF0BD96F8240028B103283B
:1082100040F0C980D6E907451AE070693446007815
:1082200044F8180F072800F2C48046F20005002128
:10823000C4F2000545EA8000C0F800110121B069D0
:1082400000F01F0001FA00F0C5F80403C6E9074575
:108250002068072800F2998008EBC000494605F025
:1082600073F82068082880F0978005EB80000122D1
:108270000121D0F80001002808BF032286F824203D
:1082800018B10020BDE8000BF0BD96F8380028B109
:10829000032840F08880D6E90C451AE0B06A3446DD
:1082A000007844F82C0F072800F2838046F200057E
:1082B0000021C4F2000545EA8000C0F80011012148
:1082C000F06A00F01F0001FA00F0C5F80403C6E9E7
:1082D0000C452068072858D808EBC000494605F02F
:1082E00033F82068082857D205EB80000121D0F828
:1082F0000001002808BF032186F8381020B10020B3
:108300000221BDE8000BF0BD96F84C0020B1032817
:1083100049D1D6E9114519E0F06B3446007844F8AC
:10832000400F072845D846F200050021C4F2000599
:1083300045EA8000C0F800110121306C00F01F00F8
:1083400001FA00F0C5F80403C6E9114520680728C2
:108350001BD808EBC000494604F0F6FF2068082847
:108360001AD205EB80000121D0F80001002808BFD7
:108370000321B0FA80F086F84C104FF0030108BFDB
:1083800004214009BDE8000BF0BD4FF2283208215E
:10839000C0F2020205F008FA4FF238320821C0F2AA
:1083A000020205F001FA4FF27C70C0F2020006F002
:1083B00041FA4FF26C720821C0F2020205F0F4F9A2
:1083C00080B56F4684B0B8688DF80A0001A80193A3
:1083D000ADF8082000F02CF840F27000C0F2000068
:1083E00027F8020CB81E05F0C1F805F0EBF880B5CF
:1083F0006F4684B0D7E9041ED7E9020C02906846A4
:108400008DF80E30ADF80C208DF80FE0CDE900C1ED
:1084100000F00BF840F27100C0F20000ADF800006F
:10842000684605F0A3F805F0CDF80F30FFF781BDE1
:108430000630FFF719BDF0B503AF4DF8048D82B0DB
:10844000044603F0C1F940F27806C2F2020635682C
:1084500005BB804640F28000C2F202004FF4004C9F
:1084600050F80C2000F50041002A08BF0246D31D39
:10847000891A23F007039B1A03F150058D422DD86A
:108480005119D51840F80C105021284606F089FBE8
:108490004046356003F0C3F905F1080040F20111D0
:1084A00050E8002F92B940E80012002AF8D146F2B5
:1084B0008720C0F202002146686105F12000FFF725
:1084C00006FA284602B05DF8048BF0BDBFF32F8F8B
:1084D0000025284602B05DF8048BF0BD40F24D0047
:1084E000C0F2000027F8120CA7F1120005F03EF8C8
:1084F00005F068F8F0B503AF2DE9000B98B004461D
:108500004FF62410C0F202000D4602F004F80246B5
:1085100013A80B46294601F0E3FBBDF84C000028E8
:1085200046D1BDF84E004FF0012127F8620C002023
:10853000CDF83B004FF00108ADF82C0003208DF87A
:1085400026004FF07B3006904FF64410CDF83610E1
:1085500040F201214FF08079C0F202008DF83A809C
:10856000ADF84310CDF83F9001F0D5FF0546A7F1D7
:108570001D000E4607F8198C47F81D9C01F067FD99
:10858000ADF85800000C16A98DF85A0007A804226F
:1085900006ABCDE90221049013A8A7F16201CDE951
:1085A00000322A46334601F0BBFBBDF84C0038B11F
:1085B000149860600120208018B0BDE8000BF0BD69
:1085C000BDF84E00BDF8521060800020A1802080D0
:1085D00018B0BDE8000BF0BDD0B502AF84B0D7E94C
:1085E00004CE9CB20A88A2421FD1BEF1040F28D249
:1085F00004460020019004200DF1040C48F6CE1131
:10860000009002A81A46C2F20201634603F001FC80
:108610000298022820D10399052922D2042928D1C1
:1086200001992046002200230FE0BEF1000F14D074
:108630004988A14211D19CF80010012301F00102E8
:1086400003E016D1DCF800100023D2B243EA022284
:10865000C0E9002104B0D0BD20460221017004B061
:10866000D0BD4FF664120846C0F20202042105F0A4
:1086700072FE40F26F00C0F20000ADF8080002A8E0
:1086800004F074FF04F09EFFF0B503AF4DF8048DC5
:1086900082B0044603F098F840F27C06C2F202066B
:1086A00035680DBB804640F28000C2F202004FF4F4
:1086B000004C50F80C2000F50041002A08BF02468B
:1086C000D31D891A23F007039B1A03F5A7658D4272
:1086D0002ED85119D51840F80C104FF4A761284630
:1086E00006F05FFA4046356003F099F805F108009E
:1086F00040F2011150E8002F92B940E80012002A20
:10870000F8D146F21530C0F202002146686105F149
:108710002000FFF7E1F8284602B05DF8048BF0BDB9
:10872000BFF32F8F0025284602B05DF8048BF0BD03
:1087300040F24D00C0F2000027F8120CA7F1120021
:1087400004F014FF04F03EFF80B56F4600F000F81F
:1087500080B56F4684B06C46204600F011F8204684
:10876000FFF7C0F880B56F4682B040F20100C0F25A
:10877000000027F8020CB81E04F0B1FE02B080BD64
:10878000D0B502AF82B0044604F0D8FDC0071FBFC9
:1087900000204FF0FF32C4E90002A0601EBF217329
:1087A00002B0D0BD40F24B00C0F2000027F80A0C26
:1087B000A7F10A0004F0C8FEFFF7D4FF04F014F894
:1087C00004F000FF01464FF69810C0F20200704717
:1087D00080B56F4600F1080140F2011C51E8003FEE
:1087E00003EA0C02012A40F08A8043F4807241E8D7
:1087F0000023002BF2D1D0F810C0DCF80020BFF32A
:108800005F8F06E00021BFF32F8FC907BFF35F8F93
:1088100063D1C2605CE8003F93420ED1BFF35F8F2B
:108820004CE8000100294FF0000108BF4FF0FF3174
:10883000C907BFF35F8F07D050E00021BFF32F8F30
:10884000C907BFF35F8F49D1C3605CE8002F9A422C
:108850000ED1BFF35F8F4CE8000100294FF00001FB
:1088600008BF4FF0FF31C907BFF35F8F07D034E077
:108870000021BFF32F8FC907BFF35F8F2DD1C260D7
:108880005CE8003F93420ED1BFF35F8F4CE80001DC
:1088900000294FF0000108BF4FF0FF31C907BFF3B7
:1088A0005F8F07D01AE00021BFF32F8FC907BFF3F6
:1088B0005F8F13D1C3605CE8002F9A42A2D1BFF34F
:1088C0005F8F4CE8000100294FF0000108BF4FF016
:1088D000FF31C907BFF35F8F9BD01A46002A18BF2C
:1088E00080BDDCF80400411C1FBF80B24EF6007151
:1088F000CEF20001086018BF80BD40BF80BDBFF34D
:108900002F8F80BD704780B56F464068411C1FBFE8
:1089100080B24EF60071CEF20001086018BF80BD33
:1089200040BF80BD80B56F4608610268BFF35F8FAE
:1089300006E00023BFF32F8FDB07BFF35F8F65D106
:10894000CA6050E800CF94450ED1BFF35F8F40E876
:108950000013002B4FF0000308BF4FF0FF33DB077D
:10896000BFF35F8F07D052E00023BFF32F8FDB07E9
:10897000BFF35F8F4BD1C1F80CC050E8002F6245A8
:108980000ED1BFF35F8F40E80013002B4FF00003C0
:1089900008BF4FF0FF33DB07BFF35F8F07D035E031
:1089A0000023BFF32F8FDB07BFF35F8F2ED1CA6089
:1089B00050E800CF94450ED1BFF35F8F40E800131D
:1089C000002B4FF0000308BF4FF0FF33DB07BFF36E
:1089D0005F8F07D01BE00023BFF32F8FDB07BFF3B0
:1089E0005F8F14D1C1F80CC050E8002F6245A0D1B0
:1089F000BFF35F8F40E80013002B4FF0000308BF68
:108A00004FF0FF33DB07BFF35F8F99D06246002A38
:108A100018BF80BD4068411C1FBF80B24EF6007178
:108A2000CEF20001086018BF80BD40BF80BDF0B528
:108A300003AF2DE9000F81B08346007B48F6071194
:108A40005A46C0F2020104F07BFC00264FF0010AF6
:108A500040F201190BF10800009008E00A462B468D
:108A60009BF80C0004F06EFC002840F0788104F0C4
:108A700063FC009A1368002B00F09A80DDF800C0B8
:108A800006E003F1180CDCF80030002B00F09080B9
:108A9000D3E90025821A71EB0502F2D303F1080233
:108AA00052E8005F05EA0904012C76D145F480758F
:108AB00042E80054002CF3D11D692C68BFF35F8F8E
:108AC00006E00022BFF32F8FD207BFF35F8F66D17E
:108AD000DC6055E8002FA2420ED1BFF35F8F45E85E
:108AE0000034002C4FF0000408BF4FF0FF34E407BF
:108AF000BFF35F8F07D052E00024BFF32F8FE4074E
:108B0000BFF35F8F4BD1DA6055E8004F94420ED12E
:108B1000BFF35F8F45E80032002A4FF0000208BF24
:108B20004FF0FF32D207BFF35F8F07D037E000224C
:108B3000BFF32F8FD207BFF35F8F30D1DC6055E8D2
:108B4000002FA2420ED1BFF35F8F45E80034002C06
:108B50004FF0000408BF4FF0FF34E407BFF35F8F0E
:108B600007D01CE00024BFF32F8FE407BFF35F8F13
:108B700015D1DA6055E8004F9442A2D1BFF35F8F60
:108B800045E80032002A4FF0000208BF4FF0FF32E4
:108B9000D207BFF35F8F9BD001E0BFF32F8F9A699D
:108BA000CCF800209E72DCF80030002B7FF470AF10
:108BB000BFF35F8F5BE8008F4BE800600028F9D1BE
:108BC000B8F1000F4FF0FF3EBFF35F8F0ED100985A
:108BD0004FF0FF324FF0FF33016800293FF440AF00
:108BE000DDF800C031E0B8F1000FF0D04546D8F80C
:108BF0000C80C5E900EE287A6E720028F3D069690E
:108C000028468847D5E900014FF0FF3E81EA0E0172
:108C100080EA0E000843E6D005F10A00D0E84F1FB5
:108C2000C0E842AF002AF9D10029DCD100990868D8
:108C3000A8610D60D7E7A0690026CCF80000A672F5
:108C4000DCF8001000293FF40BAFD1E9004585EABC
:108C50000E0084EA0E063043161B73EB05064FF038
:108C6000000638BF0126002E04BF2B46224630B135
:108C700001F1180C0026DCF8001051B9F0E6886903
:108C80000026CCF800008E72DCF8001000293FF4BA
:108C9000E7AED1E9006080EA0E0586EA0E042543BE
:108CA000941B73EB00044FF0000438BF0124002C28
:108CB00004BF0346324635B101F1180C0026DCF83A
:108CC000004054B9CCE688690026CCF800008E72CA
:108CD000DCF80040002C3FF4C3AED4E9001585EA6F
:108CE0000E0081EA0E063043561A73EB05064FF06C
:108CF000000638BF0126002E1CBF1D46114630B1AC
:108D000004F1180C0026DCF8004054B9A6E6A0696E
:108D10000026CCF80000A672DCF80040002C3FF4DE
:108D20009DAED4E9002383EA0E0082EA0E063043AA
:108D30008E1A75EB03064FF0000638BF0126002E91
:108D40001CBF2B460A4600283FF475AF04F1180CEF
:108D50000026DCF8001000297FF477AF80E601B030
:108D6000BDE8000FF0BDD0B502AF82B0D2F800E090
:108D700048F2C573C0F20203DEF800C09C4501BF93
:108D8000DEF8043048F2D17CC0F2020C63450BD10E
:108D9000DEF80830634501BFDEF80CC048F6051365
:108DA000C0F202039C450BD040F24A00C0F2000022
:108DB00027F80A0CA7F10A0004F0D8FB04F002FC23
:108DC000D2F804C00022DCE9003E1C1A7EEB01044C
:108DD00038BF0122002A1CBF18467146CCE90001A9
:108DE00002B0D0BD006804F044BC80B56F4682B0CC
:108DF00048F2840172B6C2F202010A78EAB901228D
:108E00000A70009040F24E00C0F20000ADF804007D
:108E100001A804F099FB40F20200C0F2000027F81C
:108E2000020CB81E04F05BFB4FF6A8116846C0F2B6
:108E3000020104F060FB03F0D7FC4EF62450CEF2A2
:108E40000000016821F48021016000DEFEDEB0B583
:108E500002AF84B00178132955D848F288027423F0
:108E6000C2F2020211FB032595F86910002952D0C5
:108E7000013985F86910090601D004B0B0BD044677
:108E80002878012825D140F20D00C0F2000027F813
:108E9000160CA7F1160004F057FB40F20500C0F2D3
:108EA000000027F80E0CA7F10E0004F018FB204676
:108EB00004F08CFB03F098FC95F866000028DCD1E8
:108EC0006888132176DF88BB012085F8660004B02E
:108ED000B0BD40F20E00C0F2000027F8120CA7F15E
:108EE000120004F031FB40F20500C0F20000ADF8C2
:108EF0000C0003A804F0F3FA204604F067FB03F02B
:108F000073FC04B0B0BD4FF628220846C0F202023E
:108F1000142104F049FC40F25300C0F20000ADF807
:108F20000000684604F022FB04F04CFB082810D136
:108F300040F25400C0F20000ADF8040001A804F0B3
:108F400003FBA7F1090002F0B0FB03F04DFC04F0B5
:108F500039FB40F24F00C0F20000ADF8080002A853
:108F600004F004FB04F02EFB007814283FBF7421AA
:108F700000FB01F248F28803C2F202033FBF10FB7C
:108F800001309A5C418802F0010038BF704780B51B
:108F90006F464FF628221421C0F2020204F004FCAE
:108FA00080B56F4682B083B2142B26D248F6981251
:108FB000C2F2020212F81300012811D102EB4301A0
:108FC0004978132921D848F288027423C2F2020298
:108FD00011FB032212F8693FFF2B03D001331370FA
:108FE00002B080BD40F25500C0F2000027F8020C2C
:108FF000B81E04F0BBFA04F0E5FA4FF63822184622
:10900000C0F20202142104F0CFFB4FF628220846DA
:10901000C0F20202142104F0C7FBF0B503AF2DE942
:10902000000B82B048F288058146C2F2020516465E
:1090300095F869008846002804BF2878002800F0C9
:10904000918095F8DD0028B9284610F8741F012991
:1090500040F0858095F8510128B9284610F8E81F9E
:10906000012940F0818095F8C50118B995F85C0197
:1090700001287CD195F8390218B995F8D00101285A
:1090800079D195F8AD0218B995F84402012876D146
:1090900095F8210318B995F8B802012873D195F80D
:1090A000950318B995F82C03012870D195F8090497
:1090B00018B995F8A00301286DD195F87D0418B969
:1090C00095F8140401286AD195F8F10418B995F8B7
:1090D0008804012867D195F8650518B995F8FC044E
:1090E000012864D195F8D90518B995F870050128BB
:1090F00061D195F84D0618B995F8E40501285ED1BF
:1091000095F8C10618B995F8580601285BD195F86D
:10911000350718B995F8CC06012858D195F8A90754
:1091200018B995F84007012855D195F81D0818B9C8
:1091300095F8B407012852D195F8910818B995F817
:10914000280801284FD195F8050918B995F89C0809
:1091500001284CD1012002B0BDE8000BF0BD012474
:10916000054647E0002445E00224054642E005F5B7
:10917000AE7503243EE005F5E87504243AE005F5F4
:109180001175052436E005F52E75062432E005F547
:109190004B7507242EE005F5687508242AE005F2D2
:1091A0001445092426E005F591650A2422E005F21C
:1091B000FC450B241EE005F5AE650C241AE005F213
:1091C000E4550D2416E005F5CB650E2412E005F2FA
:1091D000CC650F240EE005F5E86510240AE005F2E1
:1091E000B475112406E005F62805122402E005F600
:1091F0009C051324596801221868A5F80290C5E956
:10920000010105F10C0058212A7007F81F4C05F0E8
:109210002BFD40F201123068A5F86820002285F885
:1092200066201722A5F864201B22C5F86A001FFAE1
:1092300089F0D6F80310142885F8678085F8712026
:10924000C5F86D102CD248F69811C2F2020111F83F
:109250001020012A2BD001EB400001214470017045
:1092600040F20F00C0F20000ADF8040001A804F0C5
:109270006BF940F20500C0F2000027F81A0CA7F1C4
:109280001A0004F02CF9A7F11F0004F09FF903F075
:10929000ABFA17F81F1C002002B0BDE8000BF0BDB0
:1092A0004FF638221421C0F2020204F07DFA40F297
:1092B0005600C0F2000027F81E0CA7F11E0004F0B3
:1092C00055F904F07FF9007814283FBF48F288016F
:1092D000C2F20201742210FB02103CBFD0E903016C
:1092E000704780B56F464FF628221421C0F2020263
:1092F00004F05AFAF0B503AF2DE9000B84B0044630
:109300000878142880F09E807421134600FB01F633
:1093100048F28802C2F20202965DF60778D010FB8E
:1093200001200021E846ADF804100091424619469C
:10933000408890DF002871D002F014FD05460290AD
:1093400040F23100C0F2000027F81A0CA7F11A0011
:1093500004F0FAF840F28600C0F2000027F81A0C78
:10936000A7F11A0004F0BBF802A802F083FB03F097
:109370003BFABDF8021040F20609BDF80000C0F249
:10938000000989B208431FD040F2320008F10206FA
:10939000C0F2000027F81A0CA7F11A0004F0D4F864
:1093A000A7F11A0027F81A9C04F099F8684604F00F
:1093B00096F8A7F11A0027F81A9C04F090F83046A6
:1093C00004F08DF803F010FABDF80400B0B140F2DB
:1093D000330008F10406C0F2000027F81A0CA7F1C8
:1093E0001A0004F0B1F8A7F11A0027F81A9C04F04B
:1093F00076F8304604F073F803F0F6F9132D13D025
:10940000062D17D1DDF802500120BDF8001012E042
:109410000020208004B0BDE8000BF0BD04202080B7
:1094200004B0BDE8000BF0BDDDF802500220BDF82D
:10943000001000E0032065606180208004B0BDE87A
:10944000000BF0BD4FF628221421C0F2020204F0F6
:10945000ABF9D0B502AF84B002460078132852D8D9
:1094600048F288017423C2F2020110FB031090F845
:10947000671000294ED10178C90709D0C168448816
:1094800051B10069036C02A898479DF80C000DE0EB
:109490000020214604B0D0BD102100208DF80A1014
:1094A0004FF4E661ADF80B00ADF8081002998DF8A5
:1094B0000C002046029102A97EDF00B302F052FCAC
:1094C0000446019040F23400C0F2000027F80A0C74
:1094D000A7F10A0004F038F840F28600C0F200005C
:1094E00027F80A0CA7F10A0003F0F9FF01A802F01F
:1094F000C1FA03F079F90120214604B0D0BD022061
:10950000214604B0D0BD4FF628221421C0F2020239
:1095100004F04AF940F25700C0F2000027F80A0CA4
:10952000A7F10A0004F022F804F04CF8F0B503AFFC
:109530002DE9000796B002460078132800F27F80DC
:10954000742148F2880300FB01F5C2F202035D5D5D
:10955000ED075CD010FB0130C16800295DD0B0F888
:1095600002800DF138090069436B48469847BDF801
:109570003800002857D009F10C0309ACDDE90FCA07
:10958000BDF83AE0264627CB27C6188830806846C3
:109590006CCC01466CC122880A804A46CDF816C0C0
:1095A000ADF814E0CDF81AA0DDF814C0069978C81B
:1095B00078C2007810704FEA1A40ADF82C004A4685
:1095C000CDE909C109A9404685DF90B302F0CAFB85
:1095D0000446089040F23500C0F20000ADF80000EB
:1095E000684603F0B1FF40F28600C0F20000ADF81B
:1095F0000000684603F073FF08A802F03BFA03F08E
:10960000F3F80320214616B0BDE80007F0BD0020A6
:10961000214616B0BDE80007F0BD0120214616B076
:10962000BDE80007F0BD0220214616B0BDE80007E6
:10963000F0BD0420214616B0BDE80007F0BD4FF68E
:1096400028221421C0F2020204F0AEF8D0B502AF15
:1096500082B080B2142863D248F6981EC2F2020E7D
:109660001EF81030002B62D00EEB4000407813281B
:1096700069D848F2880C7423C2F2020C10FB03C4B0
:10968000E06898B3138809782269022915D0012966
:109690002CD1142B5ED21EF81310012926D10EEB0B
:1096A0004301497813295DD8742311FB03C313F8D0
:1096B000694FFF2C1DD0126A12E0142B4AD21EF8FB
:1096C0001310012912D10EEB43014978132949D80F
:1096D000742311FB03C313F8694FFF2C14D0526A93
:1096E00001341C709047012002B0D0BD002002B0B0
:1096F000D0BD40F25500C0F20000ADF8040001A852
:1097000003F034FF03F05EFF40F25500C0F20000AA
:1097100027F80A0CA7F10A0003F028FF03F052FF14
:109720004FF638221421C0F2020204F03DF840F254
:109730005800C0F2000027F80E0CA7F10E0003F04D
:1097400015FF03F03FFF4FF628221421C0F202025A
:1097500004F02AF84FF638221846C0F2020214210B
:1097600004F022F84FF628220846C0F20202142123
:1097700004F01AF8F0B503AF2DE9000B8AB080B2FF
:10978000142880F0248148F69812C2F2020212F8DE
:109790001030002B00F0228102EB400040781328AB
:1097A00000F20E81742648F2880300FB06F5C2F22F
:1097B00002035D5DED0700F01C8110FB0634658837
:1097C000142D80F0218112F81500002800F024816A
:1097D00002EB4506D1F80080E168707807F83D0C8F
:1097E000D1B1132800F2EC80742210FB023212F87F
:1097F000693FFF2B00F0D980D4F810C001331370FB
:109800000DF110098DF810000846DCF838204946A3
:1098100090474846FFF71BFB002001AA3070B8F8BC
:10982000001002924FF25C42C0F202021129019133
:10983000049240F0FC8098F808102070617002F0EB
:1098400076FD00287AD005EB450548F6D410C2F223
:10985000020000EB85042068002840F0A0804FF053
:10986000FF302246206052F8040F50B1A1680B6906
:109870004146984720680130206002F058FD30B919
:109880005CE00020206002F052FD002856D048F62F
:10989000C420C2F2020000EB8504206800287ED1BB
:1098A0004FF0FF302246206052F8040F50B1A168FB
:1098B0000B694146984720680130206002F037FD6F
:1098C00028B93BE00020206002F031FDB0B348F63B
:1098D000F430C2F2020000EB8504206800285ED15B
:1098E0004FF0FF302246206052F8040F00B3A16809
:1098F0000B694146984720680130206002F017FD4F
:10990000E0B148F6E440C2F2020000EB85042068B2
:10991000002844D14FF0FF302246206052F8040F57
:10992000F8B1A1680B69414698472068013019E0F9
:109930000020206002F0FBFC0028E2D10121002081
:1099400005914FF65031C0F20201089007900420B3
:1099500004914FF6C831069004A8C0F2020103F04A
:10996000E8FE0020206040F20C00C0F20000ADF8DC
:10997000100004A803F0E8FD40F20500C0F200006A
:10998000ADF8100004A803F0AAFDA7F13D0003F014
:109990001DFE02F029FF0AB0BDE8000BF0BD4FF636
:1099A0004440C0F2020003F02EFE40F25500C0F227
:1099B0000000ADF8100004A803F0D8FD03F002FE8B
:1099C0004FF628221421C0F2020203F0EDFE4FF6FA
:1099D00038221421C0F2020203F0E6FE40F25800E1
:1099E000C0F20000ADF8100004A803F0BFFD03F0C2
:1099F000E9FD40F25000C0F20000ADF8100004A8EC
:109A000003F0B4FD03F0DEFD4FF638222846C0F225
:109A10000202142103F0C8FE40F25100C0F200001F
:109A2000ADF8100004A803F0A1FD03F0CBFD40F257
:109A30005200C0F2000027F8320CA7F1320003F008
:109A400083FD02A801F03FFE04A801F03CFE02F0F5
:109A5000CBFE03F0B7FD80B56F4682B080B214280C
:109A60001FD248F69812C2F2020212F81030FBB16F
:109A700002EB4000407814283FBF48F28802C2F24F
:109A80000202742310FB03203FBF0988A0F8641072
:109A900002B080BD4FF628221421C0F2020203F06A
:109AA00083FE4FF638221421C0F2020203F07CFE3E
:109AB00040F25800C0F2000027F8020CB81E03F074
:109AC00055FD03F07FFDF0B503AF4DF8048D8AB06E
:109AD000C0B213284FD848F288037426C2F202039A
:109AE00010FB0635EC68002C41D04879D5F8108081
:109AF000800714D440F22C001646C0F20000ADF8E6
:109B0000040001A803F032FD00233246D5F86A00B4
:109B1000D5F86D10CDE90133CDE903330AE0E86DE6
:109B2000D5F85F10D5E913CED5E91536CDE9033662
:109B3000CDE901CE0590A7F11A0C95F86700CDF894
:109B400017103021002818BF14216B18D8F82C509A
:109B5000D3E9050147F8180C01A85E8A47F8141CE0
:109B6000114600902046624627F81A6CA8470AB0B2
:109B70005DF8048BF0BD4FF628221421C0F20202DA
:109B800003F012FEF0B503AF4DF804BD8CB00378BE
:109B90008E46427ED1F804C0002B0D884E884FF0CF
:109BA000000100918DF80020BEF80A20047EADF877
:109BB00015204FF001020491CDE902118DF801400A
:109BC00018BF431C0193012E98BF16469EF809301A
:109BD000002D08BF2E469EF80840012BADF80C6002
:109BE00088BF1A46002C08BF22468DF80E20827EC0
:109BF0009EF80C3002F00F028DF817208268CDF825
:109C000008C08DF8143022B1C1684FF6FF73994235
:109C100006D203697BB140694FF6FF76B0420BD3A1
:109C200040F25900C0F20000ADF828000AA803F085
:109C30009DFC03F0C7FC002040F20004ADF81C10AE
:109C4000C2F20204ADF82400069206A908936A46FF
:109C5000204672DF40B102F085F804460A9040F2D7
:109C60003800C0F200001AE09EF90D200120217892
:109C700077DF40B102F076F804460A9040F23900EE
:109C8000C0F200000BE02078012173DF10B302F076
:109C900069F804460A9040F23A00C0F2000027F842
:109CA000120CA7F1120003F04FFC40F28600C0F244
:109CB000000027F8120CA7F1120003F010FC0AA80C
:109CC00001F0D8FE02F090FD022021460CB05DF8B4
:109CD00004BBF0BD032021460CB05DF804BBF0BD11
:109CE000D0B502AF82B00446002027F80E2CA7F1B1
:109CF0000E0127F80A0CA7F10A0207F80C3C012014
:109D0000A8DF30B102F02EF860600120208002B0A0
:109D1000D0BD37F80A0C60800020208002B0D0BD92
:109D2000F0B503AF2DE9000F9DB089468046D7E915
:109D3000031080B207F8703C884227F8722CC0F0FC
:109D40007081BB69D3E9001093F80AA01A89BAF1AF
:109D5000030F0690CDE9042121D193F8224093F816
:109D60001BB093F81AC0002C1D7F93F8212093F8A4
:109D70001DE09E7FD97F93F8200018BF42F00202B9
:109D800002924CEA4B0242EA850242EACE0242EAE1
:109D9000061242EA411141EA8010019026E0904209
:109DA00000F24A8193F81BE093F8225093F81AC00E
:109DB00093F81CB0002D5E7F4CEA4E0593F82120ED
:109DC0009C7FD87F93F8201018BF42F002020292C5
:109DD00045EA8B0242EAC602BAF1020F42EA0412D5
:109DE00042EA401040EA8110019017D10025188AFC
:109DF00007F86E5C00283ED0D3F81200D3F8161096
:109E0000C1EA004247F8682C4FF6FF729043C1F355
:109E100007410122084447F8640C2DE0D3F80B00F9
:109E2000F0214FF648264FF64F2CC0F20206C0F242
:109E3000020C020601EA10114FEA206240F30740CB
:109E40004FF00A04B55C1CF80220365C08BF0224FF
:109E50001CF800005444214407F86B1C42EA050139
:109E60003043012540EA012027F86D0C188A07F8D5
:109E70006E5C0028C0D1002293F82310D346CA4656
:109E800027F86A2C0229CDF80C8033D14FF0000C52
:109E900093F828108DF830C002295DD0D3F829003E
:109EA0004FF6482E4FF64F28F023C0F2020EC0F2B4
:109EB0000208060603EA10194FEA206640F307403D
:109EC0001EF806404FF00A0318F806601EF800E07E
:109ED00008BF022318F80000194449448DF83710D0
:109EE00046EA040140EA0E0040EA01200121ADF8F3
:109EF000350032E0586A4FF6482C4FF64F28F026CE
:109F0000C0F2020CC0F20208040606EA101E4FEA74
:109F1000206440F307401CF804604FF00A0918F869
:109F200004401CF800C008BF4FF0020918F80000F8
:109F3000494471448DF8331044EA060140EA0C00AC
:109F40004FF0010C40EA0120ADF8310093F82810E1
:109F50008DF830C00229A1D100210698BBF1030F72
:109F6000DDE904644FF000038DF8341002BF0020D7
:109F700000260024ADF84200002902988DF839002F
:109F800001988DF838000DA8ADF840600F9418BF07
:109F9000411C0CA81491BCF1000F18BF00F1010C7A
:109FA000A7F16E00CDF84CC0002D18BF451CA7F1DD
:109FB0006A001295002A18BF821C38690EA9ADF8F4
:109FC0006000F868D7F814E0D7F80880ADF85C00B6
:109FD000A7F17200119215AA1590CDF86480ADF822
:109FE0005E30CDE91A331AABCDF858E0BAF800006C
:109FF000AADF48B101F0B6FE039A5060012010803C
:10A000001DB0BDE8000FF0BD039ADDE91A01C2F8EA
:10A0100002000020C2F8061010801DB0BDE8000F3D
:10A02000F0BD40F25B00C0F20000ADF838000EA8B1
:10A0300003F09CFA03F0C6FA40F25C00C0F20000A4
:10A04000ADF838000EA803F091FA03F0BBFAB0B5F2
:10A0500002AF42784FF6482390F800C04FF64F25E4
:10A0600090F802E0C0F20203C178C0F20205007964
:10A07000002A5C5C1B5C285C695C40EA030041EAE6
:10A08000040141EA00204FF00A0108BF02216144A7
:10A0900041EA0E1140EA0140B0BD80B56F4684B080
:10A0A00001288DE8070009D041F20101884215D14D
:10A0B0000ABB40F25E00C0F2000003E040F25D0027
:10A0C000C0F2000027F8020CB81E03F03DFA01A808
:10A0D00001F00CFB02F088FB03F074FA40F2600020
:10A0E000C0F2000027F8020CB81E03F02DFA6846F3
:10A0F00001F0FCFA08E040F25F00C0F2000027F82F
:10A10000020CB81E03F020FA01A801F0EFFA02A831
:10A1100001F0ECFA02F068FB03F054FAF0B503AF7B
:10A120002DE9000F87B048F6CC140546C2F20204B0
:10A13000D4E84F0F48B90120BFF35F8FC4E8410F47
:10A1400091B1D4E84F1F0029F8D040F26200BFF36C
:10A150002F8FBFF35F8FC0F20000ADF8040001A89D
:10A1600003F004FA03F02EFABFF35F8F4AF29B016B
:10A1700095F83E00C0F20201002818BF05F13F002B
:10A1800010DF002840F08881A88B40F20008A97FEA
:10A19000C2F2020800282A8C4FF0010008BF0322F7
:10A1A000ADF8082008BF01218DF8040020208DF8AB
:10A1B000061001A90490424669DF20B101F0D2FDEA
:10A1C000042840F05481B5F81890B9F1000F16D06A
:10A1D000688B40F20002CDF80600012000218DF8C6
:10A1E00004002320CDF80A100490C2F2020201A953
:10A1F00069DF20B101F0B6FD042840F0388195F800
:10A200002C00012814D195F82D0040F200028DF8A1
:10A21000060001208DF8040021200490C2F2020201
:10A2200001A969DF20B101F09DFD042840F01F81E4
:10A2300095F82E00012814D195F82F0040F2000265
:10A240008DF8060001208DF8040022200490C2F24F
:10A25000020201A969DF20B101F084FD042840F069
:10A260000681B5F822A0BAF1010F16D1D5E909018E
:10A2700040F20002CDF8060001208DF804002420F1
:10A28000CDF80A10C2F20202049001A969DF20B1E0
:10A2900001F068FD042840F0EA8095F830000128BC
:10A2A00011D195F8310040F200028DF80400012030
:10A2B0000490C2F2020201A969DF20B101F052FD4F
:10A2C000042840F0D48095F83200012814D195F884
:10A2D000370040F20002D5F83310C2F202028DF8C6
:10A2E00008004020019101A9049069DF20B101F02C
:10A2F00039FD042840F0BB802868012811D12A1DAF
:10A3000001AB07CA07C340F2000241200490C2F229
:10A31000020201A969DF20B101F024FD042840F008
:10A32000A68095F83800012811D195F8390040F23F
:10A3300000028DF8040042200490C2F2020201A93A
:10A3400069DF20B101F00EFD042840F0908095F8FF
:10A350003A00012811D195F83B0040F200028DF837
:10A36000040043200490C2F2020201A969DF20B177
:10A3700001F0F8FC042840F07A8095F83C000128B0
:10A3800010D195F83D0040F200028DF80400A020A5
:10A390000490C2F2020201A969DF18B101F0E2FCE7
:10A3A000042864D1286901280ED1686940F20002AE
:10A3B0000190A1200490C2F2020201A969DF18B144
:10A3C00001F0D0FC042852D1CDF8148005A860DF3C
:10A3D0000646059800F16040019040F23000C0F25E
:10A3E0000000ADF8100004A803F0AEF840F2070B2F
:10A3F00004A8C0F2000BADF810B003F070F801A88B
:10A4000003F045F802F0F0F9002E50D105984045D0
:10A4100012D240F23C00C0F20000ADF8040001A8E6
:10A4200003F092F801A8ADF804B003F058F805A8BD
:10A4300003F02DF802F0D8F94EF200104FF480012D
:10A44000CEF20000BAF1000F01604FF01700A98CA6
:10A450006A8B08BF0146B9F1000F08BF024624F815
:10A46000022F6180204607B0BDE8000FF0BD0590C7
:10A4700040F26100C0F2000027F81E0CA7F11E0098
:10A4800003F062F804A801F031F905A801F068F9B9
:10A4900002F0AAF903F096F801F064FC019040F292
:10A4A0006300C0F20000ADF8140005A81FE03046BC
:10A4B00001F058FC042812D10598404520D940F2FB
:10A4C0006500C0F20000ADF8040001A803F03CF8FC
:10A4D00005A801F00BF902F087F903F073F8019079
:10A4E00040F26600C0F20000ADF8100004A803F0CE
:10A4F0002BF801A801F034F902F076F903F062F8C4
:10A5000040F26400C0F20000ADF8040001A803F0BE
:10A510002DF803F057F880B56F4684B086460020CA
:10A5200007F8090CA7F10901704662DF002801BF96
:10A5300017F8091CBEF80C0004B080BD01F012FC35
:10A54000029040F26700C0F2000027F8020CB81E2B
:10A5500002F0FAFF02A801F003F902F045F903F056
:10A5600031F880B56F4682B007F8030CC0B20128FD
:10A5700014D0022802BF002002B080BD40F2680063
:10A58000C0F2000027F8020CB81E02F0DDFFF81E32
:10A5900001F007F902F028F903F014F8012002B0E5
:10A5A00080BDD4D4D0B502AF82B001784C08C907C1
:10A5B00026D1042C66D2B0F80510D0F80100009026
:10A5C00040F28300C0F20000ADF8041027F80A0C36
:10A5D000A7F10A0002F083FF40F28400C0F20000FD
:10A5E00027F80A0CA7F10A0002F079FF032C3DD8E6
:10A5F0004FF65620C0F20200DFE804F03C292E336B
:10A60000042C43D2B0F80510D0F80100009040F2BD
:10A610008200C0F20000ADF8041027F80A0CA7F180
:10A620000A0002F05CFF40F28400C0F2000027F84C
:10A630000A0CA7F10A0002F052FF032C16D84FF6BD
:10A640005620C0F20200DFE804F01502070C4FF6B6
:10A650005720C0F202000DE04FF65820C0F2020071
:10A6600008E04FF65920C0F2020003E04FF65A20EE
:10A67000C0F2020002F0AAFF6846062102F01FFFA6
:10A6800002B0D0BD7F2C3FF496AF01E07F2CB9D053
:10A6900040F26900C0F20000ADF80000684602F028
:10A6A00053FFA7F10A0001F06EF802F09DF802F0E6
:10A6B00089FF02784FF656204FF65721C0F202006C
:10A6C000C0F20201002A18BF084602F07FBFD4D4AE
:10A6D000F0B503AF2DE9000792B00546044635F802
:10A6E000040B00941038162800F2CA86DFE810F038
:10A6F000170005028F03D702BF002202C806ED0330
:10A70000C8062A0475053D05C806B4006202B801F2
:10A71000C8065E009304D1040A06C806DD0540F2AF
:10A720002800C0F20000ADF8100004A802F00CFFF1
:10A7300040F2060604A8C0F20006ADF8106002F070
:10A74000CEFE04F1160002F0CAFE04A8ADF81060B7
:10A7500002F0C5FE04F1120002F0C1FE04A8ADF83B
:10A76000106002F0BCFE04F1100002F0B8FE04A874
:10A77000ADF8106002F0B3FE04F1140002F0AFFE79
:10A7800002F032F8E07B8DF83800012800F01686E0
:10A79000022840F03D8701F0CAFD002800F0F08655
:10A7A00048F6DC36C2F2020600F011BE2089ADF890
:10A7B000300040F21400C0F20000A188ADF8100093
:10A7C00004A827F85A1C02F0BFFE40F20600C0F2AF
:10A7D0000000ADF8100004A802F081FEA7F15A00B5
:10A7E00002F07DFE40F2050504A8C0F20005ADF8B8
:10A7F000105002F074FE0CAC601C02F0E7FE04A8DE
:10A80000ADF8105002F06BFE204602F0DFFE01F0C2
:10A81000EBFFBDF83010ADF8081002A937F85A0C5C
:10A820008FDF002800F02C8601F09CFA049040F2A3
:10A830003E00C0F20000ADF838000EA802F084FE21
:10A8400040F28600C0F20000ADF838000EA802F019
:10A8500046FE04A800F00CBE40F21300C0F2000057
:10A86000ADF8100004A802F081FE00F0A9BCA07EA3
:10A8700000F0010107F8291CC0F34001C0F380007B
:10A880008DF83000207A8DF8341000F001018DF839
:10A89000081040088DF8380040F21A00C0F200009D
:10A8A000ADF8100004A802F04FFE40F2050604A81F
:10A8B000C0F20006ADF8106002F011FEA7F1290009
:10A8C00002F084FE04A8ADF8106002F008FE0DA8A6
:10A8D00002F07CFE04A8ADF8106002F000FE0CA8A7
:10A8E00002F074FE40F20600C0F20000ADF8100065
:10A8F00004A802F0F4FD04F11008404602F0EFFD58
:10A9000040F20400C0F20000ADF8100004A802F00C
:10A91000E6FD04A8ADF8106002F0E1FD04F1120AB2
:10A92000504602F053FE04F1130002F04FFE04F112
:10A93000140002F04BFE04F1150002F047FE04F192
:10A94000160002F043FE04F1170002F03FFE04F18E
:10A95000180002F03BFE04F1190002F037FE40F24D
:10A960000300C0F20000ADF8100004A802F0B7FD2B
:10A9700004A8ADF8106002F0B2FD04F1090002F085
:10A9800025FE04F10A0002F021FE04F10B0002F0A2
:10A990001DFE04F10C0002F019FE04F10D0002F09E
:10A9A00015FE04F10E0002F011FE04A8ADF81060CF
:10A9B00002F095FD02A802F009FE0DF11009ADF8B4
:10A9C0001060484602F08BFD0EA802F0FFFD01F07A
:10A9D0000BFFA088142880F0F78548F69811C2F282
:10A9E000020111F81020012A40F0068501EB400019
:10A9F0004078132800F2EF8548F288017422C2F2F1
:10AA0000020110FB0212114611F8693FFF2B00F002
:10AA1000D08501330B70D168DAF80030DAF80440E1
:10AA20000029B8F800608DF8080000F0FF84106974
:10AA3000CDF83E40ADF8386002AE046B4846CDF824
:10AA40003A300EAB3246A04730469DF81040FEF734
:10AA5000FEF914F0010118BF09F1010100F0EDBC8D
:10AA6000D4E90201CDE9040140F22A00C0F200005D
:10AA7000B4F80480ADF838000EA802F065FD40F28D
:10AA800006060EA8C0F20006ADF8386002F027FDF9
:10AA9000284602F024FD0EA8ADF8386002F01FFD34
:10AAA00004ACA01D02F01BFD0EA8ADF8386002F04A
:10AAB00016FDA01C02F013FD0EA8ADF8386002F0E0
:10AAC0000EFD204602F00BFD0EA8ADF8386002F036
:10AAD00006FD201D02F003FD01F086FE40462146E2
:10AAE00075DF002800F0CC8401F03CF90E9040F2B4
:10AAF0003D00C0F2000000F0ACBC40F21000C0F21B
:10AB00000000ADF8100004A802F01EFD40F206009F
:10AB1000C0F20000ADF8100004A802F0E0FC2846E6
:10AB200002F0DDFC01F060FE28886946FEF722FE97
:10AB300000F0A6BC40F21800C0F20000ADF8100012
:10AB400004A802F001FD40F20900C0F20000ADF8D7
:10AB5000100004A802F0C3FC04F1080506212846F1
:10AB600002F0ADFC01F040FEA088142880F02C8596
:10AB700048F69811C2F2020111F81020002A00F0E4
:10AB80003C8501EB40004078132800F2248548F210
:10AB900088017422C2F2020110FB0211C868002869
:10ABA00000F06E840969CA692946904712B0BDE871
:10ABB0000007F0BD207A00F001018DF83410C0F3D9
:10ABC00040018DF83010C0F38001C0F3C0008DF853
:10ABD000380040F21D00C0F200008DF80810ADF8FA
:10ABE000100004A802F0B0FC40F2050504A8C0F271
:10ABF0000005ADF8105002F072FC0DA802F0E6FC62
:10AC000004A8ADF8105002F06AFC0CA802F0DEFCBB
:10AC100004A8ADF8105002F062FC02A802F0D6FCC5
:10AC200004A8ADF8105002F05AFC0EA802F0CEFCB9
:10AC300001F0DAFDA088142880F0C68448F6981147
:10AC4000C2F2020111F81020012A40F0198401EB30
:10AC500040004078132800F2BE8448F28801742234
:10AC6000C2F2020110FB021111F8692FFF2A00F055
:10AC7000A0848DF8080002A801320A70FEF756FC85
:10AC8000DFE810F02104050005002004310402A8CB
:10AC9000FEF7DFFB022840F0168400F024BCA16818
:10ACA000207B8DF80C0001F0010007F8520CC1F375
:10ACB000021007F8510CC1F3C00007F8290CC1F3CA
:10ACC00080008DF83400C1F340008DF83000C8B228
:10ACD000C00902918DF8380040F21700C0F2000060
:10ACE000ADF8100004A802F02FFC40F20600C0F2FC
:10ACF0000000ADF8100004A802F0F1FB284602F0B5
:10AD0000EEFB40F2050604A8C0F20006ADF81060A4
:10AD100002F0E5FBA7F1520002F058FC04A8ADF8E0
:10AD2000106002F0DCFBA7F1510002F04FFC04A818
:10AD3000ADF8106002F0D3FBA7F1290002F046FC49
:10AD400004A8ADF8106002F0CAFB0DA802F03EFCAA
:10AD500004A8ADF8106002F0C2FB0CA802F036FCAB
:10AD600004A8ADF8106002F0BAFB0DF138084046B7
:10AD700002F02CFC04A8ADF8106002F0B0FB0DF15D
:10AD8000080909F1010002F021FC04A8ADF81060E7
:10AD900002F0A5FB09F1020002F018FC01F024FD0D
:10ADA000A088142880F0108448F69811C2F202019D
:10ADB00011F81020012A40F0238301EB4000407875
:10ADC000132800F2088448F288017422C2F20201BA
:10ADD00010FB0214214611F8692FFF2A00F0E983C5
:10ADE00007F8290C013294F8670000260A70002247
:10ADF000012840F08A83E168002900F07B83206904
:10AE0000A7F12902036CA7F11D0098477CE3D4E960
:10AE10000201CDE9040140F22900C0F20000ADF8C2
:10AE200038000EA802F090FB40F206060EA8C0F211
:10AE30000006ADF8386002F052FB284602F04FFBE6
:10AE40000EA8ADF8386002F04AFB04ADA81D02F070
:10AE500046FB0EA8ADF8386002F041FBA81C02F0DA
:10AE60003EFB0EA8ADF8386002F039FB284602F030
:10AE700036FB0EA8ADF8386002F031FB281D02F059
:10AE80002EFB01F0B1FCA088142880F09D8348F6C9
:10AE90009811C2F2020111F81020002A00F0A283DA
:10AEA00001EB40004078142880F0958348F2880137
:10AEB0007422C2F2020110FB0210DDE90412C0E9A3
:10AEC000011212B0BDE80007F0BD40F21900C0F257
:10AED0000000ADF8100004A802F036FB40F20500B7
:10AEE000C0F20000ADF8100004A802F0F8FA04F176
:10AEF0000806304602F06AFB01F076FCA088314675
:10AF00002A46FEF7A3FB002840F0BA8228880021D9
:10AF1000002280DF002800F0B38200F023FF0490BD
:10AF200040F24100C0F20000ADF838000EA802F077
:10AF30000BFB04A800F014FC01F056FC12B0BDE8B5
:10AF40000007F0BD607AC0F3800107F8291C00F00B
:10AF50000301C0F3C0008DF8341000218DF83000DB
:10AF6000207BCDE90E01607BCDE9040140F21C009D
:10AF7000C0F20000ADF8080002A802F0E5FA40F2C5
:10AF8000050602A8C0F20006ADF8086002F0A7FAB4
:10AF9000A7F1290002F01AFB02A8ADF8086002F040
:10AFA0009EFA0DA802F012FB02A8ADF8086002F0AC
:10AFB00096FA0CA802F00AFB40F2080602A8C0F2BA
:10AFC0000006ADF8086002F08AFA0EA802F06AFAEC
:10AFD00002A8ADF8086002F082FA04A802F062FA52
:10AFE00001F002FC264616F8080F002840F04882BF
:10AFF000607A400740F144822888FDF7D1FFC007FE
:10B0000000F03E8204AC8DF810100846314622460E
:10B01000FEF759FDA2E0A07A8DF8120040F215006B
:10B02000C0F200002189ADF838000EA8ADF810106C
:10B0300002F08AFA40F20600C0F20000ADF83800D3
:10B040000EA802F04CFA284602F049FA40F2050533
:10B050000EA8C0F20005ADF8385002F040FA04AC7A
:10B06000204602F0B3FA0EA8ADF8385002F037FAD5
:10B07000A01C02F0ABFA0EA8ADF8385002F02FFA7F
:10B08000601C02F0A3FA01F0AFFB12B0BDE80007AC
:10B09000F0BDD4E90201CDE90E0140F21600C0F284
:10B0A0000000ADF8100004A802F04EFA40F20606C7
:10B0B00004A8C0F20006ADF8106002F010FA2846AD
:10B0C00002F00DFA04A8ADF8106002F008FA0EAD17
:10B0D000A81C02F004FA04A8ADF8106002F0FFF911
:10B0E000A81D02F0FCF904A8ADF8106002F0F7F911
:10B0F000284602F0F4F904A8ADF8106002F0EFF968
:10B10000281D02F0ECF901F06FFBA088142880F0F4
:10B110005B8248F69811C2F2020111F81020012A50
:10B1200040F0AE8101EB40004078132800F25382DA
:10B1300048F288017422C2F2020110FB021111F8D8
:10B14000692FFF2A00F0358202AC01328DF8080029
:10B1500004A80A7021460022FEF7CCF82046FDF72D
:10B1600076FE12B0BDE80007F0BD40F21100C0F25B
:10B170000000ADF8100004A802F0E6F940F2060065
:10B18000C0F20000ADF8100004A802F0A8F92846AB
:10B1900002F0A5F901F028FB207A012810D002283E
:10B1A00040F0468201F0C3F8002800F0E98148F63B
:10B1B000DC35C2F202052868002800F08C80F2E13C
:10B1C00001F0B5F8002800F0DB8148F6E835C2F25E
:10B1D0000205286800287ED0E5E1207A00F00F0102
:10B1E0008DF8081000098DF8380040F21B00C0F2FD
:10B1F0000000ADF8100004A802F0A6F940F2050521
:10B2000004A8C0F20005ADF8105002F068F902A8D9
:10B2100002F0DCF904A8ADF8105002F060F90EA8B5
:10B2200002F0D4F904A8ADF8105002F058F904F176
:10B23000090002F0CBF901F0D7FAA088142880F0B9
:10B24000C38148F69811C2F2020111F81020012AB8
:10B2500040F0168101EB40004078132800F2BB81DA
:10B2600048F288017422C2F2020110FB02110A4660
:10B2700012F8693FFF2B00F09C8101331370227A92
:10B280008DF8100002F00F03D0B2022B4FEA10121B
:10B2900000F00181012B00F0F980002B40F0F480D8
:10B2A000102880F0F1800022FDE040F21200C0F290
:10B2B0000000ADF8100004A802F058F901F037F8CA
:10B2C000002800F05D8148F6C015C2F2020528682A
:10B2D000002840F068814FF0FF302860686858B15E
:10B2E000A9682A1D0B692146984728680130286003
:10B2F00012B0BDE80007F0BD0020286012B0BDE824
:10B300000007F0BDD4E90212A088CDE90412142888
:10B3100080F05A8148F69812C2F2020212F81030F8
:10B32000002B00F05F8102EB40004078142880F091
:10B33000528148F288027423C2F2020210FB0320F9
:10B3400080F8711040F22B00C0F20000ADF8380018
:10B350000EA802F0F9F840F206060EA8C0F20006A8
:10B36000ADF8386002F0BBF8284602F0B8F80EA835
:10B37000ADF8386002F0B3F804ACA01C02F0AFF8EE
:10B380000EA8ADF8386002F0AAF8A01D02F0A7F8E8
:10B390000EA8ADF8386002F0A2F8204602F09FF83F
:10B3A0000EA8ADF8386002F09AF8201D02F097F868
:10B3B00001F01AFA12B0BDE80007F0BD00F0B7FFC7
:10B3C000002800F0DD8048F6C016C2F202063068A0
:10B3D000002840F0E88070684FF0FF313160E0B144
:10B3E000B168321D0B6921469847306801303060E2
:10B3F00012B0BDE80007F0BD00218DF810101CE070
:10B4000040F24000C0F20000ADF8100004A802F0C5
:10B41000ADF812B0BDE80007F0BD00201321306088
:10B42000288876DF12B0BDE80007F0BD00208DF857
:10B43000100002A8FDF70BFD002128880022002340
:10B4400086DFE8B100F08EFC0E9040F24200C0F2C0
:10B450000000ADF8080002A802F076F840F286007D
:10B46000C0F20000ADF8080002A802F038F80EA8FB
:10B4700000F000FB01F0B8F912B0BDE80007F0BD24
:10B4800012B0BDE80007F0BD01220CE0501E0428F8
:10B4900028BF012207E00120022A08BF0620012A56
:10B4A00008BF05200246C86881F8682018B10969FC
:10B4B0008B6A04A9984704A8FDF7C9FC12B0BDE83F
:10B4C0000007F0BD0120CDE9040140F24300C0F2C5
:10B4D0000000ADF838000EA802F036F804A800F01D
:10B4E000B8F801F081F902A8FDF7B1FC12B0BDE88F
:10B4F0000007F0BD002027F81A0C102007F81B0CDD
:10B500004FF4E66027F81D0C012217F8190C002AE9
:10B510008DF83D0004F14C00099004F1300057F81B
:10B520001D1C04ABCDE9076004F11400CDF83910FF
:10B530004FF000018DF83820CDE90A66CDE90566A7
:10B54000049018BF08F1010228887FDF80B100F065
:10B5500009FC0C9040F23F00C0F20000ADF834004E
:10B560000DA801F0F1FF0CA800F0FAF801F03CF989
:10B57000A7F12900FDF76BFC12B0BDE80007F0BD94
:10B5800000200121089005914FF65031C0F20201D0
:10B590000790042004914FF6C831069004A8C0F229
:10B5A000020102F0C6F84FF64440C0F2020002F079
:10B5B0002AF840F25500C0F20000ADF8100004A8CF
:10B5C00001F0D4FF01F0FEFF4FF638221421C0F243
:10B5D000020202F0E9F84FF628221421C0F202021A
:10B5E00002F0E2F840F25800C0F20000ADF8380076
:10B5F0000EA801F0BBFF01F0E5FF40F25800C0F2D9
:10B600000000ADF8100004A801F0B0FF01F0DAFF6F
:10B6100040F26800C0F20000ADF8100004A801F08C
:10B6200093FF0EA800F0BDF801F0DEF801F0CAFFAC
:10B63000049040F26A00C0F20000ADF838000EA895
:10B6400001F082FF04A800F051F801F0CDF801F0FC
:10B65000B9FFD0B502AF82B0044640F28000C0F21C
:10B660000000ADF8040001A801F039FF2068A0B186
:10B670004FF6B910C0F2020001F0A8FF40F28600B8
:10B68000C0F2000027F80A0CA7F10A0001F027FF1A
:10B69000201D00F0EFF902B0D0BD4FF6B810C0F297
:10B6A000020001F093FF02B0D0BD80B56F4682B0BA
:10B6B00040F27F00C0F2000027F8020CB81E01F033
:10B6C0000EFF02B080BDD0B502AF82B0044640F29A
:10B6D0000700C0F2000027F80A0CA7F10A0001F0E9
:10B6E000FEFE206801F0D3FE02B0D0BDD0B502AF9F
:10B6F00082B0044640F20700C0F2000027F80A0CAE
:10B70000A7F10A0001F0EBFE204601F0C0FE02B0F6
:10B71000D0BDD0B502AF82B0044640F20B00C0F2FB
:10B72000000027F80A0CA7F10A0001F0D8FE204615
:10B7300001F038FF4FF6D830C0F2020001F0CFFE22
:10B7400002B0D0BD80B56F4682B040F20100C0F2B9
:10B75000000027F8020CB81E01F0C1FE02B080BD47
:10B76000D0B502AF82B0044640F28600C0F20000BD
:10B7700027F80A0CA7F10A0001F0B1FE204600F0FC
:10B7800079F902B0D0BD80B56F4682B040F2850035
:10B79000C0F2000027F8020CB81E01F0A0FE02B0B3
:10B7A00080BDD0B502AF82B0044640F20500C0F2C1
:10B7B000000027F80A0CA7F10A0001F090FE2046CD
:10B7C00001F004FF02B0D0BD80B56F4648F6B43139
:10B7D000C2F202010878BFF35F8F18B1002818BFCA
:10B7E000012080BDEFF3108C012372B60B704EF276
:10B7F0008013CEF200031A684A605A688A6040F2E9
:10B80000FC61CFF6FF5119604FF0FF3159605FEADC
:10B81000CC71E3D162B6002818BF012080BD80B58D
:10B820006F46002818BF80BD48F6B431EFF3108092
:10B830000022C2F2020172B60A7040F2FC634A684A
:10B84000CFF6FF53C00702EA03024EF20013CEF216
:10B8500000031A608968596000D162B680BDD0B516
:10B8600002AF48F6B434C2F2020404F10C0000F056
:10B870009CFD04F11400BDE8D04000F096BDB0B5C9
:10B8800002AF48F6B434C2F202042578BFF35F8FEA
:10B89000BDB9EFF31080012172B621704EF2801114
:10B8A000C007CEF200010A6862604A68A26040F2F6
:10B8B000FC62CFF6FF520A604FF0FF324A6000D1BF
:10B8C00062B6227FD4E9081040F20233012AA38332
:10B8D00004BF4968884705B1B0BDEFF3108000216F
:10B8E00040F2FC6272B621706168CFF6FF52C00769
:10B8F00001EA02014EF28012CEF2000242F8801CF0
:10B90000A16842F87C1C18BFB0BD62B6B0BDB0B52E
:10B9100002AF48F6B434C2F202042578BFF35F8F59
:10B92000BDB9EFF31080012172B621704EF2801183
:10B93000C007CEF200010A6862604A68A26040F265
:10B94000FC62CFF6FF520A604FF0FF324A6000D12E
:10B9500062B6227FD4E908100223012AA38304BF20
:10B960004968884705B1B0BDEFF31080002140F26F
:10B97000FC6272B621706168CFF6FF52C00701EA1F
:10B9800002014EF28012CEF2000242F8801CA16841
:10B9900042F87C1C18BFB0BD62B6B0BD30B180B5F6
:10B9A0006F4600F0DFF90146012080BD002070479E
:10B9B000F0B503AF4DF804BD86B004468588008815
:10B9C000392806D1142D44D248F6C426C2F2020604
:10B9D00005E0142D45D248F6D416C2F2020600F056
:10B9E000A6FCE8B105EB450006EB8005286850BBD6
:10B9F0004FF0FF302A46286052F8040F50B1A96872
:10BA00000B692146984728680130286006B05DF828
:10BA100004BBF0BD0020286006B05DF804BBF0BD9B
:10BA20000121002001914FF65031C0F20201049033
:10BA300000914FF6C831039004200290C0F2020139
:10BA4000684601F076FE4FF64440C0F2020001F075
:10BA5000DAFD4FF6DC22C0F202022846142101F082
:10BA6000A3FE4FF6CC22C0F202022846142101F0B8
:10BA70009BFED4D40168B1F5005F19DBB1F5405FDE
:10BA80003BDDB1F5485F4CDBB1F54C5F80F269807E
:10BA9000A1F54850DFE810F006001101D500ED00D7
:10BAA000A50041014FF61330C0F2020001F08EBD37
:10BAB000B1F5805F46DA01314FF65B20C0F202003B
:10BAC000DFE811F01500BD008300A7006B00E30064
:10BAD0000701B300250177001F0165007100F50023
