:020000022000DC
:1060000000000420016102001B97030053C7030036
:106010001B9703001B9703001B9703000000000061
:106020000000000000000000000000001B970300BB
:106030001B970300000000001B9703001B97030041
:106040001B9703001B9703001B9703001B9703007C
:106050001B9703001B970300F594030085020300C0
:106060001B9703001B9703001B9703001B9703005C
:106070001B9703001B9703001B9703001B9703004C
:106080001B9703003F8E03001B9703001B97030021
:106090001B9703001B970300D77E03001B97030089
:1060A0001B9703001B9703001B9703001B9703001C
:1060B0001B9703001B970300000000000000000076
:1060C0001B9703001B9703001B9703001B970300FC
:1060D0001B9703001B9703001B9703001B970300EC
:1060E0001B9703001B9703001B9703000000000091
:1060F000000000001B970300000000001B97030036
:1061000013F00CFB0E480F490022814201D004C05D
:10611000FBE70D480D490E4A814202D008CA08C06B
:10612000FAE70C484FF47001026842EA010202608B
:10613000BFF34F8FBFF36F8F0AF007F900DE000047
:1061400070000220589602200000022070000220F9
:1061500038F7030088ED00E0F0B503AF2DE9000F3C
:1061600089B00B8814460568102B16D000221B2B13
:1061700012D0262B6DD040F27B000493C0F20000B9
:10618000ADF8080002A813F090FC04A809F09BFBEE
:106190000CF0C8FF13F0D6FC5BE08146C87BB1F879
:1061A00004800E4610F086FB07F8390C40F22A00F6
:1061B000C0F20000B168ADF8100004A8D6F80B20BA
:1061C0000291D6E904ABCDF80B2013F06EFC40F23F
:1061D000B400C0F20000ADF8100004A813F024FCD5
:1061E000A7F1390010F018FC40F20D0004AEC0F227
:1061F0000000ADF81000304613F016FC02A810F0B5
:1062000079FB4DF67640C0F2030013F00DFC0CF064
:1062100089FF17F8391C06F10A03DDF80B20CDF8C9
:106220001620F21C0298CDF813004046CDF81EB09F
:10623000CDF81AA08DF81210ADF810800FF00EF8FE
:10624000C00704D04046142176DF012200E003227B
:106250004846C9B28668C5E9002111F0F1FDD6E9CA
:1062600000320225B168012B356004D15268054621
:1062700008469047284611F00EFE0020206009B025
:10628000BDE8000FF0BDD4D4F0B503AF2DE9000F89
:10629000ADF5CA4D93B082464EF2CC70C0F2030009
:1062A0000DF1400ECDE9090A00200D9009A80EF568
:1062B000C448CDE90B0045F6C8500AEB000B0AF1C3
:1062C000200005909BF8F100CDF820A0DFE810F049
:1062D00008008A088A081101FA0035012401E90A38
:1062E000DBF8E4000024CBF8500040F23500C0F2A7
:1062F0000000ABF8EF40ADF8C8060DF5D96013F01B
:10630000E6FB40200DF5D9658DF8CE064FF48040B0
:10631000ADF8CC062846CDF8C84612F0BDFE4EF2C8
:1063200007406021CEF200004FF00812017041F2E8
:106330000000C0F20210ABF88A40CBF8930040F2A4
:106340000140C0F20140ABF88440CBF88000062049
:106350008BF872004FF00130CBF886001820CBF894
:1063600074000120C0F20010ABF89040CBF88C40D4
:106370004FF4B0640121CBE91A4058464DF2A41302
:10638000CBE91821C0F2030340F8541F4FF4807684
:106390008BF892104FF40042ABF8701040F20C51A1
:1063A000C5F20001CBE916630A600322C1F830226E
:1063B00010F05BF845F6B1614FF072324AF80120F7
:1063C000514472220A7102215C4604F8E81FFF2141
:1063D000A171214644F8500C12F069FB54F8501C8E
:1063E0004DF2C412C0F20302284608230EF092FBBD
:1063F000D14605F1080ADDF8CCC6B0AEBDF8C886B6
:10640000BDF8CAE69AE83F003FC65FEAC87040F0B0
:10641000768745F66A60B0A948441622CBF89EC03C
:10642000ABF89CE015F0A6FEDBF8980009F0CBFE77
:10643000002800F077870146DBF85000CA460CF0D0
:1064400055FFDBF8980040F27801C2F20201CBF868
:10645000F81011F050FD00200DF1400E8BF89C015A
:106460004FF423204FF420210BF5CE74CBE94010DC
:106470000EF5C448CBE9421040F23800C0F20000EB
:10648000ADF8400010A813F022FB45F6D86080213B
:10649000504415F0C5FE10A84FF4A472002313F069
:1064A0006EF9DDE910019DF84820CBE968018BF811
:1064B000A8210BF5D0700BA913F087F900285ED046
:1064C000032090E39BF81C010BF58E74002800F06C
:1064D0009E80032840F038879BF818010BF58C75D7
:1064E000002800F06F85032840F0468709A900F0D6
:1064F0007ABD9BF89C010BF5CE74DFE810F00A0022
:106500004907730709005D015001640375015402D6
:10651000CFE7DBE94010ADE79BF828010BF594725B
:10652000DFE810F0060024076007FA00E600C0006C
:10653000DBF8F80009AD00F05CBF9BF8FB2745F6DF
:10654000C4610AEB01000BF2FB71002A019162D0D9
:10655000032A40F0FF869BF8A0210BF5D07902902A
:10656000DFE812F00500100740070B01F400DBE93B
:106570005F520DF12408DBE9611001F0C2BC00227A
:10658000DBE9421C45F6D8668BF8F121079445F605
:1065900065720AEB02044CF6605356440BF2F11A92
:1065A000C0F203038022C1462546CBE97944CBF8EB
:1065B000EC31CBE97462CBE9681C0020CBF8D851F0
:1065C0008BF8F001CBF8DC418BF85C02CBE97D5411
:1065D000CBE97F62CBE98131CBF80CC2CBF8E0315B
:1065E000CBE96A1CCBE96C620DF1400E0BF5FA7138
:1065F0000EF5C748404603F059FFD9F8900104282A
:106600000DD103208AF800000420079CEBE2DBE9AF
:10661000418000F0D0BCDBF8F46700F09DBD0120A4
:106620000BF5DC7C8BF8F00198E87D0061467DC1BC
:10663000DBF8C821032A04BFDCF80000062800F0BC
:106640002581DBE96E63DBF8CC01089C0021032A7D
:106650008BF8F01100F0E880022A40F0E98045F65E
:10666000657301204FF0000C8BF8F10123440BF50A
:10667000D07010AEDBE9428E80E8084145F67473B5
:106680002344CBE964CC0BF5D07ACBF898C135CE56
:1066900035C396E8370037C30BF5E8758BF8D0C1E2
:1066A000079C1AE19BF8A0010BF5D0710028CDE9F9
:1066B000062100F0A980032840F070869BF89D0118
:1066C0000BF29D19002800F0B381032840F0788672
:1066D0009BF87C010BF5BE78002800F0F181DDF815
:1066E00020A0032840F07286DBF8785101F005B84D
:1066F0009BF834010BF596780BF59A7906920028F1
:1067000000F08880032840F02B86DBF8304109AE8A
:10671000DDF820A000F0E8BE9BF83C010BF59E7A66
:10672000002800F07C80032840F03E869BF838016A
:106730000BF59C740692002800F07E81032840F03F
:106740000F86DBF8346109AD00F066BE9BF8F501F9
:106750000BF2F511CDF81C900691DFE810F0060061
:106760002B064306570C78017401DBE97598DBE9C9
:106770007A54DBF8F06101F02CBC9BF8AC110BF5FE
:10678000D2740BF5D676002900F09B80032940F0E7
:10679000E785DBF8A8510DF1240801F0C1BB9BF897
:1067A000D0010BF5D07A0BF5E875002800F08E804B
:1067B000032800F0AC8121E09BF8F1010BF2F11A03
:1067C0000794C146DFE810F00700F6050E06060044
:1067D0007000280108E7DBE9681CDBE97462DBE98B
:1067E0007954DBF8EC31E8E69BF8D0010BF5D07A70
:1067F0000BF5E87500286DD0032878D04CF6C860FA
:10680000C0F2030014F0F3FDDBE95048DDF820A0EE
:1068100000F0B0BE09AEDDF820A000F061BEDBF8EC
:106820002C0109AD00F0EEBD180CC3EA00453BE1B8
:10683000DBF8B4119BB21AB99942C2F073800120FF
:106840008142C2F061801A1A091A8A4202F26280F9
:10685000DBF8B0110DF1400A014450460EF0DFFBA9
:10686000DDE91065042E40F01F8101204FF0000C7F
:10687000692D8BF8F101CBE964C0CBF8985140F059
:10688000238140F23A00C0F20000CAE10BF5D47354
:10689000DBE976650024CBE97D650FCB8BF83842C8
:1068A000CBE97F23CBE981010BF5FA7410A80BAA81
:1068B000214602F005FC10980C2840F0938004203B
:1068C000A0E625680DF1240801F028BBC146DBE9EC
:1068D000698E12E1C146DBE9698E00200BF5D671A5
:1068E0008BF8CC01DBF8A00181E80141C84608998A
:1068F00045F6747008440BA904F003FDC0B20428E7
:1069000003D10320287007206DE19BF8CC01C1461C
:10691000A046032805D1089945F69570084411F062
:1069200018FE0120DDF820E08BF8D001DBE9420100
:10693000CBE9680145F670700EEB000C10A800F56D
:10694000C74191E87D008CE87D00A7F1900345F6F2
:1069500090760FCB45F6D86575444EF8060080203A
:1069600045F66574CBE9705000204CF660558BF805
:10697000E9014CF65040C0F20305C0F20300744434
:10698000CBE978500EEB06000430CBE9764A0EC016
:1069900045F6B270704410A940F20A22F24615F092
:1069A000E9FB4446C84645F668700DF1380E0AEB1F
:1069B00000010EF5C6400BAA02F0BAFAD8F8F800AA
:1069C0000C2801D108200EE19BF8E901052803D02D
:1069D000042859D003285FD145F6B470504404F020
:1069E000A3FB56E02046DDE9106504F02FFB0B2EDB
:1069F00057D1DBE96AC10020DBE96C23DBE976656E
:106A00008BF85C020BF5FE70DBF8E041CBE97D65AD
:106A100080E81C10CBF80C12089945F6BC700144B4
:106A200010A803F043FD149A042A29D10520E9E5B2
:106A3000DBF8848100F0AEBDDBF8306109ADCBF846
:106A4000346100F0E9BCDDF820A001F062BE9BF8E3
:106A50003C020BF5FC7A0BF50F75DFE810F009002E
:106A6000BD04C304290B5A0B9B0BDF030F0CEE0371
:106A70000BF50076AC46DBE97E524BCE01F00ABB4B
:106A8000DDE910631598E0E545F6B470504404F074
:106A9000DDFA00208BF8E80140F23B00C0F2000074
:106AA000BFE000208BF8F0010120CBF898518BF863
:106AB000F101CBE9640640F23C00C0F20000B0E016
:106AC000DBE9526A00F0ECBD45F665730BF5D0705A
:106AD0002344DBE9428E80E8084145F67473234481
:106AE000BAE8650065C39AE867000BF5D07A67C31A
:106AF0000BF5E8758BF8D0C1079C00200BF5D6711B
:106B00008BF8CC01DBF8A00181E80141C846089967
:106B100045F6747008440BA904F0F3FBC0B20428D6
:106B200003D10320287005205DE09BF8CC01C1460D
:106B3000A046032805D1089945F69570084411F040
:106B400008FD0120DDF820E08BF8D001DBE94201EF
:106B5000CBE9680145F670700EEB000C10A800F54B
:106B6000C74191E87D008CE87D00A7F1900345F6D0
:106B700090760FCB45F6D86575444EF80600802018
:106B800045F66574CBE9705000204CF660558BF8E3
:106B9000E9014CF65040C0F20305C0F20300744412
:106BA000CBE978500EEB06000430CBE9764A0EC0F4
:106BB00045F6B270704410A940F20A22F24615F070
:106BC000D9FA4446C84645F668700DF1380E0AEB0E
:106BD00000010EF5C6400BAA02F0AAF9D8F8F80099
:106BE0000C2804D106202070032001F085BE9BF8FC
:106BF000E901052803D0042807D003280DD145F664
:106C0000B470504404F090FA04E045F6B470504477
:106C100004F01CFA00208BF8E80140F23900C0F2C1
:106C20000000ADF8400010A812F051FF0DF5D96535
:106C300040F27521281DDBE942A915F054FBB0ACE8
:106C4000294640F27922204615F096FA0DF5C04EFD
:106C50004FF0010840F279228BF89C819EF8A20245
:106C60000DF5C04E8DF8BE0210A8BEF8A012ADF80A
:106C7000BC12214615F080FA0DF5C04EDBF8F86025
:106C80009EF832020DF5C04E8DF83E0006F52970D3
:106C9000BEF83012ADF83C10D0E84F1F002940F08C
:106CA000FE82C0E8418F0029F6D1BFF35F8F002438
:106CB0009DF8BE0240F27922BDF8BC12A6F80D1074
:106CC00010A9F07306F128003473C6E90044746219
:106CD000C6E904A9C6E9064415F04EFABDF83C1011
:106CE00040F600229DF83E00C5F20002A6F8A1126F
:106CF00040F20C5186F8A302C5F20001CBF8B8604F
:106D0000012003234FF40066C1F80003D846136046
:106D10000E601026C1F82032C1F8006340261361CE
:106D2000C1F800634FF4007693610E60C1F8183229
:106D300040F62033C2F224638BF8F000CBF8F83031
:106D400009238BF8FC300423C1F8FC31D363D362F0
:106D50000222C1F81C3242F6027108F8EF0FC0F6A9
:106D60002B210023C8F80E102721EE18EC5003F554
:106D7000E1630339C6F8C026C6F8C446C6F88826BB
:106D8000C6F88C46C6F85026C6F85446C6F81826EB
:106D9000C6F81C46C6F8E025C6F8E445C6F8A8259E
:106DA000C6F8AC45C6F87025C6F87445C6F838254F
:106DB000C6F83C45C6F80025C6F80445C6F8C82400
:106DC000C6F8CC44C6F8B044C6F8B444C6F8682443
:106DD000C6F86C44C6F83024C6F83444C6E9FE242C
:106DE000C6E9F024C6E9E224C6E9D424C6E9C624EB
:106DF000C6E9B824C6E9AA24C6E99C24C6E9964493
:106E0000C6E98424C6E97624C6E96824C6E95A247A
:106E1000C6E94C24C6E93E24C6E93024C6E922244A
:106E2000C6E91424C6E90624746086F80007C6F88B
:106E3000F84686F8CC2686F8C84686F8942686F862
:106E4000904686F85C2686F8584686F8242686F80A
:106E5000204686F8EC2586F8E84586F8B42586F8BD
:106E6000B04586F87C2586F8784586F8442586F86E
:106E7000404586F80C2586F8084586F8D42486F81F
:106E8000D04486F8C04486F8A804C6F8A04486F822
:106E9000742486F8704486F83C2486F8384486F8D2
:106EA000042486F8004486F8CC2386F8C84386F884
:106EB000942386F8904386F85C2386F8584386F836
:106EC000242386F8204386F8EC2286F8E84286F8E8
:106ED000B42286F8B04286F87C2286F8784286F89A
:106EE000684286F85002C6F8484286F81C2286F8A6
:106EF000184286F8E42186F8E04186F8AC2186F84D
:106F0000A84186F8742186F8704186F83C2186F8FD
:106F1000384186F8042186F8004186F8CC2086F8AE
:106F2000C84086F8942086F8904086F85C2086F861
:106F3000584086F8242086F8204034747FF415AF3A
:106F4000DDF820A00DF5D96145F668320AF5187410
:106F5000204614F0DFFD20460AF004FD47F214112C
:106F60000120C4F2000147F2F452C1F8EC03022000
:106F7000C1F8DC04C4F2000200200BF58E7410602E
:106F80000822C1F8FC2340F20052C0F20202C1F80C
:106F900004244FF6FF72C0F23F02C1F8F4214EF212
:106FA0000011CEF200018022C1F880210A608BF826
:106FB0001C01CBE941800BF58C750021CBE94380A6
:106FC000CBE9458147F214100021C4F200000122F0
:106FD00040F8041C1021C0F8F0114FF6F861CFF60C
:106FE000FF7142500B9949F25060C2F2020012F058
:106FF00026FC47F21410C4F2000050F8041C0029CB
:1070000000F006810024012540F8044CDBF8FD0067
:10701000CAF810020AF50870DBE94336DBF8F8100D
:107020009BF8FC208BF818518BF81C518BF8C4404E
:107030008BF84440CBE90F44CBF80C40CBE900443B
:10704000ABF8EF40CBE92F36CAF814128AF81822B1
:10705000CBF8C8B0CAE980448AF8F841CAE97A4452
:107060008AF8E041CAE974448AF8C841CAE96E4422
:107070008AF8B041CAE968448AF89841CAE962448A
:107080008AF88041CAE95C448AF86841CAE95644F2
:107090008AF85041CAE950448AF83841CAE94A445A
:1070A0008AF82041CAE944448AF80841CAE93E44C2
:1070B0008AF8F040CAE938448AF8D840CAE932442C
:1070C0008AF8C040CAE92C448AF8A840CAE9264494
:1070D0008AF89040CAE920448AF87840CAE91A44FC
:1070E0008AF86040CAE914448AF84840CAE90E4464
:1070F0008AF83040CAE908440CF0DBFD45F66462CA
:107100005B4652440AF5107043F8CC4FDBF89810F8
:107110001CC040F22032C2F20202DBF8B860CBF8A9
:10712000DC1045F6C4610AEB01000BF2FB718BF831
:10713000D840CBF8D0408AF85C428AF858428AF8A6
:107140005442CAF84C42CBF8F8208BF8FB47CBF8F6
:10715000F467CBE912B3019146F2B81100240AEBAF
:1071600001054AF801408021CBF8F047CBE9F966E8
:10717000C5E90144C5E90344C5E90544EC61029051
:1071800015F0B1F84FF40060ABF8F8070BF57B7021
:10719000CBE9F7504FF0FF30CBF8EC0308208442E6
:1071A000C0F09986DBF8E0034FF481620168013199
:1071B000016046F2B4100AEB0001B0A8DBF8E84326
:1071C00014F0DAFF0125002C8BF8FB5701F09383B4
:1071D0000DF5D960B0A94FF4816214F0CDFFDBF852
:1071E000F86006F20C40D0E84F1F002972D1C0E8C9
:1071F000415F0029F7D1301D0DF5D9614FF481624F
:10720000BFF35F8F346014F0B7FFCBF8E060BEE3EC
:10721000032020702870042001F06EBB9BF88002D0
:107220000BF5207410B30899032800F0EB874CF697
:10723000D860C0F2030014F0DAF89BF8C0020BF536
:107240003074DFE810F00700D000CF00B608630903
:107250009E091A000BF5127EDBE9900CDBE99668BB
:107260009EE80642CDE9035401F039B80BF51273DC
:10727000DBF840020ECB00F0B8BF9BF80403049487
:107280000BF5417420B10899032801F00481CEE781
:107290000BF53373DBF8C4020ECB01F0EFB801211C
:1072A000BFF32F8F0020CDF8CC164CF61801CDF887
:1072B000D806C0F20301CDF8D4060420CDF8C816D4
:1072C0004CF68001CDF8D0060DF5D960C0F203016F
:1072D00012F0F9FC0121BFF32F8F0020B1914CF681
:1072E0001801B490C0F20301B3900420B0914CF6A1
:1072F0008001B290B0A8C0F2030112F0E4FC40F2A9
:107300006700CDF8C8C6C0F20000ADF8400010A874
:1073100012F0CBFB0DF5D96008F009FB0BF002FF72
:1073200012F010FC40F26600C0F20000ADF8C80692
:107330000DF5D96012F0B9FB0DF5D96008F049FBE5
:107340000BF0F0FE12F0FEFB4DF25000C0F2030015
:1073500014F04DF84CF66470C0F2030014F047F8D6
:107360004CF6F000C0F2030014F041F84CF6DC706B
:10737000C0F2030014F03BF84CF2CC70C0F20300F2
:1073800014F035F84DF2A400C0F2030014F02FF809
:107390004DF29400C0F2030014F029F84CF6FC10F2
:1073A000C0F2030014F023F84CF6CC70C0F20300D6
:1073B00014F01DF84CF6B430C0F2030014F017F8C6
:1073C0004CF6EC10C0F2030014F011F84CF68C20CF
:1073D000C0F2030014F00BF84CF61440C0F20300A6
:1073E00014F005F8FEDE4CF62440C0F2030013F062
:1073F000FEFF0021CBF82C018BF83C110BF59E7A97
:10740000CBF8000100F10806002106920BF59C74F0
:107410008BF83811CBE94C6610F012FD3168002969
:1074200040F0B087317B0BF59A794FF0FF32326034
:1074300051B1311D80460846294612F052FA316892
:1074400040460025013103E001213546317300211A
:10745000316010F020FD0126002D4FF0010008BF23
:107460000320207000F00684B0A82C7CB09508F0B2
:1074700095FC8AF80060002CDDF820A040F08D819A
:1074800000204EF6DC128BF80C01C0F20302ABF8C0
:10749000040140F20110CBF80E014FF4C870CBF894
:1074A00008011068202880F090844EF60023C0F276
:1074B00003031968202980F08F840433CBE9483115
:1074C000DBF800110432CBE9462000200B9E0BF5BF
:1074D00096788BF8140149688BF83401CBF82C119D
:1074E000DBF82C41CBF8304110F0AAFC21680029D0
:1074F00040F04887217B4FF0FF32226051B1211DBF
:1075000005460846314612F0ECF921682846002667
:10751000013103E00121264621730021216010F092
:10752000BAFC002E4FF0010008BF032089F80000CC
:1075300000F0A483B0A83469B09608F02FFC45F69B
:10754000DC600AEB00014046142214F067FE45F6A9
:10755000CC600AEB000845F61070B0A950445822E0
:10756000CBE9504814F008FE00208BF8A0010BF581
:10757000D070079045F6F460CBE96048504445F67A
:10758000507151440BF29D1990E87C0000207CC1A1
:107590008BF89D019BF8885101248BF89C410BF5D9
:1075A000CE7A9BF88901DBE96316DBE9653CBBF821
:1075B0008A41DFE805F0033D2C2E13000DF1400E4B
:1075C00000220EF5C4400DF5C04EC0E96216C0E9B8
:1075D000643C01208EF8D903002040E00DF5C04E38
:1075E00007228EF8D9230DF5C04E8EF8C7630DF132
:1075F000400E0EF5C4420DF5C04EC2F883110021B5
:10760000AEF8C143C2E9623CC2F8901126E0022202
:107610000FE00DF1400E00220EF5C4430DF5C04EF3
:10762000C3E962160621C3F890218EF8D91316E03B
:1076300003220DF5C04E8EF8D9230DF5C04EAEF8DD
:10764000C2430DF5C04E8EF8C1030DF1400E0EF58C
:10765000C4420020C2F89001C2E9611001220DF578
:10766000C04E002441468EF8DA030DF5C04E8EF868
:10767000D8430DF5C04E8EF8C0230DF1400E0EF527
:10768000C7400EF0E4FB032840F0B38249F27406D1
:107690008BF87C41C2F202060BF5BE78CBE9526A48
:1076A0000BF5A870089A45F6287100240BF5AA7509
:1076B0001144CBE95A10CBE95C56CBE954A411F044
:1076C00040FA002800F049833068002840F05683D3
:1076D00070684FF0FF313160002840F0AC83DDF876
:1076E00020A04CF60C210BF5B470C0F2030100226F
:1076F000B160C6E90020CBF878510BAA284629468C
:1077000007F03BFD002840F06D82DBF8744100205B
:10771000DBE95865CBF8740154B111F012FA002876
:1077200000F038832068002840F02E83002060603D
:10773000DBF85401012803D1DBE95610C9688847FA
:107740000120042E88F8000000F04F820799032ED4
:1077500089F80000087040F0A483DBF80001017F85
:1077600021B11D300DF06DFCDBF8000101214577E2
:107770000177DBF80001017F002900F077836321A6
:107780001D30C0F29011B1914FF00611B091B0A927
:107790000DF0D1FE022840F06F830120A7F1900187
:1077A0008BF8280145F6C96050444FF00008472285
:1077B0000AF510798BF80081CBF8F89014F0DAFC18
:1077C0000DF1380E45F610700EF5C6410AEB000CAF
:1077D0000DF1100E7DC9ACE87D0091E87D000EF53D
:1077E000C6418CE87D0045F610605044CBF8780126
:1077F00045F644706CC950446CC045F657724FF062
:1078000066334AF80230022352440988018045F663
:1078100066708BF88E3166231371FF225044B0A935
:107820008BF894214FF4CD728BF89D8114F0A2FC5B
:1078300045F684600DF1200E5044CBE9CE0946F2A6
:1078400009100EF5C541504427228BF8408314F0EF
:1078500091FC45F690620AF508700AF518715244D9
:10786000CBE9DC10A7F1F801059B46F24410CBE907
:10787000DA320AEB000CCBF878930DF1400E91E868
:107880007D000EF5C7418CE87D0046F25D10504446
:107890006B228BF8948314F06DFC0DF1400E0EF505
:1078A000C44845F6C0600BA9504403F01DFEC0B2A9
:1078B000042800F094819BF80001042808D19BF86B
:1078C0004401032804BF9BF84001032800F0ED8029
:1078D0009BF89D010438042844D845F610710AEB42
:1078E0000104DFE800F095C0030327009BF8F201D4
:1078F000032828D19BF8EA01032804BF9BF8E40180
:10790000032820D1DBF8DC510020CBF8DC0155B195
:1079100011F017F9002800F067822868002840F06D
:107920007E8200206860DBF8BC217C207821012A5F
:1079300009D113E19BF8E801032804BF9BF8E40197
:10794000032800F0F38045F6547050440DF079FBA5
:1079500045F6647050440DF074FB45F63C7050449D
:1079600008F01CFA9BF89403042804BF9BF8F0036A
:10797000032822D09BF84003032808D19BF85A0320
:10798000032804BF9BF85403032800F0A98040F2A9
:107990003600C0F20000ADF8C002B0A812F097F8AF
:1079A000DBF8E01000208BF828010AF510700B9D21
:1079B0000BF59472CBE93E011BE59BF8AC03032861
:1079C00004BF9BF8A903032800F0A4809BF8BC0324
:1079D000032801BF9BF8B90303280AF5C34011F03F
:1079E00019FB9BF8CC03032804BF9BF8C9030328A9
:1079F00000F096809BF8DC03032804BF9BF8D903B2
:107A00000328B7D146F2A010504411F003FBB1E7B0
:107A10009BF810020328A0D19BF8C801042800F0AD
:107A20003381032899D19BF80402032840F039815F
:107A3000DBF8FC410020CBF8FC0154B111F081F8D7
:107A4000002800F0D1812068002840F09D810020AE
:107A50006060DBF8DC01012840F02381DBE978106D
:107A6000C96888471DE19BF8D201033803283FF617
:107A70006FAFDFE800F002A878909BF814020328AB
:107A800004BF9BF8100203287FF462AF45F6D07064
:107A9000504408F0AEF9DBF8E40101287FF458AF58
:107AA000DBE97A10C968884752E7DBF838410020E3
:107AB000CBF8380154B111F044F8002800F094815B
:107AC0002068002840F0AB8100206060DBF82001D6
:107AD00001287FF4FDAEDBE94910C9688847F7E665
:107AE00047F214100021C4F2000001604FF6F46167
:107AF000CFF6FF7101224250016841B901680029A7
:107B000004BF0168002902D101680029F4D00021D6
:107B100001603CE746F27010504411F07BFA55E7E3
:107B200046F29010504411F075FA63E7DBF8DC512F
:107B30000020CBF8DC0155B111F003F8002800F06B
:107B400053812868002840F06A8100206860842002
:107B5000DBF8C4218021012A7FF4F5AE615820585A
:107B6000C9688847EFE69BF8F402032808D19BF820
:107B7000DC02032804BF9BF8D402032800F0DE8057
:107B8000DBF8E011DBF82002884200F24E81002091
:107B9000CBF8E00120E09BF8A40203281CD19BF85D
:107BA0008C02032804BF9BF88402032814D146F2F8
:107BB0004400504408F01DF9DBF8380201280BD1CD
:107BC000DBE98F10A9E09BF84802032804BF9BF86B
:107BD0004002032800F0968045F69470B5E6072031
:107BE00000F08ABE032088F80000032089F8000016
:107BF00039E006469AF800000D468AF80040012850
:107C00002BD140F23600C2F20200007874DF10F08F
:107C100030FA012821D10DF1400E0EF5C440C0F814
:107C2000801140F24D00C0F2000027F8900CA7F13F
:107C3000900011F03AFF40F2BA00C0F2000027F8BD
:107C4000900CA7F1900011F0EFFE0DF1400E0EF533
:107C5000C74010F0AFFA0BF065FA0120042E89F846
:107C6000000040F01C81DDF81C90032089F8000022
:107C7000052004E003208AF8000000E004200699B3
:107C80000870062000F038BE9BF80E02032804BFDF
:107C90009BF80402032843D045F68E7050440DF043
:107CA000D0F99BF8C70148B39BF8CC0100218BF8B1
:107CB000CC11012822D18DDF10F0DBF901281DD174
:107CC00040F25F0048F8101CC0F2000027F8A80C32
:107CD000A7F1A80011F0E9FE40F2BA00C0F20000DE
:107CE00027F8A80CA7F1A80011F09EFE0DF1300EA8
:107CF0000EF5C44010F05EFA0BF014FA00208BF879
:107D0000C7012AE60AF5C04008F073F8DBF8DC0189
:107D100001287FF461AFDBE97810C96888475BE729
:107D200045F6C470504408F064F8DBF8DC01012823
:107D3000B2D1DBE97810C9688847ADE746F2940014
:107D4000504408F056F8DBF8880201287FF418AF99
:107D5000DBE9A310C968884712E70DF1400E4EF227
:107D6000F8210EF5C44904220120C0F20301C9E93B
:107D70006010C9E96224C9F890411CE04EF22C4021
:107D8000C0F2030011F0FFFE4EF24C40C0F20300BF
:107D900011F0F9FE0DF1400E4EF2F8220EF5C44935
:107DA000002004230121C0F20302C9E96230C9E9BD
:107DB0006021C9F890014EF27031C0F203010DF15B
:107DC000400E0EF5C74011F07EFF4DF6B0521F2158
:107DD000C0F2030213F076F84DF6B0520846C0F236
:107DE00003021F2113F06EF80121002004230DF17E
:107DF000300E4EF2F82248F80C1C4EF2703148F862
:107E0000083C48F8040CC0F20302C8F800000EF564
:107E1000C440C0F2030148F8102C11F054FF4EF298
:107E20003C40C0F2030011F0AEFE4EF2A862C0F278
:107E3000030213F043F80DF1400E4EF2A8320EF596
:107E4000C4490121C0F2030200200423C9E96021D2
:107E50004EF21C41C9E96230C9F89001C0F2030139
:107E60000DF1400E0EF5C74011F02DFF4CF6FC70E1
:107E7000C0F2030011F0A1FECDE9B0014DF20C00FB
:107E8000C0F203004CF6147300904CF6E860B0AA00
:107E9000C0F20300C0F203032B2111F0CBFF0799BE
:107EA00008700DF1400E4CF624730EF5C4400DF130
:107EB000400E0EF5C742C0F20303C0E960654CF600
:107EC000EC70C0F203002B2100904CF6E860C0F289
:107ED000030011F0AFFF0021DBF8E4538BF8A01191
:107EE0008021029A601CDDF82C800BF5D0798BF88C
:107EF000FA478BF8F807CBF87C51CBE96021CBF837
:107F000088010023CBF8A4518BF8AC310BF5D67661
:107F1000CBE963500BF5D274CBE96521CBF8A851BE
:107F20000FF08EFF2968002940F02C82297B4FF04A
:107F3000FF320494CDF81C902A6059B1291D0446E3
:107F40000846414611F0CDFC296820464FF0000A52
:107F5000013103E00121AA462973002129600FF0B5
:107F60009AFFBAF1000F4FF0010008BF03203070F4
:107F700000F00482DBF88C010DF1100ECBF89CA10F
:107F8000D0E90401CBE969010EF5C640DBE965984B
:107F90003EC83EC690E83E0000203EC64FF4F37255
:107FA0000AF1100508998BF8F50145F658700E187E
:107FB00045F6BE7008440DF5D961049CCBF8E85134
:107FC000CBE97B46CBE9759814F0D4F80BF2F510A9
:107FD0000690DBE969010DF1400E0022CBF8B88173
:107FE000CBE980980EF5C4488BF8F4218BF8602219
:107FF0000BF5D672CBE97754CBF8E46182E8030243
:10800000CBE97E54CBE98260CBF810120DF1280E3B
:108010000BF5FC7A44460EF5C7485146404602F03F
:1080200013F8D4F87801042800F0A48101200BF59E
:10803000DE7C8BF8F40198E87D0061467DC1DBF8B9
:10804000CC21032A04BFDCF8000006280DD0DBE9B0
:108050006F93DBF8D001DDF820A00025022A8BF811
:10806000F45140F06D8300F005BCDBE96D010DF1CA
:10807000400EDBE977520BF5007CDBE96B360EF541
:10808000C4488CE84B000BF50F7C00248BF83C4275
:10809000CBE97E520024CBE99052CBE9845365466C
:1080A0008BF88042CBE99236CBE98662CBE9880136
:1080B000089946F208000DF1400E0BAA01440EF596
:1080C000C74000F067FED8F880010C2800F050810E
:1080D0009BF88002D8E96096042808D19BF8C40276
:1080E000032804BF9BF8C002032800F02281B9F1E5
:1080F0000B0F40F028810BF504764FF48070ABF83D
:10810000E90200204ECECBF8B002CBE9B816CBE99D
:10811000A8230DF1400E0BF510710EF5C74000F0CD
:1081200011FDD8F88001022800F02681D8E9619677
:10813000C00705D00120CBF83062CBE98A0902E103
:1081400000225FEAC970CBE98A294FF00B09CBF80E
:10815000306237D0DBE98510CBF83462431A28BF90
:108160001A46120B00F01481AC4600258BF884529D
:10817000751CB5FBF2F4DBF81CE204FB1252DBF8D1
:1081800010326546CBE9903ECBE99210CBF838220D
:10819000CBF850220DF1400E0BF510710EF5C740D3
:1081A00000F028FCD8F880010C2800F0DF80D8E926
:1081B0006096B9F10B0F40F0C680F0B24FF00B099A
:1081C000022800D123E20BF504762C4600250BF59E
:1081D000127C47CEDBF834328BF880522546CBE94F
:1081E00090060BF520748CE80E00002601EB03339B
:1081F000CBE995120BF517718BF87C6203F580566D
:1082000049C1089946F2240008440BA903F079F803
:10821000C6B2042E00F0A6809BF87C02032805D18C
:10822000089946F24500084410F093F90120032E06
:10823000207071D10BF50476DBF83402CBF85002D4
:10824000AE464ECE46F21C00CBE99016A7F1F801DF
:10825000CBE99223DDF820C091E87C0060447CC02B
:10826000002075468BF8680246F231000DF1400E91
:1082700060440EF5C741632213F07CFF0BF51071CB
:10828000A7F1A8000BAA00F0F5FC57F8A80C0C28E1
:1082900066D09BF8680257E92A96042804BF9BF829
:1082A000840203283BD0B9F10B0F4CD10BF5047EAF
:1082B000DBE98D86DBE987C10BF512730395002599
:1082C0009EE80142DBF8242283E806420BF5307376
:1082D0008BF8C052CBE9900CCBE99668049309EB7C
:1082E000063509F1040305F6FC7503EB063403EBD0
:1082F0000833CBE99BC1CBE9A0450BF5187484E8A2
:1083000001420DF1400E0EF5C448DDE90354CBE9FE
:108310009D26CBF87C3241E04FF0040977E10899C3
:1083200046F24D00084410F014F9B9F10B0FBDD01E
:1083300009E0089946F28900084410F00AF9B9F1F9
:108340000B0F3FF4D8AE0120B9F10C0F287000F0EC
:10835000C9829AF844000338052840F25F81AFE1F2
:108360000720BEE2032020700620BAE20520B8E212
:108370000320B6E20320B6E20420B2E20320019912
:10838000079AB5E24DF6B010C0F2030011F0FBFB06
:108390004DF65470C0F2030013F016F80023089E47
:1083A0008BF8E43246F248033344CBE9B130CBE9F1
:1083B000B3120DF1400E0BF531710EF5C74002F00E
:1083C00047FDD8F88001022800F07D8208F5C673C9
:1083D000D8E96196C007A7F1A80C0ECBCBE9A3960C
:1083E0008CE80E0003D00120CBF8880205E1A7F14C
:1083F000A8020395089D46F25C0307CA0026B9F15E
:10840000000FE85005EB0300CBF88862C0E90112C9
:1084100023D046F25800DBF89C2229582844D0E9A2
:108420000103CBE9AA030BF52870CBF8B022CBE906
:10843000A8910CF03BFC0DF1400E02460B460EF5E8
:10844000C74011461A460CF0C9FDD8E9600900285A
:1084500042D0D8F88861039DCFE00BF518750BF575
:10846000337C04940BF5417427CDDBF87832CBE9EB
:10847000B1058BF804638CE80E00039D002601EB28
:108480000333CBE9B6120BF538718BF8006303F5B3
:10849000805649C1089946F2A80008440BA902F089
:1084A00030FFC6B2042E00F012829BF800030328AE
:1084B00005D1089946F2C900084410F04AF8012095
:1084C0004FF00409032E207004D104994FF00B09DA
:1084D00008709CE0049C98E021460024DBE9A86534
:1084E0000BF5317E8BF82C430BF52D74DBE99A23C9
:1084F000CBE9B4540C46CBF8BC52039DDBE9980C95
:10850000CBE9AD968EE84900CBE9B6C20DF1400E3D
:108510000BF531710EF5C74001F096FDD8F89001CA
:10852000CDE90354042800F0D08102286BD0D8E9AB
:108530006096032861D00899D8E96205C8F8380226
:1085400046F238100C18DBE9AE23A7F1F801C8E9B0
:108550008C9620460CF0BAFBDBF8B002854240F066
:1085600096810BF5187300268BF86C630FCBDBF844
:108570007C62CBE9B140DDE90354CBE9B331CBE90F
:10858000B526089946F28C000DF1400E0BAA014465
:108590000EF5C74002F0E1FAD8F880010C2800F08F
:1085A0009D819BF86C03D8E96096032814D1089A42
:1085B00046F2A4009BF820131044032900F06E81BA
:1085C000042918BF052907D19BF838235D21032A08
:1085D00004BF08440FF0BDFFB9F10B0F0DD1BBF87C
:1085E0007C03DBF87C1220F00302830718BF101D08
:1085F00008440830CBF87C024BE10120B9F10C0FA4
:10860000207004D16CE14FF0060901202070012098
:1086100028709AF844000338052851D8DFE800F0A4
:108620000350501D12289AF88800042848D19AF85F
:10863000CC00032804BF9AF8C800032840D10AF1EF
:10864000C9003BE09AF87000042804BF9AF88C0037
:10865000032835D10AF18D0030E09AF8880003280C
:1086600004BF9AF8840003282AD10AF1850025E086
:108670009AF8C800062817D0052804BF9AF8740194
:1086800003281DD19AF828110AF1E400032900F00B
:108690000E81042918BF052912D19AF840215D21C5
:1086A000032A0DD1084409E09AF80C01032804BFFD
:1086B0009AF80801032803D10AF209100FF049FFC4
:1086C000B9F10B0F42D10BF5D673DDF820A00BF5F5
:1086D000007CDBE977650FCBCBE9830145F6DC70E5
:1086E0005044A7F1F801DBF8E4418CE81C004C226F
:1086F000CBE97E6513F040FD00200DF1400E8BF8B4
:10870000600246F2290050440EF5C741AF2213F033
:1087100031FD45F6C0700AEB0001A7F1A80001F099
:1087200093FC57F8982C042A00F0D68057E92A9336
:1087300057F8940C0025022A8BF8F45100F09A8027
:10874000032A6CD1180CC3EA004604E00020DDF8CF
:1087500020A08BF8F40106990120B046002508708E
:1087600045F66470504407F019FB0DF1300E70228D
:108770000EF5C4440DF1380E0EF5C641204613F037
:10878000FBFC0DF1200E07990EF5C5460120702265
:1087900008703046214613F0EFFCBDB30DF1400EDA
:1087A00031460EF5C4400DF1400E0EF5C744462289
:1087B000C0E9609804F10800DBF8DCA39BF8FA57E5
:1087C00013F0DAFC04F14F0006F14701292213F0FF
:1087D000D1FC40F23700C0F20000ADF8C8060DF53C
:1087E000D96011F074F90DF5D9660DF5C04E5146FA
:1087F0002A46304623468EF80E5407F076FBDDF805
:10880000C806002840F09580DDF820A09BF8F847C6
:108810009BF8F9078442FFF45EABFEF7C3BCDBF8BC
:10882000B8119BB212B9042099427BD30DF1400ECE
:1088300081420EF5C44567D31A1A091A8A4269D8CB
:10884000DBF8B4110DF1400E0EF5C744014420468B
:108850000BF04CF8D5F8800110B1D5E961967AE7B4
:1088600004F10C01A7F190007022D5E9619813F092
:1088700083FC0125069901200DF1380E7022087045
:108880000EF5C640A7F1900113F076FC68E7DDE92C
:108890000354DBF86002DBE99C127FE59BF8681368
:1088A00003297FF499AE9BF8642389218FE69AF817
:1088B000701103297FF404AF9AF86C218921032AEF
:1088C0003FF4F0AEFCE6032009E0042007E00320BB
:1088D00020700620049C02E0052004E005202070A2
:1088E0000820287004200199DDE906321870042060
:1088F00010700320087005208BF8F1000DF5CA4DAB
:1089000013B0BDE8000FF0BD4CF6D432C0F2030244
:1089100012F0D4FA4CF6E4331046C0F203031A46C0
:1089200012F0D0FA4CF6C4321846C0F2030212F02C
:10893000C9FA0DF1400E311D0EF5C7447C222046C8
:1089400013F01AFC4CF684704CF67473C0F20300FA
:10895000C0F2030300904CF6E860C0F203002B2144
:10896000224611F067FAD0B502AF86B004464EF247
:10897000CC70C0F203000021CDE900046A4694F8EF
:108980004C000491CDE9022258B1032826D194F875
:10899000480058B1032827D194F8440080B9A06A50
:1089A00008E0206A84F84810606200E0606A84F899
:1089B0004410A062C4E90B10C4E90D11C4E90F1101
:1089C00004F12C0002A907F0D9F8032084F84C0028
:1089D00084F8480084F8440006B0D0BD4DF28C10F5
:1089E000C0F2030012F003FD4CF66C10C0F203005D
:1089F00012F0FDFCF0B503AF4DF8048D804691F800
:108A000044000C46DFE800F003979D2A2100266908
:108A10000025A1682246D4E9000C012301EB0631B0
:108A200042F8245FC4E9050C04F1480CC4E90A5576
:108A3000C4E90C55C4E90E55256484F85850C4E9BE
:108A400007618CE80D00616510E094F85C00002877
:108A50006BD104F14C03A16D0DCB34E094F85800B8
:108A6000002862D104F14803616D0DCB0FF0F9FAD3
:108A70000123C0B2032884F8583047D12246552636
:108A800012F824CF002552F8041C06EA5C0652F8BE
:108A9000100CACEB060C332601F6FF7182F838504F
:108AA00006EA9C0E0CF03306764402F1280C06EB25
:108AB000161606F00F06052E38BF012582F8245041
:108AC0008CE80D0051630FF0CCFA0121C0B20328ED
:108AD00084F85C101AD194F82400552294F84810B8
:108AE00002EA5002A0EB02004FF0330202EA9002C9
:108AF00000F03300104400EB101000F00F0271B1D1
:108B00000020042A88BF01200B2100E00421C8E9CD
:108B10000010012084F844005DF8048BF0BD0621AC
:108B20000220042A88BF0B21F1E74DF26C10C0F23D
:108B3000030012F05CFC4CF61030C0F2030012F09F
:108B400056FCFEDEF0B503AF2DE9000B82B0804687
:108B500091F8A9000C4638B103282ED04CF62030ED
:108B6000C0F2030012F043FCD4E918214FF0010CCD
:108B700094F8AA604FF0000984F8A8608E1A236F59
:108B800040F6FF7ED4E9280584F894C0C4E91A2190
:108B900038BF4E463105C4E91D054FEA1631C4E918
:108BA0001F3118BF0CEB1631C4E92192C4E9231E12
:108BB000C1B90022002100204BE068462146FFF7A2
:108BC00019FF00980C2834D0DDE900100B293AD1A8
:108BD000D4F89C10C0B20978814236D0D4F88C10F9
:108BE0000029E6D004F18003D4F890600139C4F87C
:108BF0008C100DCB551C33440133C4E9215398B379
:108C000004F1A801E36FC4F89C10002184F844101B
:108C10009918B1FBF0F2D4E91AEC02FB1010D4E978
:108C20001D65C4E90065C4E902ECC4F89800206140
:108C3000C3E70220C8F80000032084F8A90002B0AE
:108C4000BDE8000BF0BD012203E0D4F8980001213B
:108C50000022C8F808000120C8E9002184F8A90012
:108C600002B0BDE8000BF0BD4DF64470C0F2030049
:108C700012F0AAFBF0B503AF2DE9000B82B08046DD
:108C800091F828000C46DFE800F0037D83154D00C5
:108C9000D4E9000C0021D4E90236256984F870106B
:108CA00004F11401C4E90B0CC4E90D36E56381E855
:108CB0004910656204F12C06684691463146FFF77B
:108CC00099FE00980C2809D10C20C8F80000032058
:108CD00084F8280002B0BDE8000BF0BDDDE9000516
:108CE0000B283FD1E8B20228357039D10020214647
:108CF00041F8480F012551E90D2351F8246C41E951
:108D000006214A46C1E9010003EB0633C1E903002D
:108D1000C1E90500C86101F8040C042001F81B5CDE
:108D200041E9040304F13000114602F084FBC5B2AE
:108D3000042D09D10C20C8F80000042084F8280074
:108D400002B0BDE8000BF0BD94F84400032804BF56
:108D500004F145000FF0FDFB032D05D194F82D50D3
:108D60000B2003E0290A01E000210420EAB242EAD4
:108D70000121C8E90001012084F8280002B0BDE803
:108D8000000BF0BD4CF63030C0F2030012F02FFBA8
:108D9000FEDED4D4F0B503AF2DE9000782B08046E3
:108DA00091F840000C469146DFE800F003353B5F48
:108DB0002400D4E902654FF0010C40F6FF70D4E9BD
:108DC00000AEAB1B84F838C060634FF0000138BFC1
:108DD0000B4618054FEA1332104618BF0CEB133040
:108DE0002063C4E904A6C4E9065EC4E90812C4E924
:108DF0000A1617E0254615F8840F38B1032863D00A
:108E00004CF6D860C0F2030012F0F1FA04F14C0302
:108E1000606C0ECB4CE04CF64030C0F2030012F018
:108E2000E6FAFEDE002865D004F12403666B013803
:108E300020630ECB551C334401330029C4E90A5387
:108E400070D0D4E907531A4404F1100EB2FBF1F3C9
:108E500003FB1121002604F144029EE8015084F82E
:108E60008860E16382E82150616504F1440168464D
:108E7000FFF7C0FD009806280BD00C2838D10C2035
:108E8000C8F80000032084F8400002B0BDE80007E5
:108E9000F0BD0020254605F8840FA5F17406A5F164
:108EA000380C55F8483C47CE45E910068CE80E00D2
:108EB000002601EB0333C4E9161204F1600184F8C3
:108EC000806003F5805649C104F16000494602F014
:108ED00018FAC6B2042E0FD094F88000032804BFFD
:108EE00004F181000FF035FB0120032E28700FD113
:108EF000206B97E70B200CE0032028700C20C8F8AB
:108F00000000042084F8400002B0BDE80007F0BD76
:108F10000420C8E90006012084F8400002B0BDE842
:108F20000007F0BD4DF64470C0F2030012F04CFA99
:108F3000F0B503AF2DE9000782B0804691F84900F3
:108F40000C469146DFE800F003B4BA27588C4FF086
:108F5000000AD4E9100184F848A084F8B5A04CF6C2
:108F6000F43AD4E900CEC0F2030AD4E90823D4E9E4
:108F70000E65C4E902CEC4E90423C4E92A65C4F835
:108F8000B000C4E91B23C4E91D1AC4E913CEC4E927
:108F90000A65C4E90C0104F14C0568464A462946B5
:108FA00000F0BAFB00980C2809D10C20C8F800008A
:108FB000032084F8490002B0BDE80007F0BDDDE9F8
:108FC0000001C4E90601012084F84800284602F0A7
:108FD000ABF8A06906285DD1D4E902C10020D4E92C
:108FE0000423D4E90A6584F8900004F15400C4E92C
:108FF000136580E80C10216604F14C0568464A466A
:10900000294600F05DF800980C2809D10C20C8F81A
:109010000000042084F8490002B0BDE80007F0BD5C
:109020002846DDE9006A02F011F80B2E34D14CF627
:10903000F43CD4E90C2E0026D4E90AA1D4E904308A
:10904000C0F2030C84F8B560D4E90256C4E92AA141
:10905000C4F8B020C4E91B30C4E91DECC4E91356C0
:1090600004F14C0568464A46294600F055FB009835
:109070000C2809D10C20C8F80000052084F849000C
:1090800002B0BDE80007F0BD2846DDE9006A02F045
:109090004BF801E0D4E9066A0020C8E9006A84F8C8
:1090A0004800012084F8490002B0BDE80007F0BD87
:1090B0004CF60440C0F2030012F099F9FEDED4D45D
:1090C000F0B503AF2DE90007A0B0804691F8440049
:1090D0000C469146DFE810F009009B01A7011B0038
:1090E0004A0097005C0006013C0194E8031000224E
:1090F000D4E90336656984F8882004F1480243C244
:109100006565C4E90606C4E90851C4E90AC304F167
:10911000480168464A46FFF73DFE00980C2809D1F1
:109120000C20C8F80000032084F8440020B0BDE8FB
:109130000007F0BD94F88800DDE90065042804BF4D
:1091400094F8CC00032800F03C810B2E40F05681AF
:1091500004F118064FF48070A4F8F10000204ECE00
:10916000C4F8B800C4E93A16C4E92A2304F1480156
:109170006846FFF7E7FC0098022815D10C20C8F8D4
:109180000000042084F8440020B0BDE80007F0BDD2
:10919000264616F8880F80B103286AD04CF6D860AE
:1091A000C0F2030012F023F9DDE90165C00709D020
:1091B0000120A563C4E90C0620E104F15003A06C72
:1091C0000ECB4AE00022F007C4E90C26A56300F0AC
:1091D0001481D4E90710E563431A28BF1A46120B1D
:1091E00000F01B810023666A84F88C306B1CB3FB93
:1091F000F2F5D4F818C005FB1232C4E912C6C4E96E
:1092000014102264A26504F148016846FFF7F2FBDE
:1092100000980C2809D10C20C8F80000052084F81B
:10922000440020B0BDE80007F0BDDDE900650B2E6D
:1092300040F0E480E8B2022800F0DF8000202646FB
:1092400006F8880FA6F17005A6F1380C56F84C3CCC
:1092500027CD46E910058CE80E00002501EB03330D
:10926000C4E9171204F1640184F8845003F58055B1
:1092700029C104F16400494602F043F8C5B2042D47
:109280000BD1032030700C20C8F80000062084F8B1
:10929000440020B0BDE80007F0BD94F88400032826
:1092A00004BF04F185000FF054F90120032D307044
:1092B00074D104F11806E06BA06504F15C0C4ECE8D
:1092C000C4E9121619A9C4E9142391E86D0069468E
:1092D0008CE86D000020632284F8700004F17100B6
:1092E00012F048FF04F148011EA84A46FFF7C2FCED
:1092F0001E980C2809D10C20C8F80000072084F81B
:10930000440020B0BDE80007F0BD94F87000DDE92E
:109310001E65042801BF94F88C00032804F18D0019
:109320000FF017F90B2E69D104F1180ED4E90F21B3
:10933000D4E909360020E56A9EE8005484F8C500A7
:10934000C4E92FA3C4E92665C4E92812C4E916CEEE
:1093500004F1480168464A4600F066F800980C2877
:1093600009D10C20C8F80000082084F8440020B07F
:10937000BDE80007F0BD94F8C500DDE900650528EB
:109380000ED0062837D194F80801032804BF94F8BA
:10939000040103282FD104F205102AE004262DE051
:1093A00094F87001032826D194F82401032814D0DE
:1093B000042812BF052894F83C0103281BD15D2026
:1093C00014E094F8C800032804BF04F1C9000FF0AA
:1093D000C0F80B2E3FF4BCAE10E094F86C010328EB
:1093E00004BF94F86801032805D1892004F1E00145
:1093F00008440FF0AEF80B2E00D10B26C8E900652B
:10940000012084F8440020B0BDE80007F0BD4CF610
:109410001440C0F2030011F0EAFF4DF65470C0F2A0
:10942000030011F0D1FFFEDEF0B503AF2DE9000718
:109430008EB0804691F87D000C469146DFE800F042
:1094400004353B4594C12100D4E9043CD4E91652CB
:109450001E1DD4E9141006EB023A626FD4F878E0CE
:1094600006EB0536C4E91A5A03EB053505F6FC751B
:10947000C4E9063CC4E9182EC4E90810C4E90A6529
:109480001AE0254615F8C00F40B1032800F01181FD
:109490004CF6D860C0F2030011F0A9FFD4F88000A8
:1094A000D4E92221D4F89030F7E04CF62440C0F201
:1094B000030011F09CFFFEDE0023C4E9221084F8B3
:1094C000A03004F12803C4E9203204F1800108A887
:1094D00001F0BEFC0898022800F0C1800BABDDE96A
:1094E000095AC0070DF1040C0ECBC4E90D5A8CE8E3
:1094F0000E0040F0BE8001AA04F13C03002D07CA13
:1095000007C34FF00000206300F0B88004F1380377
:109510000FCBC4E90212C4E90050204623670BF0C8
:10952000C5FB02460B4608A811461A460BF047FD3C
:109530000898002840F0E4800023D4E90012D4E920
:1095400006EC84F8E83023469DF82400D4E9186539
:1095500003F87C0F04F18800C4E91212C4E9206505
:1095600080E80E40C4F898C004F1800108A800F01B
:109570009DFF0C98042868D002287DD0DDE9085AA8
:10958000032800F0BF80CDE9045A04F59675D4E9AC
:10959000122304A9DDE90A06069028460BF096FB83
:1095A000206F86423BD10026D4E91823D4E9060176
:1095B00084F82861E66EC4E92052C4E92230C4E987
:1095C000241604F1800108A84A4601F0C6FA08985A
:1095D0000C2830D094F82801DDE9085A032811D16D
:1095E00094F8DC1004F1980003291CD0042918BF5A
:1095F000052907D194F8F4205D21032A04BF08440B
:109600000EF0A7FF0B2D7DD1B4F83801E16E20F0EC
:109610000302830718BF101D08440830E066D4E930
:109620000810226E48E794F824110329EAD194F82F
:1096300020218921E1E70C20C8F80000052084F8EA
:109640007D000EB0BDE80007F0BD0C20C8F800009A
:10965000042084F87D000EB0BDE80007F0BD0C20AA
:10966000C8F80000032084F87D000EB0BDE80007B4
:10967000F0BD0120206345E0062543E0254605F8BE
:10968000C00F55E9180655E92A2155F8583C45E917
:10969000100645E90E2145F8303C0026C4E9252195
:1096A00002EB033304F19C0184F8BC6003F580569F
:1096B00049C104F19C00494601F023FE5FFA80FA9B
:1096C000BAF1040F0BD1032028700C20C8F8000059
:1096D000062084F87D000EB0BDE80007F0BD94F8C8
:1096E000BC00032804BF04F1BD000EF032FF0120CE
:1096F000BAF1030F28704FF0040508BF0B2501E0F5
:10970000DDE9095AC8E9005A012084F87D000EB04D
:10971000BDE80007F0BDD4D4F0B503AF2DE9000FCC
:10972000B1B0804691F869000C469246DFE810F02F
:109730000E0011012301450174014A003D00620041
:109740005A037C03B003D903E601030204F15C066B
:1097500004F1200ED4E9001904F1300B4CCE404640
:109760009EE820508BE84C0004F1100282E8205063
:109770000A466FF31F32D4F82C80002AC4E902197C
:10978000C4F81C80069240F0B9804A466FF31F323D
:109790000792002A40F0C280A9EB01030022B2EB3D
:1097A000533F00F0CB808046E6E094F8200104F5BA
:1097B000907680B3032859D04CF66860C0F203005D
:1097C00011F015FECDF81480A04618F8F80F002807
:1097D00071D0032840F0C380A14619F8F40F002887
:1097E0006FD0032800F006824CF63860C0F2030008
:1097F00011F0FDFDA14619F8940FDFE810F0050007
:10980000B600BC008402BF02CDF81480D4E91C6805
:10981000D4E91E5B65E2CDF81480B346206FD4E92D
:109820001D98D4F884500290E06F0490D4F8800022
:10983000039048464146E66E0BF007FB214641F88F
:10984000880F002001F10C0281F84C000298A1F869
:109850000480C1F81880DDF8148082E803020498BF
:109860008E605E46C8610398C1E9080504F190095D
:109870002EA85246494601F0DBF92E980C280BD150
:10988000032030700C20C8F80000062084F869001E
:1098900031B0BDE8000FF0BD94F8D400DDE92E5BD7
:1098A00003281AD004280FD0052804BF94F8EC0030
:1098B00003281AD10CE0E06ED4E91FC3D4F8841059
:1098C000FFE0D4E9262008E194F8EC0003280CD14D
:1098D0005D2048440EF03DFE07E094F81C0103288B
:1098E00004BF94F81801032806D001200B2D307016
:1098F00040F094830B2591E38920EAE700204CF6A1
:10990000384208904CF6E04006A9C0F20300C0F2CD
:109910000302009008AB002006F030FA00204CF65D
:10992000384208904CF6D040C0F20300C0F2030267
:10993000009007A908AB002006F020FA4CF66C4016
:109940004CF6C042C0F20300C0F20302512110F0F5
:10995000C5F94CF6F040C0F2030011F048FD4CF69A
:109960004860C0F2030011F042FD4CF60030C0F236
:10997000030011F03CFDFEDEB9EB0106E26338BFE7
:109980000026330B30054FF00105184618BF05EBD4
:10999000163013B9002840F01F81824200F009817F
:1099A0004FF48070D4E90C23A4F815010020C4F80A
:1099B000DC00C4E93319C4E9432304F16C0108A8AD
:1099C000FFF7C0F80898022800F0E980DDE9095B9C
:1099D000C00740F0F080002004F1400181E8210838
:1099E000E9077DD0D4E90221C4F84CB08B1A28BF16
:1099F0001846000B00F01B830025D4E90C3C84F8CA
:109A0000B0500BF10105B5FBF0F6C4E91B3C06FBB9
:109A10001050C4E91D21E06704F16C0108A8FEF7AD
:109A2000E9FF0898CDF814800C2800F0AE80DDE93D
:109A3000085B0B2D40F0F2825FFA8BF0022840F0B9
:109A40008982D4E9042308A8A16BD4F80880D4F84B
:109A50004C900BF0A8FADDE9085B042D40F0DC82A5
:109A600061695945C0F0B180D4E90662A1EB0B03EE
:109A70002069D56800EB0B0208A83146A847DDE94C
:109A80000850042D40F09D8000EB0B012165B1F5DD
:109A90007F6F00F2988008EB0930A04600F6FC7357
:109AA00000F1040C002008F8F80F58E93C25A8F153
:109AB000840E58E9320648E923068EE8241048E966
:109AC0001E31224642F890CF42E9023100219146F0
:109AD000C2E90132D06009F8641FC4E9282081E09E
:109AE000D4E902234FF40071D4E90C65A4F81511F0
:109AF000C4F8DC00C4E94365C4E9332304F16C0114
:109B000008A8FFF71FF8089802282BD0DDE9095BA9
:109B1000C00740F08382E80700F01C82D4E90C23E0
:109B20000026D4E90201C4E91B2304F1740284F87D
:109B3000946082E8030804F16C0108A85246FFF71C
:109B400099F808980C2816D094F89400DDE9085B81
:109B5000042804BF94F8B000032840F0F48104F115
:109B6000B100EEE10C20C8F8000084F8690031B0C3
:109B7000BDE8000FF0BD0C20C8F800000D2084F8EF
:109B8000690031B0BDE8000FF0BD0C20C8F800003E
:109B9000042084F8690031B0BDE8000FF0BD0C204E
:109BA000C8F80000032084F8690031B0BDE8000F58
:109BB000F0BD052532E2012004F1400181E82108D1
:109BC0002CE2834628E20A2526E24CF6005258464B
:109BD000C0F2030211F072F94DF62460C0F20300E6
:109BE00011F0F2FB0021D2E9002384F8F01004F117
:109BF000A8010DC104F1A80108A800F089FE089889
:109C0000032800F0D38198B1DDF828B0012844D1B1
:109C1000D4F8A0004FF6FC7101EA0B015FEA8B73E8
:109C200001F10401026808BF1FFA8BF111443BE007
:109C3000204650F8882F81690D68012180F86C104A
:109C4000521B072A35D922F0030284F8F810D4F801
:109C50008C10083A8A422ED36169D4F85080884526
:109C600000F2EB8104F10809D4E90C16E16608A9B9
:109C700099E80C020492E26798220296C4E91C69F2
:109C8000C4F878800393C4E9203512F075FA0020F7
:109C900004F5907B84F82001CBE5099D062D40F06A
:109CA000B681D4F8A000016808310160D4E9282009
:109CB00098E788F800100020A14609F8940F8F2239
:109CC00059E91906A9F1280159F848BC59E9238531
:109CD00081E8410109F1010008A949E9075B12F097
:109CE00049FA002004F1980184F8C000E06EC4E94C
:109CF000200881E8410104F18800DDF81480C4E9FE
:109D0000295B80E8600804F198062EA85246314687
:109D1000FEF7B0FF2E980C2800F0468194F8C000A2
:109D2000DDE92E5B042801BF94F8DC00032804F170
:109D3000DD000EF00EFC0B2D40F05E815FFA8BF023
:109D4000012886F800B030D10020214641F8B40F38
:109D500051E90D2351F8246CC1E90100C1E9030068
:109D600003EB0633C1E9050003F6FC73C86101F893
:109D7000040C042041E9062141E9040304F19C009C
:109D8000514601F058FB5FFA80FBBBF1040F00F075
:109D9000268194F8B000032804BF04F1B1000EF04E
:109DA000D8FBBBF1030F40F02D8101204FF0000CD8
:109DB00084F89400D4E90210431A38BF63461B0BA1
:109DC00000F03581E26CD4E90C6E013284F8B0C049
:109DD000B2FBF3F5C4E91B6E05FB1322C4E91D10A9
:109DE0006265E26704F16C0108A8FEF703FE0898BB
:109DF0000C2800F0BB80DDE9085B0B2D40F00E81E4
:109E00005FFA8BF0022884F868B040F0A380D4E9B0
:109E10000C230025D4E90201C4E91B2304F17402D8
:109E2000666D84F8945043C204F16C0108A8524650
:109E3000FEF720FF08980C2800F0A28094F8940008
:109E4000DDE9085B042801BF94F8B000032804F1A1
:109E5000B1000EF07EFB0B2D40F0E080D4E9021043
:109E60004FF0000C431A38BF63461B0B00F0DF8035
:109E7000626DD4E90C6E013284F8B0C0B2FBF3F528
:109E8000C4E91B6E05FB1322C4E91D10A265E2673D
:109E900004F16C0608A83146FEF7ACFD08980C28C2
:109EA00078D0DDE9085B0B2D40F0B8805FFA8BF0CD
:109EB000022886F800B048D0D4E90C230026D4E963
:109EC0000401D4E915CE84F8ED60D4E90265C4E953
:109ED000392304F1C00282E80340C4F8CCC0C4E9CD
:109EE000206504F1700108A85246FFF79DFA089812
:109EF0000C286AD094F8ED00DDE9085B05280CD049
:109F0000062820D194F83001032804BF94F82C01CE
:109F1000032818D104F22D1013E094F898010328B7
:109F200011D194F84C1104F58470032914D004293C
:109F300018BF052907D194F864215D21032A02D1B5
:109F400008440EF006FB0B2D68D1E06BD4E9021932
:109F5000421C11E5062561E094F894110329F2D121
:109F600094F890218921032AEAD0ECE70C20C8F864
:109F70000000082084F8690031B0BDE8000FF0BD92
:109F80000C20C8F80000092084F8690031B0BDE851
:109F9000000FF0BD0C20C8F800000A2084F869000A
:109FA00031B0BDE8000FF0BD032019E00599032092
:109FB00088F8000089F800000C200860052084F86B
:109FC000690031B0BDE8000FF0BD0C20C8F80000FA
:109FD0000B2084F8690031B0BDE8000FF0BD04200B
:109FE00089F800000C20C8F80000072084F86900F8
:109FF00031B0BDE8000FF0BD01200C2D89F8000044
:10A00000F0D00BE00120042589F8000006E00120D3
:10A0100088F8000089F80000DDF81480C8E9005BCA
:10A02000012084F8690031B0BDE8000FF0BD4DF6A5
:10A030005470C0F2030011F0C7F94CF610524046BC
:10A04000C0F2030210F03EFFF0B503AF2DE9000BA4
:10A050008EB0814691F868000C46DFE810F00C00E5
:10A060000F011501670092003B005D00BC00390143
:10A070007D01A001D101D4E9050194E84C00C4E9B7
:10A08000072004F124024AC202466FF31F32D4E9CA
:10A09000035C002AC4E90C5C029240F0C4800A46CA
:10A0A0006FF31F320392002A40F0CD80081A00217E
:10A0B000B1EB503F00F0D78004F11C064FF48070E4
:10A0C000A4F8150100204ECEC4F8DC00C4E9431604
:10A0D000C4E9332304F16C0108A8FEF733FD089AA4
:10A0E000022A01D10520D0E0DDE90910D20740F0B5
:10A0F000BB81C4E91010C90740F0828004F11C063E
:10A100004FF40070A4F8150100204ECEC4F8DC0016
:10A11000C4E94316C4E9332304F16C0108A8FEF72F
:10A1200011FD089A022A0BD10620AEE004F16C0161
:10A1300008A800F0EDFB089A032A0AD10320A4E046
:10A14000DDE90910D2072DD001226067C4E91B2187
:10A150008AE1002AB0D0DDE90910012A40F08481AB
:10A16000D4E90B3C0022D4E90E56D4F81CE084F864
:10A17000B020C4E92056A4F87C00C4E91BE3C4E97C
:10A180001DC104F16C0108A800F05AFC08990429CB
:10A1900003D104231021042079E00A98032933D144
:10A1A000099961E100226067C4E91B21C90736D023
:10A1B000D4E90965D4E907C3F11A84F8C02038BF8F
:10A1C0001146002808BF080BC4E920530138C4E930
:10A1D0001E0CC4E9226004F17C0108A8FEF70AFC09
:10A1E00008980C2801D107204FE0DDE908100B2961
:10A1F00040F03A81000652D1A06F0121C4E910104D
:10A2000000214C22A0644EE00229FFF455AF0B99C7
:10A210004FF0000CBDF830208646A66B15E10621F4
:10A220004FF0030C23E100204CF6384208904CF626
:10A23000405002A9C0F20300C0F20302009008AB34
:10A24000002005F09BFD00204CF6384208904CF6AB
:10A250003050C0F20300C0F20302009003A908AB23
:10A26000002005F08BFD4CF66C404CF62052C0F2FD
:10A270000300C0F2030251210FF030FD4CF65050A4
:10A28000C0F2030011F0B3F8FEDE0423102149F8F8
:10A29000013084F868000EB0BDE8000BF0BD00206E
:10A2A0004FF0020CDBE0236AA15003EB003000F614
:10A2B000FC710430C4E91601E0690023D4E90B12F3
:10A2C00084F88C3004F15803C4E91B30C4E91D1232
:10A2D00004F16C0108A800F0BBFD089A022A4DD0D9
:10A2E000DDE90910D20740F0BF80F1B10BAECDE936
:10A2F000081008A84CCECDE90A230AF0D7FC024684
:10A300000B4604A811461A460AF068FEDDE904214E
:10A310000698002A40F0A880626B1268914202BF42
:10A320000121C4E913166065C6E7E06C50BBD4E9AF
:10A3300009230025D4E907C1A66C501A84F8B4504B
:10A3400038BF2846002E08BF060B701EC4E91B0C40
:10A35000C4E91D31C4E91F2004F1700108A8FEF70B
:10A3600049FB08980C280BD0DDE908100B297BD19C
:10A37000000694D1E16E4822084694E7082084E75D
:10A38000092082E7D4E914230020E16984F8B400AD
:10A390004FF0FF30C4E91823C4E91B12606704F1D1
:10A3A0006C0108A800F0B4FA089A032A01D10A2027
:10A3B0006BE7DDE90910022A05D10222C4F880000A
:10A3C000C4E91E2150E0C4E91E21D207C4F8800070
:10A3D0003DD04FF0000CE269256EC4E91BC184F842
:10A3E000C8C04FF0FF3CA4F87400A4F8940004F136
:10A3F0008400D4E90B36C4E9265C4CC0C4F8901044
:10A4000004F1840108A800F01BFB0898042801D17E
:10A410000B203AE7DDE90981032805D10A0C08463B
:10A420004FF0030C414622E0D8B102282AD1DDE9E1
:10A430000B02B8F1000F0692CDE9041014D0D4E954
:10A4400018638E464FF0010C014610460FE00020C5
:10A45000062101224FF0030CC4E91B216067002292
:10A4600005E0059806210491020C4FF0030CC0EAA8
:10A470000240C9E902E6C9F810C0C9E9001001208C
:10A48000142104E70121002009914DF66061C0F21A
:10A4900003010C900B90042008914DF6D0610A90B6
:10A4A00008A8C0F203010FF00EFCD4D4F0B503AF3E
:10A4B0002DE9000B8EB0814691F868000C46DFE86C
:10A4C00010F00C000F011501670092003B005D00C9
:10A4D000BC0039017C01A101D201D4E9050194E855
:10A4E0004C00C4E9072004F124024AC202466FF37B
:10A4F0001F32D4E9035C002AC4E90C5C029240F0EC
:10A50000C4800A466FF31F320392002A40F0CD80C8
:10A51000081A0021B1EB503F00F0D78004F11C066F
:10A520004FF48070A4F8150100204ECEC4F8DC0072
:10A53000C4E94316C4E9332304F16C0108A8FEF70B
:10A5400001FB089A022A01D10520D0E0DDE90910BB
:10A55000D20740F0BC81C4E91010C90740F08280E6
:10A5600004F11C064FF40070A4F8150100204ECE33
:10A57000C4F8DC00C4E94316C4E9332304F16C01D8
:10A5800008A8FEF7DFFA089A022A0BD10620AEE0EF
:10A5900004F16C0108A800F0BBF9089A032A0AD15B
:10A5A0000320A4E0DDE90910D2072DD00122606765
:10A5B000C4E91B218BE1002AB0D0DDE90910012A92
:10A5C00040F08581D4E90B3C0022D4E90E56D4F842
:10A5D0001CE084F8B020C4E92056A4F87C00C4E94B
:10A5E0001BE3C4E91DC104F16C0108A800F028FABE
:10A5F0000899042903D104231021042079E00A9842
:10A60000032933D1099962E100226067C4E91B2163
:10A61000C90736D0D4E90965D4E907C3F11A84F82B
:10A62000C02038BF1146002808BF080BC4E92053DA
:10A630000138C4E91E0CC4E9226004F17C0108A8B9
:10A64000FEF7D8F908980C2801D107204FE0DDE982
:10A6500008100B2940F03B81000652D1A06F012168
:10A66000C4E9101000214C22A0644EE00229FFF43E
:10A6700055AF0B994FF0000CBDF830208646A66B05
:10A6800016E106214FF0030C24E100204CF638427D
:10A6900008904CF6405002A9C0F20300C0F2030239
:10A6A000009008AB002005F069FB00204CF6384212
:10A6B00008904CF63050C0F20300C0F20302009044
:10A6C00003A908AB002005F059FB4CF66C404CF692
:10A6D0002052C0F20300C0F2030251210FF0FEFA33
:10A6E0004CF65050C0F2030010F081FEFEDE042351
:10A6F000102149F8013084F868000EB0BDE8000B65
:10A70000F0BD00204FF0020CDCE0236AA15003EB07
:10A71000003000F6FC710430C4E91601E069002342
:10A72000D4E90B1284F88C3004F15803C4E91B30CF
:10A73000C4E91D1204F16C0108A800F089FB089A15
:10A74000022A4ED0DDE90910D20740F0C080E9B1FD
:10A750000BAECDE9081008A84CCECDE90A230AF0CB
:10A76000A5FA02460B4604A811461A460AF027FC31
:10A7700004990698B9BB626B9DF814101278914247
:10A7800002BF0121C4E913166065C7E7E06C60BB36
:10A79000D4E909230025D4E907C1A66C501A84F82E
:10A7A000B45038BF2846002E08BF060B701EC4E9FF
:10A7B0001B0CC4E91D31C4E91F2004F1700108A875
:10A7C000FEF718F908980C2809D0DDE908100B29C4
:10A7D0007DD1000695D1E16E4822084695E7092013
:10A7E00085E7082083E7059971E0D4E91423002068
:10A7F000E16984F8B4004FF0FF30C4E91823C4E9DC
:10A800001B12606704F16C0108A800F081F8089A37
:10A81000032A01D10A206AE7DDE90910022A05D1DD
:10A820000222C4F88000C4E91E2150E0C4E91E21C0
:10A83000D207C4F880003DD04FF0000CE269256ECD
:10A84000C4E91BC184F8C8C04FF0FF3CA4F87400F1
:10A85000A4F8940004F18400D4E90B36C4E9265C22
:10A860004CC0C4F8901004F1840108A800F0E8F886
:10A870000898042801D10B2039E7DDE90981032874
:10A8800005D10A0C08464FF0030C414622E0D8B12E
:10A8900002282AD1DDE90B02B8F1000F0692CDE9BA
:10A8A000041014D0D4E918638E464FF0010C014611
:10A8B00010460FE00020062101224FF0030CC4E9EE
:10A8C0001B216067002205E0059806210491020C17
:10A8D0004FF0030CC0EA0240C9E902E6C9F810C013
:10A8E000C9E900100120142103E70121002009918A
:10A8F0004DF66061C0F203010C900B9004200891AA
:10A900004DF6D0610A9008A8C0F203010FF0DBF900
:10A91000F0B503AF4DF8048D804691F848000D4620
:10A9200060B1032840F0808095F84400002840F092
:10A93000818005F13403296C0DCB1AE000262A46EC
:10A9400095E8031001F10804082342F80C6F6445F0
:10A950002B63C5E90466C5E90666C5E90866C5E96D
:10A960000A6246D805F1340C85F844608CE80D0085
:10A9700029640DF076FB0121C0B2032885F844104C
:10A9800033D1D5E90BC10B460CEB010266467BB314
:10A99000304610F8014BFF2C12D1904228D070782D
:10A9A000FF280DD1B01C904222D0B078FF2807D1EB
:10A9B000F01C90421CD0F078043B0436FF28E6D00F
:10A9C000072923D90CF104000221BCF80640022615
:10A9D0000AF093F980B2A04215D1296B05291CD940
:10A9E000E96A01268888096803E00421022600E05C
:10A9F00000260122C8E9006185F84820C8F808004F
:10AA00005DF8048BF0BD00200621F2E74CF6E85219
:10AA10000820C0F2030210F055FA4CF6F852062056
:10AA2000C0F2030210F04EFA4CF6D850C0F2030008
:10AA300010F0DDFC4DF26C10C0F2030010F0D7FCFA
:10AA4000F0B503AF2DE90007804691F844000C46AD
:10AA500068B3032875D194F84000002877D104F139
:10AA60003003E16B0DCB0DF0FCFA01215FFA80FAA7
:10AA7000BAF1030F84F8401031D1218CA36A8B42C4
:10AA800057D3606A0AF0E1F9E16AE369D4E9092C75
:10AA90008842B4F820A031D14FF6FF7065462CEA09
:10AAA00000011646D44602201A46AA4629E0E66866
:10AAB000B4F810A094E80510A4F820A0E661C4E959
:10AAC000092C86B1D4E905190AF1030E2EF003030F
:10AAD000E6620831CD184D4508D9002010E000216C
:10AAE000042603200DE00026012009E09C4517D232
:10AAF0000EF48031082603209A4602E000201E460C
:10AB000000211FFA8AF3C8E90006194308F108007A
:10AB100080E80610012084F84400BDE80007F0BD7D
:10AB2000002604F1300C84F840608CE80D00E163ED
:10AB300099E74CF618620846C0F20302194610F075
:10AB4000C1F94CF60860C0F2030010F050FC4DF261
:10AB50006C10C0F2030010F04AFCF0B503AF2DE911
:10AB6000000F85B0824691F8A8000C4638B1032842
:10AB70001FD04CF65860C0F2030010F038FC94E887
:10AB8000400B1546206901906069009030460AF03C
:10AB90008DF800232A4684F85C3006F10803C4E9E6
:10ABA0000830019820630098C4E90689C4E90A1BAB
:10ABB000606304F1180602A8314600F039F80298E3
:10ABC0000C2809D10C20CAF80000032084F8A80042
:10ABD00005B0BDE8000FF0BD94F85C00DDE9028926
:10ABE000032811D0042806D0052804BF94F8740067
:10ABF000032811D103E094F8740003280CD15D20E0
:10AC000030440DF0A6FC07E094F8A400032804BF2C
:10AC100094F8A000032808D00120CAE9008984F82C
:10AC2000A80005B0BDE8000FF0BD8920E8E7D4D446
:10AC3000F0B503AF2DE9000F81B0804691F84400D4
:10AC40000D469246DFE810F00600FC0002011800F5
:10AC50007D00C20005F10802EE69D5F80090AB4610
:10AC600007CAC5E908910021C5E912092E65C5E9A1
:10AC70000A260BF88C1F0EE0AB461BF88C0F38B180
:10AC8000032828D04CF6C850C0F2030010F0AFFBE8
:10AC9000D5E912092E6D4FF0FF312C4644F8541FB0
:10ACA000E161C4E90511C4E90311C4E901110168B6
:10ACB000216002218088A08027F81E0CA7F11E00C9
:10ACC0000AF01BF8E080002084F834000820C4E972
:10ACD0000894C4E90A0605F17400514600F0ABFB84
:10ACE000C6B2042E0BD103200C218BF80000C8F84B
:10ACF000001085F8440001B0BDE8000FF0BD95F8E4
:10AD00008800032804BF05F189000DF022FC012012
:10AD1000032E8BF800006BD105F12003002685F887
:10AD20005C6005F1480C0FCB02F0030622F0030231
:10AD300008332B648CE80F008818C5E90C12C5E9AC
:10AD40000E0605F14800514600F075FBC6B2042E10
:10AD500009D10C20C8F80000042085F8440001B097
:10AD6000BDE8000FF0BD95F85C00032804BF05F1B5
:10AD70005D000DF0EEFB032E3AD1D5F83C90B9F111
:10AD8000000F4CD000202C4644F8600FB9F1210F81
:10AD9000C4E90100C4E90300C4E90500E06140D250
:10ADA000A96B20464A4611F0E5F909F1030000F0CD
:10ADB0007C0021283DD26A6B00262B6C296A1A443C
:10ADC00085F85C60C5E91214C5E9140205F1480074
:10ADD000514600F030FBC6B2042E0BD10C20C8F84F
:10ADE0000000052085F8440001B0BDE8000FF0BD6B
:10ADF00004200BE095F85C00032804BF05F15D001A
:10AE00000DF0A7FB0420032E08BF0B20C8E90006A5
:10AE1000012085F8440001B0BDE8000FF0BD0B2013
:10AE2000F4E74CF688624846C0F20302202110F095
:10AE300049F84CF698622021C0F2030210F042F863
:10AE40004CF67860C0F2030010F0D1FAFEDED4D4E4
:10AE5000F0B503AF2DE9000786B0804691F82000D9
:10AE60000C46DFE800F0031F310C9100D4E900101C
:10AE7000D4E90223C4E90410C4E9062325E02646E8
:10AE800016F88C0F40B1032812D1254615F8880F0B
:10AE900028B1032812D12FE0D4E909101CE0D4E92D
:10AEA0000B101FE04CF6A860C0F2030010F09FFAF0
:10AEB0004CF62860C0F2030010F099FA4CF63860A6
:10AEC000C0F2030010F093FAFEDE2646002246F898
:10AED000241F706006F8682F0022254605F8882F89
:10AEE00045E91710C4E90D100022D1E9001384F8D8
:10AEF000842004F13C020BC204F13C0101A8FFF7DD
:10AF000007FD019B032B5AD0BDF80E20012BBDF885
:10AF10000C10DDF808C00BD0022B64D1BCF1060F79
:10AF200073D1606B016808310160D4E90D10DBE773
:10AF3000666B8807084621F00305336818BF281D93
:10AF4000184408303060D4E9065E41EA024001222C
:10AF5000C4E91E0384F88C20002D84F88820C4E9FD
:10AF60001C2C4FF000026362A26167D0D4E9040692
:10AF70004068C4E90A65554684F86C204E46C4E929
:10AF80000F302187C4E90CEC04F1280101A8FFF778
:10AF900057FD0198042808D0DDE904A902281AD237
:10AFA000D4E90410C4E906A98FE70220C8F800001C
:10AFB000042084F8200006B0BDE80007F0BD03209F
:10AFC000022130702870C8F8001084F8200006B004
:10AFD000BDE80007F0BDDDE902C214D10021636ABB
:10AFE00055464E461CE0606B1204002101234FF0D1
:10AFF000000C006884F88C3084F88830C4E91E2086
:10B00000C4E91C110CE001210AE041EA02420121DD
:10B01000022384F88C1084F88810C4E91C3CA267D1
:10B0200008F10800C8E9001C64C00120C8F8143009
:10B0300084F8200006B0BDE80007F0BD4CF6B8600B
:10B04000C0F203000EF0B9FDFBF786B890F844108B
:10B05000033905294CD8DFE801F0034B4B1D1228BA
:10B0600090F88810042943D190F8CC10032904BF2C
:10B0700090F8C81003293BD1C9300DF06ABA90F896
:10B080007010042904BF90F88C10032930D18D3042
:10B090000DF05FBA90F88810032904BF90F884106F
:10B0A000032925D185300DF054BA90F8C510062932
:10B0B00016D0052904BF90F87011032918D190F813
:10B0C0002411032923D0042917D0052904BF90F89F
:10B0D0003C1103290CD15D21E03008440DF039BA50
:10B0E00090F80811032904BF90F80411032900D037
:10B0F000704700F205100DF02CBA90F83C110329AE
:10B1000018BF70475D21E03008440DF022BA90F876
:10B110006C11032904BF90F868110329E8D1892133
:10B12000E03008440DF015BA90F869100639072987
:10B1300000F29580DFE801F00425931A93349351CF
:10B1400090F82011032940F08A8090F8D410032948
:10B1500070D0042965D0052904BF90F8EC100329AC
:10B160007DD15D21903008440DF0F3B990F8941032
:10B17000042904BF90F8B010032970D1B1300DF04C
:10B18000E8B990F89410032932D0042904BF90F84C
:10B19000B010032963D145216C3008440DF0D9B9B2
:10B1A00090F8ED10062930D0052904BF90F89811C9
:10B1B000032954D190F84C11032948D0042918BF11
:10B1C00005294CD190F86411032918BF70475D21FF
:10B1D00000F5847008440DF0BCB990F8941004296F
:10B1E00004BF90F8B010032939D1B1300DF0B1B9D6
:10B1F00090F8C010042904BF90F8DC1003292ED168
:10B2000071216C3008440DF0A4B990F83011032975
:10B2100004BF90F82C11032921D100F22D100DF05C
:10B2200098B990F8EC10032919D15D2190300844A9
:10B230000DF08FB990F81C11032904BF90F8181174
:10B2400003290CD18921903008440DF082B990F87F
:10B250009411032904BF90F89011032900D070477E
:10B26000892100F5847008440DF073B970470A46CF
:10B27000016849B101290FD14DF2BB011046C0F25E
:10B2800003010A220FF095BC4DF2B4011046C0F242
:10B29000030107220FF08DBC80B56F4682B00430E9
:10B2A00001904DF2C8004DF2D801C0F2030001AB8D
:10B2B00000901046C0F2030103220FF086FD02B099
:10B2C00080BD0A460168A1B180B56F4682B00430E6
:10B2D00001904DF2C8004DF2D801C0F2030001AB5D
:10B2E00000901046C0F2030103220FF06EFD02B081
:10B2F00080BD4DF2DB011046C0F203010C220FF0BD
:10B3000058BCB0B502AF84B0044690F820000D469A
:10B3100018B103281FD1E06923E0D4E901E301213A
:10B3200043EA0E0000054FF0010003D084F820101E
:10B3300004B0B0BDB3EB0E03217638BF002340F656
:10B34000FF7C180B1A0518BF01EB1330C4E903E0AA
:10B35000C4F814C00DE04DF24C10C0F2030010F020
:10B3600046F801462A4604F048F8C0B2032813D133
:10B370002069C0B1E168013862690A440132C4E958
:10B380000320080B28DF0CF074FEA0BB49F28420D8
:10B39000C2F20200E061E4E704280AD1032184F844
:10B3A000201004B0B0BD0320012184F8201004B0A7
:10B3B000B0BD07F8170C40F25700C0F2000027F8A4
:10B3C000160CA7F116000EF070FB40F2B900C0F2A7
:10B3D0000000ADF80C0003A80EF026FBA7F1170043
:10B3E0000CF0DEFE07F09EFE17F8170C012184F822
:10B3F000201004B0B0BD40F258000191C0F200002E
:10B4000027F80E0CA7F10E000EF04FFB40F2BA0029
:10B41000C0F2000027F80A0CA7F10A000EF004FBA6
:10B4200001A80CF0C7FE07F07DFE0020012184F882
:10B43000201004B0B0BDB0B502AF82B00446007DAC
:10B440000D4670B1032848D1206901462A4603F011
:10B45000D4FFC0B20121042808BF0321217502B026
:10B46000B0BDE068810704D001210120217502B040
:10B47000B0BDD4E9011242EA01039B0704D00220C7
:10B480000121217502B0B0BD920829DF0CF0F1FD59
:10B49000E8B140F256000091C0F20000ADF804009F
:10B4A00001A80EF002FB40F2BA00C0F2000027F83B
:10B4B0000A0CA7F10A000EF0B7FA68460CF07AFE03
:10B4C00007F030FE00200121217502B0B0BD49F225
:10B4D0008420C2F202002061B7E74DF25C10C0F296
:10B4E00003000FF084FFD4D4F0B503AF2DE9000FB3
:10B4F000ADF2544D814600F51C7009908B4699F8C9
:10B50000080009F18602CDF820B0DFE810F006004F
:10B51000EC053412390025001800D9F80000C9F8EC
:10B520000400017F012940F0358100214E4606F8D4
:10B53000141F00F10804079246F8084C2DE04D4610
:10B54000079215F8140F002800F0F580032842F048
:10B55000FA81D9F81040F2E0C846079218F84C0F6B
:10B5600000285DD0032840F01786CA461AF8480F15
:10B5700000287AD0032840F01586D9F84440A5E089
:10B580004E46079216F8140F28B1032842F0DB81CB
:10B59000D9F8104003E0D9F80C40C9F810400CF07D
:10B5A0004FFC2168002942F02583227B4FF0FF33B6
:10B5B000DBF8001023604AB1221D054610460EF04C
:10B5C00090F9216828460025013103E00121254634
:10B5D0002173002121600CF05EFC0120002D4FF052
:10B5E000010108BF032131703DD028740A950AADCE
:10B5F000284604F0D3FBD9F80400017F002900F0AD
:10B60000788550F81D1BC846C9E903010FCD0FC648
:10B610001FCD1FC695E81F001FC6002008F84C0F5D
:10B62000D9F80C000078142881F0CC80742148F2FD
:10B630003C7200FB01F3C2F20202D35CDB076ED066
:10B6400010FB0120D9F8104040880DF091F8054614
:10B650000020CA460AF8480F0AF105004AE90D54CD
:10B660004AF82C0C05E003209EE0D9E90554D9F8EE
:10B670001C004E464FF0000B46F8204F06F1290102
:10B680003446706044F808BFC6E90561C6E907455D
:10B690000DF057FA002800F00E852868002841F0C8
:10B6A000DD8168684FF0FF31DDF820B000282960A7
:10B6B00041F04F804DF2385106F11400C0F2030101
:10B6C0000022C5E90020A960C9F84440204621466F
:10B6D0005A4603F052FD30B1032088F800008AF882
:10B6E0000000042060E0D9F840400020C9F8400084
:10B6F00054B10DF026FA002801F0078020680028D8
:10B7000041F00E8000206060D9F82800012803D1A4
:10B71000D9E90B10C968884701208AF80000012088
:10B720004D4689F84C00002005F8140F55F8100C10
:10B73000083045F8080CD9F80C40C9F810400CF056
:10B740007FFB2168002942F05582227B4FF0FF33B6
:10B75000DBF8001023604AB1221D064610460EF0A9
:10B76000C0F8216830460026013103E00121264659
:10B770002173002121600CF08EFB002E4FF00100A0
:10B7800008BF032028700ED000200A9630740AA843
:10B7900004F004FB012089F8080000200DF2544D4C
:10B7A000BDE8000FF0BD052099F8A51089F8080044
:10B7B000DFE811F00900FE04E1103B0047006000E3
:10B7C00096008500A70040F200106324D9F8993054
:10B7D000C0F20110D9F88010C0F290144FF0061694
:10B7E000C9F8A030D9F896204B46C9F86E00002061
:10B7F000C9E91D644FF4FA7C40F6AC2543F89D2F4F
:10B800004A46012642F8543FC9E9195C4D46A9F859
:10B810006C00A9F85800C9F85010C9E917264C68FF
:10B8200005F8B00F45F8084C83E04D4615F8B00F09
:10B83000002800F07C80032842F08580D9F8AC40D5
:10B8400079E099F8180109F58C78002800F0A980B2
:10B85000032840F0BF84CB461BF8D00FABF1200487
:10B86000DFE810F00500D0048910A4028E02D9E9A7
:10B870002E10A0E0494611F8DA0F0291DFE810F02F
:10B880003F01BC047B10070052024409000599F8EF
:10B890001C0109F58E73002800F0A082032840F0F7
:10B8A000B78499F8180109F58C7A0693002800F0FE
:10B8B0001B83032840F09A84D9F8146183E14E4633
:10B8C00016F8FA0FA6F15201002800F0E9810328CA
:10B8D00000F088854DF28C70C0F203000FF087FDF8
:10B8E0004D4615F8FA0FA5F15201002800F0DB8152
:10B8F000032800F039854DF27C70C0F203000FF090
:10B9000076FDC84618F8F00F002800F0D181032812
:10B9100040F06684CA461AF8EC0F002800F0FD815A
:10B92000032840F03F84D9F8E84000F0E4BDD9F89E
:10B93000A840C9F8AC400CF083FA2168002942F015
:10B940005981227B4FF0FF33DBF8001023604AB1AE
:10B95000221D064610460DF0C4FF21683046002621
:10B96000013103E0012126462173002121600CF002
:10B9700092FA002E4FF0010008BF0320287029D052
:10B98000C9F87C6009F1580130696822C9E92A01C7
:10B990000AA9284610F0F0FB09F58C78002089F8F8
:10B9A00018010020CB460BF8D00F5BE90A10ABF171
:10B9B00020044BE90610C9E92C10002189F8CF10AA
:10B9C000014651F8042F002A1CBF8068002804D1CA
:10B9D000042511E0032000F09CBDDAA80CF0CFFD97
:10B9E000BDF86803002800F06681DB980026072573
:10B9F0004FEA106A0002069001208BF8000094F8CC
:10BA00002000042822D0DDF820B0032855D194F876
:10BA10005C00032829D1CDE904A60020666D60658D
:10BA200056B10DF08EF8002800F06F8630680028BF
:10BA300041F0A38000207060606BDDE904A601285E
:10BA400013D1D4E90E10C96888470EE094F8660057
:10BA5000032804BF94F85C00032800F0B28104F1CD
:10BA60001E0009F0EEFADDF820B0E07F18B394F87C
:10BA70002400002184F8241001281CD18DDF0CF053
:10BA8000F8FA012817D140F25F00DA91C0F2000005
:10BA9000ADF8B802AEA80EF008F840F2BA00C0F255
:10BAA0000000ADF8B802AEA80DF0BEFFDAA80CF0A9
:10BAB00081FB07F037FB0020E0770120082D88F894
:10BAC000000040F05483484665A900F8A46F09F1CE
:10BAD000AC0CC9F8A8007CC9ACE87C007DC9ACE816
