:020000022000DC
:10600000000004200161020011E5020043120300B8
:1060100011E5020011E5020011E502000000000098
:1060200000000000000000000000000011E5020078
:1060300011E502000000000011E5020011E5020078
:1060400011E5020011E5020011E5020011E5020070
:1060500011E5020011E5020051E3020011E5020022
:1060600011E5020011E5020011E5020011E5020050
:1060700011E5020011E5020011E5020011E5020040
:1060800011E502001FDD020011E5020011E502002A
:1060900011E5020011E5020027B4020011E502003B
:1060A00011E5020011E5020011E5020011E5020010
:1060B00011E5020011E502000000000000000000F0
:1060C00011E5020011E5020011E5020011E50200F0
:1060D00011E5020011E5020011E5020011E50200E0
:1060E00011E5020011E5020011E5020000000000C8
:1060F0000000000011E502000000000011E50200B0
:1061000008F007FA0E480F490022814201D004C06E
:10611000FBE70D480D490E4A814202D008CA08C06B
:10612000FAE70C484FF47001026842EA010202608B
:10613000BFF34F8FBFF36F8F04F012F900DE000042
:1061400070000220BC8C022000000220700002209F
:10615000C828030088ED00E0704700207047002148
:106160000180704770470020704700210170704720
:10617000F0B503AF2DE9000F8BB00B889246056890
:10618000102B16D000221B2B12D0262B73D040F2DE
:106190006E000693C0F20000ADF8100004A808F0ED
:1061A00052FF06A801F004F904F01DFB08F089FF76
:1061B00061E002900E464068B1F804800468C87B34
:1061C00005F0ECFD07F8390C40F22800C0F20000A1
:1061D000B168ADF8180006A8D6F80B200491D6E9EE
:1061E00004B9CDF8132008F02EFF40F28900C0F268
:1061F0000000ADF8180006A808F0E4FEA7F1390089
:1062000005F073FE40F20C0006AEC0F20000ADF8DF
:106210001800304608F0D6FE04A805F0DFFD41F670
:106220005460C0F2030008F0CDFE04F0DCFAD4E9BB
:10623000000217F8391C049BCDE90002F21CCDF8CE
:106240001B3006F10A03DDF813404046CDF82690D6
:10625000CDF822B0ADF818808DF81A10CDF81E4098
:1062600004F001FDC00704D01421404676DF01226E
:1062700000E003220298C9B28468C5E9002105F054
:1062800042FED4E900320226A168012B266004D127
:106290005268054608469047284605F05FFE0020F4
:1062A000CAF800000BB0BDE8000FF0BDD0B502AFDA
:1062B00086B0044642F22C50C0F203000021CDE922
:1062C00000046A4694F84C000491CDE9022258B1CA
:1062D000032826D194F8480058B1032827D194F810
:1062E000440080B9A06A08E0206A84F8481060621F
:1062F00000E0606A84F84410A062C4E90B10C4E9AD
:106300000D11C4E90F1104F12C0002A901F027FCC2
:10631000032084F84C0084F8480084F8440006B058
:10632000D0BD41F25040C0F203000AF019F941F229
:10633000B020C0F203000AF013F9D4D4F0B503AFD3
:106340002DE9000FADF5B74D8BB0834642F22C50CE
:10635000C0F203000BF12002CDE9030B00200790EF
:1063600003A8CDE9050045F6A0300BEB000999F82C
:106370008D00DFE810F006009C049C0422027703E5
:10638000AB03D9F86C000025C9F8000040F23100D9
:10639000C0F200000292ADF828000AA889F88C50DB
:1063A00008F063FE40200A958DF82E004FF48040DF
:1063B000ADF82C000AA807F09DFD0121484640F8E1
:1063C000041F41F200020623C0F20212837740F25A
:1063D0000113C0F835201822C0F2033341F26046A1
:1063E00040F20C58C0E90825012283624FF00913DE
:1063F00080F834108183C0F200124FF4B064C0E919
:1064000003318585C0F203064586C5F20008C0F851
:106410002E504FF480754FF40041C0E90156C0E999
:106420000542C8F800100321C8F8301206F0A7F89A
:106430000AAD824641F284425146C0F20302284628
:10644000082303F006FBDDE90BC1BDF8284047F83F
:10645000381CBDF82A100F98DDE90D2347F82C0CE5
:10646000E00747E90D2340F0E083A7F1380445F643
:106470001646C9F872C01DCC4BF806000BEB06009F
:1064800042608360C4605046A9F8701003F0A8FE13
:10649000002800F0DD830146D9F8000008F06CF90F
:1064A00040F6002C0120C8F80003C5F2000C0320C0
:1064B0004FF40062CCF8000046F20013C8F8002048
:1064C0001022C8F8200240F20126C8F8002340221A
:1064D000CCF8100046F21451C8F800234FF40072B3
:1064E000CCF81800C0F20106C8F800200422C8F851
:1064F0001802092089F88A0040F62030C2F2246090
:10650000C4F20003C9F88600002006F53454C4F232
:106510000001C8F8FC21C3F810641860CCF83C20D6
:106520000C6006F524545860CCF82C204C60986020
:10653000C8F81C2206F500628A6042F6023140F279
:106540000022C0F60321C2F60172D860CBE90C210B
:10655000272102220023EE18E85003F5E1630339F6
:10656000C6F8C026C6F8C406C6F88826C6F88C0643
:10657000C6F85026C6F85406C6F81826C6F81C06F3
:10658000C6F8E025C6F8E405C6F8A825C6F8AC05A7
:10659000C6F87025C6F87405C6F83825C6F83C0557
:1065A000C6F80025C6F80405C6F8C824C6F8CC0409
:1065B000C6F8B004C6F8B404C6F86824C6F86C047B
:1065C000C6F83024C6F83404C6E9FE20C6E9F02037
:1065D000C6E9E220C6E9D420C6E9C620C6E9B8204B
:1065E000C6E9AA20C6E99C20C6E99600C6E984202F
:1065F000C6E97620C6E96820C6E95A20C6E94C20DB
:10660000C6E93E20C6E93020C6E92220C6E91420AA
:10661000C6E90620706086F80007C6F8F80686F816
:10662000CC2686F8C80686F8942686F8900686F862
:106630005C2686F8580686F8242686F8200686F812
:10664000EC2586F8E80586F8B42586F8B00586F8C6
:106650007C2586F8780586F8442586F8400586F876
:106660000C2586F8080586F8D42486F8D00486F828
:10667000C00486F8A804C6F8A00486F8742486F836
:10668000700486F83C2486F8380486F8042486F8DA
:10669000000486F8CC2386F8C80386F8942386F88D
:1066A000900386F85C2386F8580386F8242386F83E
:1066B000200386F8EC2286F8E80286F8B42286F8F1
:1066C000B00286F87C2286F8780286F8680286F89E
:1066D0005002C6F8480286F81C2286F8180286F88E
:1066E000E42186F8E00186F8AC2186F8A80186F856
:1066F000742186F8700186F83C2186F8380186F806
:10670000042186F8000186F8CC2086F8C80086F8B7
:10671000942086F8900086F85C2086F8580086F869
:10672000242086F8200030747FF415AF0BF1380573
:106730000AA945F6683228460AF079F9284601F098
:1067400053FC45F6E0302A2158440AF0E1FA0023D0
:106750004A4642F2C00540F2011002F8903F41F271
:106760009C4E42F2E408C0F2030542F29C06CBF8CC
:106770002A004FF4C8704FF0080CC0F20306CBF8A3
:1067800024001046C0F2030E0435C2E9035CC0F2D7
:106790000308DDF808C01824043600F88C3F8BF895
:1067A0002830ABF82030C2E90164C2F814A0C2E975
:1067B00006C8C2F820E0019028E099F81C0109F50C
:1067C0008E76E0B1032840F0668299F8190109F24B
:1067D00019110291002800F0AB81032840F061827A
:1067E000CA461AF8F00F002800F0BF81032800F015
:1067F000A68041F2D030C0F2030009F0B1FED9E921
:1068000029AC09F19002D9E92B8E0196C9E93D8E98
:1068100045F6A443C9E93FAC5B4492E8730073C3F7
:106820000020614689F8190109F2191002904E46BC
:10683000012046F8B48F06F1540C96F8503086F8D3
:10684000640096F851509CE80414D6F86080C6F8AD
:1068500004E0B6F85200DFE803F003261C1E0E0029
:106860000CA8CDF83C8080E80414012000258DF8A8
:106870004100002023E00723ADF8290000208DF817
:1068800041308DF82FA0CDF82B200E90CDE90CC80B
:1068900014E0022308E00020CDE90C2A06220E9025
:1068A0008DF841200BE003238DF8295000258DF849
:1068B00041300B92ADF82A000E950C9501208DF811
:1068C00028000AA800248DF842508DF8404005F0B9
:1068D00065FB03283ED1CA4640F6DC250AF8F04F96
:1068E000C2F202054AE90D5645F674404C4658443A
:1068F00044F8DC0F0020A046E56048F8140D20465F
:1069000040F8186DC4E9010807F08BF8002800F082
:1069100030812868002840F0378168684FF0FF31E7
:106920002960002840F0A481019E41F25030C0F25D
:1069300003000021C5E90014A860C9F8EC8045F601
:106940008C4005A9584402F093F9B8B303208AF8A3
:10695000000053E0054699F81801884689F8184167
:10696000012823D140F23600C2F20200007874DF21
:1069700004F029FE012819D140F243000A91C0F227
:10698000000027F8380CA7F1380008F05CFB40F253
:106990008800C0F2000027F8380CA7F1380008F092
:1069A00011FB0AA804F0F4FF03F01DFF0299012077
:1069B000019E042D087024D0307023E1D9F8E840FE
:1069C0000020D9E93558C9F8E80054B107F029F892
:1069D000002800F0DF802068002840F0EE800020D2
:1069E0006060D9F8C800012803D1D9E93310C9681B
:1069F00088470120042D8AF8000005D10299032060
:106A00000870032030706BE00299032D307008701D
:106A100040F0F88040F232004C46C0F2000004F82A
:106A20008B8FADF828000AA808F01FFB0020012179
:106A300084F8450045F610405844C4F809000AA8F7
:106A40004FF4803200236170C4F8054008F0E9F982
:106A5000DDE90A019DF83020C4F84D00C4F851105A
:106A600084F8552045F6784005A9584408F0FFF908
:106A700008B1042034E00AAD09F190010024442259
:106A8000284689F88C4009F0D2FF45F62B4045F6A0
:106A90001441584445F6E03289F8AC4045F62644A6
:106AA000C9F8A80045F6A04059445A445C440BF18B
:106AB00038035844C9E92821294644220BF13006FD
:106AC000C9E92444C9E9266309F0B1FF45F630401D
:106AD00005A9584402F0D1FAC5B2022D08D105200B
:106AE00089F88D000DF5B74D0BB0BDE8000FF0BD76
:106AF00099F84001032804BF99F83C0103281DD0F0
:106B0000E8070AD040F234050AACC0F2000520467E
:106B1000ADF8285008F0A9FAF9E740F233050AACBD
:106B2000C0F200052046ADF8285008F09EFAF9E7BB
:106B3000D9E93D8ED9F80011019678E6D9F83441AB
:106B40000020C9F834013CB106F06BFFD8B32068CF
:106B5000002851D100206060D9F81C010128CFD154
:106B6000D9E94810C9688847CAE70196D9E92F567C
:106B7000BAE6012000210B9041F6F040C0F203007C
:106B80000E910A900D910FE041F62460C0F20300CF
:106B900008F0C0FA012100200B9141F6F041C0F24B
:106BA00003010E900A910D90042041F668510C905B
:106BB0000AA8C0F2030108F043FB41F64460C0F2AA
:106BC000030008F0A7FA0121002047F8341C41F621
:106BD000F041C0F2030147F8280C47F82C0C0420C0
:106BE00047F8381C41F6685147F8300CA7F13800D7
:106BF000C0F2030108F024FB41F63460C0F2030048
:106C000008F088FA41F2E04041F2E033C0F20300BC
:106C10000AAA009041F2F030C0F20300C0F2030370
:106C20002B21CDE90A5808F065FB40F24F00CDF862
:106C300028C0C0F20000ADF826000DF1260008F0D3
:106C400002FA0AA800F033FB03F0CDFD08F039FA90
:106C500040F24E00C0F20000ADF828000AA808F08B
:106C6000F2F90AA800F036FB03F0BDFD08F029FA9E
:106C7000012100200B9141F6A051C0F203010E90BA
:106C80000D9004200A9141F614610C900AA8C0F2FC
:106C9000030108F0D5FA41F24030C0F2030009F0D8
:106CA0005FFC41F23030C0F2030009F059FCFEDE17
:106CB000FFF75EBA0A46016849B101290FD141F2D6
:106CC00022411046C0F203010A2209F010B941F234
:106CD0001B411046C0F20301072209F008B980B534
:106CE0006F4682B00430019041F22C4041F23C41A9
:106CF000C0F2030001AB00901046C0F20301032272
:106D000009F045F902B080BD0168012902D10221D4
:106D10000160FEDE80B56F4686B001210020019142
:106D200041F29C61C0F203010490009141F20471B0
:106D3000039004200290C0F20301684608F080FA34
:106D400045F6EC3281501044002180F82110704744
:106D50000022016080F82C20704780B56F4682B019
:106D6000044603F09CFA40B10146204607F004FDBA
:106D7000204607F086FD20BFFAE740F28000C0F20F
:106D8000000027F8020CB81E08F05DF900F0A2FA26
:106D900003F029FD08F095F900688C460068B0F50D
:106DA000005F19DBB0F5405F3DDDB0F5485FC0F234
:106DB0005080B0F54C5F80F26D80A0F54850DFE860
:106DC00010F006004F0102012201BD008C0141F6C6
:106DD0005E31C0F2030194E1B0F5805F4CDA01301E
:106DE00041F610110722C0F20301DFE810F0150090
:106DF0008B019700C70077001C014601D7006E0188
:106E0000870066016F007F0031016800BF006000ED
:106E100004014E019E01140141F617116046C0F2B3
:106E2000030109F064B8A0F50050DFE810F00A0093
:106E30003601D40004018F005E016E01210176014C
:106E4000AF0041F60621C0F203011422604609F0AA
:106E50004EB843F20101401ADFE810F006002701A6
:106E6000C500F20080004F0141F6F221C0F203019B
:106E70000D22604609F03BB848D041F2010188423A
:106E800040F0948041F6D211C0F203012222604604
:106E900009F02DB84AD0B0F5505F40F08F8041F630
:106EA0000D411722C0F20301604609F020B841F6F7
:106EB0009711C0F203010922604609F018B841F6A3
:106EC00090116046C0F2030109F011B841F6791142
:106ED000C0F203010C22604609F009B841F27C417E
:106EE000C0F203010822604609F001B841F685119D
:106EF000C0F203010B22604608F0F9BF41F66011B1
:106F0000C0F203010C22604608F0F1BF41F6BD114A
:106F10001522C0F20301604608F0E9BF41F61E11D8
:106F20001122C0F20301604608F0E1BF41F6F531DD
:106F30001822C0F20301604608F0D9BF41F6BB3108
:106F4000C0F203011B22604608F0D1BF41F66E215A
:106F5000C0F203011322604608F0C9BF41F63A317E
:106F60000E22C0F20301604608F0C1BF41F29C71DD
:106F7000C0F203010422604608F0B9BF41F62F11A8
:106F8000C0F203011422604608F0B1BF41F6E021CF
:106F9000C0F203011222604608F0A9BF41F6481171
:106FA000C0F203010C22604608F0A1BF41F6F411C3
:106FB000C0F203011222604608F099BF41F6244155
:106FC000C0F203019DE041F69331C0F203011422A7
:106FD000604608F08CBF41F63621C0F20301222240
:106FE000604608F084BF41F61331C0F20301142259
:106FF000604608F07CBF41F6A011C0F203010B22ED
:10700000604608F074BF41F6A731C0F203011422B4
:10701000604608F06CBF41F6B411C0F203010922CA
:10702000604608F064BF41F643110522C0F2030137
:10703000604608F05CBF41F65821C0F2030160E0F1
:1070400041F62731C0F203011322604608F04FBF1A
:1070500041F29441C0F203010822604608F047BFA4
:1070600041F67431C0F203011F22604608F03FBFB1
:1070700041F6B621C0F2030143E041F26C41C0F297
:1070800003010822604608F032BF41F2A471C0F249
:1070900003010422604608F02ABF41F61A211C228F
:1070A000C0F20301604608F022BF41F6FF21C0F2A2
:1070B00003011422604608F01ABF41F66C11C0F2B9
:1070C00003010D22604608F012BF41F65411C0F2D0
:1070D00003010C22604608F00ABF41F6D631C0F227
:1070E00003011F22604608F002BF41F68121C0F271
:1070F00003011B22604608F0FABE41F64831C0F297
:1071000003011622604608F0F2BE41F69C211A22C5
:10711000C0F20301604608F0EABE41F6CC21C0F29D
:1071200003011422604608F0E2BE41F6AB11C0F242
:1071300003010922604608F0DABEB0B502AF88B09C
:10714000006841F23C7341F214740A46011D0DF1CE
:107150001C0E07910621C0F20303C0F2030441F2A2
:10716000247C0325CDE9024341F23973CDE9041EA5
:1071700041F23471C0F2030CCDE900501046C0F268
:107180000301C0F203030522CDF818C008F0B3FED6
:1071900008B0B0BDCA69D30648BF09F060BA92060C
:1071A00058BF09F0A4BB09F0B1BAD4D480B56F467A
:1071B00082B00A4601790239CBB2082B28BF0521DB
:1071C000C9B2DFE801F004411A2B0F52633641F2D5
:1071D0005471019041F24470C0F20301C0F2030007
:1071E00000905DE0019041F2687041F27E71C0F262
:1071F00003000090C0F2030152E0019041F244709C
:1072000041F25A71C0F2030000901046C0F203012F
:1072100001AB0B2208F0BBFE02B080BD019041F231
:10722000687041F27871C0F203000090C0F203016F
:1072300036E041F2A8711046C0F20301042202B008
:10724000BDE8804008F053BE019041F2447041F225
:107250008C41C0F2030001AB00901046C0F2030164
:10726000082208F094FE02B080BD019041F28470C3
:1072700041F23471C0F2030000901046C0F20301E5
:1072800001AB052208F083FE02B080BD019041F2FF
:10729000687041F29471C0F203000090C0F20301E3
:1072A000104601AB062208F072FE02B080BDD0B5D8
:1072B00002AF82B0044640F28500C0F2000027F819
:1072C0000A0CA7F10A0007F07DFE204604F053FDEA
:1072D00002B0D0BD80B56F4682B040F28E00C0F2E1
:1072E000000027F8020CB81E07F06CFE02B080BD4B
:1072F000D0B502AF82B0044640F20600C0F20000F2
:1073000027F80A0CA7F10A0007F05CFE204607F0F8
:1073100059FE02B0D0BDD0B502AF82B0044640F2F3
:107320000C00C0F2000027F80A0CA7F10A0007F0D1
:1073300049FE204607F0B5FE41F65460C0F2030056
:1073400007F040FE02B0D0BDD0B502AF82B0044617
:1073500040F28700C0F2000027F80A0CA7F10A00EB
:1073600007F030FE204604F0E2FC02B0D0BDD0B5FC
:1073700002AF82B0044640F28800C0F2000027F855
:107380000A0CA7F10A0007F01DFE204604F000FBDE
:1073900002B0D0BD80B56F4682B040F20100C0F2AD
:1073A000000027F8020CB81E07F00CFE02B080BDEA
:1073B000D0B502AF82B0044640F20700C0F2000030
:1073C00027F80A0CA7F10A0007F0FCFD204607F099
:1073D000D1FD02B0D0BDD4D4F0B503AF2DE9000F7C
:1073E000ADF51F7D884698A90531029189A9D0F88D
:1073F00000C00390481C4FF0000E049000204FF096
:1074000027094FF0000BCDE988EECDE98AEECDE9F2
:107410008CEECDE98EEE8DF840E2CDE906C00AE0B3
:10742000002840F0E681C5F848E2B9F101090BF502
:10743000167B00F0968108EB0B05E246D5F8480272
:10744000012808BFD5F84CA2BAF1090F00F210824A
:10745000CAEBCA01287C08EBC1020BEBC1015A44FC
:10746000D2E906349E1E64F10003F41F73F1000399
:1074700028BF042608EB010303F11801DFE806F03A
:10748000059929811004D600CAE70028CBD0079EB1
:1074900093F82400196A3F2E00F2F180253207E1AB
:1074A000002800F0C78098A807F017FC079B3F2B27
:1074B00000F2C38008AADDE99801DDF818C042F89F
:1074C000330002EBC3004160889801300790889038
:1074D000C2E00028A7D0079C93F82400D3F820C06E
:1074E000402C80F0BC8002F125062146B47805943A
:1074F00008AC368844F831C004EBC101889C08719F
:10750000A1F805601646059804F1010CC871BCF19C
:10751000400F36F82D4F93F82C00996A0591B178F9
:10752000CDF820C2ADF860428DF8621280F0D080B4
:1075300008A9059C96F802E041F83C4001EBCC0418
:107540008C463688A4F8056032F8356F889920712A
:1075500084F807E04C1C196B402C12F8010C93784E
:107560008894ADF860628DF8623280F0F6804CF855
:1075700034100CEBC4014FF0000E889E93781288F3
:107580004AE000283FF44FAF186A262800F27F81B6
:107590004FF4167100FB0180007C002800F0818010
:1075A000079E93F83000D96A402E80F0C6803132B1
:1075B0007EE000283FF437AF196A0591079993F8E8
:1075C000240040295ED202F12506B478019408AC6B
:1075D000B6F800C0059E44F8316004EBC101889CF8
:1075E000087101980134C871402CA1F805C032F827
:1075F0002D6F93F82C00996A93788894ADF86062A7
:107600008DF8623280F08B8008AE9378128846F84D
:10761000341006EBC401889E0871701CA1F8052087
:10762000CB7107908890DDF818C08CE000283FF4FB
:10763000FAAEE2E0C2E906EEF5E602989DF86412C1
:10764000DDF818C002880A2983789898ADF844229A
:107650008DF8463240F053814FF0000E73E00A2857
:1076600040F05D8192F82F60B2F82D4093F82C0025
:10767000D3F828C0ADF860428DF862622CE00A2889
:1076800061D06AE10A2840F0598193F82C00996A88
:1076900092F82F60B2F82D20ADF860228DF862626A
:1076A00040E0079E93F82800596A402E48D22932BC
:1076B00008AC9378128844F8361004EBC601889E13
:1076C0000871701CA1F80520CB71079088903AE0F2
:1076D000CDF81CC0DDF814C09DF862120A28BDF870
:1076E00060628DF84612ADF8446240F0E78092F88F
:1076F0003400196B92F83760B2F83520ADF860228B
:107700008DF86262DDF818C00A289DF86222BDF883
:1077100060328DF84622ADF8443214D0BEE00794B2
:10772000DDF818C09DF862220A28BDF860328DF895
:107730004622ADF8443206D0D1E00A2803D028E131
:107740000A2840F018810120C5E9920AB9F101091F
:107750000BF5167B7FF46FAE03E007944FF0000E3D
:10776000D0E78898DDF8108000284CD008ADC30021
:1077700000224FF0010C4FF0000E01E0083B2ED02C
:107780002C792846A61EF5B2082D28BF0526F6B28C
:1077900000F10805DFE806F00D050404041C0404EC
:1077A000ECE7007800F007000CFA00F04EEA000E5B
:1077B000E4E70678E02E4FEAD60061D218F8001010
:1077C00006F007040CFA04F4214308F80010D5E78A
:1077D0001AB1E10718BF0246D0E70246CEE7039B85
:1077E0008DF824E2A2B1107900281CBF10685860FF
:1077F0000FE0116A4046884701E0106A8047DDF8D3
:10780000108000208890039B4FF0000E8DF824E23A
:107810001A1D1C46116814F8080F1960704512D122
:1078200091AE03F109011C22304609F06FFA98ADC0
:1078300041461C22284609F069FA304629461C2296
:1078400009F02AFA68B189AD20460ECD0EC04ECDA2
:107850004EC02978017020460DF51F7DBDE8000F50
:10786000F0BD002420460DF51F7DBDE8000FF0BDE2
:1078700041F2E4725046C0F203020A2107F01CFDF7
:1078800041F600121C21C0F2030207F015FD41F67B
:1078900090022721C0F2030207F00EFD9DF8462258
:1078A000BDF844328DF8640241F660009891C0F250
:1078B0000300ADF865328DF8672279E09DF8461235
:1078C000BDF844228DF8640241F67000CDF860C224
:1078D000C0F20300ADF865228DF8671268E09DF8EC
:1078E0004622BDF844328DF8640241F6400098917A
:1078F000C0F20300ADF865328DF8672258E09DF8BC
:107900004622BDF84432989041F6C0008DF86412CA
:10791000C0F20300ADF865328DF8672248E08DF8BB
:107920006402B2F8250092F82730ADF8650241F6FE
:107930008000CDF860C2C0F2030037E08DF8640229
:10794000B2F8250092F827300599ADF8650241F6A6
:1079500050009891C0F2030028E08DF86402B2F85C
:107960002500ADF8650241F6300092F82730C0F2EC
:10797000030098911AE08DF86402B2F8290092F899
:107980002B30ADF8650241F6A0009891C0F20300DB
:107990000CE08DF86402B2F8310092F83330ADF8A3
:1079A000650241F6B0009891C0F203008DF867328D
:1079B00041F2F473009041F6040098AAC0F203006B
:1079C000C0F203032B2107F095FCF0B503AF4DF88F
:1079D00004BD86B0044640F23B00C0F20000ADF8A2
:1079E000040001A807F02FFB40F20500C0F20000E0
:1079F000ADF8040001A807F0E5FA41F63A40C0F2FC
:107A0000030007F062FB02F0EEFE204602F07CFF6E
:107A100080B201281BD10020CDE903008DF80A00B7
:107A20004FF48570ADF8080001208DF8040088B28D
:107A300001A9B0DF03F0C7FD064620460D4602F05F
:107A4000D6FE012E08D006B05DF804BBF0BD20467E
:107A500002F0CDFE43F2020540F23C000195C0F277
:107A6000000027F8120CA7F1120007F0ECFA40F220
:107A70008800C0F2000027F8120CA7F1120007F0EE
:107A8000A1FA01A803F084FF02F0ADFE06B05DF894
:107A900004BBF0BDF0B503AF4DF804BD86B004469D
:107AA00040F23B00C0F20000ADF8040001A807F06E
:107AB000CAFA40F20500C0F20000ADF8040001A8C7
:107AC00007F080FA41F63B40C0F2030007F0FDFAF0
:107AD00002F089FE204602F017FF80B201281BD178
:107AE0000020CDE903008DF80A004FF48570ADF851
:107AF000080002208DF8040088B201A9B0DF03F06D
:107B000062FD064620460D4602F071FE012E08D0A9
:107B100006B05DF804BBF0BD204602F068FE43F2FB
:107B2000020540F23C000195C0F2000027F8120C5B
:107B3000A7F1120007F087FA40F28800C0F20000B7
:107B400027F8120CA7F1120007F03CFA01A803F085
:107B50001FFF02F048FE06B05DF804BBF0BDF0B5B3
:107B600003AF2DE9000FA5B0D0F800B08046D1F8E2
:107B70000090BBF1000F06D0D8F80CA0BAF1000FAE
:107B800040F09A8041E098F8090060B1032840F085
:107B9000CF8098F80800012808D141F25460C0F263
:107BA000030008F0DDFC002088F8080040F6D4202F
:107BB0004946C2F2020005F03FFF802502A827F8DF
:107BC000265CA7F1260161DF03F0FDFC70B902AC71
:107BD000A7F12606204603F0C2FD27F8265C2046C2
:107BE000314661DF03F0EFFC0028F3D005291CBF0C
:107BF00043F2010081426BD140F20330A8F8080043
:107C0000D8F80CA0BAF1000F56D198F8140038B18A
:107C1000032809D041F26460C0F2030008F0A0FC20
:107C200008F11500C8F8100040F6CC204946C2F211
:107C3000020005F001FF0020239023A84BDF03F092
:107C4000C2FCA0BB40F20709CDF804B040F2110B12
:107C5000A7F11E0502AE23ACC0F2000BC0F2000972
:107C600006E003F0EFFB20464BDF03F0ACFCE0B98D
:107C700023980290284627F81EBC07F0E4F928460E
:107C800027F81E9C07F09EF9304607F073F902F0C2
:107C9000AAFD0298011F082928BF0228E3D3E0D0DB
:107CA000032834D103F02FFCDDE7DDF804B005290B
:107CB0001BD1032088F81400BBF1000F11BFBAF1EB
:107CC000000F25B0BDE8000FF0BD4046FFF71CF8DF
:107CD0000C2933D140F25D00C0F20000ADF88C00F9
:107CE00023A807F0C2F907F0ECF940F25C0002911A
:107CF000C0F2000027F81E0CA7F11E0007F0A3F940
:107D000002A8FFF734FB02F06EFD07F0DAF940F24B
:107D10005B00C0F2000027F81E0CA7F11E0007F060
:107D200092F902A8FFF744FB02F05DFD07F0C9F9E4
:107D300041F25C50C0F2030008F012FC40F25E0019
:107D40002391C0F2000027F81E0CA7F11E0007F0D7
:107D50007AF923A8FFF70BFB02F045FD07F0B1F914
:107D6000F0B503AF2DE9000B88B0BD6804460E46A0
:107D700098469146A87A8DF81C0006A8D5F80610FA
:107D8000069103F031FCADF81400000C05AA8DF843
:107D90001600A8880423F968CDE902022046CDE93F
:107DA00000534A4604913146434604F0C5F908B0F1
:107DB000BDE8000BF0BDF0B503AF2DE9000F89B0B1
:107DC000BD6883468A4698469146D5E90064A87BFB
:107DD0008DF8200007A8D5F80A10079103F004FCDD
:107DE000ADF81800000C06AA8DF81A002889434641
:107DF000F968CDE902025846049151464A46CDE958
:107E0000006404F099F909B0BDE8000FF0BDF0B5C9
:107E100003AF2DE9000B88B0BD6804460E469846B6
:107E20009146A8798DF81C0006A8D5F80210069195
:107E300003F0DAFBADF81400000C05AA8DF816006B
:107E400028880123F9680735CDE902022046CDE9EB
:107E500000534A4604913146434604F06DF908B098
:107E6000BDE8000BF0BDF0B503AF2DE9000788B009
:107E7000BD6804468A4698469146A87A8DF81C004B
:107E800006A8D5F806102E68069103F0ADFBADF8F4
:107E90001400000C05AA8DF81600A8880123F968C3
:107EA000CDE902022046CDE900634A4604915146DD
:107EB000434604F041F908B0BDE80007F0BDF0B555
:107EC00003AF2DE9000B88B0BD6804460E46984606
:107ED0009146A8798DF81C0006A8D5F802100691E5
:107EE00003F082FBADF81400000C05AA8DF8160013
:107EF00028881D23F9680735CDE902022046CDE91F
:107F000000534A4604913146434604F015F908B03F
:107F1000BDE8000BF0BDF0B503AF2DE9000B88B054
:107F2000BD6804460E4698469146287A8DF81C0096
:107F300006A86968069103F057FBADF81400000C21
:107F400005A98DF8160068880222CDE902012046B5
:107F5000CDE9005231464A46434604F08DFA08B056
:107F6000BDE8000BF0BD006808F065B8CA6900689C
:107F7000D30648BF08F007BB920658BF08F080BC84
:107F800008F037BBCA690068D30648BF08F0FBBADF
:107F9000920658BF08F011BC08F02BBBD0B502AF59
:107FA000A0FB00C200FB012E4CF2503200FB01F39B
:107FB00012EB0C0243EB0E0352EA03040ED000FB5B
:107FC00001E142F2107EACFB0E0401FB0E4108F011
:107FD00065FF10F57A7041F10001D0BD41F688606F
:107FE000C0F2030008F0A9FAF0B503AF2DE9000FC5
:107FF000ADF5364DB9B041F2305100EB010842F217
:10800000985100EB010B43F6580100EB010944F6CF
:10801000C00100EB010A45F628110DF1780E01446C
:1080200000F599640EF5B642CDE902102720002133
:10803000022300255619515105F5E1650338C6F8AC
:10804000C036C6F8C416C6F88836C6F88C16C6F808
:108050005036C6F85416C6F81836C6F81C16C6F8B8
:10806000E035C6F8E415C6F8A835C6F8AC15C6F86C
:108070007035C6F87415C6F83835C6F83C15C6F81C
:108080000035C6F80415C6F8C834C6F8CC14C6F8CE
:10809000B014C6F8B414C6F86834C6F86C14C6F840
:1080A0003034C6F83414C6E9FE31C6E9F031C6E909
:1080B000E231C6E9D431C6E9C631C6E9B831C6E90C
:1080C000AA31C6E99C31C6E99611C6E98431C6E9F0
:1080D0007631C6E96831C6E95A31C6E94C31C6E99C
:1080E0003E31C6E93031C6E92231C6E91431C6E96C
:1080F0000631716086F80017C6F8F81686F8CC3697
:1081000086F8C81686F8943686F8901686F85C3697
:1081100086F8581686F8243686F8201686F8EC3548
:1081200086F8E81586F8B43586F8B01586F87C35FB
:1081300086F8781586F8443586F8401586F80C35AB
:1081400086F8081586F8D43486F8D01486F8C0145A
:1081500086F8A814C6F8A01486F8743486F870144B
:1081600086F83C3486F8381486F8043486F800140F
:1081700086F8CC3386F8C81386F8943386F89013C3
:1081800086F85C3386F8581386F8243386F8201373
:1081900086F8EC3286F8E81286F8B43286F8B01227
:1081A00086F87C3286F8781286F8681286F85012C3
:1081B000C6F8481286F81C3286F8181286F8E431A0
:1081C00086F8E01186F8AC3186F8A81186F874318B
:1081D00086F8701186F83C3186F8381186F804313B
:1081E00086F8001186F8CC3086F8C81086F89430EE
:1081F00086F8901086F85C3086F8581086F824309F
:1082000086F8201031747FF415AF04AD0DF1780EAF
:108210000EF5B64145F66832284608F008FC039E84
:10822000294645F66832304608F001FC1A20022142
:10823000C6F87802142030620820C6F8D004152051
:10824000C6F828071720C6F880090420C6F8D80BFE
:108250001620C6F8300E0920C4F8180E0A20C8F8F7
:1082600008001D20C8F860021B20C8F8B8040620CA
:10827000C8F810071920C8F868091320CBF8180EA1
:108280001220CBF8C00B0C20CBF868091820CBF8D3
:1082900010071C2000220723CBF8B8042C203546F9
:1082A000C4F8C03B0523CBF860020020C6F8742256
:1082B000C6F870120BF1040CC6E906124FF0050E59
:1082C00086F87C1286F8241086F8D41486F82C17C9
:1082D00086F8841986F8DC1B86F8341E0326C8F855
:1082E000C03B0123C4E90012C4E99612C4F8B424C7
:1082F000C4F80C27C4F86429C4F8142EC4F8BC2BA5
:10830000C8F8BC2BC8F86429C8F80C27C8F8B424EE
:10831000C8E99612C8E90012CBF8142ECBF8BC2B92
:10832000CBF86429CBF80C27CBF8B424CBE9961210
:1083300025228CE80D0010230022CBE904064FF023
:10834000010CCBF81800C9F8140EC9F86409C9F873
:108350000C07C9F8B404C9E99610C9F80400112043
:10836000C9F8180E3320C9F868090F20C9F810079A
:108370000E20C9F8B8040D20C9F860020B20C9F816
:1083800008001020CAF8180E3820CAF81007372045
:10839000CAF8B8043620CAF860020298CAF8083051
:1083A0000423CBF800E0836000230673C0E90012C9
:1083B0002B20A8658020C5F8B809032085F8140C87
:1083C00085F86C0E84F8FC0B84F8540EC4F8500E3B
:1083D0008120C8F840000820CAF810EE0DF1780E90
:1083E0008DF81400FF208DF8100047F69D70CAF834
:1083F000246EC0F202008AF8C46B2E4685F85C1029
:10840000C5E9141285F8BC19C5F810CCC5F8682E5A
:108410000EF5B645C4F8B014C4F80817C4F86019CE
:1084200084F81C1EC4F8101E84F8C41BC4F8B81BC2
:1084300088F8C41BC8F8B81B88F86C19C8F860190C
:1084400088F81417C8F8081788F8BC14C8F8B014CE
:1084500088F8641288F80C10CBF8101ECBF8B81B03
:10846000CBF86019CBF80817CBF8B0148BF81C1EAA
:108470008BF8C41B8BF86C198BF814178BF8BC1491
:108480008BF86412C9F8101EC9F86019C9F80817EA
:10849000C9F8B014C9F8001089F81C1E89F86C19C5
:1084A00089F8141789F8BC1489F8641289F80C103B
:1084B000CAF8B81BCAF80817CAF8B014CAE9961265
:1084C000CAE90012CAF81C1E8AF814178AF8BC14EC
:1084D0008AF864128AF80C10C4F8E814C4F840173B
:1084E000C4F89819C4F8F01BC4F8F81BC4F8481E67
:1084F00088F84410C8E90E1204A900902846CAF86A
:10850000BC2BCAF80C27CAF8B424CAF8142ECAF82F
:10851000202ECAF8282EC4F8EC24C4F84427C4F846
:108520009C29C4F8F42BC4F84C2E4FF48042CAF8AE
:10853000C0CB06F0B4FB294606F5BE50AC466CC96C
:108540006CC002947CC97CC091E87C0004A97CC00A
:1085500008204FF480428DF8140001208DF810009F
:1085600047F69D70C0F2020000230090604664460A
:1085700006F095FB039941F61820A6464FF0500CE3
:10858000084421466CC96CC07CC97CC091E87C0061
:1085900039217CC04C200BF14002CBF8500E042056
:1085A00088F8FC0B002688F8A409022588F84C07F7
:1085B0002C20CBF898022820CBF8F014012143C2DC
:1085C00003205222CBE913062A20C9F8A009002073
:1085D000C9E90E50FF20C8F8F81B4F218DF8100094
:1085E00047F69D705123C9F84817C0F2020004A94C
:1085F0000524C9F8F024C9F89832A42200907046E6
:108600000023C8F8F46BC8F8F05BC8F89C69C8F898
:108610009859C8F84467C8F84057CBF8485ECBF87B
:108620004C6ECBF8E854CBF8EC64CBE9A456C8F810
:10863000A059C8F848678BF8545E8BF8F4548BF84F
:108640009C52CBE90E468DF814407446C9F89859EF
:10865000C9F89C69C9F84057C9F84467C9F8E85493
:10866000C9F8EC64C9E9A456C9F840C089F8A4590E
:1086700089F84C5789F8F45489F89C5289F8445089
:1086800006F00DFB039944F2A060A446084421467D
:108690006CC96CC07CC97CC091E87C0004A97CC01A
:1086A0000620A4228DF8140001208DF8100047F652
:1086B0009D70C0F20200002300906046644606F000
:1086C000EEFA039944F6F800A446084421466CC922
:1086D0006CC07CC97CC091E87C0004A97CC0FF20F0
:1086E000A4228DF8100006208DF8140047F69D7026
:1086F000C0F20200002300906046644606F0CFFA04
:10870000039944F65030A446084421466CC96CC015
:108710007CC97CC091E87C0004A97CC00520A4220F
:108720008DF8140001208DF8100047F69D70C0F2FE
:108730000200002300906046644606F0B0FADDF8BF
:108740000CC044F6A8504ECC4FF0010E60444EC011
:108750006ECC6EC094E86E0035246EC028200223D3
:10876000029D0326CAF848072F20CCF8E80205210D
:10877000A8672920CCF890000020CAF8600E0022DB
:10878000CAF8580ECAF84C0ECAF8F40BCAF84407D7
:10879000CCE9B830CCE92230C5F87C07C5F824050F
:1087A0000120CAF8481E2621C5F83005C5E9B606DD
:1087B000C5E91F30CAF8F80B2D20C5E9B413102104
:1087C000CAF8543ECAF8F03BCAF84037C5F87837C3
:1087D000C5F82C358AF84C378CF8EC328CF894308C
:1087E000CCF8480C8CF84C3C4FF02E0CC5F8880E99
:1087F0000220C5F88C3E85F8343CC5F8283C25237A
:10880000CAF8501E2946C5F82065C5F82845C5F8A0
:108810003465C5E9B262C5F88460C5E91C62C5F873
:10882000806EC5F8842EC5F890EEC5F8946EC5F834
:108830002C2CC5F830CCC5F8D069C5F8D429C5F8BA
:10884000D839C5F8DC09C5F8E0E9C5F8E46922259E
:10885000C8F8305C1F25CBE91E3E0423C8F88057BA
:108860003125C9F880370623C8F8D0C20BF5686CEB
:10887000C8F828552125C9F8283531238CE815007A
:1088800005244FF0050CC8E91E503425CAF878308D
:108890003423CAF85C6E8AF8FC6BC8F8286CC8F8F8
:1088A0003C6CC8F87867C8F88C67C8F82065C8F8C9
:1088B0003465C8F8DC62C8E9B262C8E91C62C8E97C
:1088C00020E6CBF8D069CBF8E469CBF87867CBF831
:1088D0008C67CBF82065CBF83465CBE92026C9E955
:1088E0001C62C9E920E689F8DC6989F8846789F89F
:1088F0002C6589F8D462CAF8946ECAF87867CAF809
:108900008C67CAF82065CAF83465CAE9B262CAE958
:10891000B6E68AF8346C039EC8F8D8593025CAF8F0
:1089200028352423CBE91C42C9F8D8490724C9F8C3
:10893000D0421024CAE9B4302123CBF8305CCBF804
:10894000D8592725CBF880572325CAF8884E032409
:10895000C6F8D0371F23CBF828552C25C6F820336E
:1089600006F1C003C1E92A02C1E9C002C1F85805F5
:10897000C1F85C25C1F8B007C1F8B427C1F8080AEE
:10898000C1F80C2A81F86C4C81F8C44EC1F8600C17
:10899000C1F8642CC1F8680CC1F8B80EC1F8BC2E3F
:1089A000C1F8C04E3E21CBF8D0522025CAF880CE67
:1089B0004FF01E0C83E805102223C8F8681C08F548
:1089C000F661C6F8283A3D23C6F87855C6E9C602CE
:1089D00086F8240386F8CC0086F87C0586F8D40750
:1089E00086F82C0A86F8844CC6F880EC86F8DC4EB3
:1089F000C6F8D82E3C2645C108F5AB610226C9E968
:108A00001E503B2525C108F54071CAF880C74FF0BC
:108A10003A0C81E805104421C8F8B0102721CBF8A2
:108A2000C01E2621CBF8681C2421CBF8B8172321BF
:108A3000CBF860152C21CBF808130521C8F8340CAD
:108A4000C8F8D009C8F88407C8F82C05C8E9B50EDD
:108A500088F8DC09CBF8280CCBF8DC09CBF88407C4
:108A6000CBF82C058BF88C0E8BF8340C8BF8D402D9
:108A7000CBE9B202C9F8D009C9F87807C9F82005CE
:108A8000C9E9B202CAF88C0ECAF8280CCAF88407E1
:108A9000CAF82C05CAE91C028AF87C00C8F8600CE8
:108AA000C8F8080A88F86C0C88F8140A88F8BC071B
:108AB00088F8640588F80C0388F8B400C8E92A022D
:108AC000CBF8B80ECBF8600CCBF8080ACBF8B0079F
:108AD000CBF85805CBE9C0028BF8C40E8BF86C0CB0
:108AE0008BF8140A8BF8BC078BF864058BF80C0321
:108AF0000BF1A800C8F8103A252380E80E403F206B
:108B0000C9F8C00E0420C9F8B8070620C9F86005E6
:108B10000720C9F808034520C9F8B0001020CAF89A
:108B2000C00E0020CAF8640C4320CAF8B8074220DF
:108B3000CAF860054120CAF808034020C8F82C2C68
:108B4000C8F838ECC8F8D429C8F87C27C8F888E7F2
:108B5000C8F82425C8F830E5CBF82C2CCBF8D4295C
:108B6000CBF8E0E9CBF87C27CBF888E7CBF82425D5
:108B7000CBF830E5CBF88820C9F8D429C9F87C2790
:108B8000C9F82425CAF8982ECAF8902ECAF8842E5F
:108B9000CAF82C2CCAF87C27CAF888E7CAF824251A
:108BA000CAF830E5CAF830ECC8F8642CC8F80C2ACA
:108BB000CBF8BC2ECBF8642CCBF80C2ACBF8B4271E
:108BC000CBF85C25CBF8103ACBE92E24CBF8C020AB
:108BD000C9F8B86EC9F8BC2EC9F8B067C9F8B4278F
:108BE000C9F85865C9F85C25C9E9C06289F8C46E3E
:108BF00089F8144AC9F8086AC9F80C2AC9F8101A81
:108C000089F8BC4789F8644589F80C4389F8B46051
:108C1000C9E92A62CAF8B427CAF8B067CAF85C255D
:108C2000CAF85865CAE9C062CAE92A62CAF8B81E19
:108C3000CAF8BC2ECAF8C46ECAF8C82ECAF8CC4E00
:108C4000CAF8D02E8AF86C4CCAF8606CCAF868EC86
:108C50008AF8BC678AF864658AF80C638AF8B4609D
:108C6000CAF8B0000DF5364D39B0BDE8000FF0BDC3
:108C7000F0B503AF2DE900070C68066803F043F96F
:108C800096E802050025356019B301291BD1D4E906
:108C900000218A4508BF904538D0126881460846B1
:108CA00090470246D6E90053B0680124012DC6E979
:108CB0000042B16004BFD9688847D8F80410504614
:108CC00088470125484603F049F92846BDE80007D2
:108CD000F0BDD4E900210446084612689047D6E961
:108CE000003E0246D6F808C001252046012BC6E901
:108CF0000052B160E7D1DEF80C106046884720468C
:108D000003F02CF92846BDE80007F0BD01253560C9
:108D100003F024F92846BDE80007F0BDF0B503AF25
:108D20002DE9000F8BB00C461168002900F05B8123
:108D30002188112917D11546846803F0E4F8D4E995
:108D400000320226A168012B266004D15268044635
:108D500008469047204603F001F9002028600BB038
:108D6000BDE8000FF0BD00682646D0F8009036F848
:108D7000040F01F0E5FDC00700F04081208807F8EE
:108D80002D1C502800F09F8051282DD0522840F0F3
:108D9000228140F21400C0F20000ADF81C0007A8C8
:108DA00006F051F940F20600C0F20000ADF81C00D8
:108DB00007A806F007F9304606F004F901F013FDA4
:108DC000308801F0BDFDC00700F00581A7F121004A
:108DD00007F8211C01F064FF002800F0E180CA6B55
:108DE000A7F121019047F2E0A079CDF81490022874
:108DF00040F01581208A039040F21700C0F2000075
:108E0000B4F812B0ADF81C0007A8049107F8211CB3
:108E100006F019F940F20600C0F20000ADF81C009F
:108E200007A806F0CFF804F10806304606F0CAF8A5
:108E300040F20B00C0F20000ADF81C0007A806F0DD
:108E4000C1F807A8CDF81CB006F094F840F2050868
:108E50000AA8C0F20008ADF8288006F0B3F8DDF8E3
:108E60001C9004F1140AB9F1000F08D055462846A9
:108E700006F02BF9B9F1010905F10105F7D101F06F
:108E8000B2FC14F80E2F501EC0B2052840F2EA8042
:108E900040F26800C0F20000ADF81C0007A806F020
:108EA000D2F807A8ADF81C8006F08CF8204606F032
:108EB0000CF901F098FCA7F12100FEF7EBFD0BB0D7
:108EC000BDE8000FF0BDE089059040F21500C0F24A
:108ED0000000B4F81080ADF81C0007A806F0B3F845
:108EE00040F20600C0F20000ADF81C0007A806F032
:108EF00069F8A61D304606F065F840F20B00C0F296
:108F00000000ADF81C0007A806F05CF807A8CDF833
:108F10001C8006F02FF840F20500C0F20000ADF80A
:108F200028000AA806F04EF8DDF81CB004F1120A79
:108F3000BBF1000F08D05546284606F0C6F8BBF135
:108F4000010B05F10105F7D101F04DFC14F80C3FC0
:108F5000581EC0B206280BD23288A7F12D01059801
:108F6000CDE9000A4846CDF8088001F0D5F832E096
:108F700040F26700C0F20000ADF81C0007A806F040
:108F800062F840F20500C0F20000ADF81C0007A82E
:108F900006F018F8204606F098F801F024FC1AE0D4
:108FA000A7F12100002102F080FB02280FD0CDE9BB
:108FB000070140F23E00C0F20000ADF828000AA808
:108FC00006F041F807A8FEF7BFF901F00CFCA7F185
:108FD000210001F00CFCA7F12D0001F008FC0BB002
:108FE000BDE8000FF0BD42F2280042F25002C0F28C
:108FF0000300C0F20302282106F02DF940F26600BA
:10900000C0F20000ADF81C0007A806F01CF8A7F19C
:109010001D00FEF7BFF901F0E6FB06F052F801284B
:1090200015D140F216000E46C0F20000ADF81C004B
:1090300007A806F008F804F10800FEF759F901F056
:10904000D2FBE28933462189059800F044FC40F2C6
:109050006900C0F20000ADF81C0007A806F005F892
:1090600006F02FF80498318802900598039BCDE90B
:1090700000AB00F046FCFFF751BEF0B503AF2DE9A1
:10908000000F91B0054690F8B0000191029570B1C3
:10909000032840F0CB80A84618F8AC0F40B3032853
:1090A00053D042F21800C0F2030007F059FA286FBB
:1090B0000078142880F0C080742140F2800200FB08
:1090C00001F3C2F20202D35CDB0779D010FB01206E
:1090D0006C6F408802F02DFB06460020A84608F879
:1090E000AC0F08F1050048E90D6448F82C0C03E0CA
:1090F000D5E91E64D5F8800045F8844F4FF000098B
:1091000005F129012C46686044F8089FC5E905511E
:10911000C5E9074604F085FC00285CD030680028CB
:1091200065D170684FF0FF313160002840F08B80CE
:1091300005F11400029D41F698710022C0F203016E
:10914000C6E90020B160C5F8A840019905F1A80062
:10915000FFF78EFDD0B1032040F2105485F8B00027
:10916000C5F2000485F8AC00A846287F002800F06E
:109170000782032840F0A081444614F8300F38B32A
:10918000032840F08C81D8E90A568BE0D5F8A4403A
:1091900000202E46C5F8A40034B104F042FC60B3B0
:1091A0002068E8BB00206060D6F88C00012803D15D
:1091B000D6E92410C96888470120354688F80000A0
:1091C000012085F8B000002011B0BDE8000FF0BD0F
:1091D000D8F820004AE00120CDF82890079041F609
:1091E000F040C0F20300CDF8249006900FE041F665
:1091F0002460C0F2030005F08DFF012100200791DB
:1092000041F6F041C0F203010A9006910990042052
:1092100041F66851089006A8C0F2030106F010F864
:1092200041F63460C0F2030005F074FF41F6887027
:10923000C0F2030007F094F941F2DC521421C0F2AD
:10924000030206F039F801210020079141F6A051F0
:10925000C0F203010A9009900420069141F61461BE
:10926000089006A8C0F2030105F0EAFF0078454621
:1092700046F2000245F8240FC4F20002072800F26B
:10928000078102EB800000211646C0F80011012181
:10929000D8F8240000F01F0001FA00F0C2F804031F
:1092A000C8E90A522868072800F2EB80019940F6C5
:1092B000F828C2F2020808EBC000096805F02AF994
:1092C0002868082880F0D68006EB80000121D0F8BD
:1092D0000001002808BF0321029E217040F21054B3
:1092E000C5F2000440F0C38196F84400B14628B1AD
:1092F000032840F0D480D9E90F451AE0706B34465A
:1093000046F20005C4F20005007844F8380F07283B
:1093100000F2BE8005EB80000021C0F800110121A1
:10932000B06B00F01F0001FA00F0C5F80403C6E9B5
:109330000F452068072800F2A480019908EBC000BF
:10934000096805F0E7F82068082880F0938005EBAD
:10935000800040F2105401214E46D0F80001C5F2C1
:109360000004002808BF032189F8441040F07F81E1
:1093700096F8580028B1032840F09180D9E91445A7
:1093800019E0B06C344646F20005C4F200050078DE
:1093900044F84C0F07287BD805EB80000021C0F86B
:1093A00000110121F06C00F01F0001FA00F0C5F877
:1093B0000403C6E914452068072862D8019908EB20
:1093C000C000096805F0A6F82068082852D205EB0D
:1093D000800040F2105401214E46D0F80001C5F241
:1093E0000004002808BF032189F8581040F03F818D
:1093F00096F86C0020B1032851D1D9E9194519E03C
:10940000F06D344646F20005C4F20005007844F8D9
:10941000600F07283CD805EB80000021C0F8001140
:109420000121306E00F01F0001FA00F0C5F80403BE
:10943000C6E919452068072823D8019908EBC00020
:10944000096805F067F82068082813D205EB80004A
:1094500040F2105401214E46D0F80001C5F200043C
:10946000002808BF032189F86C1040F00081032018
:10947000B0461AE041F6AC420821C0F2030205F002
:109480001BFF41F69C420821C0F2030205F014FFC5
:1094900041F6F8620821C0F2030205F00DFF41F623
:1094A0000870C0F2030007F05BF888F81C00022087
:1094B00011B0BDE8000FF0BD019908F1200005F0E2
:1094C000D6FC002800F018810420EEE7D8E903104C
:1094D000FDF782FF38B3014600208DF834000DF10E
:1094E000180A0C901C22CDE90A00CDE90800CDE94C
:1094F000060011F8010B8DF818000AF1010007F0C1
:1095000005FCD8E9051052461D23098902F092F89E
:10951000022818D140F23000C0F20000ADF8380047
:109520000EA805F0A2FDF0072AD006A8A422002369
:1095300005F077FCDDE906019DF82020C8E9080167
:1095400088F82820B8E7CDE90E0140F24D00C0F2BE
:10955000000027F81E0CA7F11E0005F074FD40F274
:109560008600C0F2000027F81E0CA7F11E0005F0CF
:1095700029FD0EA802F0DBFB01F035F9F007D4D18C
:109580004FF400404FF43E7344F8080C4FF43E7023
:10959000D8F804100A7802F01F06202A4FF00102C2
:1095A00038BF6FF0070302FA06F6E6504FF43E7636
:1095B0004B78202B03F01F0338BF6FF0070602FA29
:1095C00003F3A3514FF43E768B78202B03F01F0357
:1095D00038BF6FF0070602FA03F3A3514FF43E764B
:1095E000CB78202B03F01F0338BF6FF0070602FA79
:1095F00003F3A3510979029E202901F01F0138BF0E
:109600006FF0070002FA01F1215004F54071B068D3
:109610000B464278202A38BF23461B6802F01F02FF
:1096200023FA02F2D20722D1C2780B46202A38BF91
:1096300023461B6802F01F0223FA02F2D20716D15A
:1096400042790B46202A38BF23461B6802F01F02CE
:1096500023FA02F2D2070AD1C279202A38BF214662
:10966000096802F01F02D140C90700F0208171682B
:109670004FF43F734FF43F700A7802F01F06202A20
:109680004FF0010238BF6FF0030302FA06F6E6500E
:109690004FF43F764B78202B03F01F0338BF6FF059
:1096A000030602FA03F3A3514FF43F768B78202B85
:1096B00003F01F0338BF6FF0030602FA03F3A35150
:1096C0004FF43F76CB78202B03F01F0338BF6FF0A9
:1096D000030602FA03F3A3510979DDF80880202973
:1096E00001F01F0138BF6FF0030002FA01F12150B1
:1096F0004FF4004044F8040C002500264FF0000908
:1097000070E0D8E902015A460126C078202838BF07
:10971000224600F01F00126806FA00F0024001EB3A
:109720000500039200F6B830114618BF012105F07C
:1097300083FAD8E902015A46A2464079202838BF68
:10974000224600F01F001268444606FA00F010EAB4
:10975000020801EB050041F270710844414618BF50
:10976000012105F069FAD4E90202C079202800F04D
:109770001F0038BFD346DBF8001006FA00F04FF0A8
:10978000010B10EA010602EB050041F67862104475
:10979000314618BF012105F04FFADDE903100843F7
:1097A00040EA0800626830434FF43F7309F1010159
:1097B00005F51675A04612F8092089465446202A58
:1097C00002F01F0238BF6FF0030300280BFA02F209
:1097D0004AF8032018BF01200529059E46EA000625
:1097E0003FF474AED8F8040001224FF43E710596A0
:1097F00004F5407B10F80900202800F01F0038BF56
:109800006FF0070102FA00F060505946D8F80800DE
:109810004078202800F01F0038BF2146096802FA6E
:1098200000F0D8F80C200140049102EB050018BFAD
:10983000012105F001FAB9F1020FBFF462AFD8E9D6
:1098400002015A460126A246C078202838BF224687
:1098500000F01F001268444606FA00F010EA020801
:1098600001EB050000F6B830414618BF012105F0B4
:10987000E3F9D4E902024079202800F01F0038BF44
:10988000D346DBF8001006FA00F04FF0010B10EAA7
:10989000010602EB050041F270721044314618BF18
:1098A000012105F0C9F9049840EA08007AE7344636
:1098B000002304F8303F811C021D861D84F83C30D3
:1098C000E662DDF8088084F82830A26123756160C3
:1098D00044F8100CCAE480B56F4684B001A88DF836
:1098E0000A300192ADF8081000F0B0F840F26400C0
:1098F000C0F2000027F8020CB81E05F0B6FB05F018
:10990000E0FB80B56F4684B03869D7E902CE8DF8A8
:109910000F0068468DF80E20ADF80C100293CDE9CB
:1099200000CE00F090F840F26500C0F20000ADF803
:109930000000684605F099FB05F0C3FB80B56F4653
:1099400082B040F26000C0F2000027F8020CB81E9E
:1099500005F08BFB05F0B5FB80B56F4684B008467B
:10996000002101F0A2FE022818D0CDE9010140F249
:109970003D00C0F20000ADF80C0003A805F063FB49
:1099800040F28700C0F2000027F8020CB81E05F074
:1099900019FB01A802F0CBF900F025FF04B080BD4F
:1099A00080B56F4682B040F25F00C0F2000027F839
:1099B000020CB81E05F059FB05F083FBB0B502AFF1
:1099C00082B00446A7F10D0003F075FF17F80D0CE7
:1099D00000F06F05002001F000FE60F3041583071E
:1099E00045F0200217F8091C58BF05F05F0242F04D
:1099F0004003400758BF02F03D0303F07D0007F825
:109A00000D0C57F80D0C2171206002B0B0BD80B56F
:109A10006F4682B040F26100C0F2000027F8020CED
:109A2000B81E05F022FB05F04CFB80B56F4682B0F6
:109A300040F26200C0F2000027F8020CB81E05F0E8
:109A400014FB05F03EFB0F30FEF724B80630FDF79F
:109A5000BCBFF0B503AF2DE9000FC3B00DF1D009C5
:109A60009A4615460646484641F60A0201230C4628
:109A70004FF0010802F040FBBDF8D00008B1359866
:109A80002FE108A84FF0020B80E8300403254FF0C7
:109A90008074BDF8D200ADF8A0004FF48070ADF82E
:109AA000EA001AA80B9600263B96CDF8EF608DF8D9
:109AB000F8B08DF8F3B0ADF8E0608DF8DA508DF8BD
:109AC0006C801A9401F090FDADF84000000C8DF808
:109AD000420042F292004FF00708C0F203000DF17D
:109AE000400ACDE900082BA828A942F650220123FC
:109AF000CDE9028ACDF8109002F01EFBBDF8AC0053
:109B0000002840F0EC804FF480703B96ADF8EA00FE
:109B10001AA8CDF8EF60ADF8E06001268DF8F8B036
:109B20008DF8F3B08DF8DA508DF86C601A9401F06E
:109B30005BFDADF84000000C8DF8420042F286005B
:109B4000C0F2030028A9CDE900082BA842F629227B
:109B5000012334ADCDE9028A049502F0EDFABDF897
:109B6000AC00012800F0BB8000204FF480713B90D6
:109B7000CDF8EF00ADF8E00003208DF8DA004FF0EB
:109B800080701A901AA8ADF8EA1002218DF8F8102A
:109B90008DF8F3108DF86C6001F026FD42F28D0116
:109BA000ADF84000000CC0F203018DF84200052022
:109BB000CDE9001028A9CDE9020A2BA842F62422FB
:109BC0000123049502F0B8FABDF8AC00012800F0BA
:109BD00086800A9CB4F5803F80F08E8200200DF1D3
:109BE00068093B904FF48071CDF8EF00ADF8E000CC
:109BF00003208DF8DA0001208DF86C004FF08070A2
:109C0000ADF8EA1002211A9048468DF8F8108DF848
:109C1000F31001F0E9FCADF84000000C8DF84200B3
:109C200028A9099842F62522CDE900042BA8012392
:109C3000CDE9024A049502F07FFABDF8AC00012894
:109C40004DD008992BA841F60F020123012402F000
:109C500053FABDF8AC00002841D142F26000002167
:109C6000C0F203000DF1400A1A900120C2F2AD705B
:109C700040F20108389040F2000BBDF8AE00C0F28F
:109C80000018ADF840004FF08070CDF86E00C0F2C3
:109C9000011BCDF8F3004FF48020399003208DF89C
:109CA000DA002BA8CDF8EF1042F619228DF8EA1051
:109CB00040F20121ADF8F71051460123CDF8EB80B9
:109CC000CDF8F9B08DF87240ADF86C408DF8E840F1
:109CD000CDE90095FEF7C7F8BDF8AC0040B12C986F
:109CE0000B9E70600120308043B0BDE8000FF0BDD6
:109CF000089934A841F612020123BDF8B240BDF81C
:109D0000AE6002F0F9F9BDF8D00008B13598E7E788
:109D1000BDF8D20034A927F8F60C04200E9008F5FF
:109D200088700D900DA8CDE9000128A8A7F1F601D3
:109D30000025CDE909644FF0020840F202244FF4F7
:109D40008076CDF8F9B042F64A22CDF8F4B04FF063
:109D5000030B01233B958DF83C50ADF83D40ADF829
:109D6000EA60CDF8EF508DF8F8808DF8F380ADF80B
:109D7000E0508DF8DAB0FDF7F3FFBDF8A000002841
:109D800040F0DC80BDF8A200A7F1F601089042F295
:109D90006100C0F2030042F64B2210902520CDE96D
:109DA00011000020C0F201100123CDF8F9003D9010
:109DB00034A8ADF84D400124CDE900A028A83B957A
:109DC0008DF84C50ADF8EA60CDF8EF508DF8F88082
:109DD0008DF8F380ADF8E0508DF8DAB0FDF7EBFFC9
:109DE000BDF8A000002840F0A980002034A9C0F2EE
:109DF000011040F2022ACDF8F90042F64C223D90C3
:109E000014A8CDE9000128A8A7F1F60101231494B4
:109E10008DF8EC400224BDF8A2608DF857508DF803
:109E20005450ADF855A0CDF8ED50ADF8EA50ADF86E
:109E3000F1508DF8F8408DF8F340ADF8E0508DF812
:109E4000DAB0FDF7E4FFBDF8A000002876D10020CD
:109E500034A9C0F201104FF00108CDF8F90042F624
:109E60004E223D9016A8CDE9000128A8A7F1F601E1
:109E7000ADF85DA04FF4807A01230796BDF8A2608B
:109E80008DF85F808DF85C50CDF85880CDF8ED509E
:109E90008DF8EC80ADF8EAA0ADF8F1508DF8F840FF
:109EA0008DF8F340ADF8E0508DF8DAB0FDF7AFFF74
:109EB000BDF8A000002841D1BDF8A200A7F1F6012D
:109EC00006901D201A9002208DF8F80003208DF8CE
:109ED000DA0034A88DF8EE8040F20008CDE9009059
:109EE00028A8C0F20118B34640F2022642F64D22DD
:109EF0000123CDF86F50CDF87350CDF87750CDF8E1
:109F00007B50CDF87F50CDF88350CDF887508DF839
:109F10008B508DF86C50ADF86D60CDF8EF50CDF8EA
:109F2000EAA0CDF8F980CDF8F4808DF8F350ADF8C3
:109F3000E050FDF7C4FFBDF8A00008B12998CFE6B6
:109F4000BDF8A80040F201142999C0F2020427F8D4
:109F5000936C34AEBDF8A2200123ADF86600A7F1E2
:109F60009A00CDF8621018A9ADF8602042F60812E8
:109F70000090304647F89A4C07F8945C27F8965CB6
:109F80000125FDF7C8FFBDF8D00000287FF4BEAE64
:109F90004FF0807018A9359028A842F608120123C6
:109FA0008DF8D85034940096FDF7B5FFBDF8A000A9
:109FB0000028C3D1BDF86000A7F1F60105901D206F
:109FC0002B9040F20010C0F201100025CDF8EA00FD
:109FD00002208DF8F8004FF40070ADF8F200032075
:109FE0008DF8DA002BA8CDE9000628A840F202245B
:109FF00042F64D220123BDF8A290BDF864A0CDF831
:10A00000B350CDF8B750CDF8BB50CDF8BF50CDF818
:10A01000C350CDF8C750CDF8CB508DF8CF508DF848
:10A02000B050ADF8B140CDF8EE50CDF8F980CDF894
:10A03000F480ADF8E050FDF742FFBDF8A000002825
:10A040007FF47CAFBDF8A80040F201262999C0F248
:10A05000020607F8205C012327F8225C34ADBDF826
:10A06000A220ADF89E00A7F12600CDF89A1026A9EF
:10A07000ADF8982042F608120090284627F81F4CA9
:10A08000012447F8266CFDF746FFBDF8D0000028F4
:10A090007FF43CAE4FF0807026A9359028A842F698
:10A0A000081201238DF8D84034960095FDF733FF50
:10A0B000BDF8A00001283FF441AF0B9EBDF8A200FF
:10A0C000BDF89810F0820598F0810698B081079845
:10A0D000B18240EA0B40B0600898F0800A98B080E6
:10A0E000099870800020A6F81290A6F810A0308081
:10A0F00043B0BDE8000FF0BD40F26300C0F20000C5
:10A10000ADF8AC002BA804F09EFF2BA8FDF703F9D7
:10A1100000F069FB04F0D5FFF0B503AF2DE90007AF
:10A1200084B08246D7E90389C08996B2B0422CD167
:10A1300040F22F00C0F20000ADF80000684604F0C5
:10A1400082FF40F20B00C0F2000027F8220CA7F1BA
:10A15000220004F037FF02A8CDF8089004F00AFFAF
:10A1600040F20500C0F20000ADF80C0003A804F0B6
:10A1700029FF029C3CB14546284604F0A6FF013C5D
:10A1800005F10105F8D100F02EFBB9F1000F22D046
:10A19000BAF80200B0421ED198F8000000F00100A9
:10A1A00007F8250C40F22E00C0F20000ADF80400C4
:10A1B00001A804F048FF40F20A00C0F2000027F8AE
:10A1C0001A0CA7F11A0004F0FDFEA7F1250004F017
:10A1D00005FF00F008FB002004B0BDE80007F0BD5B
:10A1E000F0B503AF4DF8048D82B0044601F08BFE4C
:10A1F00040F27006C2F20206356805BB804640F6A2
:10A20000B840C2F202004FF4004C50F80C2000F5A8
:10A210000041002A08BF0246D31D891A23F0070314
:10A220009B1A03F150058D422DD85119D51840F8CD
:10A230000C105021284606F06BFD4046356001F0B9
:10A240008DFE05F1080040F2011150E8002F92B98F
:10A2500040E80012002AF8D146F2AD20C0F2020018
:10A260002146686105F12000FCF772FD284602B026
:10A270005DF8048BF0BDBFF32F8F0025284602B098
:10A280005DF8048BF0BD40F28100C0F2000027F8B9
:10A29000120CA7F1120004F0E8FE04F012FFF0B572
:10A2A00003AF4DF8048D82B0044601F02CFE40F25D
:10A2B0007406C2F20206356815BB804640F6B84007
:10A2C000C2F202004FF4004C50F80C2045F6E8456D
:10A2D00000F50041002A08BF0246D31D891A23F069
:10A2E00007039B1A1D448D422ED85119D51840F8EA
:10A2F0000C1045F6E841284606F00AFD4046356058
:10A3000001F02CFE05F1080040F2011150E8002F89
:10A3100092B940E80012002AF8D146F23D30C0F26E
:10A3200002002146686105F12000FCF709FD28467E
:10A3300002B05DF8048BF0BDBFF32F8F00252846D7
:10A3400002B05DF8048BF0BD40F28100C0F2000065
:10A3500027F8120CA7F1120004F087FE04F0B1FEFA
:10A3600080B56F4600F000F880B56F4684B06C464B
:10A37000204604F02FF92046FCF7EFFC006804F0BB
:10A38000FFBE80B56F4682B040F2780172B6C2F26D
:10A3900002010A78EAB901220A70009040F25000E6
:10A3A000C0F20000ADF8040001A804F04CFE40F239
:10A3B0000200C0F2000027F8020CB81E04F002FEF2
:10A3C00042F2E4016846C0F2030104F013FE00F01B
:10A3D0000AFA4EF62450CEF20000016821F48021E2
:10A3E000016000DEFEDEF0B503AF2DE9000B3AB3ED
:10A3F00004460069E368BFF35F8F984217D9DE43D4
:10A400008519EDB1AA4238BF1546EE18B6F5806F32
:10A410001BD96068C3F58069884618444A4606F02F
:10A4200075FC606808EB0901A5EB090210E0002843
:10A4300012BFC3F5806540F2FF30C51A002DE1D18F
:10A4400000252846BDE8000BF0BD60682A46184488
:10A4500006F05CFCBFF35F8F6FF39F26E660284633
:10A46000BDE8000BF0BDF0B503AF2DE9000B1446BD
:10A47000C268B4F5806F28BF4FF480641619054692
:10A48000B6F5806FBFF35F8F0DD96868C2F580693C
:10A49000884610444A4606F039FC686808EB090112
:10A4A000A4EB090202E068681044224606F02EFC84
:10A4B000BFF35F8F6FF39F26EE602046BDE8000B71
:10A4C000F0BDF0B503AF2DE9000782B040F2790886
:10A4D00040F20006C2F202084AF2E73A98F8030096
:10A4E0004AF26745C2F20206C0F2020AC0F2020551
:10A4F000A0B307281BD24FF0FF3298F8041002FADD
:10A5000000F0A7F11A0908432C4600F07F0007F875
:10A510001A0CF06A00F00300022808BF544606F146
:10A52000180049460122A0470028F8D014E07930ED
:10A53000A7F11B0940F0800007F81B0CF06A2C46BD
:10A5400000F00300022808BF544606F118004946EF
:10A550000122A0470028F8D0012820D10020A7F12F
:10A56000190407F8190CF06A00F00300022808BF6C
:10A57000554606F1180021460122A8470028F8D0C8
:10A5800001280CD10020A8F8030088F8000098F8F2
:10A59000010001F0E3FC02B0BDE80007F0BD42F2AB
:10A5A00054120121C0F2030205F058FDF0B503AFCB
:10A5B0002DE9000F83B0002900F0BA8040F279083D
:10A5C0000446C2F2020800EB010A98F8030040F2C8
:10A5D00000094AF2674BC2F20209C0F2020B08E01E
:10A5E000012840F0A9800020A8F80300544500F09D
:10A5F0009F8014F8011BC2B2072A1FD2002957D02E
:10A6000007F8211C5D46D9F82C0000F00300022851
:10A610004AF2E730C0F2020008BF054609F118000F
:10A62000A7F121010122A8470028F7D0012840F016
:10A63000838098F8030098F8041041E000295DD069
:10A6400007F81E1C5D46D9F82C0000F00300022814
:10A650004AF2E730C0F2020008BF054609F11806C9
:10A66000A7F11E0101223046A8470028F6D0012894
:10A6700062D198F80300013088F80300C1B286293E
:10A68000B4D1FF205D4607F81D0CD9F82C0000F06E
:10A69000030002284AF2E730C0F2020008BF054674
:10A6A000A7F11D0130460122A8470028F8D097E7FE
:10A6B00098F80410012303FA02F2114388F80410F9
:10A6C000013088F80300C2B2072A8FD10A068DD064
:10A6D0008DF808105D46D9F82C0000F00300022820
:10A6E0004AF2E730C0F2020008BF054609F118003F
:10A6F00002A90122A8470028F8D071E779305D4609
:10A7000040F0800007F81F0CD9F82C0000F003007F
:10A7100002284AF2E730C0F2020008BF054609F1FC
:10A720001800A7F11F010122A8470028F7D057E71A
:10A7300003B0BDE8000FF0BD42F254120121C0F297
:10A74000030205F08BFCF0B503AF4DF804BD86B0F5
:10A7500001F0D9FB40F27901C2F202010A7842BB52
:10A7600001220A708B784870FBB940F20005002086
:10A770008A70C2F202058DF800004AF26746E86A64
:10A780004AF2E731C0F202066C4600F00300C0F264
:10A790000201022808BF0E4605F1180021460122D9
:10A7A000B0470028F8D0012816D106B05DF804BBE8
:10A7B000F0BD01210020019142F28411C0F2030199
:10A7C0000490009142F2E811039004200290C0F23C
:10A7D0000301684604F034FD42F254120121C0F234
:10A7E000030205F03BFCFFF76CBEFFF7DFBEB0B520
:10A7F00002AF84B00178132955D840F28002742347
:10A80000C2F2020211FB032595F86910002952D00B
:10A81000013985F86910090601D004B0B0BD0446BD
:10A820002878012825D140F20E00C0F2000027F858
:10A83000160CA7F1160004F006FC40F20500C0F269
:10A84000000027F80E0CA7F10E0004F0BBFB204619
:10A8500004F03BFCFFF7C7FF95F866000028DCD149
:10A860006888132176DF88BB012085F8660004B074
:10A87000B0BD40F20F00C0F2000027F8120CA7F1A3
:10A88000120004F0E0FB40F20500C0F20000ADF859
:10A890000C0003A804F096FB204604F016FCFFF71A
:10A8A000A2FF04B0B0BD42F268220846C0F2030223
:10A8B000142104F001FD40F25500C0F20000ADF893
:10A8C0000000684604F0D1FB04F0FBFB082810D11F
:10A8D00040F25600C0F20000ADF8040001A804F0F8
:10A8E000B2FBA7F1090003F015F8FFF77CFF04F0B5
:10A8F000E8FB40F25100C0F20000ADF8080002A8E9
:10A9000004F0B3FB04F0DDFB007814283FBF742192
:10A9100000FB01F240F28003C2F202033FBF10FBD2
:10A9200001309A5C418802F0010038BF704780B561
:10A930006F4642F268221421C0F2030204F0BCFC0C
:10A9400080B56F4682B083B2142B26D240F69012A7
:10A95000C2F2020212F81300012811D102EB4301E6
:10A960004978132921D840F280027423C2F20202EE
:10A9700011FB032212F8693FFF2B03D00133137040
:10A9800002B080BD40F25700C0F2000027F8020C70
:10A99000B81E04F06AFB04F094FB42F278221846D9
:10A9A000C0F20302142104F087FC42F26822084638
:10A9B000C0F20302142104F07FFCF0B503AF2DE9CF
:10A9C000000B82B040F280058146C2F202051646B5
:10A9D00095F869008846002804BF2878002800F010
:10A9E000918095F8DD0028B9284610F8741F0129D8
:10A9F00040F0858095F8510128B9284610F8E81FE5
:10AA0000012940F0818095F8C50118B995F85C01DD
:10AA100001287CD195F8390218B995F8D0010128A0
:10AA200079D195F8AD0218B995F84402012876D18C
:10AA300095F8210318B995F8B802012873D195F853
:10AA4000950318B995F82C03012870D195F80904DD
:10AA500018B995F8A00301286DD195F87D0418B9AF
:10AA600095F8140401286AD195F8F10418B995F8FD
:10AA70008804012867D195F8650518B995F8FC0494
:10AA8000012864D195F8D90518B995F87005012801
:10AA900061D195F84D0618B995F8E40501285ED105
:10AAA00095F8C10618B995F8580601285BD195F8B4
:10AAB000350718B995F8CC06012858D195F8A9079B
:10AAC00018B995F84007012855D195F81D0818B90F
:10AAD00095F8B407012852D195F8910818B995F85E
:10AAE000280801284FD195F8050918B995F89C0850
:10AAF00001284CD1012002B0BDE8000BF0BD0124BB
:10AB0000054647E0002445E00224054642E005F5FD
:10AB1000AE7503243EE005F5E87504243AE005F53A
:10AB20001175052436E005F52E75062432E005F58D
:10AB30004B7507242EE005F5687508242AE005F218
:10AB40001445092426E005F591650A2422E005F262
:10AB5000FC450B241EE005F5AE650C241AE005F259
:10AB6000E4550D2416E005F5CB650E2412E005F240
:10AB7000CC650F240EE005F5E86510240AE005F227
:10AB8000B475112406E005F62805122402E005F646
:10AB90009C051324596801221868A5F80290C5E99C
:10ABA000010105F10C0058212A7007F81F4C06F02E
:10ABB00012F940F201123068A5F86820002285F8E9
:10ABC00066201722A5F864201B22C5F86A001FFA28
:10ABD00089F0D6F80310142885F8678085F871206D
:10ABE000C5F86D102CD240F69011C2F2020111F896
:10ABF0001020012A2BD001EB40000121447001708C
:10AC000040F21000C0F20000ADF8040001A804F00A
:10AC10001AFA40F20500C0F2000027F81A0CA7F15A
:10AC20001A0004F0CFF9A7F11F0004F04EFAFFF765
:10AC3000DAFD17F81F1C002002B0BDE8000BF0BDC4
:10AC400042F278221421C0F2030204F035FB40F2F4
:10AC50005800C0F2000027F81E0CA7F11E0004F0F7
:10AC600004FA04F02EFAD0B502AFFFF7A6FEC20731
:10AC70000DD1CBB2142B0BD240F280027424C2F25D
:10AC80000202D7E902EC13FB0422C2E903ECD0BDB7
:10AC900042F268221846C0F20302142104F00CFBB1
:10ACA000007814283FBF40F28001C2F202017422F2
:10ACB00010FB02103CBFD0E90301704780B56F461E
:10ACC00042F268221421C0F2030204F0F5FAF0B552
:10ACD00003AF2DE9000B84B004460878142880F0F7
:10ACE0009E807421134600FB01F640F28002C2F2FE
:10ACF0000202965DF60778D010FB01200021E8469D
:10AD0000ADF80410009142461946408890DF0028B3
:10AD100071D000F0B5FF0546029040F23600C0F257
:10AD2000000027F81A0CA7F11A0004F08CF940F281
:10AD30008800C0F2000027F81A0CA7F11A0004F0EE
:10AD400041F902A800F024FEFFF74DFDBDF8021006
:10AD500040F20609BDF80000C0F2000989B20843BC
:10AD60001FD040F2370008F10206C0F2000027F8B9
:10AD70001A0CA7F11A0004F066F9A7F11A0027F8D7
:10AD80001A9C04F01FF9684604F01CF9A7F11A0098
:10AD900027F81A9C04F016F9304604F013F9FFF76F
:10ADA00022FDBDF80400B0B140F2380008F10406FD
:10ADB000C0F2000027F81A0CA7F11A0004F043F9BA
:10ADC000A7F11A0027F81A9C04F0FCF8304604F0AA
:10ADD000F9F8FFF708FD132D13D0062D17D1DDF874
:10ADE00002500120BDF8001012E00020208004B0C5
:10ADF000BDE8000BF0BD0420208004B0BDE8000BCE
:10AE0000F0BDDDF802500220BDF8001000E0032084
:10AE100065606180208004B0BDE8000BF0BD42F2A7
:10AE200068221421C0F2030204F046FAD0B502AF42
:10AE300084B002460078132852D840F2800174236F
:10AE4000C2F2020110FB031090F8671000294ED1E6
:10AE50000178C90709D0C168448851B10069036C01
:10AE600002A898479DF80C000DE00020214604B090
:10AE7000D0BD102100208DF80A104FF4E661ADF826
:10AE80000B00ADF8081002998DF80C0020460291D5
:10AE900002A97EDF00B300F0F3FE0446019040F209
:10AEA0003900C0F2000027F80A0CA7F10A0004F0EC
:10AEB000CAF840F28800C0F2000027F80A0CA7F197
:10AEC0000A0004F07FF801A800F062FDFFF78BFC98
:10AED0000120214604B0D0BD0220214604B0D0BDDF
:10AEE00042F268221421C0F2030204F0E5F940F2B4
:10AEF0005900C0F2000027F80A0CA7F10A0004F07C
:10AF0000B4F804F0DEF8F0B503AF2DE9000796B011
:10AF100002460078132800F27F80742140F28003FB
:10AF200000FB01F5C2F202035D5DED075CD010FB92
:10AF30000130C16800295DD0B0F802800DF13809F8
:10AF40000069436B48469847BDF83800002857D041
:10AF500009F10C0309ACDDE90FCABDF83AE0264659
:10AF600027CB27C61888308068466CCC01466CC158
:10AF700022880A804A46CDF816C0ADF814E0CDF814
:10AF80001AA0DDF814C0069978C878C2007810704D
:10AF90004FEA1A40ADF82C004A46CDE909C109A98B
:10AFA000404685DF90B300F06BFE0446089040F207
:10AFB0003A00C0F20000ADF80000684604F043F823
:10AFC00040F28800C0F20000ADF80000684603F0CF
:10AFD000F9FF08A800F0DCFCFFF705FC0320214680
:10AFE00016B0BDE80007F0BD0020214616B0BDE850
:10AFF0000007F0BD0120214616B0BDE80007F0BDF6
:10B000000220214616B0BDE80007F0BD042021460D
:10B0100016B0BDE80007F0BD42F268221421C0F26C
:10B02000030204F049F9F0B503AF2DE9000B8AB033
:10B0300080B2142880F0C08040F69012C2F2020262
:10B0400012F81030002B00F0BE8002EB4000407878
:10B05000132800F2AA80742640F2800300FB06F554
:10B06000C2F202035D5DED0700F0B88010FB06360A
:10B070007588142D80F0BD8012F81500002800F0AE
:10B08000C08002EB4504D1F80090F168607807F8C1
:10B090003D0CC9B1132800F28880742210FB0232E3
:10B0A00012F8693FFF2B75D0D6F810C0013313702A
:10B0B0000DF110088DF810000846DCF838204146E4
:10B0C00090474046FFF793FB002001AA2070B9F893
:10B0D0000010029241F2AC72C0F2030211290191F8
:10B0E000049240F0998099F808103070717002F065
:10B0F00098FCB0B305EB450040F6DC11C2F202014A
:10B1000001EB8004206800283ED14FF0FF3022463A
:10B11000206052F8040F30B1A1680B694946984786
:10B120002068013000E00020206040F20D00C0F2F5
:10B130000000ADF8100004A803F085FF40F2050000
:10B14000C0F20000ADF8100004A803F03BFFA7F127
:10B150003D0003F0BAFFFFF746FB0AB0BDE8000B65
:10B16000F0BD01210020059142F28431C0F20301BB
:10B17000089007900420049142F2FC31069004A844
:10B18000C0F2030104F05CF842F27840C0F2030020
:10B1900003F0C0FF40F25700C0F20000ADF810000D
:10B1A00004A803F062FF03F08CFF42F2682214212E
:10B1B000C0F2030204F080F842F278221421C0F2B7
:10B1C000030204F079F840F25A00C0F20000ADF832
:10B1D000100004A803F049FF03F073FF40F252008F
:10B1E000C0F20000ADF8100004A803F03EFF03F029
:10B1F00068FF42F278222846C0F20302142104F0CC
:10B200005BF840F25300C0F20000ADF8100004A853
:10B2100003F02BFF03F055FF40F25400C0F2000092
:10B2200027F8320CA7F1320003F00DFF02A802F05C
:10B230005EFB04A802F05BFBFFF7D5FA03F041FFC9
:10B24000D0B502AF82B080B2142863D240F6901E0F
:10B25000C2F2020E1EF81030002B62D00EEB40003E
:10B260004078132869D840F2800C7423C2F2020C93
:10B2700010FB03C4E06898B3138809782269022997
:10B2800015D001292CD1142B5ED21EF813100129E0
:10B2900026D10EEB4301497813295DD8742311FBA5
:10B2A00003C313F8694FFF2C1DD0126A12E0142B50
:10B2B0004AD21EF81310012912D10EEB430149782E
:10B2C000132949D8742311FB03C313F8694FFF2CCA
:10B2D00014D0526A01341C709047012002B0D0BDD6
:10B2E000002002B0D0BD40F25700C0F20000ADF81F
:10B2F000040001A803F0B9FE03F0E3FE40F257009A
:10B30000C0F2000027F80A0CA7F10A0003F0ADFE16
:10B3100003F0D7FE42F278221421C0F2030203F0B8
:10B32000CBFF40F25A00C0F2000027F80E0CA7F144
:10B330000E0003F09AFE03F0C4FE42F268221421CC
:10B34000C0F2030203F0B8FF42F278221846C0F2BE
:10B350000302142103F0B0FF42F268220846C0F253
:10B360000302142103F0A8FFF0B503AF4DF8048DDC
:10B370008AB0C0B213284FD840F280037426C2F2BC
:10B38000020310FB0635EC68002C41D04879D5F853
:10B390001080800714D440F22D001646C0F2000041
:10B3A000ADF8040001A803F060FE00233246D5F892
:10B3B0006A00D5F86D10CDE90133CDE903330AE019
:10B3C000E86DD5F85F10D5E913CED5E91536CDE98E
:10B3D0000336CDE901CE0590A7F11A0C95F8670068
:10B3E000CDF817103021002818BF14216B18D8F899
:10B3F0002C50D3E9050147F8180C01A85E8A47F8DC
:10B40000141C114600902046624627F81A6CA84783
:10B410000AB05DF8048BF0BD42F268221421C0F23C
:10B42000030203F049FFD0B502AF40F6CC24C2F2CC
:10B430000204204602F033FB04F10800BDE8D040CE
:10B4400002F02DBBF0B503AF4DF804BD40F6E82681
:10B45000C2F202063578BFF35F8FFDB94EF280125B
:10B46000EFF31080012172B6317040F6EC21CEF27C
:10B470000002C2F2020113680B6040F6F021C2F232
:10B48000020153680B6040F2FC61CFF6FF51C00728
:10B4900011604FF0FF31516000D162B640F6B81232
:10B4A000C2F2020240F202341378D2E90110012BF9
:10B4B000148004BF4968884715B15DF804BBF0BD2E
:10B4C000EFF31080002140F2FC6272B6317040F65A
:10B4D000EC21CFF6FF52C2F20201C007096801EA6F
:10B4E00002014EF28012CEF2000242F8801C40F6B9
:10B4F000F021C2F20201096842F87C1CDDD162B67B
:10B500005DF804BBF0BDF0B503AF4DF804BD40F6E7
:10B51000E826C2F202063578BFF35F8FFDB94EF21E
:10B520008012EFF31080012172B6317040F6EC21E9
:10B53000CEF20002C2F2020113680B6040F6F02165
:10B54000C2F2020153680B6040F2FC61CFF6FF517A
:10B55000C00711604FF0FF31516000D162B640F674
:10B56000B812C2F2020202241378D2E90110012BB0
:10B57000148004BF4968884715B15DF804BBF0BD6D
:10B58000EFF31080002140F2FC6272B6317040F699
:10B59000EC21CFF6FF52C2F20201C007096801EAAE
:10B5A00002014EF28012CEF2000242F8801C40F6F8
:10B5B000F021C2F20201096842F87C1CDDD162B6BA
:10B5C0005DF804BBF0BD30B180B56F4600F058FBAC
:10B5D0000146012080BD0020704742F23831C0B2E0
:10B5E000C0F20301085C7047B0B502AF427842F286
:10B5F0003D3390F800C042F2443590F802E0C0F2CA
:10B600000303C178C0F203050079002A5C5C1B5C6F
:10B61000285C695C40EA030041EA040141EA002039
:10B620004FF00A0108BF0221614441EA0E1140EACD
:10B630000140B0BDD0B502AF86B090F800C0BCF1FB
:10B64000140F2AD24FF0740E40F280040CFB0EF05F
:10B65000C2F20204205CC0074FF000001BD01CFBAC
:10B660000E44ADF80C0001200592A7F11A02ADF8C6
:10B67000081027F81A3C02A90492B4F802C08DF809
:10B680000A006046AEDF28B100F0FAFA0146012058
:10B6900006B0D0BD022006B0D0BD42F2682260469E
:10B6A000C0F20302142103F007FE80B56F4682B09A
:10B6B0000078142826D24FF0740C40F2800E00FB64
:10B6C0000CF3C2F2020E1EF80330DB074FF000034A
:10B6D00011D0002908BF0A46B3EB124F19D110FB55
:10B6E0000CE04088B1DF48B100F0CAFA01460123FE
:10B6F000184602B080BD184602B080BD022318462D
:10B7000002B080BD42F268221421C0F2030203F0AD
:10B71000D3FD40F26A00C0F20000ADF8040001A8B9
:10B7200003F091FC781E02F063F9FFF75CF803F078
:10B73000C8FC80B213289FBF00EB400040F6DC112C
:10B74000C2F2020101EB800098BF704780B56F46DE
:10B7500042F2F8221421C0F2030203F0ADFDB0B5AD
:10B7600002AF88B005460088019040F21900C0F28F
:10B77000000027F80A0CA7F10A0003F064FC40F26D
:10B780000700C0F2000027F80A0CA7F10A0003F036
:10B7900019FC01A803F0EEFBFFF725F82888411EED
:10B7A0000F2908D202286AD001280BD140F21200DA
:10B7B000C0F2000067E0A0F11001202904D2284661
:10B7C00001F0B8F808B0B0BDA0F150012029F9D2BD
:10B7D000AC8855285ED140F6EA20E988C2F2020022
:10B7E000ADF800100088814238BF0846172898BF7E
:10B7F000172027F8260C40F21800C0F20000ADF820
:10B80000040001A803F01FFC40F2060501A8C0F2E5
:10B810000005ADF8045003F0D5FB684603F0D2FBF9
:10B8200001A8ADF8045003F0CDFBA7F1260003F00A
:10B83000C9FBFEF7D8FF37F8261C2046B5DF0028E5
:10B8400049D000F01DFA019040F23F00C0F2000024
:10B8500027F80A0CA7F10A0003F0F5FB40F2880074
:10B86000C0F2000027F80A0CA7F10A0003F0AAFBB7
:10B8700001A800F08DF8FEF7B6FF08B0B0BD40F2A9
:10B880001300C0F20000ADF8040001A803F0EDFBC6
:10B8900008B0B0BD142C5FD202F0C3F8002842D02B
:10B8A00004EB440040F6DC11C2F2020101EB80041B
:10B8B000206800284AD14FF0FF302246206052F81D
:10B8C000040F60B3A1680B692946984720680130CE
:10B8D000206008B0B0BD142C46D240F69010C2F2E1
:10B8E000020010F81410002946D000EB4400407804
:10B8F00014283FBF40F28001C2F20201742210FB03
:10B9000002103FBF37F8261CA0F8641008B0B0BD85
:10B9100042F268221421C0F2030203F0CDFC0020A1
:10B92000206008B0B0BD01210020029142F28431B4
:10B93000C0F20301059004900420019142F2FC3111
:10B94000039001A8C0F2030103F07AFC42F27840B0
:10B95000C0F2030003F0DEFB42F2F822C0F2030261
:10B960002046142103F0A8FC42F27822C0F2030220
:10B970002046142103F0A0FC40F25A00C0F200005F
:10B98000ADF8040001A803F070FB03F09AFBD4D4D7
:10B990000168B1F5005F19DBB1F5405F3BDDB1F542
:10B9A000485F4CDBB1F54C5F80F26980A1F54850EF
:10B9B000DFE810F006001101D500ED00A5004101FF
:10B9C00042F22F30C0F2030003F07FBBB1F5805F7D
:10B9D00046DA013142F28820C0F20300DFE811F0BC
:10B9E0001500BD008300A7006B00E3000701B30052
:10B9F000250177001F0165007100F5005F00A100BF
:10BA00005900D1000D014901DD0042F20830C0F2B9
:10BA1000030003F05ABBA1F50050DFE810F00A0064
:10BA2000F400A600CA00760012011E01E200240103
:10BA30008E0042F21F30C0F2030003F046BB43F217
:10BA40000100081ADFE810F00600E5009700BB00CF
:10BA50006700030142F22930C0F2030003F035BB56
:10BA60003BD041F20100814219BF42F21E30C0F2C8
:10BA7000030042F21D30C0F2030003F026BB38D0B1
:10BA8000B1F5505F65D142F23630C0F2030003F0E9
:10BA90001CBB42F21730C0F2030003F016BB42F2A7
:10BAA0001530C0F2030003F010BB42F21230C0F2B6
:10BAB000030003F00ABB42F20B30C0F2030003F0B4
:10BAC00004BB42F21330C0F2030003F0FEBA42F2AC
:10BAD0001030C0F2030003F0F8BA42F21C30C0F29A
