:020000022000DC
:106000000000042001610200F5B8020031DA02004C
:10601000F5B80200F5B80200F5B802000000000073
:10602000000000000000000000000000F5B80200C1
:10603000F5B8020000000000F5B80200F5B8020053
:10604000098E0200F5B80200F5B80200F5B80200AA
:10605000F5B80200F5B80200CBB60200F5B80200B0
:10606000F5B80200F5B80200F5B80200F5B8020074
:10607000F5B80200F5B80200F5B80200F5B8020064
:10608000F5B8020089B00200F5B80200F5B80200C8
:10609000F5B80200F5B8020047A50200F5B8020005
:1060A000F5B80200F5B80200F5B80200F5B8020034
:1060B000F5B80200F5B80200000000000000000082
:1060C000F5B80200F5B80200F5B80200F5B8020014
:1060D000F5B80200F5B80200F5B80200058E02001E
:1060E000F5B80200F5B80200F5B8020000000000A3
:1060F00000000000F5B8020000000000F5B8020042
:1061000005F0F9FB0E480F490022814201D004C07E
:10611000FBE70D480D490E4A814202D008CA08C06B
:10612000FAE70C484FF47001026842EA010202608B
:10613000BFF34F8FBFF36F8F02F0CBFE00DE000086
:10614000980402202C8702200000022098040220DC
:1061500028EF020088ED00E0F0B503AF2DE9000F55
:1061600085B08246407A8946DFE810F00500DA0102
:10617000F2019D007100DAF804009AF80840CAF8AC
:10618000000006F0CFF9DFE814F005003B01BD0088
:10619000E400AA0040F21D00C0F2000027F82A0C1B
:1061A000A7F12A0006F0BAFA06F00CFADAF80000B5
:1061B000022180F887100021DAF8000080F88910A9
:1061C000DAF8000080F88A10DAF8000080F886100B
:1061D000DAF80000C16B81B100EBC10100F11405D8
:1061E00001F11C0455F8080F69680969884705F131
:1061F0000800A042F6D1DAF8000081694FF0000BE8
:1062000000294ED000EB410100F1100901F1100806
:10621000002603E00136C14500F07E8109F802BB8B
:10622000DAF80000C16B0029F4D000EBC10100F1E5
:10623000140501F11C0455F8080F002269684B6A27
:106240003146984705F10800A042F4D1E2E79AF8F8
:106250001000002840F06A8147F200004FF0000B68
:10626000C4F202000126C0F800B5DAF800008AF88E
:10627000106080F887B0DAF80000C16B002900F0E8
:10628000448100EBC10100F1140501F11C0455F833
:10629000080F6968CA680021904705F10800A0420C
:1062A000F5D1012631E1D04618F8180FDFE810F0DB
:1062B00005004401500114000800DAF80C005CE00D
:1062C000554615F8240F002800F0C180032840F03F
:1062D0003981DAF82060BEE0DAF81C4064E040F270
:1062E0002100C0F2000027F8220CA7F1220006F0DE
:1062F00015FA06F067F9DAF8000000218830CAE9DB
:106300000301A9E740F21E00C0F20000ADF808004A
:1063100002A806F003FA06F055F9DAF800004FF08B
:10632000000B80F889B0DAF80000C16B0029B8D002
:1063300000EBC10100F1140501F11C0455F8080F30
:106340006968CA690021904705F10800A042F5D1AB
:10635000A7E740F22000C0F20000ADF80C0003A84F
:1063600006F0DCF906F02EF9DAF800000021D0463C
:10637000883008F8181FCAF80C0047F20001C4F270
:106380000201CAE9040104F036FDDAF81400012123
:10639000C0F800154FF48001DAF81400C0F80413B7
:1063A000DAF81440CAF81C4040F2C0404946C2F234
:1063B000020005F003FBD4F80004000501D403201B
:1063C0005EE0DAF814004FF40061C0F8001404F045
:1063D00026FD4EF204108021CEF2000055460160E9
:1063E0000121DAF81400C0F24011C0F804130020B3
:1063F00005F8240F55F8140C461C45F8086C28E0E5
:1064000040F21F00C0F2000027F8260CA7F126007A
:1064100006F084F906F0D6F8DAF80000012680F8D4
:106420008960DAF80000C16B00296CD000EBC10173
:1064300000F1140501F11C0455F8080F6968CA69D8
:106440000121904705F10800A042F5D15BE0DAF8A0
:106450001C60CAF8206040F218704946C2F202007F
:1064600005F0ACFA40F23840C4F200000068800742
:106470000CD4304605F036FAC8B103202870042049
:1064800088F800004FF0010B03263EE0DAF8140014
:1064900001218AF82410C0F8041506F043F840F2F0
:1064A0004000C0F20000ADF8100004A80BE001208D
:1064B000287006F037F840F24100C0F2000027F8DB
:1064C0001E0CA7F11E0006F029F906F07BF8DAF899
:1064D0000000012602218AF8186080F88710DAF897
:1064E0000000C16B79B100EBC10100F1140501F1AD
:1064F0001C0455F8080F6968CA680121904705F126
:106500000800A042F5D14FF0000B8AF80960584608
:1065100005B0BDE8000FF0BD4FF0000B0126F4E719
:106520004DF6BC30C0F2020007F052F84DF66C6038
:10653000C0F2020007F04CF84DF65C60C0F20200B9
:1065400007F046F84DF63C30C0F2020007F040F884
:10655000FEDEF0B503AF4DF804BD82B0044690F8FE
:10656000380098B1032840F0A88094F83400C0B1F6
:10657000032840F0A880254615F8300F002874D075
:10658000032840F0A680E66A306822E094E80D0017
:10659000002604F10C0C043084F834608CE80D0003
:1065A00002E004F10C030DCBC4E90623827812F05B
:1065B0007F02226272D00022254605F8302F45F86E
:1065C0000C0C8078264610F07F0046F8280F55D036
:1065D000E662013808284AD240F2D042C2F20202F2
:1065E00002EBC00005F0EAF940F2505047F21053B8
:1065F000C2F20200C4F202030168BFF35F8F326887
:106600001E68012302F01F02934013EA060204D021
:10661000194002D1032603201EE0DAB1A16A01224B
:10662000BFF35F8F01F01F0102FA01F1C94350E887
:10663000002F0A4040E80023002BF8D1BFF35F8F02
:106640000126D4E90612206A84F8306001F0BCFF0C
:10665000022002E0012601202E7084F8386084F8C0
:10666000346002B05DF804BBF0BD606AA9E74EF289
:1066700028520821C0F2020206F042F905F052FF4A
:1066800040F24900C0F2000027F8120CA7F11200F6
:1066900006F044F805F096FF06F057F805F042FFC3
:1066A00040F24C00C0F20000ADF8040001A806F072
:1066B00035F805F087FF06F048F84DF6C440C0F203
:1066C000020006F085FF4DF6B020C0F2020006F091
:1066D0007FFF4DF64C30C0F2020006F079FF80B526
:1066E0006F4686B00121002001914DF62C51C0F279
:1066F0000201049000914DF6945103900420029001
:10670000C0F20201684606F0CEF8D4D4F0B503AF6B
:106710002DE9000F9DB00446007A069105280490EB
:1067200000F0CC84049847F2301AC4F2020A90B107
:10673000032813D1214611F8140F0391083902914F
:10674000DFE810F00600A5006505DB00120222005C
:1067500002980068C1E020686060B6E0254615F840
:10676000140FDFE810F054048E0054050500920465
:1067700094F82000B0B1032800F06A844DF64C6014
:10678000C0F2020006F024FFA14619F8360FDFE838
:1067900010F0050084003E0522000D00D4E906B18A
:1067A000206AD3E0A069E06100F052BCA04618F86E
:1067B000680FA8F13006DFE810F04C007C002A05D5
:1067C00008003E0033004F00080094F870000028D5
:1067D00000F0078311E0A04618F84A0FDFE810F038
:1067E00005006300170513000800D4F838B0F8E07E
:1067F00094F85000002800F0C7814DF69C60C0F26C
:10680000020006F0E5FE264616F8810F78B303284D
:1068100000F0B1834DF6AC60C0F2020006F0D8FE85
:1068200094F8790040B3032849D194F87000002807
:1068300000F0F78215E02546059615F89C0FE8B1A3
:10684000032800F035824DF6BC60C0F2020006F06D
:10685000BFFED4F850B021E194F87000002800F099
:10686000EF824DF68C60C0F2020006F0B1FED4E972
:106870001D1294F883006AE3606FCFE2D4E924E24A
:1068800008E24DF6CC30C0F2020006F0A1FE4DF653
:106890001C40C0F2020006F09BFE4DF6DC30C0F258
:1068A000020006F095FE4DF60C40C0F2020006F024
:1068B0008FFE4DF63C40C0F2020006F089FE4DF618
:1068C0007C60C0F2020006F083FE2246002142F8FE
:1068D0000C0F029202F8081F0392206190F89110A9
:1068E000002940F08583002100F19802903084F85F
:1068F0002C10626284F82010A061069A04F118013D
:1069000007A801F0E2FD9DF81C00022800F0598163
:106910009DF81D10C007D4F810B000F01D819DF83F
:106920002400A146BDF82230DDF81E2043EA0040D5
:10693000002309F8363F000241EA022140EA1260D2
:1069400049F81EBC49F81A1C49F8160C0A0C2546D1
:1069500025F82C2FCAB2D2096A72C1F341122A72E9
:1069600001F01F0245E90210090A042A28BF042287
:10697000A971010CEA71A980688005F0D3FD40F28D
:106980001700C0F20000ADF81C0007A805F0C6FE15
:1069900040F231000DF11C08C0F20000ADF81C00FF
:1069A000404605F07AFE284603F050FD05F00AFE49
:1069B000687A002856D007980026A0460DF1540C9E
:1069C00008F84A6FD5E900122B898CE80700A8F176
:1069D0000E0CADF8603048F812BC8CE8070028F8BF
:1069E000023CC4F83CB0BBF89850D4E91001B4F8AC
:1069F00048208EB2B542CDE91201ADF8502014D234
:106A0000112D12D89BF88E0078B905F08BFD40F25D
:106A10001800C0F20000ADF81C0007A805F07EFECB
:106A200005F0D0FDD4F83CB02E46DBE900230BF195
:106A3000080012A902F05CFA002800F0A080B14220
:106A4000334638BF0B468E4240F2A480002D00F042
:106A5000CD8099B2B1FBF5F202FB1511B1FA81F1CB
:106A6000490999E028890DF1540C29686A68CDF824
:106A700026106146ADF82E00CDF82A2098E86D006A
:106A8000A0466DC104F15400C4F850B09CE86E00FB
:106A90006EC0002008F8680FA8F13006D4F8621024
:106AA00025464FF0000A88B245F8440F6A8CD5F8A5
:106AB0001A3045F804BC69612B612A83BBF8981031
:106AC000C5E9011ADBF8042082422AD2079205F0B8
:106AD00029FD40F21A00C0F20000ADF8480012A8EB
:106AE00005F01CFE40F2050612A8C0F20006ADF843
:106AF000486005F0D2FD284605F0B7FD12A8ADF8B4
:106B0000486005F0CAFD07A805F0AFFD05F05AFD85
:106B1000206C9830C4E91B0A47F2301AC4F2020A0A
:106B20005FE1002905964ED0DBF8003047F2301ABD
:106B30000122C4E91E3084F88420002000220023B2
:106B4000C4F2020AC4F880100026002BE66665D065
:106B5000BEF1000F76D1F8E0002084F8201084F810
:106B600021000BF10800E0610698016804F11800AB
:106B7000FFF7F2FA002800F03582042064E2E06BAF
:106B800000219830C4E9130101204AF8DC0C84F894
:106B9000500022E200217DB301260022C4E91361E6
:106BA000C4E91520002084F87060C4E9173500237B
:106BB0000028636600F08881002900F00E82A06D35
:106BC00092E1032040E20121002008914DF644614A
:106BD000C0F202010B900A90042007914DF62C415F
:106BE000099007A8C0F2020105F05DFE4DF6EC30F9
:106BF000C0F2020006F0D9FC01200B9108904DF67E
:106C00004460C0F202000A91079004204DF6FC3166
:106C1000099007A8C0F2020105F045FEE36F002BC2
:106C200000F09380D4F88020D4F878E0934238BF05
:106C30001A469B1A0EEB0206C4E91E63BEF1000F52
:106C400000F08380E56F4FF0000C94F8840000267C
:106C500084F884C04DB1D4F88030A66F9D4238BF0F
:106C60002B46ED1AF118C4E91E152546012105F839
:106C70009CCF6870B6FA86F045E90C1655F85C1C96
:106C80004009A87001F1980045F8283C45E903E265
:106C900045F8040C0020C4E922E24AF8080C01205F
:106CA0004AF8E40C40F20140C0F28000CAF8D40176
:106CB0000698016840F2C840C2F2020004F07EFE6D
:106CC0005AF8080C002800F09280D4E9220100262E
:106CD000DAF870B38B4500F2CA8047F21451C4F25F
:106CE0000201C1F8EC01C1F8F0B104F057F84FF619
:106CF000F8610120CFF6FF71CAF800604AF8010080
:106D0000DAF80000C0070CD1DAF80000C00704BFB1
:106D1000DAF800005FEAC07003D1DAF80000C007BB
:106D2000EED00025CAF8005004F039F8CAF87053C4
:106D30000122D4E91210584484F89C205945E0649B
:106D400003D8616C884240F0AC80226C5168884264
:106D500000F2B4801168C4E90E1005F0E3FB40F2C4
:106D60001C00C0F20000ADF81C0007A805F0D6FC1E
:106D700040F20700C0F20000ADF81C0007A805F0C3
:106D80008CFC0598A56B4068079007A805F06DFC82
:106D900040F20300C0F20000ADF8480012A805F070
:106DA0007CFC079E36B1284605F0D3FC013E05F178
:106DB0000105F8D105F006FC206CB4F85C10D4E9AC
:106DC0000E230830ADF8241007A9D4E91565CDE9E4
:106DD000076502F0B5FA216C98B100209831C4E93A
:106DE0001B1001204AF8DC0C84F87000F5E05AF81A
:106DF000300C58B305F096FB40F24D00C0F2000095
:106E00002DE091F8942001F19800B2B191F88E1024
:106E1000002284F8792084F8781060670021C4E9A2
:106E20001B0101204AF8E00C216C84F8790084F8F9
:106E30007000002081F89400CFE00021C4E91B011C
:106E400001204AF8E00C84F87000C6E0DAF82C0063
:106E500080B305F067FB40F24E00C0F20000ADF8D1
:106E60001C0007A805F05AFC05F0ACFB0126012028
:106E700028708DF8486005F055FB40F21B00C0F209
:106E80000000ADF81C0007A805F048FC40F25500D2
:106E9000C0F20000ADF81C0007A805F0FEFB12A828
:106EA00097E0D4E91B3E626F0026002BE6667FF474
:106EB0004FAEB3E6032028700420C0E04DF64C42EC
:106EC000C0F2020206F0CEF8A16D002900F0AB80FE
:106ED000E06D002800F0A580226E904238BF024687
:106EE000831A8818C4E9160394F870C0002684F841
:106EF000706060B1E66D46B1256EAE4238BF354672
:106F0000761B4319C4E9163609E00020A065E66C3B
:106F10000020002E1EBFD4E914352065184600233A
:106F2000264606F8813F012346F8190CB0FA80F096
:106F300046F81D3C56F8453C400986F801C0A6F1CC
:106F40000D0C983346F8155CB0708CE80E0084F890
:106F5000800000204AF8080C94F880008000C0B23D
:106F6000CAF8D000002001F02FFB40F20140C0F22F
:106F70008000CAF8D4010699304602F033FDC0B251
:106F80000328014618BF0121317057D0022808D1CB
:106F900004F1640207CA0023002863667FF40CAE84
:106FA00092E707F83D0C05F0BDFA40F21900C0F277
:106FB0000000ADF81C0007A805F0B0FB40F255003A
:106FC000C0F20000ADF81C0007A805F066FBA7F1B1
:106FD0003D0004F091FC05F0F5FA012088F800006E
:106FE00089F80000206990F8911000293FF47BACEB
:106FF0000120254605F8140F00212B2255F8100C0E
:10700000297007A945F8080C681C06F075FBE068B4
:10701000206190F89110002943D10120207560680B
:1070200053E40020A065E06C0028D6D0D4E9141207
:107030000020206500297FF4C2ADCEE7032088F848
:10704000000089F80000052003990870032034E04F
:10705000069904F11C0002F0E7FBC0B201210528EB
:1070600008BF0321052884F8201021D0002184F8CE
:10707000200084F821101E22216901F10800E0613E
:1070800004F1220015A906F037FB0698016804F107
:107090001800FFF761F868B9206990F8911000298D
:1070A000BBD09030002184F82010C4E90600CFE75F
:1070B000032000E0042028700420207294F8BC0112
:1070C00000F00601042907D10498052800F0C182C8
:1070D0001DB0BDE8000FF0BD47F2301AC4F2020A3D
:1070E000A0B1032840F08780A14619F8F80F0628C0
:1070F00055D8A9F14C01DFE810F007008A008A009A
:10710000590055016A0181010D6811E0D4F8A450BD
:10711000A14649F8AC5F002259F80C0C59F8041C40
:1071200089F8D020C9F88C10C9F8040009F84C2F50
:1071300004F1B400402106F085FB0020C4F8FC50A7
:1071400084F80C0104F58678002084F80801281DD5
:10715000C4F8000104F58475807810F07F0657D0DC
:10716000C4F80461701E082834D2069940F2D04257
:10717000C2F2020202EBC000096804F01FFCDAF858
:10718000E003012101FA06F2104008BF03210028A4
:1071900088F80010297040F0FC80032047E00022AE
:1071A00094F87C31042B18464AD91FE294F80C015C
:1071B00004F58678A8B1032823D194F8080104F5D2
:1071C000847588B1032840F0D280D4F80461701E21
:1071D0000828CAD34EF228520821C0F2020205F054
:1071E0008FFBD4F8FC50AFE7D4F80001807810F0A2
:1071F0007F06B5D10CE04DF60860C0F2020006F043
:10720000E7F94DF6D440C0F2020006F0E1F9FEDEE7
:1072100005F088F940F24800C0F20000ADF81C000B
:1072200007A805F07BFA05F0CDF905F08EFA0122EA
:1072300089F8000094F87C31042B184600F2D681BE
:1072400004F59E700590CDF80C90CDE901329BB10C
:10725000032B1FD194F8900104F5C878B0B303282C
:1072600079D194F88C0104F5C675002864D0032800
:107270007DD1D4F8886139E00598402106F0E2FA22
:10728000002004F5C87884F89001D4F83801C4F8D7
:1072900080011DE094F8B80104F5DC79002846D09F
:1072A00003285ED194F8B40104F5DA7800284AD0B6
:1072B000032862D194F8B00104F5D875002847D0AE
:1072C000032860D1D4F8AC613068DAE0D4F88001EA
:1072D0000021043084F88C1104F5C675C4F88401CB
:1072E000807810F07F0693D0C4F88861701E08285B
:1072F00080F09B80069940F21052C2F2020202EB2B
:10730000C000096804F05AFB47F214500121C4F28E
:10731000020001FA06F20068104008BF03210028AD
:1073200088F80010297040F04681032058E1D4E924
:107330006002D4F888117FE0D4F88401807810F0DE
:107340007F06D1D164E7D4E96302D4F894117DE0DB
:10735000D4F8A4018AE04DF6F440C0F2020006F031
:1073600037F94DF6E440C0F2020006F031F94DF66F
:10737000CC60C0F2020006F02BF94DF6C020C0F23E
:10738000020006F025F94DF64C30C0F2020006F07E
:107390001FF904F1B4024020D4F8B010C4E93F1240
:1073A000C4F80401069904F1FC0001F0F4FB80BB71
:1073B0004129C4F8F41030D2002004F1B40284F85A
:1073C0003401D4F8AC00C4E93F02C4F804110698B3
:1073D000016804F1FC00FFF7BCF8C0B203281AD022
:1073E00094F8F4004028D4D10020D4F8AC10012245
:1073F00084F83401C4E93F12C4F804010698016816
:1074000004F1FC00FFF7A5F8C0B20328C1D10620A3
:107410000DE704200BE7052009E74DF61862084642
:10742000C0F20202402105F01DFE4EF23852082142
:10743000C0F2020205F064FA0023043084F8B4318B
:1074400004F5DA78C4E96302C4F89411C4E966214A
:10745000817811F07F01C4F8A01100F0FC800021B8
:10746000C4F8A40184F8B01104F5D875807810F040
:107470007F00C4F8A80100F0F58004F5D476C4F8C4
:10748000AC6101380828D0D2069940F21052C2F2FD
:10749000020202EBC000096804F090FA40F250507A
:1074A00047F21453C2F20200C4F202030168BFF3B0
:1074B0005F8F32681B6802F01F02D340DB0773D076
:1074C00082F01002D140C90700F08380D4F8A811DF
:1074D0000122BFF35F8F01F01F0181F0100102FA5A
:1074E00001F1C94350E8002F0A4040E80023002B77
:1074F000F8D1BFF35F8F0121D4F8A051D4F89801DF
:10750000072D84F8B01100F2B4800AF55C7BD4F842
:107510009C215BF82510914248D847F21453C4F2DD
:10752000020303F51E720E9203F519720D9203F514
:1075300014720C9203F50F720B9203F50A720A9201
:1075400003F50572099203F50072089203F5F672CD
:10755000079207AA52F825201060516003F01EFC24
:1075600000204FF6F8624AF825000AEB8500012159
:10757000CFF6FF7281505AF82500C0070CD15AF897
:107580002500C00704BF5AF825005FEAC07003D188
:107590005AF82500C007EED000264AF8256003F00F
:1075A000FEFB4BF8256001E001202870012089F8DE
:1075B000000088F800000020402184F8B80104F59C
:1075C000DC79D4F83801059AC4F88001C4E9612156
:1075D00032E70320287088F8000089F800000420B2
:1075E000DDF80C90DDE9013284F87C010021052BE7
:1075F00038BF0121114306D0032084F8BC011DB01F
:10760000BDE8000FF0BD99F80010072902BF08215E
:1076100089F80010052812D00121002008914DF6AC
:107620002C51C0F202010B900A90042007914DF6F4
:107630009451099007A8C0F2020105F034F9042022
:1076400084F8BC01062084F87C01049805287FF4A6
:107650003FADFFF744F804F065FF40F24B00C0F285
:107660000000DBE504F05EFF40F24900C0F20000DC
:10767000D4E54EF260222846C0F20202082105F04D
:107680003FF9F0B503AF2DE90007C6B004464EF64A
:10769000FC20C0F2020008A9CDE9080400200C90EB
:1076A00094F86405CDE90A1158B194F860050028F2
:1076B00040F0C080D4E985A5B4F81E82B4F81C92CD
:1076C0003BE040F2000A4DF63C71C2F2020AC0F201
:1076D00002015046B4F82280B4F8209002F0C0F9BC
:1076E00004F12405002801BF40F2A440C2F20200C8
:1076F00003210160002628464FF4E071C4E9816649
:10770000C4E9836606F09EF8082084F86065A4F852
:10771000F0014FF4FA50A4F81E82A4F81C92C4E9B8
:1077200085A584F80262A4F80062C4F8F861C4F880
:10773000F46184F8F261C4F8EC0140F2EF2105F540
:10774000F076C4F2010105F580701C911021C0F2A1
:107750006401C4F820A21B914CF2DE01CFF6FF7148
:1077600001F52262ADF86810112117914DF6E36121
:10777000C0F2020110231691072115914DF6DC612C
:10778000C0F202014FF4807E149180218DE8430005
:1077900003A804F5097680E828404FF0400C14ABAC
:1077A000ADF86A2005F5C0724FF0000ACDE9062C4D
:1077B0003046494642468DF876A0ADF874E0CDF8E3
:1077C00060A000F0E4FB05F5E0720EA8314640230E
:1077D00000F06AFABDF84650129AA4F8005314ADAE
:1077E0000E98DDF84210BDF84C30C4E9BB02C82247
:1077F000C4F8F8022846C4F8FC123146A4F8F43262
:1078000006F072F804F541762946304600F05EFC39
:10781000D4F8201204F53E7004F53B7284F85CA5A0
:1078200084F8A8A3C4F8A063C4F84014C4F844249E
:10783000C4F8480404F568700AA9FEF767FF03203E
:1078400084F8600584F8640546B0BDE80007F0BD23
:10785000F0B503AF2DE9000B92B004464EF6FC20C4
:10786000C0F2020004F12005CDE9010401A84FF0A7
:107870000008CDE9030094F87400CDF814800028C6
:1078800040F08980206B606304F04CFE40F20800F9
:10789000C0F20000ADF81C0007A804F03FFF04F0A0
:1078A00091FE4FF00109264646F8389F41F200004C
:1078B000C0F2021040F2010CC6F835001820C6E9EB
:1078C0000808C0F2001C4FF4B0600621C6E9050CA0
:1078D0004020B17740F201118DF822004FF4804032
:1078E0004DF65472C0F20331ADF8200007A8B16222
:1078F0004FF00911C0F202024FF4807386F8349001
:10790000A6F81C90A6F82C80A6F83280C6F82E8027
:10791000C6E90132C6E90319CDF81C8003F09FFCCB
:107920004EF2001040F20431CEF20000C4F2000129
:107930004FF46072C0F88091C0F800900A60802116
:10794000C0F8841141600020002101F0F5F988B1F0
:107950000146606B04F090F940F208504FF400418A
:10796000C5F2000001600321C0F83412304602F075
:1079700067FE15E04DF66C704DF6F463C0F2020040
:1079800007AA00904DF60470C0F20200C0F2020394
:107990002B2104F0D4FF03A9284603F0DFFFA0BB8E
:1079A00040F2A440C2F202000068022821D900205F
:1079B00001210B900A90042008914DF690710990D6
:1079C0004DF69870C0F20201C0F20200079102F079
:1079D000DCF84DF6A87111900320C0F2020110905E
:1079E0000DAACDE90D1007A80F910321002302F085
:1079F00065F84FF48040002103F08EFFC4E90801D0
:107A000002F0010084F82800C5E7032084F8740020
:107A100012B0BDE8000BF0BDD0B502AF0446D0F8FF
:107A2000040400281EBFC168D4F808048847D4F8AD
:107A30000C0428B1C168D4F81004BDE8D040084750
:107A4000D0BD70470120704708464DF63871C0F22E
:107A50000201042205F0E3BAF0B503AF2DE9000FEF
:107A60008BB0CDE9012002A8039104A9049005A8D8
:107A70001C46D3F8089002F08DFC0598012851D1DE
:107A800009AD0DF1140A0DF1100B00264FF000089E
:107A900006E05046594602F07DFC0598002841D08A
:107AA0000799D1B39DF81800089A0228CDE9091268
:107AB00024D0042815D00528EBD1284602F04AFC32
:107AC000C0072AD1F0B2814531D914F810005FFA0D
:107AD00088F2801AB0FA80F04209019800F0B1FEF5
:107AE000D7E7284602F036FCC00716D128460E46D6
:107AF00002F030FCC00710D18846CAE7284602F0E1
:107B00003AFC000409D1284602F024FCC00704D145
:107B1000284602F01FFCC007BBD001200BB0BDE817
:107B2000000FF0BD00200BB0BDE8000FF0BD4EF21D
:107B300008024946C0F2020204F0E2FEF0B503AFCB
:107B40002DE9000F8BB0CDE9020104A990680190E6
:107B500002A8049005A8D2E900B802F01BFC059821
:107B6000012851D109AD0DF114090DF1100A0026BB
:107B7000002406E04846514602F00CFC0598002817
:107B800042D00799D9B39DF81800089A0228CDE988
:107B9000091225D0042816D00528EBD1284602F07A
:107BA000D9FBC0072BD19BF80000F2B29042E1D183
:107BB0000198E2B20078801AB0FA80F0420940469B
:107BC00000F03FFED6E7284602F0C4FBC00716D1FE
:107BD00028460E4602F0BEFBC00710D10C46C9E78E
:107BE000284602F0C8FB000409D1284602F0B2FB87
:107BF000C00704D1284602F0ADFBC007BAD001206F
:107C00000BB0BDE8000FF0BD00200BB0BDE8000FC9
:107C1000F0BDF0B503AF4DF8048D8AB0CDE9010198
:107C200001A8039004A803A9904602F0B3FB0498AE
:107C3000012834D108AD04AE03AC05E0304621463E
:107C400002F0A8FB049850B3069919B39DF81400EC
:107C5000079A0228CDE908120DD0042810D0052873
:107C6000ECD1284602F076FBC00713D14046002233
:107C700000F0E7FDE2E7284602F07DFB000409D1B1
:107C8000284602F067FBC00704D1284602F062FBD9
:107C9000C007D3D001200AB05DF8048BF0BD0020EE
:107CA0000AB05DF8048BF0BDF0B503AF2DE9000F0D
:107CB00095B08246D1F88C00062840F2348188467F
:107CC000D1F8BC5091F8851000201C46049201297F
:107CD0000DD102210022CDE90010404629460223A1
:107CE00001F0EBFFD8F81800411F0120FFE705AABB
:107CF0008DF8205082E8030109A805A900F0B2FA26
:107D0000099E9DF828B0D6F8BC10594540F21A815A
:107D100006EB4B009DF82920022390F8B5100131A5
:107D200080F8B51000200221CDE9001059460290DC
:107D3000304601F0DCFF4EF218023046C0F202027B
:107D40002421032301F032FF4EF21B023046C0F221
:107D500002022421022301F029FF0BF101008DF81A
:107D6000360006200DAA8DF8340030462421032366
:107D70008DF835B001F01AFF06F1C000032103F0C1
:107D80000FF8002840F0BD8040F2FF30ADF837001A
:107D90000820ADF8340041F080000DA98DF83600C0
:107DA000304601F0FDFFBDF838000D99ADF8300008
:107DB0000DA80B9105A900F055FA0D9D9DF838907E
:107DC000D5F8BC10494540F2C48005EB49009DF848
:107DD00039200A2390F8B510013180F8B510002041
:107DE0004946CDE900000290284601F080FF05F1E8
:107DF000C200022102F0D4FF002840F0B1808DF8CB
:107E00004E1013A926464FF400742846ADF84F4093
:107E1000ADF84C6001F0C4FFBDF850001399ADF807
:107E2000400005F1C0000F91022102F0B9FF0028C7
:107E300067D141F0800013A98DF84E002846ADF8B7
:107E40004F40ADF84C6001F0ABFFBDF85000ADF80D
:107E5000480008F140001399119102F026F9049CA2
:107E6000D8F8B00004F1080184F804B004282160B7
:107E70003FBFBDF83020DDF83CC0BDF84050119E3A
:107E80003FBFBDF848E00B9BCAF80430AAF80820B1
:107E90003FBF8AF81690CAF80AC0AAF80E50CAF86E
:107EA00010603FBFAAF814E0CAF8001008EBC00049
:107EB000C0F890403FBFD8F8B0104EF22002C0F298
:107EC0000202C0F894203FBF481CC8F8B00015B0AB
:107ED000BDE8000F38BFF0BD04F024FB40F21000F5
:107EE000C0F20000ADF84C0013A804F017FC4DF6EA
:107EF0003070C0F2020000F03BFE04F063FB04F0BF
:107F000024FC4EF200104EF2F003C0F20200A7F182
:107F10001D0200904EF2D800C0F20200C0F202032F
:107F2000182104F00CFD04F0FDFA40F22B00C0F221
:107F30000000ADF8140005A804F0F0FB04F042FBCB
:107F400004F003FC4EF2C8025846C0F2020204F0EC
:107F5000D7FC4EF2C8024846C0F2020204F0D0FC40
:107F60004EF22C104EF2F003C0F20200A7F11D02F7
:107F700000904EF21010C0F20200C0F2020319216C
:107F800004F0DDFC70470020704770477047F0B583
:107F900003AF2DE9000F91B0804693F825009A4673
:107FA000D0B19AF82000EF2804BF9AF821000228E7
:107FB0000ED004F0B7FA40F20900C0F20000ADF8AC
:107FC000200008A804F0AAFB04F0FCFA04F0BDFBB2
:107FD0009AF822000128ECD1BAF81E00B0F5FA7F19
:107FE00066D89AF8230000910838C1B2400140EAEF
:107FF000D100C0B2072862D8012101FA00F010F0C8
:108000008B0F5CD001AED7E904104FF0000BCDE927
:108010000C109146D7E9023230465146CDE905327F
:10802000CDF80CB0CDF804B0CDE90EBBCDF828B03A
:10803000CDE907BB01F008FE08AD284601F0EFFED0
:108040000ECE40460EC096E81E001EC008F11C0071
:108050004ECD4EC095E85E005EC008F16000BAE803
:108060006E006EC09AE86E006EC008F19000242188
:10807000C8F8BCB005F0E6FB0420A8F8C29088F868
:10808000C4000098A8F8C000D7E90810C8E9221079
:10809000B869C8F85000F86988F85CB0C8E9150BF1
:1080A000C8F848B0C8F840B011B0BDE8000FF0BD46
:1080B00004F038FA40F20A00C0F200007FE704F052
:1080C00031FA40F20B00C0F2000078E7F0B503AFE0
:1080D0002DE9000FABB00D9001F14000884611A9C9
:1080E00078C80A4678C290E878000EA878C208F1ED
:1080F0001C0422460C9401F041FF404601F0CDFDE6
:10810000204601F029FFD8F81800119004F00AFA6F
:1081100040F20C00C0F20000ADF86C001BA804F0A7
:10812000FDFA40F205041BA8C0F20004ADF86C4053
:1081300004F0B3FA11A804F098FA04F043FAD8F85E
:108140003400119004F0EEF940F20D00C0F200008E
:10815000ADF86C001BA804F0E1FA1BA8ADF86C4068
:1081600004F09BFA11A804F080FA04F02BFA0F989F
:10817000119004F0D7F940F20E00C0F20000ADF803
:108180006C001BA804F0CAFA1BA8ADF86C4004F000
:1081900084FA11A804F069FA04F014FAD8F88C00F3
:1081A000119004F0BFF940F20F00C0F20000ADF8EA
:1081B0006C001BA804F0B2FA1BA8ADF86C40814615
:1081C00004F06BFA11A8044604F04FFA04F0FAF92F
:1081D000B8F8C20021460B90B8F8C0000A9008F128
:1081E00060007CC87CC190E87C0008F190007CC1F4
:1081F00049460DF190096CC86CC190E87C00484676
:108200007CC141464CC94CC091E86C006CC04846EA
:1082100001F0BCFC0C9D8B46824648460ECD0EC03C
:1082200095E84E004EC0484601F0B0FC08F1B40697
:10823000CDE903010EA8CDE905094CCECDE92423F3
:108240001BAA8DE8040C11AB0D98DDE90A122696E5
:10825000D8E922650796089501F050FA2BB0BDE8E1
:10826000000FF0BD80B56F4682B00A6862B1D1E9F7
:10827000013251698B4234D2D2F810C01CF803107D
:1082800001310CF8031000E08A68D2F8BC10032911
:108290009FBF02EB41034FF0000CA3F8B4C0D2F82B
:1082A000BC309FBF80F805C001710260581C9EBFA2
:1082B000C2F8BC0002B080BD04F034F940F21100F5
:1082C000C0F2000027F8020CB81E04F027FA4DF6A1
:1082D0003070C0F2020000F04BFC04F073F904F0BF
:1082E00034FA4EF2B8021846C0F2020204F008FB5B
:1082F0000022016180F8542070470023428080F8FA
:1083000044350180704780B56F4682B0044600F066
:108310007DFD40B10146204603F0AEFC204603F04F
:1083200030FD20BFFAE704F0FDF840F26600C0F22D
:10833000000027F8020CB81E04F0F0F900F00AFC67
:1083400004F040F904F001FAF0B503AF4DF8048DE4
:1083500086B000228029009203D28DF800100125FA
:1083600033E0B1F5006F09D202250A4665F39F128A
:108370008DF80120C02242EA911124E002220B462E
:1083800062F39F13B1F5803F0DD28DF802308B0957
:1083900062F39F13E02242EA11318DF801308DF82B
:1083A0000010032511E08DF803308B0962F39F1351
:1083B0008DF802300B0B042562F39F13F02242EA82
:1083C00091418DF801308DF800100668002001A958
:1083D000E84606F58064CDE90450CDE90268204600
:1083E000019400F0F1FA70B98D420CD90020CDE96A
:1083F00001460590681A049008EB010001A903905A
:10840000204600F0E1FA002006B05DF8048BF0BDD4
:108410000A464EF25011C0F2020104F0BABA80B519
:108420006F468AB0009000200590022002904EF224
:108430004010C0F2020001AA01900120049007A898
:10844000039048F64F30C0F20200089009A8079048
:1084500001F12C004EF250110990C0F20201684661
:1084600004F097FA0AB080BDF0B503AF4DF8048D63
:1084700086B0046800208846CDE9024104F5806694
:1084800001A9CDE9042015463046019600F09CFA7A
:1084900070B98D420CD90020CDE901640590681AAD
:1084A000049008EB010001A90390304600F08CFA1B
:1084B000002006B05DF8048BF0BD08464EF268114E
:1084C000C0F20201122204F0AABDF0B503AF4DF8CC
:1084D000048D0446087A16460D4638B1032807D0A5
:1084E0004EF2DC10C0F2020005F072F828686860F5
:1084F000281D314601F098F9C0B205284FF001015E
:1085000008BF032129720DD1287D47F20008C4F26B
:10851000020868B1032815D04EF2EC10C0F2020038
:1085200005F056F86070002020705DF8048BF0BDF7
:108530000020C5F81080C8F800024FF40001286937
:10854000C0F80413316840F2C840C2F2020003F0E0
:1085500035FAD8F85C0180B328690021C0F85C11B5
:108560002869D0F88014D0F88424D0F88834C9B2AF
:10857000D0F88C6462F30F21D0F89024DBB2D0F8ED
:1085800094C441EA0341D0F8983441EA0661D0F836
:108590009C04C4F80110D1B25FFA8CF2012641EAC2
:1085A0000221DAB241EA0241267041EA00602E75EA
:1085B000C4F805005DF8048BF0BD02202070032094
:1085C00028755DF8048BF0BDF0B503AF4DF804BD20
:1085D00098B0412A53D215460446B1F1005F05D345
:1085E0004819B0F1405F01D20E4604E06E462A46BB
:1085F000304605F081F847F20060072CC4F2020013
:1086000000F18C01179100F17801169100F16401DD
:10861000159100F15001149100F13C01139100F10A
:108620002801129100F11401CDE9100136D810A8EB
:1086300050F82400066047F204064560C4F20206C2
:1086400006F58275002045F8240002F0A7FB012002
:1086500046F8240055F8240058B955F8240000289D
:1086600004BF55F82400002803D155F82400002841
:10867000F0D002F094FB18B05DF804BBF0BD03F03D
:1086800051FF40F24A00C0F20000ADF80000684619
:1086900004F044F803F096FF04F057F84EF270220D
:1086A0002046C0F20202082104F02AF9F0B503AF17
:1086B0004DF804BD4FF6F85047F20835CFF6FF707D
:1086C000C4F20205285868B10120286040F2C04079
:1086D000C2F2020003F0A5F940F2C840C2F2020063
:1086E00003F09FF94FF65460CFF6FF70285840B161
:1086F0004FF40000286040F2C840C2F2020003F0CC
:1087000090F94FF62060CFF6FF70285840B14FF433
:108710008060286040F2C840C2F2020003F081F994
:108720004FF65060CFF6FF70295839B1002129501B
:1087300040F2C040C2F2020003F073F94FF65860F5
:10874000CFF6FF702958002970D00021295040F23F
:108750005050C2F20200D5F86441C5F86441BFF33D
:108760005F8F50E8001F214340E80012002AF8D133
:10877000A007BFF35F8F05D540F2D040C2F20200E0
:1087800003F04FF9A00305D540F21050C2F20200E9
:1087900003F047F940F2D0456007C2F2020544BF3A
:1087A00005F1080003F03DF940F210566003C2F2F3
:1087B000020644BF06F1080003F033F9200744BF66
:1087C00005F1100003F02DF9200344BF06F110005D
:1087D00003F027F9E00644BF05F1180003F021F982
:1087E000E00244BF06F1180003F01BF9A00644BFE5
:1087F00005F1200003F015F9A00244BF06F12000A6
:1088000003F00FF9600644BF05F1280003F009F9F1
:10881000600244BF06F1280003F003F9200644BFBC
:1088200005F1300003F0FDF8200202D45DF804BB2E
:10883000F0BD06F130005DF804BBBDE8F04003F088
:10884000F0B8F0B503AF2DE9000B82B00D4607F884
:108850001F2C8DF8001003F065FE40F24700C0F2B7
:10886000000027F81E0CA7F11E0003F057FF40F28E
:108870005400C0F20000ADF8040001A803F00DFFA1
:10888000684603F047F840F20600C0F2000027F8FF
:108890001A0CA7F11A0003F000FFA7F11F0003F064
:1088A00008FF05F01F09012005F07F086DB200FAEE
:1088B00009F6F44303F086FE47F21050002DC4F28F
:1088C000020013D4416817F81F2C01EA0403002AA0
:1088D00018BF41EA0603436023D0B8F1080F6BD2FA
:1088E00000EB8800002140F8701C2FE0016817F8A9
:1088F0001F2C01EA0403002A18BF41EA06030360A3
:108900002DD031423AD140F25050BFF35F8FC2F2C6
:10891000020050E8001F314340E80012002AF8D15D
:108920002AE089F010000121BFF35F8F01FA00F007
:1089300040F25051C043C2F2020151E8002F024000
:1089400041E80023002BF8D1BFF35F8FA8F10100AD
:10895000082823D240F21051C2F2020116E040F280
:108960005050BFF35F8FC2F2020050E8001F214059
:1089700040E80012002AF8D1BFF35F8FA8F1010090
:10898000082812D240F2D041C2F2020101EBC0002D
:1089900003F047F802B0BDE8000BF0BD4EF29022A4
:1089A0000821C0F2020203F0ABFF4EF28022082140
:1089B000C0F2020203F0A4FF4EF2C0224046C0F211
:1089C0000202082103F09CFFF0B503AF2DE9000F70
:1089D00085B00E4603F0BEFB35682968002940F0DB
:1089E000A08006F1080B029070684FF0FF310190F3
:1089F000287F9BE8100A002829601CBF281D03F06F
:108A00004FF82E4656F8188F56F804ACC24504BFEE
:108A1000287F002862D00094C24598BF4FF4806A36
:108A2000CDF80CA003F07EFD40F25D00C0F2000026
:108A300027F81E0CA7F11E0003F070FE40F205049B
:108A4000A7F11E00C0F2000427F81E4C03F025FE1B
:108A5000304603F00AFEA7F11E0027F81E4C03F073
:108A60001CFE03A803F001FE03F0ACFDC24542D09A
:108A7000AAEB08003168484538BF814601984A464C
:108A80000844009904F038FECDF80C9003F04AFD3C
:108A900040F25E00C0F2000027F81E0CA7F11E0095
:108AA00003F03CFEA7F11E0027F81E4C03F0F5FD75
:108AB00003A803F0DAFD03F085FD039A02985AB18A
:108AC00031680A44B2F5806F31D800212977B2F5B8
:108AD000806118BF1146A961002417E003F022FD50
:108AE00040F25C00C0F20000ADF80C0003A803F0F7
:108AF00015FE03F067FDBBF1000F1EBFDBF8001091
:108B000005F10C0002F0ACFF012402982968013144
:108B1000296003F026FB2046494605B0BDE8000F5A
:108B2000F0BD4EF24030C0F2020003F02FFE03F021
:108B3000F9FC40F26200C0F2000027F81E0CA7F119
:108B40001E0003F0EBFD03F03DFD03F0FEFD0068A9
:108B500003F01ABF80B56F4682B040F26500C0F2E4
:108B6000000027F8020CB81E03F097FD02B080BD8C
:108B7000D0B502AF82B0044640F20500C0F200005A
:108B800027F80A0CA7F10A0003F087FD204603F03E
:108B90006CFD02B0D0BDF0B503AF2DE9000F85B07C
:108BA00090E840050D4603F0D5FA0446D6F80004D7
:108BB000002840F0AB80D6F814044FF0FF32D6F80E
:108BC0001814C6F80024884201BF96F81C04002837
:108BD00006F20C4002F064FF96F81C04029401288F
:108BE0000DD103F09FFC40F25F00C0F20000ADF831
:108BF0000C0003A803F092FD03F0E4FC34E0CDF890
:108C0000048006F21444D6F81484D6F81894C145AA
:108C100098BF4FF48069CDF80C9003F083FC40F2CC
:108C20006000C0F2000027F81E0CA7F11E0003F040
:108C300075FD40F2050BA7F11E00C0F2000B27F8EE
:108C40001EBC03F02AFD2046009403F00EFDA7F1A0
:108C50001E0027F81EBC03F020FD03A803F005FD4D
:108C600003F0B0FCC14507D1296806F2044002F0C8
:108C7000F7FE012402983CE0D6F81414A9EB080092
:108C8000504538BF824601983144524604F034FDC5
:108C9000CDF80CA003F046FC40F26100C0F20000E9
:108CA00027F81E0CA7F11E0003F038FDA7F11E00E7
:108CB00027F81EBC03F0F1FC03A803F0D6FC03F078
:108CC00081FC039A02989AB1009909688B18B3F550
:108CD000806F21D8D6F81814B3F5806218BF1A46F1
:108CE000C6F81424511AB1FA81F1490986F81C1406
:108CF0000024D6F800140131C6F8001403F031FA4C
:108D00002046514605B0BDE8000FF0BD4EF23030B0
:108D1000C0F2020003F03AFD03F004FC40F26200EE
:108D2000C0F2000027F81E0CA7F11E0003F0F6FCAD
:108D300003F048FC03F009FDF0B503AF2DE9000B8B
:108D400082B08846054603F005FA40F29844C2F224
:108D5000020426680EBB814640F22070C2F2020077
:108D60004FF4004C50F80C2000F50041002A08BFD9
:108D70000246D31D891A23F007039B1A03F5AD663B
:108D80008E422FD89119D61840F80C104FF4AD61CF
:108D9000304604F0FBFD4846266003F0E2F906F198
:108DA000080040F2011150E8002F9AB940E8001283
:108DB000002AF8D147F28360C0F2020029467061B0
:108DC00006F120004246FFF798FA304602B0BDE8AF
:108DD000000BF0BDBFF32F8F0026304602B0BDE878
:108DE000000BF0BD03F09EFB40F26700C0F20000F4
:108DF00027F81A0CA7F11A0003F090FC03F0E2FB2D
:108E000003F0A3FCFFF752BC02F03FBDF0B503AF87
:108E10004DF8048D82B0044603F09CF940F29C4664
:108E2000C2F20206356805BB804640F22070C2F2ED
:108E300002004FF4004C50F80C2000F50041002ACD
:108E400008BF0246D31D891A23F007039B1A03F1BA
:108E500078058D422DD85119D51840F80C1078217D
:108E6000284604F093FD4046356003F07AF905F199
:108E7000080040F2011150E8002F92B940E80012BA
:108E8000002AF8D147F65100C0F20200214668617D
:108E900005F12000FFF72CFA284602B05DF8048B9C
:108EA000F0BDBFF32F8F0025284602B05DF8048B7C
:108EB000F0BD03F037FB40F26700C0F2000027F876
:108EC000120CA7F1120003F029FC03F07BFB03F066
:108ED0003CFC80B56F4600F000F880B56F4684B06A
:108EE0006C46204602F0F4FD2046FFF70CFAD4D47D
:108EF000F0B503AF2DE9000F85B08846914698F88C
:108F000008209B46C979FAB1022A08BF002936D049
:108F1000C16B002900F0538100EBC10100F11C0678
:108F200001F11C050DF1080AD6E900104246C46A99
:108F300050464B46CDF800B0A047029801284AD0D1
:108F40000836AE42F0D13AE100295FD0012949D07C
:108F50000229DDD198F80600002840F0308198F908
:108F6000021001F00F00002900F1A680082880F00F
:108F7000A18147F22041C4F202012431A3E0416CF7
:108F800049B190F8482098F80630934204BFB8F8E9
:108F90000220072A51D0C16B002900F0108100EB9C
:108FA000C10100F11C0401F11C0A02ADD4E900105A
:108FB0004246C66A28464B46CDF800B0B0470298F4
:108FC000012808D0083400225445EFD1104605B0DE
:108FD000BDE8000FF0BD039A0499104605B0BDE846
:108FE000000FF0BDB8F8021082698A4240F2E780B3
:108FF00098F80620002A4ED00A2A52D1BBF1000F61
:1090000000F05F8100EB4100007C12E098F8061050
:10901000002935D0062916D0082940F0D080BBF1B0
:10902000000F00F0378190F887000438B0FA80F024
:10903000400989F80000012155E0026C104605B096
:10904000BDE8000FF0BDB8F800504FF0FF3100222E
:1090500001EB15230E2B00F2B380DFE803F0097556
:109060004A08080808080808080808087C00ADE74E
:1090700000F174021221104605B0BDE8000FF0BDEA
:10908000BBF1010F40F20E8190F88A1090F88B002E
:1090900061F3410024E0BBF1010F40F21A8100208E
:1090A0001EE041464A465B4600F0FDFA0246104685
:1090B00005B0BDE8000FF0BD082880F0128147F22E
:1090C0002041C4F2020151F82000BBF1010F40F22F
:1090D000D9804FF0FF3111FA80F0B0FA80F04009EA
:1090E000A9F8000002214A46104605B0BDE8000F6D
:1090F000F0BDEBB2032B3FD850214C22DFE803F048
:1091000002373235BBF1000F00F0F9800420BBF1CB
:10911000010F89F8000000F0FA800320BBF1020F74
:1091200089F8010040F2FB800920BBF1030F89F8A8
:10913000020000F0FC8004214A4689F80310104622
:1091400005B0BDE8000FF0BDD0E90021104605B024
:10915000BDE8000FF0BDD0E90221104605B0BDE822
:10916000000FF0BD5821542201E060215C22835899
:109170002BB3415818460FE0C16B00F11C04B8F83E
:1091800002A0CE00DEB1F4E8020152460B6B294684
:109190009847083E0028F5D0BBF1010F40F2A880A7
:1091A00003224FF0000889F80120421802214FF0F5
:1091B000370C4FF4584E0026002E43D145E00022D4
:1091C000104605B0BDE8000FF0BD044614F9015B80
:1091D000B5F1FF3FEBB229DC457803F01F04E02B2B
:1091E00005F03F0511D38678F02B06F03F0646EADE
:1091F00085150ED3C37804F0070403F03F0343EA58
:10920000851343EA8443041D06E045EA8413841C65
:109210000CE045EA0433C41CB8EB134F06D003F549
:109220007F006CF39F234EEA902601E09EB200235C
:109230008D1C5D4517D26DB129F8016020461E4690
:10924000294616B100230446F2E79042BDD189F8C1
:10925000001048E74EF2AC426FF00100C0F202028B
:10926000002103F01EFF03F05DF940F22600C0F27A
:109270000000ADF8080002A803F050FA03F0A2F9CC
:1092800003F063FA4EF2F032C0F2020202205946B5
:1092900003F0E8FE4EF2C032C0F2020200200021CC
:1092A00003F02EFB4EF2B032C0F202020220594609
:1092B00003F0D8FE4EF2A0220821C0F2020203F011
:1092C0001FFB4EF2E032C0F202020020002103F048
:1092D00017FB4EF2D032C0F202020220594603F0D0
:1092E000C1FE4EF2B0220821C0F2020203F008FBD8
:1092F00003F018F940F22500C0F20000B9E74EF281
:109300006C42C0F202020020002103F0F9FA4EF292
:109310007C420120C0F20202012103F0F1FA4EF278
:109320008C420220C0F20202022103F0E9FA4EF25E
:109330009C420320C0F20202032103F0E1FAD4D4DC
:10934000F0B503AF2DE9000786B08846097A994643
:109350009246B9B1C16B00F11C04CD00002D00F0A4
:10936000BE80F4E8020152464B468E6A4146B04741
:10937000083DC1B20229F1D000F0010006B0BDE8FD
:109380000007F0BD98F80710002960D0012918D017
:109390000229DFD198F80610B8F80000012900F082
:1093A0008380032940F09B80002840F0988098F843
:1093B0000200010700F0428100F0870000F5807094
:1093C0007AE0B8F802100022866998F80630CDB22B
:1093D00007F8291C014600EB4500AE4288BF00F1AA
:1093E00010020120AE42C7D90B2BC5D1B8F80040FE
:1093F0005078E3B2984265D90B461470049203F199
:1094000088020392A7F12902D1E900011D460292C8
:1094100002AAFEF793FB002840F02981E96B00299E
:1094200000F0128105EBC101284601F11C0500F195
:10943000140656F8080F17F8291C7268536A22465A
:10944000984706F108010020A942F2D194E70146AD
:1094500098F80600431E0120082B8DD8B8F800208C
:10946000DFE803F00605680544050505840083E789
:10947000012A7FF481AFCA6B002081F88A00002A9C
:109480003FF47AAF01EBC20001F1140500F11C04B6
:1094900055F8080F69680A6A0021904705F108012C
:1094A0000020A142F4D167E7C8B998F8020001078B
:1094B00000F0D18000F0870047F21851C4F2020199
:1094C0000860C1E003F02EF840F22400C0F2000072
:1094D000ADF8080002A803F021F903F073F80120A9
:1094E00000F0010006B0BDE80007F0BD531E7F2B61
:1094F000BFF442AFCB6B81F886200322002B81F8AA
:109500008C0081F8872000F09F8001EBC30201F1FD
:10951000140502F11C0455F8080F0E4691F8861048
:109520006A685269904705F1080231460020A2425C
:10953000F1D121E7012A7FF41FAF0A46C96B82F8F7
:109540008A00002900F0808002EBC10102F11405BD
:1095500001F11C0455F8080F69680A6A0121904757
:1095600005F108010020A142F4D105E7A2B3012AC8
:109570007FF402AF0D4602F0D5FF40F22200C0F2A8
:109580000000ADF8080002A803F0C8F803F01AF8CC
:109590000422D5E9000185F8872005F1880205F14C
:1095A00010032C46FEF758FA002865D1E16B00291C
:1095B0004AD004EBC101204601F11C0400F114055E
:1095C00055F8080F69688A690121904705F108017B
:1095D0000020A142F4D1CFE691F88700022833D0D1
:1095E0000D4602F09FFF40F22300C0F20000ADF8EC
:1095F000080002A803F092F802F0E4FF0322D5E984
:10960000000185F8872005F188022C46FEF701FB52
:10961000B8BBE16BC1B104EBC101204601F11C04F0
:1096200000F1140555F8080F69688A690021904710
:1096300005F108010020A142F4D19DE647F2540053
:109640000121C4F202000160002000F0010006B018
:10965000BDE80007F0BD47F254010020C4F202014A
:10966000086000F0010006B0BDE80007F0BD4EF252
:109670005C40C0F2020008E04EF23C40C0F2020042
:1096800003E04EF24C40C0F202004EF20043009064
:109690004EF21040A7F11902C0F20200C0F202031C
:1096A0002B2103F04CF9F0B503AF2DE9000F85B085
:1096B0008B46C16BB9B100EBC10100F11C0501F192
:1096C0001C040DF1080899469246D5E900105A4647
:1096D000C66A40465346CDF80090B047029838B964
:1096E0000835A542F1D1002005B0BDE8000FF0BD5E
:1096F000DDE9030105B0BDE8000FF0BDF0B503AF33
:109700002DE9000F86B01C8C059493F82240049438
:109710001C8B396A03945C8B02947C6AD7F818908E
:10972000D1E900258968D7E902C8BE6A80E85001FE
:109730003C69C4607C69C0E906259A8B016293F894
:109740002310C0E9044900920191A0F8981000F19B
:109750002401D3F810E0D3F800B0D3F808A0BEF18C
:10976000000FBCE85003A1E850039CE8740181E8B5
:109770007401F969D1E900268968016500F1540195
:10978000C0E91226B3E87410A1E8741093E87410CD
:1097900081E874104FF0010180F88D1018BF4FF070
:1097A000030E80F88CE0BAF1000F18BF4FF0010AE9
:1097B0004FEA4A0180F88B10BBF1000F18BF4FF041
:1097C000010B009A029B80F88820110A80F88630ED
:1097D0001A0A039B80F8872080F8891000211A0A52
:1097E000C0F88E1080F88520019A80F88320049AB2
:1097F00080F88220059AA0F8802040F21212C0F270
:10980000102280F88AB080F88430C267C0F89110C6
:1098100006B0BDE8000FF0BD08464EF2BC41C0F2F4
:109820000201092203F0FBBBF0B503AF2DE9000BE9
:1098300084B00968046840F2C040C2F2020002F03D
:10984000BDF84FF6005047F20045CFF6FF70C4F266
:1098500002052958A9B300210124295047F21450C8
:10986000C4F2020040F2D04840F2105945F8FC4CD6
:10987000C2F20208C5F81041C2F20209046040F2C7
:109880005050C2F20200BFF35F8F04600CE0072566
:10989000062608EBC60002F0C4F809EBC60002F089
:1098A000C0F8062C2C4607D8062CF0D8661E072ECA
:1098B00000F28F80651CECE7002004B0BDE8000BCF
:1098C000F0BD2E68F00736D1700546D4F00556D4A9
:1098D000B00561D4300510D54FF40060286002F067
:1098E00021FE40F24400C0F2000027F81E0CA7F150
:1098F0001E0002F013FF02F065FE601C01F0F2FF93
:109900002178884250D081F00105257002F00AFECE
:10991000002D4ED140F24600C0F2000027F81A0C8C
:10992000A7F11A0002F0FAFE02F04CFE042004B087
:10993000BDE8000BF0BD0120286002F0F3FD40F20D
:109940004200C0F2000027F8220CA7F1220002F02A
:10995000E5FE02F037FE7005B8D54FF48060286050
:1099600002F0E0FD40F24300C0F20000ADF8080054
:1099700002A802F0D3FE02F025FEF005A8D547F2BA
:1099800014514FF4807028600120C4F202018861F4
:1099900004B0BDE8000BF0BD4FF400702860022059
:1099A00004B0BDE8000BF0BD052004B0BDE8000B1D
:1099B000F0BD40F24500C0F20000ADF80C0003A875
:1099C00002F0ACFE02F0FEFD032004B0BDE8000B87
:1099D000F0BD4EF228524FF0FF30C0F202020821D3
:1099E00002F08EFFD0B502AF82B00C68D4E900104F
:1099F0008968884740F2C8402146C2F2020001F05F
:109A0000DDFF47F20010C4F20200816A11B10220AA
:109A100002B0D0BD016849B102F084FD40F24F00B0
:109A2000C0F20000ADF8040001A80BE0C06D80B1E9
:109A300002F078FD40F25000C0F2000027F80A0C56
:109A4000A7F10A0002F06AFE02F0BCFD012002B09C
:109A5000D0BD032002B0D0BD0020704770477047D2
:109A600040F2A042C2F202021368BFF35F8FCBB193
:109A7000012B1CBF0120704780B56F4688B00121C3
:109A8000002002914EF22461C0F202010590049080
:109A900007A801914EF22C61039001A8C0F20201C7
:109AA00002F001FF40F22043C2F20203C3E90001C9
:109AB0000220BFF35F8F106000207047F0B503AF46
:109AC0002DE9000F97B0002B05914BD1D2E9009AF8
:109AD00040F2204ED2E90263C2F2020E126901681E
:109AE000049141680291D0E9028BD0E90451D2E996
:109AF0000040D2F808C040F2A042C2F2020212684E
:109B00000192BFF35F8FCDE90C4002981290049848
:109B1000119005980E9000200B90CDE907C0012010
:109B2000CDE9155106904EF248500199C0F202005D
:109B3000DEE9002E03920229CDE90963CDE9138BFA
:109B4000CDE90F9A08BF704602694EF23C60C0F240
:109B50000200039908BF084606A9904717B0BDE860
:109B6000000FF0BD0121002007914EF28861C0F284
:109B700002010A900990042006914EF2F0610890CB
:109B800006A8C0F2020102F08EFE7047D0E905314E
:109B900099429CBF0069704780B56F464EF264726F
:109BA0000846C0F20202194603F05CFAF0B503AFB2
:109BB0002DE9000B82B08C468146D0E90514A01C2B
:109BC00000EB030888459CBF9D1CB5F5807F0FD333
:109BD00002F0A8FC40F21200C0F2000027F81A0CB4
:109BE000A7F11A0002F09AFD02F0ECFC02F0ADFDC4
:109BF0008C4214D2D9F81060355501348C4215D2FC
:109C0000804506F804C018D3304411461A4603F0C4
:109C100073FDC9F8188002B0BDE8000BF0BD4EF22C
:109C200074722046C0F2020202F06AFE4EF28472A2
:109C30002046C0F2020202F063FE4EF294724146E8
:109C4000C0F2020203F02DFA80B56F4682B082693D
:109C5000012391F824E04FF0000C043207F803CC04
:109C6000C0E900324FF0807391F82620C98B47F885
:109C7000073C6FF07F03002A18BF6FF03F036EF3BD
:109C800045134908FA1F07F8023C07F8011C022196
:109C90000723FFF78BFF02B080BD4169032981BF15
:109CA000016980694880704780B56F464EF2A472A2
:109CB0000420C0F2020203F0D5F9D0B502AF82B0A1
:109CC000D7E902CE002407F80D2CA7F10E0207F801
:109CD0000C3C062307F80E1C0B2107F8094C07F86B
:109CE0000AEC07F80BCCFFF761FF02B0D0BDF0B56E
:109CF00003AF4DF8048D84B05FEA026C10D1D0F848
:109D000000C0BCF1000F33D0D0F804C0D0F814E08C
:109D1000F4453DD2066916F80C50013506F80C5092
:109D2000866907F1080ED7F814C0012404369EE8AE
:109D30002041BEF1000FC0E9024608BFF44607F813
:109D4000143C002307F8162CA7F1170207F8153C5E
:109D5000072307F8171C042107F811CC07F8128C09
:109D600007F8135CFFF722FF04B05DF8048BF0BD29
:109D700002F0D8FB40F21300C0F2000027F81A0CE2
:109D8000A7F11A0002F0CAFC02F01CFC02F0DDFC94
:109D90004EF2B4726046C0F20202714602F0B0FDAB
:109DA00080B56F4682B0826812B3C368D0F814C021
:109DB00063452CD2D0F810C01CF8032001320CF8F7
:109DC000032091F802C0CB780A79098807F8031CB0
:109DD00007F8042C7A1F090A07F8013C07F8021C4F
:109DE0000521052307F805CCFFF7E0FE02B080BD92
:109DF00002F098FB40F21400C0F20000ADF8000041
:109E0000684602F08BFC02F0DDFB02F09EFC4EF295
:109E1000C4721846C0F20202614602F071FDD0B56C
:109E200002AF044680694EF2D47201210430C0F2C0
:109E300002020323C4E9071020460F21FFF7B6FEF4
:109E40004DF634722046C0F2020202210423BDE81E
:109E5000D04000F000B8F0B503AF4DF8048D82B0EB
:109E60008046C06980B38C46D8F81410D8F82050CA
:109E70008D4238D2D8F81040D8F81800665D013607
:109E80006655DD1CFF2D9CBF46198E4232D8884294
:109E900040D22554451C8D4242D210266655851C61
:109EA0008D4244D2033004F805C0C51846D28D4215
:109EB0004BD8204411461A4603F01EFCC8F818502F
:109EC00002B05DF8048BF0BD02F02CFB40F21500EF
:109ED000C0F20000ADF8040001A802F01FFC02F07F
:109EE00071FB02F032FC4EF2D8722846C0F2020238
:109EF00002F006FD02F016FB40F21600C0F2000070
:109F000027F8120CA7F1120002F008FC02F05AFB2D
:109F100002F01BFC4EF2E872C0F2020202F0F0FC0A
:109F20004EF2F8722846C0F2020202F0E9FC4EF648
:109F300008022846C0F2020202F0E2FC4EF61802C5
:109F40002946C0F2020203F0ACF84EF61802284689
:109F5000C0F2020203F086F841690022C2610329BF
:109F600081BF016980694880704780B56F464EF6B1
:109F700028020420C0F2020203F074F8F0B503AF27
:109F80002DE9000B88B08C6981460025002C5DD03E
:109F900001F1080898E8490101288D6008D103F112
:109FA0000805981D854262D3454567D8E31A3352A8
:109FB000D1E9000500230B60012808D105F1080351
:109FC000A81D834262D3434567D8631B3352B8F15F
:109FD000090F44D900200D7F07F8190C200A07F853
:109FE0001B0C9F2007F8210C49F69D60C8F66420E1
:109FF0004DF6007147F8250C49F64C40C6F2D25098
:10A00000A7F1310347F8290C48F6D810CCF2457077
:10A01000CDF6605147F82D0C706847F8311C0521CA
:10A0200047F8200C10461A461923348107F81C4CB7
:10A0300007F81A5CFFF70FFF444508D94EF698025F
:10A040002046C0F20202414603F00CF8012689F8CE
:10A050000850C9E9006408B0BDE8000BF0BD4EF639
:10A06000A8020A20C0F20202414602F0FBFF4EF6AF
:10A07000A8022946C0F2020203F013F84EF6A80225
:10A080002846C0F20202414602F0ECFF4EF6A8025A
:10A090001946C0F2020203F004F84EF6A802184670
:10A0A000C0F20202414602F0DDFFD0B502AFD0E9B6
:10A0B00002320024D0E904C1012BD0F818E08460FA
:10A0C00018BFD0BD02F10803901D834206D38B4216
:10A0D0000BD8AEEB02012CF80010D0BD4EF6A80252
:10A0E0001946C0F2020202F0DCFF4EF6A802184642
:10A0F000C0F2020202F0B6FFB0B502AF046802F08F
:10A1000029F808210025A1804FF4FA51A57121609A
:10A1100002F027F8012025756575A075A06850B973
:10A120004FF0FF30A06004F10C0001F0B9FCA06812
:10A130000130A060B0BD4EF62010C0F2020002F067
:10A1400025FBF0B503AF4DF804BD84B00D7A84460D
:10A150000220012D07D1CD79012D02BF9CF80450BA
:10A160004C88AC4203D004B05DF804BBF0BD8D79DF
:10A170000120222D4CD0202D06D0002D08BF00201C
:10A1800004B05DF804BBF0BD062BECD910790125B5
:10A19000116853790328927900914FF00001DCF89F
:10A1A00000408DF8042028BF08468DF80600052BD6
:10A1B00038BF19468DF8051001F0CCFFDDE900121B
:10A1C000C4E9001201F0CDFF02F0ACF940F2270023
:10A1D000C0F2000027F8120CA7F1120002F09EFA5C
:10A1E00040F22E00C0F2000027F8120CA7F1120076
:10A1F00002F053FA684600F0F7F802F0E3F9A575AB
:10A20000A068C0B34EF63010C0F2020002F0BEFAF1
:10A2100008780125DCF8004000F001018DF80C10F1
:10A22000C0F3400007F8130C2175607502F07AF94D
:10A2300040F22800C0F20000ADF80000684602F0CD
:10A240006DFA40F206066846C0F20006ADF80060FE
:10A2500002F023FA03A802F02CFA6846ADF8006079
:10A2600002F01BFAA7F1130002F023FA02F0AAF998
:10A27000A575A06870B94FF0FF30A06004F10C0024
:10A2800001F00EFCA0680130A060002004B05DF871
:10A2900004BBF0BD4EF64010C0F2020002F076FAA8
:10A2A000F0B503AF2DE9000B82B0167A0024012E21
:10A2B00006D1D679012E02BF0E795588B54204D059
:10A2C000046002B0BDE8000BF0BD9679212E04BFFA
:10A2D0009288072A02D00021416025E01D46804671
:10A2E000D7F808900C4602F01DF940F22900C0F2A0
:10A2F0000000ADF8040001A802F010FA02F062F9C3
:10A30000246801F027FFD4E9004601F02AFFB9F1E3
:10A31000060F0FD940460721C0E90151310A697182
:10A32000310C2C60AE7129710124046002B0BDE8CB
:10A33000000BF0BD02F0F6F840F22A00C0F2000077
:10A3400027F81A0CA7F11A0002F0E8F902F03AF91E
:10A3500002F0FBF9426852B1D0F800C0531E1CF85D
:10A36000011BC0E900C3B2FA82F040097047B2FA9B
:10A3700082F0400970474268022A21BFD0F800C02D
:10A380003CF8021B931EC0E900C30020022A38BF1C
:10A3900001207047B0B502AF09684A68AAB10D68DC
:10A3A000541E2B4613F801CBC1E9003408D0931E8C
:10A3B00005F1020EACF10204A342C1E900E307D2A9
:10A3C0000021816001210160B0BD00210160B0BDAC
:10A3D000A2EB0C026B786544C0E902E4C1E90052CB
:10A3E000037101210160B0BDD0B502AF82B0044657
:10A3F00040F22C00C0F20000ADF8040001A802F009
:10A400004CF9A0794EF65811C0F2020151F8200023
:10A4100002F09FF9201D02F09CF940F22D00C0F2DD
:10A42000000027F80A0CA7F10A0002F036F960795B
:10A430004EF67411C0F2020151F8200002F089F9C1
:10A44000204602B0BDE8D04002F00FB9D0B502AF4F
:10A4500082B0044640F25300C0F2000027F80E0C10
:10A46000A7F10E0002F019F904F1090001F044FA15
:10A4700040F22F00C0F20000ADF8040001A802F085
:10A480000CF9207A4EF66411C0F2020151F8200056
:10A4900002F05FF940F23000C0F2000027F80A0C29
:10A4A000A7F10A0002F0F9F8E0794EF67411C0F253
:10A4B000020151F8200002F04CF9A01D02F049F908
:10A4C000204602F0EAF8A01C02F0E7F8201D02B0D6
:10A4D000BDE8D04002F0E1B8006802F08DB980B567
:10A4E0006F4682B040F2A84172B6C2F202010A7809
:10A4F000FAB901220A70009002F014F840F232001A
:10A50000C0F20000ADF8040001A802F007F940F223
:10A510000200C0F2000027F8020CB81E02F0BDF8DD
:10A520004EF688116846C0F2020102F0CEF802F041
:10A5300049F84EF62450CEF20000016821F4802143
:10A54000016000DEFEDED0B502AF40F2AC44C2F2E4
:10A550000204201D00F003FC04F10C00BDE8D04013
:10A5600000F0FDBB80B56F4684B001288DE8070080
:10A570000CD041F2010188421AD1144601F0D2FFF9
:10A580002CBB40F23400C0F2000005E001F0CAFF2D
:10A5900040F23300C0F2000027F8020CB81E02F0AF
:10A5A000BDF801A800F0B5FB02F00CF802F0CDF800
:10A5B00001F0B8FF40F23600C0F2000027F8020CAC
:10A5C000B81E02F0ABF8684600F0A3FB08E040F2CA
:10A5D0003500C0F2000027F8020CB81E02F09EF809
:10A5E00001A800F096FB02A800F093FB01F0EAFF3F
:10A5F00002F0ABF880B56F4684B040F200020190E3
:10A60000C2F2020269DF18B100F02CFB042801D16C
:10A6100004B080BD029001F085FF40F23700C0F227
:10A62000000027F8020CB81E02F078F801A800F02C
:10A6300070FB02A800F080FB01F0C4FF02F085F877
:10A64000F0B503AF2DE9000786B040F2AC440546F3
:10A65000C2F20204D4E84F0F48B90120BFF35F8F64
:10A66000C4E8410FB1B1D4E84F1F0029F8D0BFF3BF
:10A670002F8FBFF35F8F01F055FF40F23800C0F21B
:10A680000000ADF8040001A802F048F801F09AFFBC
:10A6900002F05BF8BFF35F8F4AF2655195F8340022
:10A6A000C0F20201002818BF05F1350010DF0028B4
:10A6B00040F02081A88B0126A97F2A8C002808BFA2
:10A6C0000322ADF8082008BF01218DF8061001A96A
:10A6D00020208DF80460FFF78DFFB5F81880B8F1E1
:10A6E000000F40F0868095F82200012800F092804B
:10A6F00095F82400012800F09D8095F82600012897
:10A7000000F0A88095F82800012800F0B0802868A3
:10A71000012800F0BB8095F82E00012800F0C380CE
:10A7200095F83000012800F0CB8095F83200012820
:10A7300000F0D3802869012805D1686901A901903A
:10A74000A120FFF757FF40F2000904A8C2F2020956
:10A75000CDF8109060DF0646049800F1604001904B
:10A7600001F0E0FE40F23A00C0F2000027F81A0CB7
:10A77000A7F11A0001F0D2FF40F2040AA7F11A0073
:10A78000C0F2000A27F81AAC01F087FF01A801F017
:10A790006CFF01F017FF002E40F0B9800498484587
:10A7A00014D201F0BFFE40F23E00C0F20000ADF84E
:10A7B000040001A801F0B2FF01A8ADF804A001F067
:10A7C0006CFF04A801F051FF01F0FCFE4EF20010F6
:10A7D0004FF48001CEF20000B8F1000F0160688BE9
:10A7E00008BF172024F8020F204606B0BDE8000776
:10A7F000F0BD0021688BCDF80A1001A9CDF8060044
:10A8000023208DF80460FFF7F5FE95F8220001285B
:10A810007FF46EAF95F8230001A98DF806000120A2
:10A820008DF804002120FFF7E5FE95F824000128AB
:10A830007FF463AF95F8250001A98DF8060001208B
:10A840008DF804002220FFF7D5FE95F82600012898
:10A850007FF458AF95F8270001A98DF80400012076
:10A86000FFF7C8FE95F8280001287FF450AFD5F80F
:10A87000291095F82D00019101A98DF808004020BC
:10A88000FFF7B8FE286801287FF445AF2A1D01AB09
:10A8900007CA07C301A94120FFF7ACFE95F82E00B7
:10A8A00001287FF43DAF95F82F0001A98DF8040031
:10A8B0004220FFF79FFE95F8300001287FF435AF66
:10A8C00095F8310001A98DF804004320FFF792FEAE
:10A8D00095F8320001287FF42DAF95F8330001A9D7
:10A8E0008DF80400A020FFF785FE286901283FF4B9
:10A8F00024AF28E700F0B6F9019001F013FE40F212
:10A900003900C0F20000ADF8100004A824E0304681
:10A9100000F0A8F9042814D1049C01F003FE4C4572
:10A9200023D940F23C00C0F20000ADF8040001A8B9
:10A9300001F0F4FE04A800F0ECF901F043FE01F090
:10A9400004FF019001F0EEFD40F23D00C0F2000076
:10A9500027F81A0CA7F11A0001F0E0FE01A800F098
:10A96000EBF901F02FFE01F0F0FE40F23B00C0F2E7
:10A97000000086E60168B1F5005F19DBB1F5405FC4
:10A980003BDDB1F5485F4CDBB1F54C5F80F269808F
:10A99000A1F54850DFE810F006001101D500ED00E8
:10A9A000A50041014EF6C010C0F2020001F0D1BE78
:10A9B000B1F5805F46DA01314EF69810C0F2020020
:10A9C000DFE811F01500BD008300A7006B00E30075
:10A9D0000701B300250177001F0165007100F50034
:10A9E0005F00A1005900D1000D014901DD004EF6C4
:10A9F0009910C0F2020001F0ACBEA1F50050DFE8F2
:10AA000010F00A00F400A600CA00760012011E0130
:10AA1000E20024018E004EF6B010C0F2020001F0F8
:10AA200098BE43F20100081ADFE810F00600E500C6
:10AA30009700BB00670003014EF6BA10C0F2020097
:10AA400001F087BE3BD041F20100814219BF4EF6B2
:10AA5000AF10C0F202004EF6AE10C0F2020001F0DC
:10AA600078BE38D0B1F5505F65D14EF6C710C0F250
:10AA7000020001F06EBE4EF6A810C0F2020001F016
:10AA800068BE4EF6A610C0F2020001F062BE4EF69D
:10AA9000A310C0F2020001F05CBE4EF69C10C0F2A2
:10AAA000020001F056BE4EF6A410C0F2020001F002
:10AAB00050BE4EF6A110C0F2020001F04ABE4EF6A2
:10AAC000AD10C0F2020001F044BE4EF69A10C0F282
:10AAD000020001F03EBE4EF6C610C0F2020001F0C8
:10AAE00038BE4EF6C410C0F2020001F032BE4EF67F
:10AAF000B410C0F2020001F02CBE4EF6BE10C0F23F
:10AB0000020001F026BE4EF6A710C0F2020001F0CE
:10AB100020BE4EF69B10C0F2020001F01ABE4EF6A7
:10AB2000B910C0F2020001F014BE4EF69F10C0F240
:10AB3000020001F00EBE4EF6C810C0F2020001F095
:10AB400008BE4EF6C210C0F2020001F002BE4EF680
:10AB5000B210C0F2020001F0FCBD4EF6BC10C0F213
:10AB6000020001F0F6BD4EF6A910C0F2020001F09D
:10AB7000F0BD4EF6C310C0F2020001F0EABD4EF681
:10AB8000AC10C0F2020001F0E4BD4EF69D10C0F220
:10AB9000020001F0DEBD4EF6B310C0F2020001F07B
:10ABA000D8BD4EF6BD10C0F2020001F0D2BD4EF687
:10ABB000A510C0F2020001F0CCBD4EF6C110C0F2EB
:10ABC000020001F0C6BD4EF6B710C0F2020001F05F
:10ABD000C0BD4EF69E10C0F2020001F0BABD4EF6A6
:10ABE000AA10C0F2020001F0B4BD4EF6B110C0F2DE
:10ABF000020001F0AEBD4EF6BB10C0F2020001F043
:10AC0000A8BD4EF6A210C0F2020001F0A2BD4EF6A1
:10AC1000A010C0F2020001F09CBD4EF6C510C0F2BB
:10AC2000020001F096BD4EF6B510C0F2020001F030
:10AC300090BD4EF6BF10C0F2020001F08ABD4EF684
:10AC4000B610C0F2020001F084BD4EF6B810C0F29A
:10AC5000020001F07EBD4EF6AB10C0F2020001F022
:10AC600078BDD4D401464FF0FF30B1F5005F13DB5F
:10AC7000B1F5405F21DDB1F5485F29DBB1F54C5FEF
:10AC800080F23B80A1F54852052A88BF7047DFE873
:10AC900002F0383838383838B1F5805F22DA1329B5
:10ACA00030D8DFE801F02E2E2E2E2E2E2E2E2E2E18
:10ACB0002E2E2E2E2E2E2E2E2E2EA1F50052092AAD
:10ACC00020D8DFE802F01E1E1E1E1E1E1E1E1E1EA7
:10ACD00043F201028A1A052A14D8DFE802F01212A0
:10ACE000121212121CBF41F20102914209D041F22C
:10ACF0000202914208BF0846704718BFB1F5505F85
:10AD000001D10846704743F20142914208BF08460C
:10AD10007047D0B502AF82B0044640F20400C0F2E2
:10AD2000000027F80A0CA7F10A0001F0B6FC204643
:10AD300001F09BFC02B0D0BDD0B502AF82B004469A
:10AD400040F23F00C0F2000027F80A0CA7F10A0009
:10AD500001F0A3FC2046FFF70DFE02B0D0BDF0B518
:10AD600003AF4DF8048D054601F0F4F9D5E900462E
:10AD700080460020286054B1A16830468847D5E954
:10AD80000010C5E9004600291CBFC9688847404635
:10AD90005DF8048BBDE8F04001F0E3B970477047FF
:10ADA0006FF0010252FA81F2022A12D2B0F800C00A
:10ADB0006FEA5C0191FAA1F1B1FA81F106290AD892
:10ADC0000131012202FA01F313EA0C0F0ED01046F2
:10ADD0007047C9B209B901207047B0F800C0082116
:10ADE000012202FA01F313EA0C0FF0D143EA0C023C
:10ADF0000280002070474EF6004049F27531C4F2DF
:10AE0000060003220160C0F8142101600268002AD4
:10AE10004FF0C00208BF01604261016070474EF60A
:10AE2000004049F27532C4F206000168002904BFEF
:10AE300049F2753101600021416102600260C0F891
:10AE400014110260704740F2284041F20451C2F2EE
:10AE50000200C4F20101006B096800F0010281EAFE
:10AE6000C251420A11EBC05042F10001704780B557
:10AE70006F4640F2284CC2F2020C9CF83410BFF32B
:10AE80005F8F07E00022BFF32F8FD207BFF35F8FE2
:10AE900040F08180CBB2032B4FF0000038BF01207F
:10AEA000022B79D80CF1340EDEE84F2F9A420ED1E6
:10AEB0000131BFF35F8FCEE8431F0021002B08BF95
:10AEC0004FF0FF31C907BFF35F8F07D065E0002166
:10AED000BFF32F8FC907BFF35F8F5ED1032A4FF0F7
:10AEE000000038BF0120022A56D8DEE84F1F9142E9
:10AEF0000ED10132BFF35F8FCEE8432F0022002B2B
:10AF000008BF4FF0FF32D207BFF35F8F07D042E098
:10AF10000022BFF32F8FD207BFF35F8F3BD10329EE
:10AF20004FF0000038BF0120022935D8DEE84F2F4E
:10AF30008A420ED10131BFF35F8FCEE8431F00215B
:10AF4000002B08BF4FF0FF31C907BFF35F8F07D059
:10AF500023E00021BFF32F8FC907BFF35F8F1CD100
:10AF6000032A4FF0000038BF0120022A14D8DEE87F
:10AF70004F1F91427FF486AF0132BFF35F8FCEE85F
:10AF8000432F0022002B08BF4FF0FF32D207BFF340
:10AF90005F8F3FF47FAF80BD80BD114680BDF0B5AF
:10AFA00003AF4DF804BD0D4640F22841C0B2C2F2D5
:10AFB0000201144601EB001601F0CCF8C6E9025478
:10AFC0005DF804BBBDE8F04001F0CBB8F0B503AFCD
:10AFD0002DE9000740F22845C4B298469246260162
:10AFE000C2F2020501F0B6F805EB041245F806A01E
:10AFF00041F20831C2F80480C4F201012B6BD1F890
:10B00000FC6103F0010586EAC5565D0A16EBC356DE
:10B0100045F10009B6EB0A0379EB08031FD2F21CD5
:10B0200049F10003B2EB0A0573EB080338BF52463F
:10B0300001EB840322F07F42C3F83822BAEB060307
:10B040004FF4803268EB0905B3F5400302FA04F2CD
:10B0500075F1000334BF41F8042C0A6007E04FF497
:10B060008033A3400B604FF0FF31C2E9001101F0C3
:10B0700078F8B6EB0A014FF0000079EB080138BF11
:10B080000120BDE80007F0BDF0B503AF2DE9000BCE
:10B090004FF6006041F20439CFF6FF70C4F20109A7
:10B0A00059F8001040F22846C2F20206012932D1B6
:10B0B000002149F8001001F04DF856E80C1F01314D
:10B0C00046E80C12002AF8D1D6E900344A0A4FF4B7
:10B0D000400515EBC15142F100025B1A74EB02030B
:10B0E0003CBF4FF48033C9F80030D6E904355B1A11
:10B0F00075EB02033CBF4FF40033C9F80030D6E9CA
:10B100000835591A75EB02013CBF4FF48021C9F88C
:10B11000001001F026F84FF64860CFF6FF7059F89E
:10B120000010012932D1002149F8001001F012F875
:10B1300056E80C1F013146E80C12002AF8D1D6E976
:10B1400000354A0A4FF4400414EBC15142F10002A9
:10B150005B1A75EB02033CBF4FF48033C9F8003033
:10B16000D6E904355B1A75EB02033CBF4FF400339C
:10B17000C9F80030D6E90835591A75EB02013CBF11
:10B180004FF48021C9F8001000F0EBFF4FF63C604F
:10B190004FF0FF38CFF6FF7059F80010012911D198
:10B1A000002149F8001000F0D5FF04464FF480302C
:10B1B000C9F80400D6E90210C6E90088884720468D
:10B1C00000F0CFFF4FF64060CFF6FF7059F8001047
:10B1D000012911D1002149F8001000F0BBFF0446FD
:10B1E0004FF40030C9F80400D6E90610C6E9048817
:10B1F0008847204600F0B5FF4FF64460CFF6FF7059
:10B2000059F80010012915D1002149F8001000F06B
:10B21000A1FF04464FF48020C9F80400D6E90A10C3
:10B22000C6E9088888472046BDE8000BBDE8F04025
:10B2300000F097BFBDE8000BF0BD4EF60C50CEF20B
:10B240000000BFF34F8F01680422C0F2FA5201F4EC
:10B25000E06111430160BFF34F8F00BFFDE7F0B520
:10B2600003AF2DE9000B82B0814600F073FF40F27E
:10B270005451C2F202010A78012A00F0DF81012252
:10B280000A7000F06EFF99F8030041F2082840F2BE
:10B290000015C1F20008C4F20005002800F0838008
:10B2A000012840F0D780D8F80000002800F0D280B4
:10B2B0004EF200400121C4F20100C0F804110168FF
:10B2C000C90709D10168C90704BF01685FEAC171F4
:10B2D00002D10168C907F2D00021C8F80010016846
:10B2E000C90709D10168C90704BF01685FEAC171D4
:10B2F00002D10168C907F2D00021C0F80411016829
:10B30000C90709D10168C90704BF01685FEAC171B3
:10B3100002D10168C907F2D04FF0010C58F8081C9F
:10B32000122900F09E8001F012020121122A40F041
:10B330009F804EF20042C4F20102C2F8041111686B
:10B34000C90709D11168C90704BF11685FEAC17153
:10B3500002D11168C907F2D0122148F8081C1168FF
:10B36000C90709D11168C90704BF11685FEAC17133
:10B3700002D11168C907F2D00021C2F80411116886
:10B38000C90709D11168C90704BF11685FEAC17113
:10B3900002D11168C907F2D00021012258F8043CFB
:10B3A000122B6AD1A1E040F20410C1F20000006843
:10B3B000C0F3072045284DD9D8F80000B0F15A0154
:10B3C00000F05A00A0F15A0018BF0121B0FA80F035
:10B3D000400901EA000CBCF1010F33D14EF20041EB
:10B3E0000120C4F20101C1F804010868C00709D1B5
:10B3F0000868C00704BF08685FEAC07002D1086827
:10B40000C007F2D05A20C8F800000868C00709D168
:10B410000868C00704BF08685FEAC07002D1086806
:10B42000C007F2D00020C1F804010868C00709D1A4
:10B430000868C00704BF08685FEAC07002D10868E6
:10B44000C007F2D05A20C5F8580458F8081C122931
:10B4500007D068E74FF0000C58F8081C12297FF459
:10B4600062AF0022002158F8043C122B05D13CE0C9
:10B47000002258F8043C122B37D003F01206122E8B
:10B480003DD14EF200460120C4F20106C6F8040187
:10B490003068C00709D13068C00704BF30685FEA70
:10B4A000C07002D13068C007F2D0122048F8040CF6
:10B4B0003068C00709D13068C00704BF30685FEA50
:10B4C000C07002D13068C007F2D00020C6F8040175
:10B4D0003068C00709D13068C00704BF30685FEA30
:10B4E000C07002D13068C007F2D0B3F1120018BFAB
:10B4F000012040EA02004CEA000611B90EE04CEAD5
:10B50000020601F00FF840F25200C0F20000ADF860
:10B51000040001A801F002F901F054F8D8F8040081
:10B52000C00740F09B80002E40F0CD8099F80000CD
:10B5300080B10020012128604FF080400160286820
:10B5400040B92868002804BF2868002802D128686C
:10B550000028F4D099F804004EF64C21C0F2020104
:10B5600051F82000C5F8180400206860012045F853
:10B57000F80C686840B96868002804BF686800284B
:10B5800002D168680028F4D099F8010040F22051F7
:10B590004EF2064CC5F2000100281CBF0120C5F880
:10B5A000800499F8020001264FF0FF33CEF2000C20
:10B5B00000281CBF0120C5F878044EF2001099F84D
:10B5C0000520CEF20000402546F204344E600B60A8
:10B5D000C4F20004C1F80463C1F800334FF0004125
:10B5E000C0F880518CF8002041F20452056099F8AF
:10B5F0000630C4F201024FF40005216041F200015F
:10B6000095640225C4F20101C0F20805C1F8045393
:10B610008E600E60116841B1116800291CBF11686D
:10B62000002902D011680029F4D14FF400318CF8C0
:10B630000B30016002B0BDE8000BF0BD00F072FFFE
:10B6400040F25100C0F2000027F81A0CA7F11A00CE
:10B6500001F064F800F0B6FF01F077F84EF2004018
:10B660000121C4F20100C0F804110168C90709D121
:10B670000168C90704BF01685FEAC17102D10168AE
:10B68000C907F2D06FF00101C8F804100168C907BA
:10B6900009D10168C90704BF01685FEAC17102D11D
:10B6A0000168C907F2D00021C0F804110168C90778
:10B6B00009D10168C90704BF01685FEAC17102D1FD
:10B6C0000168C907F2D0FFF7B8FDF0B503AF2DE967
:10B6D00000074FF6F85046F20834CFF6FF70C4F278
:10B6E0000004205838B10120206040F25850C2F2C6
:10B6F000020000F096F94FF6FC5040F25855CFF694
:10B70000FF70C2F20205205828B10220206005F126
:10B71000080000F086F94FF60060CFF6FF70205861
:10B7200028B10420206005F1100000F07AF94FF6EE
:10B730000460CFF6FF70205828B10820206005F182
:10B74000180000F06EF94FF60860CFF6FF70205831
:10B7500028B11020206005F1200000F062F94FF6BA
:10B760000C60CFF6FF70205828B12020206005F132
:10B77000280000F056F94FF61060CFF6FF70205801
:10B7800028B14020206005F1300000F04AF94FF662
:10B790001460CFF6FF70205828B18020206005F19A
:10B7A000380000F03EF94FF67460CFF6FF70215874
:10B7B000002958D0002140F2985A215040F22054DC
:10B7C000C5F20004D4F80080C2F2020AB8F1000FFA
:10B7D0001CD098FAA8F04FF00109B0FA80F645465F
:10B7E000202E43D204EB8600D0F8E01121F4403142
:10B7F000C0F8E0110AEBC60000F013F909FA06F0F0
:10B80000854395FAA5F0B0FA80F6E9D1C4F8008036
:10B81000D4F80083B8F1000F23D098FAA8F04FF0C5
:10B820000109B0FA80F146461F291FD804EB8100B8
:10B83000D0F8E02422F44032C0F8E02441F02000A7
:10B840002F281BD801F01F010AEBC00009FA01F1F3
:10B850008E4300F0E6F896FAA6F0002EB0FA80F1DA
:10B86000E2D1C4F80083BDE80007F0BD4EF62C22FB
:10B870002020C0F20202202101F042F84EF63C22C4
:10B880003021C0F2020201F03BF8D0B502AF40F225
:10B890001C14C4F20004206838B10020206040F27B
:10B8A000C040C2F2020000F0BCF8606868B100203D
:10B8B000606040F2C040C2F2020000F0B2F840F214
:10B8C0001870C2F2020000F0ACF8A06848B1002085
:10B8D000A06040F21870C2F20200BDE8D04000F053
:10B8E000A0B8D0BD40F23840C4F20000006800F0BB
:10B8F00001007047FEE7704702784EF660204EF672
:10B900006121C0F20200C0F20201002A18BF0846FD
:10B9100000F01FBF00F01DBFF0B503AF4DF804BD30
:10B920000C460546002600F00DFC421951EB0402BE
:10B9300046F10002012A06D040194FF00002614191
:10B940005DF804BBF0BD4EF662204EF6EC22C0F26C
:10B950000200C0F20202282100F032FFB0B502AFAF
:10B960000446007A0D4658B100F0ECFB02460B4647
:10B97000D4E90001121A73EB010203D30020B0BD19
:10B98000D4E900012A6800F0DBFB01202072B0BD81
:10B9900080B56F4682B000F0D5FB43F60952A0FB9C
:10B9A000020301FB0231400A40EAC1500090480AFC
:10B9B0000190684600F064FE02B080BDF0B503AFB0
:10B9C0002DE9000B0C46064600F0C4FB8046D6E984
:10B9D0000059D4E90010002232601DB18D4208BF29
:10B9E000814516D0096888470246D6E90030C6E985
:10B9F0000021002B1CBFD9688847002D1EBFE968B5
:10BA0000484688474046BDE8000BBDE8F04000F0DE
:10BA1000A8BB35604046BDE8000BBDE8F04000F033
:10BA2000A0BBF0B503AF4DF8048D054600F092FBC6
:10BA3000D5E9004680460020286054B1A168304610
:10BA40008847D5E90010C5E9004600291CBFC96830
:10BA5000884740465DF8048BBDE8F04000F081BBAC
:10BA6000F0B503AF4DF804BD066804460A6836B168
:10BA700048689642656808BF854202D10DE0656856
:10BA8000486811688847C4E9000136B171682846E2
:10BA90005DF804BBBDE8F04008475DF804BBF0BDAD
:10BAA0000146D0E900200023002A0B6008BF704740
:10BAB0005168084780B56F4682B040F20100C0F27D
:10BAC000000027F8020CB81E00F0E7FD02B080BDB0
:10BAD000D0B502AF82B0044600F036FBC0071FBFEE
