:020000022000DC
:1060000000000420016102004DC30200EDE7020020
:106010004DC302004DC302004DC30200000000004A
:106020000000000000000000000000004DC302005E
:106030004DC30200000000004DC302004DC302002A
:106040004DC302004DC302004DC302004DC3020008
:106050004DC302004DC302008DC102004DC30200BA
:106060004DC302004DC302004DC302004DC30200E8
:106070004DC302004DC302004DC302004DC30200D8
:106080004DC302005BBB02004DC302004DC30200C2
:106090004DC302004DC30200639202004DC30200D3
:1060A0004DC302004DC302004DC302004DC30200A8
:1060B0004DC302004DC302000000000000000000BC
:1060C0004DC302004DC302004DC302004DC3020088
:1060D0004DC302004DC302004DC302004DC3020078
:1060E0004DC302004DC302004DC30200000000007A
:1060F000000000004DC30200000000004DC302007C
:1061000006F025F90E480F490022814201D004C053
:10611000FBE70D480D490E4A814202D008CA08C06B
:10612000FAE70C484FF47001026842EA010202608B
:10613000BFF34F8FBFF36F8F02F034FA00DE000021
:1061400078000220C88C0220000002207800022083
:1061500010FB020088ED00E070470020704700212E
:106160000180704770470020704700210170704720
:10617000F0B503AF2DE9000F8BB00B889246056890
:10618000102B16D000221B2B12D0262B73D040F2DE
:106190006E000693C0F20000ADF8100004A806F0EF
:1061A00054FF06A800F0ACFF06F091FE06F08BFF4E
:1061B00061E002900E464068B1F804800468C87B34
:1061C00003F00AFD07F8390C40F22800C0F2000085
:1061D000B168ADF8180006A8D6F80B200491D6E9EE
:1061E00004B9CDF8132006F030FF40F28800C0F269
:1061F0000000ADF8180006A806F0E6FEA7F1390089
:1062000003F091FD40F20C0006AEC0F20000ADF8C4
:106210001800304606F0D8FE04A803F0FDFC4FF24B
:10622000D820C0F2020006F0CFFE06F050FED4E9FE
:10623000000217F8391C049BCDE90002F21CCDF8CE
:106240001B3006F10A03DDF813404046CDF82690D6
:10625000CDF822B0ADF818808DF81A10CDF81E4098
:1062600002F01FFCC00704D01421404676DF012253
:1062700000E003220298C9B28468C5E9002103F056
:1062800060FDD4E900320226A168012B266004D10A
:106290005268054608469047284603F07DFD0020D9
:1062A000CAF800000BB0BDE8000FF0BDD0B502AFDA
:1062B00086B004464FF25870C0F202000021CDE9CA
:1062C00000046A4694F84C000491CDE9022258B1CA
:1062D000032826D194F8480058B1032827D194F810
:1062E000440080B9A06A08E0206A84F8481060621F
:1062F00000E0606A84F84410A062C4E90B10C4E9AD
:106300000D11C4E90F1104F12C0002A901F015FCD4
:10631000032084F84C0084F8480084F8440006B058
:10632000D0BD4EF6FC10C0F2020008F001F84EF6A7
:106330005C00C0F2020007F0FBFFD4D4F0B503AF5D
:106340002DE9000F95B083464FF25870C0F202005D
:106350000024CDE9030B03A80794CDE905009BF8C1
:106360008A0040B3032840F00E829BF818010BF11D
:106370008C080BF58C76002800F0E380032840F0B1
:10638000CA829BF815010BF21512002800F02A8230
:10639000032840F0C682DA4602921AF8EC0F002871
:1063A00000F03C82032800F065814EF67C10C0F2BC
:1063B000020007F0BDFFDBF82000CBF8240040F21C
:1063C0003100C0F20000ADF838000EA806F04FFE14
:1063D00001205D4645F8280F062241F2000140F2F7
:1063E000010CAA7740F20112C0F2033285F83400A2
:1063F000AA624FF00912A883C0F20211C5E9032076
:1064000040208DF83E004FF480404EF60C23C5F836
:1064100035101821ADF83C000EA8C5E90814C0F2EB
:10642000001C4FF4B061C0F202034FF48076AC85DB
:106430006C86C5F82E40C5E90163C5E9051C0E94BC
:1064400005F076FC40F208584FF40040C5F2000811
:10645000C8F804000320C8F83402284603F0ADFF52
:1064600005464EF630220EA8C0F202022946082345
:1064700001F061FC0FABBDF838600DF1280C139CE6
:106480000FCB0991BDF83A108CE81C00F20740F0E0
:106490000D8209AE0C9CCBF8760028464CCEABF8AA
:1064A0007410CBF87A20CBF87E30CBF88260CBF832
:1064B000864001F0B8FF002800F00A820146DBF8B0
:1064C000240006F09AF804200023C8F800024FF4D4
:1064D0000070C8F800000320C8F81C02D84608F86D
:1064E0008C3F4FF23036C0F202064FF0180E414694
:1064F00004364EF640294FF2783A4FF2543421F8E0
:10650000283DC8E9016E40F20116C0F2020440467F
:1065100048F81E6C4FF4C876C0F20209C0F2020AB5
:106520004FF0080C043400F88C3F08F8203CC8E910
:10653000034CC8E90551C8E907A948F8246C019043
:1065400004E0DBE92851DBE92AA90196CBE93CA963
:106550004646CBE93E510BF5807C96E83D008CE841
:106560003D0000200BF215128BF815015C4601204E
:1065700044F8B0AF04F1540E029294F8506084F8DD
:10658000640094F851209EE80854C4F80490B4F8CC
:106590005200DFE806F003241A1C0C0010A80022A9
:1065A00080E8085401208DF85100002023E00725E1
:1065B000ADF8390000208DF851508DF83FA0CDF88E
:1065C0003B301290CDE910CE14E0022608E0002006
:1065D000CDE9103A062312908DF851300BE00326D6
:1065E0008DF8392000228DF851600F93ADF83A00F4
:1065F0001292109201208DF838000EA800268DF816
:1066000052208DF8506003F0E7FB03283CD1DA46B6
:1066100040F6E0250AF8EC6FC2F202054AE90D5493
:106620005E464FF0000946F8C04F06F110003446B0
:10663000756244F8049FC6E9076446F8180F05F030
:106640000EF9002800F0EE802868002840F0F6805F
:1066500068684FF0FF312960002840F0498100212F
:106660004EF6FC00C5E90016C0F20200019EA860CB
:10667000CBF8E8400BF1E80005A901F008FAA8B34F
:1066800003208AF8000051E005469BF81401894672
:106690008BF81461012821D140F20000C2F20200FF
:1066A000007874DF02F0ADFE012817D140F24300FC
:1066B0000E91C0F20000ADF8240009A806F0C5FC58
:1066C00040F28700C0F20000ADF8240009A806F0EF
:1066D0007BFC0EA803F07AF806F0F9FB0299012082
:1066E000019E042D087024D03070CCE0DBF8E4402B
:1066F0000020DBE93459CBF8E40054B105F0AFF8E1
:10670000002800F0A1802068002840F0B080002020
:106710006060DBF8C400012803D1DBE93210C968EE
:1067200088470120042D8AF800000AD1029903202D
:106730000870032030708BF88A0015B0BDE8000F98
:10674000F0BD0299032D3070087040F09C8040F23B
:1067500032008BF88C90C0F20000ADF838000EA823
:1067600006F085FC0BF1740100208BF80001CBE9E9
:1067700030810BF18B018BF8A0000BF17800CBE995
:106780002411CBE926080BF1900005A900F026FDA5
:10679000C4B2022C06D104208BF88A0015B0BDE8E3
:1067A000000FF0BD9BF80001032804BF9BF8FC001C
:1067B00003281DD0E0070AD040F234050EACC0F229
:1067C00000052046ADF8385006F051FCF9E740F2DC
:1067D00033050EACC0F200052046ADF8385006F087
:1067E00046FCF9E7DBE93CA9DBF8FC100196BDE6C5
:1067F000DBF8F4500020CBF8F40035B105F02FF8A9
:1068000010B32868C8BB00206860DBF8DC000128F2
:10681000D0D1DBE93810C9688847CBE7DBE92E54D3
:106820000196FDE60120CDF848900F904EF650708D
:10683000C0F20200CDF844900E900FE04FF28010AD
:10684000C0F2020006F060FC012100200F914EF61C
:106850005071C0F2020112900E91119004204EF678
:10686000C87110900EA8C0F2020106F0E3FC4FF2CE
:10687000A010C0F2020006F047FC4FF29010C0F2E8
:10688000020006F041FC4EF684204EF68C13C0F256
:1068900002000EAA00904EF69C10C0F20200C0F258
:1068A00002032B21CDE90E5906F01EFD0E9040F299
:1068B0004F00C0F2000027F83A0CA7F13A0006F0AA
:1068C000C4FB0EA800F009FC06F001FB06F0FBFB80
:1068D00040F24E00C0F20000ADF838000EA806F0FD
:1068E000B4FB0EA800F053FC06F0F1FA06F0EBFB47
:1068F000012100200F914FF2FC01C0F20201129021
:10690000119004200E914FF2701110900EA8C0F259
:10691000020106F08FFC4EF6EC00C0F2020007F018
:1069200007FD4EF6DC00C0F2020007F001FDFFF7A4
:106930001FBC0A46016849B101290FD14EF6CE119C
:106940001046C0F202010A2207F02BBA4EF6C71118
:106950001046C0F20201072207F023BA80B56F4645
:1069600082B0043001904EF6D8104EF6E811C0F215
:10697000020001AB00901046C0F20201032207F0B2
:1069800014FA02B080BDF0B503AF2DE9000F8BB053
:106990000C461168002900F05E812188112917D169
:1069A0001546846803F0CDF9D4E900320226A168C7
:1069B000012B266004D152680446084690472046C1
:1069C00003F0EAF9002028600BB0BDE8000FF0BD2D
:1069D00000682646D0F8009036F8040F01F0CEFE8D
:1069E000C00700F04381208807F8291C502800F0D8
:1069F000A08051282DD0522840F0258140F214006B
:106A0000C0F20000ADF8200008A806F01EFB40F21E
:106A10000600C0F20000ADF8200008A806F0D4FA85
:106A2000304606F0D1FA06F052FA308801F0A6FEA0
:106A3000C00700F00881A7F11F0007F81F1C02F033
:106A40004DF8002800F0E380CA6BA7F11F019047C2
:106A5000F5E0A079CDF81890022840F01681208A40
:106A6000049040F21700C0F20000B4F812B0ADF884
:106A7000200008A8059107F81F1C06F0E6FA40F26E
:106A80000600C0F20000ADF8200008A806F09CFA4D
:106A900004F10806304606F097FA40F20B00C0F207
:106AA0000000ADF8200008A806F08EFA08A8CDF87E
:106AB00020B006F061FA40F20508A7F11E00C0F20E
:106AC000000827F81E8C06F07FFADDF8209004F10C
:106AD000140AB9F1000F08D05546284606F0F7FA17
:106AE000B9F1010905F10105F7D106F0F0F914F843
:106AF0000E2F501EC0B2052840F2F38040F268000D
:106B0000C0F20000ADF8200008A806F09EFA08A820
:106B1000ADF8208006F058FA204606F0D8FA06F0C4
:106B2000D6F9A7F11F0000F001FD0BB0BDE8000F82
:106B3000F0BDE089069040F21500C0F20000B4F804
:106B40001080ADF8200008A806F07FFA40F2060099
:106B5000C0F20000ADF8200008A806F035FAA61D26
:106B6000304606F031FA40F20B00C0F20000ADF8FA
:106B7000200008A806F028FA08A8CDF8208006F022
:106B8000FBF940F20500C0F2000027F81E0CA7F147
:106B90001E0006F019FADDF820B004F1120ABBF16C
:106BA000000F08D05546284606F091FABBF1010BBC
:106BB00005F10105F7D106F08AF914F80C3F581ECB
:106BC000C0B206280BD23288A7F129010698CDE978
:106BD000000A4846CDF8088001F0C1FB33E040F2DE
:106BE0006700C0F20000ADF8200008A806F02DFAFA
:106BF00040F20500C0F20000ADF8200008A806F041
:106C0000E3F9204606F063FA06F061F91BE0A7F10C
:106C10001F00002102F067FC022810D0CDE9080116
:106C200040F23E00C0F2000027F81E0CA7F11E0043
:106C300006F00BFA08A800F089FA06F048F9A7F167
:106C40001F0001F0F2FCA7F1290001F0EEFC0BB0EF
:106C5000BDE8000FF0BD4EF6A4304EF6CC32C0F2C7
:106C60000200C0F20202282106F0EFFA40F26600AC
:106C7000C0F20000ADF8200008A806F0E6F900F028
:106C800078FA06F024F906F01EFA01281ED140F227
:106C900016000E46C0F20000ADF8200008A806F06D
:106CA000D4F940F20600C0F20000ADF8200008A8B8
:106CB00006F08AF904F1080006F086F906F007F9F3
:106CC000E28933462189069800F077FF40F2690097
:106CD000C0F20000ADF8200008A806F0C8F906F0E0
:106CE000F2F90598318802900698049BCDE900AB33
:106CF00000F079FF80B56F4682B0044601F0F2FBE8
:106D000040B10146204605F078FC204605F0FAFC2B
:106D100020BFFAE740F28000C0F2000027F8020C22
:106D2000B81E06F092F900F032FA06F0D0F806F03C
:106D3000CAF9D4D400688C460068B0F5005F19DB4E
:106D4000B0F5405F3DDDB0F5485FC0F25080B0F572
:106D50004C5F80F26D80A0F54850DFE810F006002F
:106D60004F0102012201BD008C014EF63B61C0F2D1
:106D7000020194E1B0F5805F4CDA01304EF6DC316F
:106D80000722C0F20201DFE810F015008B01970026
:106D9000C70077001C014601D7006E01870066011D
:106DA0006F007F0031016800BF00600004014E01E8
:106DB0009E0114014EF6E3316046C0F2020106F076
:106DC000F0BFA0F50050DFE810F00A003601D40053
:106DD00004018F005E016E0121017601AF004EF6C5
:106DE000E341C0F202011422604606F0DABF43F22A
:106DF0000101401ADFE810F006002701C500F2008B
:106E000080004F014EF6CF51C0F202010D226046C4
:106E100006F0C7BF48D041F20101884240F094809B
:106E20004EF6AF41C0F202012222604606F0B9BF21
:106E30004AD0B0F5505F40F08F804EF6EA611722DD
:106E4000C0F20201604606F0ACBF4EF67441C0F2DB
:106E500002010922604606F0A4BF4EF65C4160467E
:106E6000C0F2020106F09DBF4EF64541C0F202019C
:106E70000C22604606F095BF4EF62821C0F20201B2
:106E80000822604606F08DBF4EF65141C0F2020165
:106E90000B22604606F085BF4EF62C41C0F202017F
:106EA0000C22604606F07DBF4EF69A411522C0F2D4
:106EB0000201604606F075BF4EF6EA311122C0F2BB
:106EC0000201604606F06DBF4EF6D2611822C0F294
:106ED0000201604606F065BF4EF69861C0F20201FD
:106EE0001B22604606F05DBF4EF64B51C0F2020118
:106EF0001322604606F055BF4EF617610E22C0F20F
:106F00000201604606F04DBF4EF66441C0F2020138
:106F10000422604606F045BF4EF6FB31C0F2020186
:106F20001422604606F03DBF4EF6BD51C0F202018C
:106F30001222604606F035BF4EF61441C0F202013F
:106F40000C22604606F02DBF4EF6D141C0F2020180
:106F50001222604606F025BF4EF60171C0F2020112
:106F60009DE04EF67061C0F202011422604606F008
:106F700018BF4EF61351C0F202012222604606F0FD
:106F800010BF4EF6F051C0F202011422604606F026
:106F900008BF4EF67D41C0F202010B22604606F0AA
:106FA00000BF4EF68461C0F202011422604606F072
:106FB000F8BE4EF69141C0F202010922604606F089
:106FC000F0BE4EF60F410522C0F20201604606F007
:106FD000E8BE4EF63551C0F2020160E04EF60461A3
:106FE000C0F202011322604606F0DBBE4EF63821E5
:106FF000C0F202010822604606F0D3BE4EF651618F
:10700000C0F202011F22604606F0CBBE4EF693513D
:10701000C0F2020143E04EF61821C0F2020108223C
:10702000604606F0BEBE4EF66841C0F20201042280
:10703000604606F0B6BE4EF6F7411C22C0F20201D1
:10704000604606F0AEBE4EF6DC51C0F202011422DC
:10705000604606F0A6BE4EF63841C0F202010D228F
:10706000604606F09EBE4EF62041C0F202010C22A0
:10707000604606F096BE4EF6B361C0F202011F22D2
:10708000604606F08EBE4EF65E51C0F202011B2233
:10709000604606F086BE4EF62561C0F20201162259
:1070A000604606F07EBE4EF679511A22C0F2020109
:1070B000604606F076BE4EF6A951C0F202011422D7
:1070C000604606F06EBE4EF68841C0F2020109220B
:1070D000604606F066BEFFF756BCD0B502AF82B080
:1070E000044640F28400C0F2000027F80A0CA7F121
:1070F0000A0005F069FF204602F05BFD02B0D0BD3A
:10710000D0B502AF82B0044640F20700C0F20000E2
:1071100027F80A0CA7F10A0005F056FF204605F0F3
:107120002BFF02B0D0BDD0B502AF82B0044640F212
:107130008700C0F2000027F80A0CA7F10A0005F04A
:1071400043FF204602F042FB02B0D0BDD0B502AFF3
:1071500082B0044640F28600C0F2000027F80A0C14
:10716000A7F10A0005F030FF204602F0FEFC02B055
:10717000D0BD80B56F4682B040F20100C0F2000081
:1071800027F8020CB81E05F01FFF02B080BD80B5C5
:107190006F4682B040F29400C0F2000027F8020C63
:1071A000B81E05F011FF02B080BDD0B502AF82B0AD
:1071B000044640F20C00C0F2000027F80A0CA7F1C8
:1071C0000A0005F001FF204605F06DFF4FF2D820C0
:1071D000C0F2020005F0F8FE02B0D0BDF0B503AF7A
:1071E0002DE9000F87B0044690F870008A4670B110
:1071F000032840F01A81A04618F86C0F48B3032802
:1072000055D04EF69430C0F2020007F091F8206B92
:107210000078142880F00F81742140F2840200FB72
:1072200001F3C2F20202D35CDB076DD010FB012038
:10723000D4F83490408802F09AF906460020A0461F
:1072400008F86C0F08F1050048E90D6948F82C0CA6
:1072500002E0D4E90E69206C25464FF0000B45F89A
:10726000449F05F12901A946686049F808BFC5E9AE
:107270000551C5E9079604F0F2FA002800F0AA804B
:107280003068002840F0B28070684FF0FF31316004
:10729000002840F0D7804EF6143105F11400C0F2FA
:1072A00002010022C6E90020B160C4F8689004F130
:1072B0006800514600F0EBFB68B1032040F2105625
:1072C00084F87000C5F2000684F86C00207C18B3C6
:1072D00003282FD0C9E0656E0020606655B104F028
:1072E000BEFA002800F088802868002840F09780C7
:1072F00000206860E06C012803D1D4E91410C9684B
:107300008847012088F80000012084F870000020E0
:1073100007B0BDE8000FF0BD68464FF4803200238F
:1073200005F016F8DDE900019DF80820C4E9060122
:1073300084F8202004F11800514605F02FF808B118
:107340000320EDE000204FF48071C4F81A00C4F867
:107350001600A1823168C007490740F193800028D8
:1073600040F091804FF40040042146F8080C0823B7
:10737000D4E90220217601212175118904F1160238
:1073800002F076F8022809D140F23000C0F2000085
:10739000ADF80000684605F06AFEAEE0CDE90001F8
:1073A00040F24D00C0F2000027F81E0CA7F11E00AD
:1073B00005F04BFE40F28500C0F2000027F81E0CDD
:1073C000A7F11E0005F000FE684602F0CEFB05F0B6
:1073D0007EFD92E00120CDF810B001904EF6507085
:1073E000C0F20200CDF80CB000900FE04FF2801018
:1073F000C0F2020005F088FE0121002001914EF646
:107400005071C0F202010490009103904EF6C871D1
:1074100004200290C0F20201684605F00BFF4FF213
:107420009010C0F2020005F06FFE4EF60430C0F27C
:10743000020006F07DFF4FF2C4021421C0F20202E6
:1074400005F034FF0121002001914FF2FC01C0F250
:107450000201049000914FF27011039004200290F9
:10746000C0F20201684605F0E5FE04F12000514635
:1074700004F094FF002852D1207D3168C0074907ED
:107480003FF56DAFC8B33068400736D44FF40040C5
:10749000002246F8040C0823D4E90210227604F1F5
:1074A0001602098901F0E4FF022809D140F23000F8
:1074B000C0F20000ADF80000684605F0D8FD1AE003
:1074C000CDE9000140F24D00C0F2000027F81E0C8B
:1074D000A7F11E0005F0B9FD40F28500C0F20000E2
:1074E00027F81E0CA7F11E0005F06EFD684602F09D
:1074F0003CFB05F0ECFC00202075607DA4220023FD
:1075000080F001006075684604F022FFDDE90001AB
:107510009DF80820C4E9080184F82820A5E7042084
:107520002074022007B0BDE8000FF0BDF0B503AF36
:107530004DF804BD86B0044640F23B00C0F20000A6
:10754000ADF8040001A805F080FD40F20500C0F28E
:107550000000ADF8040001A805F036FD4EF61770E6
:10756000C0F2020005F0B3FD05F0B1FC204601F0C9
:10757000E9F880B201281BD10020CDE903008DF885
:107580000A004FF48570ADF8080002208DF8040061
:1075900088B201A9B0DF01F034FF064620460D464F
:1075A00001F043F8012E08D006B05DF804BBF0BD31
:1075B000204601F03AF843F2020540F23C00019502
:1075C000C0F2000027F8120CA7F1120005F03DFDF3
:1075D00040F28700C0F2000027F8120CA7F1120059
:1075E00005F0F2FC01A802F0F1F805F070FC06B01D
:1075F0005DF804BBF0BDF0B503AF4DF804BD86B037
:10760000044640F23B00C0F20000ADF8040001A8BF
:1076100005F01BFD40F20500C0F20000ADF80400CB
:1076200001A805F0D1FC4EF61870C0F2020005F07A
:107630004EFD05F04CFC204601F084F880B2012894
:107640001BD10020CDE903008DF80A004FF48570AE
:10765000ADF8080001208DF8040088B201A9B0DF60
:1076600001F0CFFE064620460D4600F0DEFF012E5B
:1076700008D006B05DF804BBF0BD204600F0D5FF91
:1076800043F2020540F23C000195C0F2000027F8E9
:10769000120CA7F1120005F0D8FC40F28700C0F2EE
:1076A000000027F8120CA7F1120005F08DFC01A8CC
:1076B00002F08CF805F00BFC06B05DF804BBF0BDE1
:1076C000F0B503AF4DF804BDA4B0096840F6D8206A
:1076D000C2F2020004F0CEF8802601A827F81A6C46
:1076E000A7F11A0161DF01F08CFE70B901ACA7F1BE
:1076F0001A05204601F051FF27F81A6C294620464A
:1077000061DF01F07EFE0028F3D005291CBF43F2A3
:107710000100814203D124B05DF804BBF0BD0C2907
:107720000AD140F25D00C0F20000ADF8880022A846
:1077300005F09DFC05F0C7FC40F25E002291C0F20E
:10774000000027F8120CA7F1120005F07EFC22A819
:10775000FFF7E9FC05F0BBFB05F0B5FCB0B502AFE7
:1077600084B00968046840F6D020C2F2020004F038
:1077700081F80020019001A84BDF01F042FE50B9D2
:1077800001AD0198214600F01EF928464BDF01F0BB
:1077900038FE0028F5D0052904BF04B0B0BD40F282
:1077A0005C000291C0F2000027F80A0CA7F10A0061
:1077B00005F04BFC02A8FFF7B6FC05F088FB05F0CE
:1077C00082FCF0B503AF2DE9000F89B0BD68834698
:1077D0008A4698469146D5E90064A87B8DF820003A
:1077E00007A8D5F80A10079101F01CFEADF81800A3
:1077F000000C06AA8DF81A0028894346F968CDE9DD
:1078000002025846049151464A46CDE9006402F00E
:10781000B1FB09B0BDE8000FF0BDF0B503AF2DE935
:10782000000B88B0BD6804460E4698469146A8797C
:107830008DF81C0006A8D5F80210069101F0F2FDA3
:10784000ADF81400000C05AA8DF816002888012355
:10785000F9680735CDE902022046CDE900534A46D2
:1078600004913146434602F085FB08B0BDE8000BA9
:10787000F0BDF0B503AF2DE9000B88B0BD6804463C
:107880000E4698469146A87A8DF81C0006A8D5F8B1
:107890000610069101F0C6FDADF81400000C05AA13
:1078A0008DF81600A8880423F968CDE90202204665
:1078B000CDE900534A4604913146434602F05AFB53
:1078C00008B0BDE8000BF0BDF0B503AF2DE900072F
:1078D00088B0BD6804468A4698469146A87A8DF8D5
:1078E0001C0006A8D5F806102E68069101F09AFD36
:1078F000ADF81400000C05AA8DF81600A888012325
:10790000F968CDE902022046CDE900634A460491B8
:107910005146434602F02EFB08B0BDE80007F0BD1B
:10792000F0B503AF2DE9000B88B0BD6804460E46E4
:1079300098469146A87B8DF81C0006A8D5F80A1039
:10794000069101F06FFDADF81400000C05AA8DF84A
:10795000160028890823F968CDE902022046CDE9FE
:1079600000534A4604913146434602F003FB08B0F7
:10797000BDE8000BF0BDF0B503AF2DE9000B88B0FA
:10798000BD6804460E4698469146287A8DF81C003C
:1079900006A86968069101F045FDADF81400000CD9
:1079A00005A98DF8160068880222CDE9020120465B
:1079B000CDE9005231464A46434602F07BFC08B00E
:1079C000BDE8000BF0BD80B56F4684B0019040F279
:1079D0001100C0F2000027F8060CB81F05F035FBB7
:1079E00040F20700C0F2000027F8020CB81E05F0B4
:1079F000EBFA01A805F0C0FA05F069FA0198011F39
:107A0000082928BF022801D204B080BD05D0032870
:107A100007D101F096FC04B080BD01F031FC04B048
:107A200080BD40F25B00C0F20000ADF80C0003A87E
:107A300005F00BFB01A8FFF763FB05F048FA05F022
:107A400042FB0168012902D102210160FEDE80B5FE
:107A50006F4686B00121002001914FF26021C0F2F3
:107A60000201049000914FF2C8210390042002907B
:107A7000C0F20201684605F0DDFB0022016080F8DB
:107A80006A2070470022016080F82C207047F0B512
:107A900003AF2DE900070C68066802F052F996E87A
:107AA00002050025356019B301291BD1D4E9002155
:107AB0008A4508BF904538D01268814608469047ED
:107AC0000246D6E90053B0680124012DC6E9004200
:107AD000B16004BFD9688847D8F804105046884779
:107AE0000125484602F058F92846BDE80007F0BDD8
:107AF000D4E900210446084612689047D6E9003EC2
:107B00000246D6F808C001252046012BC6E90052DE
:107B1000B160E7D1DEF80C1060468847204602F0DD
:107B20003BF92846BDE80007F0BD0125356002F0AD
:107B300033F92846BDE80007F0BDB0B502AF0446F2
:107B4000006820B1E068F0B12046FFF77AFF2046D8
:107B500010F8092F52B1032A29D1227A012A07D11C
:107B60004FF21820C0F2020006F0E2FB002222725F
:107B70000D46FFF7A5FDE06840F203322946228159
:107B8000002818BFB0BD207D38B1032808D04FF2BF
:107B90002820C0F2020006F0CBFB04F115002061A2
:107BA00004F11000FFF7DAFD03202075B0BD4FF29D
:107BB0004400C0F2020006F0BBFB80B56F4684B003
:107BC00001A88DF80A300192ADF8081000F0B0F865
:107BD00040F26400C0F2000027F8020CB81E05F065
:107BE00046FA05F070FA80B56F4684B03869D7E977
:107BF00002CE8DF80F0068468DF80E20ADF80C10FF
:107C00000293CDE900CE00F090F840F26500C0F29A
:107C10000000ADF80000684605F029FA05F053FAB7
:107C200080B56F4682B040F26000C0F2000027F8D5
:107C3000020CB81E05F01BFA05F045FA80B56F4638
:107C400084B00846002101F04EFC022818D0CDE98E
:107C5000010140F23D00C0F20000ADF80C0003A8A5
:107C600005F0F3F940F28600C0F2000027F8020C9C
:107C7000B81E05F0A9F901A801F077FF05F027F972
:107C800004B080BD80B56F4682B040F25F00C0F2A4
:107C9000000027F8020CB81E05F0E9F905F013FA08
:107CA000B0B502AF82B00446A7F10D0003F021FD8C
:107CB00017F80D0C00F06F05002001F0ACFB60F32D
:107CC0000415830745F0200217F8091C58BF05F07A
:107CD0005F0242F04003400758BF02F03D0303F04B
:107CE0007D0007F80D0C57F80D0C2171206002B0D3
:107CF000B0BD80B56F4682B040F26100C0F20000B6
:107D000027F8020CB81E05F0B2F905F0DCF980B5D1
:107D10006F4682B040F26200C0F2000027F8020C09
:107D2000B81E05F0A4F905F0CEF90F30FFF7FEBB41
:107D30000630FFF760BCF0B503AF2DE9000FB9B016
:107D40000DF1A8099A4616460546484641F60A022C
:107D500001230C464FF0010802F0ECF8BDF8A80032
:107D600008B12B982FE108A80B9580E85004002556
:107D70004FF0020ABDF8AA000326ADF88C004FF4BC
:107D80008070ADF8C2001AA84FF080743195CDF81C
:107D9000C7508DF8D0A08DF8CBA0ADF8B8508DF8B5
:107DA000B2608DF86C801A9401F03CFBADF8400095
:107DB000000C8DF842004FF228304FF00708C0F257
:107DC00002000DF1400BCDE9000826A823A942F6D8
:107DD00050220123CDE9028BCDF8109002F0CAF8B1
:107DE000BDF89800002840F0EC804FF48070319589
:107DF000ADF8C2001AA8CDF8C750ADF8B8500125AB
:107E00008DF8D0A08DF8CBA08DF8B2608DF86C50B5
:107E10001A9401F007FBADF84000000C8DF8420009
:107E20004FF21C30C0F2020023A9CDE9000826A8B9
:107E300042F6292201232AAECDE9028B049602F0F4
:107E400099F8BDF89800012800F0BB8000204FF49D
:107E500080713190CDF8C700ADF8B80003208DF8DF
:107E6000B2004FF080701A901AA8ADF8C21002212B
:107E70008DF8D0108DF8CB108DF86C5001F0D2FA3F
:107E80004FF22331ADF84000000CC0F202018DF832
:107E900042000520CDE9001023A9CDE9020B26A858
:107EA00042F624220123049602F064F8BDF89800FB
:107EB000012800F086800A9CB4F5803F80F03F8264
:107EC00000200DF1680931904FF48071CDF8C700A2
:107ED000ADF8B80003208DF8B20001208DF86C00D9
:107EE0004FF08070ADF8C21002211A9048468DF80C
:107EF000D0108DF8CB1001F095FAADF84000000CD1
:107F00008DF8420023A9099842F62522CDE9000404
:107F100026A80123CDE9024B049602F02BF8BDF808
:107F2000980001284DD0089926A841F60F02012398
:107F3000012401F0FFFFBDF89800002841D14FF265
:107F4000DA200021C0F202000DF1400B1A9001204E
:107F5000C2F2AD7040F201082E9040F2000ABDF866
:107F60009A00C0F20018ADF840004FF08070CDF8D4
:107F70006E00C0F2011ACDF8CB004FF480202F9094
:107F800003208DF8B20026A8CDF8C71042F61922BA
:107F90008DF8C21040F20121ADF8CF1059460123EF
:107FA000CDF8C380CDF8D1A08DF87240ADF86C400B
:107FB0008DF8C040CDE90096FFF786FCBDF898002B
:107FC00040B127980B9D68600120288039B0BDE83A
:107FD000000FF0BD08992AA841F612020123BDF84E
:107FE0009E40BDF89A5001F0A5FFBDF8A80008B169
:107FF0002B98E7E7BDF8AA002AA927F8CE0C40F293
:108000000220ADF83D0004200E9008F588700D9018
:108010000DA8CDE9000123A8A7F1CE010026CDE9E6
:1080200009544FF002084FF48074CDF8D1A0CDF878
:10803000CCA055464FF0030A42F64A22012331965E
:108040008DF83C60ADF8C240CDF8C7608DF8D080A7
:108050008DF8CB80ADF8B8608DF8B2A0FFF709FCC1
:10806000BDF88C00002840F0C480BDF88E00A7F158
:10807000CE0108904FF2DB20C0F2020042F64B2204
:10808000109040F20220ADF84D004120CDE91100E2
:108090002AA801233196CDE900B023A88DF84C60C1
:1080A000ADF8C240CDF8C760ADF8B8600126CDF894
:1080B000D1508DF8D08033958DF8CB808DF8B2A05B
:1080C000FFF77FFBBDF88C00002840F092802AA9C2
:1080D00014A8002440F2022BCDE9000123A8A7F147
:1080E000CE0114968DF8C460022642F64C2201237C
:1080F000BDF88E808DF857408DF85440ADF855B0DE
:10810000CDF8C540ADF8C240ADF8C940CDF8D1506A
:108110008DF8D06033958DF8CB60ADF8B8408DF810
:10812000B2A0FFF77AFBBDF88C00002861D1BDF842
:108130008E002AA9069016A8CDE9000123A8A7F170
:10814000CE01CDF81C804FF00108ADF85DB04FF4C2
:10815000807B42F64E2201238DF85F808DF85C40D3
:10816000CDF85880CDF8C5408DF8C480ADF8C2B0C8
:10817000ADF8C940CDF8D1508DF8D06033958DF869
:10818000CB60ADF8B8408DF8B2A0FFF746FBBDF864
:108190008C0070BBBDF88E00A7F1CE0105900820C1
:1081A0001C9002208DF8D00003208DF8B2002AA880
:1081B00040F2022A42F64D22CDE9009023A8012385
:1081C000CDE91A448DF874402E46ADF875A0CDF86F
:1081D000C7408DF8C680CDF8C2B0CDF8D1503395E8
:1081E0008DF8CB40ADF8B840FFF79AFBBDF88C0096
:1081F00008B12498E6E6BDF894000123ADF86600C6
:1082000040F201102499C0F2020007F8804C27F8D0
:10821000824C2AACBDF88E2047F8860CA7F1860068
:10822000CDF8621018A9ADF8602042F6081200904F
:10823000204627F87FACFFF79EFBBDF8A80000287A
:108240007FF4D6AE0820A7F1CE01289040F20010AE
:10825000C0F201100025CDF8C20002208DF8D00038
:108260004FF40070ADF8CA0003208DF8B20026A8C4
:10827000CDE9000423A840F2022842F64D22012352
:10828000BDF8AAA0BDF86490BDF860B0CDE9265550
:108290008DF8A450ADF8A580CDF8C650CDF8D160CA
:1082A0003396ADF8B850FFF73BFBBDF88C000028C3
:1082B0009FD1BDF894000123ADF88A0040F201205F
:1082C000C0F20200249947F8260CA7F12600BDF859
:1082D0008E20CDF8861021A900902AA8ADF8842020
:1082E00042F6081207F8205C27F8225C27F81F8C5A
:1082F000FFF741FBBDF8A80000287FF479AE0B9D85
:10830000BDF8AA00BDF88410E8820598A982A8816A
:10831000DDE90610A5F81290A5F810A040EA01408A
:10832000A8600898E8800A98A880099868800020CA
:10833000A5F80EB0288039B0BDE8000FF0BD40F2BE
:108340006300C0F20000ADF8980026A804F07DFE9E
:1083500026A8FEF72AFF04F0BAFD04F0B4FEF0B53B
:1083600003AF2DE9000784B08246D7E90389008A6C
:1083700096B2B0422CD140F22F00C0F20000ADF80E
:108380000000684604F061FE40F20B00C0F20000FD
:1083900027F8220CA7F1220004F016FE02A8CDF85F
:1083A000089004F0E9FD40F20500C0F20000ADF8CD
:1083B0000C0003A804F008FE029C3CB14546284688
:1083C00004F085FE013C05F10105F8D104F07FFDC4
:1083D000B9F1000F22D0BAF80200B0421ED198F8CD
:1083E000000000F0010007F8250C40F22E00C0F25A
:1083F0000000ADF8040001A804F027FE40F20A00D6
:10840000C0F2000027F81A0CA7F11A0004F0DCFDF6
:10841000A7F1250004F0E4FD04F059FD002004B0AC
:10842000BDE80007F0BDF0B503AF4DF8048D82B094
:10843000044601F086FC40F27806C2F20206356876
:1084400005BB804640F6BC40C2F202004FF4004C2F
:1084500050F80C2000F50041002A08BF0246D31D49
:10846000891A23F007039B1A03F150058D422DD87A
:108470005119D51840F80C105021284606F0F0F894
:108480004046356001F088FC05F1080040F201111A
:1084900050E8002F92B940E80012002AF8D146F2C5
:1084A000AD20C0F202002146686105F12000FFF70F
:1084B000E9FA284602B05DF8048BF0BDBFF32F8FB8
:1084C0000025284602B05DF8048BF0BD40F2810023
:1084D000C0F2000027F8120CA7F1120004F0C7FD4B
:1084E00004F0F1FDF0B503AF4DF8048D82B0044601
:1084F00001F027FC40F27C06C2F2020635680DBB93
:10850000804640F6BC40C2F202004FF4004C50F8E6
:108510000C2000F50041002A08BF0246D31D891A2D
:1085200023F007039B1A03F590758D422ED851193D
:10853000D51840F80C104FF49071284606F090F8CA
:108540004046356001F028FC05F1080040F20111B9
:1085500050E8002F92B940E80012002AF8D146F204
:108560003D30C0F202002146686105F12000FFF7AE
:1085700084FA284602B05DF8048BF0BDBFF32F8F5C
:108580000025284602B05DF8048BF0BD40F2810062
:10859000C0F2000027F8120CA7F1120004F067FDEA
:1085A00004F091FD80B56F4600F000F880B56F468D
:1085B00084B06C46204603F04EFF2046FEF79AFB3F
:1085C000006804F0D7BD80B56F4682B040F28001EC
:1085D00072B6C2F202010A78EAB901220A7000906A
:1085E00040F25000C0F20000ADF8040001A804F011
:1085F0002CFD40F20200C0F2000027F8020CB81E69
:1086000004F0E2FC4FF278316846C0F2020104F057
:10861000F3FC04F05CFC4EF62450CEF2000001683E
:1086200021F48021016000DEFEDEB0B502AF84B02F
:108630000178132955D840F284027423C2F2020251
:1086400011FB032595F86910002952D0013985F8EE
:108650006910090601D004B0B0BD0446287801288D
:1086600025D140F20E00C0F2000027F8160CA7F149
:10867000160004F0EAFC40F20500C0F2000027F802
:108680000E0CA7F10E0004F09FFC204604F01FFD25
:1086900004F01DFC95F866000028DCD168881321E1
:1086A00076DF88BB012085F8660004B0B0BD40F2DB
:1086B0000F00C0F2000027F8120CA7F1120004F01E
:1086C000C4FC40F20500C0F20000ADF80C0003A8A5
:1086D00004F07AFC204604F0FAFC04F0F8FB04B045
:1086E000B0BD4FF2F8320846C0F20202142104F085
:1086F000DDFD40F25500C0F20000ADF80000684614
:1087000004F0B5FC04F0DFFC082810D140F256005C
:10871000C0F20000ADF8040001A804F096FCA7F137
:10872000090003F015F804F0D2FB04F0CCFC40F291
:108730005100C0F20000ADF8080002A804F097FC58
:1087400004F0C1FC007814283FBF742100FB01F243
:1087500040F28403C2F202033FBF10FB01309A5C77
:10876000418802F0010038BF704780B56F464FF274
:10877000F8321421C0F2020204F098FD80B56F4671
:1087800082B083B2142B26D240F69412C2F20202B7
:1087900012F81300012811D102EB43014978132983
:1087A00021D840F284027423C2F2020211FB032298
:1087B00012F8693FFF2B03D00133137002B080BD64
:1087C00040F25700C0F2000027F8020CB81E04F077
:1087D0004EFC04F078FC4FF208421846C0F2020248
:1087E000142104F063FD4FF2F8320846C0F2020291
:1087F000142104F05BFDF0B503AF2DE9000B82B04E
:1088000040F284058146C2F20205164695F86900D9
:108810008846002804BF2878002800F0918095F849
:10882000DD0028B9284610F8741F012940F0858022
:1088300095F8510128B9284610F8E81F012940F0A1
:10884000818095F8C50118B995F85C0101287CD1A3
:1088500095F8390218B995F8D001012879D195F821
:10886000AD0218B995F84402012876D195F8210394
:1088700018B995F8B802012873D195F8950318B97D
:1088800095F82C03012870D195F8090418B995F8CA
:10889000A00301286DD195F87D0418B995F814044A
:1088A00001286AD195F8F10418B995F888040128CF
:1088B00067D195F8650518B995F8FC04012864D1CD
:1088C00095F8D90518B995F87005012861D195F882
:1088D0004D0618B995F8E40501285ED195F8C10652
:1088E00018B995F8580601285BD195F8350718B9DD
:1088F00095F8CC06012858D195F8A90718B995F82C
:108900004007012855D195F81D0818B995F8B40706
:10891000012852D195F8910818B995F8280801282E
:108920004FD195F8050918B995F89C0801284CD144
:10893000012002B0BDE8000BF0BD0124054647E070
:10894000002445E00224054642E005F5AE75032407
:108950003EE005F5E87504243AE005F511750524B7
:1089600036E005F52E75062432E005F54B75072433
:108970002EE005F5687508242AE005F2144509245F
:1089800026E005F591650A2422E005F2FC450B245A
:108990001EE005F5AE650C241AE005F2E4550D2441
:1089A00016E005F5CB650E2412E005F2CC650F2428
:1089B0000EE005F5E86510240AE005F2B47511240F
:1089C00006E005F62805122402E005F69C051324AE
:1089D000596801221868A5F80290C5E9010105F15E
:1089E0000C0058212A7007F81F4C05F09CFE40F23D
:1089F00001123068A5F86820002285F86620172249
:108A0000A5F864201B22C5F86A001FFA89F0D6F881
:108A10000310142885F8678085F87120C5F86D105B
:108A20002CD240F69411C2F2020111F81020012A52
:108A30002BD001EB400001214470017040F2100086
:108A4000C0F20000ADF8040001A804F0FEFA40F204
:108A50000500C0F2000027F81A0CA7F11A0004F074
:108A6000B3FAA7F11F0004F032FB04F030FA17F854
:108A70001F1C002002B0BDE8000BF0BD4FF2084201
:108A80001421C0F2020204F011FC40F25800C0F2BE
:108A9000000027F81E0CA7F11E0004F0E8FA04F00D
:108AA00012FBD0B502AFFFF7A6FEC2070DD1CBB2C5
:108AB000142B0BD240F284027424C2F20202D7E9D2
:108AC00002EC13FB0422C2E903ECD0BD4FF2F832F2
:108AD0001846C0F20202142104F0E8FB00781428C2
:108AE0003FBF40F28401C2F20201742210FB021067
:108AF0003CBFD0E90301704780B56F464FF2F832B2
:108B00001421C0F2020204F0D1FBF0B503AF2DE94D
:108B1000000B84B004460878142880F09E807421ED
:108B2000134600FB01F640F28402C2F20202965D97
:108B3000F60778D010FB01200021E846ADF80410BC
:108B4000009142461946408890DF002871D000F01D
:108B5000B5FF0546029040F23600C0F2000027F84B
:108B60001A0CA7F11A0004F070FA40F28700C0F264
:108B7000000027F81A0CA7F11A0004F025FA02A841
:108B800000F024FE04F0A3F9BDF8021040F206093B
:108B9000BDF80000C0F2000989B208431FD040F2BE
:108BA000370008F10206C0F2000027F81A0CA7F1FE
:108BB0001A0004F04AFAA7F11A0027F81A9C04F0E8
:108BC00003FA684604F000FAA7F11A0027F81A9C85
:108BD00004F0FAF9304604F0F7F904F078F9BDF83A
:108BE0000400B0B140F2380008F10406C0F2000001
:108BF00027F81A0CA7F11A0004F027FAA7F11A00B7
:108C000027F81A9C04F0E0F9304604F0DDF904F08E
:108C10005EF9132D13D0062D17D1DDF80250012077
:108C2000BDF8001012E00020208004B0BDE8000B69
:108C3000F0BD0420208004B0BDE8000BF0BDDDF8DD
:108C400002500220BDF8001000E003206560618042
:108C5000208004B0BDE8000BF0BD4FF2F8321421C3
:108C6000C0F2020204F022FBD0B502AF84B002468B
:108C70000078132852D840F284017423C2F2020112
:108C800010FB031090F8671000294ED10178C90736
:108C900009D0C168448851B10069036C02A89847A3
:108CA0009DF80C000DE00020214604B0D0BD10213D
:108CB00000208DF80A104FF4E661ADF80B00ADF816
:108CC000081002998DF80C002046029102A97EDF5F
:108CD00000B300F0F3FE0446019040F23900C0F208
:108CE000000027F80A0CA7F10A0004F0AEF940F2E0
:108CF0008700C0F2000027F80A0CA7F10A0004F070
:108D000063F901A800F062FD04F0E1F801202146BA
:108D100004B0D0BD0220214604B0D0BD4FF2F832DD
:108D20001421C0F2020204F0C1FA40F25900C0F26C
:108D3000000027F80A0CA7F10A0004F098F904F0E3
:108D4000C2F9F0B503AF2DE9000796B002460078EE
:108D5000132800F27F80742140F2840300FB01F5A8
:108D6000C2F202035D5DED075CD010FB0130C1680B
:108D700000295DD0B0F802800DF138090069436B1D
:108D800048469847BDF83800002857D009F10C0331
:108D900009ACDDE90FCABDF83AE0264627CB27C665
:108DA0001888308068466CCC01466CC122880A80E5
:108DB0004A46CDF816C0ADF814E0CDF81AA0DDF89B
:108DC00014C0069978C878C2007810704FEA1A402B
:108DD000ADF82C004A46CDE909C109A9404685DF16
:108DE00090B300F06BFE0446089040F23A00C0F2E7
:108DF0000000ADF80000684604F027F940F2870053
:108E0000C0F20000ADF80000684604F0DDF808A8E4
:108E100000F0DCFC04F05BF80320214616B0BDE84E
:108E20000007F0BD0020214616B0BDE80007F0BDE8
:108E30000120214616B0BDE80007F0BD0220214602
:108E400016B0BDE80007F0BD0420214616B0BDE80D
:108E50000007F0BD4FF2F8321421C0F2020204F014
:108E600025FAF0B503AF2DE9000B8AB080B21428C3
:108E700080F0C08040F69412C2F2020212F8103064
:108E8000002B00F0BE8002EB40004078132800F277
:108E9000AA80742640F2840300FB06F5C2F20203A6
:108EA0005D5DED0700F0B88010FB06367588142D67
:108EB00080F0BD8012F81500002800F0C08002EBA1
:108EC0004504D1F80090F168607807F83D0CC9B10D
:108ED000132800F28880742210FB023212F8693FD6
:108EE000FF2B75D0D6F810C0013313700DF11008A8
:108EF0008DF810000846DCF838204146904740467F
:108F0000FFF793FB002001AA2070B9F8001002922D
:108F10004EF66C42C0F2020211290191049240F017
:108F2000998099F808103070717002F098FCB0B315
:108F300005EB450040F6E011C2F2020101EB8004AE
:108F4000206800283ED14FF0FF302246206052F8C2
:108F5000040F30B1A1680B69494698472068013079
:108F600000E00020206040F20D00C0F20000ADF8EB
:108F7000100004A804F069F840F20500C0F20000F7
:108F8000ADF8100004A804F01FF8A7F13D0004F0AC
:108F90009EF803F09CFF0AB0BDE8000BF0BD012174
:108FA000002005914FF21451C0F202010890079081
:108FB000042004914FF28C51069004A8C0F20201E3
:108FC00004F038F94FF20860C0F2020004F09CF897
:108FD00040F25700C0F20000ADF8100004A804F001
:108FE00046F804F070F84FF2F8321421C0F2020291
:108FF00004F05CF94FF208421421C0F2020204F0BE
:1090000055F940F25A00C0F20000ADF8100004A873
:1090100004F02DF804F057F840F25200C0F20000BE
:10902000ADF8100004A804F022F804F04CF84FF258
:1090300008422846C0F20202142104F037F940F237
:109040005300C0F20000ADF8100004A804F00FF8BF
:1090500004F039F840F25400C0F2000027F8320C56
:10906000A7F1320003F0F1FF02A802F05EFB04A8B2
:1090700002F05BFB03F02BFF04F025F8D0B502AF44
:1090800082B080B2142863D240F6941EC2F2020E5F
:109090001EF81030002B62D00EEB400040781328F1
:1090A00069D840F2840C7423C2F2020C10FB03C492
:1090B000E06898B3138809782269022915D001293C
:1090C0002CD1142B5ED21EF81310012926D10EEBE1
:1090D0004301497813295DD8742311FB03C313F8A6
:1090E000694FFF2C1DD0126A12E0142B4AD21EF8D1
:1090F0001310012912D10EEB43014978132949D8E5
:10910000742311FB03C313F8694FFF2C14D0526A68
:1091100001341C709047012002B0D0BD002002B085
:10912000D0BD40F25700C0F20000ADF8040001A825
:1091300003F09DFF03F0C7FF40F25700C0F20000AC
:1091400027F80A0CA7F10A0003F091FF03F0BBFF18
:109150004FF208421421C0F2020204F0A7F840F2D4
:109160005A00C0F2000027F80E0CA7F10E0003F021
:109170007EFF03F0A8FF4FF2F8321421C0F2020282
:1091800004F094F84FF208421846C0F2020214218B
:1091900004F08CF84FF2F8320846C0F202021421B3
:1091A00004F084F8F0B503AF4DF8048D8AB0C0B276
:1091B00013284FD840F284037426C2F2020310FB36
:1091C0000635EC68002C41D04879D5F8108080072E
:1091D00014D440F22D001646C0F20000ADF8040091
:1091E00001A803F044FF00233246D5F86A00D5F801
:1091F0006D10CDE90133CDE903330AE0E86DD5F810
:109200005F10D5E913CED5E91536CDE90336CDE9A2
:1092100001CE0590A7F11A0C95F86700CDF817104C
:109220003021002818BF14216B18D8F82C50D3E92E
:10923000050147F8180C01A85E8A47F8141C11466E
:1092400000902046624627F81A6CA8470AB05DF8DD
:10925000048BF0BD4FF2F8321421C0F2020204F088
:1092600025F8D0B502AF40F6D024C2F20204204661
:1092700002F033FB04F10800BDE8D04002F02DBB42
:10928000F0B503AF4DF804BD40F6EC26C2F202067D
:109290003578BFF35F8FFDB94EF28012EFF3108087
:1092A000012172B6317040F6F021CEF20002C2F216
:1092B000020113680B6040F6F421C2F20201536808
:1092C0000B6040F2FC61CFF6FF51C00711604FF018
:1092D000FF31516000D162B640F6BC12C2F2020208
:1092E00040F202341378D2E90110012B148004BF3C
:1092F0004968884715B15DF804BBF0BDEFF31080F5
:10930000002140F2FC6272B6317040F6F021CFF6D7
:10931000FF52C2F20201C007096801EA02014EF2DF
:109320008012CEF2000242F8801C40F6F421C2F214
:109330000201096842F87C1CDDD162B65DF804BB0D
:10934000F0BDF0B503AF4DF804BD40F6EC26C2F217
:1093500002063578BFF35F8FFDB94EF28012EFF34E
:109360001080012172B6317040F6F021CEF2000279
:10937000C2F2020113680B6040F6F421C2F202014E
:1093800053680B6040F2FC61CFF6FF51C0071160DB
:109390004FF0FF31516000D162B640F6BC12C2F20C
:1093A000020202241378D2E90110012B148004BFB9
:1093B0004968884715B15DF804BBF0BDEFF3108034
:1093C000002140F2FC6272B6317040F6F021CFF617
:1093D000FF52C2F20201C007096801EA02014EF21F
:1093E0008012CEF2000242F8801C40F6F421C2F254
:1093F0000201096842F87C1CDDD162B65DF804BB4D
:10940000F0BD30B180B56F4600F058FB0146012039
:1094100080BD002070474FF2C841C0B2C0F20201C7
:10942000085C7047B0B502AF42784FF2CD4390F878
:1094300000C04FF2D44590F802E0C0F20203C178B8
:10944000C0F202050079002A5C5C1B5C285C695C48
:1094500040EA030041EA040141EA00204FF00A011A
:1094600008BF0221614441EA0E1140EA0140B0BD4B
:10947000D0B502AF86B090F800C0BCF1140F2AD26C
:109480004FF0740E40F284040CFB0EF0C2F20204A2
:10949000205CC0074FF000001BD01CFB0E44ADF851
:1094A0000C0001200592A7F11A02ADF8081027F868
:1094B0001A3C02A90492B4F802C08DF80A00604672
:1094C000AEDF28B100F0FAFA0146012006B0D0BDA7
:1094D000022006B0D0BD4FF2F8326046C0F2020260
:1094E000142103F0E3FE80B56F4682B000781428A3
:1094F00026D24FF0740C40F2840E00FB0CF3C2F243
:10950000020E1EF80330DB074FF0000311D00029D4
:1095100008BF0A46B3EB124F19D110FB0CE040888C
:10952000B1DF48B100F0CAFA01460123184602B083
:1095300080BD184602B080BD0223184602B080BD2F
:109540004FF2F8321421C0F2020203F0AFFE40F2F3
:109550006A00C0F20000ADF8040001A803F075FD38
:10956000781E02F063F903F0B2FC03F0ACFD80B2A8
:1095700013289FBF00EB400040F6E011C2F2020149
:1095800001EB800098BF704780B56F464FF288426C
:109590001421C0F2020203F089FEB0B502AF88B018
:1095A00005460088019040F21900C0F2000027F83B
:1095B0000A0CA7F10A0003F048FD40F20700C0F2D0
:1095C000000027F80A0CA7F10A0003F0FDFC01A82F
:1095D00003F0D2FC03F07BFC2888411E0F2908D23F
:1095E00002286AD001280BD140F21200C0F200001C
:1095F00067E0A0F11001202904D2284601F0B8F854
:1096000008B0B0BDA0F150012029F9D2AC8855288E
:109610005ED140F6EE20E988C2F20200ADF80010FB
:109620000088814238BF0846172898BF172027F8BE
:10963000260C40F21800C0F20000ADF8040001A8AA
:1096400003F003FD40F2060501A8C0F20005ADF8E5
:10965000045003F0B9FC684603F0B6FC01A8ADF86D
:10966000045003F0B1FCA7F1260003F0ADFC03F0B9
:109670002EFC37F8261C2046B5DF002849D000F024
:109680001DFA019040F23F00C0F2000027F80A0CDA
:10969000A7F10A0003F0D9FC40F28700C0F20000F5
:1096A00027F80A0CA7F10A0003F08EFC01A800F0CD
:1096B0008DF803F00CFC08B0B0BD40F21300C0F20E
:1096C0000000ADF8040001A803F0D1FC08B0B0BD63
:1096D000142C5FD202F0C3F8002842D004EB4400FF
:1096E00040F6E011C2F2020101EB8004206800287C
:1096F0004AD14FF0FF302246206052F8040F60B389
:10970000A1680B692946984720680130206008B09D
:10971000B0BD142C46D240F69410C2F2020010F8EC
:109720001410002946D000EB4400407814283FBFB5
:1097300040F28401C2F20201742210FB02103FBF0A
:1097400037F8261CA0F8641008B0B0BD4FF2F8320C
:109750001421C0F2020203F0A9FD0020206008B02D
:10976000B0BD0121002002914FF21451C0F202015C
:1097700005900490042001914FF28C51039001A8B0
:10978000C0F2020103F056FD4FF20860C0F2020081
:1097900003F0BAFC4FF28842C0F2020220461421C4
:1097A00003F084FD4FF20842C0F202022046142169
:1097B00003F07CFD40F25A00C0F20000ADF8040056
:1097C00001A803F054FC03F07EFCD4D40168B1F589
:1097D000005F19DBB1F5405F3BDDB1F5485F4CDB65
:1097E000B1F54C5F80F26980A1F54850DFE810F0D8
:1097F00006001101D500ED00A50041014FF2BF4068
:10980000C0F2020003F063BCB1F5805F46DA0131BB
:109810004FF21840C0F20200DFE811F01500BD0061
:109820008300A7006B00E3000701B3002501770068
:109830001F0165007100F5005F00A1005900D10013
:109840000D014901DD004FF29840C0F2020003F023
:109850003EBCA1F50050DFE810F00A00F400A600BD
:10986000CA00760012011E01E20024018E004FF2B0
:10987000AF40C0F2020003F02ABC43F20100081A14
:10988000DFE810F00600E5009700BB006700030169
:109890004FF2B940C0F2020003F019BC3BD041F2D4
:1098A0000100814219BF4FF2AE40C0F202004FF2F8
:1098B000AD40C0F2020003F00ABC38D0B1F5505FF1
:1098C00065D14FF2C640C0F2020003F000BC4FF277
:1098D000A740C0F2020003F0FABB4FF2A540C0F26D
:1098E000020003F0F4BB4FF2A240C0F2020003F00A
:1098F000EEBB4FF29B40C0F2020003F0E8BB4FF218
:10990000A340C0F2020003F0E2BB4FF2A040C0F25D
:10991000020003F0DCBB4FF2AC40C0F2020003F0E7
:10992000D6BB4FF29940C0F2020003F0D0BB4FF219
:10993000C540C0F2020003F0CABB4FF2C340C0F200
:10994000020003F0C4BB4FF2B340C0F2020003F0C8
:10995000BEBB4FF2BD40C0F2020003F0B8BB4FF2F5
:10996000A640C0F2020003F0B2BB4FF29A40C0F230
:10997000020003F0ACBB4FF2B840C0F2020003F0AB
:10998000A6BB4FF29E40C0F2020003F0A0BB4FF214
:10999000C740C0F2020003F09ABB4FF2C140C0F2D0
:1099A000020003F094BB4FF2B140C0F2020003F09A
:1099B0008EBB4FF2BB40C0F2020003F088BB4FF2F7
:1099C000A840C0F2020003F082BB4FF2C240C0F2D6
:1099D000020003F07CBB4FF2AB40C0F2020003F088
:1099E00076BB4FF29C40C0F2020003F070BB4FF216
:1099F000B240C0F2020003F06ABB4FF2BC40C0F2BA
:109A0000020003F064BB4FF2A440C0F2020003F076
:109A10005EBB4FF2C040C0F2020003F058BB4FF2F1
:109A2000B640C0F2020003F052BB4FF29D40C0F2BC
:109A3000020003F04CBB4FF2A940C0F2020003F059
:109A400046BB4FF2B040C0F2020003F040BB4FF201
:109A5000BA40C0F2020003F03ABB4FF2A140C0F29C
:109A6000020003F034BB4FF29F40C0F2020003F04B
:109A70002EBB4FF2C440C0F2020003F028BB4FF2ED
:109A8000B440C0F2020003F022BB4FF2BE40C0F26D
:109A9000020003F01CBB4FF2B540C0F2020003F01D
:109AA00016BB4FF2B740C0F2020003F010BB4FF2FA
:109AB000AA40C0F2020003F00ABBD4D401464FF022
:109AC000FF30B1F5005F13DBB1F5405F21DDB1F58B
:109AD000485F29DBB1F54C5F80F23B80A1F548522D
:109AE000052A88BF7047DFE802F038383838383840
:109AF000B1F5805F22DA132930D8DFE801F02E2E8D
:109B00002E2E2E2E2E2E2E2E2E2E2E2E2E2E2E2E75
:109B10002E2EA1F50052092A20D8DFE802F01E1EE1
:109B20001E1E1E1E1E1E1E1E43F201028A1A052A3A
:109B300014D8DFE802F01212121212121CBF41F206
:109B40000102914209D041F20202914208BF084647
:109B5000704718BFB1F5505F01D10846704743F216
:109B60000142914208BF08467047D0B502AF82B0AB
:109B700004460068A0B14FF29840C0F2020003F022
:109B8000A6FA40F28700C0F2000027F80A0CA7F1FD
:109B90000A0003F019FA201DFFF718FE02B0D0BD2D
:109BA0004FF21840C0F2020002B0BDE8D04003F00E
:109BB0008EBAD0B502AF82B0044640F28700C0F240
:109BC000000027F80A0CA7F10A0003F0FDF920466F
:109BD000FFF7FCFD02B0D0BD80B56F4682B007F83C
:109BE000030CC0B2012814D0022802BF002002B02A
:109BF00080BD40F26B00C0F2000027F8020CB81ED6
:109C000003F023FAF81E01F07DFD03F060F903F084
:109C10005AFA012002B080BDD0B502AF82B00178FF
:109C20004C08C90726D1042C66D2B0F80510D0F82C
:109C30000100009040F28A00C0F20000ADF804106C
:109C400027F80A0CA7F10A0003F0BEF940F28B00D6
:109C5000C0F2000027F80A0CA7F10A0003F0B4F9DB
:109C6000032C3DD84FF2DB40C0F20200DFE804F0E5
:109C70003C292E33042C43D2B0F80510D0F8010053
:109C8000009040F28900C0F20000ADF8041027F8FF
:109C90000A0CA7F10A0003F097F940F28B00C0F21A
:109CA000000027F80A0CA7F10A0003F08DF9032C35
:109CB00016D84FF2DB40C0F20200DFE804F01502D4
:109CC000070C4FF2DC40C0F202000DE04FF2DD4025
:109CD000C0F2020008E04FF2DE40C0F2020003E0F2
:109CE0004FF2DF40C0F2020003F0F1F968460621AE
:109CF00003F05AF902B0D0BD7F2C3FF496AF01E0DB
:109D00007F2CB9D040F26C00C0F20000ADF800002A
:109D1000684603F09AF9A7F10A0001F027FD03F065
:109D2000D6F803F0D0F902784FF2DB404FF2DC4175
:109D3000C0F20200C0F20201002A18BF084603F078
:109D4000C6B980B56F4640F6EC21C2F20201087830
:109D5000BFF35F8F18B1002818BF012080BDEFF35B
:109D6000108C012372B60B704EF28013CEF20003FA
:109D70001A684A605A688A6040F2FC61CFF6FF5167
:109D800019604FF0FF3159605FEACC71E3D162B6E0
:109D9000002818BF012080BD80B56F46002818BF7D
:109DA00080BD40F6EC21EFF310800022C2F20201E8
:109DB00072B60A7040F2FC634A68CFF6FF53C007E0
:109DC00002EA03024EF20013CEF200031A60896821
:109DD000596000D162B680BDF0B503AF4DF804BD47
:109DE0008CB003788E46427ED1F804C0002B0D88DB
:109DF0004E884FF0000100918DF80020BEF80A2037
:109E0000047EADF815204FF001020491CDE9021156
:109E10008DF8014018BF431C0193012E98BF1646D0
:109E20009EF80930002D08BF2E469EF80840012BF1
:109E3000ADF80C6088BF1A46002C08BF22468DF88A
:109E40000E20827E9EF80C3002F00F028DF8172053
:109E50008268CDF808C08DF8143022B1C1684FF681
:109E6000FF73994206D203697BB140694FF6FF76D2
:109E7000B0420BD340F26D00C0F20000ADF82800F4
:109E80000AA803F0F4F803F01EF9002040F20004E1
:109E9000ADF81C10C2F20204ADF82400069206A927
:109EA00008936A46204672DF40B1FFF707FE04467A
:109EB0000A9040F24000C0F200001AE09EF90D2026
:109EC0000120217877DF40B1FFF7F8FD04460A90C2
:109ED00040F24100C0F200000BE02078012173DF66
:109EE00010B3FFF7EBFD04460A9040F24200C0F2C7
:109EF000000027F8120CA7F1120003F0A6F840F2B8
:109F00008700C0F2000027F8120CA7F1120003F03E
:109F10005BF80AA8FFF75AFC02F0D9FF022021469D
:109F20000CB05DF804BBF0BD032021460CB05DF819
:109F300004BBF0BDD0B502AF82B00446002027F8C4
:109F40000E2CA7F10E0127F80A0CA7F10A0207F858
:109F50000C3C0120A8DF30B1FFF7B0FD60600120AC
:109F6000208002B0D0BD37F80A0C6080002020802D
:109F700002B0D0BDF0B503AF2DE9000F9DB0D7E919
:109F8000035627F8722CB2B2AA4207F8703CC0F010
:109F90007B81BB690590D3E900659A7AB3F808B074
:109FA000032A0692CDE9036521D193F82240884621
:109FB00093F81BA093F81AC0002C1D7F93F8212062
:109FC00093F81DE09E7FD97F93F8200018BF0232DE
:109FD00002924CEA4A0242EA850242EACE0242EA90
:109FE000061242EA411141EA8010019028E05D45E5
:109FF00000F2558193F81BE0884693F8225093F8BD
:10A000001AC093F81CA0002D5E7F4CEA4E0593F811
:10A0100021209C7FD87F93F8201018BF0232029233
:10A0200045EA8A0242EAC602DDF818A042EA0412B2
:10A0300042EA4010BAF1020F40EA8110019017D1B4
:10A040000025188A07F86E5C002841D0D3F812006A
:10A05000D3F81610C1EA004247F8682C4FF6FF7299
:10A060009043C1F307410122084447F8640C30E0F3
:10A07000D3F80B004FF218624FF21F6CC0F20202CD
:10A08000C0F2020C0A25010640F307444FEA2061A2
:10A090004FF0F00612F801E006EA10101CF801106B
:10A0A000125D08BF022528441CF8046040EA0A003B
:10A0B00007F86B0C41EA0E00012546EA020141EA6D
:10A0C000002027F86D0C188A07F86E5C0028BDD1B7
:10A0D000002293F82310CDF800B0C346022927F8D8
:10A0E0006A2C35D14FF0000C93F828108DF830C051
:10A0F000022963D0D3F829004FF218684FF21F6489
:10A10000C0F20208C0F20204030640F307464FEA19
:10A110002063A64618F8039014F803A04FF00A0332
:10A1200018F806804FF0F00408BF022304EA10106C
:10A1300018441EF8063008438DF837004AEA090033
:10A1400043EA080141EA00200121ADF8350036E07C
:10A15000586A4FF2186C4FF21F64C0F2020CC0F242
:10A1600002044FF00A0906064FF0F00A4FEA206693
:10A1700014F806E040F307441CF806804FF21F660F
:10A180000AEA1010C0F202061CF804C008BF4FF023
:10A1900002094844345D08438DF833004EEA080054
:10A1A00044EA0C014FF0010C41EA0020ADF8310007
:10A1B00093F828108DF830C002299BD10021069C0D
:10A1C0000023D7F80C90DDE90360032CD7F814E0E6
:10A1D000D7F808808DF8341003D100200024002621
:10A1E00000E0009CADF84200002902988DF839008B
:10A1F00001988DF838000DA8ADF840400F9618BFB3
:10A20000411C0CA81491BCF1000F18BF00F1010C07
:10A21000A7F16E00CDF84CC0002D18BF451CA7F16A
:10A220006A001295002A18BF821C38690EA9ADF881
:10A230006000A7F17200119215AA1590CDF8648004
:10A24000ADF85E30CDE91A331AABADF85C90CDF8BD
:10A2500058E0BBF80000AADF48B1FFF72FFC059AD1
:10A260005060012010801DB0BDE8000FF0BD059AC0
:10A27000DDE91A01C2F802000020C2F806101080C1
:10A280001DB0BDE8000FF0BD40F26F00C0F200004D
:10A29000ADF838000EA802F0EAFE02F014FF40F21A
:10A2A0007000C0F20000ADF838000EA802F0DFFE2A
:10A2B00002F009FFB0B502AF88B00446F868ADF807
:10A2C000042000228DF80630B2EB104F23D1BB687A
:10A2D00001ADD7E904EC069302ABADF81000088895
:10A2E00019460295ADF814E0ADF81220ADF81C2027
:10A2F00007AACDF80CC0ABDF30B1FFF7DFFB606021
:10A300000120208008B0B0BDBDF81C006080002096
:10A31000208008B0B0BD40F27100C0F20000ADF87E
:10A320001C0007A802F091FEA7F1090001F07EFAD7
:10A3300002F0CDFD02F0C7FE80B56F4684B0012863
:10A340008DE8070009D041F20101884215D10ABB0E
:10A3500040F27300C0F2000003E040F27200C0F26D
:10A36000000027F8020CB81E02F06FFE01A801F0F1
:10A370001EFA02F0ACFD02F0A6FE40F27500C0F23B
:10A38000000027F8020CB81E02F05FFE684601F0DC
:10A390000EFA08E040F27400C0F2000027F8020C48
:10A3A000B81E02F052FE01A801F001FA02A801F065
:10A3B000FEF902F08CFD02F086FEF0B503AF2DE948
:10A3C000000786B040F6EC2A0546C2F2020A0AF1FE
:10A3D0000100D0E84F1F49B90121BFF35F8FC0E8EA
:10A3E000421F92B1D0E84F2F002AF8D040F27700F8
:10A3F000BFF32F8FBFF35F8FC0F20000ADF80000F6
:10A40000684602F034FE02F05EFEBFF35F8F4AF250
:10A41000393195F83400C0F20201002818BF05F167
:10A42000350010DF002840F06381A88B40F200085F
:10A43000A97FC2F2020800282A8C4FF0010008BF51
:10A440000322ADF8042008BF01218DF80000202070
:10A450008DF8021069460390424669DF20B1FFF78C
:10A460002DFB042840F02F81B5F81890B9F1000FAA
:10A4700016D0688B40F20002CDF8020001200021C6
:10A480008DF800002320CDF806100390C2F20202DE
:10A49000694669DF20B1FFF711FB042840F0138102
:10A4A00095F82200012814D195F8230040F200020B
:10A4B0008DF8020001208DF8000021200390C2F2E7
:10A4C0000202694669DF20B1FFF7F8FA042840F07C
:10A4D000FA8095F82400012814D195F8250040F25F
:10A4E00000028DF8020001208DF800002220039068
:10A4F000C2F20202694669DF20B1FFF7DFFA0428E1
:10A5000040F0E18095F82600012811D195F8270048
:10A5100040F200028DF8000001200390C2F2020216
:10A52000694669DF20B1FFF7C9FA042840F0CB8003
:10A5300095F82800012814D195F82D0040F200026A
:10A54000D5F82910C2F202028DF8040040200091D3
:10A550006946039069DF20B1FFF7B0FA042840F0A4
:10A56000B2802868012811D12A1D07CA8DE807008A
:10A5700040F2000241200390C2F20202694669DF04
:10A5800020B1FFF79BFA042840F09D8095F82E003B
:10A59000012811D195F82F0040F200028DF800003B
:10A5A00042200390C2F20202694669DF20B1FFF740
:10A5B00085FA042840F0878095F83000012810D1F2
:10A5C00095F8310040F200028DF80000432003901E
:10A5D000C2F20202694669DF18B1FFF76FFA042878
:10A5E00071D195F83200012810D195F8330040F26E
:10A5F00000028DF80000A0200390C2F2020269461A
:10A6000069DF18B1FFF75AFA04285CD128690128DC
:10A610000ED1686940F200020090A1200390C2F2BE
:10A620000202694669DF18B1FFF748FA04284AD1E7
:10A63000CDF8108004A860DF0646049800F1604061
:10A64000009040F23500C0F20000ADF80C0003A805
:10A6500002F0FBFC40F2070403A8C0F20004ADF8CE
:10A660000C4002F0B1FC684602F086FC02F02FFCC0
:10A67000002E48D10498404512D240F24400C0F266
:10A680000000ADF80000684602F0DFFC6846ADF857
:10A69000004002F099FC04A802F06EFC02F017FCE6
:10A6A0004EF200104FF48001CEF20000B9F1000F1D
:10A6B0000160688B08BF17202AF8020F504606B0C9
:10A6C000BDE80007F0BD049040F27600C0F2000043
:10A6D00027F81A0CA7F11A0002F0B7FC03A801F042
:10A6E00066F804A801F050F802F0F1FB02F0EBFC70
:10A6F000FFF7E4F9009040F27800C0F20000ADF8F6
:10A70000100004A81FE03046FFF7D8F9042812D142
:10A710000498404520D940F27A00C0F20000ADF81C
:10A720000000684602F091FC04A801F040F802F035
:10A73000CEFB02F0C8FC009040F27B00C0F20000AB
:10A74000ADF80C0003A802F080FC684601F01CF88C
:10A7500002F0BDFB02F0B7FC40F27900C0F200004D
:10A76000ADF80000684602F082FC02F0ACFCD4D4E4
:10A77000F0B503AF2DE9000792B00546044635F861
:10A78000040B00941038162800F2CA86DFE810F097
:10A79000170005028F03D702BF002202C806ED038F
:10A7A000C8062A0475053D05C806B4006202B80152
:10A7B000C8065E009304D1040A06C806DD0540F20F
:10A7C0002900C0F20000ADF8100004A802F03DFC22
:10A7D00040F2060604A8C0F20006ADF8106002F0D0
:10A7E000F3FB04F1160002F0EFFB04A8ADF81060D3
:10A7F00002F0EAFB04F1120002F0E6FB04A8ADF857
:10A80000106002F0E1FB04F1100002F0DDFB04A88F
:10A81000ADF8106002F0D8FB04F1140002F0D4FB94
:10A8200002F055FBE07B8DF83800012800F0168619
:10A83000022840F03D8701F012F8002800F0F08671
:10A8400040F6C816C2F2020600F011BE2089ADF82B
:10A85000300040F21E00C0F20000A188ADF81000E8
:10A8600004A827F85A1C02F0F0FB40F20600C0F2E0
:10A870000000ADF8100004A802F0A6FBA7F15A00F2
:10A8800002F0A2FB40F2050504A8C0F20005ADF8F5
:10A89000105002F099FB0CAC601C02F018FC04A8EC
:10A8A000ADF8105002F090FB204602F010FC02F0D0
:10A8B0000EFBBDF83010ADF8081002A937F85A0C9D
:10A8C0008FDF002800F02C86FFF7F8F8049040F2A4
:10A8D0004600C0F20000ADF838000EA802F0B5FB4B
:10A8E00040F28700C0F20000ADF838000EA802F078
:10A8F0006BFB04A800F00CBE40F21D00C0F200008B
:10A90000ADF8100004A802F0B2FB00F0A9BCA07ED4
:10A9100000F0010107F8291CC0F34001C0F38000DA
:10A920008DF83000207A8DF8341000F001018DF898
:10A93000081040088DF8380040F22400C0F20000F2
:10A94000ADF8100004A802F080FB40F2050604A850
:10A95000C0F20006ADF8106002F036FBA7F1290046
:10A9600002F0B5FB04A8ADF8106002F02DFB0DA8B5
:10A9700002F0ADFB04A8ADF8106002F025FB0CA8B6
:10A9800002F0A5FB40F20600C0F20000ADF8100096
:10A9900004A802F019FB04F11008404602F014FB71
:10A9A00040F20400C0F20000ADF8100004A802F06C
:10A9B0000BFB04A8ADF8106002F006FB04F1120ACC
:10A9C000504602F084FB04F1130002F080FB04F116
:10A9D000140002F07CFB04F1150002F078FB04F196
:10A9E000160002F074FB04F1170002F070FB04F192
:10A9F000180002F06CFB04F1190002F068FB40F251
:10AA00000300C0F20000ADF8100004A802F0DCFA68
:10AA100004A8ADF8106002F0D7FA04F1090002F0C2
:10AA200056FB04F10A0002F052FB04F10B0002F0A5
:10AA30004EFB04F10C0002F04AFB04F10D0002F0A1
:10AA400046FB04F10E0002F042FB04A8ADF81060D2
:10AA500002F0BAFA02A802F03AFB0DF11009ADF8C3
:10AA60001060484602F0B0FA0EA802F030FB02F087
:10AA70002EFAA088142880F0F78540F69411C2F2CF
:10AA8000020111F81020012A40F0068501EB400078
:10AA90004078132800F2EF8540F284017422C2F25C
:10AAA000020110FB0212114611F8693FFF2B00F062
:10AAB000D08501330B70D168DAF80030DAF8044041
:10AAC0000029B8F800608DF8080000F0FF841069D4
:10AAD000CDF83E40ADF8386002AE046B4846CDF884
:10AAE0003A300EAB3246A04730469DF81040FDF795
:10AAF0009CFD14F0010118BF09F1010100F0EDBC4B
:10AB0000D4E90201CDE9040140F22B00C0F20000BB
:10AB1000B4F80480ADF838000EA802F096FA40F2BE
:10AB200006060EA8C0F20006ADF8386002F04CFA36
:10AB3000284602F049FA0EA8ADF8386002F044FA4F
:10AB400004ACA01D02F040FA0EA8ADF8386002F087
:10AB50003BFAA01C02F038FA0EA8ADF8386002F0FB
:10AB600033FA204602F030FA0EA8ADF8386002F051
:10AB70002BFA201D02F028FA02F0A9F940462146DE
:10AB800075DF002800F0CC84FEF798FF0E9040F2AD
:10AB90004500C0F2000000F0ACBC40F21A00C0F268
:10ABA0000000ADF8100004A802F04FFA40F20600D1
:10ABB000C0F20000ADF8100004A802F005FA284623
:10ABC00002F002FA02F083F928886946FEF749F993
:10ABD00000F0A6BC40F22200C0F20000ADF8100068
:10ABE00004A802F032FA40F20900C0F20000ADF809
:10ABF000100004A802F0E8F904F10805062128462F
:10AC000002F0D2F902F063F9A088142880F02C85B4
:10AC100040F69411C2F2020111F81020002A00F04F
:10AC20003C8501EB40004078132800F2248540F277
:10AC300084017422C2F2020110FB0211C8680028CC
:10AC400000F06E840969CA692946904712B0BDE8D0
:10AC50000007F0BD207A00F001018DF83410C0F338
:10AC600040018DF83010C0F38001C0F3C0008DF8B2
:10AC7000380040F22700C0F200008DF80810ADF84F
:10AC8000100004A802F0E1F940F2050504A8C0F2A2
:10AC90000005ADF8105002F097F90DA802F017FA70
:10ACA00004A8ADF8105002F08FF90CA802F00FFACA
:10ACB00004A8ADF8105002F087F902A802F007FAD4
:10ACC00004A8ADF8105002F07FF90EA802F0FFF9C9
:10ACD00002F0FDF8A088142880F0C68440F6941194
:10ACE000C2F2020111F81020012A40F0198401EB90
:10ACF00040004078132800F2BE8440F284017422A0
:10AD0000C2F2020110FB021111F8692FFF2A00F0B4
:10AD1000A0848DF8080002A801320A70FEF711F82D
:10AD2000DFE810F02104050005002004310402A82A
:10AD3000FDF79AFF022840F0168400F024BCA168B9
:10AD4000207B8DF80C0001F0010007F8520CC1F3D4
:10AD5000021007F8510CC1F3C00007F8290CC1F329
:10AD600080008DF83400C1F340008DF83000C8B287
:10AD7000C00902918DF8380040F22100C0F20000B5
:10AD8000ADF8100004A802F060F940F20600C0F22D
:10AD90000000ADF8100004A802F016F9284602F0F1
:10ADA00013F940F2050604A8C0F20006ADF81060E1
:10ADB00002F00AF9A7F1520002F089F904A8ADF8EF
:10ADC000106002F001F9A7F1510002F080F904A827
:10ADD000ADF8106002F0F8F8A7F1290002F077F959
:10ADE00004A8ADF8106002F0EFF80DA802F06FF9BA
:10ADF00004A8ADF8106002F0E7F80CA802F067F9BB
:10AE000004A8ADF8106002F0DFF80DF138084046F4
:10AE100002F05DF904A8ADF8106002F0D5F80DF16C
:10AE2000080909F1010002F052F904A8ADF8106018
:10AE300002F0CAF809F1020002F049F902F047F8FD
:10AE4000A088142880F0108440F69411C2F2020108
:10AE500011F81020012A40F0238301EB40004078D4
:10AE6000132800F2088440F284017422C2F2020125
:10AE700010FB0214214611F8692FFF2A00F0E98324
:10AE800007F8290C013294F8670000260A700022A6
:10AE9000012840F08A83E168002900F07B83206963
:10AEA000A7F12902036CA7F11D0098477CE3D4E9C0
:10AEB0000201CDE9040140F22A00C0F20000ADF821
:10AEC00038000EA802F0C1F840F206060EA8C0F243
:10AED0000006ADF8386002F077F8284602F074F802
:10AEE0000EA8ADF8386002F06FF804ADA81D02F0AE
:10AEF0006BF80EA8ADF8386002F066F8A81C02F0F6
:10AF000063F80EA8ADF8386002F05EF8284602F04B
:10AF10005BF80EA8ADF8386002F056F8281D02F074
:10AF200053F801F0D4FFA088142880F09D8340F6E8
:10AF30009411C2F2020111F81020002A00F0A2833D
:10AF400001EB40004078142880F0958340F28401A2
:10AF50007422C2F2020110FB0210DDE90412C0E902
:10AF6000011212B0BDE80007F0BD40F22300C0F2AC
:10AF70000000ADF8100004A802F067F840F20500E8
:10AF8000C0F20000ADF8100004A802F01DF804F1B2
:10AF90000806304602F09BF801F099FFA088314680
:10AFA0002A46FEF76BF8002840F0BA822888002174
:10AFB000002280DF002800F0B382FEF77FFD0490BE
:10AFC00040F24900C0F20000ADF838000EA802F0CF
:10AFD0003CF804A800F0D8FB01F079FF12B0BDE8FE
:10AFE0000007F0BD607AC0F3800107F8291C00F06B
:10AFF0000301C0F3C0008DF8341000218DF830003B
:10B00000207BCDE90E01607BCDE9040140F22600F2
:10B01000C0F20000ADF8080002A802F016F840F2F5
:10B02000050602A8C0F20006ADF8086001F0CCFFEA
:10B03000A7F1290002F04BF802A8ADF8086001F072
:10B04000C3FF0DA802F043F802A8ADF8086001F0B4
:10B05000BBFF0CA802F03BF840F2080602A8C0F2C1
:10B060000006ADF8086001F0AFFF0EA801F08FFFF9
:10B0700002A8ADF8086001F0A7FF04A801F087FF5F
:10B0800001F025FF264616F8080F002840F04882F8
:10B09000607A400740F144822888FDF76FFBC007C3
:10B0A00000F03E8204AC8DF810100846314622466E
:10B0B000FEF778F8A2E0A07A8DF8120040F21F00A7
:10B0C000C0F200002189ADF838000EA8ADF81010CC
:10B0D00001F0BBFF40F20600C0F20000ADF83800FE
:10B0E0000EA801F071FF284601F06EFF40F2050541
:10B0F0000EA8C0F20005ADF8385001F065FF04ACB1
:10B10000204601F0E4FF0EA8ADF8385001F05CFFD6
:10B11000A01C01F0DCFF0EA8ADF8385001F054FF80
:10B12000601C01F0D4FF01F0D2FE12B0BDE80007B0
:10B13000F0BDD4E90201CDE90E0140F22000C0F2D9
:10B140000000ADF8100004A801F07FFF40F20606F1
:10B1500004A8C0F20006ADF8106001F035FF2846E3
:10B1600001F032FF04A8ADF8106001F02DFF0EAD24
:10B17000A81C01F029FF04A8ADF8106001F024FF1D
:10B18000A81D01F021FF04A8ADF8106001F01CFF1C
:10B19000284601F019FF04A8ADF8106001F014FF73
:10B1A000281D01F011FF01F092FEA088142880F004
:10B1B0005B8240F69411C2F2020111F81020012ABC
:10B1C00040F0AE8101EB40004078132800F253823A
:10B1D00040F284017422C2F2020110FB021111F844
:10B1E000692FFF2A00F0358202AC01328DF8080089
:10B1F00004A80A7021460022FDF787FC2046FDF7CF
:10B2000014FA12B0BDE80007F0BD40F21B00C0F216
:10B210000000ADF8100004A801F017FF40F206008E
:10B22000C0F20000ADF8100004A801F0CDFE2846E1
:10B2300001F0CAFE01F04BFE207A012810D002284E
:10B2400040F0468200F00BFB002800F0E98140F658
:10B25000C815C2F202052868002800F08C80F2E1CF
:10B2600000F0FDFA002800F0DB8140F6D415C2F2B0
:10B270000205286800287ED0E5E1207A00F00F0161
:10B280008DF8081000098DF8380040F22500C0F252
:10B290000000ADF8100004A801F0D7FE40F205054B
:10B2A00004A8C0F20005ADF8105001F08DFE02A810
:10B2B00001F00DFF04A8ADF8105001F085FE0EA8B6
:10B2C00001F005FF04A8ADF8105001F07DFE04F177
:10B2D000090001F0FCFE01F0FAFDA088142880F0BE
:10B2E000C38140F69411C2F2020111F81020012A24
:10B2F00040F0168101EB40004078132800F2BB813A
:10B3000040F284017422C2F2020110FB02110A46CB
:10B3100012F8693FFF2B00F09C8101331370227AF1
:10B320008DF8100002F00F03D0B2022B4FEA10127A
:10B3300000F00181012B00F0F980002B40F0F48037
:10B34000102880F0F1800022FDE040F21C00C0F2E5
:10B350000000ADF8100004A801F089FE00F07FFAAB
:10B36000002800F05D8140F6E025C2F20205286861
:10B37000002840F068814FF0FF302860686858B1BD
:10B38000A9682A1D0B692146984728680130286062
:10B3900012B0BDE80007F0BD0020286012B0BDE883
:10B3A0000007F0BDD4E90212A088CDE904121428E8
:10B3B00080F05A8140F69412C2F2020212F8103064
:10B3C000002B00F05F8102EB40004078142880F0F1
:10B3D000528140F284027423C2F2020210FB032065
:10B3E00080F8711040F22C00C0F20000ADF8380077
:10B3F0000EA801F02AFE40F206060EA8C0F20006D2
:10B40000ADF8386001F0E0FD284601F0DDFD0EA842
:10B41000ADF8386001F0D8FD04ACA01C01F0D4FDFB
:10B420000EA8ADF8386001F0CFFDA01D01F0CCFDF5
:10B430000EA8ADF8386001F0C7FD204601F0C4FD4C
:10B440000EA8ADF8386001F0BFFD201D01F0BCFD75
:10B4500001F03DFD12B0BDE80007F0BD00F0FFF9BE
:10B46000002800F0DD8040F6E026C2F202063068D7
:10B47000002840F0E88070684FF0FF313160E0B1A3
:10B48000B168321D0B692146984730680130306041
:10B4900012B0BDE80007F0BD00218DF810101CE0CF
:10B4A00040F24800C0F20000ADF8100004A801F01E
:10B4B000DEFD12B0BDE80007F0BD002013213060B2
:10B4C000288876DF12B0BDE80007F0BD00208DF8B7
:10B4D000100002A8FDF7A9F8002128880022002307
:10B4E00086DFE8B1FEF7EAFA0E9040F24A00C0F2B9
:10B4F0000000ADF8080002A801F0A7FD40F28700A7
:10B50000C0F20000ADF8080002A801F05DFD0EA831
:10B51000FEF75CF901F0DBFC12B0BDE80007F0BDFE
:10B5200012B0BDE80007F0BD01220CE0501E042857
:10B5300028BF012207E00120022A08BF0620012AB5
:10B5400008BF05200246C86881F8682018B109695B
:10B550008B6A04A9984704A8FDF767F812B0BDE804
:10B560000007F0BD0120CDE9040140F24B00C0F21C
:10B570000000ADF838000EA801F067FD04A800F047
:10B5800029F901F0A4FC02A8FDF74FF812B0BDE8BC
:10B590000007F0BD002027F81A0C102007F81B0C3C
:10B5A0004FF4E66027F81D0C012217F8190C002A49
:10B5B0008DF83D0004F14C00099004F1300057F87B
:10B5C0001D1C04ABCDE9076004F11400CDF839105F
:10B5D0004FF000018DF83820CDE90A66CDE9056607
:10B5E000049018BF08F1010228887FDF80B1FEF7C0
:10B5F00065FA0C9040F24700C0F20000ADF834004C
:10B600000DA801F022FD0CA800F0BEF801F05FFCCF
:10B61000A7F12900FDF709F812B0BDE80007F0BD59
:10B6200000200121089005914FF21451C0F202014F
:10B630000790042004914FF28C51069004A8C0F2A8
:10B64000020101F0F7FD4FF20860C0F2020001F0C4
:10B650005BFD40F25700C0F20000ADF8100004A8F6
:10B6600001F005FD01F02FFD4FF208421421C0F258
:10B67000020201F01BFE4FF2F8321421C0F2020266
:10B6800001F014FE40F25A00C0F20000ADF838009C
:10B690000EA801F0ECFC01F016FD40F25A00C0F2D9
:10B6A0000000ADF8100004A801F0E1FC01F00BFD72
:10B6B00040F26B00C0F20000ADF8100004A801F0E9
:10B6C000C4FC0EA800F01EF801F001FC01F0FBFC28
:10B6D000049040F27C00C0F20000ADF838000EA8E3
:10B6E00001F0B3FC04A800F062F801F0F0FB01F0F7
:10B6F000EAFC0021A0F80310102181704FF4E661EC
:10B7000001807047D0B502AF82B0044640F2050018
:10B71000C0F2000027F80A0CA7F10A0001F054FC5F
:10B72000204601F0D4FC02B0D0BDD0B502AF82B04B
:10B73000044640F20700C0F2000027F80A0CA7F107
:10B740000A0001F041FC206801F016FC02B0D0BDF7
:10B7500080B56F4682B040F28200C0F2000027F848
:10B76000020CB81E01F030FC02B080BD80B56F46FF
:10B7700082B040F28C00C0F2000027F8020CB81E24
:10B7800001F022FC02B080BDD0B502AF82B0044609
:10B7900040F28700C0F2000027F80A0CA7F10A0067
:10B7A00001F012FC2046FEF711F802B0D0BDD0B572
:10B7B00002AF82B0044640F20700C0F2000027F852
:10B7C0000A0CA7F10A0001F0FFFB204601F0D4FBB0
:10B7D00002B0D0BDD0B502AF82B0044640F28300C3
:10B7E000C0F20000ADF8040001A801F0EDFB2068F4
:10B7F000A0B14FF28930C0F2020001F068FC40F2C3
:10B800008700C0F2000027F80A0CA7F10A0001F037
:10B81000DBFB201DFDF7DAFF02B0D0BD4FF2883010
:10B82000C0F2020001F053FC02B0D0BDD0B502AFAF
:10B8300082B0044640F20C00C0F2000027F80A0C67
:10B84000A7F10A0001F0C0FB204601F02CFC4FF2EA
:10B850009C50C0F2020001F0B7FB02B0D0BD4EF622
:10B860000450CEF2000000686FF35F20B0FA80F061
:10B8700040097047F0B503AF2DE900070646D1E94E
:10B88000004AFEF75EFAD6E9005980460020306093
:10B890001DB1A54208BFD14517D021685046884741
:10B8A0000246D6E90030C6E90021002B1CBFD9684A
:10B8B0008847002D1EBFE968484688474046BDE8D6
:10B8C0000007BDE8F040FEF767BA35604046BDE8C6
:10B8D0000007BDE8F040FEF75FBAF0B503AF4DF8E2
:10B8E000048D0546FEF72DFAD5E900468046002076
:10B8F000286054B1A16830468847D5E90010C5E9F1
:10B90000004600291CBFC968884740465DF8048B83
:10B91000BDE8F040FEF740BA40F2080041F20451A1
:10B92000C2F20200C4F20101006B096800F00102DA
:10B9300081EAC251420A11EBC05042F10001704746
:10B9400080B56F4640F2080CC2F2020C9CF834102D
:10B95000BFF35F8F07E00022BFF32F8FD207BFF343
:10B960005F8F40F08180CBB2032B4FF0000038BFD7
:10B970000120022B79D80CF1340EDEE84F2F9A42C9
:10B980000ED10131BFF35F8FCEE8431F0021002BA2
:10B9900008BF4FF0FF31C907BFF35F8F07D065E0E5
:10B9A0000021BFF32F8FC907BFF35F8F5ED1032A3A
:10B9B0004FF0000038BF0120022A56D8DEE84F1FA2
:10B9C00091420ED10132BFF35F8FCEE8432F0022A8
:10B9D000002B08BF4FF0FF32D207BFF35F8F07D0B5
:10B9E00042E00022BFF32F8FD207BFF35F8F3BD11E
:10B9F00003294FF0000038BF0120022935D8DEE8C6
:10BA00004F2F8A420ED10131BFF35F8FCEE8431F23
:10BA10000021002B08BF4FF0FF31C907BFF35F8F34
:10BA200007D023E00021BFF32F8FC907BFF35F8F3B
:10BA30001CD1032A4FF0000038BF0120022A14D87D
:10BA4000DEE84F1F91427FF486AF0132BFF35F8F74
:10BA5000CEE8432F0022002B08BF4FF0FF32D20761
:10BA6000BFF35F8F3FF47FAF80BD80BD114680BDC7
:10BA7000F0B503AF4DF804BD0D4640F20801C0B269
:10BA8000C2F20201144601EB0016FEF75AF9C6E9AC
:10BA900002545DF804BBBDE8F040FEF77DB9F0B597
:10BAA00003AF2DE9000740F20805C4B2984692465C
:10BAB0002601C2F20205FEF744F905EB041245F82F
:10BAC00006A041F20831C2F80480C4F201012B6BD8
:10BAD000D1F8FC6103F0010586EAC5565D0A16EB54
