:020000022000DC
:1060000000000420016102007F290300F94F030012
:106010007F2903007F2903007F290300000000007F
:106020000000000000000000000000007F290300C5
:106030007F290300000000007F2903007F2903005F
:106040007F2903007F2903007F2903007F290300A4
:106050007F2903007F29030059270300F3CF0200A3
:106060007F2903007F2903007F2903007F29030084
:106070007F2903007F2903007F2903007F29030074
:106080007F290300272103007F2903007F290300C4
:106090007F2903007F290300590A03007F29030099
:1060A0007F2903007F2903007F2903007F29030044
:1060B0007F2903007F29030000000000000000008A
:1060C0007F2903007F2903007F2903007F29030024
:1060D0007F2903007F2903007F2903007F29030014
:1060E0007F2903007F2903007F29030000000000AF
:1060F000000000007F290300000000007F2903004A
:106100000CF03EFC0E480F490022814201D004C031
:10611000FBE70D480D490E4A814202D008CA08C06B
:10612000FAE70C484FF47001026842EA010202608B
:10613000BFF34F8FBFF36F8F06F0BEFF00DE00008E
:1061400070000220A08F02200000022070000220B8
:106150007870030088ED00E0F0B503AF2DE9000F83
:106160009DB0824691F8D0008946C8B1032840F01E
:106170008482CB461BF8B80F002800F0BB800328B0
:10618000CDF808A040F08682CA461AF8B00F002861
:1061900000F0FA80032840F09682D9F8AC402CE158
:1061A000D9F8BC504FF00008D9F8C030B9F8C46035
:1061B000D9E903CED9F81400C9F8C650C9F8CA30D5
:1061C000A9F8CE6099F8C840C9F818E0C188002C39
:1061D000B9F8CC00A9F82200204689F8273018BF6A
:1061E0000120A9F81C0099F8CB00B9F80030A9F8F3
:1061F000246000F00100013689F82600D807A9F8CC
:106200001E50B9F80850B3B289F82040C9F8588038
:1062100018BF691E88B2834262D9002C00F0A181A8
:1062200000219EF8020099F82020824240F09981D6
:10623000BEF80000B9F81E20824240F09281B9F801
:1062400024000029AEF8040000F08B81481E09F1FB
:10625000280611F0030420F0604300F07F81B9F8B4
:10626000280009F1300201280CD1B9F82A0042F6C1
:106270000215A84201BF99F82C000128B9F82E0098
:10628000AEF80600012C00F06A81B9F8300009F17F
:10629000380201280CD1B9F8320042F60215A842A2
:1062A00001BF99F834000128B9F83600AEF80600AD
:1062B000022C00F05481B9F8380009F1400201289D
:1062C00040F04D81B9F83A0042F60215A84201BFEC
:1062D00099F83C000128B9F83E00AEF806003EE10E
:1062E000CB460BF8B88F2BF8021C2BF8046C4BF83C
:1062F0005CCC05E0B9F8B610B9F8B460D9F85CC068
:106300009CF80000142880F0BE81742340F28004C1
:1063100000FB03F5C2F20204655DED072CD010FB13
:106320000340ADF85E10ADF85C6017A915464488CF
:1063300020469EDF0AF02FFCC00729D040F256000D
:106340001791C0F2000027F8360CA7F136000CF0C8
:10635000DEFC40F2B300C0F2000027F8360CA7F1D3
:1063600036000CF093FC17A80AF0B4FC07F000FC10
:10637000DDF85C80042402E000244FF000080120D6
:1063800000218BF80000EDE0D9F8606015460BE0C5
:106390002046CDF808A00AF070FC06460020CA4648
:1063A0000AF8B00F4AF8506C00204C4644F8640FCD
:1063B00004F14D0004F13C01A04651C104F10C0070
:1063C00048F8380F0BF037F9002800F021813068C9
:1063D000002840F0288170684FF0FF3131600028BC
:1063E00040F05E8145F210400021C0F203002A46D1
:1063F000C6E90018B060C9F8AC402046214605F057
:106400009EFE18B103208AF800002EE0D9F8700033
:106410000BA9019009F17C00D9E91D486CC86CC139
:1064200090E86C0000206CC1D9F8A860C9F8A800F9
:1064300056B10BF000F9002800F0FB80306800280E
:1064400040F00A8100207060D9F86400012803D16F
:10645000D9E91A10C96888474FF0010C8AF800C0C2
:10646000DDF804A0BAF1020F0BD1029A0320062135
:106470008BF80000118089F8D0001DB0BDE8000F36
:10648000F0BD0BAB0DF10C0EBAF1000F63CB7246F1
:1064900063C293E8630063C24FEA144040EA0841D4
:1064A000DDF808A08BF800C007D0A0B2032804BF15
:1064B00088B2B0F5857F55D140E0C4EA014CCDF8F3
:1064C0003080CDF82CC00BADBEE81E0005F10800F1
:1064D000BCF1000F1EC09EE81E001EC04FF0000061
:1064E00015902BD0D9F85860291D09F1280E0023EA
:1064F00000200A7901304D88052EB1F800801590F2
:1065000000F2B080002A18BF2C46154601F10601A2
:1065100018BF0125002A45EA04454EF836500EEB17
:10652000C60518BF1346C3EA084284456A60D9F815
:10653000582002F10106C9F85860DAD1B9F81C00F8
:10654000C0070ED0D9F818E0D9F858109EF802000C
:1065500099F8202082423FF46BAE02E03246032BD2
:106560000DD20524CAF804800120AAF80210AAF866
:10657000004089F8D0001DB0BDE8000FF0BD06EB6B
:10658000C10C1E3242F60213052404E006F120007D
:1065900020326045E6D0164636F81E0D01280AD195
:1065A00032F81C0C984201BF12F81A0C012832F87C
:1065B000180CAEF806003089012804BF32F8140C1C
:1065C000984207D112F8120C012804BF32F8100CBF
:1065D000AEF80600308A012804BF32F80C0C98424D
:1065E00007D112F80A0C012804BF32F8080CAEF8E3
:1065F0000600308B012804BF32F8040C9842C5D144
:1066000012F8020C012804BF1088AEF80600BDE79E
:1066100001200021189046F2B810C0F203001B912F
:1066200017901A910FE046F2EC20C0F203000CF034
:10663000DCFB01210020189146F2B811C0F20301E1
:106640001B9017911A90042046F23021199017A838
:10665000C0F203010CF05FFC46F20C30C0F2030004
:106660000CF0C3FB40F29100C0F20000ADF85C00FA
:1066700017A80CF05EFB0CF097FB45F20020C0F26F
:1066800003000DF0D7FD45F680321421C0F203025D
:106690000CF07CFC45F23020C0F203000DF0CAFD86
:1066A00001210020189146F26821C0F203011B90DD
:1066B0001A900420179146F2DC21199017A8C0F215
:1066C00003010CF028FC45F2D830C0F203000DF0B5
:1066D000B1FD70470020704700210180704770476E
:1066E00000207047002101707047F0B503AF4DF8EE
:1066F00004BD164612685AB30B880022112B0BD02A
:106700003B2B07D0382B20D1C9880223002908BF92
:10671000042302E0012300E00023D0E9010543EA5D
:106720000141C0E900120AF04CF9D5E90032022417
:10673000A968012B2C6004D1526805460846904791
:1067400028460AF069F9002030605DF804BBF0BD0E
:1067500045F28C3045F2B432C0F20300C0F20302BD
:1067600028210CF0E3FBF0B503AF2DE9000B84B05A
:1067700090460A880668112A06D0302A56D1CB885E
:106780002BB30122032101E001220021C3EA0443CB
:10679000C5EA0141C6F80630C6F8021084683280A6
:1067A0000AF00FF9D4E900320226A168012B266015
:1067B00004D1526804460846904720460AF02CF956
:1067C0000020C8F8000004B0BDE8000BF0BD0D4685
:1067D00035F80A2F3AB3012A1DD040F254028146FF
:1067E000C0F200020C4627F8222CA7F12202104624
:1067F0000CF08DFA40F20600C0F2000027F81A0CE7
:10680000A7F11A000CF042FA28460CF03FFA07F004
:10681000AFF921464846CD6800220B69290C41EAB0
:1068200003411C0CB2E701210122AFE740F28C00CA
:106830000292C0F20000ADF80C0003A80CF067FA59
:1068400002A804F0F5F907F093F90CF0ADFAF0B5F1
:1068500003AF2DE9000F8BB00B8892460568102B13
:1068600016D000221B2B12D0262B73D040F27000C2
:106870000693C0F20000ADF8100004A80CF047FA2F
:1068800006A804F0D5F907F073F90CF08DFA61E071
:1068900002900E464068B1F804800468C87B08F096
:1068A000C1FD07F8390C40F22A00C0F20000B168BF
:1068B000ADF8180006A8D6F80B200491D6E904B963
:1068C000CDF813200CF023FA40F2AE00C0F2000025
:1068D000ADF8180006A80CF0D9F9A7F1390008F0B6
:1068E00053FE40F20D0006AEC0F20000ADF81800F5
:1068F00030460CF0CBF904A808F0B4FD46F22200B3
:10690000C0F203000CF0C2F907F032F9D4E900023A
:1069100017F8391C049BCDE90002F21CCDF81B309E
:1069200006F10A03DDF813404046CDF82690CDF875
:1069300022B0ADF818808DF81A10CDF81E4007F07F
:106940007EFBC00704D01421404676DF012200E020
:1069500003220298C9B28468C5E900210AF031F81F
:10696000D4E900320226A168012B266004D15268C6
:1069700005460846904728460AF04EF80020CAF817
:1069800000000BB0BDE8000FF0BDF0B503AF2DE97E
:10699000000FA1B00B889146D0F800B0112B0BD09E
:1069A000322B40F0D980B1F806C0BCF1000F07D0FF
:1069B00001214FF0030AA4E001214FF0000AA0E0FA
:1069C0004B8900241094062B00F2D880002B00F095
:1069D000868001F10C0403EB83030C25DDF840E015
:1069E00005EB430C238925680EF1010A6468BCF1AC
:1069F000160FADF84C30CDF840A0CDE911546BD056
:106A000010AD0AEB8A0305F1040ED1F81640D1F857
:106A10001A80BCF1200F4EF813400EEB4303CD8BD0
:106A20001D81C3F80480109B03F1010ACDF840A03A
:106A300052D00AEB8A030C6AD1F82480BCF12A0FE9
:106A40004EF813400EEB43030D8D1D81C3F80480F7
:106A5000109B03F1010ACDF840A03DD00AEB8A0358
:106A6000D1F82A40D1F82E80BCF1340F4EF81340F3
:106A70000EEB43034D8E1D81C3F80480109B03F180
:106A8000010ACDF840A027D00AEB8A034C6BD1F85D
:106A90003880BCF13E0F4EF813400EEB43038D8F50
:106AA0001D81C3F80480109B03F1010ACDF840A0BA
:106AB00012D00AEB8A03D1F83E50D1F842404EF88A
:106AC00013500EEB4303B1F8461019815C60109926
:106AD00001F1010ACDF840A04FEA1A4C03E04FF053
:106AE000000C4FF0000A10A901AD01F1040EBEE840
:106AF0005E005EC5BEE85E005EC59EE85E005EC5E7
:106B0000002101AAABF806C0ABF804A00BF1080CF9
:106B1000CBF800107ACAACE87A007ACAACE87A00FE
:106B200092E87A008CE87A00846809F04AFFD4E998
:106B300000320226A168012B266004D15268044667
:106B400008469047204609F067FF0020C9F800007A
:106B500021B0BDE8000FF0BD40F28E001093C0F2EE
:106B6000000027F81E0CA7F11E000CF0D0F810A8AA
:106B700004F05EF806F0FCFF0CF016F940F28D0010
:106B80001093C0F2000027F81E0CA7F11E000CF0B5
:106B9000BEF810A804F05FF806F0EAFF0CF004F964
:106BA000F0B503AF2DE9000794B00B889046D0F8FC
:106BB00000A0112B0BD0332B40F0BB80B1F806E0C6
:106BC000BEF1000F07D001214FF0030989E0012138
:106BD0004FF0000985E04B8900240994062B00F250
:106BE000BA80002B6ED003EB43030C2501F10C049B
:106BF00005EB430C099BA588BCF1120F03F10109B9
:106C00002468ADF82C500A94CDF8249057D009ADE3
:106C100009EB490305F1040ED1F81250CC8ABCF1FE
:106C2000180F4EF813500EEB43039C80099B03F1A1
:106C30000109CDF8249042D009EB49038D698C8B72
:106C4000BCF11E0F4EF813500EEB43039C80099BC2
:106C500003F10109CDF8249031D009EB4903D1F8B3
:106C60001E504C8CBCF1240F4EF813500EEB430316
:106C70009C80099B03F10109CDF824901FD009EBFA
:106C800049034D6A0C8DBCF12A0F4EF813500EEBE0
:106C900043039C80099B03F10109CDF824900ED099
:106CA00009EB4903CD8DD1F82A104EF813100EEBE5
:106CB00043018D80099901F10109CDF824904FEA33
:106CC000194E03E04FF0000E4FF0000909A96D4680
:106CD00001F1040CBCE84E004EC59CE85E005EC5A8
:106CE0000021AAF806E06A46AAF804900AF1080C06
:106CF000CAF8001078CAACE8780092E87A008CE80C
:106D00007A00846809F05DFED4E900320226A168A9
:106D1000012B266004D1526804460846904720465D
:106D200009F07AFE0020C8F8000014B0BDE80007A2
:106D3000F0BD40F290000993C0F2000027F81A0C51
:106D4000A7F11A000BF0E3FF09A803F071FF06F0AA
:106D50000FFF0CF029F840F28F000993C0F20000F9
:106D600027F81A0CA7F11A000BF0D1FF09A803F0BD
:106D700072FF06F0FDFE0CF017F8F0B503AF2DE939
:106D8000000F89B00546D0F800900888904610287A
:106D900003D01B2877D1032056E0C87B0C468E8891
:106DA00008F040FB07F8390C40F23400C0F2000054
:106DB000A168ADF8100004A8D4F80B200291D4E922
:106DC00004ABCDF80B200BF0A2FF40F2AE00C0F2F6
:106DD0000000ADF8100004A80BF058FFA7F139002F
:106DE00008F0D2FB40F20D0004ACC0F20000ADF898
:106DF000100020460BF04AFF02A808F033FB46F2D1
:106E00002200C0F203000BF041FF06F0B1FE17F8BC
:106E1000391C04F10A03DDF80B20CDF81620E21C22
:106E20000298CDF813003046CDF81EB0CDF81AA068
:106E30008DF81210ADF8106006F0ABFFC00704D05B
:106E40003046142176DF052000E00820C9B2002476
:106E500040EA0140AD68C9E9000409F0B2FDD5E996
:106E600000320226A968012B2E6004D15268054623
:106E700008469047284609F0CFFDC8F8004009B001
:106E8000BDE8000FF0BD049040F29700C0F2000092
:106E9000ADF8080002A80BF03AFF04A803F0C8FE02
:106EA00006F066FE0BF080FFF0B503AF2DE900079A
:106EB00084B014460A8805684FF0000A112A05D0EC
:106EC0003A2A51D1CA881AB1012132E0002130E0BA
:106ED00080464068D0F800904889ADF8040040F240
:106EE0003200C0F2000027F8220CA7F122000BF0BC
:106EF0000EFF40F20600C0F2000027F81A0CA7F1BE
:106F00001A000BF0C3FE01A80BF0C0FE06F030FE25
:106F100099F80000142838D240F280017422C2F29D
:106F2000020110FB0210BDF80410A0F86410032148
:106F30004046866841EA0240C5E9000A09F041FD81
:106F4000D6E900320225B168012B356004D15268C0
:106F5000054608469047284609F05EFD002020605F
:106F600004B0BDE80007F0BD40F294000292C0F208
:106F70000000ADF80C0003A80BF0C9FE02A803F056
:106F800057FE06F0F5FD0BF00FFF45F68032142199
:106F9000C0F203020BF0FAFFF0B503AF2DE9000FCA
:106FA000ADF5BC4D8FB0044646F66840C0F2030014
:106FB00040F28002CDE9080400200C9008A80DF5ED
:106FC000B849C2F20202CDE90A0045F6983004EB56
:106FD000000A04F1200005909AF82D010794DFE8DB
:106FE00010F00900620462045B024002BA027102FE
:106FF00096027F0DDAF8E8000026CAF8600040F239
:107000003800C0F200008AF82C61ADF8600018A8C2
:10701000AAF82A610BF08DFE402018968DF86600C4
:107020004FF48040ADF8640018A80BF067F94EF2F9
:1070300007406021CEF2000055460170012045F85E
:10704000640F41F20001C0F2021140F2010CC5F8D8
:107050003F100621A9774FF0013145F2E453C5F8FE
:10706000321018214FF00912CB4640F20C59296218
:10707000C0F2001C4FF4B06185F83E00EE62C0F231
:107080000303A883C5F20009C5E903204FF40040BB
:10709000EE862E86AE87AE634FF48076C5E9016337
:1070A000C5E9051CC9F800000320C9F830022846CC
:1070B00007F093FF45F6B3414FF07232625002225F
:1070C000214485F8B62072220A71FF2185F8BC1090
:1070D00005F1B60168640AF064FA0DF16008696CA4
:1070E00045F208620823C0F20302404605F078FB2F
:1070F000BDF860600BF5B87EDDE919C2BDF862101D
:107100001D98CBF87C01F007DDE91B358EE82C00DB
:1071100040F043830BF5B87645F68A45CAF8EEC0D1
:107120004DCE6051601942608360C660DAF8A800F5
:10713000AAF8EC1005F0FEFE002800F04583014699
:10714000DAF860000AF0B4FB40F6002C0120C5F22A
:10715000000C03214FF40063C9F80003CCF80010C1
:1071600046F20016C9F800301023C9F8201240F288
:107170000125C9F800334023CCF8101046F2145E04
:10718000C9F800334FF40073CCF81810C0F20105B1
:10719000C9F800300423C9F8181209218AF83411FB
:1071A00040F62031C2F22461C4F20006CAF8301160
:1071B000002105F53452C4F2000E8AF82C01C9F8FA
:1071C000FC31C6F810543160CCF83C30CEF80020C9
:1071D00005F524527160CCF82C30CEF8042005F56A
:1071E0000062B160C9F81C3240F20023CEF80820DA
:1071F00042F60232C0F60322C2F60173F1600026A5
:10720000CAE95532272202238AF82B0108EB06052A
:1072100048F8061006F5E166033AC5F8C036C5F829
:10722000C416C5F88836C5F88C16C5F85036C5F8AA
:107230005416C5F81836C5F81C16C5F8E035C5F85B
:10724000E415C5F8A835C5F8AC15C5F87035C5F80E
:107250007415C5F83835C5F83C15C5F80035C5F8BE
:107260000415C5F8C834C5F8CC14C5F8B014C5F871
:10727000B414C5F86834C5F86C14C5F83034C5F8D2
:107280003414C5E9FE31C5E9F031C5E9E231C5E99B
:10729000D431C5E9C631C5E9B831C5E9AA31C5E976
:1072A0009C31C5E99611C5E98431C5E97631C5E956
:1072B0006831C5E95A31C5E94C31C5E93E31C5E906
:1072C0003031C5E92231C5E91431C5E906316960BB
:1072D00085F80007C5F8F81685F8CC3685F8C81685
:1072E00085F8943685F8901685F85C3685F858163A
:1072F00085F8243685F8201685F8EC3585F8E815EC
:1073000085F8B43585F8B01585F87C3585F878159D
:1073100085F8443585F8401585F80C3585F808154D
:1073200085F8D43485F8D01485F8C01485F8A804FD
:10733000C5F8A01485F8743485F8701485F83C34C9
:1073400085F8381485F8043485F8001485F8CC33B2
:1073500085F8C81385F8943385F8901385F85C3365
:1073600085F8581385F8243385F8201385F8EC3216
:1073700085F8E81285F8B43285F8B01285F87C32C9
:1073800085F8781285F8681285F85002C5F8481219
:1073900085F81C3285F8181285F8E43185F8E0117B
:1073A00085F8AC3185F8A81185F8743185F870112D
:1073B00085F83C3185F8381185F8043185F80011DD
:1073C00085F8CC3085F8C81085F8943085F8901091
:1073D00085F85C3085F8581085F8243085F8201041
:1073E00029747FF413AF04F1300518A945F668320B
:1073F00028460DF0DFF9284603F0A3FF47F21411E9
:107400000120C4F2000147F2F452C1F8EC0302205B
:10741000C1F8DC04C4F2000200200AF5A87510606F
:107420000822C1F8FC2340F20052C0F202020DF51E
:10743000B849C1F804244FF6FF72C0F23F02C1F808
:10744000F4214EF20011CEF200018022C1F8802119
:107450000A6045F6B94121448AF85001CAE94E1044
:10746000A6E09AF8A0010AF5D0710691002800F074
:107470009980032840F0B8819AF858010AF59C7663
:107480000AF5AC73DFE810F00500F1010F025301BB
:107490003E01DAE9501007E29AF850010AF5A875A2
:1074A000002800F08380032840F0A4819AF84C0162
:1074B0000AF5A676002800F08280032840F0B28109
:1074C00008A98DE09AF8BC010AF5DE7E002800F0DC
:1074D000D480032840F094819AF8B9010AF2B912D5
:1074E000002800F0D880032840F0A2819AF890018B
:1074F0000AF5C87BCDF818E00028049200F022813C
:10750000032840F08981DAF88C5101F08DB99AF89E
:10751000C6010AF5E379002800F0B780032840F09F
:1075200075819AF8BE010AF5DF78002800F0B9806D
:107530000328CDF8188040F081819AF8B8010AF547
:10754000DC7B002800F00281032840F09481DAF807
:10755000B46101F044BA9AF85A010AF5AD71069186
:10756000DFE810F08D047D01A1010700B700160DC2
:1075700001089AF89C010AF5CE7B002800F0EA8009
:10758000032840F07E819AF898010AF5CC710491A5
:10759000002800F0F880032840F03E81DAF894617A
:1075A00000F0DABCDAE94C1000F02EBEDAE94E1039
:1075B0000AF5A6760022CAE95010CAE9521247F22B
:1075C00014100021C4F20000012240F8041C102114
:1075D000C0F8F0114FF6F861CFF6FF7142500A99EA
:1075E00048F69870C2F202000BF05BFA47F21411F1
:1075F000C4F2000151F8040CD0B3002045F6C84C89
:1076000041F8040C45F69B4354F80C20DAE9555137
:10761000E250012223448AF84C218AF85021DAE909
:107620005026CAF8AC2004EB0C02CAF80C111279EF
:107630001A7145F6E032A118CAF8B0608AF8B400B1
:107640008AF84400CAE90F00CAF80C00CAE9000031
:10765000AAF82B01CAE92EAAA050CAF808518AF844
:107660000201C1E90100C1E90300888200F0D7BD31
:1076700003202870307001F0CBBCDAE951510AF5D3
:10768000987CDAE953B801F02AB89AF8C721DAF8F9
:10769000C00101F02AB9DAE965B8DAF8A01101F001
:1076A0002DB8DAF874010078142881F0C2837421AF
:1076B0004143515CC90701F0D683DAF87C31B3F558
:1076C000803F80F0C180DAF87821BAF8BC1101F06F
:1076D00031B99AF8D0010AF5E87C002841D0032896
:1076E00040F0D5809AF8C8010AF5E47102910028AB
:1076F000CDF80CC04AD0032840F08E80DAF8C4617F
:1077000000F054BE9AF89E010AF5CF7502930496D4
:1077100078B3032840F0C1809AF894010AF5CA783A
:107720000195B8B3032877D1DAF890619BE29AF813
:1077300094010AF5CA7B029300B303286CD1DAF8EE
:1077400090515FE1DAE9576801F043B8DAF88C51FB
:1077500001F019B99AF86211BAF86001DAF85C51CF
:10776000A2E3BAF8CE21BAF8CC31DAF85C0100F025
:1077700096BDBAF89811DAF85C4191E13446DAE93D
:107780005860079B12E1DAF86851B9E3DAF8605102
:1077900000F0E0BDDAE9585439E240F262000DF53C
:1077A000A04EC0F20000CDF860C0AEF8C00C0DF1E4
:1077B000400E0EF5B9400BF0AAFA18A803F012FA21
:1077C00006F0D6F90BF0F0FA40F26100C0F20000CA
:1077D000ADF8600018A80BF09AFA18A803F0C7FAE1
:1077E00006F0C6F90BF0E0FA45F2EC20C0F2030017
:1077F0000CF020FD45F2FC40C0F203000CF01AFD35
:1078000045F28010C0F203000CF014FD45F2C450A4
:10781000C0F203000CF00EFD45F2D830C0F20300B8
:107820000CF008FD45F27400C0F203000CF002FDFC
:1078300045F27010C0F203000CF0FCFC45F2502041
:10784000C0F203000CF0F6FC40F29300C0F200001E
:10785000ADF8600018A80BF06CFA0BF0A5FA45F231
:107860006020C0F203000CF0E5FC45F2DC20C0F221
:1078700003000CF0DFFC45F27C30C0F203000CF09A
:10788000D9FC45F22020C0F203000CF0D3FC45F2F5
:107890004020C0F203000CF0CDFC45F21020C0F2F5
:1078A00003000CF0C7FCFEDECAE94E1000218AF886
:1078B0005711014651F8042F4FF0040B002A1CBF4A
:1078C0008068002800D115E218A8029309F0D1FBC6
:1078D000BDF8600048B119980025029B4FF0070BD6
:1078E0004FEA10680002039004E219AABDF8623062
:1078F000AAF84831012307CA0025CAF84A01DAF874
:107900003C01CAF84E110121CAF8522100F11C02B3
:107910008AF85C1100208AF857110AF5A4718CDFEF
:1079200009F039F9012829D140F25A00C9F8C010EC
:10793000C0F20000ADF8600018A80BF0E8F940F2C2
:10794000B300C0F20000ADF8600018A80BF09EF97B
:107950000DF1400E0EF5B94009F0BCF906F008F93A
:10796000D9F8C0004FF0070B4FEA106800020390EF
:107970009AF85701002840F0C981EDE140F2330048
:107980003446C0F20000ADF8600018A80BF0D1F941
:10799000079B45F6EE4040F6D4368AF894511844D9
:1079A000C2F202060AF5CA7BCAE958600AF5B47148
:1079B00045F610524FF000080AF5B6751A44CAE9A8
:1079C0006021CAE96256CAE95A0809F034FE002863
:1079D00001F0A8813068002841F0938170684FF071
:1079E000FF313160002841F02B8245F224410AF535
:1079F000C070C0F203010022C6E90020B160264633
:107A0000CAF890510AAA2846294604F098FB002893
:107A100040F03E83DAF88C510020DAE95E98CAF82B
:107A20008C0155B109F007FE002801F0708128682B
:107A3000002841F0F58200206860DAF86C01012826
:107A400003D1DAE95C10C968884701208BF800008F
:107A50001FFA89FBBBF1090F00F026834FEA19409A
:107A600040EA0845BBF1080F40F0948000228AF8F4
:107A70005651DAE94E010AF5AB748AF857210AF536
:107A8000CF7531F8023B0DF5B8490496002B08BFBD
:107A9000014609888AF89E21AAF89811CAF85C4123
:107AA000AAF89A1140F280062078C2F202060195E7
:107AB000142881F0BE8174224FF0000B00FB02F30A
:107AC0004FF00008F35CDB074FF000035CD040F29E
:107AD000800340F20609C2F202030AF5CD7610FBDC
:107AE00002300AF5CE7589B2C0F20009B0F8028002
:107AF000B0F86400AAF89C0188425AD240F23100E2
:107B0000C0F20000ADF8600018A80BF000F918A84A
:107B1000ADF860900BF0BAF830460BF0B7F818A843
:107B2000ADF860900BF0B2F828460BF0AFF806F015
:107B30001FF831884046A5DF09F02DF801285BD1F8
:107B400040F258000DF5B849C0F20000ADF86000F1
:107B500018A8C9F870110BF0DAF840F2B300C0F2BF
:107B60000000ADF8600018A80BF090F8A7F1E8004D
:107B700009F0B0F805F0FCFFD9F870014FF0020BE6
:107B8000019D4FEA10680302049E01202870002521
:107B90000393B2E04FEA19600DF5B84940EA0820B6
:107BA00003904FEA18689AF85701002840F0AE8019
:107BB000D2E040F23000C0F20000ADF8600018A83A
:107BC0000BF0A5F818A8ADF860900BF05FF8304600
:107BD0000BF05CF818A8ADF860900BF057F8284649
:107BE0000BF054F805F0C4FF019901200DF5B849D8
:107BF000049E029B087076E0404609F03EF8054678
:107C000000208AF894010AF5CA78CAE958540AF59E
:107C1000B470079A45F610514FF000090AF5B67690
:107C20001144CAE96010CAE96265CAE95A4909F013
:107C300002FD002800F041822868002841F06180A0
:107C400068684FF0FF312960002841F0F98045F263
:107C500038410AF5C070C0F203010022C5E90020D6
:107C6000A960CAF890610AAA3046314604F067FA62
:107C7000002840F00582DAF88C610020DAE95E59CC
:107C8000CAF88C0156B109F0D6FC002801F03F80FB
:107C90003068002841F0C48100207060DAF86C017F
:107CA000012803D1DAE95C10C9688847049E0120E5
:107CB0001FFA85FBBBF1040F88F8000000F0E38198
:107CC00001994FEA1968029BBBF1030F08704FEA54
:107CD000156040EA092003904FEA154040EA094543
:107CE0000DF5B84909D100209AF856518AF8570184
:107CF0004FF0080B0120187036E0079945F6EE406A
:107D0000084405F039FF9AF8570128B39AF85C0146
:107D100000218AF85C1101281ED18DDF08F03BFF9D
:107D2000012819D140F259001891C0F2000027F83B
:107D3000E80CA7F1E8000AF0EAFF40F2B300C0F255
:107D4000000027F8E80CA7F1E8000AF09FFF18A848
:107D500008F0C0FF05F00CFF4FF48070BBF1090F75
:107D6000AAF8570100F0A38196F8200004281FD03C
:107D7000032854D196F85C00032826D13146766D4D
:107D800000200C46486556B109F055FC002800F06B
:107D9000BE873068002841F0438100207060606B2E
:107DA0002646012811D1D6E90E10C96888470CE093
:107DB00096F86600032804BF96F85C00032800F0DC
:107DC000448106F11E0005F0D7FEF07F28B396F837
:107DD0002400002186F8241001281ED18DDF08F030
:107DE000DAFE012819D140F259001891C0F20000C2
:107DF00027F8E80CA7F1E8000AF089FF40F2B30089
:107E0000C0F2000027F8E80CA7F1E8000AF03EFFF6
:107E100018A808F05FFF05F0ABFE0020F077069988
:107E20000120BBF1080F087040F0798140F23A0060
:107E30008AF82851C0F20000ADF8600018A80AF0D6
:107E400078FF0AF594700799CAF8300145F6CC40DE
:107E500008440EA96CC96CC07CC97CC0002209888A
:107E6000079C018045F6F340204418A98AF85A215E
:107E700040F265120CF0D3FD0AF5AD70069046F2A3
:107E80001A10DAF83051C0F20300CAF8345107F082
:107E9000A3FA00228AF862118AF89C210AF5CE7BA7
:107EA000AAF86001CAF85C518AF86611AAF8640160
:107EB0002878142880F0BD87742140F2800300FBED
:107EC00001F2C2F202039A5CD20700F0458110FB76
:107ED00001300AF5B2720121458828469BDF08F07F
:107EE0005AFEC00740F03B81284608F0C6FE054612
:107EF00000208AF898010AF5CC70CAF868510490FD
:107F000045F6315045F6105120444FF000080AF56F
:107F1000B6762144CAE96110CAE96365CAF86C8182
:107F200009F089FB002800F0D4802868002840F080
:107F3000E88668684FF0FF312960002840F0308102
:107F400045F2C4310AF5C270C0F203010022C5E94E
:107F50000020A960CAF894610AAA3046314604F0AC
:107F6000EEF8D846002840F09780DAF89091BAF8F9
:107F70007A51BAF878B1B9F1000FDAE95F060390E7
:107F80004FF00000CAF890010CD009F054FB002813
:107F900000F0AC80D9F80000002841F041800020BA
:107FA000C9F80400DAF86C01012803D1DAE95C10A1
:107FB000C968884704990DF5B8490120BBF1020F43
:107FC00008706CD00399BBF1010F88F800004FEAEC
:107FD000114040EA064000F0FA800DF5A04EC9F8C5
:107FE0001660AEF8140C0DF5A04E5FEACB70AEF83B
:107FF000121C0DF5A04EAEF8105C40F0FC80DAF8D3
:108000003401D9E90412CAE94E1205F042FE0546D0
:1080100046F22A10C0F2030007F0DEF9BAF83E215A
:108020000026BAF83C318AF85451CAF850618AF8EF
:108030004E11AAF84C01AAF84061AAF85631AAF8E4
:108040005821934280F0668256E23146766D0020D8
:108050000C46486556B109F0EEFA002800F0578644
:108060003068002840F0DC8700207060606B264696
:1080700001287FF4A6AED6E90E10C9688847A0E6AD
:10808000032088F8000001990320087004200CE008
:1080900003208BF8000008E00499032008700320F7
:1080A00088F8000000F0B1BF03200299087006991B
:1080B00003200870042000F0ABBF0120CDF87090C1
:1080C000199046F2B810C0F20300CDF86C9000F0A1
:1080D00033BE46F2B81104220120C0F20301C9E9FF
:1080E0003010C9E93228C9F8D0800EE046F2B81243
:1080F0000DF5B846002004230121C0F20302C6E9B1
:108100003021C6E93230C6F8D00046F23021C0F244
:1081100003010DF1400E0EF5B9400AF0FCFE039983
:108120004FEA086045F28843C0F2030340EA112099
:108130001990E8B2000440EA01605844189045F2F2
:108140002060C0F20300009045F25C40C0F20300E2
:1081500018AA2B210AF038FF002000261AE040F26E
:1081600053000DF5A04EC0F20000C9F8C010AEF8E3
:10817000C80B0DF1480E0EF5B7400AF0C8FD0DF121
:10818000400E0EF5B94002F040FD05F0F1FCD9F8C3
:10819000C0600420039001208BF8000000201DE047
:1081A00046F268220121C0F2030200200423C9E93B
:1081B000302146F2DC21C9E93230C9F8D000C0F2E2
:1081C00003010DF1400E0EF5B9400AF0A4FE89B28C
:1081D000032904BF81B2B1F5857F13D00DF5A04E00
:1081E0000DF5B841AEF8140C0398C1F816600DF502
:1081F000A04EAEF8120C0DF5B840D0F81280D0F8B1
:108200001650E4E10120F2E70022CAE950108AF892
:1082100058210AF59C760AF5AC73FFF745BB40F28E
:108220003900C0F20000ADF8600018A80AF081FD26
:1082300045F6BA404FF066312150022120448AF8B9
:1082400021116621544601710AF2211044F8C00F31
:10825000FF20632184F8670040F20010C0F2011093
:10826000C0F29011C4F81A004FF00610C4E90801DA
:10827000002220464FF4FA7320F8042F04F1080C72
:1082800054F8181C40F6AC2601252283C4E91C10C2
:108290008CE87000636104F8E02F0694B4E700787E
:1082A000142880F0C685742140F2800500FB01F699
:1082B000C2F20205AE5DF60733D010FB0150CDF8D7
:1082C0000CC027F8362CA7F1380127F8383C458830
:1082D00028469DDF08F05FFCC0072FD040F2550014
:1082E00047F8381CC0F2000027F83A0CA7F13A0012
:1082F0000AF00DFD40F2B300C0F2000027F83A0C7E
:10830000A7F13A000AF0C2FCA7F1380008F0E2FC3D
:1083100005F02EFC57F8385C4FF00408DDF80CC06F
:1083200002E04FF00008002501208CF80000032037
:10833000C0F20A10804500F0ED8043E1284608F0C5
:108340009CFC054600208AF8C8010AF5E470CAF8CA
:108350006051029045F6615045F6085120444FF0B7
:1083600000080AF5B2762144CAE96D10CAE96F65C2
:10837000CAF8648109F05FF9002800F0FD842868DC
:10838000002840F0BE8468684FF0FF312960002863
:1083900040F0878545F2E8310AF5DA70C0F2030152
:1083A0000022C5E90020A960CAF8C4610AAA3046C3
:1083B000314603F0C4FE002840F0448445F61450D2
:1083C000DAF878112044049110A9DAE95CE801F5A3
:1083D000B94B6CC859466CC17CC87CC190E87C0024
:1083E00000207CC1DAF8C091CAF8C001B9F1000FD1
:1083F0000ED0744609F01FF9002800F0D184D9F896
:108400000000002840F00C860020A646C9F80400B1
:10841000DAF86401012805D1DAE95A107446C9680E
:108420008847A64602980DF5B8494FF0010CBEF1F9
:10843000020F80F800C000F0088404A8BBE87800B0
:1084400000F5B8410A4678C2BBE8790079C29BE8DA
:10845000790079C2039880F800C012A800F5B74CE3
:1084600078C9624678C279C979C291E8790079C23F
:108470005FEACE7007D0079C049D0320C0F20A106B
:10848000804547D09EE00498B8F1000F079CCAE9E8
:10849000A08045F62060BCE84E0020444EC0BCE8F9
:1084A0006E006EC09CE86E006EC0C9F80080C9F80E
:1084B000C09000F055850AF5207C04F5BA41BCE86F
:1084C0007C007CC1BCE87C007CC19CE87D007DC157
:1084D0000020079CCAF8A801DAF868118842C0F0A9
:1084E000E38500F2C2850020BAF85821BAF8563167
:1084F000CAF8680193420DD20020AAF8CE218AF86A
:10850000D0010AF5E87CDAF83401AAF8CC31CAF8CF
:108510005C01C4E6BAF84001002848D045F6DA40CC
:1085200045F6D0422158204445F6E44345682244AC
:108530000089234427F83C0C45F60C50C9E9851501
:1085400000240799DAF834610844A7F1E801CAF871
:108550007021AE22AAF85C41CAE95A630CF061FAB4
:108560008AF82C42079C45F6F4400DF1400E211884
:108570000EF5B9400AAAFDF7EFFD0DF5A04EBEF8C5
:10858000C00C062800F05C839AF82C02D9E93085EB
:10859000032808D19AF81402032804BF9AF80C02A1
:1085A000032800F00B831FFA88F005280AD1BAF8D7
:1085B000500100254FF0020800281CBFBAF85201F4
:1085C00000281DD145F6EC40204405F0D5FA069967
:1085D000012045F2B843C0F2030308700DF5B8401E
:1085E000C0E95C8545F23060C0F20300009045F2BE
:1085F0005C40C0F20300A7F1E8022B210AF0E4FC82
:10860000DAF84E010123CAF8120140F23B00C0F231
:108610000000DAF85211ADF8600018A8BAF84C2141
:108620008AF85A31CAF81611AAF810210AF081FB0B
:1086300040F201100DF5A04EC4F82A004FF4C870A6
:10864000606245F6C9429EF8C20C0DF5A04E46F296
:108650003C1345F24068BEF8C01C46F2841BA15290
:10866000A118C0F20303887046F26011C0F2030142
:1086700008200431CAE94F1045F6EC401822204486
:1086800018A90026C0F203080433DAF8A850CAE992
:108690004D326822C0F2030BDDF8149084F8286094
:1086A00026848AF83061CAF84451CAE9529BCAF854
:1086B00050810CF0B6F90DF5A04E45F655518AF8EB
:1086C000BC610AF5987CBEF8100C0DF5A04E605206
:1086D00021449EF8120C0AF5DE7E8870494645F664
:1086E0003C52CAE965B8CAE9675122449CE879005E
:1086F00079C200200AF2B9128AF8B9019AF8A46185
:108700000123CDF818E08AF8B831CAE955B80AF55E
:10871000AA789AF8A501DAE96A95DAE96CECBAF870
:10872000A6310492DFE806F0032D20220F000DF59C
:10873000B8400023C0E95E95C0E960EC012007F86D
:10874000CF0C00202CE00724002207F8CF4C0DF5B9
:10875000B84407F8E15CC4F8739127F8E73CC4E932
:108760005EECC4F880211AE002260BE00DF5B84655
:1087700000230622C6E95E95C6F8803107F8CF2CA3
:108780000EE0032627F8E63C0DF5B84307F8E70CA2
:10879000002007F8CF6CC3F88001C3E95D90012386
:1087A00007F8CE0CA7F1E800002507F8E83C07F829
:1087B000D05C06F004F9079C032840F04B8240F699
:1087C000B8168AF89051C2F202060AF5C87BCAE9C7
:1087D00057680AF5B27045F60C514FF000090AF5DA
:1087E000B4752144CAE95F10CAE96156CAE95989DA
:1087F00008F021FF002800F0A9823068002840F02E
:10880000808270684FF0FF313160002840F0628351
:1088100045F2FC310AF5BE70C0F203010022C6E940
:108820000020B160CAF88C510AAA2846294603F0F4
:1088300086FC002840F05A82DAF888510020DAE9F4
:108840005D69CAF8880155B108F0F5FE002800F00E
:10885000C0822868002840F0E38300206860DAF8CE
:108860006801012803D1DAE95B10C9688847012053
:10887000042E8BF8000000F03C82032E8AF8BC0125
:108880008AF8B90140F0258263200AF22916C0F265
:10889000901018A919904FF006101890304686F8DD
:1088A000009005F000FC022840F02B8340F23C00D1
:1088B000C0F20000ADF8600018A80AF03AFA0020F3
:1088C00001228AF8700145F6844020448AF82A2162
:1088D0000AF5E379CAE94C604FF48070AAF8C60142
:1088E00045F6A8402044CAF8C001C18800238AF890
:1088F000C4210AF5E2728AF8C53100F108068AF847
:10890000BE310223AAF8BC11CAE95D62CAF87C3103
:10891000007A142880F08D82742340F2800643434D
:10892000C2F202060AF5DF78F35CDB074FF00203C0
:1089300000F0998240F280057426C2F2020510FB15
:108940000650002645880120AAF882110AF5C07158
:10895000AAF88001CAF888212846AAF88631AAF820
:108960008461A3DF08F017F9C00740F08082284631
:10897000CDF8188008F081F905468AF8B861CAF880
:108980008C010AF5DC7B45F6345045F65151204404
:108990004FF000080AF5C8762144CAE96910CAE90F
:1089A0006B65CAF8908108F046FE002800F0BA8195
:1089B0002868002840F0A58168684FF0FF312960E1
:1089C000002840F03D8245F2FC210AF5D270C0F249
:1089D00003010022C5E90020A960CAF8B4610AAA0F
:1089E0003046314603F0ABFB002840F01F81DAF837
:1089F000B0810020DAE96765B8F1000FCAF8B0016C
:108A00000CD008F018FE002800F08181D8F8000092
:108A1000002840F0BF810020C8F80400DAF8900177
:108A2000012803D1DAE96510C96888470120B1B28D
:108A300005298BF8000000F0FC80069A042989F8CB
:108A40000000107040F070820DF160080AF5987116
:108A50004FF00009442240468AF82A910BF0AAFE02
:108A600045F6844145F644422144224445F6C1403E
:108A7000079DCAE9722145F6884145F6E032204457
:108A80002144224404F1300345F654442C44079E0B
:108A900045F69A45CAE950103544CAE94C54079C3A
:108AA0004146CAF8D00145F688502044CAE94E3202
:108AB00044228AF8D4918AF85C910BF07BFE45F64B
:108AC000A8418AF87C920DF5B849214445F65040FA
:108AD00045F6C04220442244CAE98D21CAF83C022E
:108AE00045F6C8400AA9204400F002FDC0B204289F
:108AF00000F09A809AF83002032804BF9AF82C02FA
:108B0000032827D09AF87C02032804BF9AF8780239
:108B1000032839D09AF8D401032807D19AF8EE0136
:108B2000032804BF9AF8E801032863D000208AF8DC
:108B30002A0145F6C140204405F01EF845F6B04034
:108B4000204405F019F845F6C040204405F014F81B
:108B5000FFF765BBDAF824520020CAF8240255B1A9
:108B600008F069FD002800F04B812868002840F0DB
:108B7000118100206860DAF80C020128C2D1DAE91C
:108B80008410C9688847BDE7DAF870520020CAF837
:108B9000700255B108F04FFD002800F031812868BF
:108BA000002840F0F78000206860DAF858020128B9
:108BB000B0D1DAE99710C9688847ABE7DAF8044220
:108BC0000020CAF8040254B108F035FD002800F076
:108BD0002D822068002840F0238200206060DAF8AF
:108BE000C001079C01287FF4DEACDAE97110C96886
:108BF0008847D8E447F214100021C4F20000016055
:108C00004FF6F461CFF6FF7101224250016841B97D
:108C10000168002904BF0168002902D10168002908
:108C2000F4D00021016081E70820F1E103208BF8F6
:108C300000000699032089F8000008700720E7E18A
:108C40000620E2E1029903200870039903200870CE
:108C50000420DAE106469AF8B80189468AF8B85144
:108C600001282FD140F23600C2F20200007874DFF2
:108C700007F091FF012825D10DF5B8400DF5A04E64
:108C8000C0F8701140F24900C0F20000AEF8C80B05
:108C90000DF1480E0EF5B7400AF039F840F2B30076
:108CA0000DF5A04EC0F20000AEF8C80B0DF1480E55
:108CB0000EF5B74009F0EAFFA7F1E80008F00AF85E
:108CC00004F056FF04990120042E087014D0069970
:108CD00008700DF5B84045F29843C0F20303C0E9AF
:108CE0005C6945F28460C0F203007FE403208BF8E6
:108CF00000000499032008700699032008700620DC
:108D000086E146F2EC20C0F203000AF06EF8002083
:108D100001211C90199146F2B811C0F203011B9079
:108D200018910AE00120CDF87080199046F2B81031
:108D3000C0F20300CDF86C801890042046F2302178
:108D40001A9018A8C0F203010AF0E5F846F2B8112B
:108D50000DF5B84304220120C0F20301C3E95E29E6
:108D6000C3E95C10C3F8809146F23021A7F1E80016
:108D7000C0F203010AF0CFF8012047F8288C47F829
:108D8000340C46F2B810C0F2030047F82C8C47F8B8
:108D9000380C13E046F2FC20C0F203000AF025F87C
:108DA0000121002047F8341C46F2B811C0F203013B
:108DB00047F8280C47F8381C47F82C0C042046F2DA
:108DC000302147F8300CA7F13800C0F203010AF057
:108DD000A2F846F2B8120DF5B8460020042301218E
:108DE000C0F20302C6E95C21C6E95E30C6F8800124
:108DF00046F23021A7F1E800C0F203010AF08BF837
:108E000046F2B81200200121C0F203020423C9F87F
:108E10007021C9F87411C9F87831C9F87C01C9F812
:108E2000800146F23021A7F1E800C0F203010AF008
:108E300072F845F680321421C0F203020AF0A6F857
:108E400001210020199146F26821C0F203011C9013
:108E50001B900420189146F2DC211A9018A8C0F249
:108E600003010AF058F800200022002113E040F22C
:108E700057001891C0F2000027F8E80CA7F1E800AD
:108E800009F045FF18A801F0C0FE04F071FE189823
:108E90000321020C0004012389F8003088F8003017
:108EA00046E00121002047F8341C46F26821C0F258
:108EB000030147F8280C47F82C0C042047F8381C0D
:108EC00046F2DC2147F8300CA7F13800C0F203016C
:108ED0000AF021F846F268220DF5B8460020042376
:108EE0000121C0F20302C6E95C2146F2DC21C6E999
:108EF0005E30C0F20301C6F88001A7F1E8000AF075
:108F00000AF8CDE9180145F29460C0F2030045F279
:108F10004C43009045F25C40C0F20300C0F20303F2
:108F200018AA2B210AF050F8300C2A0C40EA054010
:108F300041EA00411891110441EA1040199045F2AC
:108F4000A460C0F2030045F2A843009045F25C40E3
:108F5000C0F20300C0F2030318AA2B210AF034F870
:108F600040F292000DF5A04EC0F20000AEF8100CD9
:108F70000DF1100E0EF5B84009F0C9FE0DF1400ECE
:108F80000EF5B94001F0E0FE04F0F2FD09F00CFF2F
:108F900045F644500DF1400E21180EF5B9400AAACD
:108FA000FDF7DAF80DF5A04EBEF8C00C06282BD060
:108FB0009AF87C02D9E93085032807D19AF864022F
:108FC000032804BF9AF85C02032806D01FFA88F031
:108FD00005283ED1DAF8A8014DE0DAF85442002025
:108FE000CAF8540234B108F026FBF8B12068B8B9C9
:108FF00000206060DAF81002079C0128E6D1DAE967
:109000008510C9688847E1E70520069908700520A2
:109010008AF82D010DF5BC4D0FB0BDE8000FF0BD75
:1090200046F20C30C0F2030009F0DFFE46F2B8123F
:1090300000200121C0F203020423C9F8C020C9F8AE
:10904000C410C9F8C830C9F8CC00C9F8D000FFF77F
:109050005CB8DAF86811DAF8A801884205D8079CEC
:109060000020CAF86801FFF7ADBA46F28002C0F2EC
:1090700003020AF05DFE45F6F441BAF86431625825
:1090800045F6DA462144A2510122AAF840215A1C91
:10909000A319AAF856210A89496859601A81DAF891
:1090A00068118842BFF41DAA00EB800245F6045304
:1090B000BAF8401145F6F44504EB420201300DF5D3
:1090C000A04E0029D6581A44138952686651254487
:1090D000CAF8A8016A602B81AEF80C3CC9E90162AC
:1090E000C9D045F6DA400DF5A04E21582044DAF8F3
:1090F000344102894068AEF86C2D0DF1100E0EF56A
:10910000B8450DF1400EC9E959100EF5B941284690
:10911000AE220BF086FC079B45F64652D9E90101C9
:109120000DF5A04ECAF8B84198500120AAF8AC013C
:109130000798079C1044BEF80C2C416007990281E7
:1091400045F6D0400844079A45F6E4411144CAE97F
:109150006F1045F65C5029462044AE220BF061FCAE
:1091600000208AF87C0213E7D0B502AF86B004462F
:1091700046F66840C0F203000021CDE900046A46CB
:1091800094F84C000491CDE9022258B1032826D16D
:1091900094F8480058B1032827D194F8440080B9C6
:1091A000A06A08E0206A84F84810606200E0606A03
:1091B00084F84410A062C4E90B10C4E90D11C4E99D
:1091C0000F1104F12C0002A902F027FF032084F8FC
:1091D0004C0084F8480084F8440006B0D0BD45F245
:1091E000D450C0F203000BF025F845F2F000C0F2B5
:1091F00003000BF01FF8FDF7B6BAFDF7C6BBFDF78D
:1092000026BBFDF7BABDFDF7CBBCFDF74DBEF0B5F3
:1092100003AF4DF804BD164612685AB30B880022FE
:10922000D0E90105112B0BD03B2B07D0382B1ED1D9
:10923000C9880223002908BF042302E0012300E0BB
:10924000002343EA0141C0E9001207F0BAFBD5E967
:1092500000320224A968012B2C6004D15268054613
:1092600008469047284607F0D7FB002030605DF89D
:1092700004BBF0BD45F28C3045F2B432C0F20300BD
:10928000C0F20302282109F051FED4D480B56F4604
:1092900084B00A46018803398BB2052B28BF03210D
:1092A00089B2DFE801F0033C202B0E0045F20C519F
:1092B0001046C0F20301072204B0BDE880400AF066
:1092C00080BC0430039045F2445045F25451C0F242
:1092D000030003AB00901046C0F2030103220AF022
:1092E000C0FC04B080BD45F21E511046C0F203011F
:1092F0000A2204B0BDE880400AF063BC029045F247
:10930000285045F23851C0F2030000901046C0F2D8
:10931000030102AB0B220AF0A4FC04B080BD45F2AD
:1093200013511046C0F203010B2204B0BDE8804087
:109330000AF047BC80B56F4684B00A460188DFE872
:1093400001F002310D1F45F257511046C0F20301E2
:109350000C2204B0BDE880400AF033BC0230029019
:1093600045F2645045F27851C0F20300C0F20301A7
:109370000090104602AB04220AF073FC04B080BDDA
:109380000430039045F2445045F25451C0F20300BA
:1093900003AB00901046C0F2030103220AF061FC07
:1093A00004B080BD45F20C511046C0F20301072203
:1093B00004B0BDE880400AF004BCD4D480B56F4648
:1093C00084B00A460188DFE801F0033D202B0E003F
:1093D00045F257511046C0F203010C2204B0BDE81B
:1093E00080400AF0EEBB0430039045F2445045F251
:1093F0005451C0F2030003AB00901046C0F20301C9
:1094000003220AF02EFC04B080BD45F29F511046A5
:10941000C0F20301112204B0BDE880400AF0D1BBC4
:109420000230029045F2645045F27851C0F20300D8
:10943000C0F203010090104602AB04220AF011FCB6
:1094400004B080BD45F290511046C0F203010F22D6
:1094500004B0BDE880400AF0B4BB0A46016849B1D7
:1094600001290FD145F21E511046C0F203010A2214
:109470000AF0A7BB45F20C511046C0F203010722C7
:109480000AF09FBB80B56F4682B00430019045F270
:10949000445045F25451C0F2030001AB0090104615
:1094A000C0F2030103220AF0DCFB02B080BD0A46D1
:1094B0000168A1B180B56F4682B00430019045F2D9
:1094C000445045F25451C0F2030001AB00901046E5
:1094D000C0F2030103220AF0C4FB02B080BD45F2D2
:1094E00057511046C0F203010C220AF06ABBD4D4D3
:1094F000F0B503AF2DE9000F8BB0824690F8000164
:10950000009160B1032840F0B381D14619F8FC0FF7
:1095100040B3032840F0B281DAF8F84051E0DAF8BD
:10952000C0000078142880F08981742140F2800204
:1095300000FB01F3C2F20202D35CDB077AD010FB1E
:109540000120DAF8C440408807F08CFE064600206F
:10955000D14609F8FC0F09F1050049E90D6449F805
:109560002C0C03E0DAE93264DAF8D00055464FF00B
:10957000000845F8D44F05F129012C46686044F8ED
:10958000088FC5E90551C5E9074608F054F80028D9
:1095900000F024813068002840F01A8170684FF094
:1095A000FF313160002840F0508145F6A40105F1FB
:1095B0001400C0F203010022C6E90020B160CAF81D
:1095C000F840009A2046214602F0B9FDB0B19AF861
:1095D0004C0103218AF800118AF8FC1090B303288B
:1095E00040F052819AF848010AF5A479002850D039
:1095F000032840F04381DAF844517AE0DAF8F44085
:109600000020CAF8F40054B108F015F8002800F062
:10961000F0802068002840F0F78000206060DAF8D1
:10962000DC00012803D1DAE93810C9688847012035
:1096300089F8000001208AF8000100200BB0BDE885
:10964000000FF0BDDAE94108DAF80C11CAF8101180
:109650000078142880F0F280742140F2800200FB30
:1096600001F3C2F20202D35CDB0700F08D8010FB35
:1096700001200AF58874408807F015FB0646002093
:109680008AF848010AF5A479CAE94568CAF81C4174
:1096900003E0DAE94568DAF81C410AF249104FF0B4
:1096A000000B0AF594750AF59071CAE94D10CAE9E4
:1096B0004F56CAE94884CAF828B107F0BCFF002811
:1096C00000F0A8803068002840F0828070684FF079
:1096D000FF313160002840F0B88045F634110AF5BA
:1096E0009A70C0F203010022C6E90020B160CAF8F6
:1096F0004451009A2846294602F021FD50B3032028
:1097000040F210588AF84C01C5F200088AF8480166
:109710009AF82C00DFE810F00600C400C400140022
:109720003F00070504A84FF48032002309F059F9DF
:10973000DDE904019DF81820CAE90C018AF83820F7
:1097400000990AF1300009F072F9002800F0A981AF
:109750000320A6E0DAF840410020CAF8400144B1F5
:1097600007F069FF002844D0206800284CD1002071
:109770006060DAF82801012803D1DAE94B10C968E2
:109780008847012089F8000001208AF84C010BB0BD
:10979000BDE8000FF0BD564616F8940FA6F164011F
:1097A000019178B1032875D1D14646F2000B19F822
:1097B000540FC4F2000B40B1032840F06386DAE98D
:1097C000135B34E2DAE90D017FE1DAF8441017E2C5
:1097D00046F2EC20C0F2030009F007FB0120CDF8AF
:1097E0002080059046F2B810C0F20300CDF81C802E
:1097F0001AE001210020059146F2B811C0F20301E0
:1098000008900491079010E046F2FC20C0F203009B
:1098100009F0EBFA0120CDF820B0059046F2B8101F
:10982000C0F20300CDF81CB00490042046F23021B1
:10983000069004A8C0F2030109F06DFB45F68032E2
:109840001421C0F2030209F0A1FB012100200591BF
:1098500046F26821C0F203010890079004200491A9
:1098600046F2DC21069004A8C0F2030109F053FB84
:1098700045F69400C0F203000AF0DCFC45F6241023
:10988000C0F203000AF0D6FC45F61400C0F2030053
:109890000AF0D0FC45F6B010C0F203000AF0CAFC92
:1098A000FEDE8AF82C0047F214159AF8A40047F25D
:1098B0002C69C4F20005C4F2000938B303281DD195
:1098C000564616F8BE0F68B1032811D1544614F855
:1098D000B80F50B1032842D045F21470C0F2030013
:1098E0000AF0A8FCDAF8A81018E0DAF8B40021E0D1
:1098F00045F6F410C0F203000AF09CFC00990AF14E
:10990000A80009F094F8002840F0B88000205646DE
:1099100006F8BE0F56F8261C46F8161C00225046C4
:10992000CAF8AC10544620F8BC2F096804F8B82FC8
:1099300044E90210C9F8000001200021C9F8040020
:1099400045F8101C0221C5F8F0114FF6EC61CFF676
:10995000FF7168504FF6F061CFF6FF7168500098C4
:10996000016848F69870C2F2020009F09AF855F8BA
:10997000100C002800F084800020012145F8100C14
:1099800028604FF6F460CFF6FF702950286840B980
:109990002868002804BF2868002802D12868002809
:1099A000F4D0002028600120DAF8AC108AF8B80062
:1099B000486800286ED1BAF9BC009FEDF41A00EE99
:1099C000100A0020B8EEC00A20EE010A9FEDF01A3E
:1099D00080EE010A9FEDEF1A20EE010A9FEDEE1ACC
:1099E00080EE010AB0EE081AB4EE410AF1EE10FA68
:1099F00020D99FEDEA1A0A20B4EE410AF1EE10FADE
:109A000018D9B0EE0C1A1E20B4EE410AF1EE10FA8D
:109A100010D99FEDE31A3220B4EE410AF1EE10FAAC
:109A200008D9B1EE001A5A20B4EE410AF1EE10FA4C
:109A300088BF64200A7A824202D1012030700EE091
:109A400008720123DAF8AC20DAE92710127A8AF8D2
:109A5000BE3009888DF8102004AA07F084FB04A802
:109A60004FF47022002308F0BCFFDDE904019DF8EB
:109A70001820CAE92A018AF8B0203FE7042002E052
:109A80000320307020708AF8A40004200BB0BDE8D9
:109A9000000FF0BD45F604220121C0F2030209F0D7
:109AA00075FA00235146DAE900025646CAE907333F
:109AB000CAE9093341F8183F126806F8943F534643
:109AC00043F8302FCAE90D010193CAE90F0101786B
:109AD000012900F0E78142784FF43E734FF43E7164
:109AE00002F01F05202A4FF0010238BF6FF0070374
:109AF00002FA05F548F803504FF43E758378202BA1
:109B000003F01F0338BF6FF0070502FA03F348F8AC
:109B100005304FF43E75C378202B03F01F0338BF88
:109B20006FF0070502FA03F348F805304FF43E756D
:109B30000379202B03F01F0338BF6FF0070502FAEB
:109B400003F348F805304079202800F01F0038BFA3
:109B50006FF0070102FA00F048F8010008F54071C3
:109B6000DAF83C000B46C279202A38BF43461B680E
:109B700002F01F0223FA02F2D20740F04E81427A2D
:109B80000B46202A38BF43461B6802F01F0223FA07
:109B900002F2D20740F04181C27A0B46202A38BF38
:109BA00043461B6802F01F0223FA02F2D20740F07C
:109BB0003481427B202A38BF4146096802F01F02E7
:109BC000D140C90740F029810025D14609F8545FEA
:109BD00046F2000B811D00F1080200F10A030C306F
:109BE00089F83C50C4F2000BC9F82C0089F82850C1
:109BF000C9F8183089F81450C9F8042049F8101C25
:109C00000878554645F8480F072800F234840BEBD6
:109C100080000021C0F800110121DAF8480000F0AE
:109C20001F0001FA00F0CBF80403CAE9135B2868AF
:109C3000072800F21984009948F6D852C2F20202AD
:109C400002EBC000096808F02CFF2868082880F0A3
:109C500004840BEB80000121D0F80001002808BF2C
:109C6000032189F8001040F0D8809AF8680028B1E4
:109C7000032840F00784DAE918541CE0DAF85800A9
:109C8000554646F20004C4F20004007845F85C0F23
:109C9000072800F2F08304EB80000021C0F80011D7
:109CA0000121DAF85C0000F01F0001FA00F0C4F8AE
:109CB0000403CAE918542868072800F2D5830099DC
:109CC00048F6D852C2F2020202EBC000096808F05E
:109CD000E8FE2868082880F0C08304EB800001219A
:109CE000D0F80001002808BF03218AF8681040F06E
:109CF00094809AF87C0028B1032840F0C383DAE905
:109D00001D541CE0DAF86C00554646F20004C4F21B
:109D10000004007845F8700F072800F2AC8304EBCC
:109D200080000021C0F800110121DAF8700000F075
:109D30001F0001FA00F0C4F80403CAE91D542868A2
:109D4000072800F29183009948F6D852C2F2020225
:109D500002EBC000096808F0A4FE2868082880F01B
:109D60007C8304EB80000121D0F80001002808BFAB
:109D700003218AF87C1050D19AF8900090B1032802
:109D800040F08083DAE9225429E000BF9A99193F14
:109D900000F07F45004786490050C347CDCC4C407A
:109DA000CDCC6C40DAF88000554646F20004C4F28F
:109DB0000004007845F8840F072800F25C8304EB68
:109DC00080000021C0F800110121DAF8840000F0C1
:109DD0001F0001FA00F0C4F80403CAE922542868FD
:109DE000072800F24183009948F6D852C2F20202D5
:109DF00002EBC000096808F054FE2868082880F0CB
:109E00002C8304EB80000121D0F80001002808BF5A
:109E100003218AF8901000F09181DAF83C104FF499
:109E20003F734FF43F704A7802F01F06202A4FF02C
:109E3000010238BF6FF0030302FA06F648F8036028
:109E40004FF43F768B78202B03F01F0338BF6FF061
:109E5000030602FA03F348F806304FF43F76CB7856
:109E6000202B03F01F0338BF6FF0030602FA03F341
:109E700048F806304FF43F760B79202B03F01F0390
:109E800038BF6FF0030602FA03F348F80630497949
:109E9000202901F01F0138BF6FF0030002FA01F121
:109EA00048F8001000230F204FF0010CDAF83C2096
:109EB0004FF43E7608F5407E024412F80E2C202A1C
:109EC00002F01F0238BF6FF007060CFA02F248F8E2
:109ED0000620DAE90F260644D5797246202D38BFD0
:109EE0004246126805F01F05EA4002F0010206F83A
:109EF0000F2CDA0711D0DAE90F1273460244497ABF
:109F0000202938BF43461B6801F01F0123FA01F1E5
:109F100001F0010102F80A1C13E0DAE90F2374468C
:109F20000344527A13F80F6C202A38BF4446256840
:109F300002F01F0225FA02F202F0010203F80A2CD5
:109F4000B6B3DAE90F1273460244C97A202938BF42
:109F500043461B6801F01F0123FA01F101F00101E2
:109F600002F8051CDAE90F12497B202938BFC646E2
:109F7000DEF8003001F01F0123FA01F101F00101C8
:109F800011540123DAF83C104FF43F7201440130C0
:109F900011F80E1C202901F01F0138BF6FF00302D9
:109FA00014280CFA01F148F802107FF47FAF2CE07E
:109FB000DAE90F2371460344D27A13F80A6C202A97
:109FC00038BF4146096802F01F02002E21FA02F153
:109FD00001F0010103F8051CC4D1DAE90F121318CE
:109FE00013F8053C497B202938BFC646DEF80060DF
:109FF00001F01F01002B26FA01F101F001011154BB
:10A00000BFD1DAF840100B5CBCE7DAF83C0003F093
:10A0100001010AF1080301224FF0000B182501701D
:10A020000026BAF8290000249AF82B108AF8942008
:10A030008AF82910AAF82700019307E001F001012E
:10A0400007F096FE019B0BF5167B0134002E18BF1E
:10A050004E4506D12C2D10D00AEB050605350AEB2E
:10A06000050916F8011B112CEDD81868584490F812
:10A070005022002AE2D10174E5E7DAF8040002F088
:10A08000FEF80C46002866D0DAE9021002F09EF9CC
:10A09000E0B3DAE904130025D0F803200678098933
:10A0A000B0F80700CDF80A2002AAADF80E00184655
:10A0B00008238DF809508DF8086007F054F802283D
:10A0C00009D140F23700C0F20000ADF8100004A83A
:10A0D00008F02FFE1AE0CDE9040140F26000C0F262
:10A0E000000027F81E0CA7F11E0008F010FE40F239
:10A0F000B500C0F2000027F81E0CA7F11E0008F002
:10A10000C5FD04A807F060FA03F032FD04A811228F
:10A11000002308F066FCDDE904019DF81820CAE977
:10A120000C018AF8382000990AF1300008F07FFC11
:10A1300000283FF4B6AC0520FFF7B3BB0320307016
:10A14000DDE9001001F0A9FF002840F083810C46F2
:10A150000AF108000190019E04F00101306800F549
:10A16000295292F8403233B142F63022104407F0BF
:10A17000FFFD019E00E01170306842F698414218E0
:10A1800004F0020192F840324BB142F6884210448A
:10A19000002918BF012107F0EBFD019E01E04808EE
:10A1A0001070306842F6F061421804F0040192F831
:10A1B00040324BB142F6E0621044002918BF012141
:10A1C00007F0D6FD019E01E088081070306843F268
:10A1D0004811421804F0080192F840324BB143F2A2
:10A1E00038121044002918BF012107F0C1FD019E5B
:10A1F00001E0C8081070306843F2A031421804F042
:10A20000100192F840324BB143F2903210440029D1
:10A2100018BF012107F0ACFD019E01E00809107094
:10A22000306843F2F851421804F0200192F84032AD
:10A230004BB143F2E8521044002918BF012107F046
:10A2400097FD019E01E048091070306843F6500107
:10A25000421804F0400192F8403243B100F56150D9
:10A26000002918BF012107F083FD019E01E0880944
:10A270001070306843F6A821014491F8402242B1A1
:10A2800043F698210844E1B2C90907F071FD019E27
:10A2900002E0E0B2C0090870306804F4807100F593
:10A2A000745292F840324BB143F6F0421044002908
:10A2B00018BF012107F05CFD019E01E0080A107043
:10A2C000306843F65871421804F4007192F8403235
:10A2D0004BB143F648721044002918BF012107F022
:10A2E00047FD019E01E0480A1070306844F2B01149
:10A2F000421804F4806192F840324BB144F2A0124B
:10A300001044002918BF012107F032FD019E01E031
:10A31000880A1070306844F20841421804F4006161
:10A3200092F840324BB144F2F8321044002918BF81
:10A33000012107F01DFD019E01E0C80A1070306880
:10A3400044F26061421804F4805192F840324BB1FB
:10A3500044F250621044002918BF012107F008FDA3
:10A36000019E01E0080B1070306844F6B8014218F5
:10A3700004F4005192F840324BB144F6A802104464
:10A38000002918BF012107F0F3FC019E01E0480BF2
:10A390001070306844F61031421804F4804192F88D
:10A3A000403243B100F59640002918BF012107F063
:10A3B000DFFC019E01E0880B1070306844F66851A4
:10A3C000421804F4004192F840324BB144F658521E
:10A3D0001044002918BF012107F0CAFC019E01E0CA
:10A3E000C80B1070306844F6C071421804F4803114
:10A3F00092F840324BB144F6B0721044002918BFB5
:10A40000012107F0B5FC019E01E0080C10703068D6
:10A4100045F21821421804F4003192F840327BB121
:10A4200045F208221044002918BF012107F0A0FCC2
:10A43000DAE9021001F0CAFF00287FF42AAE65E6CF
:10A44000480C1070DAE9021001F0C0FF00287FF418
:10A4500020AE5BE60420FFF724BA45F684220821EB
:10A46000C0F2030208F092FD45F674220821C0F202
:10A47000030208F08BFD45F284720821C0F203024A
:10A4800008F084FD45F29470C0F2030009F0D2FE9A
:10A49000F0B503AF2DE9000F85B00C461168002917
:10A4A00000F0AB802188112917D11546846806F089
:10A4B00088FAD4E900320226A168012B266004D173
:10A4C0005268044608469047204606F0A5FA002048
:10A4D000286005B0BDE8000FF0BD0068D0E9006558
:10A4E000A08803F019FCC00700F09280208807F8CC
:10A4F000251C392879D140F22300CDE90065C0F24E
:10A500000000B4F80EA0ADF80C0003A808F0FFFBA3
:10A5100040F20600C0F20000ADF80C0003A808F0FD
:10A52000B5FB04F10A05284608F0B0FB40F2050B24
:10A5300003A8C0F2000BADF80CB008F0A7FB04F1C3
:10A540000C06304608F034FC40F20C00C0F200006B
:10A55000ADF80C0003A808F099FB03A8CDF80CA0F7
:10A5600008F06CFB04A8ADF810B008F08FFBDDF824
:10A570000C9004F11008B9F1000F08D044462046B1
:10A5800008F016FCB9F1010904F10104F7D103F058
:10A59000EFFA3078032815D2DDE90012BAF1040F82
:10A5A00023D3012802BF2888898881421DD1BAF1AE
:10A5B000040F3ED11068D8F800200068014601F071
:10A5C00017FE12E040F29600C0F20000ADF80C0059
:10A5D00003A808F09CFB03A8ADF80CB008F056FBEC
:10A5E000304608F0E5FB03F0C3FAA7F1250003F0BD
:10A5F000C3FA05B0BDE8000FF0BD45F6481045F6BA
:10A600007012C0F20300C0F20302282108F08EFC91
:10A6100040F29500C0F20000ADF80C0003A808F06D
:10A6200076FBA7F11D0000F06EFB03F0A1FA08F025
:10A63000BBFB40F28700C0F20000ADF80C0003A89D
:10A6400008F077FB08F0B0FBF0B503AF2DE9000F81
:10A650008BB00C461168002900F05B81218811291C
:10A6600017D11546846806F0ACF9D4E90032022609
:10A67000A168012B266004D1526804460846904721
:10A68000204606F0C9F9002028600BB0BDE8000F95
:10A69000F0BD00682646D0F8009036F8040F03F0AD
:10A6A0003BFBC00700F04081208807F82D1C502894
:10A6B00000F09F8051282DD0522840F0228140F296
:10A6C0002400C0F20000ADF81C0007A808F01FFB32
:10A6D00040F20600C0F20000ADF81C0007A808F028
:10A6E000D5FA304608F0D2FA03F042FA308803F087
:10A6F00013FBC00700F00581A7F1210007F8211C1A
:10A7000003F0BAFC002800F0E180CA6BA7F1210138
:10A710009047F2E0A079CDF81490022840F015811E
:10A72000208A039040F22700C0F20000B4F812B073
:10A73000ADF81C0007A8049107F8211C08F0E7FAFF
:10A7400040F20600C0F20000ADF81C0007A808F0B7
:10A750009DFA04F10806304608F098FA40F20C0021
:10A76000C0F20000ADF81C0007A808F08FFA07A897
:10A77000CDF81CB008F062FA40F205080AA8C0F251
:10A780000008ADF8288008F081FADDF81C9004F18B
:10A79000140AB9F1000F08D05546284608F008FB06
:10A7A000B9F1010905F10105F7D103F0E1F914F858
:10A7B0000E2F501EC0B2052840F2EA8040F29D00E4
:10A7C000C0F20000ADF81C0007A808F0A0FA07A826
:10A7D000ADF81C8008F05AFA204608F0E9FA03F0B8
:10A7E000C7F9A7F1210001F073FE0BB0BDE8000F1F
:10A7F000F0BDE089059040F22500C0F20000B4F8F9
:10A800001080ADF81C0007A808F081FA40F206009D
:10A81000C0F20000ADF81C0007A808F037FAA61D2A
:10A82000304608F033FA40F20C00C0F20000ADF8F8
:10A830001C0007A808F02AFA07A8CDF81C8008F029
:10A84000FDF940F20500C0F20000ADF828000AA8AA
:10A8500008F01CFADDF81CB004F1120ABBF1000F7D
:10A8600008D05546284608F0A3FABBF1010B05F1C4
:10A870000105F7D103F07CF914F80C3F581EC0B263
:10A8800006280BD23288A7F12D010598CDE9000AE0
:10A890004846CDF8088002F0E9FA32E040F29C0028
:10A8A000C0F20000ADF81C0007A808F030FA40F232
:10A8B0000500C0F20000ADF81C0007A808F0E6F99A
:10A8C000204608F075FA03F053F91AE0A7F12100C9
:10A8D000002106F083FC02280FD0CDE9070140F2E9
:10A8E0005D00C0F20000ADF828000AA808F00FFAD9
:10A8F00007A800F016FA03F03BF9A7F1210003F0D6
:10A900003BF9A7F12D0003F037F90BB0BDE8000FBC
:10A91000F0BD45F6481045F67012C0F20300C0F2D3
:10A920000302282108F002FB40F29B00C0F2000065
:10A93000ADF81C0007A808F0EAF9A7F11D0000F027
:10A94000E2F903F015F908F02FFA012815D140F2C9
:10A9500026000E46C0F20000ADF81C0007A808F063
:10A96000D6F904F1080000F0BBF903F001F9E2891F
:10A9700033462189059801F075FE40F29E00C0F231
:10A980000000ADF81C0007A808F0D3F908F00CFA95
:10A990000498318802900598039BCDE900AB01F043
:10A9A00077FEFFF775BDFFF74FBEF0B503AF2DE99A
:10A9B000000B88B0BD6804460E4698469146A87ABA
:10A9C0008DF81C0006A8D5F80610069104F09EFA32
:10A9D000ADF81400000C05AA8DF81600A888042311
:10A9E000F968CDE902022046CDE900534A460491B8
:10A9F0003146434604F0B1F808B0BDE8000BF0BDA5
:10AA0000F0B503AF2DE9000788B0BD6804468A465B
:10AA100098469146A87A8DF81C0006A8D5F806102D
:10AA20002E68069104F072FAADF81400000C05AA25
:10AA30008DF81600A8880123F968CDE902022046A6
:10AA4000CDE900634A4604915146434604F085F837
:10AA500008B0BDE80007F0BDF0B503AF2DE9000B6D
:10AA600088B0BD6804460E4698469146A8798DF890
:10AA70001C0006A8D5F80210069104F047FAADF8BC
:10AA80001400000C05AA8DF8160028880123F96827
:10AA90000735CDE902022046CDE900534A4604912C
:10AAA0003146434604F059F808B0BDE8000BF0BD4C
:10AAB000F0B503AF2DE9000F89B0BD6883468A4623
:10AAC00098469146D5E90064A87B8DF8200007A838
:10AAD000D5F80A10079104F019FAADF81800000C27
:10AAE00006AA8DF81A0028894346F968CDE90202C2
:10AAF0005846049151464A46CDE9006404F02DF8C9
:10AB000009B0BDE8000FF0BDF0B503AF2DE9000BB3
:10AB100088B0BD6804460E4698469146A87B8DF8DD
:10AB20001C0006A8D5F80A10069104F0EFF9ADF85C
:10AB30001400000C05AA8DF8160028890823F9686E
:10AB4000CDE902022046CDE900534A460491314640
:10AB5000434604F002F808B0BDE8000BF0BDF0B5C4
:10AB600003AF2DE9000B88B0BD6804460E46984639
:10AB70009146287A8DF81C0006A86968069104F0B1
:10AB8000C5F9ADF81400000C05A98DF81600688809
:10AB90000222CDE902012046CDE9005231464A4663
:10ABA000434604F071F908B0BDE8000BF0BD006841
:10ABB00009F0ABB8CA690068D30648BF09F04DBBBD
:10ABC000920658BF09F0BCBC09F07DBBCA69006899
:10ABD000D30648BF09F041BB920658BF09F013BD28
:10ABE00009F071BBD0B502AF82B0044640F2B400A8
:10ABF000C0F2000027F80A0CA7F10A0008F046F896
:10AC0000204606F005FD02B0D0BDD0B502AF82B03F
:10AC1000044640F2B300C0F2000027F80A0CA7F186
:10AC20000A0008F033F8204606F054F802B0D0BD10
:10AC3000D0B502AF82B0044640F20700C0F2000077
:10AC400027F80A0CA7F10A0008F020F8204607F0C0
:10AC5000F5FF02B0D0BDD0B502AF82B0044640F2DD
:10AC60000900C0F2000027F80A0CA7F10A0008F05A
:10AC70000DF8204607F0E2FF02B0D0BDD0B502AF1C
:10AC800082B0044640F20D00C0F2000027F80A0C22
:10AC9000A7F10A0007F0FAFF204608F075F846F21F
:10ACA0002200C0F2030007F0F1FF02B0D0BDD0B522
:10ACB00002AF82B0044640F20D00C0F2000027F857
:10ACC0000A0CA7F10A0007F0E1FF204608F04DF852
:10ACD00046F22200C0F2030007F0D8FF02B0D0BD58
:10ACE000D0B502AF82B0044640F20600C0F20000C8
:10ACF00027F80A0CA7F10A0007F0C8FF204607F062
:10AD0000C5FF02B0D0BD80B56F4682B040F20100F1
:10AD1000C0F2000027F8020CB81E07F0B7FF02B01F
:10AD200080BDD0B502AF82B0044640F2B600C0F29A
:10AD3000000027F80A0CA7F10A0007F0A7FF204639
:10AD400006F042FC02B0D0BDD0B502AF82B00446DE
:10AD500040F20900C0F2000027F80A0CA7F10A002F
:10AD600007F094FF206807F069FF02B0D0BD80B5FE
:10AD70006F4682B040F2B700C0F2000027F8020C24
:10AD8000B81E07F083FF02B080BDF0B503AF2DE918
:10AD9000000B84B0096840F6B830C2F2020006F039
:10ADA00055FC0020019001A84BDF05F0F4FEB8B17E
:10ADB000052902BF04B0BDE8000BF0BD40F28400DD
:10ADC0000291C0F2000027F81A0CA7F11A0007F050
:10ADD0009EFF02A8FFF719FF02F0CAFE07F0E4FF8A
:10ADE00040F2200840F20709A7F11A0402AD01AEB3
:10ADF000C0F20008C0F2000907E005F03DFE304651
:10AE00004BDF05F0C8FE0028D2D101980290204601
:10AE100027F81A8C07F07BFF204627F81A9C07F0CA
:10AE200035FF284607F00AFF02F0A2FE0298011F34
:10AE3000082928BF0228E2D3DFD0032802D105F079
:10AE400063FEDCE740F28300C0F2000027F81A0C32
:10AE5000A7F11A0007F05BFF02A8FFF7E9FE02F076
:10AE600087FE07F0A1FFF0B503AF4DF804BDA4B015
:10AE7000096840F6C030C2F2020006F0E7FB802607
:10AE800001A827F81A6CA7F11A0161DF05F083FE0B
:10AE900070B901ACA7F11A05204606F0F9F927F8B8
:10AEA0001A6C2946204661DF05F075FE0028F3D0B4
:10AEB00005291CBF43F20100814203D124B05DF893
:10AEC00004BBF0BD0C290AD140F28500C0F200009D
:10AED000ADF8880022A807F02CFF07F065FF40F2CC
:10AEE00086002291C0F2000027F8120CA7F1120090
:10AEF00007F00DFF22A8FFF788FE02F039FE07F0E9
:10AF000053FF0168012902D102210160FEDE80B5F4
:10AF10006F4686B001210020019145F64041C0F204
:10AF200003010490009145F6A8410390042002908B
:10AF3000C0F20301684607F0EEFF0022016080F8CE
:10AF40002C20704745F6604281501044002180F863
:10AF50004510704700688C460068B0F5005F19DB4B
:10AF6000B0F5405F3DDDB0F5485FC0F25080B0F510
:10AF70004C5F80F26D80A0F54850DFE810F00600CD
:10AF80004F0102012201BD008C0145F64671C0F25D
:10AF9000030194E1B0F5805F4CDA013045F6F841E9
:10AFA0000722C0F20301DFE810F015008B019700C3
:10AFB000C70077001C014601D7006E0187006601BB
:10AFC0006F007F0031016800BF00600004014E0186
:10AFD0009E01140145F6FF416046C0F2030108F0EE
:10AFE000F0BDA0F50050DFE810F00A003601D400F3
:10AFF00004018F005E016E0121017601AF0045F66C
:10B00000EE51C0F203011422604608F0DABD43F2AB
:10B010000101401ADFE810F006002701C500F20028
:10B0200080004F0145F6DA61C0F203010D2260464F
:10B0300008F0C7BD48D041F20101884240F0948039
:10B0400045F6BA51C0F203012222604608F0B9BDAC
:10B050004AD0B0F5505F40F08F8045F6F571172269
:10B06000C0F20301604608F0ACBD45F67F51C0F266
:10B0700003010922604608F0A4BD45F678516046F8
:10B08000C0F2030108F09DBD45F66151C0F2030115
:10B090000C22604608F095BD45F20061C0F2030144
:10B0A0000822604608F08DBD45F66D51C0F20301DF
:10B0B0000B22604608F085BD45F64851C0F20301F9
:10B0C0000C22604608F07DBD45F6A5511522C0F260
:10B0D0000301604608F075BD45F606511122C0F225
:10B0E0000301604608F06DBD45F6DD711822C0F21F
:10B0F0000301604608F065BD45F6A371C0F2030187
:10B100001B22604608F05DBD45F65661C0F20301A2
:10B110001322604608F055BD45F622710E22C0F29A
:10B120000301604608F04DBD45F27451C0F20301C1
:10B130000422604608F045BD45F61751C0F20301F0
:10B140001422604608F03DBD45F6C861C0F2030117
:10B150001222604608F035BD45F63051C0F20301B9
:10B160000C22604608F02DBD45F6DC51C0F203010B
:10B170001222604608F025BD46F20C01C0F2030120
:10B180009DE045F67B71C0F203011422604608F091
:10B1900018BD45F61E61C0F203012222604608F088
:10B1A00010BD45F6FB61C0F203011422604608F0B1
:10B1B00008BD45F68851C0F203010B22604608F035
:10B1C00000BD45F68F71C0F203011422604608F0FD
:10B1D000F8BC45F69C51C0F203010922604608F014
:10B1E000F0BC45F62B510522C0F20301604608F081
:10B1F000E8BC45F64061C0F2030160E045F60F711E
:10B20000C0F203011322604608F0DBBC45F218616E
:10B21000C0F203010822604608F0D3BC45F65C7119
:10B22000C0F203011F22604608F0CBBC45F69E61C8
:10B23000C0F2030143E045F2F051C0F203010822DD
:10B24000604608F0BEBC45F28051C0F20301042202
:10B25000604608F0B6BC45F602611C22C0F203014C
:10B26000604608F0AEBC45F6E761C0F20301142267
:10B27000604608F0A6BC45F65451C0F203010D2209
:10B28000604608F09EBC45F63C51C0F203010C221A
:10B29000604608F096BC45F6BE71C0F203011F225D
:10B2A000604608F08EBC45F66961C0F203011B22BE
:10B2B000604608F086BC45F63071C0F203011622E4
:10B2C000604608F07EBC45F684611A22C0F2030194
:10B2D000604608F076BC45F6B461C0F20301142262
:10B2E000604608F06EBC45F69351C0F20301092296
:10B2F000604608F066BCD0B502AFA0FB00C200FB00
:10B30000012E4CF2503200FB01F312EB0C0243EB26
:10B310000E0352EA03040ED000FB01E142F2107E5C
:10B32000ACFB0E0401FB0E4109F093FC10F57A70A2
:10B3300041F10001D0BD45F6E840C0F2030008F03D
:10B3400066FFF0B503AF2DE9000FADF5364DBBB08C
:10B35000014641F2305001EB000942F2985001EBF6
:10B36000000A43F2E0500844039044F2486001F5BB
:10B37000996B08440DF5B7420490884627200021B8
:10B380000223012500269419915106F5E166033840
:10B39000C4F8C036C4F8C416C4F88836C4F88C168D
:10B3A000C4F85036C4F85416C4F81836C4F81C163D
:10B3B000C4F8E035C4F8E415C4F8A835C4F8AC15F1
:10B3C000C4F87035C4F87415C4F83835C4F83C15A1
:10B3D000C4F80035C4F80415C4F8C834C4F8CC1453
:10B3E000C4F8B014C4F8B414C4F86834C4F86C14C5
:10B3F000C4F83034C4F83414C4E9FE31C4E9F0317F
:10B40000C4E9E231C4E9D431C4E9C631C4E9B83190
:10B41000C4E9AA31C4E99C31C4E99611C4E9843174
:10B42000C4E97631C4E96831C4E95A31C4E94C3120
:10B43000C4E93E31C4E93031C4E92231C4E91431F0
:10B44000C4E90631616084F80057C4F8F81684F83E
:10B45000CC3684F8C81684F8943684F8901684F8AC
:10B460005C3684F8581684F8243684F8201684F85C
:10B47000EC3584F8E81584F8B43584F8B01584F810
:10B480007C3584F8781584F8443584F8401584F8C0
:10B490000C3584F8081584F8D43484F8D01484F872
:10B4A000C01484F8A854C4F8A01484F8743484F840
:10B4B000701484F83C3484F8381484F8043484F824
:10B4C000001484F8CC3384F8C81384F8943384F8D7
:10B4D000901384F85C3384F8581384F8243384F888
:10B4E000201384F8EC3284F8E81284F8B43284F83B
:10B4F000B01284F87C3284F8781284F8681284F8E8
:10B500005052C4F8481284F81C3284F8181284F897
:10B51000E43184F8E01184F8AC3184F8A81184F89F
:10B52000743184F8701184F83C3184F8381184F84F
:10B53000043184F8001184F8CC3084F8C81084F801
:10B54000943084F8901084F85C3084F8581084F8B3
:10B55000243084F8201021747FF415AF06AD0DF56A
:10B56000B74145F66832284609F024F94046294695
:10B5700045F6683209F01EF91A200221C8F878024F
:10B580001420C8F820000820C8F8D0041520C8F8F6
:10B5900028071720C8F880090420C8F8D80B1620FF
:10B5A000C8F8300E0920CBF8180E0A20C9F8080098
:10B5B0001D20C9F860021B20C9F8B8040620C9F88C
:10B5C00010071920C9F868091320CAF8180E1220AC
:10B5D000CAF8C00B0C2000220726CAF868091820F8
:10B5E0005C46CBF8C06BCAF810071C20CBF8B0142F
:10B5F0000323CBF8B4240AF1040ECBF808174FF05C
:10B60000010CCBF80C274546CBF860190526CBF882
:10B6100064298BF81C1ECBF8101ECBF8142E8BF867
:10B62000C41BCBF8B81BCBF8BC2BDDF80CB0CAF8A8
:10B63000B8042C20CAF860020020C8F87422C8E9B7
:10B640000612C4E90012C4E99612C9F8BC2BC9F865
:10B650006429C9F80C27C9F8B424C9E99612C9E9C4
:10B660000012CAF8142ECAF8BC2BCAF86429CAF80A
:10B670000C27CAF8B424CAE996120222C8F870123C
:10B6800088F87C1288F8241088F8D41488F82C17CD
:10B6900088F8841988F8DC1B88F8341E89F8C41BE4
:10B6A000C9F8B81B89F86C19C9F8601989F814171A
:10B6B000C9F8081789F8BC14C9F8B01489F86412DD
:10B6C00089F80C10CAF8101ECAF8B81BCAF860191D
:10B6D000CAF80817CAF8B0148AF81C1E8AF8C41BE6
:10B6E0008AF86C198AF814178AF8BC148AF864125C
:10B6F00022218EE8031000214FF0010ECAE9040355
:10B700004FF0100CCAF81800CBF8340ECBF8DC0B55
:10B71000CBF88409CBF82C07CBF8D404CBE99E20D6
:10B72000CBF824001020CBF8380E1120CBF8E00B1A
:10B730003320CBF888090F20CBF830070E20DDF836
:10B740001080CBF8D8040D20CBF880020B20CBF86A
:10B7500028000420C8F8E00B3820C8F8D8043720A7
:10B76000C8F880023620C8F828002B20A865802061
:10B77000C5F8B809032085F8140C85F86C0E84F818
:10B78000540EC4F8500E84F8FC0B8120C9F8400018
:10B7900008208DF81C00FF208DF818004BF2F720D0
:10B7A0000294C0F20200C4F8E824C4F8EC14C4F80F
:10B7B0004027C4F84417C4F89829C4F89C19C4F861
:10B7C000482EC4F84C1EC4F8F02BC4F8F41BC4F87F
:10B7D000F82B0DF5B744C8F8DC1BC8F8D414C8E939
:10B7E0009E21C8E90821C8F88419C8F89019C8F83A
:10B7F0009819C8F82C17C5E91421C5F8681EC9E9BD
:10B800000E2106A900902046CBF8302ECBF8D82B7D
:10B81000CBF88029CBF82827CBF8D024CBF82020F0
:10B820008BF83C2E8BF8E42B8BF88C298BF8342783
:10B830008BF8DC248BF884228BF82C20C8F8D82BCA
:10B84000C8F8D02488F8E43BC8F88C29C8F89439A3
:10B8500088F834370023C8F8282788F8DC2488F8CB
:10B86000842288F82C2085F85C2085F8BC2989F88A
:10B8700044204FF48042C9F8C06BCAF80060C8F891
:10B880008069C8F888C9C8F830E7C5F810EC059594
:10B8900006F096FA214605F5BE50A4463CC93CC0C8
:10B8A0007CC97CC091E87C0006A97CC008204FF4CC
:10B8B00080428DF81C0001208DF818004BF2F72013
:10B8C000C0F20200002300906046644606F078FA59
:10B8D000059941F61820A6464FF0500C0844214621
:10B8E0006CC96CC07CC97CC091E87C0039217CC0EB
:10B8F0004C200AF14002CAF8500E042089F8FC0BD3
:10B90000002689F8A409022589F84C072C20CAF8DA
:10B9100098022220CAF8F014012143C203205222C7
:10B92000CAE913062A20CBF8C0090020CBE916503B
:10B93000FF20C9F8F81B4F218DF818004BF2F720B3
:10B940005123CBF86817C0F2020006A90524CBF8F2
:10B950001025CBF8B832A422009070460023C9F815
:10B96000F46BC9F8F05BC9F89C69C9F89859C9F833
:10B970004467C9F84057CAF8485ECAF84C6ECAF81E
:10B98000E854CAF8EC64CAE9A456C9F8A059C9F841
:10B9900048678AF8545E8AF8F4548AF89C52CAE9D7
:10B9A0000E468DF81C407446CBF8B859CBF8BC69EC
:10B9B000CBF86057CBF86467CBF80855CBF80C652B
:10B9C000CBE9AC56CBF860C08BF8C4598BF86C57F8
:10B9D0008BF814558BF8BC528BF8645006F0F0F9D4
:10B9E000059944F2F010A446084421466CC96CC085
:10B9F0007CC97CC091E87C0006A97CC00620A422FA
:10BA00008DF81C0001208DF818004BF2F720C0F2D1
:10BA10000200002300906046644606F0D1F90599C3
:10BA200044F24840A446084421466CC96CC07CC915
:10BA30007CC091E87C0006A97CC0FF20A4228DF880
:10BA4000180006208DF81C004BF2F720C0F202000F
:10BA5000002300906046644606F0B2F9059944F26E
:10BA6000A060A446084421466CC96CC07CC97CC057
:10BA700091E87C0006A97CC00520A4228DF81C005A
:10BA800001208DF818004BF2F720C0F202000023CD
:10BA900000906046644606F093F9DDF814C044F661
:10BAA000F8004ECC60444EC06ECC6EC094E86E0080
:10BAB00064466EC028200226DDF808E00021C8F8A0
:10BAC00010052F20CCF8E8020522CEF878002920B6
:10BAD000CCF890000320C8F8D0192123C8F8C81961
